:100000000080202075CC00000379000003790000F7
:1000100000000000000000000000000000000000E0
:100020000000000000000000000000000379000054
:10003000000000000000000003790000CDA10000D6
:1000400003790000C9B000000379000003790000C3
:1000500003790000037900000379000003790000B0
:100060000000000003790000037900000000000098
:100070000000000003790000D1CB0000C9CB0000D4
:100080000379000003790000037900000379000080
:100090000379000003790000000000000000000068
:1000A0000379000003790000000000000000000058
:1000B00003790000000000000379000003790000CC
:1000C000F0B5F3B007930592799A0E92789E0025C9
:1000D000EF437090139112950878A84C201843783C
:1000E000D80628D513984A1CDB0606D5481C11787B
:1000F00061184B78521C0146F6E7139070A8B04780
:100100000446401C01D100F0FAFD0CF044FD9B4870
:1001100000194078C00603D570A8B0470446F4E73C
:1001200070A80CF093FD1298401E1290601C934C26
:1001300001D100F0E4FD01200A9054A801466C3181
:100140000C9101460C3103910D30009014A8401C15
:1001500001900B950D971196029554A870210CF003
:10016000AEFB559770A813A912AA079B98470128C0
:10017000109522D0002801D100F0A7FD401C029B61
:1001800001D100F0A4FD0F93274670A8B0470CF0F2
:10019000CAFC38194078C006F7D4374670A80CF06E
:1001A00055FD1298411E1291601C39D10029109DF5
:1001B0000F9A01D100F087FDB1E01398471C139707
:1001C000417800262A2935460BD101255495871CF4
:1001D000139706E0B819401C1390B85D71A98855B3
:1001E000761CBC5D204630380928F3D971A800215F
:1001F0000F9181550078002803D071A80BF00EFFF5
:1002000055904C2C2FD0682C20D06A2C0BD06C2C05
:1002100010D0742C0AD07A2C16D10120000307E0EC
:10022000109D0F9A7BE00120C00201E001204003F5
:100230002D1819E0B919481C13904A786C2A4F4CB4
:1002400018D1012000020AE0B81910E0B919481CC1
:1002500013904A78682A494C0ED1012040022D188B
:100260005495881C0AE080355495B819401C119E9D
:10027000424C04E0403500E020355495119E411C6D
:10028000139103780C9A13705B2B28D10A785E2A9D
:1002900005D102210D435495811C139182785D2A6A
:1002A00006D1481C1390097854AA1173009901E0F3
:1002B000084603990F9D0278002A09D05D2A07D0CD
:1002C000421C139200784B1C087010461946F2E746
:1002D0000D705D2A01D1401C13900C9803781846CC
:1002E0005B38132800D94EE70121814024480142A0
:1002F00000D148E731461E4670AC20460F4688477D
:10030000054620460CF09FFC1299681C05D1002977
:10031000109D324603D100F0D6FC109D3246099163
:100320001046583820284CD83E460D9F4000C04605
:1003300078448088400087445301260326031C012B
:100340002603260326032603260351002603CE0098
:1003500025005100510051002603250026032603E5
:100360002603260329032500250026032603CE00A5
:1003700026032500260326032500C0467010010031
:10038000010108001746559C70A8B04721460CF0A3
:10039000CAFB14AD002934D014AD2D2C02D02B2C67
:1003A00000D0B2E014A8047070A80C46B0472146F3
:1003B0000CF0B9FB491EF64A00D1D3E00891019D2B
:1003C000A5E01046413806283E460D9F00D990E032
:1003D000012181407120014200D18AE0559D70A821
:1003E000B047044614AB401C09D00CF0D4FB2B2CB6
:1003F00009D114AB002D0BD12B24002513E03C4672
:1004000011E00027B0E014AB002D0CD02D2C0AD148
:1004100014A8047070A8B0470446401C01D00CF02A
:10042000BAFB6D1E019B204661381A2801D3204675
:1004300001E0204620384928E24F109703D04E288B
:100440002AD1E14F10970026B5421BD01098805D4D
:10045000002816D0214661391A2901D3214601E02E
:100460002146203981420CD11F469C5570A8119914
:1004700088470446401C01D00CF08DFB761C3B469F
:10048000E2E73546E81E41424141083D6842684185
:10049000084310909D1964E20022002D5CD0302C9E
:1004A0005AD10F9230201F46187070A8B0470446EA
:1004B000401C01D00CF06FFB7B1C681E0022012148
:1004C0001091002800D1AAE1214661391A2900D2F1
:1004D000A8E12146A8E1549901250846284049068B
:1004E000174676D4002800D00EE1059810C8059074
:1004F0000BE1252A00D046E270A8B047252801D09C
:1005000000F000FC0CF047FB40E20891AC4A0020F0
:100510003B46115C8B4204D0401C0728F9D10020D7
:1005200000E01018801A012813D1302C5CD10F95EF
:1005300070A81090B047054610980CF084FB20205E
:100540008543583D109501D0082010903B460F9DE3
:100550004CE09E49085C48E01946109204920A98C3
:1005600008907CE10027019D3A4638460A990F9190
:1005700062E0559F5498022101400F9114AC002F66
:1005800000D148E170A8B0470546401C089000D152
:10059000B1E010942C46E8B2002303990E7886420D
:1005A0000A4600D01A46491C002E1346F6D10F9B6E
:1005B00059425941531E9A419142119E2546109C21
:1005C00000D098E0611C20700CF0E5FA7F1E0C460C
:1005D000D5E7002800D09DE0059810C805909AE066
:1005E00078220C980270CDE60A20109018466938DF
:1005F000C0B2102801D3002100E00121EA4FC7401A
:100600000F406F2B06D1302C0AD000200A990F9191
:10061000089A11E020463038414241410F42F4D05F
:1006200028466D1C047070A8B0470CF07CFA089A3C
:10063000521E00200F900A98002F24D0002A22D0AA
:10064000002820D020202146814358291BD1089220
:1006500070AF3846B047014638460F460E9A90476D
:10066000E148C0194078800701D4089A0BE02C704B
:1006700070A8B0470CF057FA089A521E00D138E320
:100680006D1C102010900A9F002A23D01098082873
:1006900004D107202146814330290ED010980A2822
:1006A00003D1204630380A2807D31098102811D1DA
:1006B000CD480019407880070CD56E1C2C7070A8AE
:1006C00011991446884722460CF02DFA521E002735
:1006D0003546D9E770A80CF0B9FA1298401E12906E
:1006E0000020287005460F98384001280D9F119E64
:1006F00000D04BE1F5E270A80CF0A5FA1298099928
:10070000814200D087E004E300245598002841D4BA
:10071000054640E000245598002800D40546632A89
:1007200000D0054670A8B04701460CF034FA632F9C
:1007300005D1481E0222D24390420FD917E0481C2F
:10074000022801D3002000E00120A74A5218527865
:10075000D2060A9A00D40246002A08D1002D06D0FB
:10076000002C01D002C400E000246D1EDAE770A85E
:100770000E9A90471298401E12900999814200D11A
:10078000B7E2732F49D1002C47D00020206044E00D
:10079000A01901000125632A00D0054670A8B047C2
:1007A00001460CF0F8F9632F05D1481E0222D2430E
:1007B000904217D921E0481C022809D3002008E004
:1007C000A019010054190100E61901006A0C01008A
:1007D0000120854A52185278D2060A9A00D402465D
:1007E000002A0AD1002D08D0002C03D0601C2170F3
:1007F000044600E000246D1ED0E770A80E9A9047D2
:100800001298401E12900999814200D171E2732F13
:1008100003D1002C01D0002020700D9FB6E004927F
:10082000154618E021462039582912D17C7070A84D
:10083000119988470446401C01D00CF0ACF9BA1C51
:10084000AD1E00200A9904911146109008900F9A4D
:1008500005E0049205460A9808900F9A19460692F8
:1008600016460F95002D0D466ED02B2C39D02D2C11
:1008700037D02E2C2FD0452C01D0652C0BD10898C9
:10088000002846D0109800285ED0002A5CD10120B4
:10089000074610904AE020463A380A21C943884268
:1008A00029460CD8049800284ED04F4800194078AB
:1008B000800704D4202020437028E3D044E02B2C70
:1008C0000FD02D2C0DD0702CDCD0502CDAD0652C14
:1008D000D5D02E2C1DD10698104335D1012006907D
:1008E00023E00898002808D0481E00782021014302
:1008F0006529294601D1174618E00498002823D01D
:10090000481E00782021014370291DD11746294631
:100910000CE0002A07D0204630380122092813D8DD
:100920001746164602E00120109000270C7070A8B0
:10093000119988470446401C01D00CF02CF9691C21
:100940000F9D6D1E3A468CE71099481E814110910B
:10095000701E8641002A0A9800D030461099014046
:1009600010910D9F70A80CF071F9601C02D01299C3
:10097000491E129100212970129A099B9342119EDF
:10098000109D00D1A8E1012D00D0B3E10C980178B1
:10099000012508465B381D283ED804A2124C4000B1
:1009A000105A40008744C046818000002400220085
:1009B00022002200220022004600220057014600A9
:1009C0004600460046002200460022002200220087
:1009D0002200A30046004600220022005701220008
:1009E000460022002200460070100100FFF7B5FB10
:1009F0005499C80701D0FFF7B0FB05980068490675
:100A000000D5C8E014A94A1C0978431C01700029CC
:100A100018461146F7D1C7E0084641380628BF4CB2
:100A200001D9FFF79AFB012282407120024201D1D5
:100A3000FFF793FB14A80078002800D10BE154982D
:100A4000C20700D007E10B46613B172B3AD80022C2
:100A50009B0002A4E358B14C9F46C046D90A00004F
:100A6000570C0000570C00006B0B0000D90A000067
:100A7000D90A0000D90A0000570C00006D0B0000D5
:100A8000570C0000570C0000570C0000570C0000DA
:100A9000570C0000BD0A00008F0B0000570C00002F
:100AA000570C0000570C0000570C0000BD0A000056
:100AB000570C0000570C0000BD0A000078293FD0F9
:100AC00008223EE04139062900D9C4E001228A40CB
:100AD00071210A4200D1BEE0C021084080281ED00A
:100AE000402826D114A8002103F036FC1BE05498BE
:100AF000C10701D0FFF731FB89490840411E02467A
:100B00004A408A4200D894E0002800D183E0414264
:100B1000014084484143C80E83A1085C7CE014A8CE
:100B2000002103F019FC059B04CB05931060516074
:100B300091E014A8002103F00FFC0AF0C9FA87E045
:100B40001022752900D10A2275490840411E03462A
:100B50004B408B4242D900282ED04142014071487F
:100B60004143C80E70A1085C27E00A226C49084086
:100B7000411E03464B408B4248D9002833D04142A6
:100B8000014068484143C80E67A1085C2CE014A8E6
:100B90000021102224E014A90A78002A02D0491C5E
:100BA00004C0F9E7002101600598001D05900B982D
:100BB000401C0B90FFF7D1FA2020401F08280DD8C9
:100BC0007844007940008744580909045D09043AD3
:100BD0003A0014A8002107F0CFF8A4E714A80021D8
:100BE00007F02EFF34E02020401F08280ED8C04612
:100BF00078440079400087444A09090452090427CF
:100C0000270014A8002105F09DFE8CE714A8002100
:100C100007F000FC1CE02020401F082809D8C0462F
:100C200078440079400087444204041F48041F04AC
:100C3000040012980BF0C0FF0860FFF78EFA14A8AA
:100C4000002107F099F803E014A8002105F07AFECE
:100C50000BF0B2FF086054980125294681430B9898
:100C600008180B90FFF779FA1298C117059B04CB6F
:100C7000059310605160FFF770FA14A8002107F087
:100C8000DFFE08E014A8002107F0DAFE0BE014A84C
:100C9000002107F0BFFB0BF08FFF0880DBE714A8F3
:100CA000002107F0B7FB0BF087FF0870D3E712981D
:100CB0000BF082FF0880FFF750FA12980BF07CFFD0
:100CC0000870FFF74AFA0D9F19E00B9F17E00B9889
:100CD000002814D0074612E0002800D121460D4616
:100CE00008E0129809994140E043084302D1ED43DE
:100CF00000E00D9D0B98002800D005462F46384691
:100D000073B0F0BD054670A80BF09DFF681CF1D0D4
:100D100002E008980028EDD00025EBE770100100F4
:100D2000603F000031B57C0700011C021D0E180356
:100D30001E16140F191104081F1B0D171513100789
:100D40001A0C12060B050A09F0B5FFB08EB0049319
:100D500006920646929802900025E84305908C91F1
:100D6000346820460BF087FE21188B9503918C4246
:100D700000D3BCE00020879087A90873889005986D
:100D800089902F46049D2078002800D1B2E02528C4
:100D900005D0641C34600699A8477F1CF3E78B9745
:100DA000601C306087AC2046314600F0BBF88CAA4E
:100DB0002046314600F0D7F8306801780B46683B92
:100DC0000122D341092B2BD87B441B795B009F4424
:100DD00004130A2727271627271943788799682B92
:100DE00019D1520204E0437887996C2B10D112027A
:100DF00011438791801C12E08799D20204E0879901
:100E0000520301E0879912030A438792401C06E0CF
:100E1000401C402201E0401C2022114387910178B0
:100E2000441C346087A80173732913D06E291DD127
:100E3000879832490840411E02464A408A423CD9BE
:100E400000282DD0414201402D484143C80E2DA11C
:100E5000085C26E087A80078400619D4009587A88A
:100E60008CAA8BAB069900F03DF92AE007AD87A963
:100E70008CAA284600F08CF9024628460699029B67
:100E80009847411C059D00D0C5198B9503991AE020
:100E9000009587A88CAA8BAB069900F0C0F810E0EB
:100EA0002020401F082808D8784400794000874453
:100EB0001904040D14040D0404008C9802C88C90CD
:100EC0000F6003998B9D681C13D050E7F8178C991D
:100ED00004C98C9117605060F3E78C9802C88C901D
:100EE0000F70EEE78C9802C88C900F80E9E72F46D0
:100EF00000E0059F38467FB00EB0F0BD603F0000B7
:100F000031B57C0700011C021D0E18031E16140FBC
:100F1000191104081F1B0D17151310071A0C1206C0
:100F20000B050A0910B50A680124E3071AD01378E3
:100F3000302B0CD0232B0ED02B2B0AD02D2B04D0F2
:100F40000024202BF1D1042306E0012304E0102328
:100F500002E0022300E0082304681C430460521CE2
:100F60000A60E1E710BDFEB516460D460446086866
:100F700002782A2A10D13068011D31600068606053
:100F8000002805D5404260602068012101432160AE
:100F90002868471C2F6017E00021303A092A08D83A
:100FA0004218531C2B60435C6F467B545278491C9B
:100FB000F3E76A460023535412784718002A03D0F7
:100FC00068460BF02BF8606038782E2826D1781C04
:100FD000286079782A2908D13068011D31600068BD
:100FE000A0602868401C2860FEBD00203039092917
:100FF00008D839188A1C2A604A786B461A548978AE
:10100000401CF3E76A46002111541078002804D0F0
:1010100068460BF003F8A060FEBDA160FEBDF0B510
:1010200087B01E460C9F13681C1D14601D68002DA0
:101030003AD0049106908468002C04D428460BF022
:10104000F5FC844203D328460BF0F0FC04460698D6
:101050004068A042039000DC2046014630680191C0
:10106000401805940399A142029630600EDD06985F
:101070000078C0070AD1059801990E1A0024B442DD
:1010800004DA20200499B847641CF8E70026049C81
:10109000069805998E420ADA2868010A18D12D1D92
:1010A0002146B847761CF3E70020B84718E00599B9
:1010B000039A8A4214DD0078C00711D00198451ABE
:1010C0000024AC420CDA20200499B847641CF8E7ED
:1010D0000020C043029908600BF030FD58210160E8
:1010E00007B0F0BDF0B585B00C4606460A9D106805
:1010F000011D116000680490002844D00393B76874
:10110000002F04D404980BF0B6FC874203D3049854
:101110000BF0B1FC074602967268BA42114600DC39
:101120003946039B1868009140180192BA42186032
:101130000FDD02980078C0070BD10098C01B039008
:1011400000260398864204DA20202146A847761C10
:10115000F7E70026BE4205DA0498805D2146A847DD
:10116000761CF7E70198B84210DD02980078C007B6
:101170000CD00098C61B0027B74207DA2020214672
:10118000A8477F1CF8E700202146A84705B0F0BD1E
:10119000F0B589B005920E4604467F2080002718DE
:1011A0004868039000250795FF210491FE31202215
:1011B000204601920BF07CFB3046089702977D7029
:1011C000367B31466339152906903DD801228A4085
:1011D000604B1A42069822D007A908AA059B00F086
:1011E000BDF806980025067B012731466F3909298D
:1011F000059504D801228A4057490A423FD1582E0A
:101200003DD0016802230B40079A002A27D0089995
:101210004A1E08922D220A705F425F412FE000298A
:1012200012D1059B1A68111D19601268D1B24D4286
:101230004D410499FC316118089102990A700268C5
:1012400002218A430260CEE7252E02D0582EC3D059
:10125000CAE70020607025202070012078E0002B74
:1012600007D149070BD5089A511E089101991170B1
:1012700005E0089A511E08912B211170002703994F
:1012800003976518089B0178C907264608D102997B
:10129000491CC91A42689142264601DC691A4E1C53
:1012A000591C04984300002730463A460BF040FA98
:1012B00008900599002903D0411C0891077000E0AF
:1012C0000146A94206D8481E691A491C20220BF083
:1012D000EFFA2F7006980078C00606D4311B202242
:1012E00020460BF0E5FA059D2EE0A642059D2BD089
:1012F000311B302720463A460BF0DAFA069B079856
:101300004142414103980140012905D11878400725
:1013100002D43046214604E03078611C2070701CF5
:1013200037701A7B412A0CD0582A05D0612A08D080
:10133000782A01D0702A07D11B781B0701D4612AB3
:1013400002D142784A70477020460BF094FB401956
:1013500009B0F0BD4230240043020000F8B5144645
:101360000F4605468068002804D428681021884369
:10137000286001E00120A860287B1026582808D0AA
:10138000782806D0702804D06F2801D1082600E004
:101390000A262846194600F055F8AA68002A09D1FD
:1013A00002460A4306D12878000749D52B7B002046
:1013B000024612E02B7B642B03D16423002905D461
:1013C0000AE0692B08D1002906D5692301223A6079
:1013D000002240428A4100E00A460094114632460B
:1013E00000F0CEF8A968884206DA401C21684A1E3F
:1013F000226030220A70F5E7287B582803D078282D
:1014000001D070280FD1297809070CD5702800D198
:10141000782021684A1E226008702068411E2160E1
:1014200030210170287B6F280AD12878000707D562
:1014300020684178302903D0411E2160302101709D
:10144000F8BDC04610B5037B702B05D10868021D9E
:101450000A60006800227BE002683E481040421E9D
:1014600004465440944216D9002807D04242024014
:1014700039485043C00E39A2105C00E02020401FC4
:10148000082808D878440079400087444C04041E9A
:1014900038041E04040000221846643814280DD8AD
:1014A00001248440354804420AD12120044205D059
:1014B0000868021D0A600068C21749E0582B46D12F
:1014C0000868031D0B60006842E018466438142861
:1014D00007D8012282402948024206D12120024237
:1014E00003D10020582B024632D10868C21D0720C4
:1014F00082431046083008601068526828E00022D5
:1015000018466438142807D8012484401B48044234
:1015100004D121200442CBD1582B18D10868031DD7
:101520000B60007814E0002218466438142807D8AD
:10153000012484401148044204D121200442B7D13F
:10154000582B04D10868031D0B60008800E010468A
:10155000114610BD603F000031B57C0700011C0240
:101560001D0E18031E16140F191104081F1B0D174A
:10157000151310071A0C12060B050A0900081200B1
:10158000FEB501920D460646582B01D0174800E0E3
:1015900015480090089802903046284305D1029AD9
:1015A0001068411E116030210170019C30462843B3
:1015B00013D030462946224600F01AF807460D4659
:1015C00022460BF0A3F8301A0099085C029B1968B8
:1015D0004A1E1A6008703E46E8E7029800680BF061
:1015E0004AFA401EFEBDC04671170100A417010053
:1015F00080B5102A06D0082A09D1C0084A078018E9
:10160000C90880BD00090A078018090980BD0029A2
:1016100004D111460AF044FD002180BD00230BF0E7
:10162000A7F980BDF0B5C9B0044602E0092808D189
:10163000641C20781F28F9DD2028F9D03E28F7D037
:1016400003E0002801D122462CE0651C28460BF05F
:1016500080F8421C2918824201D20A4622E0201852
:1016600003E0C91EC01EA34215D90278202A01D06A
:10167000092A10D1A04210D9421E1378202B01D084
:10168000092B0ED1A2420AD9831E1D78202DE8D045
:10169000092DE6D006E0421C04E0024602E08A1E64
:1016A00000E04A1E002515702178002922D020462E
:1016B00004E0C21CC178002910461BD00A46613ADA
:1016C000D2B2192A01D8203901704178002911D0ED
:1016D0000A46613AD2B2192A01D82039417081787C
:1016E000002907D00A46613AD2B2192AE1D8203936
:1016F0008170DEE720784C285FD1607854285CD177
:10170000A078552859D1E078522856D120794E2812
:1017100053D16079202850D1A01DF84908AA0AF0B9
:10172000C7FE012800D090E2F54D287800284BD163
:10173000F44F3868F4490968401A45D409A80BF0F9
:10174000E9F8F248002404700AF0EAFCF04804606A
:10175000F048046001262E7038687D210901401888
:101760006438E9490860089D284621460AF06DF969
:101770000028304600D1E043E7490860284621466A
:101780000AF051F9002801D0F0074540E349284606
:1017900009F03AFAE24909F069F9E2490860099862
:1017A000E14908600A98E1490860E1480BF0A4F9B2
:1017B000E0480BF0A1F9E04869E2D24F39682046D1
:1017C00008F094FF002801D049B0F0BD06A80BF046
:1017D000A1F80699079A204602F0E6FB002806D0F9
:1017E000CB4800210160CB480160D4484FE220780B
:1017F000502823D16078492820D1A07844281DD1D1
:10180000E07820281AD1201D05A90091CC4909AA09
:1018100008AB0AF04DFE032800D018E20999C4482D
:10182000089A059B0EC0C34C0EC40C3C0C380BF040
:1018300063F920460BF060F9C24828E2207842287C
:1018400048D16078412845D1A078532842D1E0782A
:1018500045283FD1207920283CD1601D002529460C
:1018600003F05CFC0646B84C21460AF0DCF8049014
:10187000B64F304639460AF0F1F8002800D1374615
:101880000498002800D13C46A04805709C4805708B
:101890000AF046FC9E480460204629460AF0BAF841
:1018A000002809D09B480560A1480BF025F9A14804
:1018B0000BF022F90AF0DCF9002120460AF0C5F805
:1018C0000546F549204609F0D1F8002D00D1C2E1C6
:1018D0003F21C1E120784D2852D160784F284FD167
:1018E000A07854284CD1E0784F2849D1207952284B
:1018F00046D16079202843D17D2000010890A01DA9
:10190000FD4909AA08AB0AF0D3FD002800DCBDE1BF
:10191000099D0024284621460AF085F80490F84ED7
:10192000284631460AF09AF8002800D12E46F7489A
:101930000499002900D1344609940899814200D9BC
:101940000890DC4801210170DB48002101700AF099
:10195000E7FB0998DD490860DD4908600898002820
:1019600001D039680818DB490860DB480BF0C4F87F
:10197000DA480BF0C1F8089B0999E6480A4665E089
:101980002078502866D16078572863D1A0784D28F8
:1019900060D1E07820285DD17D2000010590201DD8
:1019A00005A90091D74909AA08AB0AF081FD0228D0
:1019B00000DA4EE1099E0024304621460AF033F851
:1019C0000490CF4D304629460AF048F800282846B2
:1019D00000D1304604990029214600D101460991E1
:1019E000089E304621460AF01EF8049030462946EB
:1019F0000AF034F8002800D13546C448049900297B
:101A000000D12C4608940599814200D90590A94837
:101A100001210170A848002101700AF081FB09989A
:101A2000AA4908600898AA4908600598002801D0CA
:101A300039680818A7490860A7480BF05DF8A7485F
:101A40000BF05AF8059B089A0999B14808F080FFF5
:101A500049B0F0BD207850287AD16078552877D1E8
:101A6000A0784C2874D1E078532871D1207945288A
:101A70006ED1607920286BD1A01D9F4909AA08ABBF
:101A80000AF016FD022800D0FCE07D200490099C9D
:101A90002046294609F0C7FF0390994E204631465B
:101AA00009F0DCFF002800D12646049800010399C4
:101AB000002900D1354609950899814200D908903E
:101AC0007C48012101707C48002101700AF028FB4C
:101AD00009987E4908607E490860386808990818A6
:101AE0007C4908607C480BF007F87C480BF004F850
:101AF000089909980AF040F849B0F0BDF0190100C2
:101B000077132020EC122020F81220207C132020B4
:101B10004413202028132020BC1220200000B442AF
:101B200000808943C8122020C0122020C412202027
:101B30002012202044122020EE180100CC180100B1
:101B40005D19010066190100000070C200007042BA
:101B5000207851281BD16078552818D1A0784928C1
:101B600015D1E078452812D1207954280FD1607919
:101B700020280CD1A01D00210A2206F04BFC414276
:101B80004141584A117000287ED05A487FE02078A1
:101B9000542819D16078452816D1A0784C2813D143
:101BA000E078452810D1207920280DD1601D002132
:101BB0000A2206F02FFC411E02468A4149490A705A
:101BC00000285DD1494862E03449204608F0D8FF3A
:101BD000002810D03249204608F0D2FF002828D033
:101BE0003049204608F0CCFF002826D020460AF0D5
:101BF00047FC49B0F0BD2F4805702F4805700AF02A
:101C00008FFA2E4805602E4805602E4805602E4844
:101C100005602E4805602E4805602E4805602E4858
:101C20000AF06AFF2D480AF067FF0AF021F82C48F5
:101C30002DE005F011FB49B0F0BD0AF077FE1A481F
:101C400005601A4805601A4821E037481FE035480A
:101C50001DE02D481BE0BF21090607F04CFF0AF0EC
:101C6000F3FA009001902D4A2D4B0120010209A8A2
:101C70000AF04AF9401EFE2800D9A5E509A806E0A9
:101C8000194804E01D4802E0194800E022480AF023
:101C90003BF849B0F0BDC0460000C842CD19010074
:101CA000D6190100881901001013202014132020D8
:101CB0005C1801007C13202077132020441320207F
:101CC0002813202000132020081320203C1320205C
:101CD0004013202004132020201220204412202012
:101CE0001819010082132020A81801009C18010077
:101CF0006918010076180100A71901009018010069
:101D00000000AA424A1901003619010010270000FC
:101D1000DA190100B5190100C0180100DD16010033
:101D20009312010040190100B4180100F0B591B000
:101D30000A910127002A00D10BE30E93002B00D15A
:101D400007E30D921349144D81220C920A6001247D
:101D50002C602C64099002262E602C60A027384647
:101D60000AF0DCFE284610300B902C6138460AF051
:101D7000D5FE2E610998400040B2064A0C991160C8
:101D80002C6010942C6434462E610790002828465D
:101D900005D403E00480424090120A400B98109949
:101DA000016020200F900AF0B9FEFC4D2C603846EF
:101DB0000AF0B4FE2C6138460AF0B0FE099EB00667
:101DC00006900B9800D5F548109901600F980AF01D
:101DD000A5FEF24D2C6038460AF0A0FE2C61384674
:101DE0000AF09CFEF00605900B9800D5EB48109980
:101DF00001600F980AF092FEE84D2C6038460AF018
:101E00008DFE2C6138460AF089FE300704900B984D
:101E100000D5E248109901600F980AF07FFEDF4D6F
:101E20002C6038460AF07AFE2C6138460AF076FEBD
:101E3000700703900B9800D5D848109901600F984F
:101E40000AF06CFED54D2C6038460AF067FE2C6116
:101E500038460AF063FEB00702900B9800D5CF48D1
:101E6000109901600F980AF059FECC4D2C6038464D
:101E70000AF054FE08942C6138460AF04FFEF00731
:101E800001900B9800D0C548109C04600F980AF090
:101E900045FE089EC14D2E6038460AF03FFE2E6179
:101EA00038460AF03BFE2C610F980AF037FE2E6090
:101EB00038460AF033FE2E6138460AF02FFE07F04E
:101EC000B7FFB7490C9A0A602C602C6431462E612A
:101ED0000028374600D130E20A9840B2AF490F4699
:101EE00010370028084600D4384610990160202099
:101EF0000F900AF013FE0224A84D2C60A026304655
:101F00000AF00CFE2C6130460AF008FE0A984006E2
:101F1000384600D5A148109901600F980AF0FEFDDF
:101F20009E4D2C6030460AF0F9FD2C6130460AF0D7
:101F3000F5FD0A988006384600D59848109901604A
:101F40000F980AF0EBFD954D2C6030460AF0E6FD47
:101F50002C6130460AF0E2FD0A98C006384600D5EA
:101F60008E48109901600F980AF0D8FDFB4D2C6047
:101F700030460AF0D3FD2C6130460AF0CFFD0A98B6
:101F80000007384600D5F548109901600F980AF00F
:101F9000C5FDF24D2C6030460AF0C0FD2C61304684
:101FA0000AF0BCFD0A984007384600D5EB48109966
:101FB00001600F980AF0B2FDE84D2C6030460AF03F
:101FC000ADFD2C6130460AF0A9FD0A98800738461D
:101FD00000D5E248109901600F980AF09FFDDF4D8F
:101FE0002C6030460AF09AFD09942C6130460AF0C4
:101FF00095FD0A98C00700D0D84F109C3C6027463A
:102000000F980AF08BFD099CD44D2C6030460AF0E5
:1020100085FD2C6130460AF081FD07F009FFCE49AD
:102020000C9A0A602F602F64002800D174E1CB4D18
:102030002C602F60A02630460AF070FD284610352F
:1020400007610B9630460AF069FDC4490C61C2482D
:102050000C9A02600F600F642F460C6107980028ED
:10206000084600D438461099016020200F900AF0ED
:1020700055FDBA4D2C600B9E30460AF04FFD2C6189
:1020800030460AF04BFD06980028384600D5B34884
:10209000109901600F980AF041FDB04D2C60304658
:1020A0000AF03CFD2C6130460AF038FD0598002806
:1020B000384600D5A948109901600F980AF02EFD06
:1020C000A64D2C6030460AF029FD2C6130460AF0FE
:1020D00025FD04980028384600D5A04810990160D5
:1020E0000F980AF01BFD9D4D2C6030460AF016FD3E
:1020F0002C6130460AF012FD03980028384600D5BE
:102100009648109901600F980AF008FD934D2C60D5
:1021100030460AF003FD2C6130460AF0FFFC0298BD
:102120000028384600D58D48109901600F980AF0B4
:10213000F5FC8A4D2C6030460AF0F0FC2C613046EC
:102140000AF0ECFC0198002800D0844F109C3C6001
:102150000F980AF0E3FC099D804F3D6030460AF07D
:10216000DDFC3D6130460AF0D9FC3C600F980AF076
:10217000D5FC3D6030460AF0D1FC3D6130460AF0A6
:10218000CDFC07F055FE002800D1C8E00D99481E8F
:10219000C2B20E9D7048099FA02618E090120A4016
:1021A00004804240026030460AF0B8FC099F6B4C44
:1021B000276030460AF0B2FC2761109B23606D1C3B
:1021C0000F9A521E0D99491E634800D1AAE00E9540
:1021D0000F920D9163490160604D2F6130460AF006
:1021E0009DFC2F6030460AF099FC5D4C20680B90F6
:1021F00030460AF093FC2F6130460AF08FFC2F60C6
:1022000030460AF08BFC0B98C007800F2168109CA9
:10221000214008180B9030460AF080FC2F613046B0
:102220000AF07CFC2F6030460AF078FC4C480068CD
:102230000A9030460AF072FC2F6130460AF06EFCBC
:102240002F6030460AF06AFC0B9880000A99C90793
:10225000890F401842490968214008180B90304600
:102260000AF05CFC2F6130460AF058FC2F603046C3
:102270000AF054FC3A4800680A9030460AF04EFCD6
:102280002F6130460AF04AFC2F6030460AF046FCC7
:102290000B9880000A99C907890F401830490968CE
:1022A000214008180B9030460AF038FC2F61304668
:1022B0000AF034FC2F6030460AF030FC28480068F1
:1022C0000A9030460AF02AFC2F6130460AF026FCBC
:1022D0002F6030460AF022FC0B9880000A99C9074B
:1022E000890F40181E49096821400C1830460AF031
:1022F00015FC2F610E990C700C98174A1060109AFB
:102300002A602A642F610F98002828460D4600D1C4
:1023100048E71248103045E7032708990BE00427E7
:102320000D4800E000270C99016010980B490860E7
:1023300008640899099C09480461109E074D2E61A4
:102340002960A02420460AF0E9FB2E6020460AF00E
:10235000E5FB384611B0F0BD0480424090120A40BF
:1023600080130A4081000400F0B589B0064607A832
:102370000AF0D0FA0798D6490A68871A089AD54B06
:102380001C68151BD44C266008601A60D34800787E
:10239000012810D1D2480760D2480560D2480168B0
:1023A000002920D0711A1ED4D04900240C60D049D5
:1023B0000C60046019E00495CE480468CE480568B6
:1023C0002046294609F02FFB0028039623D07D20C4
:1023D000C105204607F08FFB0446294609F03EFB65
:1023E000002828D028E0C1480468C44E3568284633
:1023F000214609F018FB002800D196E03F20010695
:10240000284607F078FB0546214609F027FB0028FF
:1024100000D19BE09BE02046294609F01FFB0028E5
:1024200009D0B749204607F066FB0446294609F063
:10243000FAFA002800D125460295AE480560B14D54
:102440002C68384609F0A8FE214607F04FFB7D2195
:10245000CF05394608F00AFB214607F04CFB04463D
:102460002860A94E3568049809F096FE294607F0C1
:102470003DFB394608F0FAFA294607F03CFB0746CF
:10248000306000212046049109F0DFFA06469F499A
:10249000204608F0EBFA3F210A06BF210D06002E68
:1024A000294600D01146019207F025FB09F0CCFE29
:1024B00004468B4804603846049909F0C6FA06467B
:1024C0003846924908F0D2FA002E00D0019D2946E4
:1024D00007F011FB09F0B8FE82490860201A8C4908
:1024E0000860029806900590039E304608F0C6FCEE
:1024F000029089480468894D2F780798089906AAA0
:1025000005AB06F0E5FE012F38D1002800D1C3E06D
:10251000FA4800210160FA480160FA4801607D48EC
:10252000016009F0A5FB09B0F0BD2846214609F07D
:1025300095FA00280AD0BF200106284607F0DBFAEA
:102540000546214609F06FFA002800D12C46346078
:10255000ED4F3E68664805683046294609F063FA43
:1025600000285CD03F200106304607F0C4FA06463A
:10257000294609F073FA002862D062E0341B002873
:1025800005D10798089906AA05AB05F0E5FF002CD0
:1025900000D5E4E00127039809F0E2FF002104914F
:1025A000002818D00AF02AFA0028384600D12878E6
:1025B000C00710D1059C0698002109F02BFA0028CD
:1025C00009D00021204609F025FA002803D0D2487E
:1025D000069005900497039809F03AFF002800D070
:1025E0002F78F80704D10AF009FA002800D197E003
:1025F000039809F0B5FF002800D1B0E00AF0FEF919
:10260000002800D0ABE00698C44C214608F02EFA12
:1026100006900598214608F029FA04469EE03046C7
:10262000294609F01BFA00280AD0BF2001063046CF
:1026300007F061FA0646294609F0F5F9002800D1AD
:1026400035463D602046294606F03CFDC1480068FD
:10265000002109F0DFF9002800D14CE13C68BF48B7
:102660000568BD480068002109F0D4F9002800D1B0
:1026700041E10021284609F0CDF9002800D13AE1D6
:1026800000252046294609F0C5F9002800D132E18D
:102690009E48057009B0F0BDAC480568684209F075
:1026A0007BFDAB4E314608F0E1F904469F480460DB
:1026B000284609F071FD314608F0D8F901469C48DA
:1026C00001609D480460A0480160204611E1C046B9
:1026D0001013202014132020EC1220207C13202023
:1026E000CC122020E0122020041320203C132020B4
:1026F00040132020281320204413202000132020E2
:10270000000080BEB0122020B41220200000C84279
:10271000DC122020E4122020F81220207713202041
:102720000699029C204607F0E6F906900598214696
:1027300007F0DCF905900AF061F900280FD106983E
:102740000024214609F06FF9002801D000200690EE
:102750000598214609F067F9002800D00594069CE9
:102760006F4E2046314609F05EF905466D4F204612
:10277000394609F073F90028384600D12046002D6B
:10278000344600D104460694059D2846314609F09A
:102790004AF903902846394609F060F9002800D12B
:1027A0002F460398002800D13E460596049800283D
:1027B00026D000252046294609F035F904905A4FC5
:1027C0002046394609F04AF90028384600D120460B
:1027D000049900292C4600D1044606943046294627
:1027E00009F021F904903046394609F037F90028FC
:1027F00000D137460498002800D13D46059500E0F9
:1028000035464A4804604A480560414802684948DC
:10281000214607F087FD484F38603E480268059919
:10282000464807F07FFD04903D68069C0026204640
:10283000314609F0EFF80028304624D103950025F1
:102840002046294609F0EFF8002801D1204602E091
:102850000120C00760403A4908F008F94121090603
:1028600007F049F907462046294609F0F7F80028FD
:1028700004D00398394607F03EF903E0039839463F
:1028800007F034F92C4F3860059F0446384631462E
:1028900009F0C0F8002828D12546002438462146F2
:1028A00009F0C1F8002801D1384602E00120C00734
:1028B0007840234908F0DAF84121090607F01BF9AE
:1028C000204908F0D3F806463846214609F0C6F8F4
:1028D000002804D00498314607F00DF903E004986D
:1028E000314607F003F906462C4617480660204695
:1028F000314606F0E7FB09B0F0BDC046D4122020F7
:10290000E8122020D0122020081320207C13202041
:10291000B0122020B41220200000E0406666E63E9F
:10292000000070C20000704200002041D41220203C
:10293000E812202020122020D01220204412202033
:102940003333333F8FC2753FE4122020BC12202066
:10295000000070413C132020401320200013202051
:10296000F0B597B0109316461D9C6308DA1DD50884
:1029700065431393C218521E0B195B1E11900E91E2
:1029800007F0CEFB002D00D17CE10C3CE0B2A101B0
:1029900080080818C2B2052A00D973E101201590F9
:1029A00090402B21084200D16CE109921C980D90B7
:1029B000203EF0B2810116913027474306010C24D6
:1029C0004443681E032109F06BFB491C002005905D
:1029D0000329049101D1059804901E98149016982B
:1029E000EC4A10180390EC48C0190690EB48801987
:1029F0000790EB48001908901098000A0F900D9866
:102A0000000A0C90159880031690032D05D2119E94
:102A100005980A901290099944E101910498281AA6
:102A200002900020119E0A901290139C09990BE0CD
:102A30000E98401C0E90119E0A98C01C0A90029994
:102A40008842099900D11AE10029089806D0032983
:102A5000069803D00129079800D003980A99405C92
:102A60000B90002718E0C0B209F0F8FEF348169C5E
:102A700004600461E8B209F0F1FEF04804601298C5
:102A8000401C1290C0B2139C214609F009FB00299A
:102A900036D07F1C082F35D01598B8400B990840C8
:102AA000149900291CD0002814D030460E993246C3
:102AB0000B4607F035FBE14C169D25610F98C0B21F
:102AC00009F0CCFE256025611098C0B209F0C6FE61
:102AD0002560139C761C1198301AA042D9D10AE0C7
:102AE000D649169A0A6100280C9800D00F980D9DBF
:102AF000B9D0109DB7E70E98401C0E90119E01E0D2
:102B00000020129009990029089806D001290798F9
:102B100003D00329069800D003980A9940184078FA
:102B20000B90002718E0C0B209F098FEC348169C2D
:102B300004600461E8B209F091FEC0480460129894
:102B4000401C1290C0B2139C214609F0A9FA00293A
:102B500036D07F1C082F35D01598B8400B99084007
:102B6000149900291CD0002814D030460E99324602
:102B70000B4607F0D5FAB14C169D25610F98C0B2EF
:102B800009F06CFE256025611098C0B209F066FE60
:102B90002560139C761C1198301AA042D9D10AE006
:102BA000A649169A0A6100280C9800D00F980D9D2E
:102BB000B9D0109DB7E70E98401C0E90119E01E011
:102BC0000020129009990029089806D00129079839
:102BD00003D00329069800D003980A9940188078FA
:102BE0000B90002719E0C0B209F038FE9348169CFC
:102BF00004600461E8B209F031FE90480460129864
:102C0000401C1290C0B2139C214609F049FA0029D9
:102C100032D07F1C082F00D10EE71598B8400B99D1
:102C20000840149900291CD0002814D030460E9971
:102C300032460B4607F074FA804C169D25610F98BA
:102C4000C0B209F00BFE256025611098C0B209F0F2
:102C500005FE2560139C761C1198301AA042D8D12D
:102C6000E6E67649169A0A6100280C9800D00F987B
:102C70000D9DB8D0109DB6E700201290DCE60198BB
:102C800003280FD117B0F0BD0E98401C0E90119E76
:102C90000A98801C0A900598801C05900499884227
:102CA0000999EFD00029089806D00129079803D088
:102CB0000329069800D003980A99405C0B900027DE
:102CC000139C18E0C0B209F0C9FD5C48169C046072
:102CD0000461E8B209F0C2FD584804601298401C33
:102CE0001290C0B2139C214609F0DAF9002936D0BF
:102CF0007F1C082F35D01598B8400B9908401499BF
:102D000000291CD0002814D030460E9932460B46BC
:102D100007F006FA494C169D25610F98C0B209F0DC
:102D20009DFD256025611098C0B209F097FD2560D2
:102D3000139C761C1198301AA042D9D10AE03F4961
:102D4000169A0A6100280C9800D00F980D9DB9D0F2
:102D5000109DB7E70E98401C0E90119E01E00020D8
:102D6000129005981599084304998842099989D0C9
:102D70000029089806D00129079803D0032906984E
:102D800000D003980A99401840780B900027139CB4
:102D900022E0C04680CC000040E4000006020100B2
:102DA000F6070100C0B209F059FD2448169C0460E2
:102DB0000461E8B209F052FD204804601298401CFA
:102DC0001290C0B2139C214609F06AF9002932D052
:102DD0007F1C082F00D15BE71598B8400B9908407D
:102DE000149900291CD0002814D030460E99324680
:102DF0000B4607F095F9114C169D25610F98C0B24E
:102E000009F02CFD256025611098C0B209F026FD5F
:102E10002560139C761C1198301AA042D8D133E754
:102E20000649169A0A6100280C9800D00F980D9D4B
:102E3000B8D0109DB6E70020129029E790320A40E2
:102E4000F0B589B001930292039107901148124D99
:102E500081220492026001242C602C6402262E60E0
:102E60002C60A027384609F059FE28461035046129
:102E70000097384609F052FE074F3E610549049815
:102E800008603C6008943C643E61079840060595E4
:102E900005D503E00480424090120A40FD4D089998
:102EA00029602020069009F039FEFA4D2E60009F1F
:102EB000384609F033FE2E61384609F02FFE079898
:102EC0008006059800D5F34808990160069809F036
:102ED00025FEF04D2E60384609F020FE2E61384662
:102EE00009F01CFE0798C006059800D5E948089926
:102EF0000160069809F012FEE64D2E60384609F092
:102F00000DFE2E61384609F009FE07980007059866
:102F100000D5FD4808990160069809F0FFFDFA4DBB
:102F20002E60384609F0FAFD2E61384609F0F6FDAC
:102F300007984007059800D5F3480899016006985E
:102F400009F0ECFDF04D2E60384609F0E7FD2E61EA
:102F5000384609F0E3FD07988007059800D5EA4850
:102F600008990160069809F0D9FDE74D2E603846B2
:102F700009F0D4FD2E61384609F0D0FD0798C0074E
:102F800001D0E14805900598089C0460069809F076
:102F9000C5FDDD4D2E60384609F0C0FD2E61384676
:102FA00009F0BCFD2C61069809F0B8FD2E6038468A
:102FB00009F0B4FD2E61384609F0B0FD06F038FF87
:102FC000D049049A0A602C602C642E6100282F4698
:102FD00000D161E10796039840B2394610310028CC
:102FE000384600D408460126066020200590069148
:102FF00009F094FD079D3D60A024204609F08EFD58
:103000003D61204609F08AFD03984006069800D5E8
:1030100038460660059809F081FD079D3D60204611
:1030200009F07CFD3D61204609F078FD039880069B
:10303000069800D538460660059809F06FFD079D93
:103040003D60204609F06AFD3D61204609F066FDBD
:103050000398C006069800D538460660059809F022
:103060005DFD079D3D60204609F058FD3D6120460D
:1030700009F054FD03980007069800D5384606600D
:10308000059809F04BFD079D3D60204609F046FD7F
:103090003D61204609F042FD03984007069800D59F
:1030A00038460660059809F039FD079D3D602046C9
:1030B00009F034FD3D61204609F030FD039880079A
:1030C000069800D538460660059809F027FD079D4B
:1030D0003D60204609F022FD3D61204609F01EFDBD
:1030E0000398C007069800D038460660059809F096
:1030F00015FD079D3D60204609F010FD3D6120460D
:1031000009F00CFD06F094FE002800D1D0E00298F2
:10311000002800D1ABE0002108967B4D0198059175
:1031200042567848049901603E603E643E4610363F
:103130003846022707610792002A00D430460899D2
:1031400001602020069009F0E9FC2F60A0242046B1
:1031500009F0E4FC2F61204609F0E0FC07984006E6
:10316000304600D5284608990160069809F0D6FC3B
:103170002F60204609F0D2FC2F61204609F0CEFCDA
:1031800007988006304600D52846089901600698C1
:1031900009F0C4FC2F60204609F0C0FC2F612046D6
:1031A00009F0BCFC0798C006304600D528460899AF
:1031B0000160069809F0B2FC2F60204609F0AEFCD1
:1031C0002F61204609F0AAFC07980007304600D579
:1031D000284608990160069809F0A0FC2F60204657
:1031E00009F09CFC2F61204609F098FC07984007E5
:1031F000304600D5284608990160069809F08EFCF3
:103200002F60204609F08AFC2F61204609F086FCD9
:1032100007988007304600D528460899016006982F
:1032200009F07CFC2F60204609F078FC2F612046D5
:1032300009F074FC0798C00700D02E46089830604B
:103240000646069809F06AFC2F60204609F066FCE5
:103250002F61204609F062FC06F0EAFD002839D013
:103260000599491C02988842274F00D056E7254807
:10327000049901603E603E64022038613E6138601E
:10328000A024204609F04AFC3E60204609F046FC96
:10329000002032E090120A40089C3C613E60A0266B
:1032A000304609F03BFC3C60304609F037FC25E035
:1032B0001448049901603E603E643D613E613D609A
:1032C000A024204609F02AFC3E60204609F026FC96
:1032D000089513E00B48049901600B4D2E602E6495
:1032E0002F612E612F60A024204609F017FC2E606C
:1032F000204609F013FC0598C01C08900898C0B23D
:1033000009B0F0BD0480424090120A40F0B58FB081
:103310001C460D460A92521E5B1E0B9006F000FFE3
:103320000694A54200D300E1149C0120049086037A
:10333000270A0B98C0430A9908180790E843069992
:1033400008180321019008F0ABFE481C00210591EC
:10335000032800D005900D940E9700D1E2E00321E0
:10336000079808F09DFE481C00210390032808914F
:10337000029101D003980290ED4A08E0099DAD1C2E
:103380000899891C05980891814200D1CAE00995E5
:103390000A980B9981425BD2039803280B9927D096
:1033A000029F0B990C9116610E98C4B2204609F049
:1033B00055FAFA48066006610D98C5B2284609F02C
:1033C0004DFAF64A1660012F10D01661204609F01A
:1033D00045FAF24806600661284609F03FFAEF4ACE
:1033E00016600C99891CBF1EDCD101E00C99491CA8
:1033F000079802280E9B2BD30A98471A1661DCB255
:10340000204609F02BFAE548066006610D98C5B222
:10341000284609F023FAE14806600661204609F0D3
:103420001DFADE4806600661284609F017FADB48F7
:1034300006600661204609F011FAD8480660066168
:10344000284609F00BFA0E9BD44A1660FF1ED5D110
:103450000898049908430599884261D00A980B9905
:1034600081428BD2039803280B9927D0029F0B9996
:103470000C9116610E98C4B2204609F0EFF9C748C6
:10348000066006610D98C5B2284609F0E7F9C34AFF
:103490001660012F10D01661204609F0DFF9BF48F1
:1034A00006600661284609F0D9F9BC4A16600C99F5
:1034B000891CBF1EDCD101E00C99491C0798022829
:1034C0000E9B00D25AE70A98471A1661DCB22046D2
:1034D00009F0C4F9B148066006610D98C5B22846E6
:1034E00009F0BCF9AD4806600661204609F0B6F95E
:1034F000AA4806600661284609F0B0F9A7480660A8
:103500000661204609F0AAF9A4480660066128462B
:1035100009F0A4F90E9BA14A1660FF1ED5D12DE734
:10352000099D6D1C0198022801D20FB0F0BD032146
:10353000079808F0B5FD481C0328089000D100202A
:103540000590964A04E0099DED1C06988542ECD052
:1035500009950A980B998142F5D2089803280B998E
:1035600027D0059F0B990C9116610E98C4B2204686
:1035700009F074F98948066006610D98C5B22846BD
:1035800009F06CF9854A1660012F10D016612046AB
:1035900009F064F9814806600661284609F05EF981
:1035A0007E4A16600C99891CBF1EDCD101E00C9983
:1035B000491C079802280E9B2BD30A98471A1661BC
:1035C000DCB2204609F04AF97448066006610D989D
:1035D000C5B2284609F042F97048066006612046E7
:1035E00009F03CF96D4806600661284609F036F995
:1035F0006A4806600661204609F030F967480660AF
:103600000661284609F02AF90E9B644A1660FF1EDF
:10361000D5D10A980B99814295D2089803280B9925
:1036200027D0059F0B990C9116610E98C4B22046C5
:1036300009F014F95948066006610D98C5B228468C
:1036400009F00CF9554A1660012F10D0166120467A
:1036500009F004F9514806600661284609F0FEF8B1
:103660004E4A16600C99891CBF1EDCD101E00C99F2
:10367000491C079802280E9B2BD30A98471A1661FB
:10368000DCB2204609F0EAF84448066006610D986D
:10369000C5B2284609F0E2F84048066006612046B7
:1036A00009F0DCF83D4806600661284609F0D6F8C6
:1036B0003A4806600661204609F0D0F837480660AF
:1036C0000661284609F0CAF80E9B344A1660FF1EB0
:1036D000D5D10A980B99814200D334E70898032882
:1036E0000B9929D0059F0B990C9116610E98C4B2C5
:1036F000204609F0B3F82948066006610D98C5B266
:10370000284609F0ABF8254A1660012F12D0166141
:10371000204609F0A3F8214806600661284609F012
:103720009DF81E4A16600C99891CBF1EDCD103E06F
:1037300090320A400C99491C0798022800D202E7EF
:103740000A98471A16610E98C4B2204609F086F806
:103750001248066006610D98C5B2284609F07EF849
:103760000E4806600661204609F078F80B480660AE
:103770000661284609F072F808480660066120468E
:1037800009F06CF8054806600661284609F066F8FD
:10379000024A1660FF1ED5D1D5E6C04690320A40D7
:1037A000F0B595B0012001030D91FD4E3161470345
:1037B0003761850335600424204609F0AFF937608E
:1037C000204609F0ABF9F7480068376135612046BB
:1037D00009F0A4F93760204609F0A0F9FD48006817
:1037E00037613561204609F099F93760204609F0C4
:1037F00095F9F848006837613560204609F08EF980
:103800003760204609F08AF9F24800683761356070
:10381000204609F083F93760204609F07FF9ED482A
:10382000006837613560204609F078F93760204636
:1038300009F074F9E748006837613560204609F0FF
:103840006DF93760204609F069F9E2480068376190
:103850003560204609F062F93760204609F05EF9CC
:10386000DC480068376137613560204609F056F959
:103870003760204609F052F9D64800680C9037614D
:103880003560204609F04AF93760204609F046F9CC
:10389000D04800680B9037613560204609F03EF94A
:1038A0003760204609F03AF9CA4800680A90376143
:1038B0003560204609F032F93760204609F02EF9CC
:1038C000C4480068099037613560204609F026F940
:1038D0003760204609F022F9BE480068059037613C
:1038E0003560204609F01AF93760204609F016F9CC
:1038F000B8480068049037613560204609F00EF939
:103900003760204609F00AF9B24800680190376133
:103910003560204609F002F93760204609F0FEF8CC
:10392000AC4800680290376137613560204609F085
:10393000F5F83760204609F0F1F8A64800680E90C7
:1039400037613560204609F0E9F83760204609F014
:10395000E5F8A04800680F9037613560204609F00F
:10396000DDF83760204609F0D9F89A4800681190D0
:1039700037613560204609F0D1F83760204609F0FC
:10398000CDF894480068129037613560204609F000
:10399000C5F83760204609F0C1F88E4800681390DA
:1039A00037613560204609F0B9F83760204609F0E4
:1039B000B5F8884800680690376135601095204654
:1039C00009F0ACF83760204609F0A8F88148006893
:1039D000149037613560204609F0A0F83760204622
:1039E00009F09CF87B48006837610004C00F08901C
:1039F0001498800B02211491084007900698400B00
:103A0000204006901398000B082113910840039062
:103A10001299C90A102212921140119A920A202377
:103A200011931A400F9B5B0A40250F952B400E9D6A
:103A30002D0A80200E9005405B19D2188918039832
:103A40004018039002980004C00F02900198810B67
:103A50001498014001910498400B2040049005986F
:103A6000000B1399084005900999C90A129A114050
:103A70000A9A920A119B1A400B9B5B0A0F9D2B40DE
:103A80000C9D2D0A0E9805405B19D21889180598CF
:103A900040180C903761109D3560204609F03EF8C3
:103AA0003760204609F03AF84A480068010A0E9843
:103AB00001400E9137613560204609F02FF83760DC
:103AC000204609F02BF843480068400A0F99084047
:103AD0000E9940180F9037613560204609F01EF8A6
:103AE0003760204609F01AF83A480068800A1199B0
:103AF00008400F994018119037613560204609F051
:103B00000DF83760204609F009F832480068C00A0D
:103B1000129908401199401812903761356020467B
:103B200008F0FCFF3760204608F0F8FF29480068DD
:103B3000000B1399084012994018139037613560B3
:103B4000204608F0EBFF3760204608F0E7FF2148E9
:103B50000068400B2040129037613560204608F025
:103B6000DDFF3760204608F0D9FF1A480068850B52
:103B700014980540376110983060204608F0CEFF59
:103B80003760204608F0CAFF124800680004C10FE1
:103B900004980C9A8018019A1018029A104303E0B6
:103BA00090120A4080130A400004069A039BD21820
:103BB000079B9A18089B1A43120202433761139815
:103BC000129B18182818084310430D99316015B03E
:103BD000F0BDC04680130A40F0B5A1B005460124EF
:103BE000D34906F0CDFF002820D00020D1490B9406
:103BF00002E0C01C012A57D02A5C0B5C9A4220D1FB
:103C0000002A51D02A180B1856785F78BE4218D176
:103C1000002E49D092789B789A4212D1861F734227
:103C20007341002A2246E4D01A46E2E7FFF7B8FDC6
:103C30000346DC4A11AD3021284608F065F92846D4
:103C400070E10022BC490A9202E0D21C012B3DD057
:103C5000AB5C885C834237D1104609384642464106
:103C6000002B204600D0304600282FD1AB188E18EC
:103C70005F787078874227D11446083C60426041E3
:103C80000B9C002F274600D00746002F1ED19B78A3
:103C9000B078834218D1D41F604260410B9C002B46
:103CA0002346D2D00346D0E70935B54910AA2846A5
:103CB00008F0FEFB012800D099E010980006410FA3
:103CC00000D198E0B0482DE10A9C2DE10A350CA8FE
:103CD00002900DA801900EA80090984910AA0FAB71
:103CE000284608F0E5FB052800D082E001270D9961
:103CF0000E4614367804864200D901E1002900D12D
:103D0000FEE00E9A100400D1FAE00F9B180400D1D7
:103D1000F6E010980A90C0B21F2800D9F0E0894858
:103D20000078002800D0EBE00693079208910C98E9
:103D30000590FFF735FD054608F0D6FC002800D1B8
:103D4000E2E0380304900A980006C00903907F4817
:103D500007F0DAFF002E29D0049803990D18701986
:103D60000B900320000309900E1878030F182846C3
:103D700002F0C2FF002800D1CFE00B98874215D295
:103D8000384602F0B9FF002800D1C6E00B98864201
:103D90000CD2304602F0B0FF002800D1BDE00998F7
:103DA0002D1836183F180B988542E0D365480470EB
:103DB00068480A9901706848069901806748079920
:103DC0000180674808990160664805990160664866
:103DD000002101606548CA4302600498039A1018E4
:103DE0001430634A10606348016063489AE0654894
:103DF00098E0534896E0C609012006900703304634
:103E0000384311A9142202F079FB00287AD0119AC4
:103E100011A8017A491E4B1E99415D4B9A422246D8
:103E200000D10A4681884B424B41002A224600D1EC
:103E30001A46C38858425841002A224600D10246F9
:103E40005448002A6ED1149A1D464D436D00AA4273
:103E500068D14A1E5B1E00200590014606F060F9FD
:103E6000149D4D48002D5DD0BE1914364B4906E017
:103E7000079E09988619089D2D1A484951D0FF2D93
:103E80002F4601D90698070230463A4602F036FB23
:103E9000002844D007960997781E032108F000F9FE
:103EA000481C03280646059F00D13E460895032D71
:103EB0003D4617D304900998801B0A900025374F80
:103EC0007C19785D08F00EFD607808F00BFDA07895
:103ED00008F008FDED1C0A98A842F1D104980328C7
:103EE0000B9CC5D02D484519287808F0FBFC012E05
:103EF000BED0687808F0F6FCAD1CB61EF4D1B7E76A
:103F00001E480FE021480DE00F4A11AE4021304617
:103F10002B4607F0F9FF304604E00D4802E0204848
:103F200000E01D4807F0F0FE204621B0F0BDC0467D
:103F30009819010022190100D8180100C6170100C4
:103F4000051801007F132020E6150100E717010086
:103F5000D717010080132020701320206213202027
:103F6000A4122020A012202018132020201320208B
:103F7000501320202413202014180100931701004F
:103F8000F3190100F6170100231801009B16010028
:103F9000494D47303816010040180100200D2020FF
:103FA000F1160100B5170100F0B589B00378442B74
:103FB00047D14378522B44D18378492B41D1C378E0
:103FC000562B3ED10379452B3BD14379202B38D159
:103FD000801DD44908AA07AB08F06AFA022800D06D
:103FE00025E1089E07980690C84801210170D74D29
:103FF0003046294607F017FD0446D24F3046394671
:1040000007F02CFD002800D13746002C00D13D469A
:10401000BF480560CE4D069F3846294607F003FD90
:104020000446C44E3846314607F018FD002800D13A
:104030003E46002C00D13546B6480560B6480025FE
:10404000BDE00378532B32D14378502B2FD18378A6
:10405000452B2CD1C378452B29D10379442B26D16C
:104060004379202B23D1801DB74908AA08F020FAF4
:10407000012800D0DBE0089DA44801210170B34C69
:104080002846214607F0CFFC0746AE4E284631466B
:1040900007F0E4FC002800D12E46002F00D1344662
:1040A0009B4804609B48002505609B4887E0037897
:1040B000442B48D14378492B45D18378532B42D1A7
:1040C000C378542B3FD10379202B3CD10591069224
:1040D0000125401D934908AA07AB08F0E9F9022819
:1040E00000D0A1E0089C079F00262046314607F03B
:1040F000ACFC019038460396314607F094FC012150
:10410000C90700280494029100D04F407F48022143
:1041100001707F20C4053846214607F084FC0090DA
:10412000884E3846314607F099FC002800D13E46BB
:104130000098002800D134460198002800D0BFE044
:10414000029E7440BDE00378542B0BD14378552B6D
:1041500008D18378522B05D1C3784E2B02D1037935
:10416000202B11D00378412B15D143784E2B12D13F
:104170008378472B0FD1C3784C2B0CD10379452B77
:1041800009D14379202B06D10378542B069205914F
:104190001BD006211AE05C4906F0F2FC002802D090
:1041A000002009B0F0BD5948002505705848056049
:1041B00058480560584805605848056058480560EB
:1041C000012064490D7009B0F0BD0521012540189A
:1041D000544908AA07AB08F06BF902282AD0012835
:1041E00022D1089E00243046214607F02EFC0746C7
:1041F0003046214607F017FC002802D00120C007F6
:1042000046404949304606F031FC484906F0FCFC7E
:10421000474906F02BFC3D4903220A703C490C60DB
:10422000002F5DD146495CE0284609B0F0BD012071
:1042300009B0F0BD089F079C00263846314607F0BC
:1042400004FC03902046314607F0EDFB0121C9072D
:104250000028049100D04C403846314607F0E3FB7B
:10426000002801D0049847402F49384606F0FEFB4D
:104270002E4906F0C9FC2E4906F0F8FB02902348AF
:1042800003210170224806607F20C7052046394679
:1042900007F0C9FB0190274E2046314607F0DEFBB0
:1042A000002800D126460198002800D137460398FF
:1042B0000028049800D14740029816490F6012E088
:1042C000029E13480460134803990160049C204631
:1042D00007F0A9FB002800D074401749204603E0EE
:1042E00016490C4A1160144906F0C0FB4121090629
:1042F00005F001FC0849086008490598086008496C
:10430000069808605CE7C046C71901007D132020AD
:10431000FC12202098122020381320202C1320205B
:1043200030132020C1190100DA0F49400000344346
:10433000000081420000F042E7BD3A400000B44274
:104340000000B4C20000C842F61901000000C8C253
:104350000000F0C273132020F0B58BB00A4603466C
:10436000DF4905462E78881940786D1CC006F9D4BF
:104370002D2E01D02B2E01D1287801E06D1E304664
:1043800008F001FC01D3014601E0014620394E2925
:104390003FD0492958D1687808F0F5FB00D2203881
:1043A0004E284BD1A87808F0EEFB00D220384628E2
:1043B00044D1002A01D0E81C1060E87808F0E3FB43
:1043C00000D2203849281FD1287908F0DCFB00D220
:1043D00020384E2818D1687908F0D5FB00D2203853
:1043E000492811D1A87908F0CEFB00D220385428F2
:1043F0000AD1E87908F0C7FB00D22038002A03D0A0
:10440000592801D1083515602D2E00D1C9E0B749D2
:10441000C8E0687808F0B7FB00D2203841280DD1F9
:10442000A87808F0B0FB00D220384E2806D1AD495C
:104430000024002A00D12BE1E81C28E1002A00D04A
:1044400013600024214623E1A94905910024302866
:104450000192029317D1687808F095FB00D22038BA
:104460009F4958280FD1A87809184978890707D497
:104470002E2808D1E8789A4908184078800702D594
:10448000AD1C9C4805909A4B08F089FB411E884161
:104490000690984B049408F082FB411E88410390DB
:1044A0000894099421460A942B782E2B03D1002CD2
:1044B0003AD1012436E00794184630380122092801
:1044C000174600D80027069C62403A4309D0039A59
:1044D000002A29D0824AD2185278920724D5092876
:1044E00004D8C00084490818049A0AE018466138C4
:1044F0001A28049A00D2203BD8007F4908187F4927
:10450000401890C80A980899059B08F02EFB22468F
:104510003B4603F032F90A9008910998079C001B6A
:10452000099001216D1CBFE701242D2E01D00898B0
:1045300002E0E007089A5040059009988600039829
:104540000028324600D1099A002909D0069800288F
:1045500007920BD01A46613A1A2A03D31A4603E08F
:104560000A9C7DE01A46203A452A09D00398002883
:1045700012D01A46613A1A2A00D2203B502B0ED193
:1045800021466B782D2B01D02B2B0DD1A81C02902E
:10459000AD780022D4430BE00295099E3DE00295E0
:1045A0003BE05149002473E0681C029000241D4642
:1045B0002A46303A092A26D800244D229600303D5A
:1045C000092D25D82D2B01D0224600E06242079804
:1045D0001218D7177A40D71BB7420A4600D80022D4
:1045E000069810420AD101229002874200D8002288
:1045F0000398104202D10A2060434419029A501CC9
:1046000055780290DBE702980219501E02900024B0
:104610002D2B00D164420798261800240A9D2846B5
:1046200008992246234607F0C7F9002817D10698B3
:104630000028059917D04D208000864219DD0D46CF
:1046400008F07CFA2221016000240A9829462246BB
:10465000234607F0BAF9002814D1244913E02C4668
:10466000019A059910E00A98324605F0D1F90446FE
:1046700009E0234886420EDC08F060FA222101603E
:10468000214600E01849019A002A01D002981060E2
:1046900020460BB0F0BD002E0FD41A4C019A002E0C
:1046A0001CD0F00706D00CCC0A98083C08F05DFA44
:1046B000019A0A9076080834F1E77442114D019A84
:1046C000002C0BD0E00706D00CCD0A98083D08F06E
:1046D00083FA019A0A9064080835F1E70A9CD3E747
:1046E000701001000000F87F0000F0FF0000F07F74
:1046F00000002440000030409812010048FEFFFFF7
:10470000CCFEFFFFE0130100F0B589B00F4605466F
:104710000120C1073E468E43B14886420BD3D148A3
:104720003018284300D190E008F008FA21210160F8
:10473000CD49002550E1AB48864212D8C64AC74B46
:104740002846394603F019F80022A54B07F058F91E
:10475000002800D186E0C248864200D382E0394674
:104760003AE10291089700249D4920462A463346A3
:1047700002F0FEFF9C4B224608F0F7F905460F4673
:104780009A4A9B4B08F0F1F99A4A9B4B02F0F5FFCD
:1047900008F0CEF9994A9A4B02F0EFFF08F0C8F9F9
:1047A000984A994B02F0E9FF08F0C2F9974A984BF2
:1047B00002F0E3FF08F0BCF9964A974B02F0DDFFE8
:1047C00008F0B6F906900791944A954B08F038FA2C
:1047D000944A954B02F0D1FF08F0AAF9934A944B02
:1047E00002F0CBFF08F0A4F9924A934B02F0C5FF08
:1047F00008F09EF922467A4B02F0BFFF0390049125
:104800002846394603F0FEF905900C468B4886424F
:1048100000D283E008F0A4F902460B46059D284625
:10482000214608F0A2F92A4608F022FA02460B4671
:1048300002F0A3FF824A864B02F09FFF02460B461E
:104840008148844902F094FFC0E07D4A7D4B08F026
:10485000F7F904460E467C4A7E4B08F0F1F92246F1
:10486000334657E0284639462A463B4608F07DF94C
:10487000064608970F465D4A5D4B08F076F95D4A9B
:104880005D4B02F07AFF08F066F95C4A5C4B02F07F
:1048900074FF08F060F95B4A5B4B02F06EFF08F0B2
:1048A0005AF95A4A5A4B02F068FF08F054F9594A2B
:1048B000594B02F062FF08F04EF904460791574A3F
:1048C000574B3046394608F050F9564A564B02F0DD
:1048D00054FF08F040F9554A554B02F04EFF08F0DE
:1048E0003AF9544A544B02F048FF08F034F90022D8
:1048F0003B4B02F042FF02460B462046079908F068
:104900006BF902460B462846089C214608F02DF913
:104910002A46234602F031FF05465DE00026304678
:10492000214632460196234608F01FF902460B46FF
:104930002846394602F01CFF00900F46059D284688
:104940002146324608F094F902460B460098394653
:1049500008F042F906460F4608F002F90790069162
:10496000284621462A4608F083F9059004913046EE
:10497000394632463B4602F000FF02460B463048BD
:10498000304902F0F5FE05460F4605980499079A4E
:10499000069B08F0EAF82A463B4602F0E9FE054687
:1049A0000F4601982146024608F062F902460B467E
:1049B000254C264E2046314602F0DAFE2A463B467A
:1049C00002F0D6FE2246334602F0D7FE054608988E
:1049D000002801DC02984140284609B0F0BDC046DD
:1049E0000000F03FFFFFDF3F0000E03F09F7FD0D53
:1049F000E13D023F88B20175E0EF493F3B8F68B56A
:104A00002882A4BF5544880E55C1C93F7D6FEB0372
:104A100012D6D4BF555555555555C53F82922EB126
:104A2000C5B8B33F59018D1B6C06E6BFC88A599CB7
:104A3000E52A00404B2D8A1C273A03C03333EF3F51
:104A4000075C143326A6913C182D4454FB21E93F02
:104A500026A691BCFB21F93F9C7500883CE4377E7B
:104A60000000503E000010C00000F87FF0B58BB091
:104A7000074600200190002900D19DE10B46D01986
:104A800001210091C905884200D995E1CD4D0098DA
:104A900081030A914603000306900FE02846103870
:104AA0000699016001F04AFE039F0299CF19049B09
:104AB0005B18059A521A002800D17DE150425041FE
:104AC0000190002A00D177E10493069828602E60B7
:104AD0000A98286005922C4604252846039708F07A
:104AE0001DF82046103807900660284608F016F892
:104AF000B34F386826600A9F2760284608F00EF8F2
:104B000007980660284608F009F8AD480068266056
:104B10002760284608F002F8079F3E60284607F005
:104B2000FDFFA748006826600A982060284607F025
:104B3000F5FF3E60284607F0F1FFA14800682660B7
:104B40000A982060284607F0E9FF3E60284607F0F3
:104B5000E5FF9B48006826600A983860284607F001
:104B6000DDFF3E60284607F0D9FF954800682660C3
:104B70000A983860284607F0D1FF3E60284607F0C3
:104B8000CDFF8F48006826600A982060284607F00D
:104B9000C5FF3E60284607F0C1FF894800682660CF
:104BA00006983860206026600A9F2760284607F034
:104BB000B5FF07980660284607F0B0FF80480068F8
:104BC00026602760284607F0A9FF079F3E60284619
:104BD00007F0A4FF7A48006826600A9820602846FB
:104BE00007F09CFF3E60284607F098FF7448006875
:104BF00026600A982060284607F090FF3E6028460D
:104C000007F08CFF6E48006826600A9820602846EE
:104C100007F084FF3E60284607F080FF6848006880
:104C200026600A982060284607F078FF3E602846F4
:104C300007F074FF6248006826600A9838602846CA
:104C400007F06CFF3E60284607F068FF5C4800688C
:104C500026600A982060059C284607F05FFF3E60AA
:104C6000284607F05BFF039855490968C2B20099CE
:104C70000902891AA14200D32146524D2E600C46EA
:104C800000F0A2F80499029412E00A990160284603
:104C900007F044FF3E60284607F040FF48480068A0
:104CA000484D2E60641E0999491C002C00D1F5E680
:104CB0000894002009910C562E60002C284600DA3A
:104CC00038460A9901600425284607F027FF3E6010
:104CD000284607F023FF3A4800683A490E6060060C
:104CE000084600D538460A990160284607F016FFA5
:104CF0003E60284607F012FF3148006831490E60D7
:104D0000A006084600D538460A990160284607F0F3
:104D100005FF3E60284607F001FF29480068294941
:104D20000E60E006084600D538460A99016028461C
:104D300007F0F4FE3E60284607F0F0FE20480068C9
:104D400020490E602007084600D538460A990160C0
:104D5000284607F0E3FE3E60284607F0DFFE1848CD
:104D6000006818490E606007084600D538460A9961
:104D70000160284607F0D2FE3E60284607F0CEFECE
:104D80000F4800680F490E60A007084600D5384656
:104D90000A990160284607F0C1FE3E60284607F0E8
:104DA000BDFE0748006807490E60E0070846089CFA
:104DB00000D16AE7384668E701980BB0F0BDC046FD
:104DC00080130A40A0120A40F0B583B001225603B6
:104DD000D04C26602746103F02900102214600D5A4
:104DE00039469003019008600425284607F096FE96
:104DF0003E60284607F092FEC74800682660029889
:104E00004002204600D5384601990160284607F047
:104E100085FE3E60284607F081FEBF480068266098
:104E200002988002204600D5384601990160284644
:104E300007F074FE3E60284607F070FEB648006832
:104E400026600298C002204600D5384601990160CC
:104E5000284607F063FE3E60284607F05FFEAE4836
:104E60000068266002980003204600D53846019964
:104E70000160284607F052FE3E60284607F04EFECD
:104E8000A5480068266002984003204600D53846B1
:104E900001990160284607F041FE3E60284607F070
:104EA0003DFE9D480068266002988003204600D59C
:104EB000384601990160284607F030FE3E602846DA
:104EC00007F02CFE9448006826600298C003204634
:104ED00000D5384601990160284607F01FFE3E6064
:104EE000284607F01BFE8C48006826602660029862
:104EF0000004204600D5384601990160284607F095
:104F00000DFE3E60284607F009FE834800682660D3
:104F100002984004204600D5384601990160284691
:104F200007F0FCFD3E60284607F0F8FD7A4800686F
:104F3000266002988004204600D538460199016019
:104F4000284607F0EBFD3E60284607F0E7FD724873
:104F5000006826600298C004204600D538460199B2
:104F60000160284607F0DAFD3E60284607F0D6FDCE
:104F700069480068266002980005204600D538463A
:104F800001990160284607F0C9FD3E60284607F0F8
:104F9000C5FD61480068266002984005204600D59E
:104FA000384601990160284607F0B8FD3E60284662
:104FB00007F0B4FD58480068266002988005204636
:104FC00000D5384601990160284607F0A7FD3E60EC
:104FD000284607F0A3FD5048006826600298C005E7
:104FE000204600D5384601990160284607F096FD15
:104FF0003E60284607F092FD47480068266026601C
:1050000002980006204600D53846019901602846DE
:1050100007F084FD3E60284607F080FD3E480068AA
:10502000266002984006204600D538460199016066
:10503000284607F073FD3E60284607F06FFD3648AE
:105040000068266002988006204600D538460199FF
:105050000160284607F062FD3E60284607F05EFDCD
:105060002D48006826600298C006204600D53846C4
:1050700001990160284607F051FD3E60284607F07F
:105080004DFD25480068266002980007204600D59F
:10509000384601990160284607F040FD3E602846E9
:1050A00007F03CFD1C480068266002984007204637
:1050B00000D5384601990160284607F02FFD3E6073
:1050C000284607F02BFD14480068266002988007E8
:1050D000204600D5384601990160284607F01EFD9C
:1050E0003E60284607F01AFD0B48006826600298CB
:1050F000C007204600D0384601990160284607F0D5
:105100000DFD3E60284607F009FD03480068266053
:1051100003B0F0BDA0120A4080130A40F0B589B078
:105120000A460746CB4B02903E78981940787F1C80
:10513000C006F9D42D2E01D02B2E01D1387801E0F4
:105140007F1E304607F023FD01D3014601E00146F2
:1051500020394E2940D0492959D1787807F017FDD8
:1051600000D220384E284BD1B87807F010FD00D27D
:105170002038462844D1002A01D0F81C1060F87865
:1051800007F005FD00D2203849281FD1387907F0F3
:10519000FEFC00D220384E2818D1787907F0F7FCB1
:1051A00000D22038492811D1B87907F0F0FC00D29C
:1051B000203854280AD1F87907F0E9FC00D22038C9
:1051C000002A03D0592801D1083717602D2E00D1AD
:1051D000C3E0FF20C50521E1787807F0D8FC00D2B4
:1051E000203841280CD1B87807F0D1FC00D2203803
:1051F0004E2805D1984D002A00D10FE1F81C04E09B
:105200000025002A00D109E10298106006E19449C6
:1052100005913028019216D1787807F0B8FC00D2B9
:10522000203858280FD1B87819184978890706D43A
:105230002E2808D1F87818184078800703D5BF1CAD
:105240008320C00505908649059C204606F0E2FBB8
:10525000411E884106908320C105204606F0DAFBF6
:10526000411E8841039000240794049408943A78DE
:105270002E2A03D1002C33D101242FE011463039DE
:10528000012509292B4600D80023069845401D43D7
:1052900009D00398002823D06E4883185B789B07B9
:1052A0001ED5092903D888006E49081808E0104661
:1052B00061381A2800D2203A90006A490818DC3870
:1052C00005680898059905F0D1FB294604F013FC00
:1052D00008900798001B0790012004907F1CC6E7E8
:1052E00001232D2E01D0089902E0D90708984140EA
:1052F000079EB500039800282C4600D13446049838
:10530000002809D00698002805910DD01046613874
:105310001A2805D3104605E00D460198029F7AE051
:1053200010462038452809D00398002811D010468F
:1053300061381A2800D2203A502A0CD107937A7883
:105340002D2A01D02B2A0AD1BE1CBB780020C543D0
:1053500008E0344632E02C4630E0404D5EE07E1CF2
:105360000025134618463038092823D8002537462B
:105370002D2A01D0284600E06842303B0019092B55
:105380001BD8C6177040861B262E079800D8002011
:10539000069901420AD1802E01D8002000E00120A8
:1053A0000399014202D10A206843C518781C7B7812
:1053B0000746DDE77019471E00E0044600250898FF
:1053C000294606F027FB002813D1069800280598E7
:1053D00011D0272C14DB044607F0B0FB222101601A
:1053E0000021204606F01FFB002812D1FF20C50532
:1053F00010E0059D0EE0214604F0DAFD054609E0C7
:105400002521C9438C420CDC07F098FB2221016066
:1054100000E0124D0198002800D00760284609B02E
:10542000F0BD002C0AD4104D002CE7D0E10702D0CB
:10543000296805F01BFB64082D1DF5E764420A4D41
:10544000002CDBD0E10702D0296805F0DDFB640801
:105450002D1DF5E7701001000000C07F000080FFE7
:10546000000020416814010054160100F0B589B015
:105470000124A502BC4F3D61BC4807F04FFB3D60D5
:10548000BB4807F04BFB20460494E4023C618503D3
:105490003D611120079007F0E1F93D603C603C61FF
:1054A0003D613620069007F0D9F93D603C603D61D2
:1054B000702007F0D3F93D603C613D613A2007F070
:1054C000CDF93D603C603D610520059007F0C6F9CF
:1054D0003D603C613D61B22007F0C0F93D603C6039
:1054E0003D610C26304607F0B9F93D603D6130461C
:1054F00007F0B4F93D603D610020039007F0AEF97C
:105500003D603D613326304607F0A8F93D603D61BE
:105510003046029607F0A2F93D603C613D61B7203C
:1055200007F09CF93D603C603D61352007F096F93D
:105530003D603C613D61BB2007F090F93D603C60FF
:105540003D611A2007F08AF93D603C613D61C02051
:1055500007F084F93D603C603D612C2007F07EF946
:105560003D603C613D61C22007F078F93D603C60E0
:105570003D61049807F072F93D603C613D61C320D4
:1055800007F06CF93D603C603D610B20049007F032
:1055900065F93D603C613D61C42007F05FF93D6005
:1055A0003C603D61202007F059F93D603C613D6160
:1055B000C62007F053F93D603C603D610F2007F0C5
:1055C0004DF93D603C613D61D02007F047F93D60F9
:1055D0003C603D61A42007F041F93D603D61A120A0
:1055E00007F03CF93D603C613D61212007F036F950
:1055F0003D603C603C6108943D61E02007F02EF97D
:105600003D603C603D61F020019007F027F93D606E
:105610003D61039807F022F93D603D610424204676
:1056200007F01CF93D603D61204607F017F93D6029
:105630003D61204607F012F93D603D61059807F095
:105640000DF93D603D612920059007F007F93D60A7
:105650003D61304607F002F93D603D613E20039018
:1056600007F0FCF83D603D61382007F0F7F83D6039
:105670003D611226304607F0F1F83D603D6130464D
:1056800007F0ECF83D603D612826304607F0E6F86B
:105690003D603D61302007F0E1F83D60089C3C61D1
:1056A0003D61E12007F0DAF83D603C603D61019822
:1056B00007F0D4F83D603D610724204607F0CEF89E
:1056C0003D603D610A2007F0C9F83D603D610D2055
:1056D00007F0C4F83D603D61049807F0BFF83D60F5
:1056E0003D61204607F0BAF83D603D61304607F065
:1056F000B5F83D603D61029807F0B0F83D603D614E
:10570000039807F0ABF83D603D61069807F0A6F8F6
:105710003D603D611424204607F0A0F83D603D61E6
:10572000204607F09BF83D603D61059E304607F03E
:1057300095F83D603D61322007F090F83D60089C8F
:105740003C613D61079807F089F83D603C6009487D
:1057500007F0E4F93C613D61304607F07FF83D60B9
:105760003C6009B0F0BDC04690320A40009F240062
:1057700000127A00007C9200F0B587B005460F4613
:105780000122D0070E468643924886420DD3B44884
:10579000864203D8002D3FD086423DD12846394667
:1057A0002A463B4601F0E9FFE2E08B48864203913E
:1057B00012D8914A914B2846394601F0DEFF002469
:1057C0008B4B224606F01CF9E1430291002869D078
:1057D000B00DF92866D2CDE08048864220D88548B1
:1057E00086423FD8284631462A46334601F0C5FF57
:1057F00000277C4B3A4601F0C0FF044628460D4680
:1058000001218B07314602973A4601F0B6FF024666
:105810000B462046294636E0002920DC924F1FE047
:105820006F48864234D800246F4B284607F0FCF9B5
:105830002A4605460F466D4B10463146224607F074
:1058400094F96B4B224601F098FF02460B4628461E
:10585000394607F0C1F905460F46022021E0814F85
:10586000824D87E0029200245E4B284607F0DCF967
:105870002A4605460F465E4B104607F0D5F902460C
:105880000B462846394607F0A7F905460F4609E0BA
:10589000002054492A46334607F09EF905460F4634
:1058A000032002900695284639462A463B4607F0D3
:1058B0005CF90590049102460B4607F056F9044640
:1058C0000D464F4A4F4B07F050F94F4A4F4B01F0EE
:1058D00054FF07F03BF94E4A4E4B01F04EFF07F0E4
:1058E00035F94D4A4D4B01F048FF07F02FF94C4A6E
:1058F0004C4B01F042FF07F029F94B4A4B4B01F0AA
:105900003CFF02460B460598049907F02EF90490D7
:105910000591474A474B2046294607F026F9464A53
:10592000464B01F02AFF07F011F9454A454B01F0BB
:1059300024FF07F00BF9444A444B01F01EFF07F027
:1059400005F9434A434B01F018FF07F0FFF8224ADC
:10595000964213D8049A059B01F00FFF02460B46AE
:1059600007F02EF902460B462046394601F000FFAB
:1059700005460F462846394607B0F0BD029AD400C6
:10598000354A1319125902925A680192049A059BDA
:1059900001F0F3FE02460B463048011906594D68E6
:1059A00007F00EF932462B4601F0E2FE22463B4656
:1059B00001F0DEFE02460B460298019901F0D8FE86
:1059C00005460F4603980028D4D50120C00747405C
:1059D000D0E7C04600001044FFFFDB3FFFFFF23F6F
:1059E000FF7F03400000F0BF0000F8BF0000F83F59
:1059F0000000F03FFFFFE53F9C7500883CE4377EE8
:105A000011DA22E33AAD903FEB0D76244B7BA93FB0
:105A1000513DD0A0660DB13F6E204CC5CD45B73F7E
:105A2000FF8300922449C23F0D5555555555D53F2A
:105A30002F6C6A2C44B4A2BF9AFDDE522DDEADBF9E
:105A40006D9A74AFF2B0B3BF711623FEC671BCBFBE
:105A5000C4EB98999999C9BF281401004814010012
:105A60000000F07FFB21F93FFB21F9BF182D4454C2
:105A7000F0B591B00F90012548000D90400D5C00ED
:105A8000670D59401095EE070E40AB494D1E441965
:105A90008C4200D203E17C198C4200D2FFE00496D4
:105AA00010990C05611E00910B400025E9430E91F1
:105AB000A449019423430C93C01B40180290401C3E
:105AC0000390D0020A90500DD9020B9247189E48BD
:105AD000C41B3846294622462B4606F017FE48428C
