:100000000080202061F00000A3970000A39700006B
:1000100000000000000000000000000000000000E0
:10002000000000000000000000000000A397000096
:100030000000000000000000A39700006DC0000059
:10004000A39700006FEF0000A3970000A3970000A4
:10005000A3970000A3970000A3970000A3970000B8
:1000600000000000A3970000A3970000000000001C
:1000700000000000A3970000C1EF0000B9EF0000EE
:10008000A3970000A3970000A3970000A397000088
:10009000A3970000A39700000000000000000000EC
:1000A000A3970000A39700000000000000000000DC
:1000B000A397000000000000A3970000A397000092
:1000C000F0B5F3B007930592799A0E92789E0025C9
:1000D000EF437090139112950878A84C201843783C
:1000E000D80628D513984A1CDB0606D5481C11787B
:1000F00061184B78521C0146F6E7139070A8B04780
:100100000446401C01D100F0FAFD0EF03CFF9B4874
:1001100000194078C00603D570A8B0470446F4E73C
:1001200070A80EF08BFF1298401E1290601C934C2A
:1001300001D100F0E4FD01200A9054A801466C3181
:100140000C9101460C3103910D30009014A8401C15
:1001500001900B950D971196029554A870210EF001
:10016000A2FD559770A813A912AA079B98470128CA
:10017000109522D0002801D100F0A7FD401C029B61
:1001800001D100F0A4FD0F93274670A8B0470EF0F0
:10019000BEFE38194078C006F7D4374670A80EF076
:1001A0004DFF1298411E1291601C39D10029109DFB
:1001B0000F9A01D100F087FDB1E01398471C139707
:1001C000417800262A2935460BD101255495871CF4
:1001D000139706E0B819401C1390B85D71A98855B3
:1001E000761CBC5D204630380928F3D971A800215F
:1001F0000F9181550078002803D071A80EF0ECF81B
:1002000055904C2C2FD0682C20D06A2C0BD06C2C05
:1002100010D0742C0AD07A2C16D10120000307E0EC
:10022000109D0F9A7BE00120C00201E001204003F5
:100230002D1819E0B919481C13904A786C2A4F4CB4
:1002400018D1012000020AE0B81910E0B919481CC1
:1002500013904A78682A494C0ED1012040022D188B
:100260005495881C0AE080355495B819401C119E9D
:10027000424C04E0403500E020355495119E411C6D
:10028000139103780C9A13705B2B28D10A785E2A9D
:1002900005D102210D435495811C139182785D2A6A
:1002A00006D1481C1390097854AA1173009901E0F3
:1002B000084603990F9D0278002A09D05D2A07D0CD
:1002C000421C139200784B1C087010461946F2E746
:1002D0000D705D2A01D1401C13900C9803781846CC
:1002E0005B38132800D94EE70121814024480142A0
:1002F00000D148E731461E4670AC20460F4688477D
:10030000054620460EF097FE1299681C05D100297B
:10031000109D324603D100F0D6FC109D3246099163
:100320001046583820284CD83E460D9F4000C04605
:1003300078448088400087445301260326031C012B
:100340002603260326032603260351002603CE0098
:1003500025005100510051002603250026032603E5
:100360002603260329032500250026032603CE00A5
:1003700026032500260326032500C046603401001D
:10038000010108001746559C70A8B04721460EF0A1
:10039000BEFD14AD002934D014AD2D2C02D02B2C71
:1003A00000D0B2E014A8047070A80C46B0472146F3
:1003B0000EF0ADFD491EF64A00D1D3E00891019D33
:1003C000A5E01046413806283E460D9F00D990E032
:1003D000012181407120014200D18AE0559D70A821
:1003E000B047044614AB401C09D00EF0CCFD2B2CBA
:1003F00009D114AB002D0BD12B24002513E03C4672
:1004000011E00027B0E014AB002D0CD02D2C0AD148
:1004100014A8047070A8B0470446401C01D00EF028
:10042000B2FD6D1E019B204661381A2801D320467B
:1004300001E0204620384928E24F109703D04E288B
:100440002AD1E14F10970026B5421BD01098805D4D
:10045000002816D0214661391A2901D3214601E02E
:100460002146203981420CD11F469C5570A8119914
:1004700088470446401C01D00EF085FD761C3B46A3
:10048000E2E73546E81E41424141083D6842684185
:10049000084310909D1964E20022002D5CD0302C9E
:1004A0005AD10F9230201F46187070A8B0470446EA
:1004B000401C01D00EF067FD7B1C681E002201214C
:1004C0001091002800D1AAE1214661391A2900D2F1
:1004D000A8E12146A8E1549901250846284049068B
:1004E000174676D4002800D00EE1059810C8059074
:1004F0000BE1252A00D046E270A8B047252801D09C
:1005000000F000FC0EF03FFD40E20891AC4A0020F4
:100510003B46115C8B4204D0401C0728F9D10020D7
:1005200000E01018801A012813D1302C5CD10F95EF
:1005300070A81090B047054610980EF07CFD202062
:100540008543583D109501D0082010903B460F9DE3
:100550004CE09E49085C48E01946109204920A98C3
:1005600008907CE10027019D3A4638460A990F9190
:1005700062E0559F5498022101400F9114AC002F66
:1005800000D148E170A8B0470546401C089000D152
:10059000B1E010942C46E8B2002303990E7886420D
:1005A0000A4600D01A46491C002E1346F6D10F9B6E
:1005B00059425941531E9A419142119E2546109C21
:1005C00000D098E0611C20700EF0DDFC7F1E0C4610
:1005D000D5E7002800D09DE0059810C805909AE066
:1005E00078220C980270CDE60A20109018466938DF
:1005F000C0B2102801D3002100E00121EA4FC7401A
:100600000F406F2B06D1302C0AD000200A990F9191
:10061000089A11E020463038414241410F42F4D05F
:1006200028466D1C047070A8B0470EF070FC089A44
:10063000521E00200F900A98002F24D0002A22D0AA
:10064000002820D020202146814358291BD1089220
:1006500070AF3846B047014638460F460E9A90476D
:10066000E148C0194078800701D4089A0BE02C704B
:1006700070A8B0470EF04BFC089A521E00D138E328
:100680006D1C102010900A9F002A23D01098082873
:1006900004D107202146814330290ED010980A2822
:1006A00003D1204630380A2807D31098102811D1DA
:1006B000CD480019407880070CD56E1C2C7070A8AE
:1006C00011991446884722460EF021FC521E00273D
:1006D0003546D9E770A80EF0B1FC1298401E129072
:1006E0000020287005460F98384001280D9F119E64
:1006F00000D04BE1F5E270A80EF09DFC129809992C
:10070000814200D087E004E300245598002841D4BA
:10071000054640E000245598002800D40546632A89
:1007200000D0054670A8B04701460EF02CFC632FA0
:1007300005D1481E0222D24390420FD917E0481C2F
:10074000022801D3002000E00120A74A5218527865
:10075000D2060A9A00D40246002A08D1002D06D0FB
:10076000002C01D002C400E000246D1EDAE770A85E
:100770000E9A90471298401E12900999814200D11A
:10078000B7E2732F49D1002C47D00020206044E00D
:10079000593801000125632A00D0054670A8B047EA
:1007A00001460EF0F0FB632F05D1481E0222D24312
:1007B000904217D921E0481C022809D3002008E004
:1007C0005938010049400100374101005A30010009
:1007D0000120854A52185278D2060A9A00D402465D
:1007E000002A0AD1002D08D0002C03D0601C2170F3
:1007F000044600E000246D1ED0E770A80E9A9047D2
:100800001298401E12900999814200D171E2732F13
:1008100003D1002C01D0002020700D9FB6E004927F
:10082000154618E021462039582912D17C7070A84D
:10083000119988470446401C01D00EF0A4FBBA1C55
:10084000AD1E00200A9904911146109008900F9A4D
:1008500005E0049205460A9808900F9A19460692F8
:1008600016460F95002D0D466ED02B2C39D02D2C11
:1008700037D02E2C2FD0452C01D0652C0BD10898C9
:10088000002846D0109800285ED0002A5CD10120B4
:10089000074610904AE020463A380A21C943884268
:1008A00029460CD8049800284ED04F4800194078AB
:1008B000800704D4202020437028E3D044E02B2C70
:1008C0000FD02D2C0DD0702CDCD0502CDAD0652C14
:1008D000D5D02E2C1DD10698104335D1012006907D
:1008E00023E00898002808D0481E00782021014302
:1008F0006529294601D1174618E00498002823D01D
:10090000481E00782021014370291DD11746294631
:100910000CE0002A07D0204630380122092813D8DD
:100920001746164602E00120109000270C7070A8B0
:10093000119988470446401C01D00EF024FB691C25
:100940000F9D6D1E3A468CE71099481E814110910B
:10095000701E8641002A0A9800D030461099014046
:1009600010910D9F70A80EF069FB601C02D01299C7
:10097000491E129100212970129A099B9342119EDF
:10098000109D00D1A8E1012D00D0B3E10C980178B1
:10099000012508465B381D283ED804A2124C4000B1
:1009A000105A40008744C046818000002400220085
:1009B00022002200220022004600220057014600A9
:1009C0004600460046002200460022002200220087
:1009D0002200A30046004600220022005701220008
:1009E000460022002200460060340100FFF7B5FBFC
:1009F0005499C80701D0FFF7B0FB05980068490675
:100A000000D5C8E014A94A1C0978431C01700029CC
:100A100018461146F7D1C7E0084641380628BF4CB2
:100A200001D9FFF79AFB012282407120024201D1D5
:100A3000FFF793FB14A80078002800D10BE154982D
:100A4000C20700D007E10B46613B172B3AD80022C2
:100A50009B0002A4E358B14C9F46C046D90A00004F
:100A6000570C0000570C00006B0B0000D90A000067
:100A7000D90A0000D90A0000570C00006D0B0000D5
:100A8000570C0000570C0000570C0000570C0000DA
:100A9000570C0000BD0A00008F0B0000570C00002F
:100AA000570C0000570C0000570C0000BD0A000056
:100AB000570C0000570C0000BD0A000078293FD0F9
:100AC00008223EE04139062900D9C4E001228A40CB
:100AD00071210A4200D1BEE0C021084080281ED00A
:100AE000402826D114A8002105F0A0FA1BE0549854
:100AF000C10701D0FFF731FB89490840411E02467A
:100B00004A408A4200D894E0002800D183E0414264
:100B1000014084484143C80E83A1085C7CE014A8CE
:100B2000002105F083FA059B04CB0593106051600A
:100B300091E014A8002105F079FA0CF071FC87E02F
:100B40001022752900D10A2275490840411E03462A
:100B50004B408B4242D900282ED04142014071487F
:100B60004143C80E70A1085C27E00A226C49084086
:100B7000411E03464B408B4248D9002833D04142A6
:100B8000014068484143C80E67A1085C2CE014A8E6
:100B90000021102224E014A90A78002A02D0491C5E
:100BA00004C0F9E7002101600598001D05900B982D
:100BB000401C0B90FFF7D1FA2020401F08280DD8C9
:100BC0007844007940008744580909045D09043AD3
:100BD0003A0014A8002109F0DDF8A4E714A80021C8
:100BE00009F040FF34E02020401F08280ED8C046FE
:100BF00078440079400087444A09090452090427CF
:100C0000270014A8002107F007FD8CE714A8002195
:100C100009F012FC1CE02020401F082809D8C0461B
:100C200078440079400087444204041F48041F04AC
:100C3000040012980EF0B8F90860FFF78EFA14A8B5
:100C4000002109F0A7F803E014A8002107F0E4FC54
:100C50000EF0AAF9086054980125294681430B98A3
:100C600008180B90FFF779FA1298C117059B04CB6F
:100C7000059310605160FFF770FA14A8002109F085
:100C8000F1FE08E014A8002109F0ECFE0BE014A826
:100C9000002109F0D1FB0EF087F90880DBE714A8EA
:100CA000002109F0C9FB0EF07FF90870D3E7129814
:100CB0000EF07AF90880FFF750FA12980EF074F9E6
:100CC0000870FFF74AFA0D9F19E00B9F17E00B9889
:100CD000002814D0074612E0002800D121460D4616
:100CE00008E0129809994140E043084302D1ED43DE
:100CF00000E00D9D0B98002800D005462F46384691
:100D000073B0F0BD054670A80EF095F9681CF1D0DF
:100D100002E008980028EDD00025EBE760340100E0
:100D2000603F000031B57C0700011C021D0E180356
:100D30001E16140F191104081F1B0D171513100789
:100D40001A0C12060B050A09F0B5FFB08EB0049319
:100D500006920646929802900025E84305908C91F1
:100D6000346820460EF07BF821188B9503918C4255
:100D700000D3BCE00020879087A90873889005986D
:100D800089902F46049D2078002800D1B2E02528C4
:100D900005D0641C34600699A8477F1CF3E78B9745
:100DA000601C306087AC2046314600F0BBF88CAA4E
:100DB0002046314600F0D7F8306801780B46683B92
:100DC0000122D341092B2BD87B441B795B009F4424
:100DD00004130A2727271627271943788799682B92
:100DE00019D1520204E0437887996C2B10D112027A
:100DF00011438791801C12E08799D20204E0879901
:100E0000520301E0879912030A438792401C06E0CF
:100E1000401C402201E0401C2022114387910178B0
:100E2000441C346087A80173732913D06E291DD127
:100E3000879832490840411E02464A408A423CD9BE
:100E400000282DD0414201402D484143C80E2DA11C
:100E5000085C26E087A80078400619D4009587A88A
:100E60008CAA8BAB069900F03DF92AE007AD87A963
:100E70008CAA284600F08CF9024628460699029B67
:100E80009847411C059D00D0C5198B9503991AE020
:100E9000009587A88CAA8BAB069900F0C0F810E0EB
:100EA0002020401F082808D8784400794000874453
:100EB0001904040D14040D0404008C9802C88C90CD
:100EC0000F6003998B9D681C13D050E7F8178C991D
:100ED00004C98C9117605060F3E78C9802C88C901D
:100EE0000F70EEE78C9802C88C900F80E9E72F46D0
:100EF00000E0059F38467FB00EB0F0BD603F0000B7
:100F000031B57C0700011C021D0E18031E16140FBC
:100F1000191104081F1B0D17151310071A0C1206C0
:100F20000B050A0910B50A680124E3071AD01378E3
:100F3000302B0CD0232B0ED02B2B0AD02D2B04D0F2
:100F40000024202BF1D1042306E0012304E0102328
:100F500002E0022300E0082304681C430460521CE2
:100F60000A60E1E710BDFEB516460D460446086866
:100F700002782A2A10D13068011D31600068606053
:100F8000002805D5404260602068012101432160AE
:100F90002868471C2F6017E00021303A092A08D83A
:100FA0004218531C2B60435C6F467B545278491C9B
:100FB000F3E76A460023535412784718002A03D0F7
:100FC00068460DF009FA606038782E2826D1781C22
:100FD000286079782A2908D13068011D31600068BD
:100FE000A0602868401C2860FEBD00203039092917
:100FF00008D839188A1C2A604A786B461A548978AE
:10100000401CF3E76A46002111541078002804D0F0
:1010100068460DF0E1F9A060FEBDA160FEBDF0B52F
:1010200087B01E460C9F13681C1D14601D68002DA0
:101030003AD0049106908468002C04D428460DF020
:10104000E9FE844203D328460DF0E4FE04460698E8
:101050004068A042039000DC2046014630680191C0
:10106000401805940399A142029630600EDD06985F
:101070000078C0070AD1059801990E1A0024B442DD
:1010800004DA20200499B847641CF8E70026049C81
:10109000069805998E420ADA2868010A18D12D1D92
:1010A0002146B847761CF3E70020B84718E00599B9
:1010B000039A8A4214DD0078C00711D00198451ABE
:1010C0000024AC420CDA20200499B847641CF8E7ED
:1010D0000020C043029908600DF024FF58210160F0
:1010E00007B0F0BDF0B585B00C4606460A9D106805
:1010F000011D116000680490002844D00393B76874
:10110000002F04D404980DF0AAFE874203D304985C
:101110000DF0A5FE074602967268BA42114600DC41
:101120003946039B1868009140180192BA42186032
:101130000FDD02980078C0070BD10098C01B039008
:1011400000260398864204DA20202146A847761C10
:10115000F7E70026BE4205DA0498805D2146A847DD
:10116000761CF7E70198B84210DD02980078C007B6
:101170000CD00098C61B0027B74207DA2020214672
:10118000A8477F1CF8E700202146A84705B0F0BD1E
:10119000F0B589B005920E4604467F2080002718DE
:1011A0004868039000250795FF210491FE31202215
:1011B000204601920DF070FD3046089702977D7031
:1011C000367B31466339152906903DD801228A4085
:1011D000604B1A42069822D007A908AA059B00F086
:1011E000BDF806980025067B012731466F3909298D
:1011F000059504D801228A4057490A423FD1582E0A
:101200003DD0016802230B40079A002A27D0089995
:101210004A1E08922D220A705F425F412FE000298A
:1012200012D1059B1A68111D19601268D1B24D4286
:101230004D410499FC316118089102990A700268C5
:1012400002218A430260CEE7252E02D0582EC3D059
:10125000CAE70020607025202070012078E0002B74
:1012600007D149070BD5089A511E089101991170B1
:1012700005E0089A511E08912B211170002703994F
:1012800003976518089B0178C907264608D102997B
:10129000491CC91A42689142264601DC691A4E1C53
:1012A000591C04984300002730463A460DF034FCA0
:1012B00008900599002903D0411C0891077000E0AF
:1012C0000146A94206D8481E691A491C20220DF081
:1012D000E3FC2F7006980078C00606D4311B20224C
:1012E00020460DF0D9FC059D2EE0A642059D2BD091
:1012F000311B302720463A460DF0CEFC069B07985E
:101300004142414103980140012905D11878400725
:1013100002D43046214604E03078611C2070701CF5
:1013200037701A7B412A0CD0582A05D0612A08D080
:10133000782A01D0702A07D11B781B0701D4612AB3
:1013400002D142784A70477020460DF088FD40195E
:1013500009B0F0BD4230240043020000F8B5144645
:101360000F4605468068002804D428681021884369
:10137000286001E00120A860287B1026582808D0AA
:10138000782806D0702804D06F2801D1082600E004
:101390000A262846194600F055F8AA68002A09D1FD
:1013A00002460A4306D12878000749D52B7B002046
:1013B000024612E02B7B642B03D16423002905D461
:1013C0000AE0692B08D1002906D5692301223A6079
:1013D000002240428A4100E00A460094114632460B
:1013E00000F0CEF8A968884206DA401C21684A1E3F
:1013F000226030220A70F5E7287B582803D078282D
:1014000001D070280FD1297809070CD5702800D198
:10141000782021684A1E226008702068411E2160E1
:1014200030210170287B6F280AD12878000707D562
:1014300020684178302903D0411E2160302101709D
:10144000F8BDC04610B5037B702B05D10868021D9E
:101450000A60006800227BE002683E481040421E9D
:1014600004465440944216D9002807D04242024014
:1014700039485043C00E39A2105C00E02020401FC4
:10148000082808D878440079400087444C04041E9A
:1014900038041E04040000221846643814280DD8AD
:1014A00001248440354804420AD12120044205D059
:1014B0000868021D0A600068C21749E0582B46D12F
:1014C0000868031D0B60006842E018466438142861
:1014D00007D8012282402948024206D12120024237
:1014E00003D10020582B024632D10868C21D0720C4
:1014F00082431046083008601068526828E00022D5
:1015000018466438142807D8012484401B48044234
:1015100004D121200442CBD1582B18D10868031DD7
:101520000B60007814E0002218466438142807D8AD
:10153000012484401148044204D121200442B7D13F
:10154000582B04D10868031D0B60008800E010468A
:10155000114610BD603F000031B57C0700011C0240
:101560001D0E18031E16140F191104081F1B0D174A
:10157000151310071A0C12060B050A0900081200B1
:10158000FEB501920D460646582B01D0174800E0E3
:1015900015480090089802903046284305D1029AD9
:1015A0001068411E116030210170019C30462843B3
:1015B00013D030462946224600F01AF807460D4659
:1015C00022460DF097FA301A0099085C029B1968C0
:1015D0004A1E1A6008703E46E8E7029800680DF05F
:1015E0003EFC401EFEBDC046FE3C0100313D0100F8
:1015F00080B5102A06D0082A09D1C0084A078018E9
:10160000C90880BD00090A078018090980BD0029A2
:1016100004D111460CF022FF002180BD00230DF003
:101620009BFB80BDF0B59DB0094F3878042800D9E8
:1016300082E2810001A251588F46C0465516000033
:101640005B170000C5190000391B0000471D000092
:101650005B3420200024009405208601AA23204624
:1016600021463246089303F09FFC35468F3500959E
:101670001A23204621460B96324603F095FC102093
:1016800000950A9001900294C24A08200421C24B9E
:1016900007900CF03DFDC14800781F260028354614
:1016A00000D025460095BC4F00D0BD4F20213823E7
:1016B00020460B9A059303F077FC00950A98019059
:1016C0000294B84A0C20242109903B460CF020FDDE
:1016D000B24F38780128069600D026460096AE4DC7
:1016E00000D0AF4D5023204605990B9A059303F087
:1016F0005BFC00960A9801900294AB4A3C21099841
:101700002B460CF005FD38780228069800D02046BC
:1017100007460090A04D00D0A14D682320460599B2
:101720000B9E324603F040FC00970A9F01970294FB
:101730009E4A542109982B460CF0EAFC9C4D0095DA
:10174000982120463246089B03F02EFC0095019715
:101750000294984A9A210798F0E20520860107F042
:10176000B3FD0B9000240094AA2320462146324664
:1017700003F01AFC35468F3500951A232046214682
:10178000324603F011FC10200095054601900294AA
:10179000894A08200421804B0CF0BAFC0B990029DF
:1017A00000D1D9E206950A9684480078884202D38F
:1017B000481E824A1070C0B2001F08907C4D00D2B3
:1017C00008940CA80C300790682602220BE03146E2
:1017D0001839002000900A9A334603F0E5FB48369A
:1017E000099AD21C0B99089809921718B81EC4B20E
:1017F0008C421BD20CA9204609F0F2FF002815D01C
:101800000CA8037841888088079A00920191029081
:1018100013AD282128466A4A0CF054FD6748017828
:10182000002004918C4256D0024655E0314648399A
:101830003346303B002000900A9A03F0B5FB781E37
:10184000C4B20B9884421BD20CA9204609F0C8FFF1
:10185000002815D00CA8037841888088079A009248
:101860000191029013AD28212846554A0CF02AFD1B
:1018700052480178002004918C424CD002464BE043
:10188000314630393346183B002000900A9A03F065
:101890008BFBB02E00D142E2FCB20B98844296D270
:1018A0000CA9204609F09CFF002890D00CA80378D2
:1018B00041888088079A00920191029013AD2821F7
:1018C00028463F4A0CF0FEFC3C4807780020BC420A
:1018D00041D0034640E01F22314648393346303B71
:1018E000059200920A9A03F05FFB28780028304D99
:1018F000A5D004988442284B069A00D0284B314644
:1019000044390020059C0094019202900C2013AAF7
:101910000CF0FEFB93E71F22314630393346183B6B
:10192000059200920A9A03F03FFB28780028204D88
:10193000AFD004988442184B069A00D0184B314619
:101940002C390020059C0094019202900C2013AACF
:101950000CF0DEFB9DE71F230A9A314618390593E8
:101960000093334603F020FB28780028104D00D167
:1019700035E7BC42084B069A00D0094B3146143972
:101980000020059C0094019202900C2013AA0CF0F8
:10199000BFFB24E75B400100FFFF0000442A20203A
:1019A00018C6000018400100633E0100D83D010048
:1019B00030840000533D0100FC400100382A202003
:1019C000F83D0100E34E052080010B900CA80DF0BE
:1019D00095F9FD48007802281BD000240094AA2322
:1019E000204621460B9F3A4603F0DEFA3D468F35EE
:1019F00000951A23204621463A4603F0D5FA1020D6
:101A0000009501900294F44A0820042133460CF01A
:101A10007FFBF24D0C9B0D980090F14A13AC2821EE
:101A200020460CF04FFC002600962021382330463B
:101A30000B9A03F0B9FA2078002809D010200096FC
:101A4000019002960C20242113AA2B460CF060FB77
:101A50000DF03AFA05460DF03DFA0090E14A13AC5C
:101A6000282120462B460CF02DFC009638215023CF
:101A700030460B9A03F098FA2078002809D01020FD
:101A80000096019002960C203C2113AAD34B0CF037
:101A90003FFB0DF09FF905460DF094F90090D24AF6
:101AA00013AC282120462B460CF00CFC009650214C
:101AB000682330460B9A03F077FA20780028C74B4A
:101AC00008D010200096019002960C20542113AAF1
:101AD0000CF01EFB0096682180230A9330460B9F72
:101AE0003A4603F061FA1024009601940296BF4A28
:101AF0000C256C212846B94B0CF00AFB00963A469F
:101B0000982730460A993B4603F04EFA0096019416
:101B10000296B74A84212846B04B0CF0F9FAB54D2D
:101B20000095AA23304639460B9A03F03DFA0095FA
:101B300001940296B04AFFE00527BC0100260096FA
:101B4000AA2330463146224603F02EFA25468F3529
:101B500000951A23304631460B94224603F024FAAE
:101B600010200095079001900296A74A08200421B2
:101B7000974B0CF0CDFAA5480078062802D3A3486D
:101B800007703846001F099000D209966826022186
:101B90000AE031461839002000900B9A334603F0D2
:101BA00003FA48360A99C91C09980D18A81EC4B230
:101BB000052C0A9108D808959448007800250490CF
:101BC00084420BD028460AE0314648393346303B40
:101BD000002000900B9A03F0E7F923E01F20E100BA
:101BE0008B4A5758314648393346303B069000906F
:101BF00028460B9A03F0D8F9059738780028089DF5
:101C000010D004988442724B00D0744B3146443952
:101C10000020069A0092079A019202900C20059AE1
:101C20000CF076FA681EC4B2062C07D2774800780A
:101C30000027069084420BD038460AE031463039FE
:101C40003346183B002000900B9A03F0ADF922E0D8
:101C50001F20E1006E4A5258314630393346183B56
:101C600008900090384617460B9A03F09DF9387893
:101C7000002810D006988442554B00D0574B31466F
:101C80002C390020089A0092079A019202900C20A9
:101C90003A460CF03DFAB02E2BD0ECB2062C00D315
:101CA00077E75A4805780020AC4201D0034600E0AF
:101CB0001F23E100564A57583146183908930093BC
:101CC0000B9A334603F070F93878002800D168E7A2
:101CD000AC423F4B00D0414B314614390020089AAA
:101CE0000092079A019202900C203A460CF010FAEA
:101CF00057E7484E3078002800D1474E3D4C0094BD
:101D000000279821AA2338460B9A03F04DF9009436
:101D100007980190029708209A2132460EE000951C
:101D200000249821AA2320460A9A03F03DF9009541
:101D3000069801900294314A08209A21244B0CF015
:101D4000E7F9224F3878234908703448012101709F
:101D50001DB0F0BDFFFF00000024009420213820BA
:101D60000B90204632460B9B03F01EF90094019520
:101D70000294234A0C200A902421184B0CF0C8F935
:101D80000094502320460B99324603F00DF900943D
:101D9000019502941B4A3C210A98104B0CF0B8F9AB
:101DA000144800909821AA232046324603F0FCF8FC
:101DB00010480090019502940F4A08209A21044B84
:101DC0000CF0A6F9BEE7C0465E3420205B3420202C
:101DD000FFFF00005E342020E940010018C600002B
:101DE000543F0100863D0100463C0100E83D0100F2
:101DF000093F0100308400001E410100B83D010090
:101E00002C4001007F3C010090400100332A20203B
:101E100018390100E8282020813E010035342020B7
:101E2000F0B5BDB00546BA490BF01AF800283BD012
:101E3000B84928460BF014F8002843D00127B649CA
:101E400028460BF00DF8002856D009970024B34916
:101E500003E0E41C012A00D1B8E02A5D0B5D9A4240
:101E600000D092E0002A00D1B0E02A190B19567870
:101E70005F78BE4200D088E020460938474247419B
:101E8000002E099E00D03E46002E00D09EE09278A3
:101E90009878824279D12046083843424341002A4B
:101EA000099AD6D01A46D4E7012703F0C7FA0346A9
:101EB0009B4A0EAD302128460CF004FA28460CF05F
:101EC00001F9F1E203F0BAFA04460CF001FE002831
:101ED00000D18BE007F02AFD002800D140E2914EAE
:101EE000914C92480CF0EEF82EA818300890E41CA3
:101EF0000020099060252FE103F0A0FA05460CF0C0
:101F0000E7FD00287BD007F011FD002800D1CBE2CF
:101F100009978548C51C002660270896844C02E076
:101F20007F1E00D161E23C352EA93C22284606F0F6
:101F30004FF9002800D156E22EA80178A529EFD14B
:101F400080790128ECD12EA840880028E8D02EA95D
:101F50008A88002AE4D0309B72495918A142DFD305
:101F60003199424350008142DAD1581814306E4AF8
:101F70009042D5D201200003081813306D49084063
:101F800086190898401C0890CAE700206A49099FF2
:101F900002E0C01C012A6CD02A5C0B5C9A4239D149
:101FA000002A66D02A180B1856785C78A64231D1E0
:101FB000002E5ED092789B789A422BD1841F634288
:101FC0006341002A3A46E4D01A46E2E70B355B4902
:101FD0002EAA28460CF04AFC012800D095E02E9845
:101FE000FE2800D991E007F089FF5CE2544A0EAD6B
:101FF0004021284623460CF065F92846AEE1504AB8
:102000000EAE402130462B460CF05CF930460CF009
:1020100059F849E200204B4903E0C01C012A00D1D5
:10202000C1E12A5C0B5C9A4200D09BE1002A00D1FE
:10203000B9E12A180B1856785C78A64200D091E1D5
:1020400004460C3C67426741002E099E00D03E4684
:10205000002E00D0A7E192789B789A4200D081E1CF
:1020600004460B3C63426341002A099AD5D01A46C4
:10207000D3E7093531492EAA28460CF0F7FB012891
:1020800000D09DE12E9EFE2E00D999E107F04EFC76
:10209000002800D198E1264C2348C51C602702E0A7
:1020A0007F1E00D190E13C350EA93C22284606F067
:1020B0008FF8002800D187E10EA80178A529EFD17B
:1020C00080790128ECD10EA841880029E8D00EA81B
:1020D0008288002AE4D01098124BC318A342DFD3A1
:1020E000119B4A4351008B42DAD1C21814320EA917
:1020F0000D4B9A42D4D24978B142D1D108F0DAFDE1
:10210000002800D1CFE11048D2E11048C9E1C04613
:10211000B04001004040010052400100483F010032
:10212000973D0100000081FF01007F00753D010027
:10213000001081FF00F0FFFFFA3F0100474101005E
:102140007A3A0100273E0100903E0100423D010025
:10215000F84E2D1F00D1AFE120463C302EA93C2285
:1021600006F036F8002800D1F7E02EA80178A5295E
:1021700031D1807901282ED12EA8408800282AD07C
:102180002EA98988002926D0309A9319F24FBB4294
:1021900021D3319E0B4643435B009E421AD19319D3
:1021A0001433EF4FBB4215D22EAB5B780793329FAF
:1021B000089B009301ABC3C305920EAE802130464D
:1021C000ED4A079B0CF07EF830460BF07BFF099838
:1021D000401C0990E14E204678302EA93C2205F0A3
:1021E000F7FF002800D1B8E02EA80178A52931D149
:1021F000807901282ED12EA8408800282AD02EA927
:102200008988002926D0309A9319D34FBB4221D315
:10221000319E0B4643435B009E421AD193191433FF
:10222000CF4FBB4215D22EAB5B780793329F089BF2
:10223000009301ABC3C305920EAE80213046CE4A57
:10224000079B0CF03FF830460BF03CFF0998401C10
:102250000990C24E2046B4302EA93C2205F0B8FFAA
:1022600000287AD02EA80178A52931D180790128BB
:102270002ED12EA8408800282AD02EA9898800298E
:1022800026D0309A9319B44FBB4221D3319E0B46CE
:1022900043435B009E421AD193191433B04FBB42A3
:1022A00015D22EAB5B780793329F089B009301AB4E
:1022B000C3C305920EAE80213046AF4A079B0CF097
:1022C00001F830460BF0FEFE0998401C0990A34E21
:1022D000F0342EA93C22204605F07AFF00283CD09D
:1022E0002EA80178A52900D033E78079012800D0F5
:1022F0002FE72EA84088002800D12AE72EA9898838
:10230000002900D125E7309A9319934FBB4200D2A0
:102310001FE7319E0B4643435B009E4200D017E708
:10232000931914338E4FBB4200D311E72EAB5B7869
:102330000793329F089B009301ABC3C305920EAE77
:10234000802130468C4A079B0BF0BCFF30460BF0D7
:10235000B9FE0998401C0990FAE684480BF0B2FED9
:102360000127A1E000207449099F02E0C01C012A56
:102370007CD02A5C0B5C9A4246D1002A76D02A187F
:102380000B1856785C78A6423ED1002E6ED092781B
:102390009B789A4238D1841F63426341002A3A46AF
:1023A000E4D01A46E2E70E3569492EAA28460CF019
:1023B0005DFA012874D12EA800780CF085FA72E03D
:1023C00064480BF07FFE6FE01F2E70D8700401216F
:1023D0000903401808F06EFC0028099F64D061488A
:1023E0000BF070FE60E061485BE0614B981B089960
:1023F000C9B20096019002915E4A0EAD6021284656
:102400000BF060FF28464CE000224C49089202E0A5
:10241000D21C012B5CD0AB5C885C834256D1104649
:10242000093846424641002B384600D03046002845
:102430004ED1AB188E185F787078874246D114461B
:10244000083C60426041002F099F00D00746002FE2
:10245000099F3DD19B78B078834237D1D41F604229
:102460006041002B3B46D3D00346D1E709350AA88B
:1024700002900BA801900CA8009034490EAA0DAB55
:1024800028460CF0F3F905283BD10DA802880CA8CA
:1024900003880B980A9900900191FF200EA945E04E
:1024A0002C480BF00FFE099F38463DB0F0BD2E487A
:1024B000099F0BF007FEF7E70998C3B22F4A0EAC4D
:1024C000802120460BF0FEFE204647E7089FEBE701
:1024D0000A350AA802900BA801900CA80090184990
:1024E0002EAA0DAB28460CF0C1F92E9BFE2B01D86D
:1024F000002100E001210528384600D108460128C6
:1025000003D111480BF0DEFDCEE70E4A0EAD1021CF
:1025100028460BF0D7FE2EA800780DA90A880CA932
:102520000B880B990A9C00910194294601F05CFAF2
:10253000BAE7C046000081FFF03F0100B23F010052
:10254000203D0100BF400100183E0100593C010040
:1025500047410100543E0100001081FF000081FF4F
:1025600001007F00903E01001E3C0100CC3B0100B9
:1025700000F07E004839010018380100003B0100DE
:10258000F0B5C5B00AA80790B6480078012800D079
:1025900037E209A80CF01AF8002800D131E20798B8
:1025A00020300790B04DB14CB14E05E009A80CF0B9
:1025B0000DF8002800D124E2099829684A1C2A60F5
:1025C000AC4B5854AC4F39680B0A4840C0B280003D
:1025D000AA490858584038602068401C20600121F2
:1025E000089109028A4202D031688842DED1A44EA5
:1025F0003068A04904F0A4F8002800D1F6E128686A
:1026000031680818306000272F6023681EAE28212B
:1026100030469C4A0BF056FE3046954E0BF052FD6C
:10262000216830688142C1D193490968CD439649F8
:1026300019919649098819AA918095490988D180EC
:1026400008991B911C901D95864807709148006859
:10265000A84200D0D0E19048006819A9142204F0E3
:102660006FF8002800D1C9E18C48C41C03953C34A4
:102670001EA93C22204605F0ABFD002807D01EA86D
:102680000078FF2800D1C0E17F1C602FEFD1834884
:10269000C51C0027602182480590069128463C30E1
:1026A00036A93C26324605F093FD002800D19BE177
:1026B00036A80178A52929D18079012826D136A804
:1026C0004088002822D036A9898800291ED0389A4F
:1026D000744BD318744CA34218D3399B4143480020
:1026E000834213D1D01814306C4988420ED27C1C1E
:1026F000F8B246436A48801936A94CC94CC0CCC9C7
:10270000CCC0CCC9CCC0CCC9CCC000E03C4628462B
:10271000783036A93C26324605F05AFD002800D113
:1027200062E136A80178A52929D18079012826D12E
:1027300036A84088002822D036A9898800291ED0D2
:10274000389A584BD318584FBB4218D3399B414342
:102750004800834213D1D0181430504988420ED219
:10276000671CE0B246434E48801936A91CC91CC0FC
:102770005CC95CC05CC95CC05CC95CC000E0274649
:102780002846B43036A93C26324605F021FD002803
:1027900000D129E136A80178A52929D1807901281D
:1027A00026D136A84088002822D036A98988002959
:1027B0001ED0389A3B4BD3183B4CA34218D3399BBD
:1027C00041434800834213D1D01814303349884222
:1027D0000ED27C1CF8B246433148801936A94CC948
:1027E0004CC0CCC9CCC0CCC9CCC0CCC9CCC000E09A
:1027F0003C46F03536A93C262846324605F0E8FC32
:10280000002800D1F0E036A80178A5294ED18079C2
:1028100001284BD136A84088002847D036A989889E
:10282000002943D0389A1F4BD3181F4FBB423DD3CA
:10283000399B41434800834238D1D018143017499E
:10284000884233D2671CE0B246431548801936A946
:102850001CC91CC05CC95CC05CC95CC05CC95CC0F4
:1028600025E0C046432A2020E0292020D42920202A
:102870005C292020A0242020DC29202060300100B9
:102880000C2A2020DB3C0100494D47302C2A202017
:102890001E2A2020582920205029202001007F00B6
:1028A00000002020000081FF001081FF27460698CD
:1028B000011F00D0F1E6E448451E284606F070F9F5
:1028C000002800D190E0E14806F06AF9002800D124
:1028D0008AE0DF4806F064F9002800D184E0DD4892
:1028E00006F05EF900287FD0DB4806F059F9002891
:1028F0007AD0DA4806F054F9002875D0D84806F0A6
:102900004FF9002870D0D74806F04AF900286BD05C
:10291000FF20C00306F044F9002865D0D24806F035
:102920003FF9002860D0D14806F03AF900285BD082
:10293000CF4806F035F9002856D0CE4806F030F9D9
:10294000002851D0CC4806F02BF900284CD0CB48B9
:1029500006F026F9002847D0C94806F021F90028DA
:1029600042D01EAE304614302C21FF220CF094F9D8
:10297000C4481E90C4481F900898000320902195D9
:102980000024229440222846314603F0D9FE002834
:102990002AD0380612D0FEB2AB4D3F35602C23D082
:1029A0003C222846059903F0CBFE00281CD0641C6D
:1029B00005983C3005903C35A642EFD1B4480BF069
:1029C00081FBA148C41C00273C341EA93C222046A0
:1029D00005F0FEFB002807D01EA80078FF2812D0C3
:1029E000781C07466028EFD1A84808E000208C49F1
:1029F000087028608C4802E08E4800E08F480BF099
:102A000061FB45B0F0BD874E039D0AAC201D382107
:102A1000FF220CF041F9A52020709E4800786070DC
:102A200082480088608082480088A0800898A07151
:102A3000814800680C9030680D900E958248C51C46
:102A400000200490602603E02746069C761E35D0C1
:102A50003C351EA93C242846224605F0B9FB002837
:102A60002CD01EA90A78A52AF0D189790129EDD1A7
:102A70001EA94A88002AE9D006943C461EA98F88E0
:102A8000002FE1D0209B6F4905935B186C498B4266
:102A9000DAD3219B57437A009342D5D1239A0499E4
:102AA0008A42274600D8049A0599C9181431664B02
:102AB0009942069C00D3049A0492C7E7002803D1E8
:102AC000584E079D089803E00498401C554E079DFA
:102AD0000F9071490A780AA80276002A47D04A78EE
:102AE0000AA84276002A45D08A780AA88276002A67
:102AF00043D0CA780AA8C276002A41D00A790AA827
:102B00000277002A3FD04A790AA84277002A3DD0AE
:102B10008A790AA88277002A3BD0C8790AAAD07796
:102B2000002839D0087A2870002838D0487A687090
:102B3000002837D0887AA870002836D0C87A079A3B
:102B4000D070002835D0087B079A1071002834D047
:102B5000487B079A5071002833D08A7B079BD81D89
:102B60009A71002A31D0C97B0170079D31E019307C
:102B70000F212CE01A300E2129E01B300D2126E018
:102B80001C300C2123E01D300B2120E01E300A21D7
:102B90001DE01F3009211AE00821284617E0681CB3
:102BA000072114E0A81C062111E0079DE81C05215F
:102BB0000DE0079D281D042109E0079D681D0321E4
:102BC00005E0079DA81D022101E00121079D0CF0F1
:102BD0006AF8F9B20020E87130485F2900D90EE7A1
:102BE0007F210F4067431849CA193F320AA9054699
:102BF0001046224603F0A4FD01462846002900D1D4
:102C0000FDE6244803783068009003980190244A38
:102C10001EAC602120460BF055FB2046EFE6C04677
:102C2000432A20205C292020B63B01002C2A2020AA
:102C30001E2A2020AC3E010050292020643D0100C6
:102C4000001081FF000081FF01007F0000107F0065
:102C500000207F0000307F0000407F0000507F0098
:102C600000607F0000707F0000907F0000A07F0068
:102C700000B07F0000C07F0000D07F0000E07F0038
:102C800000F07F004D49445801006000E13B010025
:102C9000473B0100372A202028292020083E010038
:102CA000C8390100F0B5C9B0044602E0092808D1CE
:102CB000641C20781F28F9DD2028F9D03E28F7D0A1
:102CC00003E0002801D122462CE0651C28460BF0C9
:102CD00034FF421C2918824201D20A4622E0201801
:102CE00003E0C91EC01EA34215D90278202A01D0D4
:102CF000092A10D1A04210D9421E1378202B01D0EE
:102D0000092B0ED1A2420AD9831E1D78202DE8D0AE
:102D1000092DE6D006E0421C04E0024602E08A1ECD
:102D200000E04A1E002515702178002922D0204697
:102D300004E0C21CC178002910461BD00A46613A43
:102D4000D2B2192A01D8203901704178002911D056
:102D50000A46613AD2B2192A01D8203941708178E5
:102D6000002907D00A46613AD2B2192AE1D820399F
:102D70008170DEE720784C285FD1607854285CD1E0
:102D8000A078552859D1E078522856D120794E287C
:102D900053D16079202850D1A01DF84908AA0BF022
:102DA00065FD012800D090E2F54D287800284BD130
:102DB000F44F3868F4490968401A45D409A80BF063
:102DC0009DFFF248002404700BF088FBF04804607B
:102DD000F048046001262E7038687D2109014018F2
:102DE0006438E9490860089D284621460BF00BF835
:102DF0000028304600D1E043E749086028462146D4
:102E00000AF0EFFF002801D0F0074540E3492846CB
:102E10000AF06AF8E24909F053FFE24908600998AC
:102E2000E14908600A98E1490860E1480CF058F867
:102E3000E0480CF055F8E04869E2D24F3968204686
:102E400009F07EFD002801D049B0F0BD06A80BF0C6
:102E500055FF0699079A204602F010FF002806D079
:102E6000CB4800210160CB480160D4484FE2207874
:102E7000502823D16078492820D1A07844281DD13A
:102E8000E07820281AD1201D05A90091CC4909AA73
:102E900008AB0BF0EBFC032800D018E20999C448FA
:102EA000089A059B0EC0C34C0EC40C3C0C380CF0A9
:102EB00017F820460CF014F8C24828E2207842287F
:102EC00048D16078412845D1A078532842D1E07894
:102ED00045283FD1207920283CD1601D0025294676
:102EE00003F086FF0646B84C21460AF07AFF0490AC
:102EF000B64F304639460AF08FFF002800D13746DA
:102F00000498002800D13C46A04805709C480570F4
:102F10000BF0E4FA9E480460204629460AF058FF68
:102F2000002809D09B480560A1480BF0D9FFA148B3
:102F30000BF0D6FF0BF07AF8002120460AF063FF71
:102F40000546F549204609F0BBFE002D00D1C2E13F
:102F50003F21C1E120784D2852D160784F284FD1D0
:102F6000A07854284CD1E0784F2849D120795228B4
:102F700046D16079202843D17D2000010890A01D12
:102F8000FD4909AA08AB0BF071FC002800DCBDE18B
:102F9000099D0024284621460AF023FF0490F84E9C
:102FA000284631460AF038FF002800D12E46F7485F
:102FB0000499002900D1344609940899814200D926
:102FC0000890DC4801210170DB48002101700BF002
:102FD00085FA0998DD490860DD49086008980028ED
:102FE00001D039680818DB490860DB480BF078FF2E
:102FF000DA480BF075FF089B0999E6480A4665E038
:103000002078502866D16078572863D1A0784D2861
:1030100060D1E07820285DD17D2000010590201D41
:1030200005A90091D74909AA08AB0BF01FFC02289B
:1030300000DA4EE1099E0024304621460AF0D1FE16
:103040000490CF4D304629460AF0E6FE0028284677
:1030500000D1304604990029214600D1014609914A
:10306000089E304621460AF0BCFE049030462946B0
:103070000AF0D2FE002800D13546C4480499002940
:1030800000D12C4608940599814200D90590A948A1
:1030900001210170A848002101700BF01FFA099866
:1030A000AA4908600898AA4908600598002801D034
:1030B00039680818A7490860A7480BF011FFA7480E
:1030C0000BF00EFF059B089A0999B14809F06AFDBB
:1030D00049B0F0BD207850287AD16078552877D152
:1030E000A0784C2874D1E078532871D120794528F4
:1030F0006ED1607920286BD1A01D9F4909AA08AB29
:103100000BF0B4FB022800D0FCE07D200490099C69
:10311000204629460AF065FE0390994E2046314626
:103120000AF07AFE002800D126460498000103998F
:10313000002900D1354609950899814200D90890A7
:103140007C48012101707C48002101700BF0C6F918
:1031500009987E4908607E4908603868089908180F
:103160007C4908607C480BF0BBFE7C480BF0B8FE45
:10317000089909980AF0DEFE49B0F0BD444101000B
:103180003A2A2020A8292020B42920203F2A2020C4
:10319000002A2020E4292020742920200000B442A5
:1031A0000080894380292020782920207C29202024
:1031B000A0282020C4282020A73F0100843F010030
:1031C000644001006D400100000070C200007042C8
:1031D000207851281BD16078552818D1A07849282B
:1031E00015D1E078452812D1207954280FD1607983
:1031F00020280CD1A01D00210A2207F01DF9414210
:103200004141584A117000287ED05A487FE020780A
:10321000542819D16078452816D1A0784C2813D1AC
:10322000E078452810D1207920280DD1601D00219B
:103230000A2207F001F9411E02468A4149490A70F3
:1032400000285DD1494862E03449204609F008FE73
:10325000002810D03249204609F002FE002828D06C
:103260003049204609F0FCFD002826D020460BF00E
:10327000E5FA49B0F0BD2F4805702F4805700BF0F6
:103280002DF92E4805602E4805602E4805602E4811
:1032900005602E4805602E4805602E4805602E48C2
:1032A0000BF01EFE2D480BF01BFE0AF0BFFE2C4853
:1032B0002DE005F025FF49B0F0BD0BF02BFD1A48BD
:1032C00005601A4805601A4821E037481FE0354874
:1032D0001DE02D481BE0BF21090608F02AFD0BF078
:1032E00091F9009001902D4A2D4B0120010209A86F
:1032F0000AF0E8FF401EFE2800D9A5E509A806E06F
:10330000194804E01D4802E0194800E022480AF08C
:10331000D9FE49B0F0BDC0460000C84219410100C5
:103320002741010098400100CC292020D0292020ED
:10333000C83E01003F2A20203A2A2020002A2020CF
:10334000E4292020BC292020C4292020F82920207D
:10335000FC292020C0292020A0282020C4282020AB
:10336000DC3F0100462A2020603F01003C3F010075
:10337000FC3E0100163F0100B8400100303F010053
:103380000000AA423640010004400100102700005E
:103390002B410100F0400100783F0100F63B0100A5
:1033A000144101000E4001006C3F0100F0B591B0E6
:1033B0000A910127002A00D10BE30E93002B00D1C4
:1033C00007E30D921349144D81220C920A600124E7
:1033D0002C602C64099002262E602C60A0273846B1
:1033E0000BF090FD284610300B902C6138460BF006
:1033F00089FD2E610998400040B2064A0C9911607F
:103400002C6010942C6434462E61079000282846C6
:1034100005D403E00480424090120A400B981099B2
:10342000016020200F900BF06DFDFC4D2C603846A4
:103430000BF068FD2C6138460BF064FD099EB00668
:1034400006900B9800D5F548109901600F980BF085
:1034500059FDF24D2C6038460BF054FD2C61384676
:103460000BF050FDF00605900B9800D5EB48109935
:1034700001600F980BF046FDE84D2C6038460BF0CC
:1034800041FD2C6138460BF03DFD300704900B9850
:1034900000D5E248109901600F980BF033FDDF4D25
:1034A0002C6038460BF02EFD2C6138460BF02AFDBF
:1034B000700703900B9800D5D848109901600F98B9
:1034C0000BF020FDD54D2C6038460BF01BFD2C6118
:1034D00038460BF017FDB00702900B9800D5CF4887
:1034E000109901600F980BF00DFDCC4D2C60384603
:1034F0000BF008FD08942C6138460BF003FDF00733
:1035000001900B9800D0C548109C04600F980BF0F8
:10351000F9FC089EC14D2E6038460BF0F3FC2E617D
:1035200038460BF0EFFC2C610F980BF0EBFC2E6093
:1035300038460BF0E7FC2E6138460BF0E3FC08F050
:10354000F7FDB7490C9A0A602C602C6431462E6155
:103550000028374600D130E20A9840B2AF490F4602
:1035600010370028084600D4384610990160202002
:103570000F900BF0C7FC0224A84D2C60A02630460B
:103580000BF0C0FC2C6130460BF0BCFC0A984006E6
:10359000384600D5A148109901600F980BF0B2FC95
:1035A0009E4D2C6030460BF0ADFC2C6130460BF08C
:1035B000A9FC0A988006384600D598481099016001
:1035C0000F980BF09FFC954D2C6030460BF09AFC49
:1035D0002C6130460BF096FC0A98C006384600D5A0
:1035E0008E48109901600F980BF08CFCFB4D2C60FD
:1035F00030460BF087FC2C6130460BF083FC0A98B8
:103600000007384600D5F548109901600F980BF077
:1036100079FCF24D2C6030460BF074FC2C61304686
:103620000BF070FC0A984007384600D5EB4810991B
:1036300001600F980BF066FCE84D2C6030460BF0F3
:1036400061FC2C6130460BF05DFC0A98800738461F
:1036500000D5E248109901600F980BF053FCDF4D44
:103660002C6030460BF04EFC09942C6130460BF078
:1036700049FC0A98C00700D0D84F109C3C602746F0
:103680000F980BF03FFC099CD44D2C6030460BF09A
:1036900039FC2C6130460BF035FC08F049FDCE4971
:1036A0000C9A0A602F602F64002800D174E1CB4D82
:1036B0002C602F60A02630460BF024FC28461035E5
:1036C00007610B9630460BF01DFCC4490C61C248E3
:1036D0000C9A02600F600F642F460C610798002857
:1036E000084600D438461099016020200F900BF056
:1036F00009FCBA4D2C600B9E30460BF003FC2C618C
:1037000030460BF0FFFB06980028384600D5B3483A
:10371000109901600F980BF0F5FBB04D2C6030460E
:103720000BF0F0FB2C6130460BF0ECFB0598002809
:10373000384600D5A948109901600F980BF0E2FBBC
:10374000A64D2C6030460BF0DDFB2C6130460BF0B3
:10375000D9FB04980028384600D5A048109901608C
:103760000F980BF0CFFB9D4D2C6030460BF0CAFB41
:103770002C6130460BF0C6FB03980028384600D574
:103780009648109901600F980BF0BCFB934D2C608C
:1037900030460BF0B7FB2C6130460BF0B3FB0298C0
:1037A0000028384600D58D48109901600F980BF01D
:1037B000A9FB8A4D2C6030460BF0A4FB2C613046EF
:1037C0000BF0A0FB0198002800D0844F109C3C60B7
:1037D0000F980BF097FB099D804F3D6030460BF032
:1037E00091FB3D6130460BF08DFB3C600F980BF078
:1037F00089FB3D6030460BF085FB3D6130460BF0A8
:1038000081FB08F095FC002800D1C8E00D99481E06
:10381000C2B20E9D7048099FA02618E090120A407F
:1038200004804240026030460BF06CFB099F6B4CF9
:10383000276030460BF066FB2761109B23606D1CF0
:103840000F9A521E0D99491E634800D1AAE00E95A9
:103850000F920D9163490160604D2F6130460BF06E
:1038600051FB2F6030460BF04DFB5D4C20680B90F8
:1038700030460BF047FB2F6130460BF043FB2F60C7
:1038800030460BF03FFB0B98C007800F2168109C5F
:10389000214008180B9030460BF034FB2F61304666
:1038A0000BF030FB2F6030460BF02CFB4C480068CF
:1038B0000A9030460BF026FB2F6130460BF022FBBE
:1038C0002F6030460BF01EFB0B9880000A99C90749
:1038D000890F401842490968214008180B9030466A
:1038E0000BF010FB2F6130460BF00CFB2F603046C5
:1038F0000BF008FB3A4800680A9030460BF002FBD8
:103900002F6130460BF0FEFA2F6030460BF0FAFACA
:103910000B9880000A99C907890F40183049096837
:10392000214008180B9030460BF0ECFA2F6130461E
:103930000BF0E8FA2F6030460BF0E4FA28480068F4
:103940000A9030460BF0DEFA2F6130460BF0DAFABF
:103950002F6030460BF0D6FA0B9880000A99C90701
:10396000890F40181E49096821400C1830460BF099
:10397000C9FA2F610E990C700C98174A1060109AB2
:103980002A602A642F610F98002828460D4600D12E
:1039900048E71248103045E7032708990BE0042751
:1039A0000D4800E000270C99016010980B49086051
:1039B00008640899099C09480461109E074D2E610E
:1039C0002960A02420460BF09DFA2E6020460BF0C3
:1039D00099FA384611B0F0BD0480424090120A4076
:1039E00080130A4081000400F0B5FFB0DCB0E09D18
:1039F000002D30D0002B2ED0002A2CD0FC4C247867
:103A0000002C28D11C4654436400A54223D1F94C14
:103A1000F94F2E1913367F1EBE421CD30A910B900C
:103A20000892099301F00AFD06460BF051F80028B0
:103A300000D155E105F07AFF00280FD00B98FF2840
:103A400000D156E105F072FF00283AD0EB48C61CC1
:103A50006027E84C07E0EA480AF034FB7FB05CB02E
:103A6000F0BD7F1E2DD03C361BA93C22304604F011
:103A7000AFFB002825D01BA80178A529F1D18079BA
:103A80000128EED11BA840880028EAD01BA98A880B
:103A9000002AE6D01D99D84BCB18A342E1D31E9B38
:103AA000424350008342DCD1C91814311BA8D34AC9
:103AB0009142D6D241780B988142D2D10B9806F030
:103AC0001DFAE1980290284614300490CD49012057
:103AD0000390000307902818133008400590C7484A
:103AE000C71C00200690602602E0361F00D144E18A
:103AF00038463C300CA93C2204F06AFB002800D177
:103B000074E10CA80178A5292ED1807901282BD148
:103B10000CA84288002A27D00CA88388002B23D029
:103B20000E98B5494118B34CA1421DD30F99534388
:103B30005A00914218D142181432B04B9A4213D213
:103B4000069CE2B2D20001921BAB019A9A18009235
:103B5000019A9850079A51181331AA4A114008182F
:103B600000994860641C0694384678300CA93C22C1
:103B700004F02EFB002800D138E10CA80178A5291B
:103B80002ED1807901282BD10CA84288002A27D079
:103B90000CA88388002B23D00E9897494118954C88
:103BA000A1421DD30F9953435A00914218D1421894
:103BB0001432924B9A4213D2069CE2B2D200019286
:103BC0001BAB019A9A180092019A9850079A5118C3
:103BD0001331FC4A1140081800994860641C06948F
:103BE0003846B4300CA93C2204F0F2FA002800D187
:103BF000FCE00CA80178A5292ED1807901282BD1D1
:103C00000CA84288002A27D00CA88388002B23D038
:103C10000E98E8494118E64CA1421DD30F99534331
:103C20005A00914218D142181432E44B9A4213D2EE
:103C3000069CE2B2D20001921BAB019A9A18009244
:103C4000019A9850079A51181331DE4A114008180A
:103C500000994860641C0694F0370CA93C22384651
:103C600004F0B6FA002800D1C0E00CA80178A5291C
:103C700000D03AE78079012800D036E70CA84288C6
:103C8000002A00D131E70CA88388002B00D12CE753
:103C90000E98C8494118C64CA14200D225E70F9999
:103CA00053435A00914200D01FE742181432C34BCD
:103CB0009A4200D319E7069CE2B2D20001921BABF4
:103CC000019A9A180092019A9850079A5118133144
:103CD000BC4A1140081800994860641C069404E727
:103CE000B54A1BAC4021204633460AF0EBFA204689
:103CF000B2E600200B90AE4C05F018FE002800D173
:103D0000DFE6AE48C61C602702E07F1E00D1D8E681
:103D10003C361BA93C22304604F05AFA002800D158
:103D2000CFE61BA80178A529EFD180790128ECD135
:103D30001BA840880028E8D01BA98A88002AE4D064
:103D40001D999C4BCB18A342DFD31E9B42435000CE
:103D50008342DAD1C91814311BA8984A9142D4D2AF
:103D600041780B98C0B28142CFD10B98411C80B2F0
:103D7000FE280B91C0D392486EE607980599081863
:103D80008E49884232D20699C9B20029079E3BD09B
:103D9000CB001A46103A0693083B079F3E46002484
:103DA00003E018340699A1422ED01BAF3959814245
:103DB00003D239194F68BE4213D3A34224D01BAF9C
:103DC0003F19B968814202D2FF68BE4209D3A242BC
:103DD0001AD01BA90F1939698142E2D27F69BE420C
:103DE000DFD20598381875498842D7D3764833E62C
:103DF000432A2020001081FF000081FF01007F0086
:103E00000F3D010000F0FFFF70480AF05BF90498D5
:103E10008419A6421DD23746384604F0C1FE002858
:103E200000D18BE007983F18A74212D2384604F021
:103E3000B7FE002800D181E007983F18A74208D2BA
:103E4000384604F0ADFE002878D007983F18A74206
:103E5000E2D31BAF0A98394609F0F8F953480399A1
:103E600001705C490B9808705B49089808805B49B1
:103E7000099808805A4805605A48029901605A48D2
:103E8000002404605948E143016059480660143633
:103E900058480660584804603878584D2870002803
:103EA00049D01BA840786870002849D01BA88078AA
:103EB000A870002847D01BA8C078E870002845D01B
:103EC0001BA800792871002843D01BA8407968718D
:103ED000002841D01BA88079A87100283FD01BA8DA
:103EE000C079E87100283DD01BA8007A287200280C
:103EF0003CD01BA8407A687200283BD01BA8807A6F
:103F0000A87200283AD01BA8C07AE872002839D0DD
:103F10001BA8007B2873002838D01BA8407B68733F
:103F2000002837D01BA8807BA873002836D01BA898
:103F3000C07BE87337E0681C0F2132E024488BE532
:103F4000A81C0E212DE0E81C0D212AE0281D0C21C3
:103F500027E0681D0B2124E0A81D0A2121E0E81DAF
:103F600009211EE02846083008211AE028460930B9
:103F7000072116E028460A30062112E028460B30B9
:103F800005210EE028460C3004210AE028460D30B9
:103F9000032106E028460E30022102E028460F30B9
:103FA00003990AF080FEEC73154855E5432A20205A
:103FB000001081FF000081FF7A3A010001007F00BC
:103FC000C83D010000F0FFFF6C3C0100453E0100D0
:103FD000A83D0100372A20202C2A20201E2A20203C
:103FE0005C29202058292020D4292020DC292020C9
:103FF000502920200C2A2020E029202028292020B8
:10400000723E0100F0B589B0064607A80AF076FEB8
:104010000798D6490A68871A089AD54B1C68151B59
:10402000D44C266008601A60D3480078012810D16B
:10403000D2480760D2480560D2480168002920D0E4
:10404000711A1ED4D04900240C60D0490C60046061
:1040500019E00495CE480468CE48056820462946F4
:1040600009F0BFFE0028039623D07D20C10520461D
:1040700007F05FFE0446294609F0CEFE002828D04E
:1040800028E0C1480468C44E35682846214609F036
:10409000A8FE002800D196E03F200106284607F040
:1040A00048FE0546214609F0B7FE002800D19BE0F6
:1040B0009BE02046294609F0AFFE002809D0B74909
:1040C000204607F036FE0446294609F08AFE0028FD
:1040D00000D125460295AE480560B14D2C683846A2
:1040E0000AF038FA214607F01FFE7D21CF05394638
:1040F00008F0E6FD214607F01CFE04462860A94EA4
:10410000356804980AF026FA294607F00DFE39466C
:1041100008F0D6FD294607F00CFE07463060002166
:104120002046049109F06FFE06469F49204608F09C
:10413000C7FD3F210A06BF210D06002E294600D0EB
:104140001146019207F0F5FD0AF05CFA04468B482F
:1041500004603846049909F056FE064638469249EE
:1041600008F0AEFD002E00D0019D294607F0E1FDCC
:104170000AF048FA82490860201A8C4908600298BF
:1041800006900590039E304608F0E8FF02908948AB
:104190000468894D2F780798089906AA05AB07F09F
:1041A00043F9012F38D1002800D1C3E0FA4800219B
:1041B0000160FA480160FA4801607D48016009F039
:1041C00035FF09B0F0BD2846214609F025FE00283C
:1041D0000AD0BF200106284607F0ABFD0546214660
:1041E00009F0FFFD002800D12C463460ED4F3E68F9
:1041F000664805683046294609F0F3FD00285CD082
:104200003F200106304607F094FD0646294609F096
:1042100003FE002862D062E0341B002805D1079815
:10422000089906AA05AB06F0A9F9002C00D5E4E030
:10423000012703980AF088FB00210491002818D078
:104240000AF0D0FD0028384600D12878C00710D1E8
:10425000059C0698002109F0BBFD002809D000212B
:10426000204609F0B5FD002803D0D24806900590FD
:10427000049703980AF0CAFA002800D02F78F807AC
:1042800004D10AF0AFFD002800D197E003980AF0AE
:104290005BFB002800D1B0E00AF0A4FD002800D0AC
:1042A000ABE00698C44C214608F00AFD069005983C
:1042B000214608F005FD04469EE03046294609F0F7
:1042C000ABFD00280AD0BF200106304607F031FDC3
:1042D0000646294609F085FD002800D135463D6097
:1042E0002046294606F09AFFC1480068002109F0DF
:1042F0006FFD002800D14CE13C68BF480568BD480F
:104300000068002109F064FD002800D141E100218E
:10431000284609F05DFD002800D13AE1002520463D
:10432000294609F055FD002800D132E19E4805706C
:1043300009B0F0BDAC48056868420AF00BF9AB4E15
:10434000314608F0BDFC04469F48046028460AF048
:1043500001F9314608F0B4FC01469C4801609D48D3
:104360000460A0480160204611E1C046CC2920200D
:10437000D0292020A82920203F2A2020842920205D
:1043800098292020C0292020F8292020FC2920203D
:10439000E4292020002A2020BC292020000080BE03
:1043A000682920206C2920200000C8429429202060
:1043B0009C292020B42920203A2A20200699029CFA
:1043C000204607F0B6FC06900598214607F0ACFCA5
:1043D00005900AF007FD00280FD106980024214619
:1043E00009F0FFFC002801D0002006900598214626
:1043F00009F0F7FC002800D00594069C6F4E20467B
:10440000314609F0EEFC05466D4F2046394609F06D
:1044100003FD0028384600D12046002D344600D147
:1044200004460694059D2846314609F0DAFC0390BF
:104430002846394609F0F0FC002800D12F460398A1
:10444000002800D13E4605960498002826D0002575
:104450002046294609F0C5FC04905A4F20463946AB
:1044600009F0DAFC0028384600D1204604990029DA
:104470002C4600D1044606943046294609F0B1FC8A
:1044800004903046394609F0C7FC002800D1374671
:104490000498002800D13D46059500E035464A487D
:1044A00004604A480560414802684948214608F0CE
:1044B00063F8484F38603E4802680599464808F05E
:1044C0005BF804903D68069C00262046314609F0C2
:1044D0007FFC0028304624D103950025204629463C
:1044E00009F07FFC002801D1204602E00120C0072E
:1044F00060403A4908F0E4FB4121090607F019FC45
:1045000007462046294609F087FC002804D0039876
:10451000394607F00EFC03E00398394607F004FC27
:104520002C4F3860059F04463846314609F050FC50
:10453000002828D1254600243846214609F051FCA0
:10454000002801D1384602E00120C0077840234905
:1045500008F0B6FB4121090607F0EBFB204908F003
:10456000AFFB06463846214609F056FC002804D029
:104570000498314607F0DDFB03E00498314607F06C
:10458000D3FB06462C46174806602046314606F007
:1045900045FE09B0F0BDC0468C292020A02920206E
:1045A00088292020C42920203F2A20206829202073
:1045B0006C2920200000E0406666E63E000070C2E4
:1045C00000007042000020418C292020A0292020DA
:1045D000A028202088292020C42820203333333FDE
:1045E0008FC2753F9C292020742920200000704133
:1045F000F8292020FC292020BC292020F0B597B0E4
:10460000109316461D9C6308DA1DD5086543139365
:10461000C218521E0B195B1E11900E9107F000FF7D
:10462000002D00D17CE10C3CE0B2A101800808180B
:10463000C2B2052A00D973E10120159090402B21C8
:10464000084200D16CE109921C980D90203EF0B216
:10465000810116913027474306010C244443681E0C
:10466000032109F0FBFE491C002005900329049159
:1046700001D1059804901E9814901698EC4A1018D1
:104680000390EC48C0190690EB4880190790EB485E
:10469000001908901098000A0F900D98000A0C90CD
:1046A000159880031690032D05D2119E05980A9047
:1046B0001290099944E101910498281A029000206F
:1046C000119E0A901290139C09990BE00E98401CC1
:1046D0000E90119E0A98C01C0A900299884209996E
:1046E00000D11AE10029089806D00329069803D0C2
:1046F0000129079800D003980A99405C0B90002785
:1047000018E0C0B20AF09EFAF348169C04600461F7
:10471000E8B20AF097FAF04804601298401C129030
:10472000C0B2139C214609F099FE002936D07F1CA7
:10473000082F35D01598B8400B99084014990029D6
:104740001CD0002814D030460E9932460B4607F094
:1047500067FEE14C169D25610F98C0B20AF072FA0F
:10476000256025611098C0B20AF06CFA2560139C90
:10477000761C1198301AA042D9D10AE0D649169A6F
:104780000A6100280C9800D00F980D9DB9D0109D9B
:10479000B7E70E98401C0E90119E01E00020129089
:1047A00009990029089806D00129079803D0032900
:1047B000069800D003980A99401840780B9000277B
:1047C00018E0C0B20AF03EFAC348169C04600461C7
:1047D000E8B20AF037FAC04804601298401C129000
:1047E000C0B2139C214609F039FE002936D07F1C47
:1047F000082F35D01598B8400B9908401499002916
:104800001CD0002814D030460E9932460B4607F0D3
:1048100007FEB14C169D25610F98C0B20AF012FA3E
:10482000256025611098C0B20AF00CFA2560139C2F
:10483000761C1198301AA042D9D10AE0A649169ADE
:104840000A6100280C9800D00F980D9DB9D0109DDA
:10485000B7E70E98401C0E90119E01E000201290C8
:1048600009990029089806D00129079803D003293F
:10487000069800D003980A99401880780B9000277A
:1048800019E0C0B20AF0DEF99348169C0460046196
:10489000E8B20AF0D7F9904804601298401C1290D0
:1048A000C0B2139C214609F0D9FD002932D07F1CEB
:1048B000082F00D10EE71598B8400B9908401499BD
:1048C00000291CD0002814D030460E9932460B46E1
:1048D00007F0A6FD804C169D25610F98C0B20AF026
:1048E000B1F9256025611098C0B20AF0ABF92560D6
:1048F000139C761C1198301AA042D8D1E6E676496E
:10490000169A0A6100280C9800D00F980D9DB8D017
:10491000109DB6E700201290DCE6019803280FD125
:1049200017B0F0BD0E98401C0E90119E0A98801C86
:104930000A900598801C0590049988420999EFD047
:104940000029089806D00129079803D00329069862
:1049500000D003980A99405C0B900027139C18E044
:10496000C0B20AF06FF95C48169C04600461E8B2BA
:104970000AF068F9584804601298401C1290C0B2BE
:10498000139C214609F06AFD002936D07F1C082FB0
:1049900035D01598B8400B990840149900291CD0BF
:1049A000002814D030460E9932460B4607F038FDE9
:1049B000494C169D25610F98C0B20AF043F9256055
:1049C00025611098C0B20AF03DF92560139C761C51
:1049D0001198301AA042D9D10AE03F49169A0A61CB
:1049E00000280C9800D00F980D9DB9D0109DB7E706
:1049F0000E98401C0E90119E01E000201290059828
:104A00001599084304998842099989D00029089882
:104A100006D00129079803D00329069800D00398EF
:104A20000A99401840780B900027139C22E0C0465A
:104A300070F0000030080100F6250100E62B0100AF
:104A4000C0B20AF0FFF82448169C04600461E8B282
:104A50000AF0F8F8204804601298401C1290C0B286
:104A6000139C214609F0FAFC002932D07F1C082F44
:104A700000D15BE71598B8400B99084014990029BC
:104A80001CD0002814D030460E9932460B4607F051
:104A9000C7FC114C169D25610F98C0B20AF0D2F8E0
:104AA000256025611098C0B20AF0CCF82560139CEF
:104AB000761C1198301AA042D8D133E70649169ACD
:104AC0000A6100280C9800D00F980D9DB8D0109D59
:104AD000B6E70020129029E790320A40F0B589B07D
:104AE00001930292039107901148124D8122049282
:104AF000026001242C602C6402262E602C60A0270A
:104B000038460AF0FFF92846103504610097384608
:104B10000AF0F8F9074F3E610549049808603C60C7
:104B200008943C643E6107984006059505D503E06E
:104B30000480424090120A40FD4D089929602020CF
:104B400006900AF0DFF9FA4D2E60009F38460AF011
:104B5000D9F92E6138460AF0D5F9079880060598EC
:104B600000D5F3480899016006980AF0CBF9F04D9A
:104B70002E6038460AF0C6F92E6138460AF0C2F9AE
:104B80000798C006059800D5E9480899016006987D
:104B90000AF0B8F9E64D2E6038460AF0B3F92E61F6
:104BA00038460AF0AFF907980007059800D5FD4888
:104BB0000899016006980AF0A5F9FA4D2E6038466A
:104BC0000AF0A0F92E6138460AF09CF907984007D0
:104BD000059800D5F3480899016006980AF092F903
:104BE000F04D2E6038460AF08DF92E6138460AF0F5
:104BF00089F907988007059800D5EA480899016067
:104C000006980AF07FF9E74D2E6038460AF07AF9E7
:104C10002E6138460AF076F90798C00701D0E148BE
:104C200005900598089C046006980AF06BF9DD4D24
:104C30002E6038460AF066F92E6138460AF062F9AD
:104C40002C6106980AF05EF92E6038460AF05AF98F
:104C50002E6138460AF056F907F06AFAD049049AEC
:104C60000A602C602C642E6100282F4600D161E17F
:104C70000796039840B2394610310028384600D4D0
:104C80000846012606602020059006910AF03AF9B0
:104C9000079D3D60A02420460AF034F93D6120467E
:104CA0000AF030F903984006069800D538460660A9
:104CB00005980AF027F9079D3D6020460AF022F981
:104CC0003D6120460AF01EF903988006069800D53B
:104CD0003846066005980AF015F9079D3D602046A4
:104CE0000AF010F93D6120460AF00CF90398C0065D
:104CF000069800D53846066005980AF003F9079D26
:104D00003D6020460AF0FEF83D6120460AF0FAF8C0
:104D100003980007069800D53846066005980AF003
:104D2000F1F8079D3D6020460AF0ECF83D61204611
:104D30000AF0E8F803984007069800D53846066060
:104D400005980AF0DFF8079D3D6020460AF0DAF882
:104D50003D6120460AF0D6F803988007069800D5F2
:104D60003846066005980AF0CDF8079D3D6020465C
:104D70000AF0C8F83D6120460AF0C4F80398C0075D
:104D8000069800D03846066005980AF0BBF8079DE3
:104D90003D6020460AF0B6F83D6120460AF0B2F8C0
:104DA00007F0C6F9002800D1D0E00298002800D111
:104DB000ABE0002108967B4D01980591425678485A
:104DC000049901603E603E643E4610363846022734
:104DD00007610792002A00D430460899016020201C
:104DE00006900AF08FF82F60A02420460AF08AF877
:104DF0002F6120460AF086F807984006304600D515
:104E000028460899016006980AF07CF82F60204631
:104E10000AF078F82F6120460AF074F807988006A7
:104E2000304600D528460899016006980AF06AF8CD
:104E30002F6020460AF066F82F6120460AF062F8DB
:104E40000798C006304600D52846089901600698A4
:104E50000AF058F82F6020460AF054F82F612046D7
:104E60000AF050F807980007304600D52846089900
:104E7000016006980AF046F82F6020460AF042F8D2
:104E80002F6120460AF03EF807984007304600D5CB
:104E900028460899016006980AF034F82F602046E9
:104EA0000AF030F82F6120460AF02CF807988007A6
:104EB000304600D528460899016006980AF022F885
:104EC0002F6020460AF01EF82F6120460AF01AF8DB
:104ED0000798C00700D02E4608983060064606980E
:104EE0000AF010F82F6020460AF00CF82F612046D7
:104EF0000AF008F807F01CF9002839D00599491C78
:104F000002988842274F00D056E72548049901604F
:104F10003E603E64022038613E613860A024204635
:104F200009F0F0FF3E60204609F0ECFF002032E07F
:104F300090120A40089C3C613E60A026304609F071
:104F4000E1FF3C60304609F0DDFF25E0144804999C
:104F500001603E603E643D613E613D60A0242046AC
:104F600009F0D0FF3E60204609F0CCFF089513E021
:104F70000B48049901600B4D2E602E642F612E6149
:104F80002F60A024204609F0BDFF2E60204609F0C6
:104F9000B9FF0598C01C08900898C0B209B0F0BDD0
:104FA0000480424090120A40F0B58FB01C460D4676
:104FB0000A92521E5B1E0B9007F032FA0694A5422D
:104FC00000D300E1149C012004908603270A0B986B
:104FD000C0430A9908180790E84306990818032166
:104FE000019009F03BFA481C00210591032800D0EC
:104FF00005900D940E9700D1E2E00321079809F087
:105000002DFA481C0021039003280891029101D039
:1050100003980290ED4A08E0099DAD1C0899891C8F
:1050200005980891814200D1CAE009950A980B9928
:1050300081425BD2039803280B9927D0029F0B99DA
:105040000C9116610E98C4B2204609F0FBFDFA4897
:10505000066006610D98C5B2284609F0F3FDF64AD0
:105060001660012F10D01661204609F0EBFDF248C2
:1050700006600661284609F0E5FDEF4A16600C99C6
:10508000891CBF1EDCD101E00C99491C079802283D
:105090000E9B2BD30A98471A1661DCB2204609F002
:1050A000D1FDE548066006610D98C5B2284609F0B5
:1050B000C9FDE14806600661204609F0C3FDDE48EF
:1050C00006600661284609F0BDFDDB480660066102
:1050D000204609F0B7FDD84806600661284609F069
:1050E000B1FD0E9BD44A1660FF1ED5D108980499D5
:1050F00008430599884261D00A980B9981428BD266
:10510000039803280B9927D0029F0B990C911661E5
:105110000E98C4B2204609F095FDC74806600661A6
:105120000D98C5B2284609F08DFDC34A1660012FBF
:1051300010D01661204609F085FDBF480660066163
:10514000284609F07FFDBC4A16600C99891CBF1ED9
:10515000DCD101E00C99491C079802280E9B00D273
:105160005AE70A98471A1661DCB2204609F06AFD30
:10517000B148066006610D98C5B2284609F062FD87
:10518000AD4806600661204609F05CFDAA4806604D
:105190000661284609F056FDA748066006612046CC
:1051A00009F050FDA44806600661284609F04AFD52
:1051B0000E9BA14A1660FF1ED5D12DE7099D6D1CDF
:1051C0000198022801D20FB0F0BD0321079809F021
:1051D00045F9481C0328089000D100200590964A04
:1051E00004E0099DED1C06988542ECD009950A98CB
:1051F0000B998142F5D2089803280B9927D0059F77
:105200000B990C9116610E98C4B2204609F01AFD54
:105210008948066006610D98C5B2284609F012FD5E
:10522000854A1660012F10D01661204609F00AFD4C
:10523000814806600661284609F004FD7E4A166032
:105240000C99891CBF1EDCD101E00C99491C079800
:1052500002280E9B2BD30A98471A1661DCB220460F
:1052600009F0F0FC7448066006610D98C5B2284646
:1052700009F0E8FC704806600661204609F0E2FC8F
:105280006D4806600661284609F0DCFC6A48066045
:105290000661204609F0D6FC67480660066128468C
:1052A00009F0D0FC0E9B644A1660FF1ED5D10A9807
:1052B0000B99814295D2089803280B9927D0059F16
:1052C0000B990C9116610E98C4B2204609F0BAFCF5
:1052D0005948066006610D98C5B2284609F0B2FC2F
:1052E000554A1660012F10D01661204609F0AAFC1D
:1052F000514806600661284609F0A4FC4E4A166033
:105300000C99891CBF1EDCD101E00C99491C07983F
:1053100002280E9B2BD30A98471A1661DCB220464E
:1053200009F090FC4448066006610D98C5B2284615
:1053300009F088FC404806600661204609F082FCBE
:105340003D4806600661284609F07CFC3A48066044
:105350000661204609F076FC37480660066128465B
:1053600009F070FC0E9B344A1660FF1ED5D10A98D6
:105370000B99814200D334E7089803280B9929D070
:10538000059F0B990C9116610E98C4B2204609F046
:1053900059FC2948066006610D98C5B2284609F0F7
:1053A00051FC254A1660012F12D01661204609F0E3
:1053B00049FC214806600661284609F043FC1E4A64
:1053C00016600C99891CBF1EDCD103E090320A40A4
:1053D0000C99491C0798022800D202E70A98471A3C
:1053E00016610E98C4B2204609F02CFC12480660E3
:1053F00006610D98C5B2284609F024FC0E480660E7
:105400000661204609F01EFC0B480660066128462E
:1054100009F018FC084806600661204609F012FCF5
:10542000054806600661284609F00CFC024A166031
:10543000FF1ED5D1D5E6C04690320A40F0B595B0F2
:10544000012001030D91FD4E316147033761850352
:1054500035600424204609F055FD3760204609F0E8
:1054600051FDF748006837613561204609F04AFD73
:105470003760204609F046FDFD4800683761356118
:10548000204609F03FFD3760204609F03BFDF84813
:10549000006837613560204609F034FD37602046EA
:1054A00009F030FDF248006837613560204609F0A8
:1054B00029FD3760204609F025FDED480068376179
:1054C0003560204609F01EFD3760204609F01AFDC0
:1054D000E748006837613560204609F013FD376002
:1054E000204609F00FFDE24800683761356020462C
:1054F00009F008FD3760204609F004FDDC4800682B
:10550000376137613560204609F0FCFC3760204682
:1055100009F0F8FCD64800680C90376135602046E9
:1055200009F0F0FC3760204609F0ECFCD048006838
:105530000B9037613560204609F0E4FC3760204667
:1055400009F0E0FCCA4800680A90376135602046DF
:1055500009F0D8FC3760204609F0D4FCC448006844
:10556000099037613560204609F0CCFC3760204651
:1055700009F0C8FCBE4800680590376135602046D8
:1055800009F0C0FC3760204609F0BCFCB848006850
:10559000049037613560204609F0B4FC376020463E
:1055A00009F0B0FCB24800680190376135602046D0
:1055B00009F0A8FC3760204609F0A4FCAC4800685C
:1055C0000290376137613560204609F09BFC3760F7
:1055D000204609F097FCA64800680E9037613560B8
:1055E000204609F08FFC3760204609F08BFCA0486C
:1055F00000680F9037613560204609F083FC376002
:10560000204609F07FFC9A480068119037613560A8
:10561000204609F077FC3760204609F073FC944877
:105620000068129037613560204609F06BFC3760E6
:10563000204609F067FC8E4800681390376135609A
:10564000204609F05FFC3760204609F05BFC884883
:1056500000680690376135601095204609F052FCCD
:105660003760204609F04EFC81480068149037618D
:105670003560204609F046FC3760204609F042FCC0
:105680007B48006837610004C00F08901498800BB5
:1056900002211491084007900698400B2040069084
:1056A0001398000B08211391084003901299C90A1E
:1056B000102212921140119A920A202311931A403B
:1056C0000F9B5B0A40250F952B400E9D2D0A8020D5
:1056D0000E9005405B19D218891803984018039062
:1056E00002980004C00F02900198810B14980140A9
:1056F00001910498400B204004900598000B1399E9
:10570000084005900999C90A129A11400A9A920A0A
:10571000119B1A400B9B5B0A0F9D2B400C9D2D0A81
:105720000E9805405B19D2188918059840180C90FE
:105730003761109D3560204609F0E4FB3760204654
:1057400009F0E0FB4A480068010A0E9801400E91FA
:1057500037613560204609F0D5FB3760204609F0F7
:10576000D1FB43480068400A0F9908400E99401841
:105770000F9037613560204609F0C4FB3760204642
:1057800009F0C0FB3A480068800A119908400F9957
:105790004018119037613560204609F0B3FB37603F
:1057A000204609F0AFFB32480068C00A1299084051
:1057B00011994018129037613560204609F0A2FB1C
:1057C0003760204609F09EFB29480068000B1399BA
:1057D000084012994018139037613560204609F04F
:1057E00091FB3760204609F08DFB21480068400B93
:1057F0002040129037613560204609F083FB376006
:10580000204609F07FFB1A480068850B1498054074
:10581000376110983060204609F074FB37602046ED
:1058200009F070FB124800680004C10F04980C9A3C
:105830008018019A1018029A104303E090120A404F
:1058400080130A400004069A039BD218079B9A18FB
:10585000089B1A431202024337611398129B1818CF
:105860002818084310430D99316015B0F0BDC046AB
:1058700080130A40F0B58BB003460124EB48016861
:1058800022040A40554255410295090C02680394CE
:10589000650415406C426C410668E54A107808437F
:1058A000C00728D1E3480078032819D0012807D081
:1058B000002820D1E2480178002915D1022116E004
:1058C000019303F001FDDA4A019B002813D0DB4964
:1058D0000A78002A00D01046401E0870D44A07E01B
:1058E000D5480178002901D0491E00E0052101704A
:1058F000D4480021017003994805D34F002D00D1F1
:1059000039780640080623D1CA480078002811D00B
:1059100003280BD001281BD1019303F0D5FCC44A06
:10592000019B002814D00146C44D06E001930621D6
:10593000C14D02E001930321C14D2878401C08F0BD
:105940008DFD2970BF4800210170019BB84ABE4FF0
:1059500071427141029810703C70BC4802784A4014
:10596000D10709D0002E03990DD10170B84800214C
:105970000170B848036039E0B548002E10D0039993
:10598000C90710D032E0B249097800292CD1A949C1
:105990000A78002A23D0042A1FD1B64A12781DE0C3
:1059A0000178C90722D1AB490968591A490919294F
:1059B0001CD3039901709F4C2078032843D0012801
:1059C0002BD0002814D19E480078012800D1D0E0C7
:1059D000002800D0D3E00120D2E000220A709F49C5
:1059E00000220A7097490A700021017091480078DE
:1059F00002280AD1A0480168591A89087D2904D3D0
:105A0000036090480021017003E08E480078002870
:105A100001D1FBF707FE0BB0F0BD1D4687480078AB
:105A200004A905F0DDFE002800D18CE004A8007870
:105A300007F08CF9002800D185E08E4803990170A9
:105A4000042020708EE07C480078C00082490D1848
:105A500069680A7804A80270002A00D185E04A78B3
:105A600004A842701E46002A00D18FE08A7804A85C
:105A70008270002A00D18CE0CA7804A8C270002A83
:105A800000D189E00A7904A80271002A00D186E0D9
:105A90004A7904A84271002A00D183E08A7904A8D7
:105AA0008271002A00D180E0CA7904A8C271002A5C
:105AB0007ED00A7A04A80272002A7CD04A7A04A80E
:105AC0004272002A7AD08A7A04A88272002A78D098
:105AD000CA7A04A8C272002A76D00A7B04A802738C
