:100000000080202051EA000017A1000017A1000085
:1000100000000000000000000000000000000000E0
:1000200000000000000000000000000017A1000018
:10003000000000000000000017A10000C5BA000089
:1000400017A1000027E9000017A1000017A1000078
:1000500017A1000017A1000017A1000017A10000C0
:100060000000000017A1000017A100000000000020
:100070000000000079E9000081E9000071E900005A
:1000800017A1000017A1000017A1000017A1000090
:1000900017A1000017A100000000000000000000F0
:1000A00017A1000017A100000000000000000000E0
:1000B00017A100000000000017A1000017A1000018
:1000C000F0B5F3B007930592799A0E92789E0025C9
:1000D000EF437090139112950878A84C201843783C
:1000E000D80628D513984A1CDB0606D5481C11787B
:1000F00061184B78521C0146F6E7139070A8B04780
:100100000446401C01D100F0FAFD0EF01CFC9B4897
:1001100000194078C00603D570A8B0470446F4E73C
:1001200070A80EF078FC1298401E1290601C934C40
:1001300001D100F0E4FD01200A9054A801466C3181
:100140000C9101460C3103910D30009014A8401C15
:1001500001900B950D971196029554A870210EF001
:100160008CFA559770A813A912AA079B98470128E3
:10017000109522D0002801D100F0A7FD401C029B61
:1001800001D100F0A4FD0F93274670A8B0470EF0F0
:10019000B6FB38194078C006F7D4374670A80EF081
:1001A0003AFC1298411E1291601C39D10029109D11
:1001B0000F9A01D100F087FDB1E01398471C139707
:1001C000417800262A2935460BD101255495871CF4
:1001D000139706E0B819401C1390B85D71A98855B3
:1001E000761CBC5D204630380928F3D971A800215F
:1001F0000F9181550078002803D071A80DF04AFEB8
:1002000055904C2C2FD0682C20D06A2C0BD06C2C05
:1002100010D0742C0AD07A2C16D10120000307E0EC
:10022000109D0F9A7BE00120C00201E001204003F5
:100230002D1819E0B919481C13904A786C2A4F4CB4
:1002400018D1012000020AE0B81910E0B919481CC1
:1002500013904A78682A494C0ED1012040022D188B
:100260005495881C0AE080355495B819401C119E9D
:10027000424C04E0403500E020355495119E411C6D
:10028000139103780C9A13705B2B28D10A785E2A9D
:1002900005D102210D435495811C139182785D2A6A
:1002A00006D1481C1390097854AA1173009901E0F3
:1002B000084603990F9D0278002A09D05D2A07D0CD
:1002C000421C139200784B1C087010461946F2E746
:1002D0000D705D2A01D1401C13900C9803781846CC
:1002E0005B38132800D94EE70121814024480142A0
:1002F00000D148E731461E4670AC20460F4688477D
:10030000054620460EF084FB1299681C05D1002991
:10031000109D324603D100F0D6FC109D3246099163
:100320001046583820284CD83E460D9F4000C04605
:1003300078448088400087445301260326031C012B
:100340002603260326032603260351002603CE0098
:1003500025005100510051002603250026032603E5
:100360002603260329032500250026032603CE00A5
:1003700026032500260326032500C046702301001E
:10038000010108001746559C70A8B04721460EF0A1
:10039000B6FA14AD002934D014AD2D2C02D02B2C7C
:1003A00000D0B2E014A8047070A80C46B0472146F3
:1003B0000EF0A5FA491EF64A00D1D3E00891019D3E
:1003C000A5E01046413806283E460D9F00D990E032
:1003D000012181407120014200D18AE0559D70A821
:1003E000B047044614AB401C09D00EF0ACFA2B2CDD
:1003F00009D114AB002D0BD12B24002513E03C4672
:1004000011E00027B0E014AB002D0CD02D2C0AD148
:1004100014A8047070A8B0470446401C01D00EF028
:1004200092FA6D1E019B204661381A2801D320469E
:1004300001E0204620384928E24F109703D04E288B
:100440002AD1E14F10970026B5421BD01098805D4D
:10045000002816D0214661391A2901D3214601E02E
:100460002146203981420CD11F469C5570A8119914
:1004700088470446401C01D00EF065FA761C3B46C6
:10048000E2E73546E81E41424141083D6842684185
:10049000084310909D1964E20022002D5CD0302C9E
:1004A0005AD10F9230201F46187070A8B0470446EA
:1004B000401C01D00EF047FA7B1C681E002201216F
:1004C0001091002800D1AAE1214661391A2900D2F1
:1004D000A8E12146A8E1549901250846284049068B
:1004E000174676D4002800D00EE1059810C8059074
:1004F0000BE1252A00D046E270A8B047252801D09C
:1005000000F000FC0EF01FFA40E20891AC4A002017
:100510003B46115C8B4204D0401C0728F9D10020D7
:1005200000E01018801A012813D1302C5CD10F95EF
:1005300070A81090B047054610980EF069FA202078
:100540008543583D109501D0082010903B460F9DE3
:100550004CE09E49085C48E01946109204920A98C3
:1005600008907CE10027019D3A4638460A990F9190
:1005700062E0559F5498022101400F9114AC002F66
:1005800000D148E170A8B0470546401C089000D152
:10059000B1E010942C46E8B2002303990E7886420D
:1005A0000A4600D01A46491C002E1346F6D10F9B6E
:1005B00059425941531E9A419142119E2546109C21
:1005C00000D098E0611C20700EF0BDF97F1E0C4633
:1005D000D5E7002800D09DE0059810C805909AE066
:1005E00078220C980270CDE60A20109018466938DF
:1005F000C0B2102801D3002100E00121EA4FC7401A
:100600000F406F2B06D1302C0AD000200A990F9191
:10061000089A11E020463038414241410F42F4D05F
:1006200028466D1C047070A8B0470EF068F9089A4F
:10063000521E00200F900A98002F24D0002A22D0AA
:10064000002820D020202146814358291BD1089220
:1006500070AF3846B047014638460F460E9A90476D
:10066000E148C0194078800701D4089A0BE02C704B
:1006700070A8B0470EF043F9089A521E00D138E333
:100680006D1C102010900A9F002A23D01098082873
:1006900004D107202146814330290ED010980A2822
:1006A00003D1204630380A2807D31098102811D1DA
:1006B000CD480019407880070CD56E1C2C7070A8AE
:1006C00011991446884722460EF019F9521E002748
:1006D0003546D9E770A80EF09EF91298401E129088
:1006E0000020287005460F98384001280D9F119E64
:1006F00000D04BE1F5E270A80EF08AF91298099942
:10070000814200D087E004E300245598002841D4BA
:10071000054640E000245598002800D40546632A89
:1007200000D0054670A8B04701460EF00CF9632FC3
:1007300005D1481E0222D24390420FD917E0481C2F
:10074000022801D3002000E00120A74A5218527865
:10075000D2060A9A00D40246002A08D1002D06D0FB
:10076000002C01D002C400E000246D1EDAE770A85E
:100770000E9A90471298401E12900999814200D11A
:10078000B7E2732F49D1002C47D00020206044E00D
:10079000B12501000125632A00D0054670A8B047A5
:1007A00001460EF0D0F8632F05D1481E0222D24335
:1007B000904217D921E0481C022809D3002008E004
:1007C000B1250100033201004E330100EC3201007B
:1007D0000120854A52185278D2060A9A00D402465D
:1007E000002A0AD1002D08D0002C03D0601C2170F3
:1007F000044600E000246D1ED0E770A80E9A9047D2
:100800001298401E12900999814200D171E2732F13
:1008100003D1002C01D0002020700D9FB6E004927F
:10082000154618E021462039582912D17C7070A84D
:10083000119988470446401C01D00EF084F8BA1C78
:10084000AD1E00200A9904911146109008900F9A4D
:1008500005E0049205460A9808900F9A19460692F8
:1008600016460F95002D0D466ED02B2C39D02D2C11
:1008700037D02E2C2FD0452C01D0652C0BD10898C9
:10088000002846D0109800285ED0002A5CD10120B4
:10089000074610904AE020463A380A21C943884268
:1008A00029460CD8049800284ED04F4800194078AB
:1008B000800704D4202020437028E3D044E02B2C70
:1008C0000FD02D2C0DD0702CDCD0502CDAD0652C14
:1008D000D5D02E2C1DD10698104335D1012006907D
:1008E00023E00898002808D0481E00782021014302
:1008F0006529294601D1174618E00498002823D01D
:10090000481E00782021014370291DD11746294631
:100910000CE0002A07D0204630380122092813D8DD
:100920001746164602E00120109000270C7070A8B0
:10093000119988470446401C01D00EF004F8691C48
:100940000F9D6D1E3A468CE71099481E814110910B
:10095000701E8641002A0A9800D030461099014046
:1009600010910D9F70A80EF056F8601C02D01299DD
:10097000491E129100212970129A099B9342119EDF
:10098000109D00D1A8E1012D00D0B3E10C980178B1
:10099000012508465B381D283ED804A2124C4000B1
:1009A000105A40008744C046818000002400220085
:1009B00022002200220022004600220057014600A9
:1009C0004600460046002200460022002200220087
:1009D0002200A30046004600220022005701220008
:1009E000460022002200460070230100FFF7B5FBFD
:1009F0005499C80701D0FFF7B0FB05980068490675
:100A000000D5C8E014A94A1C0978431C01700029CC
:100A100018461146F7D1C7E0084641380628BF4CB2
:100A200001D9FFF79AFB012282407120024201D1D5
:100A3000FFF793FB14A80078002800D10BE154982D
:100A4000C20700D007E10B46613B172B3AD80022C2
:100A50009B0002A4E358B14C9F46C046D90A00004F
:100A6000570C0000570C00006B0B0000D90A000067
:100A7000D90A0000D90A0000570C00006D0B0000D5
:100A8000570C0000570C0000570C0000570C0000DA
:100A9000570C0000BD0A00008F0B0000570C00002F
:100AA000570C0000570C0000570C0000BD0A000056
:100AB000570C0000570C0000BD0A000078293FD0F9
:100AC00008223EE04139062900D9C4E001228A40CB
:100AD00071210A4200D1BEE0C021084080281ED00A
:100AE000402826D114A8002105F096FA1BE054985E
:100AF000C10701D0FFF731FB89490840411E02467A
:100B00004A408A4200D894E0002800D183E0414264
:100B1000014084484143C80E83A1085C7CE014A8CE
:100B2000002105F079FA059B04CB05931060516014
:100B300091E014A8002105F06FFA0CF0F1FB87E0BA
:100B40001022752900D10A2275490840411E03462A
:100B50004B408B4242D900282ED04142014071487F
:100B60004143C80E70A1085C27E00A226C49084086
:100B7000411E03464B408B4248D9002833D04142A6
:100B8000014068484143C80E67A1085C2CE014A8E6
:100B90000021102224E014A90A78002A02D0491C5E
:100BA00004C0F9E7002101600598001D05900B982D
:100BB000401C0B90FFF7D1FA2020401F08280DD8C9
:100BC0007844007940008744580909045D09043AD3
:100BD0003A0014A8002109F017FCA4E714A800218A
:100BE0000AF0F4F934E02020401F08280ED8C0464F
:100BF00078440079400087444A09090452090427CF
:100C0000270014A8002108F0B7F98CE714A80021E8
:100C10000AF004F81CE02020401F082809D8C0462C
:100C200078440079400087444204041F48041F04AC
:100C3000040012980DF098FE0860FFF78EFA14A8D1
:100C4000002109F0E1FB03E014A8002108F094F969
:100C50000DF08AFE086054980125294681430B98BF
:100C600008180B90FFF779FA1298C117059B04CB6F
:100C7000059310605160FFF770FA14A800210AF084
:100C8000A5F908E014A800210AF0A0F90BE014A8C7
:100C9000002109F0C3FF0DF067FE0880DBE714A810
:100CA000002109F0BBFF0DF05FFE0870D3E712983A
:100CB0000DF05AFE0880FFF750FA12980DF054FE1E
:100CC0000870FFF74AFA0D9F19E00B9F17E00B9889
:100CD000002814D0074612E0002800D121460D4616
:100CE00008E0129809994140E043084302D1ED43DE
:100CF00000E00D9D0B98002800D005462F46384691
:100D000073B0F0BD054670A80DF082FE681CF1D0EE
:100D100002E008980028EDD00025EBE770230100E1
:100D2000603F000031B57C0700011C021D0E180356
:100D30001E16140F191104081F1B0D171513100789
:100D40001A0C12060B050A09F0B5C9B005460120B8
:100D50001590FE4928460BF0FBFF002840D0FE49C5
:100D600028460BF0F5FF002845D0FC4928460BF03B
:100D7000EFFF00285BD0FA4928460BF0E9FF002876
:100D800000D19DE00020F74903E0C01C012A00D1FA
:100D9000C2E02A5C0B5C9A4200D097E0002A00D1A6
:100DA000BAE02A180B1856785C78A64200D08DE07D
:100DB0000446093C67426741002E159E00D03E461E
:100DC000002E00D0A8E092789B789A427ED104460B
:100DD000083C63426341002A159AD6D01A46D4E7EC
:100DE00004F0FEFC0346E04A1AAD302128460CF020
:100DF000E9FF284658E304F0F3FC05460DF07CFBC0
:100E0000002800D1A9E009F087F9002800D14DE3BE
:100E1000D64ED74FD74CD8480CF0F8FE3AA8183029
:100E20001390E51C344600201490602630E204F054
:100E3000D7FC05460DF060FB002800D18DE009F0DD
:100E40006BF9002800D131E3C84CCA48C51C002604
:100E50006027149602E07F1E00D10AE23C353AA9D1
:100E60003C22284607F066FB002800D11BE33AA885
:100E70000178A529EFD180790128ECD13AA84088E2
:100E80000028E8D03AA98A88002AE4D03C9BB849D7
:100E90005918A142DFD33D99424350008142DAD133
:100EA00058181430B34A9042D5D2012000030818D4
:100EB0001330B249084086191498401C1490CAE7B0
:100EC000AF480078012837D1AE48EDE20020AE49A6
:100ED00003E0C01C012A00D186E12A5C0B5C9A4227
:100EE00000D035E1002A00D17EE12A180B1856788F
:100EF0005C78A64200D02BE1002E00D174E19278FC
:100F00009B789A4200D023E1841F63426341002A08
:100F1000159ADED01A46DCE70B359C493AAA2846DA
:100F20000DF0E0F9012800D06CE13A98FE2800D9D4
:100F300068E109F01DFBB9E204F052FC05460DF032
:100F4000DBFA002809D009F0E7F8002800D1ADE26B
:100F50008848C61C002760200CE08D4A1AAE40214C
:100F600030462B460CF02EFF30469DE21498001FB1
:100F700000D121E3149030463C303AA93C252A4662
:100F800007F0D8FA002800D18DE23AA80178A52907
:100F900029D18079012826D13AA84088002822D07A
:100FA0003AA9898800291ED03C9A714BD3186F4CFE
:100FB000A34218D33D9B41434800834213D1D0182C
:100FC00014306C4988420ED238467F1CC0B245436B
:100FD000704844193AA92CC92CC42DC92DC42DC957
:100FE0002DC42DC92DC4304678303AA93C252A4657
:100FF00007F0A0FA002800D155E23AA80178A52907
:101000002AD18079012827D13AA84088002823D006
:101010003AA9898800291FD03C9A554BD318534CC4
:10102000A34219D33D9B41434800834214D1D018B9
:101030001430504988420FD2781C1390F8B24543BF
:10104000544840193AA92CC92CC0ACC9ACC0ACC991
:10105000ACC0ACC9ACC0139F3046B4303AA93C25F3
:101060002A4607F067FA002800D11CE23AA8017866
:10107000A52929D18079012826D13AA840880028BD
:1010800022D03AA9898800291ED03C9A384BD3181F
:10109000364CA34218D33D9B41434800834213D1B1
:1010A000D0181430334988420ED238467F1CC0B263
:1010B0004543384844193AA92CC92CC42DC92DC41C
:1010C0002DC92DC42DC92DC4F0363AA93C22304675
:1010D0000D9207F02FFA002800D1E4E13AA8017838
:1010E000A52900D042E78079012800D03EE73AA840
:1010F0004088002800D139E73AA98988002900D121
:1011000034E73C9A1A4BD318184CA34200D22DE76F
:101110003D9B41434800834200D027E7D01814305C
:101120001449884200D321E77C1CF8B20D9948434A
:10113000184908183AA92CC92CC0ACC9ACC0ACC914
:10114000ACC0ACC9ACC0274610E7C0466C32010049
:101150000020114925E0C046FA3101001532010096
:1011600024310100C4300100A22D0100001081FFD4
:10117000000081FF01007F00082E010000F0FFFF4A
:10118000DD332020642F0100D23101005D330100E6
:101190008D2A010000002020552F0100C01C012ACB
:1011A00058D02A5C0B5C9A422ED1002A52D02A18C1
:1011B0000B1856785C78A64226D104460C3C674250
:1011C0006741002E159E00D03E46002E42D19278F7
:1011D0009B789A4218D104460B3C63426341002A33
:1011E000159ADBD01A46D9E70935FC493AAA2846B0
:1011F0000DF078F801283AD13A98FE2837D80AF04D
:10120000ADFF53E1F6484FE10020F64903E0C01C72
:10121000012A00D184E12A5C0B5C9A4200D04EE1A5
:10122000002A00D17CE12A180B1856785C78A64277
:1012300000D044E1002E00D172E192789B789A426E
:1012400000D03CE1841F63426341002A159ADED03E
:101250001A46DCE70E35E1493AAA28460DF042F875
:10126000012804D13AA800780DF06AF81EE1DE48A2
:101270001AE1DE4B981B1499C9B2009601900291B5
:10128000DB4A1AAD6021B1E5DA4F361F00D110E11B
:1012900028463C303AA93C2207F04CF9002800D1FE
:1012A00001E13AA80178A52934D18079012831D10A
:1012B0003AA8408800282DD03AA98988002929D049
:1012C0003C9AD319A34225D33D9F0B4643435B0071
:1012D0009F421ED1D3191433C74CA34216D23AAB46
:1012E0005B7812933E9B139C009401AC83C40493DF
:1012F00005921AAF80213846C04A129B0CF062FD5D
:1013000038460CF083FC1498401C1490B94FBC4C28
:1013100000E0B84F284678303AA93C2207F00AF995
:10132000002800D1BFE03AA80178A52934D18079FE
:10133000012831D13AA8408800282DD03AA98988BF
:10134000002929D03C9AD319A34225D33D9F0B46AF
:1013500043435B009F421ED1D3191433A64CA342D2
:1013600016D23AAB5B7812933E9B139C009401AC6F
:1013700083C4049305921AAF802138469F4A129B7A
:101380000CF020FD38460CF041FC1498401C1490E1
:10139000984F9B4C00E0974F2846B4303AA93C2226
:1013A00007F0C8F800287ED03AA80178A52934D1E2
:1013B0008079012831D13AA8408800282DD03AA957
:1013C0008988002929D03C9AD319A34225D33D9F6F
:1013D0000B4643435B009F421ED1D3191433864C06
:1013E000A34216D23AAB5B7812933E9B139C0094B7
:1013F00001AC83C4049305921AAF802138467F4A1A
:10140000129B0CF0DFFC38460CF000FC1498401CDA
:101410001490784F7A4C00E0764FF0353AA93C2290
:10142000284607F087F800283DD03AA80178A5297A
:1014300000D02AE78079012800D026E73AA8408822
:10144000002800D121E73AA98988002900D11CE7AA
:101450003C9AD319A34200D217E73D9F0B46434362
:101460005B009F4200D00FE7D3191433624CA342B4
:1014700016D23AAB5B7812933E9B139C009401AC5E
:1014800083C4049305921AAF802138465B4A129BAD
:101490000CF098FC38460CF0B9FB1498401C1490E2
:1014A000544F574CF1E657480CF0B0FB159849B033
:1014B000F0BD1498C3B2544A1AAD802196E40022BC
:1014C0005249149202E0D21C012B46D0AB5C885CDE
:1014D00083423FD11046093846424641002B1598B9
:1014E00000D03046002838D1AB188E185F7870785D
:1014F00087422FD11446083C60426041002F159F5F
:1015000000D00746002F28D19B78B078834221D1A4
:10151000D41F60426041002B159BD4D00346D2E714
:10152000093516A8029017A8019018A8009038490C
:101530001AAA19AB28460CF0D5FE052826D119A801
:10154000028818A803881798169900900191FF2027
:101550001AA92EE014981590A8E70A3516A802904B
:1015600017A8019018A80090FB493AAA19AB284681
:101570000CF0B8FE3A9BFE2B01D8002100E00121BF
:101580000528159800D10846012801D1F4488BE7B9
:10159000F24A1AAD102128460CF014FC3AA8007843
:1015A00019A90A8818A90B881799169C009101940B
:1015B000294602F087FE79E701200E90000307908C
:1015C000380600D1AEE1F9B21197B81E089000229A
:1015D000E5480C9010460A9127E0C0465D330100B3
:1015E000F72D010078310100282F010000F07E0066
:1015F00058290100000081FF01007F0058280100E8
:10160000001081FF3B2C0100442B01002F31010011
:10161000B52C01000E98401C0E900C983C300C909C
:101620000A990B98884200D106E1421C0B928A422B
:10163000F0D20899091A0D9A5043CB4A1618CAB22B
:10164000AB2009925043400A03224243881A401CAF
:10165000C1B200220F92032900D00F900E9A149667
:1016600064D000240C9F0E9A04E0921CA41CE0B2EB
:10167000A8425BD07B6CB568AB421292109423D227
:101680003D463C351AAE33461397149F15CF15C30C
:1016900017CF17C317CF17C317CF17C314982946EF
:1016A0001CC91CC09CC99CC09CC99CC09CC99CC036
:1016B000139F109C07CE07C50FCE0FC50FCE0FC5C9
:1016C0000FCE0FC5129A149E01202043C0B20F996D
:1016D000CDB2A84229D0802038587837B1688842E6
:1016E000C3D21AAB1846314654C954C01397D4C953
:1016F000D4C0D4C9D4C0D4C9D4C01498139954C97F
:1017000054C0D4C9D4C0D4C9D4C0D4C9D4C0139F80
:10171000384616CB16C056CB56C056CB56C056CB05
:1017200056C0109C129A149E9FE7521C09980228DA
:1017300000D26FE70D9850438B490F18D01C08E07A
:10174000B437D0B21199C9B2D21C8142104600D12F
:1017500060E71290B868B268904213971ED21AA838
:1017600032460346B0CAB0C3B2CAB2C3B2CAB2C3E9
:10177000B2CAB2C33146139A38CA38C1B8CAB8C15E
:10178000B8CAB8C1B8CAB8C1139F39461CC81CC171
:101790003CC83CC13CC83CC13CC83CC1786CB16849
:1017A000884220D238463C301AAA11463346B0CB84
:1017B000B0C1F0CBF0C1F0CBF0C1F0CBF0C11499C7
:1017C000034670CB70C1F0CBF0C1F0CBF0C1F0CBD1
:1017D000F0C1139F149E1ACA1AC03ACA3AC03ACA34
:1017E0003AC03ACA3AC080203858B1688842129A42
:1017F000A6D2384678301AAA3146134670C970C34B
:10180000F0C9F0C3F0C9F0C3F0C9F0C3149903469E
:1018100070CB70C1F0CBF0C1F0CBF0C1F0CBF0C118
:10182000139F149E1ACA1AC03ACA3AC03ACA3AC09A
:101830003ACA3AC0129A83E74C4D4D480CF0E6F98B
:101840000021494A0B46079E0D985843101884689A
:10185000C7681494A64253D0109013930F91129717
:101860003C46143444D03F48401EA519854257D801
:10187000002E55D00799149A8A4251D314996118B1
:1018800081424DD8AE4237461AD2384607F03AFE6A
:10189000002845D007983F18AF4211D2384607F0CC
:1018A00031FE00283CD007983F18AF4208D2384696
:1018B00007F028FE002833D007983F18AF42E4D342
:1018C0000025671BFF2F01D9012007021498281853
:1018D00028493A4606F02EFE002821D0A8192549AD
:1018E0003A4604F031FF00281AD07D19A542E8D30A
:1018F000109886600F99491C1C4D1B4A139B129F20
:101900000798C0191330284086191648401E864291
:101910001FD85B1C0A98834296D1CDB2079607E088
:101920001548C1E5119712480CF070F900250A9589
:101930001198C0B207F030FA002808D00A98009039
:10194000079801900F4A1AAE6021FFF709FB0C4877
:10195000AAE50A48A8E5C046912D0100D73201004A
:10196000732F010001007F000000202000F0FFFF26
:10197000B72B0100002D2020F92B01005C2B01006A
:101980004C2E0100B5290100F0B5CFB00248007817
:10199000012803D000F068FDCD33202002480078F4
:1019A000C00703D100F060FDF03320204CA80BF0FD
:1019B0000FFB002801D100F057FD01201B904C982F
:1019C000FB4C099021460BF0F3F806464D980A901F
:1019D00021460BF0EDF805464E98F6490B900BF0BA
:1019E000E7F80446304607F0A1FC1390304607F0B4
:1019F00071FE1290284607F099FC1590284607F0D2
:101A000069FE1490204607F091FC0546204607F039
:101A100061FE07461090002428460D95214609F0E6
:101A2000EAFF0646384621460BF0C2F8314609F077
:101A3000E2FF1690139821460BF0BAF806460E9076
:101A4000284621460BF0B4F81190314609F0D3FF37
:101A50000746109E3046129D29460BF0A9F83946DC
:101A600009F0C9FF1A901B98C707284639460BF0A2
:101A70009FF801460890119809F0BDFF1990304673
:101A8000139D29460BF094F8199909F0B4FF1990A9
:101A90002846214609F0AFFF0646129D28462146FA
:101AA0000C940BF085F8314609F0A5FF17902046FD
:101AB000294609F09BFF01460E9E304609F09BFF28
:101AC00018902046109C214609F090FF014611987D
:101AD00009F091FF0F90204639460BF069F8054652
:101AE000314609F088FF06460D9C204612990BF0FE
:101AF0005FF8314609F07FFF0E902846089909F0FB
:101B00007AFF0546204613990BF052F8294609F052
:101B100072FF1090149E304639460BF049F8054686
:101B2000159816990BF044F8294609F064FF05460C
:101B30000F980C9C21460BF03BF80D90294609F0BC
:101B40005AFF1390179831460BF032F80546159E50
:101B500030461A990BF02CF8294609F047FF054644
:101B60000E9821460BF024F80890294609F043FF0F
:101B70001290189814990BF01BF8054630461999E5
:101B80000BF016F8294609F031FF06461098214659
:101B90000BF00EF80790314609F02DFF1190159DBE
:101BA000284621460BF004F80646149C2046169958
:101BB0000AF0FEFF314609F01EFF01460D9809F0BC
:101BC0001AFF0D90284617990AF0F2FF06462046A4
:101BD0001A990AF0EDFF314609F00DFF0146089809
:101BE00009F009FF0890284618990AF0E1FF064617
:101BF000204619990AF0DCFF314609F0FCFE014647
:101C0000079809F0F8FE159016980C9C21460AF0EA
:101C1000CFFF214609F0EFFE01460F9809F0EBFED9
:101C200006461490179821460AF0C2FF05461A98F6
:101C300021460AF0BDFF294609F0DDFE01460E9857
:101C400009F0D9FE1790189821460AF0B1FF054611
:101C5000199821460AF0ACFF294609F0CCFE01464E
:101C6000109809F0C8FE16900D9821460AF0A0FFC2
:101C700005460F90139821460AF09AFF10902946C6
:101C800009F0B9FE0146304609F0B5FE1A90089EEB
:101C9000304621460AF08CFF05460E9012982146E8
:101CA0000AF086FF0690294609F0A5FE014617981E
:101CB00009F0A1FE1890159821460AF079FF054613
:101CC0000790119821460AF073FF0590294609F004
:101CD00092FE0146169809F08EFE199010980D9903
:101CE00009F089FE0546149821460AF061FF0D901F
:101CF000294609F080FE14900698314609F07BFED3
:101D00000646179821460AF053FF1790314609F00E
:101D100072FE10900598159909F06DFE054616980B
:101D200021460AF045FF0646294609F064FE159053
:101D30000F98139909F05AFE01460D9809F05BFEC1
:101D400004460E98129909F051FE0146179809F0C1
:101D500052FE05460798119909F048FE01463046A3
:101D600009F049FE024614480178012911920F95A5
:101D700036D1124800680E9011480068169011483C
:101D800000680890104800680D90104801681048DD
:101D9000006807900F48006812900F48006817907D
:101DA0000E4800680C9026462846154644E0C0467A
:101DB00035FA8EBC35FA8E3CBE332020943220207A
:101DC000A0322020AC32202098322020A4322020C3
:101DD000B03220209C322020A8322020B432202093
:101DE00065491A9808606549189808606449199B04
:101DF0000B6064491498086063492646109C0C6087
:101E00006249159A0A6062490E6062490D60624932
:101E1000119808601B99614D29700C900546179226
:101E200012930F9A0792214618980D9008961498CD
:101E300016901A980E90104605910AF0B9FE0446C5
:101E40000696304616990AF0B3FE214609F0D3FDF6
:101E50000446284617990AF0ABFE214609F0CBFD4F
:101E600005464F4C21460BF0B2FD13907F20C6056E
:101E7000284631460BF0C6FD002800D12E461398A7
:101E8000002800D13446204608F024FC139007F0C7
:101E90004DFAB84343490BF0B5FD002800D185E069
:101EA0000F9D284607990AF083FE0446069E304699
:101EB00008990AF07DFE214609F09DFD0446119F18
:101EC00038460C990AF074FE214609F094FD0C90F6
:101ED00028460D990AF06CFE044630460E990AF029
:101EE00067FE214609F087FD0446384612990AF03C
:101EF0005FFE214609F07FFD12901098059F39463C
:101F00000AF056FE05461498169C21460AF050FE2B
:101F1000294609F070FD05461598179E31460AF0CE
:101F200047FE294609F067FD0546189839460AF02C
:101F30003FFE07461A9821460AF03AFE394609F054
:101F40005AFD0746199831460AF032FE394609F023
:101F500052FD07461B98C607129870400C9909F06D
:101F6000E7F91A9077403846294609F0E1F90E4919
:101F70000AF01EFE074649E09432202098322020C5
:101F80009C322020A0322020A4322020A832202001
:101F9000AC322020B0322020B4322020BE332020AA
:101FA000000080BF17B7D138E02E65C2189D2846C3
:101FB00007990AF0FDFD04461A9E304608990AF07A
:101FC000F7FD214609F017FD044619980C990AF00F
:101FD000EFFD214609F00FFD044628460D990AF051
:101FE000E7FD054630460E990AF0E2FD294609F064
:101FF00002FD0546199812990AF0DAFD294609F002
:10200000FAFC0146204609F093F91A90C949139841
:102010000AF0CEFD0446C8490BF0F4FC00281FD09E
:10202000C64DC54E2046294609F0E5FC044631461A
:102030000BF0E8FC002813D02046294609F0DBFC11
:10204000044631460BF0DEFC002809D02046294624
:1020500009F0D1FC044631460BF0D4FC0028E1D154
:10206000B74920460BF0B3FC00281FD0B54DB44E45
:102070002046294609F0BFFC044631460BF0A7FC78
:10208000002813D02046294609F0B5FC0446314605
:102090000BF09DFC002809D02046294609F0ABFC36
:1020A000044631460BF093FC0028E1D1EF49384655
:1020B0000BF0A8FC00281FD0ED4DEC4E3846294609
:1020C00009F099FC074631460BF09CFC002813D020
:1020D0003846294609F08FFC074631460BF092FC42
:1020E000002809D03846294609F085FC07463146C4
:1020F0000BF088FC0028E1D1DE4938460BF067FC84
:1021000000281FD0DC4DDB4E3846294609F073FC11
:10211000074631460BF05BFC002813D038462946B1
:1021200009F069FC074631460BF051FC002809D044
:102130003846294609F05FFC074631460BF047FC5C
:102140000028E1D1CD491A980AF032FD0546C74969
:102150000BF058FC00281ED0C44E2846C44909F094
:102160004AFC054631460BF04DFC002813D02846AA
:10217000BF4909F040FC054631460BF043FC0028FE
:1021800009D02846BA4909F036FC054631460BF01D
:1021900039FC0028E1D1B74928460BF018FC00288B
:1021A0001ED0B44E2846B44909F025FC05463146F8
:1021B0000BF00DFC002813D02846AF4909F01BFC9A
:1021C000054631460BF003FC002809D02846AA49F1
:1021D00009F011FC054631460BF0F9FB0028E1D16E
:1021E000A7480178002900D1AEE0A648016828463A
:1021F0001A9109F0FBFB05469C490BF003FC0028F3
:102200001ED09A4E28469A4909F0F5FB05463146FC
:102210000BF0F8FB002813D02846954909F0EBFB9A
:10222000054631460BF0EEFB002809D028469049C0
:1022300009F0E1FB054631460BF0E4FB0028E1D153
:102240008C4928460BF0C3FB00281ED0894E284637
:10225000894909F0D0FB054631460BF0B8FB002850
:1022600013D02846844909F0C6FB054631460BF0D9
:10227000AEFB002809D028467F4909F0BCFB054683
:1022800031460BF0A4FB0028E1D17F4928460AF033
:102290008FFC1A9909F0AFFB054674490BF0B2FBAD
:1022A00000281ED0714E2846714909F0A4FB05464E
:1022B00031460BF0A7FB002813D028466C4909F0E3
:1022C0009AFB054631460BF09DFB002809D02846B5
:1022D000674909F090FB054631460BF093FB002857
:1022E000E1D1644928460BF072FB00281ED0614EF4
:1022F0002846614909F07FFB054631460BF067FB34
:10230000002813D028465C4909F075FB0546314684
:102310000BF05DFB002809D02846574909F06BFBFC
:10232000054631460BF053FB0028E1D155480560C6
:102330001B990DE0E02E65C2000034430000B4C3D9
:10234000000034C30000B4434E490D601B99017076
:102350004E4805604E480170002120461B910BF04D
:1023600048FB06464B4920460AF022FC3F2109065D
:102370001A91BF210C06002E214600D01A9909F0AF
:102380003AFB0BF017FF199038461B990BF031FB05
:10239000064638463F490AF00BFC002E214600D085
:1023A0001A9909F028FB0BF005FF189028461B9995
:1023B0000BF01FFB0646284636490AF0F9FB002EB3
:1023C000214600D01A9909F016FB0BF0F3FE179086
:1023D000099D28461B990BF00CFB064628462D4903
:1023E0000AF0E6FB002E214600D01A9909F003FB03
:1023F0000BF0E0FE16900A9D28461B990BF0F9FAA7
:102400000746284623490AF0D3FB002F214600D077
:102410001A9909F0F0FA0BF0CDFE07460B9E3046F4
:102420001B990BF0E6FA054630461A490AF0C0FB44
:10243000002D00D01A9C214609F0DDFA0BF0BAFEFF
:102440001899009117990191169902910397049098
:10245000114A1CA8C021199B0BF0B4FC401EBE28D9
:1024600002D81CA80BF0D2FB4FB0F0BD00003443E3
:102470000000B4C3000034C30000B443E02E654242
:10248000C6332020D83220206666E63EB8322020AF
:10249000BF3320200000C842C3270100F0B5FFB0C1
:1024A0008EB0049306920646929802900025E84367
:1024B00005908C91346820460CF0C0F921188B955A
:1024C00003918C4200D3BCE00020879087A9087359
:1024D0008890059889902F46049D2078002800D187
:1024E000B2E0252805D0641C34600699A8477F1CFB
:1024F000F3E78B97601C306087AC2046314600F0D4
:10250000BBF88CAA2046314600F0D7F83068017835
:102510000B46683B0122D341092B2BD87B441B7906
:102520005B009F4404130A2727271627271943789F
:102530008799682B19D1520204E0437887996C2B54
:1025400010D1120211438791801C12E08799D202A8
:1025500004E08799520301E0879912030A438792A6
:10256000401C06E0401C402201E0401C2022114398
:1025700087910178441C346087A80173732913D0B4
:102580006E291DD1879832490840411E02464A40B3
:102590008A423CD900282DD0414201402D48414378
:1025A000C80E2DA1085C26E087A80078400619D443
:1025B000009587A88CAA8BAB069900F03DF92AE01C
:1025C00007AD87A98CAA284600F08CF90246284658
:1025D0000699029B9847411C059D00D0C5198B9513
:1025E00003991AE0009587A88CAA8BAB069900F096
:1025F000C0F810E02020401F082808D8784400794F
:10260000400087441904040D14040D0404008C9840
:1026100002C88C900F6003998B9D681C13D050E703
:10262000F8178C9904C98C9117605060F3E78C9867
:1026300002C88C900F70EEE78C9802C88C900F80C7
:10264000E9E72F4600E0059F38467FB00EB0F0BDA9
:10265000603F000031B57C0700011C021D0E18030D
:102660001E16140F191104081F1B0D171513100740
:102670001A0C12060B050A0910B50A680124E307B3
:102680001AD01378302B0CD0232B0ED02B2B0AD042
:102690002D2B04D00024202BF1D1042306E00123AC
:1026A00004E0102302E0022300E0082304681C4336
:1026B0000460521C0A60E1E710BDFEB516460D46E7
:1026C0000446086802782A2A10D13068011D31605A
:1026D00000686060002805D54042606020680121E4
:1026E000014321602868471C2F6017E00021303A21
:1026F000092A08D84218531C2B60435C6F467B5450
:102700005278491CF3E76A4600235354127847185D
:10271000002A03D068460BF0BDFB606038782E2895
:1027200026D1781C286079782A2908D13068011DC3
:1027300031600068A0602868401C2860FEBD002051
:102740003039092908D839188A1C2A604A786B461A
:102750001A548978401CF3E76A4600211154107816
:10276000002804D068460BF095FBA060FEBDA16078
:10277000FEBDF0B587B01E460C9F13681C1D14608B
:102780001D68002D3AD0049106908468002C04D472
:1027900028460CF043F8844203D328460CF03EF858
:1027A000044606984068A042039000DC204601469B
:1027B00030680191401805940399A1420296306057
:1027C0000EDD06980078C0070AD1059801990E1A07
:1027D0000024B44204DA20200499B847641CF8E7C6
:1027E0000026049C069805998E420ADA2868010A98
:1027F00018D12D1D2146B847761CF3E70020B847B5
:1028000018E00599039A8A4214DD0078C00711D0B8
:102810000198451A0024AC420CDA20200499B847EC
:10282000641CF8E70020C043029908600CF0B4F87B
:102830005821016007B0F0BDF0B585B00C460646E2
:102840000A9D1068011D116000680490002844D0A2
:102850000393B768002F04D404980BF0EFFF87426E
:1028600003D304980BF0EAFF074602967268BA4257
:10287000114600DC3946039B18680091401801920C
:10288000BA4218600FDD02980078C0070BD100989B
:10289000C01B039000260398864204DA20202146BC
:1028A000A847761CF7E70026BE4205DA0498805D4B
:1028B0002146A847761CF7E70198B84210DD029838
:1028C0000078C0070CD00098C61B0027B74207DA73
:1028D00020202146A8477F1CF8E700202146A84772
:1028E00005B0F0BDF0B589B005920E4604467F20D4
:1028F000800027184868039000250795FF21049160
:10290000FE312022204601920BF0B0FE304608979F
:1029100002977D70367B31466339152906903DD884
:1029200001228A40604B1A42069822D007A908AAC1
:10293000059B00F0BDF806980025067B012731466F
:102940006F390929059504D801228A4057490A425E
:102950003FD1582E3DD0016802230B40079A002A30
:1029600027D008994A1E08922D220A705F425F41C3
:102970002FE0002912D1059B1A68111D19601268F9
:10298000D1B24D424D410499FC3161180891029930
:102990000A70026802218A430260CEE7252E02D027
:1029A000582EC3D0CAE70020607025202070012077
:1029B00078E0002B07D149070BD5089A511E0891E2
:1029C0000199117005E0089A511E08912B21117090
:1029D0000027039903976518089B0178C9072646C5
:1029E00008D10299491CC91A42689142264601DC65
:1029F000691A4E1C591C04984300002730463A4679
:102A00000BF09EFD08900599002903D0411C089108
:102A1000077000E00146A94206D8481E691A491C01
:102A200020220BF023FE2F7006980078C00606D4F3
:102A3000311B202220460BF019FE059D2EE0A642F8
:102A4000059D2BD0311B302720463A460BF00EFE59
:102A5000069B07984142414103980140012905D155
:102A60001878400702D43046214604E03078611CD3
:102A70002070701C37701A7B412A0CD0582A05D060
:102A8000612A08D0782A01D0702A07D11B781B0749
:102A900001D4612A02D142784A70477020460BF077
:102AA000CDFE401909B0F0BD4230240043020000C1
:102AB000F8B514460F4605468068002804D42868F7
:102AC00010218843286001E00120A860287B10269F
:102AD000582808D0782806D0702804D06F2801D153
:102AE000082600E00A262846194600F055F8AA688C
:102AF000002A09D102460A4306D12878000749D5A1
:102B00002B7B0020024612E02B7B642B03D1642335
:102B1000002905D40AE0692B08D1002906D56923CC
:102B200001223A60002240428A4100E00A460094B5
:102B30001146324600F0CEF8A968884206DA401CF9
:102B400021684A1E226030220A70F5E7287B582847
:102B500003D0782801D070280FD1297809070CD527
:102B6000702800D1782021684A1E226008702068F1
:102B7000411E216030210170287B6F280AD12878FE
:102B8000000707D520684178302903D0411E216015
:102B900030210170F8BDC04610B5037B702B05D104
:102BA0000868021D0A60006800227BE002683E4857
:102BB0001040421E04465440944216D9002807D0C3
:102BC0004242024039485043C00E39A2105C00E036
:102BD0002020401F082808D8784400794000874406
:102BE0004C04041E38041E040400002218466438F5
:102BF00014280DD801248440354804420AD12120EC
:102C0000044205D00868021D0A600068C21749E046
:102C1000582B46D10868031D0B60006842E0184637
:102C20006438142807D8012282402948024206D17C
:102C30002120024203D10020582B024632D10868DD
:102C4000C21D072082431046083008601068526891
:102C500028E0002218466438142807D8012484404C
:102C60001B48044204D121200442CBD1582B18D157
:102C70000868031D0B60007814E0002218466438D1
:102C8000142807D8012484401148044204D121208B
:102C90000442B7D1582B04D10868031D0B6000888B
:102CA00000E01046114610BD603F000031B57C07C2
:102CB00000011C021D0E18031E16140F1911040822
:102CC0001F1B0D17151310071A0C12060B050A0906
:102CD00000081200FEB501920D460646582B01D0A1
:102CE000174800E0154800900898029030462843A5
:102CF00005D1029A1068411E116030210170019CBB
:102D00003046284313D030462946224600F01AF8B0
:102D100007460D4622460BF001FC301A0099085C6C
:102D2000029B19684A1E1A6008703E46E8E702983E
:102D300000680BF083FD401EFEBDC046802D0100E3
:102D4000C42D010080B5102A06D0082A09D1C00878
:102D50004A078018C90880BD00090A0780180909B8
:102D600080BD002904D111460BF036F9002180BD49
:102D700000230BF005FD80BDF0B589B0044602E0EC
:102D8000092808D1641C20781F28F9DD2028F9D0F3
:102D90003E28F7D003E0002801D122462CE0651C34
:102DA00028460BF0DEFB421C2918824201D20A465B
:102DB00022E0201803E0C91EC01EA34215D90278E4
:102DC000202A01D0092A10D1A04210D9421E13781E
:102DD000202B01D0092B0ED1A2420AD9831E1D78C7
:102DE000202DE8D0092DE6D006E0421C04E0024682
:102DF00002E08A1E00E04A1E002515702178002995
:102E000022D0204604E0C21CC178002910461BD005
:102E10000A46613AD2B2192A01D8203901704178A4
:102E2000002911D00A46613AD2B2192A01D82039B4
:102E300041708178002907D00A46613AD2B2192A36
:102E4000E1D820398170DEE720784E282AD16078D9
:102E5000412827D1A078562824D1E078202821D1F4
:102E6000201DE74908AA07AB0BF03CFA022800D066
:102E700008E3E44800210170E3480170E348016081
:102E8000E34801600799089809F0BCFDE148006833
:102E9000192109014018E049086001200BF0EEFCFF
:102EA00009B0F0BDDD49204609F052FF00284FD09F
:102EB000DB49204609F04CFF002800D1ACE0207827
:102EC000472822D1607852281FD1A07841281CD1F0
:102ED000E078592819D12079202816D1601D0021C9
:102EE0000A2207F09BFE0546401E2E4686410BF047
:102EF000DFFA044630460BF0EBFB30460BF04CF8A3
:102F0000002D00D1F3E2C7480AE32078472825D1F5
:102F10006078592822D1A07852281FD1E0784F2814
:102F20001CD12079202819D1601D00210A2207F028
:102F300075FE0446401E2546854128460BF098FC48
:102F400028460BF029FA002C00D0CEE2B648E7E282
:102F50000BF0CAFB002879D0B448E1E2207857286A
:102F600028D16078482825D1A078452822D1E0785A
:102F700045281FD120794C281CD16079532819D1BC
:102F8000A079202816D1E01D9D4908AA07AB0BF0B7
:102F9000A9F9022800D0BAE29A48002101709A48A3
:102FA00001709A4801609A4801600799089809F0F1
:102FB000DFFC6BE720784C2825D16078542822D19B
:102FC000A07855281FD1E07852281CD120794E28AE
:102FD00019D16079202816D1A01D954908AA0BF0B7
:102FE00081F9012800D08CE287480078002811D1AF
:102FF000884800688F490968401A0BD4089808F07F
:10300000CBFD8D488CE2834F3968204609F090FA59
:1030100000281DD009B0F0BD0BF04AFA04460BF0B1
:1030200033FC0BF057FA002C0ED0774800210170CA
:10303000764801607648016080480BF049FC804882
:103040000BF046FC0AF096FD7E4869E27E4867E296
:1030500005A80BF055FB0599069A204602F0DCFD09
:10306000002809D0002420460BF008FC67480460C3
:1030700067480460754853E22078502823D160786F
:10308000492820D1A07844281DD1E07820281AD1E1
:10309000201D04A900916E4908AA07AB0BF022F984
:1030A000032800D02FE208996448079A049B0EC0B9
:1030B000634C0EC40C3C0C380BF00AFC20460BF0A1
:1030C00007FC64482CE22078422840D160784128EF
:1030D0003DD1A07853283AD1E078452837D12079DE
:1030E000202834D1601D0025294603F085FE0646C0
:1030F000594C21460AF06BFC0390584F3046394634
:103100000AF080FC002800D137460398002800D13F
:103110003C463C4805703C4805700AF08DFB3B4836
:103120000460204629460AF049FC002809D03848A6
:10313000056042480BF0CCFB41480BF0C9FB0AF09C
:1031400019FD2046214609F0BDFD09B0F0BD2078EB
:103150004D2800D084E060784F2800D080E0A0782F
:1031600054287DD1E0784F287AD12079522877D120
:103170006079202874D17D2000010790A01DEA49C4
:1031800008AA07AB0BF0AEF8002800DCC7E1089DE9
:103190000024284621460AF01AFC0390FC4E2846DB
:1031A00031460AF02FFC002800D12E46FB48039937
:1031B000002900D1344608940799814200D907902C
:1031C000E04801210170E048002101700AF034FB61
:1031D0000898E2490860E24908600798002801D091
:1031E00039680818DF490860DF480BF071FBDF48D9
:1031F0000BF06EFB079B0899EA480A4696E0C0462A
:10320000F8320100D4332020CE3320209033202008
:103210006C3320201C33202040332020F03101006B
:103220000C320100E8300100D0300100912F010084
:10323000633301002C3320203A310100B0312020CB
:10324000D4312020DC2F0100702A010094300100CD
:103250003032010039320100000070C200007042BB
:103260002078502866D16078572863D1A0784D28FF
:1032700060D1E07820285DD17D2000010490201DE0
:1032800004A90091C34908AA07AB0BF02BF8022848
:1032900000DA3AE1089E0024304621460AF097FB06
:1032A0000390BB4D304629460AF0ACFB0028284667
:1032B00000D1304603990029214600D101460891EA
:1032C000079E304621460AF082FB0390304629468D
:1032D0000AF098FB002800D13546B0480399002930
:1032E00000D12C4607940499814200D90490954856
:1032F000012101709448002101700AF09DFA08989C
:10330000964908600798964908600498002801D0FB
:10331000396808189349086093480BF0D9FA934824
:103320000BF0D6FA049B079A08999D4809F0B2FB66
:1033300009B0F0BD2078502850D1607855284DD183
:10334000A0784C284AD1E078532847D120794528E5
:1033500044D16079202841D1A01D8B4908AA07AB30
:103360000AF0C0FF022800D0D5E07D200390089C21
:10337000204629460AF02BFB0290854E2046314616
:103380000AF040FB002800D126460398000102996C
:10339000002900D1354608950799814200D9079048
:1033A0006848012101706848002101700AF044FA60
:1033B00008986A4908606A490860386807990818D7
:1033C0006849086068480BF083FA68480BF080FA97
:1033D000079908980AF0A4FB09B0F0BD207851289D
:1033E0001CD16078552819D1A078492816D1E078E9
:1033F000452813D12079542810D1607920280DD187
:10340000A01D00210A2207F009FC41424141594A0E
:103410001170002800D180E05A4881E020785428BB
:1034200019D16078452816D1A0784C2813D1E078BE
:10343000452810D1207920280DD1601D00210A22B5
:1034400007F0ECFB411E02468A414A490A700028F7
:103450005FD14A4864E03549204609F079FC0028EC
:1034600012D03349204609F073FC002831D031498D
:10347000204609F06DFC00282FD020460AF01AFFE4
:1034800009B0F0BD4E484BE028460BF0F7F92D4847
:1034900005702D4805700BF0F7F90BF01BF80AF0DA
:1034A000CBF92A4805602A4805602A4805602A4861
:1034B00005602A4805602A4805602A4805602A48B0
:1034C0000BF006FA29480BF003FA0AF053FB2848E0
:1034D00026E006F0C9FA09B0F0BD0BF01DF9164858
:1034E00005601648056016481AE0334818E00AF0EF
:1034F000F1FF3248002C13D004460AF023FE204688
:103500000EE02B480CE029480AE0234808E029484F
:1035100006E0194804E01D4802E0194800E022488E
:103520000AF074FB09B0F0BD7C32010041330100A8
:10353000463301004C3201004C3320205033202010
:103540003B300100D4332020CE3320209033202084
:103550006C332020343320203C332020883320203B
:103560008C33202038332020B0312020D43120204B
:10357000C8310100E3332020AC30010000310100EC
:10358000213001002E3001007C320100DC300100CE
:103590000000AA42B4310100AA3101001027000046
:1035A0000C280100F2320100B83001009631010010
:1035B000F430010062300100183101008830010050
:1035C000E6310100F0B58BB0064609A80BF098F87B
:1035D00006A8314606F004FC09980290F6480768F0
:1035E0000A9CF6480568F64806600AF061FF0699ED
:1035F00008400799039632460AF088FD0AF058FF02
:1036000000280CD00BF002F9089989B24A424A41CD
:10361000024304D108B20AF03DFD08F0BDFA0BF0F8
:1036200021F9002811D0E74800680399081A0CD442
:103630000AF002F900200BF021F9E3480BF048F9F9
:10364000E2480BF045F90AF095FA0298C71B611B96
:103650000998D94A10600A98D84A1060DC48007866
:10366000012811D1DB480760DB480160DB480168B5
:10367000002920D0039A511A1DD4D94900240C6086
:10368000D8490C60046018E00291D74D2C68D748E7
:103690000668204631460AF09AF9002823D07D209A
:1036A000C105204608F0A7F9044631460AF0AAF9F8
:1036B000002828D028E0CA480468CD4E356828463E
:1036C00021460AF084F9002800D194E03F20010649
:1036D000284608F090F9054621460AF093F900289B
:1036E00000D199E099E0204631460AF08BF9002894
:1036F00009D0C049204608F07EF9044631460AF058
:1037000066F9002800D1264601962E60BA4D2C6835
:1037100038460AF0BFFC214608F068F97D21CF0544
:10372000394609F045FA214608F065F90446286053
:10373000B24E356802980AF0ADFC294608F056F9F9
:10374000394609F035FA294608F055F90746306040
:103750000021204602910AF04CF90646A84920466D
:1037600009F026FA3F210A06BF210D06002E294640
:1037700000D01146009208F03EF90AF01BFD044605
:1037800094480460384602990AF033F906463846F0
:103790009B4909F00DFA002E00D0009D294608F043
:1037A0002AF90AF007FD8C490860201A954908603B
:1037B000019805900490039809F086FC064692480B
:1037C0000468924D2F7809980A9905AA04AB04F071
:1037D000D1FF012F38D1002800D1D1E08C48002141
:1037E00001608C4801608C4801608C4801600AF0DF
:1037F000C1F90BB0F0BD284621460AF003F90028B4
:103800000AD0BF200106284608F0F5F805462146F3
:103810000AF0DDF8002800D12C463460804F3E6865
:1038200070480568304629460AF0D1F800286AD069
:103830003F200106304608F0DEF8064629460AF029
:10384000E1F8002870D070E0002805D109980A99A5
:1038500005AA04AB03F09AFF0398071B0AF028FEA1
:1038600000281ED0002F1CD403980AF0BDFD0028AC
:1038700017D00AF0CBFF29780143C80711D1049C67
:10388000059800210AF09AF800280AD00021204665
:103890000AF094F8002804D001200290DC4805903A
:1038A00004900AF005FE00280ED0002F0CD40398D7
:1038B0000AF0E8FCC04329780143C80704D10AF0A4
:1038C000A5FF002800D1ADE00AF0F2FD002800D1EC
:1038D000C6E0002F00D5C3E003980AF085FD00285C
:1038E00000D1BDE00AF092FF002800D0B8E00598B2
:1038F000C84C214609F05CF905900498214609F06E
:1039000057F90446ABE0304629460AF07BF8002818
:103910000AD0BF200106304608F06DF80646294659
:103920000AF055F8002800D135463D60204629466A
:1039300007F08AFDC248006800210AF03FF800281D
:1039400000D159E13C68C0480568BE4800680021C4
:103950000AF034F8002800D14EE1002128460AF090
:103960002DF8002800D147E10025204629460AF01D
:1039700025F8002800D13FE1A24805700BB0F0BD4A
:10398000AE48056868420AF085FBA54E314609F04D
:103990000FF90446A348046028460AF07BFB314631
:1039A00009F006F90146A0480160A0480460A24859
:1039B000016020461EE1C0464C33202050332020B9
:1039C0001C33202040332020B0312020D43120204F
:1039D000D4332020F83220200C332020383320200C
:1039E000883320208C3320206C33202090332020FB
:1039F00034332020000080BED0322020D43220205A
:103A00000000C842083320202C332020CE33202051
:103A10000033202014332020FC32202010332020BB
:103A20003C3320200599304607F0E5FF05900498C7
:103A3000314607F0DBFF04900AF0E8FE00280FD1C2
:103A400005980024214609F0C2FF002801D000207B
:103A500005900498214609F0BAFF002800D004948C
:103A6000059C6D4E2046314609F0B1FF05466B4F6F
:103A70002046394609F0C6FF0028384600D12046C6
:103A8000002D344600D104460594049D2846314655
:103A900009F09DFF03902846394609F0B3FF00283E
:103AA00000D12F460398002800D13E460496029884
:103AB000002826D000252046294609F088FF0390DB
:103AC000574F2046394609F09DFF0028384600D15F
:103AD0002046039900292C4600D10446059430461F
:103AE000294609F074FF03903046394609F08AFFF1
:103AF000002800D137460398002800D13D460495A0
:103B000000E0354647480460474805603E48026883
:103B10003A48214608F076FB444F38603B4802683B
:103B20000499374808F06EFB03903D68059C002619
:103B30002046314609F042FF0028304624D1029544
:103B400000252046294609F042FF002801D12046E1
:103B500002E00120C0076040354909F029F8412101
:103B6000090607F048FF07462046294609F04AFFA4
:103B7000002804D00298394607F03DFF03E0029880
:103B8000394607F033FF294F3860049F0446384612
:103B9000314609F013FF002828D125460024384675
:103BA000214609F014FF002801D1384602E0012027
:103BB000C00778401E4908F0FBFF4121090607F0C5
:103BC0001AFF1C4908F0F4FF06463846214609F062
:103BD00019FF002804D00398314607F00CFF03E0DA
:103BE0000398314607F002FF06462C46124806604D
:103BF0002046314607F028FC0BB0F0BDB031202044
:103C0000D4312020D4332020D0322020D4322020A0
:103C1000000020416666263F000070C2000070422E
:103C2000000070410033202014332020FC3220207B
:103C30003333333F8FC2753F10332020E0322020D2
:103C4000883320208C33202034332020F0B5FFB07F
:103C5000A4B01E4602911090A8980A908000E949ED
:103C60000D585C1E1192D01E1821019109F02CFFF5
:103C7000C1178843011B15910D952D190E908100D8
:103C80001496B0000F91081ADF494018061D00274E
:103C900066ACAF420DDC1598C01903D430680AF049
:103CA00065FB01E00020014603C47F1C0034361D83
:103CB000EFE71498C00066A94018083800230D9F4C
:103CC000BB4224DC1293002513900746109C2E461D
:103CD0001595149886420FDA03CC0CCF083F083CA8
:103CE0000AF056FE159A2B4606F051F915900D462E
:103CF000761C0834083FECE7129BD80016A90A1876
:103D0000159C0C5055605B1C13980830D7E71720A2
:103D1000C0430E9948431199411808461838099034
:103D20003020401A04902F200591401A03900F98DC
:103D3000B54908180F9016A8083808908FA8011FD9
:103D4000B800079108180690F80016A90A180B5831
:103D5000526808990E188FA815900E9738460128BA
:103D60002ADB374600261390184611461292324637
:103D70001193A64B0AF00CFE09F06EFF0AF0F6FA5A
:103D800004460D4632463E46A14B0AF001FE119A0A
:103D9000129B06F0FCF809F05FFF159901C115911F
:103DA00003CF22462B46083F06F0F1F8034613984E
:103DB0000A46401E083ED2E718461146099F3A4679
:103DC00007F03AFD05460E46FF20830500242846ED
:103DD00022460AF0DDFD06F0DBFD0C9422468D4BF9
:103DE0000AF0D6FD2A46334606F0D1F804460D46C1
:103DF00009F032FF06460AF0B9FA02460B462046A1
:103E0000294606F0BFF80446012F15915FDB0E9896
:103E100080008FA90818001F01680A46049B1A41F8
:103E200096190B969A40891A0160039801410D9EDC
:103E3000794D0C9101295ADB139400248FA8214657
:103E40000E9A91420EDA0268002C2B4602D1002A0B
:103E500006D06B1C9A1A02600124491C001DEFE772
:103E60000024FAE7099801280B996C4F10DB05989C
:103E700019286B4803D005981A2809D169480E996A
:103E800089008FAA5118091F0A6802400A600B991D
:103E9000491C0B910C98022828D100203946139A0E
:103EA000159B06F06FF8054602200C90002C00D1FF
:103EB00084E000200C463946099A07F0BDFC024612
:103EC0000B462846214606F05DF8044610E00B96A6
:103ED000002FF54D69D020460C9AF44B09F05BFD9C
:103EE00000280D9E03D002200C90A5E7139C159985
:103EF0000025204627460C462A462B4609F030FD71
:103F000000285DD00E9CA000079909182246B242F5
:103F100004DD521E0B681D43091FF8E7002D0699AA
:103F2000224663D10868521C091F0028FAD0149851
:103F30000019C00066A90D181192601C944232DA73
:103F4000129080000F9908580AF010FA149AA218DB
:103F5000D20066AB9C1898506160002313952C46E4
:103F6000109F19461D461498814212DA386815913F
:103F7000796822681E4663680AF00AFD32462B46BD
:103F800006F005F803460D461599491C0837083C0C
:103F9000E9E7129CE00016A90A180B505560139D22
:103FA0000835119AC9E71746CEE60E9880008FA90A
:103FB0000818001F0068C1150D9E3AE72C4697E7C8
:103FC0000198059E821B3846214607F035FC0546C0
:103FD0000C460022B74B09F0DEFC002824D128460D
:103FE000214609F039FE06460E9C3AE08FA90818D2
:103FF000001F099A183A641E0168001F0029F9D0B1
:1040000033E0C0463C2E0100602201000000703EFB
:10401000000070C1000020C0FFFFFF000000F03F63
:10402000FFFF7F00FFFF3F000027A34B28462146EC
:104030003A460AF0ADFC09F00FFE06460AF096F982
:104040009E4B3A460E9F0AF0A3FC2A46234605F0F3
:104050009EFF09F001FEB9008FAA50507C1C059804
:104060000990A0008FA90E50099A002090490F9046
:1040700007F0E2FB0646A0008FAA1218E50016A87A
:10408000109547190E94002C19D4159410680C46FD
:1040900015460AF06BF902460B46304621460AF0F7
:1040A00077FC03C7002230462146834B083F0AF0C5
:1040B0006FFC0646159C641E2A1F083FE3E716A8FE
:1040C000109942180E9F3B46002B0A990D982ED44A
:1040D0001293F91A8842149000DB14911191002375
:1040E00013921746764C19461D461498814212DCED
:1040F0002068159161683A681E467B680AF048FCA2
:1041000032462B4605F043FF03460D461599491CE0
:1041100008340837E9E71198C0003EA90A180B5087
:104120005560129B5B1E139A083A0E9FCCE7481EFF
:1041300002281FD3002955D0032900D0AEE03EA8A5
:1041400010990C18083C3846002859DD0AF0FCFA92
:1041500002460F462846314615463B4605F012FFFB
:104160000AF0D2FBA0C40E9F206015986160401E2B
:10417000103CE9E7FE0000242546002F0CD43EA8A1
:10418000811982594B682046294605F000FF0446F4
:104190000D467F1E083EF0E701260C9800282846B1
:1041A00001D0F007684002990C6048603E983F9942
:1041B00022462B4605F0E6FE3EAC08340E9DAE428C
:1041C00006DC0CCC083C05F0E2FE761C0834F6E771
:1041D0000C9A002A02D00122D2075140029A906024
:1041E000D1605BE0F8003EA90C1800200146002FCA
:1041F00022D40CCC083C05F0CAFE7F1E083CF6E732
:104200003EA810990C18083C384601281DDD0AF01C
:104210009BFA07460B46284631463A461D4605F0AE
:10422000B1FE0AF071FB27600E9F6560A0601598D3
:10423000E160401E083CE8E70C9A002A02D0012207
:10424000D2075140029A03C228E00F980146022F7C
:104250000ADB3EAA109C131912595B6805F097FE01
:104260007F1E083C1094F2E706463F983E9A0C9B4E
:10427000002B0CD00123DB075840409C419D5D4042
:104280005940029B1A601A1D71C2596106E0409B99
:10429000419C029D2A602A1D59C2696107210B9821
:1042A00008407FB024B0F0BDFFFFFF000000E03FFA
:1042B0000000F03F000070410000703E000070C13F
:1042C000A0280100F0B5FFB0DCB0E09D002D30D09B
:1042D000002B2ED0002A2CD0FC4C2478002C28D186
:1042E0001C4654436400A54223D1F94CF94F2E19C2
:1042F00013367F1EBE421CD30A910B90089209937D
:1043000001F06EFA06460AF0F7F8002800D155E1F0
:1043100005F002FF00280FD00B98FF2800D156E1CE
:1043200005F0FAFE00283AD0EB48C61C6027E84C9E
:1043300007E0EA4809F06AFC7FB05CB0F0BD7F1E80
:104340002DD03C361BA93C22304604F0F3F800285F
:1043500025D01BA80178A529F1D180790128EED1BB
:104360001BA840880028EAD01BA98A88002AE6D02A
:104370001D99D84BCB18A342E1D31E9B424350005A
:104380008342DCD1C91814311BA8D34A9142D6D23A
:1043900041780B988142D2D10B9806F0E9F8E19868
:1043A0000290284614300490CD4901200390000368
:1043B00007902818133008400590C748C71C0020F4
:1043C0000690602602E0361F00D144E138463C30BA
:1043D0000CA93C2204F0AEF8002800D174E10CA82E
:1043E0000178A5292ED1807901282BD10CA84288EB
:1043F000002A27D00CA88388002B23D00E98B5491B
:104400004118B34CA1421DD30F9953435A00914216
:1044100018D142181432B04B9A4213D2069CE2B221
:10442000D20001921BAB019A9A180092019A9850FF
:10443000079A51181331AA4A114008180099486088
:10444000641C0694384678300CA93C2204F072F8BB
:10445000002800D138E10CA80178A5292ED1807957
:1044600001282BD10CA84288002A27D00CA88388C9
:10447000002B23D00E9897494118954CA1421DD38B
:104480000F9953435A00914218D142181432924B5B
:104490009A4213D2069CE2B2D20001921BAB019A5F
:1044A0009A180092019A9850079A51181331FC4AB1
:1044B0001140081800994860641C06943846B430CE
:1044C0000CA93C2204F036F8002800D1FCE00CA82E
:1044D0000178A5292ED1807901282BD10CA84288FA
:1044E000002A27D00CA88388002B23D00E98E849F7
:1044F0004118E64CA1421DD30F9953435A009142F3
:1045000018D142181432E44B9A4213D2069CE2B2FC
:10451000D20001921BAB019A9A180092019A98500E
:10452000079A51181331DE4A114008180099486063
:10453000641C0694F0370CA93C22384603F0FAFFBD
:10454000002800D1C0E00CA80178A52900D03AE7E6
:104550008079012800D036E70CA84288002A00D1D3
:1045600031E70CA88388002B00D12CE70E98C849AE
:104570004118C64CA14200D225E70F9953435A0077
:10458000914200D01FE742181432C34B9A4200D325
:1045900019E7069CE2B2D20001921BAB019A9A186D
:1045A0000092019A9850079A51181331BC4A114051
:1045B000081800994860641C069404E7B54A1BACCF
:1045C00040212046334609F0FDFB2046B2E600209C
:1045D0000B90AE4C05F0A0FD002800D1DFE6AE4800
:1045E000C61C602702E07F1E00D1D8E63C361BA91E
:1045F0003C22304603F09EFF002800D1CFE61BA8E6
:104600000178A529EFD180790128ECD11BA8408839
:104610000028E8D01BA98A88002AE4D01D999C4B69
:10462000CB18A342DFD31E9B424350008342DAD112
:10463000C91814311BA8984A9142D4D241780B98DA
:10464000C0B28142CFD10B98411C80B2FE280B91A1
:10465000C0D392486EE60798059908188E4988429B
:1046600032D20699C9B20029079E3BD0CB001A4628
:10467000103A0693083B079F3E46002403E0183497
:104680000699A1422ED01BAF3959814203D2391964
:104690004F68BE4213D3A34224D01BAF3F19B96861
:1046A000814202D2FF68BE4209D3A2421AD01BA99E
:1046B0000F1939698142E2D27F69BE42DFD2059883
:1046C000381875498842D7D3764833E6DD33202041
:1046D000001081FF000081FF01007F00D52D010047
:1046E00000F0FFFF704809F091FA04988419A6427F
:1046F0001DD23746384604F005FF002800D18BE074
:1047000007983F18A74212D2384604F0FBFE002853
:1047100000D181E007983F18A74208D2384604F03C
:10472000F1FE002878D007983F18A742E2D31BAFCC
:104730000A98394608F004FD5348039901705C4912
:104740000B9808705B49089808805B4909980880B5
:104750005A4805605A48029901605A48002404608A
:104760005948E143016059480660143658480660CC
:10477000584804603878584D2870002849D01BA844
:1047800040786870002849D01BA88078A87000285D
:1047900047D01BA8C078E870002845D01BA8007936
:1047A0002871002843D01BA840796871002841D0A7
:1047B0001BA88079A87100283FD01BA8C079E87198
:1047C00000283DD01BA8007A287200283CD01BA8E6
:1047D000407A687200283BD01BA8807AA872002813
:1047E0003AD01BA8C07AE872002839D01BA8007BF9
:1047F0002873002838D01BA8407B6873002837D066
:104800001BA8807BA873002836D01BA8C07BE87348
:1048100037E0681C0F2132E024488BE5A81C0E21EC
:104820002DE0E81C0D212AE0281D0C2127E0681D41
:104830000B2124E0A81D0A2121E0E81D09211EE02A
:104840002846083008211AE028460930072116E0DA
:1048500028460A30062112E028460B3005210EE0DA
:1048600028460C3004210AE028460D30032106E0DA
:1048700028460E30022102E028460F30039909F045
:10488000FCFEEC73154855E5DD332020001081FF58
:10489000000081FF8D2A010001007F006C2E0100C5
:1048A00000F0FFFFDB2C0100EC2E0100DC2E0100EC
:1048B000C4332020BA3320208A322020CC3220205A
:1048C000C83220205833202064332020C4322020D6
:1048D0009C3320206833202038322020372F0100DD
:1048E000F0B5B5B009A80690E5480078012800D0D9
:1048F000E0E208A809F042FC002800D1DAE20698BC
:1049000020300690DF4DE04CE04E05E008A809F0AD
:1049100035FC002800D1CDE2089829684A1C2A609D
:10492000FE4B5854FE4F39680B0A4840C0B2800015
:10493000FC490858584038602068401C206001211C
:10494000079109028A4202D031688842DED1F64ED0
:104950003068F24901F0F8FE00284AD02868316832
:104960000818306000272F6023681DAE28213046CC
:10497000EE4A09F027FA3046E74E09F047F9216878
:1049800030688142C2D1E6490968CC43E8491891B0
:10499000E84D298818AA9180E7490988D1800799AC
:1049A0001A911B901C94DB480770E4480068A042F1
:1049B00025D1E348006818A9142201F0C5FE00289B
:1049C0001FD00394DF48C41C3C341DA93C22204660
:1049D00003F0B0FD002807D01DA80078FF2800D103
:1049E0002EE17F1C602FEFD1D648C41C0026602723
:1049F0000DE00020C74908702860D34858E2D3482A
:104A000056E2D34854E2059F3F1F00D1FAE020460A
:104A10003C301DA93C252A4603F08CFD002800D11E
:104A20000CE11DA80178A5292FD1807901282CD16E
:104A30001DA84088002828D01DA98988002924D0D5
:104A400004961F9AC34BD318C34EB34201D2049E9F
:104A50001BE0209B414348008342049E15D1D0189F
:104A60001430B849884210D23046761CC0B2454353
:104A7000BA4840191DA92CC92CC00597ACC9ACC0B7
:104A8000ACC9ACC0ACC9ACC0059F204678301DA9EC
:104A90003C252A4603F04EFD002800D1CEE01DA89B
:104AA0000178A5292ED1807901282BD11DA8408815
:104AB000002827D01DA98988002923D005971F9A8F
:104AC000A44BD318A44FBB4201D2059F1AE0209BF0
:104AD000414348008342059F14D1D0181430FC494B
:104AE00088420FD2701C0490F0B24543F948401937
:104AF0001DA92CC92CC06CC96CC06CC96CC06CC918
:104B00006CC0049E2046B4301DA93C252A4603F003
:104B100011FD002800D191E01DA80178A5292FD111
:104B2000807901282CD11DA84088002828D01DA9F3
:104B30008988002924D004961F9AE44BD318E24EAA
:104B4000B34201D2049E1BE0209B414348008342B4
:104B5000049E15D1D0181430DD49884210D2304659
:104B6000761CC0B24543DB4840191DA92CC92CC096
:104B70000597ACC9ACC0ACC9ACC0ACC9ACC0059F52
:104B8000F0341DA93C2520462A4603F0D3FC00281A
:104B900054D01DA80178A52900D035E780790128D7
:104BA00000D031E71DA84088002800D12CE71DA9BE
:104BB0008988002900D127E705971F9AC34BD3188E
:104BC000C14FBB4200D21EE7209B414348008342B5
:104BD000059F00D018E7D0181430BD49884200D393
:104BE00012E7701C0490F0B24543BA4840191DA961
:104BF0002CC92CC06CC96CC06CC96CC06CC96CC0B1
:104C0000049E01E7F0B204F0C7F8002816D0B348BC
:104C100008F0FCFFAE48C41C0027A74EA74D3C344B
:104C20001DA93C22204603F085FC002806D01DA8C3
:104C30000078FF2804D07F1C602FF0D1A64837E110
:104C400009AC201D3821FF2209F010FDA52020709D
:104C5000A348007860702888608099480088A08008
:104C60000798A071974800680B9030680C900398E3
:104C70000D909748C61C0020029060240CE0C046AE
:104C8000DD3320206833202058332020CC322020F0
:104C90000F46059D641E35D03C361DA93C25304687
:104CA0002A4603F047FC00282CD01DA90A78A52A23
:104CB000F0D189790129EDD11DA94A88002AE9D0CE
:104CC00005951DA98D88002DE3D039461F9F7F4B88
:104CD0000497FB187C4FBB42DAD3209B55436A00F4
:104CE00093420F46D5D1229A02998A42059D00D857
:104CF000029A0499C9181431754B994200D3029A4B
:104D00000292C7E72E4600282AD16B4D069C0798D1
:104D10002AE0C046DD332020CC322020002E202087
:104D200064332020601E01009C332020262D0100CA
:104D3000494D4730BA3320208A322020C832202003
:104D4000C432202001007F00A12B0100F82F0100B8
:104D50002A2E0100000081FF001081FF00002020AA
:104D60000298401C544D069C0E905E490A7809A892
:104D70000276002A47D04A7809A84276002A45D010
:104D80008A7809A88276002A43D0CA7809A8C27610
:104D9000002A41D00A7909A80277002A3FD04A792F
:104DA00009A84277002A3DD08A7909A88277002A8B
:104DB0003BD0C87909AAD077002839D0087A20706A
:104DC000002838D0487A6070002837D0887AA070E0
:104DD000002836D0C87A069AD070002835D0087BD3
:104DE000069A1071002834D0487B069A507100282A
:104DF00033D08A7B069BD81D9A71002A31D0C97B9B
:104E00000170069C31E019300F212CE01A300E2180
:104E100029E01B300D2126E01C300C2123E01D3041
:104E20000B2120E01E300A211DE01F3009211AE06D
:104E30000821204617E0601C072114E0A01C062171
:104E400011E0069CE01C05210DE0069C201D0421BC
:104E500009E0069C601D032105E0069CA01D0221BF
:104E600001E00121069C09F008FCF9B20020E07184
:104E70001D485F291CD87F210F40324677431449D3
:104E8000CB193F3309A90446184601F05DFC0146E1
:104E9000204600290CD01248037828680090039817
:104EA0000190124A1DAC6021204608F08BFF20467D
:104EB00008F0ACFE35B0F0BDCC322020BA33202053
:104EC0008A322020C4322020001081FF000081FFA0
:104ED00001007F0000002020502C01008A2B0100DF
:104EE000C4332020383220204C2E0100092A010032
:104EF000F0B597B068480578042D05D167480021C2
:104F00000170674801215DE06548017800292CD0D7
:104F100062480078012856D1FA480578002D54D00F
:104F200005208201F6480078052D51D86F1E022811
:104F300000D1A4E0012867D0002800D0CCE0032DE8
:104F400000D90AE1FEB2B00056490858059056480B
:104F50000478182078432030C5B22B46183300203F
:104F6000A64200D104E1074603E1E5490D70E54999
:104F700000220A70E44901220A70027005208201B1
:104F800016468F360096002420232046214608F03E
:104F9000E1FA022D03D8A800F3490A5800E0F14ACB
:104FA000102000960190029408200421DB4B01F0B0
:104FB0000BFAD4480178491CCAB20170072A02D3FF
:104FC000D1480021017017B0F0BDCD480578D5E774
:104FD000032803D28000CF490C5804E0CB4C207842
:104FE000002800D1CA4CCC4E009600259821AA2357
:104FF000284608F0AFFA102000960190029508208C
:105000009A21C64B2246D2E7144604F011FE00282E
:1050100000D18CE0CD4E3178814201D3411E3170F8
:10502000C9B2091F224600D20021C919CDB285425A
:1050300000D392E006A9284606F08CFB2246002801
:1050400000D18AE006A8037801460C3142888088A6
:10505000009101920290BE4A0DA82821059008F007
:10506000B1FE317818207843C3B21E46203638335B
:10507000002004918D4200D125E1074624E1144629
:1050800006A809F03DFB032F00D9DDE07F443F79FE
:105090007F00BF440BBF849EF2332020DE332020EC
:1050A000F13320207C300100E0332020069B07985C
:1050B0000090A14A0DAD2821284608F083FE00206B
:1050C000009020213823224608F044FA287800284E
:1050D00000D16EE72421DCE0A04806780C2E01D335
:1050E0000B260670311F0020042E00D20146C9197C
:1050F000CCB2E1009A4B5958059118217943CBB2B3
:105100001D4620353833B44201D0074600E01F2742
:105110000097294608F01EFA059A1078002800D159
:1051200047E704200543B44230D0874B2FE0022DDF
:1051300000D1B7E0012D22460FD100240094202198
:105140003823204608F006FA1020009401900294BB
:10515000814A0C2024217C4B29E718207843C3B2D4
:105160001946203138330020009008F0F3F920E789
:105170001F270097294608F0EDF9059A10780028B6
:1051800000D116E704200543A642CED1634B002090
:1051900010210097019102900C20294607E709F0A1
:1051A0002DFB064609F022FB0090614A0DAD282137
:1051B0002846334608F006FE002000905021682360
:1051C000224608F0C7F92878002800D1F1E65421DA
:1051D0005FE009F0E9FB524E0028354600D1514D01
:1051E00009F0E6FB002800D14F4E00964F4A0DAE65
:1051F000282130462B4608F0E5FD0020009068216C
:105200008023224608F0A6F93078002800D1D0E6A5
:105210006C213EE009F050FB064609F053FB00907C
:10522000444A0DAD28212846334608F0CBFD002026
:10523000009038215023224608F08CF92878002865
:1052400000D1B6E63C2124E009F024FB3B4D3C496B
:1052500000282E4600D10E4608F05CF8002800D148
:10526000374D0095374A0DAD28212846334608F0C2
:10527000A9FD18207843C3B21946203138330020E5
:105280000090224608F066F92878002800D190E6C0
:105290008421002010220090019202900C200DAA7F
:1052A000294B84E6002500953821502328462246C4
:1052B00008F050F91020009501900295254A0C2025
:1052C0003C21214B73E61F2700973146224608F008
:1052D00041F905980078002800D16AE604200643C9
:1052E0000498854201D0184B00E00C4B002010219F
:1052F0000097019102900C200DAA314657E6C04656
:10530000F3332020DF332020DE332020F83120202B
:10531000FB2E0100541E010030840000FFFF00003E
:1053200056330100283301003C330100AF2F010048
:10533000EE2C0100192E0100A03001004A330100BB
:10534000C2320100CC2E010018C60000C533202057
:10535000BC2E0100C82C0100BE310100C133202049
:10536000142701005C32010070300100F0B58FB0ED
:105370000290EF480168012422040A40534253413D
:10538000016801946404006807AF00263E70E94F8D
:105390007D789D4202D07B70029D7D6021403C78EB
:1053A0009C42019D0FD07C680096029E341B009E9B
:1053B000642C08D33B7003AB002A03D1BE70029A61
:1053C000BA6007AB1D706C054B424B4106AA1670C4
:1053D000F24A55789D4202D05370029D556020409C
:1053E00014789C42019D0FD054683746029E341BAE
:1053F0003E46642C08D3137003AB002903D196708A
:105400000299916006AB1D704142414104AA167099
:10541000E34F7A788A4202D07970029A7A603A78B9
:105420008A420DD07A68029B9A1A642A08D339708E
:1054300004A9002803D1BE700298B86005A90D70B8
:1054400007A80078C00724D0D6480078032815D0D4
:10545000012807D000281CD1D5480178002911D196
:10546000022112E004F0E4FB002812D0CF490A78B0
:10547000002A00D01046401E087007E0CA48017894
:10548000002901D0491E00E00B210170C94800210C
:10549000017006A80078C0071BD0C2480078002819
:1054A0000DD0032808D0012813D104F0C1FB002837
:1054B0000FD00146BD4C04E00C21BB4C01E00321A0
:1054C000BB4C2078401C08F087FD2170B9480021B2
:1054D00001700498C143B8780143C9070DD1B1499F
:1054E0000A78002A04D0042A01D1B34A16780E7033
:1054F000B24900220A70AF490A703978002903D1F5
:105500002846C00704D028E1C0B2C00700D024E17B
:10551000B8680299081A4009192800D21DE1012132
:10552000B970A04E3078032823D001280CD0002871
:1055300000D014E19E480078012800D1AEE0002898
:1055400000D0B1E03170B1E09848007808A906F0C9
:1055500001F9002800D18CE008A8007807F06EFB64
:10556000002800D185E0944805700420307028465A
:105570008EE08D480078C000914A16187268137842
:1055800008A80370002B00D185E0537808A8437069
:10559000002B00D190E0937808A88370002B00D1F5
:1055A0008DE0D37808A8C370002B00D18AE013796E
:1055B00008A80371002B00D187E0537908A8437134
:1055C000002B00D184E0937908A88371002B00D1CF
:1055D00081E0D37908A8C371002B7FD0137A08A883
:1055E0000372002B7DD0537A08A84372002B7BD026
:1055F000937A08A88372002B79D0D37A08A8C37253
:10560000002B77D0137B08A80373002B75D0537B36
:1056100008A84373002B73D0937B08A88373002BD7
:1056200071D0D37B08A8C373002B6FD0137C08A85C
:105630000374002B6DD0537C08A84374002B6BD0EF
:10564000937C08A88374002B69D0D37C08A8C3740A
:10565000002B67D0137D08A80375002B65D0537D00
:1056600008A84375002B67D0907D08A98875019D17
:1056700066E05249544A554B554C564D00200D603A
:10568000019D4C608B60CA60086148618861C86197
:105690004849087061E0401C16214FE0022030703C
:1056A0004D480021016001E0032030704348002193
:1056B00001704048017050E0801C15213EE0C01C84
:1056C00014213BE0001D132138E0401D122135E07C
:1056D000801D112132E0C01D10212FE008300F2164
:1056E0002CE009300E2129E00A300D2126E00B3094
:1056F0000C2123E00C300B2120E00D300A211DE0AD
:105700000E3009211AE00F30082116E01030072171
:1057100013E01130062110E0123005210DE01330A6
:1057200004210AE01430032107E01530022104E0CF
:1057300080130A40603220201630019D08F09DFF42
:1057400008A80024C475FDF717FB33681B481D4AE1
:10575000202108F037FB174804701248007802280F
:105760000BD11D480168029A511A89087D2904D37A
:10577000029901600F48002101700E48007800284E
:1057800003D1E80705D10FB0F0BD14480578E8074C
:10579000F9D0FFF7ADFB0FB0F0BDC046543220206A
:1057A00048322020F2332020C1332020C53320206E
:1057B000E0332020F1332020F4332020F831202062
:1057C0001427010010330100756E64007420666FA9
:1057D00065206E6F496D616718332020DE3320200D
:1057E000F0B595B0012001030D91FD4E31614703E5
:1057F0003761850335600424204609F07BF8376063
:10580000204609F077F8F74800683761356120468F
:1058100009F070F83760204609F06CF8FD48006820
:1058200037613561204609F065F83760204609F098
:1058300061F8F848006837613560204609F05AF889
:105840003760204609F056F8F24800683761356045
:10585000204609F04FF83760204609F04BF8ED4834
:10586000006837613560204609F044F8376020460B
:1058700009F040F8E748006837613560204609F0D4
:1058800039F83760204609F035F8E248006837619A
:105890003560204609F02EF83760204609F02AF8D6
:1058A000DC480068376137613560204609F022F82E
:1058B0003760204609F01EF8D64800680C90376122
:1058C0003560204609F016F83760204609F012F8D6
:1058D000D04800680B9037613560204609F00AF81F
:1058E0003760204609F006F8CA4800680A90376118
:1058F0003560204608F0FEFF3760204608F0FAFFCA
:10590000C4480068099037613560204608F0F2FF0E
:105910003760204608F0EEFFBE480068059037610A
:105920003560204608F0E6FF3760204608F0E2FFC9
:10593000B8480068049037613560204608F0DAFF07
:105940003760204608F0D6FFB24800680190376102
:105950003560204608F0CEFF3760204608F0CAFFC9
:10596000AC4800680290376137613560204608F026
:10597000C1FF3760204608F0BDFFA64800680E90C2
:1059800037613560204608F0B5FF3760204608F0E3
:10599000B1FFA04800680F9037613560204608F0DD
:1059A000A9FF3760204608F0A5FF9A4800681190CB
:1059B00037613560204608F09DFF3760204608F0CB
:1059C00099FF94480068129037613560204608F0CE
:1059D00091FF3760204608F08DFF8E4800681390D5
:1059E00037613560204608F085FF3760204608F0B3
:1059F00081FF884800680690376135601095204621
:105A000008F078FF3760204608F074FF814800688E
:105A1000149037613560204608F06CFF37602046EF
:105A200008F068FF7B48006837610004C00F0890E9
:105A30001498800B02211491084007900698400B9F
:105A4000204006901398000B082113910840039002
:105A50001299C90A102212921140119A920A202317
:105A600011931A400F9B5B0A40250F952B400E9D0A
:105A70002D0A80200E9005405B19D21889180398D2
:105A80004018039002980004C00F02900198810B07
:105A90001498014001910498400B2040049005980F
:105AA000000B1399084005900999C90A129A1140F0
:105AB0000A9A920A119B1A400B9B5B0A0F9D2B407E
:105AC0000C9D2D0A0E9805405B19D218891805986F
:105AD00040180C903761109D3560204608F00AFF91
