:1000000000802020B7BB000027810000278100006E
:1000100000000000000000000000000000000000E0
:100020000000000000000000000000002781000028
:10003000000000000000000027810000DD960000A5
:10004000278100001DBB00002781000027810000E0
:100050002781000027810000278100002781000000
:100060000000000027810000278100000000000040
:100070000000000065BB00006DBB00005DBB000020
:1000800027810000278100002781000027810000D0
:100090002781000027810000000000000000000010
:1000A0002781000027810000000000000000000000
:1000B0002781000000000000278100002781000048
:1000C000F0B5F3B007930592799A0E92789E0025C9
:1000D000EF437090139112950878A84C201843783C
:1000E000D80628D513984A1CDB0606D5481C11787B
:1000F00061184B78521C0146F6E7139070A8B04780
:100100000446401C01D100F0FAFD0BF013FD9B48A2
:1001100000194078C00603D570A8B0470446F4E73C
:1001200070A80BF042FD1298401E1290601C934C78
:1001300001D100F0E4FD01200A9054A801466C3181
:100140000C9101460C3103910D30009014A8401C15
:1001500001900B950D971196029554A870210BF004
:10016000DAFB559770A813A912AA079B9847012894
:10017000109522D0002801D100F0A7FD401C029B61
:1001800001D100F0A4FD0F93274670A8B0470BF0F3
:10019000C0FC38194078C006F7D4374670A80BF079
:1001A00004FD1298411E1291601C39D10029109D46
:1001B0000F9A01D100F087FDB1E01398471C139707
:1001C000417800262A2935460BD101255495871CF4
:1001D000139706E0B819401C1390B85D71A98855B3
:1001E000761CBC5D204630380928F3D971A800215F
:1001F0000F9181550078002803D071A80BF08EF87C
:1002000055904C2C2FD0682C20D06A2C0BD06C2C05
:1002100010D0742C0AD07A2C16D10120000307E0EC
:10022000109D0F9A7BE00120C00201E001204003F5
:100230002D1819E0B919481C13904A786C2A4F4CB4
:1002400018D1012000020AE0B81910E0B919481CC1
:1002500013904A78682A494C0ED1012040022D188B
:100260005495881C0AE080355495B819401C119E9D
:10027000424C04E0403500E020355495119E411C6D
:10028000139103780C9A13705B2B28D10A785E2A9D
:1002900005D102210D435495811C139182785D2A6A
:1002A00006D1481C1390097854AA1173009901E0F3
:1002B000084603990F9D0278002A09D05D2A07D0CD
:1002C000421C139200784B1C087010461946F2E746
:1002D0000D705D2A01D1401C13900C9803781846CC
:1002E0005B38132800D94EE70121814024480142A0
:1002F00000D148E731461E4670AC20460F4688477D
:10030000054620460BF04EFC1299681C05D10029C9
:10031000109D324603D100F0D6FC109D3246099163
:100320001046583820284CD83E460D9F4000C04605
:1003300078448088400087445301260326031C012B
:100340002603260326032603260351002603CE0098
:1003500025005100510051002603250026032603E5
:100360002603260329032500250026032603CE00A5
:1003700026032500260326032500C046C0F30000FF
:10038000010108001746559C70A8B04721460BF0A4
:10039000C0FB14AD002934D014AD2D2C02D02B2C71
:1003A00000D0B2E014A8047070A80C46B0472146F3
:1003B0000BF0AFFB491EF64A00D1D3E00891019D36
:1003C000A5E01046413806283E460D9F00D990E032
:1003D000012181407120014200D18AE0559D70A821
:1003E000B047044614AB401C09D00BF0A3FB2B2CE8
:1003F00009D114AB002D0BD12B24002513E03C4672
:1004000011E00027B0E014AB002D0CD02D2C0AD148
:1004100014A8047070A8B0470446401C01D00BF02B
:1004200089FB6D1E019B204661381A2801D32046A6
:1004300001E0204620384928E24F109703D04E288B
:100440002AD1E14F10970026B5421BD01098805D4D
:10045000002816D0214661391A2901D3214601E02E
:100460002146203981420CD11F469C5570A8119914
:1004700088470446401C01D00BF05CFB761C3B46D1
:10048000E2E73546E81E41424141083D6842684185
:10049000084310909D1964E20022002D5CD0302C9E
:1004A0005AD10F9230201F46187070A8B0470446EA
:1004B000401C01D00BF03EFB7B1C681E002201217A
:1004C0001091002800D1AAE1214661391A2900D2F1
:1004D000A8E12146A8E1549901250846284049068B
:1004E000174676D4002800D00EE1059810C8059074
:1004F0000BE1252A00D046E270A8B047252801D09C
:1005000000F000FC0BF016FB40E20891AC4A002022
:100510003B46115C8B4204D0401C0728F9D10020D7
:1005200000E01018801A012813D1302C5CD10F95EF
:1005300070A81090B047054610980BF033FB2020B0
:100540008543583D109501D0082010903B460F9DE3
:100550004CE09E49085C48E01946109204920A98C3
:1005600008907CE10027019D3A4638460A990F9190
:1005700062E0559F5498022101400F9114AC002F66
:1005800000D148E170A8B0470546401C089000D152
:10059000B1E010942C46E8B2002303990E7886420D
:1005A0000A4600D01A46491C002E1346F6D10F9B6E
:1005B00059425941531E9A419142119E2546109C21
:1005C00000D098E0611C20700BF0B4FA7F1E0C463E
:1005D000D5E7002800D09DE0059810C805909AE066
:1005E00078220C980270CDE60A20109018466938DF
:1005F000C0B2102801D3002100E00121EA4FC7401A
:100600000F406F2B06D1302C0AD000200A990F9191
:10061000089A11E020463038414241410F42F4D05F
:1006200028466D1C047070A8B0470BF072FA089A47
:10063000521E00200F900A98002F24D0002A22D0AA
:10064000002820D020202146814358291BD1089220
:1006500070AF3846B047014638460F460E9A90476D
:10066000E148C0194078800701D4089A0BE02C704B
:1006700070A8B0470BF04DFA089A521E00D138E32B
:100680006D1C102010900A9F002A23D01098082873
:1006900004D107202146814330290ED010980A2822
:1006A00003D1204630380A2807D31098102811D1DA
:1006B000CD480019407880070CD56E1C2C7070A8AE
:1006C00011991446884722460BF023FA521E002740
:1006D0003546D9E770A80BF068FA1298401E1290C0
:1006E0000020287005460F98384001280D9F119E64
:1006F00000D04BE1F5E270A80BF054FA129809997A
:10070000814200D087E004E300245598002841D4BA
:10071000054640E000245598002800D40546632A89
:1007200000D0054670A8B04701460BF003FA632FCE
:1007300005D1481E0222D24390420FD917E0481C2F
:10074000022801D3002000E00120A74A5218527865
:10075000D2060A9A00D40246002A08D1002D06D0FB
:10076000002C01D002C400E000246D1EDAE770A85E
:100770000E9A90471298401E12900999814200D11A
:10078000B7E2732F49D1002C47D00020206044E00D
:100790002C0001000125632A00D0054670A8B0474F
:1007A00001460BF0C7F9632F05D1481E0222D24340
:1007B000904217D921E0481C022809D3002008E004
:1007C0002C000100BDFF0000D3000100AAF70000CB
:1007D0000120854A52185278D2060A9A00D402465D
:1007E000002A0AD1002D08D0002C03D0601C2170F3
:1007F000044600E000246D1ED0E770A80E9A9047D2
:100800001298401E12900999814200D171E2732F13
:1008100003D1002C01D0002020700D9FB6E004927F
:10082000154618E021462039582912D17C7070A84D
:10083000119988470446401C01D00BF07BF9BA1C83
:10084000AD1E00200A9904911146109008900F9A4D
:1008500005E0049205460A9808900F9A19460692F8
:1008600016460F95002D0D466ED02B2C39D02D2C11
:1008700037D02E2C2FD0452C01D0652C0BD10898C9
:10088000002846D0109800285ED0002A5CD10120B4
:10089000074610904AE020463A380A21C943884268
:1008A00029460CD8049800284ED04F4800194078AB
:1008B000800704D4202020437028E3D044E02B2C70
:1008C0000FD02D2C0DD0702CDCD0502CDAD0652C14
:1008D000D5D02E2C1DD10698104335D1012006907D
:1008E00023E00898002808D0481E00782021014302
:1008F0006529294601D1174618E00498002823D01D
:10090000481E00782021014370291DD11746294631
:100910000CE0002A07D0204630380122092813D8DD
:100920001746164602E00120109000270C7070A8B0
:10093000119988470446401C01D00BF0FBF8691C54
:100940000F9D6D1E3A468CE71099481E814110910B
:10095000701E8641002A0A9800D030461099014046
:1009600010910D9F70A80BF020F9601C02D0129915
:10097000491E129100212970129A099B9342119EDF
:10098000109D00D1A8E1012D00D0B3E10C980178B1
:10099000012508465B381D283ED804A2124C4000B1
:1009A000105A40008744C046818000002400220085
:1009B00022002200220022004600220057014600A9
:1009C0004600460046002200460022002200220087
:1009D0002200A30046004600220022005701220008
:1009E0004600220022004600C0F30000FFF7B5FBDE
:1009F0005499C80701D0FFF7B0FB05980068490675
:100A000000D5C8E014A94A1C0978431C01700029CC
:100A100018461146F7D1C7E0084641380628BF4CB2
:100A200001D9FFF79AFB012282407120024201D1D5
:100A3000FFF793FB14A80078002800D10BE154982D
:100A4000C20700D007E10B46613B172B3AD80022C2
:100A50009B0002A4E358B14C9F46C046D90A00004F
:100A6000570C0000570C00006B0B0000D90A000067
:100A7000D90A0000D90A0000570C00006D0B0000D5
:100A8000570C0000570C0000570C0000570C0000DA
:100A9000570C0000BD0A00008F0B0000570C00002F
:100AA000570C0000570C0000570C0000BD0A000056
:100AB000570C0000570C0000BD0A000078293FD0F9
:100AC00008223EE04139062900D9C4E001228A40CB
:100AD00071210A4200D1BEE0C021084080281ED00A
:100AE000402826D114A8002104F01CFD1BE05498D6
:100AF000C10701D0FFF731FB89490840411E02467A
:100B00004A408A4200D894E0002800D183E0414264
:100B1000014084484143C80E83A1085C7CE014A8CE
:100B2000002104F0FFFC059B04CB0593106051608D
:100B300091E014A8002104F0F5FC09F089FE87E09B
:100B40001022752900D10A2275490840411E03462A
:100B50004B408B4242D900282ED04142014071487F
:100B60004143C80E70A1085C27E00A226C49084086
:100B7000411E03464B408B4248D9002833D04142A6
:100B8000014068484143C80E67A1085C2CE014A8E6
:100B90000021102224E014A90A78002A02D0491C5E
:100BA00004C0F9E7002101600598001D05900B982D
:100BB000401C0B90FFF7D1FA2020401F08280DD8C9
:100BC0007844007940008744580909045D09043AD3
:100BD0003A0014A8002107F065FBA4E714A800213F
:100BE00008F08EF834E02020401F08280ED8C046B8
:100BF00078440079400087444A09090452090427CF
:100C0000270014A8002106F05BFC8CE714A8002143
:100C100007F0FEFD1CE02020401F082809D8C04630
:100C200078440079400087444204041F48041F04AC
:100C3000040012980AF08EFF0860FFF78EFA14A8DD
:100C4000002107F02FFB03E014A8002106F038FC78
:100C50000AF080FF086054980125294681430B98CB
:100C600008180B90FFF779FA1298C117059B04CB6F
:100C7000059310605160FFF770FA14A8002108F086
:100C80003FF808E014A8002108F03AF80BE014A897
:100C9000002107F0BDFD0AF05DFF0880DBE714A826
:100CA000002107F0B5FD0AF055FF0870D3E7129850
:100CB0000AF050FF0880FFF750FA12980AF04AFF36
:100CC0000870FFF74AFA0D9F19E00B9F17E00B9889
:100CD000002814D0074612E0002800D121460D4616
:100CE00008E0129809994140E043084302D1ED43DE
:100CF00000E00D9D0B98002800D005462F46384691
:100D000073B0F0BD054670A80AF04CFF681CF1D026
:100D100002E008980028EDD00025EBE7C0F30000C2
:100D2000603F000031B57C0700011C021D0E180356
:100D30001E16140F191104081F1B0D171513100789
:100D40001A0C12060B050A09F0B5FFB08EB0049319
:100D500006920646929802900025E84305908C91F1
:100D6000346820460AF098FE21188B9503918C4236
:100D700000D3BCE00020879087A90873889005986D
:100D800089902F46049D2078002800D1B2E02528C4
:100D900005D0641C34600699A8477F1CF3E78B9745
:100DA000601C306087AC2046314600F0BBF88CAA4E
:100DB0002046314600F0D7F8306801780B46683B92
:100DC0000122D341092B2BD87B441B795B009F4424
:100DD00004130A2727271627271943788799682B92
:100DE00019D1520204E0437887996C2B10D112027A
:100DF00011438791801C12E08799D20204E0879901
:100E0000520301E0879912030A438792401C06E0CF
:100E1000401C402201E0401C2022114387910178B0
:100E2000441C346087A80173732913D06E291DD127
:100E3000879832490840411E02464A408A423CD9BE
:100E400000282DD0414201402D484143C80E2DA11C
:100E5000085C26E087A80078400619D4009587A88A
:100E60008CAA8BAB069900F03DF92AE007AD87A963
:100E70008CAA284600F08CF9024628460699029B67
:100E80009847411C059D00D0C5198B9503991AE020
:100E9000009587A88CAA8BAB069900F0C0F810E0EB
:100EA0002020401F082808D8784400794000874453
:100EB0001904040D14040D0404008C9802C88C90CD
:100EC0000F6003998B9D681C13D050E7F8178C991D
:100ED00004C98C9117605060F3E78C9802C88C901D
:100EE0000F70EEE78C9802C88C900F80E9E72F46D0
:100EF00000E0059F38467FB00EB0F0BD603F0000B7
:100F000031B57C0700011C021D0E18031E16140FBC
:100F1000191104081F1B0D17151310071A0C1206C0
:100F20000B050A0910B50A680124E3071AD01378E3
:100F3000302B0CD0232B0ED02B2B0AD02D2B04D0F2
:100F40000024202BF1D1042306E0012304E0102328
:100F500002E0022300E0082304681C430460521CE2
:100F60000A60E1E710BDFEB516460D460446086866
:100F700002782A2A10D13068011D31600068606053
:100F8000002805D5404260602068012101432160AE
:100F90002868471C2F6017E00021303A092A08D83A
:100FA0004218531C2B60435C6F467B545278491C9B
:100FB000F3E76A460023535412784718002A03D0F7
:100FC00068460AF0ABF9606038782E2826D1781C84
:100FD000286079782A2908D13068011D31600068BD
:100FE000A0602868401C2860FEBD00203039092917
:100FF00008D839188A1C2A604A786B461A548978AE
:10100000401CF3E76A46002111541078002804D0F0
:1010100068460AF083F9A060FEBDA160FEBDF0B590
:1010200087B01E460C9F13681C1D14601D68002DA0
:101030003AD0049106908468002C04D428460AF023
:101040001BFD844203D328460AF016FD0446069889
:101050004068A042039000DC2046014630680191C0
:10106000401805940399A142029630600EDD06985F
:101070000078C0070AD1059801990E1A0024B442DD
:1010800004DA20200499B847641CF8E70026049C81
:10109000069805998E420ADA2868010A18D12D1D92
:1010A0002146B847761CF3E70020B84718E00599B9
:1010B000039A8A4214DD0078C00711D00198451ABE
:1010C0000024AC420CDA20200499B847641CF8E7ED
:1010D0000020C043029908600AF054FD58210160C5
:1010E00007B0F0BDF0B585B00C4606460A9D106805
:1010F000011D116000680490002844D00393B76874
:10110000002F04D404980AF0C7FC874203D3049844
:101110000AF0C2FC074602967268BA42114600DC29
:101120003946039B1868009140180192BA42186032
:101130000FDD02980078C0070BD10098C01B039008
:1011400000260398864204DA20202146A847761C10
:10115000F7E70026BE4205DA0498805D2146A847DD
:10116000761CF7E70198B84210DD02980078C007B6
:101170000CD00098C61B0027B74207DA2020214672
:10118000A8477F1CF8E700202146A84705B0F0BD1E
:10119000F0B589B005920E4604467F2080002718DE
:1011A0004868039000250795FF210491FE31202215
:1011B000204601920AF0A8FB3046089702977D70FE
:1011C000367B31466339152906903DD801228A4085
:1011D000604B1A42069822D007A908AA059B00F086
:1011E000BDF806980025067B012731466F3909298D
:1011F000059504D801228A4057490A423FD1582E0A
:101200003DD0016802230B40079A002A27D0089995
:101210004A1E08922D220A705F425F412FE000298A
:1012200012D1059B1A68111D19601268D1B24D4286
:101230004D410499FC316118089102990A700268C5
:1012400002218A430260CEE7252E02D0582EC3D059
:10125000CAE70020607025202070012078E0002B74
:1012600007D149070BD5089A511E089101991170B1
:1012700005E0089A511E08912B211170002703994F
:1012800003976518089B0178C907264608D102997B
:10129000491CC91A42689142264601DC691A4E1C53
:1012A000591C04984300002730463A460AF0A6FA33
:1012B00008900599002903D0411C0891077000E0AF
:1012C0000146A94206D8481E691A491C20220AF084
:1012D0001BFB2F7006980078C00606D4311B202215
:1012E00020460AF011FB059D2EE0A642059D2BD05D
:1012F000311B302720463A460AF006FB069B07982A
:101300004142414103980140012905D11878400725
:1013100002D43046214604E03078611C2070701CF5
:1013200037701A7B412A0CD0582A05D0612A08D080
:10133000782A01D0702A07D11B781B0701D4612AB3
:1013400002D142784A70477020460AF0A5FB401946
:1013500009B0F0BD4230240043020000F8B5144645
:101360000F4605468068002804D428681021884369
:10137000286001E00120A860287B1026582808D0AA
:10138000782806D0702804D06F2801D1082600E004
:101390000A262846194600F055F8AA68002A09D1FD
:1013A00002460A4306D12878000749D52B7B002046
:1013B000024612E02B7B642B03D16423002905D461
:1013C0000AE0692B08D1002906D5692301223A6079
:1013D000002240428A4100E00A460094114632460B
:1013E00000F0CEF8A968884206DA401C21684A1E3F
:1013F000226030220A70F5E7287B582803D078282D
:1014000001D070280FD1297809070CD5702800D198
:10141000782021684A1E226008702068411E2160E1
:1014200030210170287B6F280AD12878000707D562
:1014300020684178302903D0411E2160302101709D
:10144000F8BDC04610B5037B702B05D10868021D9E
:101450000A60006800227BE002683E481040421E9D
:1014600004465440944216D9002807D04242024014
:1014700039485043C00E39A2105C00E02020401FC4
:10148000082808D878440079400087444C04041E9A
:1014900038041E04040000221846643814280DD8AD
:1014A00001248440354804420AD12120044205D059
:1014B0000868021D0A600068C21749E0582B46D12F
:1014C0000868031D0B60006842E018466438142861
:1014D00007D8012282402948024206D12120024237
:1014E00003D10020582B024632D10868C21D0720C4
:1014F00082431046083008601068526828E00022D5
:1015000018466438142807D8012484401B48044234
:1015100004D121200442CBD1582B18D10868031DD7
:101520000B60007814E0002218466438142807D8AD
:10153000012484401148044204D121200442B7D13F
:10154000582B04D10868031D0B60008800E010468A
:10155000114610BD603F000031B57C0700011C0240
:101560001D0E18031E16140F191104081F1B0D174A
:10157000151310071A0C12060B050A0900081200B1
:10158000FEB501920D460646582B01D0174800E0E3
:1015900015480090089802903046284305D1029AD9
:1015A0001068411E116030210170019C30462843B3
:1015B00013D030462946224600F01AF807460D4659
:1015C00022460AF009F9301A0099085C029B196852
:1015D0004A1E1A6008703E46E8E7029800680AF062
:1015E0005BFA401EFEBDC04633FC000066FC0000F6
:1015F00080B5102A06D0082A09D1C0084A078018E9
:10160000C90880BD00090A078018090980BD0029A2
:1016100004D1114609F0C4FE002180BD00230AF068
:10162000DDF980BDF0B59DB0094F3878042800D9A8
:1016300082E2810001A251588F46C0465516000033
:101640005B170000C5190000391B0000471D000092
:10165000A92820200024009405208601AA232046E2
:1016600021463246089302F01BFF35468F35009520
:101670001A23204621460B96324602F011FF102015
:1016800000950A9001900294C24A08200421C24B9E
:10169000079009F025FDC14800781F26002835462F
:1016A00000D025460095BC4F00D0BD4F20213823E7
:1016B00020460B9A059302F0F3FE00950A980190DC
:1016C0000294B84A0C20242109903B4609F008FDF9
:1016D000B24F38780128069600D026460096AE4DC7
:1016E00000D0AF4D5023204605990B9A059302F088
:1016F000D7FE00960A9801900294AB4A3C210998C3
:101700002B4609F0EDFC38780228069800D02046D8
:1017100007460090A04D00D0A14D682320460599B2
:101720000B9E324602F0BCFE00970A9F019702947E
:101730009E4A542109982B4609F0D2FC9C4D0095F5
:10174000982120463246089B02F0AAFE0095019798
:101750000294984A9A210798F0E20520860106F043
:1017600041FB0B9000240094AA23204621463246D8
:1017700002F096FE35468F3500951A232046214605
:10178000324602F08DFE102000950546019002942D
:10179000894A08200421804B09F0A2FC0B990029FA
:1017A00000D1D9E206950A9684480078884202D38F
:1017B000481E824A1070C0B2001F08907C4D00D2B3
:1017C00008940CA80C300790682602220BE03146E2
:1017D0001839002000900A9A334602F061FE48361C
:1017E000099AD21C0B99089809921718B81EC4B20E
:1017F0008C421BD20CA9204607F024FE002815D0ED
:101800000CA8037841888088079A00920191029081
:1018100013AD282128466A4A09F018FD6748017867
:10182000002004918C4256D0024655E0314648399A
:101830003346303B002000900A9A02F031FE781EB9
:10184000C4B20B9884421BD20CA9204607F0FAFDC3
:10185000002815D00CA8037841888088079A009248
:101860000191029013AD28212846554A09F0EEFC5B
:1018700052480178002004918C424CD002464BE043
:10188000314630393346183B002000900A9A02F066
:1018900007FEB02E00D142E2FCB20B98844296D2F1
:1018A0000CA9204607F0CEFD002890D00CA80378A4
:1018B00041888088079A00920191029013AD2821F7
:1018C00028463F4A09F0C2FC3C4807780020BC4249
:1018D00041D0034640E01F22314648393346303B71
:1018E000059200920A9A02F0DBFD28780028304D1C
:1018F000A5D004988442284B069A00D0284B314644
:1019000044390020059C0094019202900C2013AAF7
:1019100009F0E6FB93E71F22314630393346183B86
:10192000059200920A9A02F0BBFD28780028204D0B
:10193000AFD004988442184B069A00D0184B314619
:101940002C390020059C0094019202900C2013AACF
:1019500009F0C6FB9DE71F230A9A31461839059303
:101960000093334602F09CFD28780028104D00D1EA
:1019700035E7BC42084B069A00D0094B3146143972
:101980000020059C0094019202900C2013AA09F0FB
:10199000A7FB24E7CFFF0000FFFF00009A282020CC
:1019A00018C600008CFF0000E6FD00000DFD0000E1
:1019B0003084000088FC0000930001008C28202067
:1019C0003DFD0000E34E052080010B900CA809F0BE
:1019D000CDFFFD48007802281BD000240094AA23E4
:1019E000204621460B9F3A4602F05AFD3D468F3570
:1019F00000951A23204621463A4602F051FD102058
:101A0000009501900294F44A08200421334609F01D
:101A100067FBF24D0C9B0D980090F14A13AC282106
:101A2000204609F013FC002600962021382330467A
:101A30000B9A02F035FD2078002809D0102000967E
:101A4000019002960C20242113AA2B4609F048FB92
:101A50000AF03CF805460AF03FF80090E14A13AC62
:101A6000282120462B4609F0F1FB0096382150230F
:101A700030460B9A02F014FD2078002809D010207F
:101A80000096019002960C203C2113AAD34B09F03A
:101A900027FB09F0E1FF054609F0D6FF0090D24A86
:101AA00013AC282120462B4609F0D0FB009650218C
:101AB000682330460B9A02F0F3FC20780028C74BCD
:101AC00008D010200096019002960C20542113AAF1
:101AD00009F006FB0096682180230A9330460B9F8D
:101AE0003A4602F0DDFC1024009601940296BF4AAB
:101AF0000C256C212846B94B09F0F2FA00963A46BB
:101B0000982730460A993B4602F0CAFC0096019499
:101B10000296B74A84212846B04B09F0E1FAB54D48
:101B20000095AA23304639460B9A02F0B9FC00957D
:101B300001940296B04AFFE00527BC0100260096FA
:101B4000AA2330463146224602F0AAFC25468F35AC
:101B500000951A23304631460B94224602F0A0FC31
:101B600010200095079001900296A74A08200421B2
:101B7000974B09F0B5FAA5480078062802D3A34888
:101B800007703846001F099000D209966826022186
:101B90000AE031461839002000900B9A334602F0D3
:101BA0007FFC48360A99C91C09980D18A81EC4B2B2
:101BB000052C0A9108D808959448007800250490CF
:101BC00084420BD028460AE0314648393346303B40
:101BD000002000900B9A02F063FC23E01F20E1003C
:101BE0008B4A5758314648393346303B069000906F
:101BF00028460B9A02F054FC059738780028089D77
:101C000010D004988442724B00D0744B3146443952
:101C10000020069A0092079A019202900C20059AE1
:101C200009F05EFA681EC4B2062C07D27748007825
:101C30000027069084420BD038460AE031463039FE
:101C40003346183B002000900B9A02F029FC22E05A
:101C50001F20E1006E4A5258314630393346183B56
:101C600008900090384617460B9A02F019FC387815
:101C7000002810D006988442554B00D0574B31466F
:101C80002C390020089A0092079A019202900C20A9
:101C90003A4609F025FAB02E2BD0ECB2062C00D330
:101CA00077E75A4805780020AC4201D0034600E0AF
:101CB0001F23E100564A57583146183908930093BC
:101CC0000B9A334602F0ECFB3878002800D168E725
:101CD000AC423F4B00D0414B314614390020089AAA
:101CE0000092079A019202900C203A4609F0F8F906
:101CF00057E7484E3078002800D1474E3D4C0094BD
:101D000000279821AA2338460B9A02F0C9FB0094B9
:101D100007980190029708209A2132460EE000951C
:101D200000249821AA2320460A9A02F0B9FB0095C4
:101D3000069801900294314A08209A21244B09F018
:101D4000CFF9224F387823490870344801210170B7
:101D50001DB0F0BDFFFF00000024009420213820BA
:101D60000B90204632460B9B02F09AFB00940195A3
:101D70000294234A0C200A902421184B09F0B0F950
:101D80000094502320460B99324602F089FB0094C0
:101D9000019502941B4A3C210A98104B09F0A0F9C6
:101DA000144800909821AA232046324602F078FB7E
:101DB00010480090019502940F4A08209A21044B84
:101DC00009F08EF9BEE7C046AA282020A9282020C5
:101DD000FFFF0000AA2820208000010018C6000094
:101DE000BFFE0000BBFC00009EFB00002DFD0000BC
:101DF0008DFE000030840000C6000100EDFC0000F4
:101E0000A0FF0000D7FB0000FCFF00008928202075
:101E1000B4F800002827202013FE0000A828202066
:101E2000F0B5BDB00546BA4908F06AFA00283BD0C3
:101E3000B849284608F064FA002843D00127B6497B
:101E4000284608F05DFA002856D009970024B349C7
:101E500003E0E41C012A00D1B8E02A5D0B5D9A4240
:101E600000D092E0002A00D1B0E02A190B19567870
:101E70005F78BE4200D088E020460938474247419B
:101E8000002E099E00D03E46002E00D09EE09278A3
:101E90009878824279D12046083843424341002A4B
:101EA000099AD6D01A46D4E7012702F043FD03462B
:101EB0009B4A0EAD3021284609F0C8F9284609F0A2
:101EC000E9F8F1E202F036FD044609F073FC00285F
:101ED00000D18BE006F028F9002800D140E2914EB5
:101EE000914C924809F0D6F82EA818300890E41CBE
:101EF0000020099060252FE102F01CFD054609F045
:101F000059FC00287BD006F00FF9002800D1CBE265
:101F100009978548C51C002660270896844C02E076
:101F20007F1E00D161E23C352EA93C22284605F0F7
:101F3000A3F8002800D156E22EA80178A529EFD1F8
:101F400080790128ECD12EA840880028E8D02EA95D
:101F50008A88002AE4D0309B72495918A142DFD305
:101F60003199424350008142DAD1581814306E4AF8
:101F70009042D5D201200003081813306D49084063
:101F800086190898401C0890CAE700206A49099FF2
:101F900002E0C01C012A6CD02A5C0B5C9A4239D149
:101FA000002A66D02A180B1856785C78A64231D1E0
:101FB000002E5ED092789B789A422BD1841F634288
:101FC0006341002A3A46E4D01A46E2E70B355B4902
:101FD0002EAA284609F04AFB012800D095E02E9849
:101FE000FE2800D991E006F011FA5CE2544A0EADE9
:101FF00040212846234609F029F92846AEE1504AF7
:102000000EAE402130462B4609F020F9304609F04B
:1020100041F849E200204B4903E0C01C012A00D1ED
:10202000C1E12A5C0B5C9A4200D09BE1002A00D1FE
:10203000B9E12A180B1856785C78A64200D091E1D5
:1020400004460C3C67426741002E099E00D03E4684
:10205000002E00D0A7E192789B789A4200D081E1CF
:1020600004460B3C63426341002A099AD5D01A46C4
:10207000D3E7093531492EAA284609F0F7FA012895
:1020800000D09DE12E9EFE2E00D999E106F04CF87D
:10209000002800D198E1264C2348C51C602702E0A7
:1020A0007F1E00D190E13C350EA93C22284604F069
:1020B000E3FF002800D187E10EA80178A529EFD120
:1020C00080790128ECD10EA841880029E8D00EA81B
:1020D0008288002AE4D01098124BC318A342DFD3A1
:1020E000119B4A4351008B42DAD1C21814320EA917
:1020F0000D4B9A42D4D24978B142D1D106F096FE26
:10210000002800D1CFE11048D2E11048C9E1C04613
:102110001C000100B4FF0000C6FF0000B3FE000079
:10212000CCFC0000000081FF01007F00AAFC000041
:10213000001081FF00F0FFFF6EFF0000E1000100D2
:10214000BAF900009BFD000022FE000077FC0000B1
:10215000F84E2D1F00D1AFE120463C302EA93C2285
:1021600004F08AFF002800D1F7E02EA80178A52905
:1021700031D1807901282ED12EA8408800282AD07C
:102180002EA98988002926D0309A9319F24FBB4294
:1021900021D3319E0B4643435B009E421AD19319D3
:1021A0001433EF4FBB4215D22EAB5B780793329FAF
:1021B000089B009301ABC3C305920EAE802130464D
:1021C000ED4A079B09F042F8304608F063FF099892
:1021D000401C0990E14E204678302EA93C2204F0A4
:1021E0004BFF002800D1B8E02EA80178A52931D1F5
:1021F000807901282ED12EA8408800282AD02EA927
:102200008988002926D0309A9319D34FBB4221D315
:10221000319E0B4643435B009E421AD193191433FF
:10222000CF4FBB4215D22EAB5B780793329F089BF2
:10223000009301ABC3C305920EAE80213046CE4A57
:10224000079B09F003F8304608F024FF0998401C6A
:102250000990C24E2046B4302EA93C2204F00CFF57
:1022600000287AD02EA80178A52931D180790128BB
:102270002ED12EA8408800282AD02EA9898800298E
:1022800026D0309A9319B44FBB4221D3319E0B46CE
:1022900043435B009E421AD193191433B04FBB42A3
:1022A00015D22EAB5B780793329F089B009301AB4E
:1022B000C3C305920EAE80213046AF4A079B08F09B
:1022C000C5FF304608F0E6FE0998401C0990A34E71
:1022D000F0342EA93C22204604F0CEFE00283CD04B
:1022E0002EA80178A52900D033E78079012800D0F5
:1022F0002FE72EA84088002800D12AE72EA9898838
:10230000002900D125E7309A9319934FBB4200D2A0
:102310001FE7319E0B4643435B009E4200D017E708
:10232000931914338E4FBB4200D311E72EAB5B7869
:102330000793329F089B009301ABC3C305920EAE77
:10234000802130468C4A079B08F080FF304608F019
:10235000A1FE0998401C0990FAE6844808F09AFE0C
:102360000127A1E000207449099F02E0C01C012A56
:102370007CD02A5C0B5C9A4246D1002A76D02A187F
:102380000B1856785C78A6423ED1002E6ED092781B
:102390009B789A4238D1841F63426341002A3A46AF
:1023A000E4D01A46E2E70E3569492EAA284609F01C
:1023B0005DF9012874D12EA8007809F06FF972E058
:1023C000644808F067FE6FE01F2E70D8700401218A
:1023D0000903401806F02AFD0028099F64D06148CF
:1023E00008F058FE60E061485BE0614B981B08997B
:1023F000C9B20096019002915E4A0EAD6021284656
:1024000008F024FF28464CE000224C49089202E0E4
:10241000D21C012B5CD0AB5C885C834256D1104649
:10242000093846424641002B384600D03046002845
:102430004ED1AB188E185F787078874246D114461B
:10244000083C60426041002F099F00D00746002FE2
:10245000099F3DD19B78B078834237D1D41F604229
:102460006041002B3B46D3D00346D1E709350AA88B
:1024700002900BA801900CA8009034490EAA0DAB55
:10248000284609F0F3F805283BD10DA802880CA8CE
:1024900003880B980A9900900191FF200EA945E04E
:1024A0002C4808F0F7FD099F38463DB0F0BD2E4896
:1024B000099F08F0EFFDF7E70998C3B22F4A0EAC69
:1024C0008021204608F0C2FE204647E7089FEBE740
:1024D0000A350AA802900BA801900CA80090184990
:1024E0002EAA0DAB284609F0C1F82E9BFE2B01D871
:1024F000002100E001210528384600D108460128C6
:1025000003D1114808F0C6FDCEE70E4A0EAD1021EA
:10251000284608F09BFE2EA800780DA90A880CA971
:102520000B880B990A9C00910194294600F03EFF0C
:10253000BAE7C046000081FF64FF00001DFF0000F5
:1025400055FC00003A0001007DFD0000B1FB0000D9
:10255000E1000100D7FD0000001081FF000081FFB5
:1025600001007F0022FE000076FB000024FB00003B
:1025700000F07E00E4F80000F8F7000058FA0000D0
:10258000F0B5C5B00AA80790B6480078012800D079
:1025900037E209A808F09CFF002800D131E2079833
:1025A00020300790B04DB14CB14E05E009A808F0BD
:1025B0008FFF002800D124E2099829684A1C2A606C
:1025C000AC4B5854AC4F39680B0A4840C0B280003D
:1025D000AA490858584038602068401C20600121F2
:1025E000089109028A4202D031688842DED1A44EA5
:1025F0003068A04903F06EF9002800D1F6E12868A0
:1026000031680818306000272F6023681EAE28212B
:1026100030469C4A08F01AFE3046954E08F03AFDC6
:10262000216830688142C1D193490968CD439649F8
:1026300019919649098819AA918095490988D180EC
:1026400008991B911C901D95864807709148006859
:10265000A84200D0D0E19048006819A9142203F0E4
:1026600039F9002800D1C9E18C48C41C03953C34D9
:102670001EA93C22204604F0FFFC002807D01EA81B
:102680000078FF2800D1C0E17F1C602FEFD1834884
:10269000C51C0027602182480590069128463C30E1
:1026A00036A93C26324604F0E7FC002800D19BE125
:1026B00036A80178A52929D18079012826D136A804
:1026C0004088002822D036A9898800291ED0389A4F
:1026D000744BD318744CA34218D3399B4143480020
:1026E000834213D1D01814306C4988420ED27C1C1E
:1026F000F8B246436A48801936A94CC94CC0CCC9C7
:10270000CCC0CCC9CCC0CCC9CCC000E03C4628462B
:10271000783036A93C26324604F0AEFC002800D1C1
:1027200062E136A80178A52929D18079012826D12E
:1027300036A84088002822D036A9898800291ED0D2
:10274000389A584BD318584FBB4218D3399B414342
:102750004800834213D1D0181430504988420ED219
:10276000671CE0B246434E48801936A91CC91CC0FC
:102770005CC95CC05CC95CC05CC95CC000E0274649
:102780002846B43036A93C26324604F075FC0028B1
:1027900000D129E136A80178A52929D1807901281D
:1027A00026D136A84088002822D036A98988002959
:1027B0001ED0389A3B4BD3183B4CA34218D3399BBD
:1027C00041434800834213D1D01814303349884222
:1027D0000ED27C1CF8B246433148801936A94CC948
:1027E0004CC0CCC9CCC0CCC9CCC0CCC9CCC000E09A
:1027F0003C46F03536A93C262846324604F03CFCDF
:10280000002800D1F0E036A80178A5294ED18079C2
:1028100001284BD136A84088002847D036A989889E
:10282000002943D0389A1F4BD3181F4FBB423DD3CA
:10283000399B41434800834238D1D018143017499E
:10284000884233D2671CE0B246431548801936A946
:102850001CC91CC05CC95CC05CC95CC05CC95CC0F4
:1028600025E0C04699282020382820202C28202028
:10287000B42720208023202034282020C0EF00000F
:102880006428202021FC0000494D4730802820206A
:1028900096272020B0272020AC27202001007F0091
:1028A00000002020000081FF001081FF27460698CD
:1028B000011F00D0F1E6E448451E284605F0C6F8A1
:1028C000002800D190E0E14805F0C0F8002800D1D0
:1028D0008AE0DF4805F0BAF8002800D184E0DD483E
:1028E00005F0B4F800287FD0DB4805F0AFF80028E9
:1028F0007AD0DA4805F0AAF8002875D0D84805F053
:10290000A5F8002870D0D74805F0A0F800286BD0B3
:10291000FF20C00305F09AF8002865D0D24805F0E2
:1029200095F8002860D0D14805F090F800285BD0D9
:10293000CF4805F08BF8002856D0CE4805F086F831
:10294000002851D0CC4805F081F800284CD0CB4865
:1029500005F07CF8002847D0C94805F077F8002832
:1029600042D01EAE304614302C21FF2208F0CCFF9E
:10297000C4481E90C4481F900898000320902195D9
:102980000024229440222846314602F0A3FF00286A
:102990002AD0380612D0FEB2AB4D3F35602C23D082
:1029A0003C222846059902F095FF00281CD0641CA3
:1029B00005983C3005903C35A642EFD1B44808F06C
:1029C00069FBA148C41C00273C341EA93C222046B8
:1029D00004F052FB002807D01EA80078FF2812D070
:1029E000781C07466028EFD1A84808E000208C49F1
:1029F000087028608C4802E08E4800E08F4808F09C
:102A000049FB45B0F0BD874E039D0AAC201D38211F
:102A1000FF2208F079FFA52020709E4800786070A2
:102A200082480088608082480088A0800898A07151
:102A3000814800680C9030680D900E958248C51C46
:102A400000200490602603E02746069C761E35D0C1
:102A50003C351EA93C242846224604F00DFB0028E4
:102A60002CD01EA90A78A52AF0D189790129EDD1A7
:102A70001EA94A88002AE9D006943C461EA98F88E0
:102A8000002FE1D0209B6F4905935B186C498B4266
:102A9000DAD3219B57437A009342D5D1239A0499E4
:102AA0008A42274600D8049A0599C9181431664B02
:102AB0009942069C00D3049A0492C7E7002803D1E8
:102AC000584E079D089803E00498401C554E079DFA
:102AD0000F9071490A780AA80276002A47D04A78EE
:102AE0000AA84276002A45D08A780AA88276002A67
:102AF00043D0CA780AA8C276002A41D00A790AA827
:102B00000277002A3FD04A790AA84277002A3DD0AE
:102B10008A790AA88277002A3BD0C8790AAAD07796
:102B2000002839D0087A2870002838D0487A687090
:102B3000002837D0887AA870002836D0C87A079A3B
:102B4000D070002835D0087B079A1071002834D047
:102B5000487B079A5071002833D08A7B079BD81D89
:102B60009A71002A31D0C97B0170079D31E019307C
:102B70000F212CE01A300E2129E01B300D2126E018
:102B80001C300C2123E01D300B2120E01E300A21D7
:102B90001DE01F3009211AE00821284617E0681CB3
:102BA000072114E0A81C062111E0079DE81C05215F
:102BB0000DE0079D281D042109E0079D681D0321E4
:102BC00005E0079DA81D022101E00121079D08F0F5
:102BD000A2FEF9B20020E87130485F2900D90EE763
:102BE0007F210F4067431849CA193F320AA9054699
:102BF0001046224602F06EFE01462846002900D10A
:102C0000FDE6244803783068009003980190244A38
:102C10001EAC6021204608F019FB2046EFE6C046B6
:102C200099282020B42720200EFB00008028202097
:102C3000962720203EFE0000AC27202099FC0000B3
:102C4000001081FF000081FF01007F0000107F0065
:102C500000207F0000307F0000407F0000507F0098
:102C600000607F0000707F0000907F0000A07F0068
:102C700000B07F0000C07F0000D07F0000E07F0038
:102C800000F07F004D4944580100600039FB00000E
:102C90009FFA00008B282020682720205DFD00007F
:102CA00093F90000F0B5C9B0044602E0092808D144
:102CB000641C20781F28F9DD2028F9D03E28F7D0A1
:102CC00003E0002801D122462CE0651C284608F0CC
:102CD000A6FD421C2918824201D20A4622E0201891
:102CE00003E0C91EC01EA34215D90278202A01D0D4
:102CF000092A10D1A04210D9421E1378202B01D0EE
:102D0000092B0ED1A2420AD9831E1D78202DE8D0AE
:102D1000092DE6D006E0421C04E0024602E08A1ECD
:102D200000E04A1E002515702178002922D0204697
:102D300004E0C21CC178002910461BD00A46613A43
:102D4000D2B2192A01D8203901704178002911D056
:102D50000A46613AD2B2192A01D8203941708178E5
:102D6000002907D00A46613AD2B2192AE1D820399F
:102D70008170DEE720784C285FD1607854285CD1E0
:102D8000A078552859D1E078522856D120794E287C
:102D900053D16079202850D1A01DF84908AA08F025
:102DA00065FC012800D090E2F54D287800284BD131
:102DB000F44F3868F4490968401A45D409A808F066
:102DC000D5FDF2480024047008F00AFBF0480460C6
:102DD000F048046001262E7038687D2109014018F2
:102DE0006438E9490860089D2846214608F09DF8A6
:102DF0000028304600D1E043E749086028462146D4
:102E000008F081F8002801D0F0074540E349284642
:102E100007F0BAFAE24907F0E7F9E24908600998D1
:102E2000E14908600A98E1490860E14808F05AFE63
:102E3000E04808F057FEE04869E2D24F3968204682
:102E400006F0C2FF002801D049B0F0BD06A808F086
:102E50008DFD0699079A204602F08CF9002806D0CD
:102E6000CB4800210160CB480160D4484FE2207874
:102E7000502823D16078492820D1A07844281DD13A
:102E8000E07820281AD1201D05A90091CC4909AA73
:102E900008AB08F0EBFB032800D018E20999C448FE
:102EA000089A059B0EC0C34C0EC40C3C0C3808F0AD
:102EB00019FE204608F016FEC24828E22078422873
:102EC00048D16078412845D1A078532842D1E07894
:102ED00045283FD1207920283CD1601D0025294676
:102EE00003F050F80646B84C214608F00CF8049060
:102EF000B64F3046394608F021F8002800D1374651
:102F00000498002800D13C46A04805709C480570F4
:102F100008F066FA9E4804602046294607F0EAFF5A
:102F2000002809D09B480560A14808F0DBFDA148B6
:102F300008F0D8FD08F062F80021204607F0F5FF00
:102F40000546F549204607F04FF9002D00D1C2E1B2
:102F50003F21C1E120784D2852D160784F284FD1D0
:102F6000A07854284CD1E0784F2849D120795228B4
:102F700046D16079202843D17D2000010890A01D12
:102F8000FD4909AA08AB08F071FB002800DCBDE18F
:102F9000099D00242846214607F0B5FF0490F84E0D
:102FA0002846314607F0CAFF002800D12E46F748D0
:102FB0000499002900D1344609940899814200D926
:102FC0000890DC4801210170DB480021017008F005
:102FD00007FA0998DD490860DD490860089800286B
:102FE00001D039680818DB490860DB4808F07AFD31
:102FF000DA4808F077FD089B0999E6480A4665E03B
:103000002078502866D16078572863D1A0784D2861
:1030100060D1E07820285DD17D2000010590201D41
:1030200005A90091D74909AA08AB08F01FFB02289F
:1030300000DA4EE1099E00243046214607F063FF86
:103040000490CF4D3046294607F078FF00282846E7
:1030500000D1304604990029214600D1014609914A
:10306000089E3046214607F04EFF04903046294620
:1030700007F064FF002800D13546C44804990029B0
:1030800000D12C4608940599814200D90590A948A1
:1030900001210170A8480021017008F0A1F90998E8
:1030A000AA4908600898AA4908600598002801D034
:1030B00039680818A7490860A74808F013FDA74811
:1030C00008F010FD059B089A0999B14806F0FEFF2B
:1030D00049B0F0BD207850287AD16078552877D152
:1030E000A0784C2874D1E078532871D120794528F4
:1030F0006ED1607920286BD1A01D9F4909AA08AB29
:1031000008F0B4FA022800D0FCE07D200490099C6D
:103110002046294607F0F7FE0390994E2046314697
:1031200007F00CFF002800D12646049800010399FF
:10313000002900D1354609950899814200D90890A7
:103140007C48012101707C480021017008F048F999
:1031500009987E4908607E4908603868089908180F
:103160007C4908607C4808F0BDFC7C4808F0BAFC4B
:103170000899099807F018FF49B0F0BDDE0001007A
:1031800090282020F8272020042820209428202080
:10319000582820203C282020C42720200000B442AA
:1031A00000808943D0272020C8272020CC2720203A
:1031B000E02620200427202012FF0000EFFE000060
:1031C000D8FF0000E1FF0000000070C20000704264
:1031D000207851281BD16078552818D1A07849282B
:1031E00015D1E078452812D1207954280FD1607983
:1031F00020280CD1A01D00210A2205F009FB414224
:103200004141584A117000287ED05A487FE020780A
:10321000542819D16078452816D1A0784C2813D1AC
:10322000E078452810D1207920280DD1601D00219B
:103230000A2205F0EDFA411E02468A4149490A7008
:1032400000285DD1494862E03449204607F058F82B
:10325000002810D03249204607F052F8002828D024
:103260003049204607F04CF8002826D0204608F0C8
:10327000E5F949B0F0BD2F4805702F48057008F0FA
:10328000AFF82E4805602E4805602E4805602E4890
:1032900005602E4805602E4805602E4805602E48C2
:1032A00008F020FC2D4808F01DFC07F0A7FE2C4874
:1032B0002DE004F0B3FC49B0F0BD08F063FB1A4800
:1032C00005601A4805601A4821E037481FE0354874
:1032D0001DE02D481BE0BF21090606F098F908F013
:1032E00013F9009001902D4A2D4B0120010209A8ED
:1032F00007F0ACFF401EFE2800D9A5E509A806E0AE
:10330000194804E01D4802E0194800E0224807F08F
:10331000C1FE49B0F0BDC0460000C842C100010076
:10332000CB000100040001002028202024282020B8
:103330004CFE00009428202090282020582820208F
:103340003C2820200C282020142820205028202031
:103350005428202010282020E02620200427202088
:1033600050FF00009D282020CBFE0000A7FE00009B
:1033700080FE00009AFE000033000100B4EF000060
:103380000000AA42AAFF000078FF000010270000FA
:10339000CF00010087000100E3FE00004EFB0000AB
:1033A000B700010082FF0000D7FE0000F0B5FFB0BB
:1033B000DCB0E09D002D30D0002B2ED0002A2CD088
:1033C000FC4C2478002C28D11C4654436400A542B0
:1033D00023D1F94CF94F2E1913367F1EBE421CD350
:1033E0000A910B900892099301F0A4FA064608F09E
:1033F000E1F9002800D155E104F096FE00280FD035
:103400000B98FF2800D156E104F08EFE00283AD038
:10341000EB48C61C6027E84C07E0EA4807F03AFE94
:103420007FB05CB0F0BD7F1E2DD03C361BA93C2286
:10343000304603F021FE002825D01BA80178A529DD
:10344000F1D180790128EED11BA840880028EAD06C
:103450001BA98A88002AE6D01D99D84BCB18A34215
:10346000E1D31E9B424350008342DCD1C918143182
:103470001BA8D34A9142D6D241780B988142D2D12F
:103480000B9804F0C3FFE198029028461430049092
:10349000CD490120039000030790281813300840FD
:1034A0000590C748C71C00200690602602E0361F22
:1034B00000D144E138463C300CA93C2203F0DCFD4D
:1034C000002800D174E10CA80178A5292ED18079BB
:1034D00001282BD10CA84288002A27D00CA8838869
:1034E000002B23D00E98B5494118B34CA1421DD3EF
:1034F0000F9953435A00914218D142181432B04BDD
:103500009A4213D2069CE2B2D20001921BAB019AFE
:103510009A180092019A9850079A51181331AA4AA2
:103520001140081800994860641C069438467830A9
:103530000CA93C2203F0A0FD002800D138E10CA822
:103540000178A5292ED1807901282BD10CA8428899
:10355000002A27D00CA88388002B23D00E989749E7
:103560004118954CA1421DD30F9953435A009142E3
:1035700018D142181432924B9A4213D2069CE2B2EE
:10358000D20001921BAB019A9A180092019A9850AE
:10359000079A51181331FC4A1140081800994860E5
:1035A000641C06943846B4300CA93C2203F064FD38
:1035B000002800D1FCE00CA80178A5292ED1807943
:1035C00001282BD10CA84288002A27D00CA8838878
:1035D000002B23D00E98E8494118E64CA1421DD398
:1035E0000F9953435A00914218D142181432E44BB8
:1035F0009A4213D2069CE2B2D20001921BAB019A0E
:103600009A180092019A9850079A51181331DE4A7D
:103610001140081800994860641C0694F0370CA902
:103620003C22384603F028FD002800D1C0E00CA859
:103630000178A52900D03AE78079012800D036E743
:103640000CA84288002A00D131E70CA88388002BFF
:1036500000D12CE70E98C8494118C64CA14200D2AF
:1036600025E70F9953435A00914200D01FE74218B3
:103670001432C34B9A4200D319E7069CE2B2D2003F
:1036800001921BAB019A9A180092019A9850079ADE
:1036900051181331BC4A1140081800994860641C45
:1036A000069404E7B54A1BAC40212046334607F098
:1036B000CDFD2046B2E600200B90AE4C04F034FD68
:1036C000002800D1DFE6AE48C61C602702E07F1E5E
:1036D00000D1D8E63C361BA93C22304603F0CCFC96
:1036E000002800D1CFE61BA80178A529EFD1807969
:1036F0000128ECD11BA840880028E8D01BA98A88A3
:10370000002AE4D01D999C4BCB18A342DFD31E9B0B
:10371000424350008342DAD1C91814311BA8984A99
:103720009142D4D241780B98C0B28142CFD10B984C
:10373000411C80B2FE280B91C0D392486EE60798D8
:10374000059908188E49884232D20699C9B20029D3
:10375000079E3BD0CB001A46103A0693083B079FC2
:103760003E46002403E018340699A1422ED01BAF38
:103770003959814203D239194F68BE4213D3A3424B
:1037800024D01BAF3F19B968814202D2FF68BE4204
:1037900009D3A2421AD01BA90F1939698142E2D27A
:1037A0007F69BE42DFD20598381875498842D7D361
:1037B000764833E699282020001081FF000081FF21
:1037C00001007F0044FC000000F0FFFF704807F09C
:1037D00061FC04988419A6421DD23746384604F08D
:1037E00035F9002800D18BE007983F18A74212D284
:1037F000384604F02BF9002800D181E007983F18E3
:10380000A74208D2384604F021F9002878D007985A
:103810003F18A742E2D31BAF0A98394606F068FF6B
:103820005348039901705C490B9808705B490898EC
:1038300008805B49099808805A4805605A480299EF
:1038400001605A48002404605948E1430160594826
:103850000660143658480660584804603878584D59
:103860002870002849D01BA840786870002849D0EB
:103870001BA88078A870002847D01BA8C078E870E3
:10388000002845D01BA800792871002843D01BA828
:1038900040796871002841D01BA88079A871002860
:1038A0003FD01BA8C079E87100283DD01BA8007A42
:1038B000287200283CD01BA8407A687200283BD0B0
:1038C0001BA8807AA87200283AD01BA8C07AE87298
:1038D000002839D01BA8007B2873002838D01BA8EB
:1038E000407B6873002837D01BA8807BA873002812
:1038F00036D01BA8C07BE87337E0681C0F2132E08C
:1039000024488BE5A81C0E212DE0E81C0D212AE09F
:10391000281D0C2127E0681D0B2124E0A81D0A2189
:1039200021E0E81D09211EE02846083008211AE0A0
:1039300028460930072116E028460A30062112E001
:1039400028460B3005210EE028460C3004210AE001
:1039500028460D30032106E028460E30022102E001
:1039600028460F30039907F0D6FFEC73154855E54C
:1039700099282020001081FF000081FFBAF9000083
:1039800001007F00FDFC000000F0FFFFC4FB000011
:10399000C8FD0000DDFC00008B28202080282020AE
:1039A00096272020B4272020B02720202C28202054
:1039B00034282020AC2720206428202038282020EC
:1039C0006827202004FE0000F0B589B0064607A84D
:1039D00007F0CCFF0798D6490A68871A089AD54B92
:1039E0001C68151BD44C266008601A60D348007808
:1039F000012810D1D2480760D2480560D24801683A
:103A0000002920D0711A1ED4D04900240C60D0495E
:103A10000C60046019E00495CE480468CE4805683F
:103A20002046294607F06FFA0028039623D07D2010
:103A3000C105204605F0EBFD0446294607F07EFA55
:103A4000002828D028E0C1480468C44E35682846BC
:103A5000214607F058FA002800D196E03F200106E1
:103A6000284605F0D4FD0546214607F067FA0028F0
:103A700000D19BE09BE02046294607F05FFA002832
:103A800009D0B749204605F0C2FD0446294607F093
:103A90003AFA002800D125460295AE480560B14D9E
:103AA0002C68384607F0D8FC214605F0ABFD7D2197
:103AB000CF05394606F098FB214605F0A8FD0446DF
:103AC0002860A94E3568049807F0C6FC294605F021
:103AD00099FD394606F088FB294605F098FD074612
:103AE000306000212046049107F01FFA06469F49E6
:103AF000204606F079FB3F210A06BF210D06002E65
:103B0000294600D01146019205F081FD07F0FCFC2A
:103B100004468B4804603846049907F006FA0646C6
:103B20003846924906F060FB002E00D0019D2946E0
:103B300005F06DFD07F0E8FC82490860201A8C4909
:103B40000860029806900590039E304606F094FDAA
:103B5000029089480468894D2F780798089906AA29
:103B600005AB05F0F5FB012F38D1002800D1C3E0EB
:103B7000FA4800210160FA480160FA4801607D4876
:103B8000016007F03BFA09B0F0BD2846214607F076
:103B9000D5F900280AD0BF200106284605F037FDD8
:103BA0000546214607F0AFF9002800D12C463460C5
:103BB000ED4F3E68664805683046294607F0A3F990
:103BC00000285CD03F200106304605F020FD064667
:103BD000294607F0B3F9002862D062E0341B0028C0
:103BE00005D10798089906AA05AB04F0B3FE002C8E
:103BF00000D5E4E00127039807F066FD0021049159
:103C0000002818D007F030FF0028384600D1287867
:103C1000C00710D1059C0698002107F06BF9002819
:103C200009D00021204607F065F9002803D0D248CA
:103C3000069005900497039807F0E8FC002800D050
:103C40002F78F80704D107F00FFF002800D197E084
:103C5000039807F039FD002800D1B0E007F004FF19
:103C6000002800D0ABE00698C44C214606F0BCFA10
:103C700006900598214606F0B7FA04469EE03046C5
:103C8000294607F05BF900280AD0BF20010630461C
:103C900005F0BDFC0646294607F035F9002800D19D
:103CA00035463D602046294605F050F9C148006878
:103CB000002107F01FF9002800D14CE13C68BF4803
:103CC0000568BD480068002107F014F9002800D1FC
:103CD00041E10021284607F00DF9002800D13AE122
:103CE00000252046294607F005F9002800D132E1D9
:103CF0009E48057009B0F0BDAC480568684207F001
:103D0000ABFBAB4E314606F06FFA04469F480460A9
:103D1000284607F0A1FB314606F066FA01469C48AA
:103D200001609D480460A0480160204611E1C04642
:103D30002028202024282020F82720209428202014
:103D4000D4272020E82720201028202050282020B9
:103D5000542820203C282020582820200C282020CF
:103D6000000080BEB8272020BC2720200000C842C9
:103D7000E4272020EC272020042820209028202041
:103D80000699029C204605F042FC069005982146C3
:103D900005F038FC059007F067FE00280FD1069863
:103DA0000024214607F0AFF8002801D0002006903B
:103DB0000598214607F0A7F8002800D00594069C36
:103DC0006F4E2046314607F09EF805466D4F20465F
:103DD000394607F0B3F80028384600D12046002DB8
:103DE000344600D104460694059D2846314607F026
:103DF0008AF803902846394607F0A0F8002800D139
:103E00002F460398002800D13E46059604980028C6
:103E100026D000252046294607F075F804905A4F11
:103E20002046394607F08AF80028384600D1204657
:103E3000049900292C4600D10446069430462946B0
:103E400007F061F804903046394607F077F800280B
:103E500000D137460498002800D13D46059500E082
:103E600035464A4804604A48056041480268494866
:103E7000214605F063FE484F38603E4802680599C8
:103E8000464805F05BFE04903D68069C00262046EF
:103E9000314607F02FF80028304624D1039500253D
:103EA0002046294607F02FF8002801D1204602E0DD
:103EB0000120C00760403A4906F096F94121090601
:103EC00005F0A5FB07462046294607F037F80028ED
:103ED00004D00398394605F09AFB03E0039839466D
:103EE00005F090FB2C4F3860059F0446384631465C
:103EF00007F000F8002828D125460024384621463E
:103F000007F001F8002801D1384602E00120C0077F
:103F10007840234906F068F94121090605F077FB4E
:103F2000204906F061F906463846214607F006F8B2
:103F3000002804D00498314605F069FB03E004989A
:103F4000314605F05FFB06462C46174806602046C2
:103F5000314604F0FBFF09B0F0BDC046DC2720204D
:103F6000F0272020D8272020142820209428202043
:103F7000B8272020BC2720200000E0406666E63EEF
:103F8000000070C20000704200002041DC272020A9
:103F9000F0272020E0262020D827202004272020DA
:103FA0003333333F8FC2753FEC272020C4272020B6
:103FB0000000704150282020542820200C28202068
:103FC000F0B597B0109316461D9C6308DA1DD5080E
:103FD00065431393C218521E0B195B1E11900E916C
:103FE00005F056FD002D00D17CE10C3CE0B2A101B2
:103FF00080080818C2B2052A00D973E10120159083
:1040000090402B21084200D16CE109921C980D9040
:10401000203EF0B2810116913027474306010C245F
:104020004443681E032107F0BBF9491C002005909A
:104030000329049101D1059804901E9814901698B4
:10404000EC4A10180390EC48C0190690EB48801910
:104050000790EB48001908901098000A0F900D98EF
:10406000000A0C90159880031690032D05D2119E1E
:1040700005980A901290099944E101910498281A30
:1040800002900020119E0A901290139C09990BE057
:104090000E98401C0E90119E0A98C01C0A9002991E
:1040A0008842099900D11AE10029089806D003290D
:1040B000069803D00129079800D003980A99405C1C
:1040C0000B90002718E0C0B207F002FCF348169CE2
:1040D00004600461E8B207F0FBFBF048046012984A
:1040E000401C1290C0B2139C214607F059F90029D8
:1040F00036D07F1C082F35D01598B8400B99084052
:10410000149900291CD0002814D030460E9932464C
:104110000B4605F0BDFCE14C169D25610F98C0B221
:1041200007F0D6FB256025611098C0B207F0D0FBE0
:104130002560139C761C1198301AA042D9D10AE050
:10414000D649169A0A6100280C9800D00F980D9D48
:10415000B9D0109DB7E70E98401C0E90119E01E05B
:104160000020129009990029089806D00129079883
:1041700003D00329069800D003980A994018407884
:104180000B90002718E0C0B207F0A2FBC348169CB2
:1041900004600461E8B207F09BFBC0480460129819
:1041A000401C1290C0B2139C214607F0F9F8002978
:1041B00036D07F1C082F35D01598B8400B99084091
:1041C000149900291CD0002814D030460E9932468C
:1041D0000B4605F05DFCB14C169D25610F98C0B2F1
:1041E00007F076FB256025611098C0B207F070FBE0
:1041F0002560139C761C1198301AA042D9D10AE090
:10420000A649169A0A6100280C9800D00F980D9DB7
:10421000B9D0109DB7E70E98401C0E90119E01E09A
:104220000020129009990029089806D001290798C2
:1042300003D00329069800D003980A994018807883
:104240000B90002719E0C0B207F042FB9348169C80
:1042500004600461E8B207F03BFB904804601298E8
:10426000401C1290C0B2139C214607F099F8002917
:1042700032D07F1C082F00D10EE71598B8400B995B
:104280000840149900291CD0002814D030460E99FB
:1042900032460B4605F0FCFB804C169D25610F98BD
:1042A000C0B207F015FB256025611098C0B207F079
:1042B0000FFB2560139C761C1198301AA042D8D1B0
:1042C000E6E67649169A0A6100280C9800D00F9805
:1042D0000D9DB8D0109DB6E700201290DCE6019845
:1042E00003280FD117B0F0BD0E98401C0E90119E00
:1042F0000A98801C0A900598801C059004998842B1
:104300000999EFD00029089806D00129079803D011
:104310000329069800D003980A99405C0B90002767
:10432000139C18E0C0B207F0D3FA5C48169C0460F6
:104330000461E8B207F0CCFA584804601298401CB7
:104340001290C0B2139C214607F02AF8002936D0FB
:104350007F1C082F35D01598B8400B990840149948
:1043600000291CD0002814D030460E9932460B4646
:1043700005F08EFB494C169D25610F98C0B207F0E1
:10438000A7FA256025611098C0B207F0A1FA256050
:10439000139C761C1198301AA042D9D10AE03F49EB
:1043A000169A0A6100280C9800D00F980D9DB9D07C
:1043B000109DB7E70E98401C0E90119E01E0002062
:1043C000129005981599084304998842099989D053
:1043D0000029089806D00129079803D003290698D8
:1043E00000D003980A99401840780B900027139C3E
:1043F00022E0C046C0BB000080D3000050E50000B2
:1044000040EB0000C0B207F063FA2448169C046039
:104410000461E8B207F05CFA204804601298401C7E
:104420001290C0B2139C214606F0BAFF002932D088
:104430007F1C082F00D15BE71598B8400B99084006
:10444000149900291CD0002814D030460E99324609
:104450000B4605F01DFB114C169D25610F98C0B24F
:1044600007F036FA256025611098C0B207F030FADF
:104470002560139C761C1198301AA042D8D133E7DE
:104480000649169A0A6100280C9800D00F980D9DD5
:10449000B8D0109DB6E70020129029E790320A406C
:1044A000F0B58FB01C460D460A92521E5B1E0B9053
:1044B00005F0EEFA0694A54200D300E1149C012019
:1044C00004908603270A0B98C0430A99081807909E
:1044D000E843069908180321019006F061FF481C83
:1044E00000210591032800D005900D940E9700D16E
:1044F000E2E00321079806F053FF481C00210390D7
:1045000003280891029101D003980290ED4A08E037
:10451000099DAD1C0899891C05980891814200D11C
:10452000CAE009950A980B9981425BD20398032847
:104530000B9927D0029F0B990C9116610E98C4B26B
:10454000204607F0C5F9FA48066006610D98C5B225
:10455000284607F0BDF9F64A1660012F10D0166103
:10456000204607F0B5F9F24806600661284607F0D4
:10457000AFF9EF4A16600C99891CBF1EDCD101E02F
:104580000C99491C079802280E9B2BD30A98471AAE
:104590001661DCB2204607F09BF9E548066006612B
:1045A0000D98C5B2284607F093F9E1480660066108
:1045B000204607F08DF9DE4806600661284607F0C0
:1045C00087F9DB4806600661204607F081F9D84884
:1045D00006600661284607F07BF90E9BD44A1660F8
:1045E000FF1ED5D10898049908430599884261D0E7
:1045F0000A980B9981428BD2039803280B9927D0F4
:10460000029F0B990C9116610E98C4B2204607F0D8
:104610005FF9C748066006610D98C5B2284607F0E5
:1046200057F9C34A1660012F10D01661204607F0D3
:104630004FF9BF4806600661284607F049F9BC4AB1
:1046400016600C99891CBF1EDCD101E00C99491C35
:10465000079802280E9B00D25AE70A98471A16615B
:10466000DCB2204607F034F9B148066006610D98C7
:10467000C5B2284607F02CF9AD4806600661204611
:1046800007F026F9AA4806600661284607F020F9D7
:10469000A74806600661204607F01AF9A44806609C
:1046A0000661284607F014F90E9BA14A1660FF1E0A
:1046B000D5D12DE7099D6D1C0198022801D20FB0BC
:1046C000F0BD0321079806F06BFE481C03280890F4
:1046D00000D100200590964A04E0099DED1C069843
:1046E0008542ECD009950A980B998142F5D2089839
:1046F00003280B9927D0059F0B990C9116610E98F2
:10470000C4B2204607F0E4F88948066006610D98B7
:10471000C5B2284607F0DCF8854A1660012F10D094
:104720001661204607F0D4F88148066006612846E5
:1047300007F0CEF87E4A16600C99891CBF1EDCD1AA
:1047400001E00C99491C079802280E9B2BD30A986C
:10475000471A1661DCB2204607F0BAF874480660C2
:1047600006610D98C5B2284607F0B2F87048066099
:104770000661204607F0ACF86D48066006612846E1
:1047800007F0A6F86A4806600661204607F0A0F820
:10479000674806600661284607F09AF80E9B644A4F
:1047A0001660FF1ED5D10A980B99814295D20898C0
:1047B00003280B9927D0059F0B990C9116610E9831
:1047C000C4B2204607F084F85948066006610D9887
:1047D000C5B2284607F07CF8554A1660012F10D064
:1047E0001661204607F074F85148066006612846B5
:1047F00007F06EF84E4A16600C99891CBF1EDCD17A
:1048000001E00C99491C079802280E9B2BD30A98AB
:10481000471A1661DCB2204607F05AF84448066091
:1048200006610D98C5B2284607F052F84048066068
:104830000661204607F04CF83D48066006612846B0
:1048400007F046F83A4806600661204607F040F84F
:10485000374806600661284607F03AF80E9B344A4E
:104860001660FF1ED5D10A980B99814200D334E718
:10487000089803280B9929D0059F0B990C91166174
:104880000E98C4B2204607F023F829480660066156
:104890000D98C5B2284607F01BF8254A1660012F6F
:1048A00012D01661204607F013F821480660066111
:1048B000284607F00DF81E4A16600C99891CBF1E89
:1048C000DCD103E090320A400C99491C0798022879
:1048D00000D202E70A98471A16610E98C4B2204621
:1048E00006F0F6FF1248066006610D98C5B228462C
:1048F00006F0EEFF0E4806600661204606F0E8FF6F
:104900000B4806600661284606F0E2FF084806608C
:104910000661204606F0DCFF054806600661284671
:1049200006F0D6FF024A1660FF1ED5D1D5E6C04676
:1049300090320A40F0B595B0012001030D91FD4E73
:10494000316147033761850335600424204607F051
:10495000DBF83760204607F0D7F8F7480068376182
:104960003561204607F0D0F83760204607F0CCF8D4
:10497000FD48006837613561204607F0C5F83760AB
:10498000204607F0C1F8F8480068376135602046D6
:1049900007F0BAF83760204607F0B6F8F24800682A
:1049A00037613560204607F0AFF83760204607F0E2
:1049B000ABF8ED48006837613560204607F0A4F891
:1049C0003760204607F0A0F8E74800683761356097
:1049D000204607F099F83760204607F095F8E2483E
:1049E000006837613560204607F08EF83760204652
:1049F00007F08AF8DC480068376137613560204687
:104A000007F082F83760204607F07EF8D648006845
:104A10000C9037613560204607F076F83760204605
:104A200007F072F8D04800680B9037613560204677
:104A300007F06AF83760204607F066F8CA48006851
:104A40000A9037613560204607F05EF837602046EF
:104A500007F05AF8C448006809903761356020466D
:104A600007F052F83760204607F04EF8BE4800685D
:104A7000059037613560204607F046F837602046DC
:104A800007F042F8B8480068049037613560204666
:104A900007F03AF83760204607F036F8B248006869
:104AA000019037613560204607F02EF837602046C8
:104AB00007F02AF8AC48006802903761376135602A
:104AC000204607F021F83760204607F01DF8A64879
:104AD00000680E9037613560204607F015F83760A2
:104AE000204607F011F8A04800680F903761356044
:104AF000204607F009F83760204607F005F89A4885
:104B00000068119037613560204606F0FDFF376080
:104B1000204606F0F9FF944800681290376135602E
:104B2000204606F0F1FF3760204606F0EDFF8E4884
:104B30000068139037613560204606F0E5FF376066
:104B4000204606F0E1FF884800680690376135602E
:104B50001095204606F0D8FF3760204606F0D4FFB7
:104B600081480068149037613560204606F0CCFF1C
:104B70003760204606F0C8FF7B48006837610004B4
:104B8000C00F08901498800B0221149108400790E0
:104B90000698400B204006901398000B08211391B3
:104BA000084003901299C90A102212921140119ADA
:104BB000920A202311931A400F9B5B0A40250F9500
:104BC0002B400E9D2D0A80200E9005405B19D218B7
:104BD000891803984018039002980004C00F0290AF
:104BE0000198810B1498014001910498400B2040DA
:104BF00004900598000B1399084005900999C90A7B
:104C0000129A11400A9A920A119B1A400B9B5B0A56
:104C10000F9D2B400C9D2D0A0E9805405B19D21854
:104C20008918059840180C903761109D3560204612
:104C300006F06AFF3760204606F066FF4A480068C3
:104C4000010A0E9801400E9137613560204606F04A
:104C50005BFF3760204606F057FF43480068400A74
:104C60000F9908400E9940180F9037613560204623
:104C700006F04AFF3760204606F046FF3A480068D3
:104C8000800A119908400F994018119037613560DA
:104C9000204606F039FF3760204606F035FF3248DF
:104CA0000068C00A129908401199401812903761A3
:104CB0003560204606F028FF3760204606F024FFC6
:104CC00029480068000B1399084012994018139066
:104CD00037613560204606F017FF3760204606F042
:104CE00013FF21480068400B204012903761356067
:104CF000204606F009FF3760204606F005FF1A48F7
:104D00000068850B14980540376110983060204684
:104D100006F0FAFE3760204606F0F6FE12480068FC
:104D20000004C10F04980C9A8018019A1018029A76
:104D3000104303E090120A4080130A400004069AD0
:104D4000039BD218079B9A18089B1A43120202432E
:104D500037611398129B18182818084310430D99AF
:104D6000316015B0F0BDC04680130A40F0B58BB07D
:104D700003460124EB48016822040A40554255418C
:104D80000295090C02680394650415406C426C415D
:104D90000668E54A10780843C00728D1E348007840
:104DA000032819D0012807D0002820D1E248017833
:104DB000002915D1022116E0019303F013F8DA4A15
:104DC000019B002813D0DB490A78002A00D0104646
:104DD000401E0870D44A07E0D5480178002901D068
:104DE000491E00E005210170D4480021017003999B
:104DF0004805D34F002D00D139780640080623D14D
:104E0000CA480078002811D003280BD001281BD1F4
:104E1000019302F0E7FFC44A019B002814D0014629
:104E2000C44D06E001930621C14D02E00193032128
:104E3000C14D2878401C06F0B3FA2970BF48002104
:104E40000170019BB84ABE4F7142714102981070C7
:104E50003C70BC4802784A40D10709D0002E039923
:104E60000DD10170B84800210170B848036039E0E5
:104E7000B548002E10D00399C90710D032E0B249CE
:104E8000097800292CD1A9490A78002A23D0042ABC
:104E90001FD1B64A12781DE00178C90722D1AB496B
:104EA0000968591A490919291CD3039901709F4CA3
:104EB0002078032843D001282BD0002814D19E4805
:104EC0000078012800D1D0E0002800D0D3E00120F4
:104ED000D2E000220A709F4900220A7097490A70A6
:104EE000002101709148007802280AD1A048016889
:104EF000591A89087D2904D3036090480021017064
:104F000003E08E480078002801D1FCF78BFB0BB042
:104F1000F0BD1D468748007804A904F093FA0028E4
:104F200000D18CE004A8007805F0A4F9002800D195
:104F300085E08E4803990170042020708EE07C4843
:104F40000078C00082490D1869680A7804A80270C8
:104F5000002A00D185E04A7804A842701E46002A43
:104F600000D18FE08A7804A88270002A00D18CE0FA
:104F7000CA7804A8C270002A00D189E00A7904A87E
:104F80000271002A00D186E04A7904A84271002A01
:104F900000D183E08A7904A88271002A00D180E0E0
:104FA000CA7904A8C271002A7ED00A7A04A80272C3
:104FB000002A7CD04A7A04A84272002A7AD08A7ADF
:104FC00004A88272002A78D0CA7A04A8C272002A81
:104FD00076D00A7B04A80273002A74D04A7B04A806
:104FE0004273002A72D08A7B04A88273002A70D090
:104FF000CA7B04A8C273002A6ED00A7C04A802747B
:10500000002A6CD04A7C04A84274002A6AD08A7CA8
:1050100004A88274002A68D0CA7C04A8C274002A3A
:1050200066D00A7D04A80275002A64D04A7D04A8CF
:105030004275002A62D0887D04A9887562E04548DF
:105040004649474A474B484C00260460436082600B
:10505000C1603146066146618661C6612B463748AC
:105060003FE71E46401C16214AE0022020704048BF
:105070000021016001E0032020703648002101700A
:105080002E482EE7801C15213AE0C01C142137E081
:10509000001D132134E0401D122131E0801D11213B
:1050A0002EE0C01D10212BE008300F2128E0093030
:1050B0000E2125E00A300D2122E00B300C211FE0EB
:1050C0000C300B211CE00D300A2119E00E300921B3
:1050D00016E00F30082113E01030072110E01130E6
:1050E00006210DE0123005210AE01330042107E00B
:1050F0001430032104E01530022101E016300121B3
:1051000006F009FC04A80024C475FDF7CBFD2B684C
:105110001048114A202106F099F8084804703346D7
:10512000E0E6C04680130A408D272020A9282020D1
:10513000892820208C2820209A282020A828202078
:10514000832720208828202086282020A027202090
:10515000B4F8000028272020B1000100756E64001B
:105160007420666F65206E6F496D6167AB282020E3
:10517000F4272020F0B589B00378442B47D1437839
:10518000522B44D18378492B41D1C378562B3ED141
:105190000379452B3BD14379202B38D1801DD4494D
:1051A00008AA07AB06F062FA022800D025E1089EA3
:1051B00007980690C84801210170D74D304629460E
:1051C00005F0A1FE0446D24F3046394605F0B6FE42
:1051D000002800D13746002C00D13D46BF4805606D
:1051E000CE4D069F3846294605F08DFE0446C44E36
:1051F0003846314605F0A2FE002800D13E46002C7C
:1052000000D13546B6480560B6480025BDE00378B4
:10521000532B32D14378502B2FD18378452B2CD16F
:10522000C378452B29D10379442B26D14379202BF0
:1052300023D1801DB74908AA06F018FA012800D02A
:10524000DBE0089DA44801210170B34C28462146AB
:1052500005F059FE0746AE4E2846314605F06EFE73
:10526000002800D12E46002F00D134469B48046010
:105270009B48002505609B4887E00378442B48D174
:105280004378492B45D18378532B42D1C378542B93
:105290003FD10379202B3CD1059106920125401D79
:1052A000934908AA07AB06F0E1F9022800D0A1E073
:1052B000089C079F00262046314605F036FE0190E7
:1052C00038460396314605F01EFE0121C907002825
:1052D0000494029100D04F407F48022101707F204A
:1052E000C4053846214605F00EFE0090884E38462B
:1052F000314605F023FE002800D13E4600980028E4
:1053000000D134460198002800D0BFE0029E7440CE
:10531000BDE00378542B0BD14378552B08D183780B
:10532000522B05D1C3784E2B02D10379202B11D0FB
:105330000378412B15D143784E2B12D18378472B1C
:105340000FD1C3784C2B0CD10379452B09D143796C
:10535000202B06D10378542B069205911BD00621F1
:105360001AE05C4904F0CCFF002802D0002009B00C
:10537000F0BD59480025057058480560584805603B
:105380005848056058480560584805600120644940
:105390000D7009B0F0BD052101254018544908AA37
:1053A00007AB06F063F902282AD0012822D1089E13
:1053B00000243046214605F0B8FD07463046214618
:1053C00005F0A1FD002802D00120C0074640494950
:1053D000304604F009FF484904F0D6FF474904F07D
:1053E00003FF3D4903220A703C490C60002F5DD148
:1053F00046495CE0284609B0F0BD012009B0F0BD87
:10540000089F079C00263846314605F08EFD039024
:105410002046314605F077FD0121C9070028049197
:1054200000D04C403846314605F06DFD002801D0D3
:10543000049847402F49384604F0D6FE2E4904F020
:10544000A3FF2E4904F0D0FE0290234803210170EF
:10545000224806607F20C7052046394605F053FDE7
:105460000190274E2046314605F068FD002800D106
:1054700026460198002800D1374603980028049852
:1054800000D14740029816490F6012E0029E13486F
:105490000460134803990160049C204605F033FD25
:1054A000002800D074401749204603E016490C4AF2
:1054B0001160144904F098FE4121090604F0A7F890
:1054C0000849086008490598086008490698086076
:1054D0005CE7C046A500010096282020082820206F
:1054E0009C2720204C2820204028202044282020B1
:1054F00099000100DA0F4940000034430000814266
:105500000000F042E7BD3A400000B4420000B4C2DF
:105510000000C842E40001000000C8C20000F0C260
:1055200087282020F0B58BB00A460346DF490546A0
:105530002E78881940786D1CC006F9D42D2E01D024
:105540002B2E01D1287801E06D1E304606F0EAFAD4
:1055500001D3014601E0014620394E293FD04929B7
:1055600058D1687806F0DEFA00D220384E284BD1A8
:10557000A87806F0D7FA00D22038462844D1002A6D
:1055800001D0E81C1060E87806F0CCFA00D2203890
:1055900049281FD1287906F0C5FA00D220384E28B4
:1055A00018D1687906F0BEFA00D22038492811D106
:1055B000A87906F0B7FA00D2203854280AD1E87941
:1055C00006F0B0FA00D22038002A03D0592801D1C1
:1055D000083515602D2E00D1C9E0B749C8E06878BC
:1055E00006F0A0FA00D2203841280DD1A87806F0A4
:1055F00099FA00D220384E2806D1AD490024002A5D
:1056000000D12BE1E81C28E1002A00D0136000241F
:10561000214623E1A94905910024302801920293F3
:1056200017D1687806F07EFA00D220389F495828B2
:105630000FD1A87809184978890707D42E2808D1EE
:10564000E8789A4908184078800702D5AD1C9C4834
:1056500005909A4B06F072FA411E88410690984BCD
:10566000049406F06BFA411E884103900894099453
:1056700021460A942B782E2B03D1002C3AD10124F9
:1056800036E007941846303801220928174600D81A
:105690000027069C62403A4309D0039A002A29D089
:1056A000824AD2185278920724D5092804D8C0001B
:1056B00084490818049A0AE0184661381A28049A9E
:1056C00000D2203BD8007F4908187F49401890C875
:1056D0000A980899059B06F051FA22463B4602F0CB
:1056E0005EFC0A9008910998079C001B0990012113
:1056F0006D1CBFE701242D2E01D0089802E0E007C1
:10570000089A504005900998860003980028324670
:1057100000D1099A002909D00698002807920BD0D9
:105720001A46613A1A2A03D31A4603E00A9C7DE01E
:105730001A46203A452A09D00398002812D01A4662
:10574000613A1A2A00D2203B502B0ED121466B78A9
:105750002D2B01D02B2B0DD1A81C0290AD7800224F
:10576000D4430BE00295099E3DE002953BE0514990
:10577000002473E0681C029000241D462A46303A3B
:10578000092A26D800244D229600303D092D25D81F
:105790002D2B01D0224600E0624207981218D7173D
:1057A0007A40D71BB7420A4600D80022069810421A
:1057B0000AD101229002874200D8002203981042A9
:1057C00002D10A2060434419029A501C5578029075
:1057D000DBE702980219501E029000242D2B00D105
:1057E00064420798261800240A9D284608992246F4
:1057F000234605F051FB002817D10698002805998B
:1058000017D04D208000864219DD0D4606F0BAF90A
:105810002221016000240A9829462246234605F0E9
:1058200044FB002814D1244913E02C46019A059921
:1058300010E00A98324603F077FE044609E0234858
:1058400086420EDC06F09EF922210160214600E02E
:105850001849019A002A01D00298106020460BB026
:10586000F0BD002E0FD41A4C019A002E1CD0F00768
:1058700006D00CCC0A98083C06F080F9019A0A90F0
:1058800076080834F1E77442114D019A002C0BD0D0
:10589000E00706D00CCD0A98083D06F06BF9019A96
:1058A0000A9064080835F1E70A9CD3E7C0F30000CA
:1058B0000000F87F0000F0FF0000F07F00002440AF
:1058C0000000304000F6000048FEFFFFCCFEFFFF66
:1058D000B0F70000F0B58BB007460020019000291A
:1058E00000D19DE10B46D01901210091C9058842E4
:1058F00000D995E1CD4D009881030A91460300033C
:1059000006900FE0284610380699016001F0D4FC9B
:10591000039F0299CF19049B5B18059A521A00281D
:1059200000D17DE1504250410190002A00D177E141
:105930000493069828602E600A98286005922C46E9
:1059400004252846039706F0DFF820461038079014
:105950000660284606F0D8F8B34F386826600A9FDC
:105960002760284606F0D0F807980660284606F01B
:10597000CBF8AD48006826602760284606F0C4F8DA
:10598000079F3E60284606F0BFF8A74800682660DB
:105990000A982060284606F0B7F83E60284606F0D0
:1059A000B3F8A148006826600A982060284606F0EF
:1059B000ABF83E60284606F0A7F89B4800682660D2
:1059C0000A983860284606F09FF83E60284606F0A0
:1059D0009BF89548006826600A983860284606F0CB
:1059E00093F83E60284606F08FF88F4800682660DE
:1059F0000A982060284606F087F83E60284606F0A0
:105A000083F8894800682660069838602060266020
:105A10000A9F2760284606F077F807980660284610
:105A200006F072F88048006826602760284606F075
:105A30006BF8079F3E60284606F066F87A480068D3
:105A400026600A982060284606F05EF83E602846E8
:105A500006F05AF87448006826600A9820602846C4
:105A600006F052F83E60284606F04EF86E48006890
:105A700026600A982060284606F046F83E602846D0
:105A800006F042F86848006826600A9820602846B8
:105A900006F03AF83E60284606F036F8624800689C
:105AA00026600A983860284606F02EF83E602846A0
:105AB00006F02AF85C48006826600A982060059C79
:105AC000284606F021F83E60284606F01DF80398A7
:105AD00055490968C2B200990902891AA14200D346
