:10000000008020208DE00000D3890000D38900000B
:1000100000000000000000000000000000000000E0
:10002000000000000000000000000000D389000074
:100030000000000000000000D389000041B500006E
:10004000D389000097DF0000D3890000D389000026
:10005000D3890000D3890000D3890000D389000030
:1000600000000000D3890000D389000000000000D8
:1000700000000000D3890000E9DF0000E1DF00009C
:10008000D3890000D3890000D3890000D389000000
:10009000D3890000D38900000000000000000000A8
:1000A000D3890000D3890000000000000000000098
:1000B000D389000000000000D3890000D38900002C
:1000C000F0B5F3B007930592799A0E92789E0025C9
:1000D000EF437090139112950878A84C201843783C
:1000E000D80628D513984A1CDB0606D5481C11787B
:1000F00061184B78521C0146F6E7139070A8B04780
:100100000446401C01D100F0FAFD0DF050FF9B4861
:1001100000194078C00603D570A8B0470446F4E73C
:1001200070A80DF09FFF1298401E1290601C934C17
:1001300001D100F0E4FD01200A9054A801466C3181
:100140000C9101460C3103910D30009014A8401C15
:1001500001900B950D971196029554A870210DF002
:10016000BCFD559770A813A912AA079B98470128B0
:10017000109522D0002801D100F0A7FD401C029B61
:1001800001D100F0A4FD0F93274670A8B0470DF0F1
:10019000D2FE38194078C006F7D4374670A80DF063
:1001A00061FF1298411E1291601C39D10029109DE7
:1001B0000F9A01D100F087FDB1E01398471C139707
:1001C000417800262A2935460BD101255495871CF4
:1001D000139706E0B819401C1390B85D71A98855B3
:1001E000761CBC5D204630380928F3D971A800215F
:1001F0000F9181550078002803D071A80DF006F901
:1002000055904C2C2FD0682C20D06A2C0BD06C2C05
:1002100010D0742C0AD07A2C16D10120000307E0EC
:10022000109D0F9A7BE00120C00201E001204003F5
:100230002D1819E0B919481C13904A786C2A4F4CB4
:1002400018D1012000020AE0B81910E0B919481CC1
:1002500013904A78682A494C0ED1012040022D188B
:100260005495881C0AE080355495B819401C119E9D
:10027000424C04E0403500E020355495119E411C6D
:10028000139103780C9A13705B2B28D10A785E2A9D
:1002900005D102210D435495811C139182785D2A6A
:1002A00006D1481C1390097854AA1173009901E0F3
:1002B000084603990F9D0278002A09D05D2A07D0CD
:1002C000421C139200784B1C087010461946F2E746
:1002D0000D705D2A01D1401C13900C9803781846CC
:1002E0005B38132800D94EE70121814024480142A0
:1002F00000D148E731461E4670AC20460F4688477D
:10030000054620460DF0ABFE1299681C05D1002968
:10031000109D324603D100F0D6FC109D3246099163
:100320001046583820284CD83E460D9F4000C04605
:1003300078448088400087445301260326031C012B
:100340002603260326032603260351002603CE0098
:1003500025005100510051002603250026032603E5
:100360002603260329032500250026032603CE00A5
:1003700026032500260326032500C04690240100FD
:10038000010108001746559C70A8B04721460DF0A2
:10039000D2FD14AD002934D014AD2D2C02D02B2C5D
:1003A00000D0B2E014A8047070A80C46B0472146F3
:1003B0000DF0C1FD491EF64A00D1D3E00891019D20
:1003C000A5E01046413806283E460D9F00D990E032
:1003D000012181407120014200D18AE0559D70A821
:1003E000B047044614AB401C09D00DF0E0FD2B2CA7
:1003F00009D114AB002D0BD12B24002513E03C4672
:1004000011E00027B0E014AB002D0CD02D2C0AD148
:1004100014A8047070A8B0470446401C01D00DF029
:10042000C6FD6D1E019B204661381A2801D3204667
:1004300001E0204620384928E24F109703D04E288B
:100440002AD1E14F10970026B5421BD01098805D4D
:10045000002816D0214661391A2901D3214601E02E
:100460002146203981420CD11F469C5570A8119914
:1004700088470446401C01D00DF099FD761C3B4690
:10048000E2E73546E81E41424141083D6842684185
:10049000084310909D1964E20022002D5CD0302C9E
:1004A0005AD10F9230201F46187070A8B0470446EA
:1004B000401C01D00DF07BFD7B1C681E0022012139
:1004C0001091002800D1AAE1214661391A2900D2F1
:1004D000A8E12146A8E1549901250846284049068B
:1004E000174676D4002800D00EE1059810C8059074
:1004F0000BE1252A00D046E270A8B047252801D09C
:1005000000F000FC0DF053FD40E20891AC4A0020E1
:100510003B46115C8B4204D0401C0728F9D10020D7
:1005200000E01018801A012813D1302C5CD10F95EF
:1005300070A81090B047054610980DF090FD20204F
:100540008543583D109501D0082010903B460F9DE3
:100550004CE09E49085C48E01946109204920A98C3
:1005600008907CE10027019D3A4638460A990F9190
:1005700062E0559F5498022101400F9114AC002F66
:1005800000D148E170A8B0470546401C089000D152
:10059000B1E010942C46E8B2002303990E7886420D
:1005A0000A4600D01A46491C002E1346F6D10F9B6E
:1005B00059425941531E9A419142119E2546109C21
:1005C00000D098E0611C20700DF0F1FC7F1E0C46FD
:1005D000D5E7002800D09DE0059810C805909AE066
:1005E00078220C980270CDE60A20109018466938DF
:1005F000C0B2102801D3002100E00121EA4FC7401A
:100600000F406F2B06D1302C0AD000200A990F9191
:10061000089A11E020463038414241410F42F4D05F
:1006200028466D1C047070A8B0470DF084FC089A31
:10063000521E00200F900A98002F24D0002A22D0AA
:10064000002820D020202146814358291BD1089220
:1006500070AF3846B047014638460F460E9A90476D
:10066000E148C0194078800701D4089A0BE02C704B
:1006700070A8B0470DF05FFC089A521E00D138E315
:100680006D1C102010900A9F002A23D01098082873
:1006900004D107202146814330290ED010980A2822
:1006A00003D1204630380A2807D31098102811D1DA
:1006B000CD480019407880070CD56E1C2C7070A8AE
:1006C00011991446884722460DF035FC521E00272A
:1006D0003546D9E770A80DF0C5FC1298401E12905F
:1006E0000020287005460F98384001280D9F119E64
:1006F00000D04BE1F5E270A80DF0B1FC1298099919
:10070000814200D087E004E300245598002841D4BA
:10071000054640E000245598002800D40546632A89
:1007200000D0054670A8B04701460DF040FC632F8D
:1007300005D1481E0222D24390420FD917E0481C2F
:10074000022801D3002000E00120A74A5218527865
:10075000D2060A9A00D40246002A08D1002D06D0FB
:10076000002C01D002C400E000246D1EDAE770A85E
:100770000E9A90471298401E12900999814200D11A
:10078000B7E2732F49D1002C47D00020206044E00D
:10079000892801000125632A00D0054670A8B047CA
:1007A00001460DF004FC632F05D1481E0222D243FE
:1007B000904217D921E0481C022809D3002008E004
:1007C000892801002B2F0100C62F01008A2001007B
:1007D0000120854A52185278D2060A9A00D402465D
:1007E000002A0AD1002D08D0002C03D0601C2170F3
:1007F000044600E000246D1ED0E770A80E9A9047D2
:100800001298401E12900999814200D171E2732F13
:1008100003D1002C01D0002020700D9FB6E004927F
:10082000154618E021462039582912D17C7070A84D
:10083000119988470446401C01D00DF0B8FBBA1C42
:10084000AD1E00200A9904911146109008900F9A4D
:1008500005E0049205460A9808900F9A19460692F8
:1008600016460F95002D0D466ED02B2C39D02D2C11
:1008700037D02E2C2FD0452C01D0652C0BD10898C9
:10088000002846D0109800285ED0002A5CD10120B4
:10089000074610904AE020463A380A21C943884268
:1008A00029460CD8049800284ED04F4800194078AB
:1008B000800704D4202020437028E3D044E02B2C70
:1008C0000FD02D2C0DD0702CDCD0502CDAD0652C14
:1008D000D5D02E2C1DD10698104335D1012006907D
:1008E00023E00898002808D0481E00782021014302
:1008F0006529294601D1174618E00498002823D01D
:10090000481E00782021014370291DD11746294631
:100910000CE0002A07D0204630380122092813D8DD
:100920001746164602E00120109000270C7070A8B0
:10093000119988470446401C01D00DF038FB691C12
:100940000F9D6D1E3A468CE71099481E814110910B
:10095000701E8641002A0A9800D030461099014046
:1009600010910D9F70A80DF07DFB601C02D01299B4
:10097000491E129100212970129A099B9342119EDF
:10098000109D00D1A8E1012D00D0B3E10C980178B1
:10099000012508465B381D283ED804A2124C4000B1
:1009A000105A40008744C046818000002400220085
:1009B00022002200220022004600220057014600A9
:1009C0004600460046002200460022002200220087
:1009D0002200A30046004600220022005701220008
:1009E000460022002200460090240100FFF7B5FBDC
:1009F0005499C80701D0FFF7B0FB05980068490675
:100A000000D5C8E014A94A1C0978431C01700029CC
:100A100018461146F7D1C7E0084641380628BF4CB2
:100A200001D9FFF79AFB012282407120024201D1D5
:100A3000FFF793FB14A80078002800D10BE154982D
:100A4000C20700D007E10B46613B172B3AD80022C2
:100A50009B0002A4E358B14C9F46C046D90A00004F
:100A6000570C0000570C00006B0B0000D90A000067
:100A7000D90A0000D90A0000570C00006D0B0000D5
:100A8000570C0000570C0000570C0000570C0000DA
:100A9000570C0000BD0A00008F0B0000570C00002F
:100AA000570C0000570C0000570C0000BD0A000056
:100AB000570C0000570C0000BD0A000078293FD0F9
:100AC00008223EE04139062900D9C4E001228A40CB
:100AD00071210A4200D1BEE0C021084080281ED00A
:100AE000402826D114A8002104F09EFC1BE0549855
:100AF000C10701D0FFF731FB89490840411E02467A
:100B00004A408A4200D894E0002800D183E0414264
:100B1000014084484143C80E83A1085C7CE014A8CE
:100B2000002104F081FC059B04CB0593106051600B
:100B300091E014A8002104F077FC0BF0C1FC87E0E1
:100B40001022752900D10A2275490840411E03462A
:100B50004B408B4242D900282ED04142014071487F
:100B60004143C80E70A1085C27E00A226C49084086
:100B7000411E03464B408B4248D9002833D04142A6
:100B8000014068484143C80E67A1085C2CE014A8E6
:100B90000021102224E014A90A78002A02D0491C5E
:100BA00004C0F9E7002101600598001D05900B982D
:100BB000401C0B90FFF7D1FA2020401F08280DD8C9
:100BC0007844007940008744580909045D09043AD3
:100BD0003A0014A8002108F0F5F9A4E714A80021B0
:100BE00009F058F834E02020401F08280ED8C046ED
:100BF00078440079400087444A09090452090427CF
:100C0000270014A8002106F005FF8CE714A8002196
:100C100008F02AFD1CE02020401F082809D8C04603
:100C200078440079400087444204041F48041F04AC
:100C3000040012980DF0CCF90860FFF78EFA14A8A2
:100C4000002108F0BFF903E014A8002106F0E2FE3D
:100C50000DF0BEF9086054980125294681430B9890
:100C600008180B90FFF779FA1298C117059B04CB6F
:100C7000059310605160FFF770FA14A8002109F085
:100C800009F808E014A8002109F004F80BE014A802
:100C9000002108F0E9FC0DF09BF90880DBE714A8BF
:100CA000002108F0E1FC0DF093F90870D3E71298E9
:100CB0000DF08EF90880FFF750FA12980DF088F9C0
:100CC0000870FFF74AFA0D9F19E00B9F17E00B9889
:100CD000002814D0074612E0002800D121460D4616
:100CE00008E0129809994140E043084302D1ED43DE
:100CF00000E00D9D0B98002800D005462F46384691
:100D000073B0F0BD054670A80DF0A9F9681CF1D0CC
:100D100002E008980028EDD00025EBE790240100C0
:100D2000603F000031B57C0700011C021D0E180356
:100D30001E16140F191104081F1B0D171513100789
:100D40001A0C12060B050A09F0B5FFB08EB0049319
:100D500006920646929802900025E84305908C91F1
:100D6000346820460DF095F821188B9503918C423C
:100D700000D3BCE00020879087A90873889005986D
:100D800089902F46049D2078002800D1B2E02528C4
:100D900005D0641C34600699A8477F1CF3E78B9745
:100DA000601C306087AC2046314600F0BBF88CAA4E
:100DB0002046314600F0D7F8306801780B46683B92
:100DC0000122D341092B2BD87B441B795B009F4424
:100DD00004130A2727271627271943788799682B92
:100DE00019D1520204E0437887996C2B10D112027A
:100DF00011438791801C12E08799D20204E0879901
:100E0000520301E0879912030A438792401C06E0CF
:100E1000401C402201E0401C2022114387910178B0
:100E2000441C346087A80173732913D06E291DD127
:100E3000879832490840411E02464A408A423CD9BE
:100E400000282DD0414201402D484143C80E2DA11C
:100E5000085C26E087A80078400619D4009587A88A
:100E60008CAA8BAB069900F03DF92AE007AD87A963
:100E70008CAA284600F08CF9024628460699029B67
:100E80009847411C059D00D0C5198B9503991AE020
:100E9000009587A88CAA8BAB069900F0C0F810E0EB
:100EA0002020401F082808D8784400794000874453
:100EB0001904040D14040D0404008C9802C88C90CD
:100EC0000F6003998B9D681C13D050E7F8178C991D
:100ED00004C98C9117605060F3E78C9802C88C901D
:100EE0000F70EEE78C9802C88C900F80E9E72F46D0
:100EF00000E0059F38467FB00EB0F0BD603F0000B7
:100F000031B57C0700011C021D0E18031E16140FBC
:100F1000191104081F1B0D17151310071A0C1206C0
:100F20000B050A0910B50A680124E3071AD01378E3
:100F3000302B0CD0232B0ED02B2B0AD02D2B04D0F2
:100F40000024202BF1D1042306E0012304E0102328
:100F500002E0022300E0082304681C430460521CE2
:100F60000A60E1E710BDFEB516460D460446086866
:100F700002782A2A10D13068011D31600068606053
:100F8000002805D5404260602068012101432160AE
:100F90002868471C2F6017E00021303A092A08D83A
:100FA0004218531C2B60435C6F467B545278491C9B
:100FB000F3E76A460023535412784718002A03D0F7
:100FC00068460CF023FA606038782E2826D1781C09
:100FD000286079782A2908D13068011D31600068BD
:100FE000A0602868401C2860FEBD00203039092917
:100FF00008D839188A1C2A604A786B461A548978AE
:10100000401CF3E76A46002111541078002804D0F0
:1010100068460CF0FBF9A060FEBDA160FEBDF0B516
:1010200087B01E460C9F13681C1D14601D68002DA0
:101030003AD0049106908468002C04D428460CF021
:1010400003FF844203D328460CF0FEFE04460698B4
:101050004068A042039000DC2046014630680191C0
:10106000401805940399A142029630600EDD06985F
:101070000078C0070AD1059801990E1A0024B442DD
:1010800004DA20200499B847641CF8E70026049C81
:10109000069805998E420ADA2868010A18D12D1D92
:1010A0002146B847761CF3E70020B84718E00599B9
:1010B000039A8A4214DD0078C00711D00198451ABE
:1010C0000024AC420CDA20200499B847641CF8E7ED
:1010D0000020C043029908600CF038FF58210160DD
:1010E00007B0F0BDF0B585B00C4606460A9D106805
:1010F000011D116000680490002844D00393B76874
:10110000002F04D404980CF0C4FE874203D3049843
:101110000CF0BFFE074602967268BA42114600DC28
:101120003946039B1868009140180192BA42186032
:101130000FDD02980078C0070BD10098C01B039008
:1011400000260398864204DA20202146A847761C10
:10115000F7E70026BE4205DA0498805D2146A847DD
:10116000761CF7E70198B84210DD02980078C007B6
:101170000CD00098C61B0027B74207DA2020214672
:10118000A8477F1CF8E700202146A84705B0F0BD1E
:10119000F0B589B005920E4604467F2080002718DE
:1011A0004868039000250795FF210491FE31202215
:1011B000204601920CF08AFD3046089702977D7018
:1011C000367B31466339152906903DD801228A4085
:1011D000604B1A42069822D007A908AA059B00F086
:1011E000BDF806980025067B012731466F3909298D
:1011F000059504D801228A4057490A423FD1582E0A
:101200003DD0016802230B40079A002A27D0089995
:101210004A1E08922D220A705F425F412FE000298A
:1012200012D1059B1A68111D19601268D1B24D4286
:101230004D410499FC316118089102990A700268C5
:1012400002218A430260CEE7252E02D0582EC3D059
:10125000CAE70020607025202070012078E0002B74
:1012600007D149070BD5089A511E089101991170B1
:1012700005E0089A511E08912B211170002703994F
:1012800003976518089B0178C907264608D102997B
:10129000491CC91A42689142264601DC691A4E1C53
:1012A000591C04984300002730463A460CF04EFC87
:1012B00008900599002903D0411C0891077000E0AF
:1012C0000146A94206D8481E691A491C20220CF082
:1012D000FDFC2F7006980078C00606D4311B202232
:1012E00020460CF0F3FC059D2EE0A642059D2BD078
:1012F000311B302720463A460CF0E8FC069B079845
:101300004142414103980140012905D11878400725
:1013100002D43046214604E03078611C2070701CF5
:1013200037701A7B412A0CD0582A05D0612A08D080
:10133000782A01D0702A07D11B781B0701D4612AB3
:1013400002D142784A70477020460CF0A2FD401945
:1013500009B0F0BD4230240043020000F8B5144645
:101360000F4605468068002804D428681021884369
:10137000286001E00120A860287B1026582808D0AA
:10138000782806D0702804D06F2801D1082600E004
:101390000A262846194600F055F8AA68002A09D1FD
:1013A00002460A4306D12878000749D52B7B002046
:1013B000024612E02B7B642B03D16423002905D461
:1013C0000AE0692B08D1002906D5692301223A6079
:1013D000002240428A4100E00A460094114632460B
:1013E00000F0CEF8A968884206DA401C21684A1E3F
:1013F000226030220A70F5E7287B582803D078282D
:1014000001D070280FD1297809070CD5702800D198
:10141000782021684A1E226008702068411E2160E1
:1014200030210170287B6F280AD12878000707D562
:1014300020684178302903D0411E2160302101709D
:10144000F8BDC04610B5037B702B05D10868021D9E
:101450000A60006800227BE002683E481040421E9D
:1014600004465440944216D9002807D04242024014
:1014700039485043C00E39A2105C00E02020401FC4
:10148000082808D878440079400087444C04041E9A
:1014900038041E04040000221846643814280DD8AD
:1014A00001248440354804420AD12120044205D059
:1014B0000868021D0A600068C21749E0582B46D12F
:1014C0000868031D0B60006842E018466438142861
:1014D00007D8012282402948024206D12120024237
:1014E00003D10020582B024632D10868C21D0720C4
:1014F00082431046083008601068526828E00022D5
:1015000018466438142807D8012484401B48044234
:1015100004D121200442CBD1582B18D10868031DD7
:101520000B60007814E0002218466438142807D8AD
:10153000012484401148044204D121200442B7D13F
:10154000582B04D10868031D0B60008800E010468A
:10155000114610BD603F000031B57C0700011C0240
:101560001D0E18031E16140F191104081F1B0D174A
:10157000151310071A0C12060B050A0900081200B1
:10158000FEB501920D460646582B01D0174800E0E3
:1015900015480090089802903046284305D1029AD9
:1015A0001068411E116030210170019C30462843B3
:1015B00013D030462946224600F01AF807460D4659
:1015C00022460CF0B1FA301A0099085C029B1968A7
:1015D0004A1E1A6008703E46E8E7029800680CF060
:1015E00058FC401EFEBDC046D82C01000B2D01004A
:1015F00080B5102A06D0082A09D1C0084A078018E9
:10160000C90880BD00090A078018090980BD0029A2
:1016100004D111460BF03CFF002180BD00230CF0EB
:10162000B5FB80BDF0B5BDB00546BA490AF068FC0F
:1016300000283BD0B84928460AF062FC002843D075
:101640000127B64928460AF05BFC002856D00997C6
:101650000024B34903E0E41C012A00D1B8E02A5D6C
:101660000B5D9A4200D092E0002A00D1B0E02A1926
:101670000B1956785F78BE4200D088E020460938C2
:1016800047424741002E099E00D03E46002E00D022
:101690009EE092789878824279D120460838434279
:1016A0004341002A099AD6D01A46D4E7012703F00D
:1016B000C7FA03469B4A0EAD302128460BF01CFEAC
:1016C00028460BF019FDF1E203F0BAFA04460CF0DB
:1016D00019FA002800D18BE007F040FA002800D169
:1016E00040E2914E914C92480BF006FD2EA8183026
:1016F0000890E41C0020099060252FE103F0A0FA77
:1017000005460CF0FFF900287BD007F027FA0028E7
:1017100000D1CBE209978548C51C002660270896B2
:10172000844C02E07F1E00D161E23C352EA93C22B0
:10173000284605F04BFF002800D156E22EA801787C
:10174000A529EFD180790128ECD12EA84088002866
:10175000E8D02EA98A88002AE4D0309B7249591813
:10176000A142DFD33199424350008142DAD1581867
:1017700014306E4A9042D5D201200003081813306D
:101780006D49084086190898401C0890CAE7002057
:101790006A49099F02E0C01C012A6CD02A5C0B5CDC
:1017A0009A4239D1002A66D02A180B1856785C78EC
:1017B000A64231D1002E5ED092789B789A422BD1EE
:1017C000841F63426341002A3A46E4D01A46E2E7A6
:1017D0000B355B492EAA28460CF062F8012800D090
:1017E00095E02E98FE2800D991E007F09FFC5CE27E
:1017F000544A0EAD4021284623460BF07DFD284675
:10180000AEE1504A0EAE402130462B460BF074FD3F
:1018100030460BF071FC49E200204B4903E0C01C4C
:10182000012A00D1C1E12A5C0B5C9A4200D09BE105
:10183000002A00D1B9E12A180B1856785C78A64224
:1018400000D091E104460C3C67426741002E099E9E
:1018500000D03E46002E00D0A7E192789B789A42B5
:1018600000D081E104460B3C63426341002A099A9F
:10187000D5D01A46D3E7093531492EAA28460CF0AF
:101880000FF8012800D09DE12E9EFE2E00D999E18F
:1018900007F064F9002800D198E1264C2348C51CC4
:1018A000602702E07F1E00D190E13C350EA93C226A
:1018B000284605F08BFE002800D187E10EA80178AC
:1018C000A529EFD180790128ECD10EA84188002903
:1018D000E8D00EA88288002AE4D01098124BC318D2
:1018E000A342DFD3119B4A4351008B42DAD1C21885
:1018F00014320EA90D4B9A42D4D24978B142D1D1BB
:1019000008F0F0FA002800D1CFE11048D2E11048E9
:10191000C9E1C046782F0100222F0100342F0100B9
:10192000602E01001C2D0100000081FF01007F00DE
:101930003E2D0100001081FF00F0FFFFFA2E010094
:10194000D62F01007A2A01009F2D0100F82D0100F9
:101950002D2D0100F84E2D1F00D1AFE120463C3067
:101960002EA93C2205F032FE002800D1F7E02EA877
:101970000178A52931D1807901282ED12EA840885F
:1019800000282AD02EA98988002926D0309A9319B8
:10199000F24FBB4221D3319E0B4643435B009E4234
:1019A0001AD193191433EF4FBB4215D22EAB5B788B
:1019B0000793329F089B009301ABC3C305920EAE01
:1019C00080213046ED4A079B0BF096FC30460BF029
:1019D00093FB0998401C0990E14E204678302EA9CF
:1019E0003C2205F0F3FD002800D1B8E02EA80178D4
:1019F000A52931D1807901282ED12EA84088002830
:101A00002AD02EA98988002926D0309A9319D34F3D
:101A1000BB4221D3319E0B4643435B009E421AD109
:101A200093191433CF4FBB4215D22EAB5B7807937B
:101A3000329F089B009301ABC3C305920EAE802179
:101A40003046CE4A079B0BF057FC30460BF054FB58
:101A50000998401C0990C24E2046B4302EA93C2261
:101A600005F0B4FD00287AD02EA80178A52931D13F
:101A7000807901282ED12EA8408800282AD02EA9AE
:101A80008988002926D0309A9319B44FBB4221D3BC
:101A9000319E0B4643435B009E421AD19319143387
:101AA000B04FBB4215D22EAB5B780793329F089B99
:101AB000009301ABC3C305920EAE80213046AF4AFE
:101AC000079B0BF019FC30460BF016FB0998401CE5
:101AD0000990A34EF0342EA93C22204605F076FD55
:101AE00000283CD02EA80178A52900D033E78079C2
:101AF000012800D02FE72EA84088002800D12AE72F
:101B00002EA98988002900D125E7309A9319934F8F
:101B1000BB4200D21FE7319E0B4643435B009E420F
:101B200000D017E7931914338E4FBB4200D311E74F
:101B30002EAB5B780793329F089B009301ABC3C326
:101B400005920EAE802130468C4A079B0BF0D4FBE9
:101B500030460BF0D1FA0998401C0990FAE6844807
:101B60000BF0CAFA0127A1E000207449099F02E0A6
:101B7000C01C012A7CD02A5C0B5C9A4246D1002A08
:101B800076D02A180B1856785C78A6423ED1002EE3
:101B90006ED092789B789A4238D1841F6342634119
:101BA000002A3A46E4D01A46E2E70E3569492EAAE1
:101BB00028460BF075FE012874D12EA800780BF092
:101BC0009DFE72E064480BF097FA6FE01F2E70D80C
:101BD000700401210903401808F084F90028099FC6
:101BE00064D061480BF088FA60E061485BE0614BCB
:101BF000981B0899C9B20096019002915E4A0EADF9
:101C0000602128460BF078FB28464CE000224C4926
:101C1000089202E0D21C012B5CD0AB5C885C834252
:101C200056D11046093846424641002B384600D06E
:101C3000304600284ED1AB188E185F7870788742F6
:101C400046D11446083C60426041002F099F00D0F5
:101C50000746002F099F3DD19B78B078834237D14A
:101C6000D41F60426041002B3B46D3D00346D1E7EE
:101C700009350AA802900BA801900CA800903449DD
:101C80000EAA0DAB28460BF00BFE05283BD10DA884
:101C900002880CA803880B980A9900900191FF20F4
:101CA0000EA945E02C480BF027FA099F38463DB0B5
:101CB000F0BD2E48099F0BF01FFAF7E70998C3B251
:101CC0002F4A0EAC802120460BF016FB204647E73A
:101CD000089FEBE70A350AA802900BA801900CA810
:101CE000009018492EAA0DAB28460BF0D9FD2E9B6B
:101CF000FE2B01D8002100E001210528384600D143
:101D00000846012803D111480BF0F6F9CEE70E4A38
:101D10000EAD102128460BF0EFFA2EA800780DA981
:101D20000A880CA90B880B990A9C009101942946FA
:101D300001F05CFABAE7C046000081FFF02E010016
:101D4000B22E0100FA2C0100872F0100902D010016
:101D5000462C0100D62F0100BD2D0100001081FF8F
:101D6000000081FF01007F00F82D01000A2C010016
:101D7000E12B010000F07E00482901004828010005
:101D8000182B0100F0B5C5B00AA80790B648007836
:101D9000012800D037E209A80BF032FC002800D15E
:101DA00031E2079820300790B04DB14CB14E05E0BC
:101DB00009A80BF025FC002800D124E20998296825
:101DC0004A1C2A60AC4B5854AC4F39680B0A484047
:101DD000C0B28000AA490858584038602068401CAA
:101DE00020600121089109028A4202D031688842AC
:101DF000DED1A44E3068A04903F0A0FE002800D137
:101E0000F6E1286831680818306000272F602368E1
:101E10001EAE282130469C4A0BF06EFA3046954E95
:101E20000BF06AF9216830688142C1D19349096891
:101E3000CD43964919919649098819AA91809549E7
:101E40000988D18008991B911C901D9586480770C0
:101E500091480068A84200D0D0E19048006819A9D4
:101E6000142203F06BFE002800D1C9E18C48C41C89
:101E700003953C341EA93C22204605F0A7FB002810
:101E800007D01EA80078FF2800D1C0E17F1C602F7A
:101E9000EFD18348C51C0027602182480590069138
:101EA00028463C3036A93C26324605F08FFB0028F8
:101EB00000D19BE136A80178A52929D18079012894
:101EC00026D136A84088002822D036A98988002942
:101ED0001ED0389A744BD318744CA34218D3399B34
:101EE00041434800834213D1D01814306C498842D2
:101EF0000ED27C1CF8B246436A48801936A94CC9F8
:101F00004CC0CCC9CCC0CCC9CCC0CCC9CCC000E082
:101F10003C462846783036A93C26324605F056FB2A
:101F2000002800D162E136A80178A52929D180795D
:101F3000012826D136A84088002822D036A98988D1
:101F400000291ED0389A584BD318584FBB4218D38B
:101F5000399B41434800834213D1D0181430504973
:101F600088420ED2671CE0B246434E48801936A91B
:101F70001CC91CC05CC95CC05CC95CC05CC95CC0DD
:101F800000E027462846B43036A93C26324605F004
:101F90001DFB002800D129E136A80178A52929D107
:101FA0008079012826D136A84088002822D036A979
:101FB000898800291ED0389A3B4BD3183B4CA3424A
:101FC00018D3399B41434800834213D1D0181430B1
:101FD000334988420ED27C1CF8B2464331488019FE
:101FE00036A94CC94CC0CCC9CCC0CCC9CCC0CCC91A
:101FF000CCC000E03C46F03536A93C2628463246A7
:1020000005F0E4FA002800D1F0E036A80178A5290F
:102010004ED1807901284BD136A84088002847D07E
:1020200036A98988002943D0389A1F4BD3181F4FEF
:10203000BB423DD3399B41434800834238D1D0183D
:1020400014301749884233D2671CE0B24643154822
:10205000801936A91CC91CC05CC95CC05CC95CC0C5
:102060005CC95CC025E0C046142A2020B829202085
:10207000AC29202038292020A0242020B429202089
:1020800090200100E42920207F2C0100494D473099
:10209000042A2020F6292020342920202C29202041
:1020A00001007F0000002020000081FF001081FF60
:1020B00027460698011F00D0F1E6E448451E284651
:1020C00005F082FE002800D190E0E14805F07CFE9A
:1020D000002800D18AE0DF4805F076FE002800D114
:1020E00084E0DD4805F070FE00287FD0DB4805F075
:1020F0006BFE00287AD0DA4805F066FE002875D01D
:10210000D84805F061FE002870D0D74805F05CFE85
:1021100000286BD0FF20C00305F056FE002865D0D4
:10212000D24805F051FE002860D0D14805F04CFEA1
:1021300000285BD0CF4805F047FE002856D0CE4897
:1021400005F042FE002851D0CC4805F03DFE0028A5
:102150004CD0CB4805F038FE002847D0C94805F0E0
:1021600033FE002842D01EAE304614302C21FF2210
:102170000BF0ACFDC4481E90C4481F9008980003A3
:10218000209021950024229440222846314603F0D5
:10219000D5FC00282AD0380612D0FEB2AB4D3F3510
:1021A000602C23D03C222846059903F0C7FC002868
:1021B0001CD0641C05983C3005903C35A642EFD1FC
:1021C000B4480AF099FFA148C41C00273C341EA95A
:1021D0003C22204605F0FAF9002807D01EA8007816
:1021E000FF2812D0781C07466028EFD1A84808E0E5
:1021F00000208C49087028608C4802E08E4800E07E
:102200008F480AF079FF45B0F0BD874E039D0AACB8
:10221000201D3821FF220BF059FDA52020709E487B
:102220000078607082480088608082480088A080C2
:102230000898A071814800680C9030680D900E9548
:102240008248C51C00200490602603E02746069CB7
:10225000761E35D03C351EA93C242846224605F082
:10226000B5F900282CD01EA90A78A52AF0D18979C1
:102270000129EDD11EA94A88002AE9D006943C46DE
:102280001EA98F88002FE1D0209B6F4905935B1812
:102290006C498B42DAD3219B57437A009342D5D1C4
:1022A000239A04998A42274600D8049A0599C918A6
:1022B0001431664B9942069C00D3049A0492C7E7F6
:1022C000002803D1584E079D089803E00498401C4D
:1022D000554E079D0F9071490A780AA80276002A88
:1022E00047D04A780AA84276002A45D08A780AA8B8
:1022F0008276002A43D0CA780AA8C276002A41D042
:102300000A790AA80277002A3FD04A790AA84277B8
:10231000002A3DD08A790AA88277002A3BD0C87962
:102320000AAAD077002839D0087A2870002838D037
:10233000487A6870002837D0887AA870002836D08C
:10234000C87A079AD070002835D0087B079A107198
:10235000002834D0487B079A5071002833D08A7BFC
:10236000079BD81D9A71002A31D0C97B0170079D47
:1023700031E019300F212CE01A300E2129E01B30FA
:102380000D2126E01C300C2123E01D300B2120E024
:102390001E300A211DE01F3009211AE008212846BD
:1023A00017E0681C072114E0A81C062111E0079D16
:1023B000E81C05210DE0079D281D042109E0079D6B
:1023C000681D032105E0079DA81D022101E00121F0
:1023D000079D0BF082FCF9B20020E87130485F29BC
:1023E00000D90EE77F210F4067431849CA193F32D1
:1023F0000AA905461046224603F0A0FB01462846DE
:10240000002900D1FDE62448037830680090039845
:102410000190244A1EAC602120460AF06DFF204640
:10242000EFE6C046142A202038292020B62B0100D0
:10243000042A2020F6292020062E01002C29202005
:102440004F2D0100001081FF000081FF01007F007F
:1024500000107F0000207F0000307F0000407F00E0
:1024600000507F0000607F0000707F0000907F00C0
:1024700000A07F0000B07F0000C07F0000D07F0080
:1024800000E07F0000F07F004D49445801006000EB
:10249000CC2B0100472B01000A2A202008292020EC
:1024A000802D0100C8290100F0B5C9B0044602E042
:1024B000092808D1641C20781F28F9DD2028F9D0CC
:1024C0003E28F7D003E0002801D122462CE0651C0D
:1024D00028460BF04CFB421C2918824201D20A46C6
:1024E00022E0201803E0C91EC01EA34215D90278BD
:1024F000202A01D0092A10D1A04210D9421E1378F7
:10250000202B01D0092B0ED1A2420AD9831E1D789F
:10251000202DE8D0092DE6D006E0421C04E002465A
:1025200002E08A1E00E04A1E00251570217800296D
:1025300022D0204604E0C21CC178002910461BD0DE
:102540000A46613AD2B2192A01D82039017041787D
:10255000002911D00A46613AD2B2192A01D820398D
:1025600041708178002907D00A46613AD2B2192A0F
:10257000E1D820398170DEE720784C285FD160787F
:1025800054285CD1A078552859D1E078522856D1EA
:1025900020794E2853D16079202850D1A01DF849C8
:1025A00008AA0BF07DF9012800D090E2F54D2878BB
:1025B00000284BD1F44F3868F4490968401A45D4D3
:1025C00009A80BF0B5FBF248002404700AF0A0FF44
:1025D000F0480460F048046001262E7038687D21C0
:1025E000090140186438E9490860089D28462146D9
:1025F0000AF023FC0028304600D1E043E749086098
:10260000284621460AF007FC002801D0F007454083
:10261000E349284609F0B8FCE24909F0E1FBE24948
:1026200008600998E14908600A98E1490860E148B2
:102630000BF06AFCE0480BF067FCE04869E2D24F1F
:102640003968204609F00CFA002801D049B0F0BDE5
:1026500006A80BF06DFB0699079A204602F00CFDC8
:10266000002806D0CB4800210160CB480160D44847
:102670004FE22078502823D16078492820D1A078D3
:1026800044281DD1E07820281AD1201D05A90091E9
:10269000CC4909AA08AB0BF003F9032800D018E2D3
:1026A0000999C448089A059B0EC0C34C0EC40C3C43
:1026B0000C380BF029FC20460BF026FCC24828E21F
:1026C0002078422848D16078412845D1A078532805
:1026D00042D1E07845283FD1207920283CD1601DA7
:1026E0000025294603F082FD0646B84C21460AF033
:1026F00092FB0490B64F304639460AF0A7FB0028FB
:1027000000D137460498002800D13C46A048057007
:102710009C4805700AF0FCFE9E480460204629464D
:102720000AF070FB002809D09B480560A1480BF017
:10273000EBFBA1480BF0E8FB0AF092FC00212046DD
:102740000AF07BFB0546F549204609F049FB002DC0
:1027500000D1C2E13F21C1E120784D2852D16078FB
:102760004F284FD1A07854284CD1E0784F2849D138
:102770002079522846D16079202843D17D2000015C
:102780000890A01DFD4909AA08AB0BF089F80028A4
:1027900000DCBDE1099D0024284621460AF03BFBF0
:1027A0000490F84E284631460AF050FB002800D12C
:1027B0002E46F7480499002900D134460994089917
:1027C000814200D90890DC4801210170DB480021DA
:1027D00001700AF09DFE0998DD490860DD49086036
:1027E0000898002801D039680818DB490860DB48E0
:1027F0000BF08AFBDA480BF087FB089B0999E64847
:102800000A4665E02078502866D16078572863D161
:10281000A0784D2860D1E07820285DD17D2000018E
:102820000590201D05A90091D74909AA08AB0BF016
:1028300037F8022800DA4EE1099E0024304621468E
:102840000AF0E9FA0490CF4D304629460AF0FEFA24
:102850000028284600D1304604990029214600D19D
:1028600001460991089E304621460AF0D4FA0490A8
:10287000304629460AF0EAFA002800D13546C44815
:102880000499002900D12C4608940599814200D969
:102890000590A94801210170A848002101700AF0A3
:1028A00037FE0998AA4908600898AA49086005985F
:1028B000002801D039680818A7490860A7480BF01C
:1028C00023FBA7480BF020FB059B089A0999B14808
:1028D00009F0F8F949B0F0BD207850287AD1607835
:1028E000552877D1A0784C2874D1E078532871D13D
:1028F000207945286ED1607920286BD1A01D9F4991
:1029000009AA08AB0AF0CCFF022800D0FCE07D2029
:102910000490099C204629460AF07DFA0390994EBE
:10292000204631460AF092FA002800D12646049843
:1029300000010399002900D1354609950899814283
:1029400000D908907C48012101707C480021017069
:102950000AF0DEFD09987E4908607E490860386803
:10296000089908187C4908607C480BF0CDFA7C482F
:102970000BF0CAFA089909980AF0F6FA49B0F0BDC6
:10298000D32F01000C2A2020802920208C292020F0
:10299000112A2020D8292020BC292020502920209D
:1029A0000000B442008089435C2920205429202063
:1029B00058292020A0282020C4282020A72E01004C
:1029C000902E01003D2F0100462F0100000070C233
:1029D00000007042207851281BD16078552818D10A
:1029E000A078492815D1E078452812D120795428BB
:1029F0000FD1607920280CD1A01D00210A2206F0F9
:102A000033FE41424141584A117000287ED05A4855
:102A10007FE02078542819D16078452816D1A07815
:102A20004C2813D1E078452810D1207920280DD1E9
:102A3000601D00210A2206F017FE411E02468A414F
:102A400049490A7000285DD1494862E0344920466E
:102A500009F056FA002810D03249204609F050FA01
:102A6000002828D03049204609F04AFA002826D00C
:102A700020460AF0FDFE49B0F0BD2F4805702F48F2
:102A800005700AF045FD2E4805602E4805602E4869
:102A900005602E4805602E4805602E4805602E48CA
:102AA00005602E480BF030FA2D480BF02DFA0AF095
:102AB000D7FA2C482DE005F037FC49B0F0BD0BF0FB
:102AC00043F91A4805601A4805601A4821E037485A
:102AD0001FE035481DE02D481BE0BF21090608F026
:102AE000C4F90AF0A9FD009001902D4A2D4B012058
:102AF000010209A80AF000FC401EFE2800D9A5E545
:102B000009A806E0194804E01D4802E0194800E061
:102B100022480AF0F1FA49B0F0BDC0460000C842B0
:102B2000AD2F0100B62F0100682F0100A42920203D
:102B3000A8292020142E0100112A20200C2A202050
:102B4000D8292020BC292020942920209C2920201D
:102B5000D0292020D429202098292020A0282020F6
:102B6000C4282020DC2E0100162A20206C2E010013
:102B7000542E0100212E01002E2E0100802F010075
:102B8000482E01000000AA42182F0100042F010066
:102B900010270000BA2F0100952F0100842E01009C
:102BA000F62B0100B32601000E2F0100782E010044
:102BB000F0B591B00A910127002A00D10BE30E93E2
:102BC000002B00D107E30D921349144D81220C9282
:102BD0000A6001242C602C64099002262E602C606F
:102BE000A02738460BF0A2F9284610300B902C6134
:102BF00038460BF09BF92E610998400040B2064A16
:102C00000C9911602C6010942C6434462E6107904E
:102C10000028284605D403E00480424090120A4070
:102C20000B981099016020200F900BF07FF9FC4D5C
:102C30002C6038460BF07AF92C6138460BF076F9A7
:102C4000099EB00606900B9800D5F54810990160D2
:102C50000F980BF06BF9F24D2C6038460BF066F9CB
:102C60002C6138460BF062F9F00605900B9800D500
:102C7000EB48109901600F980BF058F9E84D2C6063
:102C800038460BF053F92C6138460BF04FF93007FA
:102C900004900B9800D5E248109901600F980BF052
:102CA00045F9DF4D2C6038460BF040F92C61384671
:102CB0000BF03CF9700703900B9800D5D848109999
:102CC00001600F980BF032F9D54D2C6038460BF0AF
:102CD0002DF92C6138460BF029F9B00702900B98BA
:102CE00000D5CF48109901600F980BF01FF9CC4D1B
:102CF0002C6038460BF01AF908942C6138460BF01A
:102D000015F9F00701900B9800D0C548109C04609D
:102D10000F980BF00BF9089EC14D2E6038460BF052
:102D200005F92E6138460BF001F92C610F980BF074
:102D3000FDF82E6038460BF0F9F82E6138460BF09E
:102D4000F5F808F02FFAB7490C9A0A602C602C6449
:102D500031462E610028374600D130E20A9840B251
:102D6000AF490F4610370028084600D4384610995E
:102D7000016020200F900BF0D9F80224A84D2C60A0
:102D8000A02630460BF0D2F82C6130460BF0CEF87E
:102D90000A984006384600D5A148109901600F985E
:102DA0000BF0C4F89E4D2C6030460BF0BFF82C6140
:102DB00030460BF0BBF80A988006384600D5984894
:102DC000109901600F980BF0B1F8954D2C603046CA
:102DD0000BF0ACF82C6130460BF0A8F80A98C0064E
:102DE000384600D58E48109901600F980BF09EF878
:102DF000FB4D2C6030460BF099F82C6130460BF0FF
:102E000095F80A980007384600D5F54810990160F2
:102E10000F980BF08BF8F24D2C6030460BF086F8D3
:102E20002C6130460BF082F80A984007384600D5EE
:102E3000EB48109901600F980BF078F8E84D2C6082
:102E400030460BF073F82C6130460BF06FF80A989F
:102E50008007384600D5E248109901600F980BF0C2
:102E600065F8DF4D2C6030460BF060F809942C615A
:102E700030460BF05BF80A98C00700D0D84F109C82
:102E80003C6027460F980BF051F8099CD44D2C60FC
:102E900030460BF04BF82C6130460BF047F808F049
:102EA00081F9CE490C9A0A602F602F64002800D166
:102EB00074E1CB4D2C602F60A02630460BF036F825
:102EC0002846103507610B9630460BF02FF8C449A1
:102ED0000C61C2480C9A02600F600F642F460C61AF
:102EE00007980028084600D4384610990160202031
:102EF0000F900BF01BF8BA4D2C600B9E30460BF078
:102F000015F82C6130460BF011F806980028384669
:102F100000D5B348109901600F980BF007F8B04D39
:102F20002C6030460BF002F82C6130460AF0FEFFB0
:102F300005980028384600D5A948109901600F98D7
:102F40000AF0F4FFA64D2C6030460AF0EFFF2C612A
:102F500030460AF0EBFF04980028384600D5A04818
:102F6000109901600F980AF0E1FF9D4D2C603046EA
:102F70000AF0DCFF2C6130460AF0D8FF03980028E5
:102F8000384600D59648109901600F980AF0CEFF98
:102F9000934D2C6030460AF0C9FF2C6130460AF090
:102FA000C5FF02980028384600D58D481099016069
:102FB0000F980AF0BBFF8A4D2C6030460AF0B6FF2E
:102FC0002C6130460AF0B2FF0198002800D0844FEF
:102FD000109C3C600F980AF0A9FF099D804F3D604E
:102FE00030460AF0A3FF3D6130460AF09FFF3C6087
:102FF0000F980AF09BFF3D6030460AF097FF3D6155
:1030000030460AF093FF08F0CDF8002800D1C8E060
:103010000D99481EC2B20E9D7048099FA02618E067
:1030200090120A4004804240026030460AF07EFF5F
:10303000099F6B4C276030460AF078FF2761109B90
:1030400023606D1C0F9A521E0D99491E634800D1D2
:10305000AAE00E950F920D9163490160604D2F61BA
:1030600030460AF063FF2F6030460AF05FFF5D4C88
:1030700020680B9030460AF059FF2F6130460AF065
:1030800055FF2F6030460AF051FF0B98C007800FA4
:103090002168109C214008180B9030460AF046FF2A
:1030A0002F6130460AF042FF2F6030460AF03EFFA3
:1030B0004C4800680A9030460AF038FF2F613046CD
:1030C0000AF034FF2F6030460AF030FF0B98800082
:1030D0000A99C907890F4018424909682140081810
:1030E0000B9030460AF022FF2F6130460AF01EFF97
:1030F0002F6030460AF01AFF3A4800680A903046BE
:103100000AF014FF2F6130460AF010FF2F6030469E
:103110000AF00CFF0B9880000A99C907890F401824
:1031200030490968214008180B9030460AF0FEFE2D
:103130002F6130460AF0FAFE2F6030460AF0F6FEA4
:10314000284800680A9030460AF0F0FE2F613046A9
:103150000AF0ECFE2F6030460AF0E8FE0B98800083
:103160000A99C907890F40181E49096821400C189F
:1031700030460AF0DBFE2F610E990C700C98174A4E
:103180001060109A2A602A642F610F980028284640
:103190000D4600D148E71248103045E7032708994B
:1031A0000BE004270D4800E000270C9901601098FF
:1031B0000B49086008640899099C09480461109E3D
:1031C000074D2E612960A02420460AF0AFFE2E6034
:1031D00020460AF0ABFE384611B0F0BD04804240F4
:1031E00090120A4080130A4081000400F0B5FFB03D
:1031F000DCB0E09D002D30D0002B2ED0002A2CD04A
:10320000FC4C2478002C28D11C4654436400A54271
:1032100023D1F94CF94F2E1913367F1EBE421CD311
:103220000A910B900892099301F00AFD06460AF0F4
:1032300069FC002800D155E105F090FC00280FD072
:103240000B98FF2800D156E105F088FC00283AD001
:10325000EB48C61C6027E84C07E0EA4809F04CFF41
:103260007FB05CB0F0BD7F1E2DD03C361BA93C2248
:10327000304604F0ABF9002825D01BA80178A52919
:10328000F1D180790128EED11BA840880028EAD02E
:103290001BA98A88002AE6D01D99D84BCB18A342D7
:1032A000E1D31E9B424350008342DCD1C918143144
:1032B0001BA8D34A9142D6D241780B988142D2D1F1
:1032C0000B9805F033FFE1980290284614300490E3
:1032D000CD490120039000030790281813300840BF
:1032E0000590C748C71C00200690602602E0361FE4
:1032F00000D144E138463C300CA93C2204F066F988
:10330000002800D174E10CA80178A5292ED180797C
:1033100001282BD10CA84288002A27D00CA883882A
:10332000002B23D00E98B5494118B34CA1421DD3B0
:103330000F9953435A00914218D142181432B04B9E
:103340009A4213D2069CE2B2D20001921BAB019AC0
:103350009A180092019A9850079A51181331AA4A64
:103360001140081800994860641C0694384678306B
:103370000CA93C2204F02AF9002800D138E10CA85D
:103380000178A5292ED1807901282BD10CA842885B
:10339000002A27D00CA88388002B23D00E989749A9
:1033A0004118954CA1421DD30F9953435A009142A5
:1033B00018D142181432924B9A4213D2069CE2B2B0
:1033C000D20001921BAB019A9A180092019A985070
:1033D000079A51181331FC4A1140081800994860A7
:1033E000641C06943846B4300CA93C2204F0EEF874
:1033F000002800D1FCE00CA80178A5292ED1807905
:1034000001282BD10CA84288002A27D00CA8838839
:10341000002B23D00E98E8494118E64CA1421DD359
:103420000F9953435A00914218D142181432E44B79
:103430009A4213D2069CE2B2D20001921BAB019ACF
:103440009A180092019A9850079A51181331DE4A3F
:103450001140081800994860641C0694F0370CA9C4
:103460003C22384604F0B2F8002800D1C0E00CA895
:103470000178A52900D03AE78079012800D036E705
:103480000CA84288002A00D131E70CA88388002BC1
:1034900000D12CE70E98C8494118C64CA14200D271
:1034A00025E70F9953435A00914200D01FE7421875
:1034B0001432C34B9A4200D319E7069CE2B2D20001
:1034C00001921BAB019A9A180092019A9850079AA0
:1034D00051181331BC4A1140081800994860641C07
:1034E000069404E7B54A1BAC40212046334609F058
:1034F00003FF2046B2E600200B90AE4C05F02EFBF9
:10350000002800D1DFE6AE48C61C602702E07F1E1F
:1035100000D1D8E63C361BA93C22304604F056F8D0
:10352000002800D1CFE61BA80178A529EFD180792A
:103530000128ECD11BA840880028E8D01BA98A8864
:10354000002AE4D01D999C4BCB18A342DFD31E9BCD
:10355000424350008342DAD1C91814311BA8984A5B
:103560009142D4D241780B98C0B28142CFD10B980E
:10357000411C80B2FE280B91C0D392486EE607989A
:10358000059908188E49884232D20699C9B2002995
:10359000079E3BD0CB001A46103A0693083B079F84
:1035A0003E46002403E018340699A1422ED01BAFFA
:1035B0003959814203D239194F68BE4213D3A3420D
:1035C00024D01BAF3F19B968814202D2FF68BE42C6
:1035D00009D3A2421AD01BA90F1939698142E2D23C
:1035E0007F69BE42DFD20598381875498842D7D323
:1035F000764833E6142A2020001081FF000081FF66
:1036000001007F00E92C010000F0FFFF704809F085
:1036100073FD04988419A6421DD23746384604F03B
:10362000D3FB002800D18BE007983F18A74212D2A5
:10363000384604F0C9FB002800D181E007983F1804
:10364000A74208D2384604F0BFFB002878D007987C
:103650003F18A742E2D31BAF0A98394608F046FE4E
:103660005348039901705C490B9808705B490898AE
:1036700008805B49099808805A4805605A480299B1
:1036800001605A48002404605948E14301605948E8
:103690000660143658480660584804603878584D1B
:1036A0002870002849D01BA840786870002849D0AD
:1036B0001BA88078A870002847D01BA8C078E870A5
:1036C000002845D01BA800792871002843D01BA8EA
:1036D00040796871002841D01BA88079A871002822
:1036E0003FD01BA8C079E87100283DD01BA8007A04
:1036F000287200283CD01BA8407A687200283BD072
:103700001BA8807AA87200283AD01BA8C07AE87259
:10371000002839D01BA8007B2873002838D01BA8AC
:10372000407B6873002837D01BA8807BA8730028D3
:1037300036D01BA8C07BE87337E0681C0F2132E04D
:1037400024488BE5A81C0E212DE0E81C0D212AE061
:10375000281D0C2127E0681D0B2124E0A81D0A214B
:1037600021E0E81D09211EE02846083008211AE062
:1037700028460930072116E028460A30062112E0C3
:1037800028460B3005210EE028460C3004210AE0C3
:1037900028460D30032106E028460E30022102E0C3
:1037A00028460F3003990AF098FAEC73154855E54E
:1037B000142A2020001081FF000081FF7A2A0100D6
:1037C00001007F00702D010000F0FFFF592C010067
:1037D000AE2D0100602D01000A2A2020042A20209D
:1037E000F62920203829202034292020AC29202027
:1037F000B42920202C292020E4292020B8292020A9
:1038000008292020DB2D0100F0B589B0064607A865
:103810000AF08EFA0798D6490A68871A089AD54B93
:103820001C68151BD44C266008601A60D3480078C9
:10383000012810D1D2480760D2480560D2480168FB
:10384000002920D0711A1ED4D04900240C60D04920
:103850000C60046019E00495CE480468CE48056801
:103860002046294609F0D7FA0028039623D07D2068
:10387000C105204607F0F9FA0446294609F0E6FAA0
:10388000002828D028E0C1480468C44E356828467E
:10389000214609F0C0FA002800D196E03F20010639
:1038A000284607F0E2FA0546214609F0CFFA00283B
:1038B00000D19BE09BE02046294609F0C7FA00288A
:1038C00009D0B749204607F0D0FA0446294609F046
:1038D000A2FA002800D125460295AE480560B14DF8
:1038E0002C68384609F050FE214607F0B9FA7D21D0
:1038F000CF05394608F074FA214607F0B6FA0446B7
:103900002860A94E3568049809F03EFE294607F064
:10391000A7FA394608F064FA294607F0A6FA0746DE
:10392000306000212046049109F087FA06469F493D
:10393000204608F055FA3F210A06BF210D06002E49
:10394000294600D01146019207F08FFA09F074FE63
:1039500004468B4804603846049909F06EFA06461E
:103960003846924908F03CFA002E00D0019D2946C5
:1039700007F07BFA09F060FE82490860201A8C4942
:103980000860029806900590039E304608F036FCC9
:10399000029089480468894D2F780798089906AAEB
:1039A00005AB06F04FFE012F38D1002800D1C3E04F
:1039B000FA4800210160FA480160FA4801607D4838
:1039C000016009F04DFB09B0F0BD2846214609F021
:1039D0003DFA00280AD0BF200106284607F045FA24
:1039E0000546214609F017FA002800D12C4634601C
:1039F000ED4F3E68664805683046294609F00BFAE7
:103A000000285CD03F200106304607F02EFA06461B
:103A1000294609F01BFA002862D062E0341B002816
:103A200005D10798089906AA05AB05F0BFFE002C42
:103A300000D5E4E00127039809F0A0FF00210491DC
:103A4000002818D00AF0E8F90028384600D1287874
:103A5000C00710D1059C0698002109F0D3F9002871
:103A600009D00021204609F0CDF9002803D0D24822
:103A7000069005900497039809F0E2FE002800D014
:103A80002F78F80704D10AF0C7F9002800D197E091
:103A9000039809F073FF002800D1B0E00AF0BCF9E8
:103AA000002800D0ABE00698C44C214608F098F9F5
:103AB00006900598214608F093F904469EE03046AA
:103AC000294609F0C3F900280AD0BF200106304674
:103AD00007F0CBF90646294609F09DF9002800D1E8
:103AE00035463D602046294606F0A6FCC1480068E0
:103AF000002109F087F9002800D14CE13C68BF485B
:103B00000568BD480068002109F07CF9002800D153
:103B100041E10021284609F075F9002800D13AE179
:103B200000252046294609F06DF9002800D132E130
:103B30009E48057009B0F0BDAC480568684209F0C0
:103B400023FDAB4E314608F04BF904469F48046014
:103B5000284609F019FD314608F042F901469C4813
:103B600001609D480460A0480160204611E1C04604
:103B7000A4292020A829202080292020112A2020C3
:103B8000602920207429202098292020D029202055
:103B9000D4292020BC292020D82920209429202085
:103BA000000080BE44292020482920200000C8426F
:103BB00070292020782920208C2920200C2A2020E0
:103BC0000699029C204607F050F906900598214678
:103BD00007F046F905900AF01FF900280FD1069862
:103BE0000024214609F017F9002801D00020069092
:103BF0000598214609F00FF9002800D00594069C8D
:103C00006F4E2046314609F006F905466D4F2046B5
:103C1000394609F01BF90028384600D12046002D0E
:103C2000344600D104460694059D2846314609F0E5
:103C3000F2F803902846394609F008F9002800D127
:103C40002F460398002800D13E4605960498002888
:103C500026D000252046294609F0DDF804905A4F69
:103C60002046394609F0F2F80028384600D12046AF
:103C7000049900292C4600D1044606943046294672
:103C800009F0C9F804903046394609F0DFF80028F9
:103C900000D137460498002800D13D46059500E044
:103CA00035464A4804604A48056041480268494828
:103CB000214607F0F1FC484F38603E4802680599FC
:103CC000464807F0E9FC04903D68069C0026204623
:103CD000314609F097F80028304624D10395002595
:103CE0002046294609F097F8002801D1204602E035
:103CF0000120C00760403A4908F072F841210906E6
:103D000007F0B3F807462046294609F09FF8002837
:103D100004D00398394607F0A8F803E00398394621
:103D200007F09EF82C4F3860059F04463846314610
:103D300009F068F8002828D1254600243846214695
:103D400009F069F8002801D1384602E00120C007D7
:103D50007840234908F044F84121090607F085F826
:103D6000204908F03DF806463846214609F06EF82D
:103D7000002804D00498314607F077F803E004984F
:103D8000314607F06DF806462C4617480660204677
:103D9000314606F051FB09B0F0BDC046682920202D
:103DA0007C292020642920209C292020112A2020E1
:103DB00044292020482920200000E0406666E63E95
:103DC000000070C2000070420000204168292020DD
:103DD0007C292020A028202064292020C4282020FD
:103DE0003333333F8FC2753F78292020502920205C
:103DF00000007041D0292020D4292020942920209F
:103E0000F0B597B0109316461D9C6308DA1DD508CF
:103E100065431393C218521E0B195B1E11900E912D
:103E200007F038FB002D00D17CE10C3CE0B2A10191
:103E300080080818C2B2052A00D973E10120159044
:103E400090402B21084200D16CE109921C980D9002
:103E5000203EF0B2810116913027474306010C2421
:103E60004443681E032109F013FB491C0020059000
:103E70000329049101D1059804901E981490169876
:103E8000EC4A10180390EC48C0190690EB488019D2
:103E90000790EB48001908901098000A0F900D98B1
:103EA000000A0C90159880031690032D05D2119EE0
:103EB00005980A901290099944E101910498281AF2
:103EC00002900020119E0A901290139C09990BE019
:103ED0000E98401C0E90119E0A98C01C0A900299E0
:103EE0008842099900D11AE10029089806D00329CF
:103EF000069803D00129079800D003980A99405CDE
:103F00000B90002718E0C0B209F0B6FEF348169CEB
:103F100004600461E8B209F0AFFEF0480460129852
:103F2000401C1290C0B2139C214609F0B1FA00293E
:103F300036D07F1C082F35D01598B8400B99084013
:103F4000149900291CD0002814D030460E9932460E
:103F50000B4607F09FFAE14C169D25610F98C0B201
:103F600009F08AFE256025611098C0B209F084FE30
:103F70002560139C761C1198301AA042D9D10AE012
:103F8000D649169A0A6100280C9800D00F980D9D0A
:103F9000B9D0109DB7E70E98401C0E90119E01E01D
:103FA0000020129009990029089806D00129079845
:103FB00003D00329069800D003980A994018407846
:103FC0000B90002718E0C0B209F056FEC348169CBB
:103FD00004600461E8B209F04FFEC0480460129822
:103FE000401C1290C0B2139C214609F051FA0029DE
:103FF00036D07F1C082F35D01598B8400B99084053
:10400000149900291CD0002814D030460E9932464D
:104010000B4607F03FFAB14C169D25610F98C0B2D0
:1040200009F02AFE256025611098C0B209F024FE2F
:104030002560139C761C1198301AA042D9D10AE051
:10404000A649169A0A6100280C9800D00F980D9D79
:10405000B9D0109DB7E70E98401C0E90119E01E05C
:104060000020129009990029089806D00129079884
:1040700003D00329069800D003980A994018807845
:104080000B90002719E0C0B209F0F6FD9348169C8A
:1040900004600461E8B209F0EFFD904804601298F2
:1040A000401C1290C0B2139C214609F0F1F900297E
:1040B00032D07F1C082F00D10EE71598B8400B991D
:1040C0000840149900291CD0002814D030460E99BD
:1040D00032460B4607F0DEF9804C169D25610F989D
:1040E000C0B209F0C9FD256025611098C0B209F081
:1040F000C3FD2560139C761C1198301AA042D8D1BC
:10410000E6E67649169A0A6100280C9800D00F98C6
:104110000D9DB8D0109DB6E700201290DCE6019806
:1041200003280FD117B0F0BD0E98401C0E90119EC1
:104130000A98801C0A900598801C05900499884272
:104140000999EFD00029089806D00129079803D0D3
:104150000329069800D003980A99405C0B90002729
:10416000139C18E0C0B209F087FD5C48169C0460FF
:104170000461E8B209F080FD584804601298401CC0
:104180001290C0B2139C214609F082F9002936D062
:104190007F1C082F35D01598B8400B99084014990A
:1041A00000291CD0002814D030460E9932460B4608
:1041B00007F070F9494C169D25610F98C0B209F0BF
:1041C0005BFD256025611098C0B209F055FD2560A2
:1041D000139C761C1198301AA042D9D10AE03F49AD
:1041E000169A0A6100280C9800D00F980D9DB9D03E
:1041F000109DB7E70E98401C0E90119E01E0002024
:10420000129005981599084304998842099989D014
:104210000029089806D00129079803D00329069899
:1042200000D003980A99401840780B900027139CFF
:1042300022E0C046A0E0000060F800002616010061
:10424000161C0100C0B209F017FD2448169C04603A
:104250000461E8B209F010FD204804601298401C87
:104260001290C0B2139C214609F012F9002932D0F5
:104270007F1C082F00D15BE71598B8400B990840C8
:10428000149900291CD0002814D030460E993246CB
:104290000B4607F0FFF8114C169D25610F98C0B230
:1042A00009F0EAFC256025611098C0B209F0E4FC31
:1042B0002560139C761C1198301AA042D8D133E7A0
:1042C0000649169A0A6100280C9800D00F980D9D97
:1042D000B8D0109DB6E70020129029E790320A402E
:1042E000F0B589B001930292039107901148124DE5
:1042F00081220492026001242C602C6402262E602C
:104300002C60A027384609F011FE284610350461BC
:104310000097384609F00AFE074F3E6105490498A8
:1043200008603C6008943C643E610798400605952F
:1043300005D503E00480424090120A40FD4D0899E3
:1043400029602020069009F0F1FDFA4D2E60009FB3
:10435000384609F0EBFD2E61384609F0E7FD079875
:104360008006059800D5F34808990160069809F081
:10437000DDFDF04D2E60384609F0D8FD2E6138463F
:1043800009F0D4FD0798C006059800D5E9480899BA
:104390000160069809F0CAFDE64D2E60384609F026
:1043A000C5FD2E61384609F0C1FD07980007059844
:1043B00000D5FD4808990160069809F0B7FDFA4D4F
:1043C0002E60384609F0B2FD2E61384609F0AEFD88
:1043D00007984007059800D5F348089901600698AA
:1043E00009F0A4FDF04D2E60384609F09FFD2E61C6
:1043F000384609F09BFD07988007059800D5EA48E4
:1044000008990160069809F091FDE74D2E60384645
:1044100009F08CFD2E61384609F088FD0798C00729
:1044200001D0E14805900598089C0460069809F0C1
:104430007DFDDD4D2E60384609F078FD2E61384651
:1044400009F074FD2C61069809F070FD2E60384665
:1044500009F06CFD2E61384609F068FD06F0A2FEF9
:10446000D049049A0A602C602C642E6100282F46E3
:1044700000D161E10796039840B239461031002817
:10448000384600D408460126066020200590069193
:1044900009F04CFD079D3D60A024204609F046FD33
:1044A0003D61204609F042FD03984006069800D57C
:1044B00038460660059809F039FD079D3D602046A5
:1044C00009F034FD3D61204609F030FD0398800677
:1044D000069800D538460660059809F027FD079D27
:1044E0003D60204609F022FD3D61204609F01EFD99
:1044F0000398C006069800D538460660059809F06E
:1045000015FD079D3D60204609F010FD3D612046E8
:1045100009F00CFD03980007069800D538460660A0
:10452000059809F003FD079D3D60204609F0FEFC5B
:104530003D61204609F0FAFC03984007069800D533
:1045400038460660059809F0F1FC079D3D6020465D
:1045500009F0ECFC3D61204609F0E8FC0398800777
:10456000069800D538460660059809F0DFFC079DDF
:104570003D60204609F0DAFC3D61204609F0D6FC9A
:104580000398C007069800D038460660059809F0E1
:10459000CDFC079D3D60204609F0C8FC3D612046EA
:1045A00009F0C4FC06F0FEFD002800D1D0E002981E
:1045B000002800D1ABE0002108967B4D01980591C1
:1045C00042567848049901603E603E643E4610368B
:1045D0003846022707610792002A00D4304608991E
:1045E00001602020069009F0A1FC2F60A024204645
:1045F00009F09CFC2F61204609F098FC07984006C2
:10460000304600D5284608990160069809F08EFCCE
:104610002F60204609F08AFC2F61204609F086FCB5
:1046200007988006304600D528460899016006980C
:1046300009F07CFC2F60204609F078FC2F612046B1
:1046400009F074FC0798C006304600D52846089942
:104650000160069809F06AFC2F60204609F066FCAC
:104660002F61204609F062FC07980007304600D50C
:10467000284608990160069809F058FC2F602046EA
:1046800009F054FC2F61204609F050FC07984007C0
:10469000304600D5284608990160069809F046FC86
:1046A0002F60204609F042FC2F61204609F03EFCB5
:1046B00007988007304600D528460899016006987B
:1046C00009F034FC2F60204609F030FC2F612046B1
:1046D00009F02CFC0798C00700D02E4608983060DF
:1046E0000646069809F022FC2F60204609F01EFCC1
:1046F0002F61204609F01AFC06F054FD002839D03D
:104700000599491C02988842274F00D056E7254852
:10471000049901603E603E64022038613E61386069
:10472000A024204609F002FC3E60204609F0FEFB72
:10473000002032E090120A40089C3C613E60A026B6
:10474000304609F0F3FB3C60304609F0EFFB25E012
:104750001448049901603E603E643D613E613D60E5
:10476000A024204609F0E2FB3E60204609F0DEFB73
:10477000089513E00B48049901600B4D2E602E64E0
:104780002F612E612F60A024204609F0CFFB2E6000
:10479000204609F0CBFB0598C01C08900898C0B2D1
:1047A00009B0F0BD0480424090120A40F0B58FB0CD
:1047B0001C460D460A92521E5B1E0B9006F06AFEC6
:1047C0000694A54200D300E1149C012004908603C6
:1047D000270A0B98C0430A9908180790E8430699DE
:1047E00008180321019008F053FE481C0021059190
:1047F000032800D005900D940E9700D1E2E003212C
:10480000079808F045FE481C0021039003280891F2
:10481000029101D003980290ED4A08E0099DAD1C79
:104820000899891C05980891814200D1CAE0099530
:104830000A980B9981425BD2039803280B9927D0E1
:10484000029F0B990C9116610E98C4B2204609F094
:1048500013FAFA48066006610D98C5B2284609F0B9
:104860000BFAF64A1660012F10D01661204609F0A7
:1048700003FAF24806600661284609F0FDF9EF4A9E
:1048800016600C99891CBF1EDCD101E00C99491CF3
:10489000079802280E9B2BD30A98471A1661DCB2A0
:1048A000204609F0E9F9E548066006610D98C5B2B1
:1048B000284609F0E1F9E14806600661204609F062
:1048C000DBF9DE4806600661284609F0D5F9DB48C9
:1048D00006600661204609F0CFF9D84806600661F7
:1048E000284609F0C9F90E9BD44A1660FF1ED5D19F
:1048F0000898049908430599884261D00A980B9951
:1049000081428BD2039803280B9927D0029F0B99E1
:104910000C9116610E98C4B2204609F0ADF9C74853
:10492000066006610D98C5B2284609F0A5F9C34A8C
:104930001660012F10D01661204609F09DF9BF487E
:1049400006600661284609F097F9BC4A16600C9982
:10495000891CBF1EDCD101E00C99491C0798022874
:104960000E9B00D25AE70A98471A1661DCB220461D
:1049700009F082F9B148066006610D98C5B2284673
:1049800009F07AF9AD4806600661204609F074F92D
:10499000AA4806600661284609F06EF9A748066035
:1049A0000661204609F068F9A448066006612846B9
:1049B00009F062F90E9BA14A1660FF1ED5D12DE7C2
:1049C000099D6D1C0198022801D20FB0F0BD032192
:1049D000079808F05DFD481C0328089000D10020CE
:1049E0000590964A04E0099DED1C06988542ECD09E
:1049F00009950A980B998142F5D2089803280B99DA
:104A000027D0059F0B990C9116610E98C4B22046D1
:104A100009F032F98948066006610D98C5B228464A
:104A200009F02AF9854A1660012F10D01661204638
:104A300009F022F9814806600661284609F01CF950
:104A40007E4A16600C99891CBF1EDCD101E00C99CE
:104A5000491C079802280E9B2BD30A98471A166107
:104A6000DCB2204609F008F97448066006610D982A
:104A7000C5B2284609F000F9704806600661204674
:104A800009F0FAF86D4806600661284609F0F4F866
:104A90006A4806600661204609F0EEF8674806603D
:104AA0000661284609F0E8F80E9B644A1660FF1E6E
:104AB000D5D10A980B99814295D2089803280B9971
:104AC00027D0059F0B990C9116610E98C4B2204611
:104AD00009F0D2F85948066006610D98C5B228461B
:104AE00009F0CAF8554A1660012F10D01661204609
:104AF00009F0C2F8514806600661284609F0BCF882
:104B00004E4A16600C99891CBF1EDCD101E00C993D
:104B1000491C079802280E9B2BD30A98471A166146
:104B2000DCB2204609F0A8F84448066006610D98FA
:104B3000C5B2284609F0A0F8404806600661204644
:104B400009F09AF83D4806600661284609F094F895
:104B50003A4806600661204609F08EF8374806603C
:104B60000661284609F088F80E9B344A1660FF1E3D
:104B7000D5D10A980B99814200D334E708980328CD
:104B80000B9929D0059F0B990C9116610E98C4B210
:104B9000204609F071F82948066006610D98C5B2F3
:104BA000284609F069F8254A1660012F12D01661CF
:104BB000204609F061F8214806600661284609F0A0
:104BC0005BF81E4A16600C99891CBF1EDCD103E0FD
:104BD00090320A400C99491C0798022800D202E73B
:104BE0000A98471A16610E98C4B2204609F044F894
:104BF0001248066006610D98C5B2284609F03CF8D7
:104C00000E4806600661204609F036F80B4806603B
:104C10000661284609F030F808480660066120461B
:104C200009F02AF8054806600661284609F024F8CC
:104C3000024A1660FF1ED5D1D5E6C04690320A4022
:104C4000F0B595B0012001030D91FD4E3161470390
:104C50003761850335600424204609F067F9376021
:104C6000204609F063F9F74800683761356120464E
:104C700009F05CF93760204609F058F9FD480068F2
:104C800037613561204609F051F93760204609F057
:104C90004DF9F848006837613560204609F046F95B
:104CA0003760204609F042F9F24800683761356004
:104CB000204609F03BF93760204609F037F9ED4806
:104CC000006837613560204609F030F937602046CA
:104CD00009F02CF9E748006837613560204609F093
:104CE00025F93760204609F021F9E248006837616C
:104CF0003560204609F01AF93760204609F016F9A8
:104D0000DC480068376137613560204609F00EF9EC
:104D10003760204609F00AF9D64800680C903761E0
:104D20003560204609F002F93760204609F0FEF8A8
:104D3000D04800680B9037613560204609F0F6F8DE
:104D40003760204609F0F2F8CA4800680A903761D7
:104D50003560204609F0EAF83760204609F0E6F8A9
:104D6000C4480068099037613560204609F0DEF8D4
:104D70003760204609F0DAF8BE48006805903761D0
:104D80003560204609F0D2F83760204609F0CEF8A9
:104D9000B8480068049037613560204609F0C6F8CD
:104DA0003760204609F0C2F8B248006801903761C8
:104DB0003560204609F0BAF83760204609F0B6F8A9
:104DC000AC4800680290376137613560204609F0D1
:104DD000ADF83760204609F0A9F8A64800680E90A3
:104DE00037613560204609F0A1F83760204609F0A8
:104DF0009DF8A04800680F9037613560204609F0A3
:104E000095F83760204609F091F89A4800681190AB
:104E100037613560204609F089F83760204609F08F
:104E200085F894480068129037613560204609F093
:104E30007DF83760204609F079F88E4800681390B5
:104E400037613560204609F071F83760204609F077
:104E50006DF88848006806903761356010952046E7
:104E600009F064F83760204609F060F8814800686E
:104E7000149037613560204609F058F837602046B5
:104E800009F054F87B48006837610004C00F0890AF
:104E90001498800B02211491084007900698400B4B
:104EA000204006901398000B0821139108400390AE
:104EB0001299C90A102212921140119A920A2023C3
:104EC00011931A400F9B5B0A40250F952B400E9DB6
:104ED0002D0A80200E9005405B19D218891803987E
:104EE0004018039002980004C00F02900198810BB3
:104EF0001498014001910498400B204004900598BB
:104F0000000B1399084005900999C90A129A11409B
:104F10000A9A920A119B1A400B9B5B0A0F9D2B4029
:104F20000C9D2D0A0E9805405B19D218891805981A
:104F300040180C903761109D3560204608F0F6FF50
:104F40003760204608F0F2FF4A480068010A0E98D0
:104F500001400E9137613560204608F0E7FF376069
:104F6000204608F0E3FF43480068400A0F990840D4
:104F70000E9940180F9037613560204608F0D6FF33
:104F80003760204608F0D2FF3A480068800A11993D
:104F900008400F994018119037613560204608F09D
:104FA000C5FF3760204608F0C1FF32480068C00ADC
:104FB00012990840119940181290376135602046C7
:104FC00008F0B4FF3760204608F0B0FF29480068B9
:104FD000000B1399084012994018139037613560FF
:104FE000204608F0A3FF3760204608F09FFF2148C5
:104FF0000068400B2040129037613560204608F071
:1050000095FF3760204608F091FF1A480068850B2D
:1050100014980540376110983060204608F086FFEC
:105020003760204608F082FF124800680004C10F74
:1050300004980C9A8018019A1018029A104303E001
:1050400090120A4080130A400004069A039BD2186B
:10505000079B9A18089B1A43120202433761139860
:10506000129B18182818084310430D99316015B089
:10507000F0BDC04680130A40F0B589B00378442BD8
:1050800047D14378522B44D18378492B41D1C378FF
:10509000562B3ED10379452B3BD14379202B38D178
:1050A000801DD44908AA07AB08F0FAFB022800D0FB
:1050B00025E1089E07980690C84801210170D74D48
:1050C0003046294607F0A7FE0446D24F30463946FF
:1050D00007F0BCFE002800D13746002C00D13D4629
:1050E000BF480560CE4D069F3846294607F093FE1F
:1050F0000446C44E3846314607F0A8FE002800D1C9
:105100003E46002C00D13546B6480560B64800251D
:10511000BDE00378532B32D14378502B2FD18378C5
:10512000452B2CD1C378452B29D10379442B26D18B
:105130004379202B23D1801DB74908AA08F0B0FB82
:10514000012800D0DBE0089DA44801210170B34C88
:105150002846214607F05FFE0746AE4E28463146F8
:1051600007F074FE002800D12E46002F00D13446EF
:105170009B4804609B48002505609B4887E00378B6
:10518000442B48D14378492B45D18378532B42D1C6
:10519000C378542B3FD10379202B3CD10591069243
:1051A0000125401D934908AA07AB08F079FB0228A6
:1051B00000D0A1E0089C079F00262046314607F05A
:1051C0003CFE019038460396314607F024FE01214B
:1051D000C90700280494029100D04F407F48022163
:1051E00001707F20C4053846214607F014FE009068
:1051F000884E3846314607F029FE002800D13E4649
:105200000098002800D134460198002800D0BFE063
:10521000029E7440BDE00378542B0BD14378552B8C
:1052200008D18378522B05D1C3784E2B02D1037954
:10523000202B11D00378412B15D143784E2B12D15E
:105240008378472B0FD1C3784C2B0CD10379452B96
:1052500009D14379202B06D10378542B069205916E
:105260001BD006211AE05C4906F04AFE002802D055
:10527000002009B0F0BD5948002505705848056068
:10528000584805605848056058480560584805600A
:10529000012064490D7009B0F0BD052101254018B9
:1052A000544908AA07AB08F0FBFA02282AD00128C3
:1052B00022D1089E00243046214607F0BEFD074655
:1052C0003046214607F0A7FD002802D00120C00784
:1052D00046404949304606F083FD484906F054FEF1
:1052E000474906F07DFD3D4903220A703C490C60A8
:1052F000002F5DD146495CE0284609B0F0BD012091
:1053000009B0F0BD089F079C00263846314607F0DB
:1053100094FD03902046314607F07DFD0121C90729
:105320000028049100D04C403846314607F073FD08
:10533000002801D0049847402F49384606F050FD18
:105340002E4906F021FE2E4906F04AFD0290234820
:1053500003210170224806607F20C7052046394698
:1053600007F059FD0190274E2046314607F06EFDAB
:10537000002800D126460198002800D1374603981E
:105380000028049800D14740029816490F6012E0A7
:10539000029E13480460134803990160049C204650
:1053A00007F039FD002800D074401749204603E07B
:1053B00016490C4A1160144906F012FD41210906F4
:1053C00005F053FD08490860084905980860084938
:1053D000069808605CE7C046A72F0100122A20202B
:1053E0009029202028292020CC292020C0292020D5
:1053F000C4292020A12F0100DA0F494000003443C6
:10540000000081420000F042E7BD3A400000B44293
:105410000000B4C20000C842D92F01000000C8C279
:105420000000F0C2072A2020F0B58BB00A460346E0
:10543000DF4905462E78881940786D1CC006F9D4DE
:105440002D2E01D02B2E01D1287801E06D1E304683
:1054500008F0A5FD01D3014601E0014620394E299F
:105460003FD0492958D1687808F099FD00D22038FA
:105470004E284BD1A87808F092FD00D2203846285B
:1054800044D1002A01D0E81C1060E87808F087FDBC
:1054900000D2203849281FD1287908F080FD00D299
:1054A00020384E2818D1687908F079FD00D22038CC
:1054B000492811D1A87908F072FD00D2203854286B
:1054C0000AD1E87908F06BFD00D22038002A03D019
:1054D000592801D1083515602D2E00D1C9E0B749F2
:1054E000C8E0687808F05BFD00D2203841280DD173
:1054F000A87808F054FD00D220384E2806D1AD49D6
:105500000024002A00D12BE1E81C28E1002A00D069
:1055100013600024214623E1A94905910024302885
:105520000192029317D1687808F039FD00D2203833
:105530009F4958280FD1A87809184978890707D4B6
:105540002E2808D1E8789A4908184078800702D5B3
:10555000AD1C9C4805909A4B08F02DFD411E8841DA
:105560000690984B049408F026FD411E8841039054
:105570000894099421460A942B782E2B03D1002CF1
:105580003AD1012436E00794184630380122092820
:10559000174600D80027069C62403A4309D0039A78
:1055A000002A29D0824AD2185278920724D5092895
:1055B00004D8C00084490818049A0AE018466138E3
:1055C0001A28049A00D2203BD8007F4908187F4946
:1055D000401890C80A980899059B08F0CEFC22460E
:1055E0003B4603F032F90A9008910998079C001B8A
:1055F000099001216D1CBFE701242D2E01D00898D0
:1056000002E0E007089A5040059009988600039848
:105610000028324600D1099A002909D006980028AE
:1056200007920BD01A46613A1A2A03D31A4603E0AE
:105630000A9C7DE01A46203A452A09D003980028A2
:1056400012D01A46613A1A2A00D2203B502B0ED1B2
:1056500021466B782D2B01D02B2B0DD1A81C02904D
:10566000AD780022D4430BE00295099E3DE00295FF
:105670003BE05149002473E0681C029000241D4661
:105680002A46303A092A26D800244D229600303D79
:10569000092D25D82D2B01D0224600E06242079823
:1056A0001218D7177A40D71BB7420A4600D80022F3
:1056B000069810420AD101229002874200D80022A7
:1056C0000398104202D10A2060434419029A501CE8
:1056D00055780290DBE702980219501E02900024D0
:1056E0002D2B00D164420798261800240A9D2846D5
:1056F00008992246234607F057FB002817D1069841
:105700000028059917D04D208000864219DD0D46EE
:1057100008F01CFC2221016000240A982946224638
:10572000234607F04AFB002814D1244913E02C46F5
:10573000019A059910E00A98324605F023FB0446C9
:1057400009E0234886420EDC08F000FC22210160BB
:10575000214600E01849019A002A01D00298106001
:1057600020460BB0F0BD002E0FD41A4C019A002E2B
:105770001CD0F00706D00CCC0A98083C08F0FDFBC2
:10578000019A0A9076080834F1E77442114D019AA3
:10579000002C0BD0E00706D00CCD0A98083D08F08D
:1057A00027FC019A0A9064080835F1E70A9CD3E7C0
:1057B000902401000000F87F0000F0FF0000F07F5F
:1057C0000000244000003040B826010048FEFFFFE2
:1057D000CCFEFFFF00280100F0B589B00F4605465A
:1057E0000120C1073E468E43B14886420BD3D148C3
:1057F0003018284300D190E008F0A8FB2121016077
:10580000CD49002550E1AB48864212D8C64AC74B65
:105810002846394603F019F80022A54B07F0E8FAAC
:10582000002800D186E0C248864200D382E0394693
:105830003AE10291089700249D4920462A463346C2
:1058400002F0FEFF9C4B224608F097FB05460F46F0
:105850009A4A9B4B08F091FB9A4A9B4B02F0F5FF4A
:1058600008F06EFB994A9A4B02F0EFFF08F068FBD4
:10587000984A994B02F0E9FF08F062FB974A984B6F
:1058800002F0E3FF08F05CFB964A974B02F0DDFF65
:1058900008F056FB06900791944A954B08F0DCFB04
:1058A000944A954B02F0D1FF08F04AFB934A944B7F
:1058B00002F0CBFF08F044FB924A934B02F0C5FF85
:1058C00008F03EFB22467A4B02F0BFFF03900491A2
:1058D0002846394603F0BCFA05900C468B488642B0
:1058E00000D283E008F044FB02460B46059D2846A3
:1058F000214608F042FB2A4608F0C6FB02460B464A
:1059000002F0A3FF824A864B02F09FFF02460B463D
:105910008148844902F094FFC0E07D4A7D4B08F045
:105920009BFB04460E467C4A7E4B08F095FB2246C4
:10593000334657E0284639462A463B4608F01DFBC9
:10594000064608970F465D4A5D4B08F016FB5D4A18
:105950005D4B02F07AFF08F006FB5C4A5C4B02F0FC
:1059600074FF08F000FB5B4A5B4B02F06EFF08F02F
:10597000FAFA5A4A5A4B02F068FF08F0F4FA594A08
:10598000594B02F062FF08F0EEFA04460791574ABD
:10599000574B3046394608F0F0FA564A564B02F05B
:1059A00054FF08F0E0FA554A554B02F04EFF08F05C
:1059B000DAFA544A544B02F048FF08F0D4FA0022B5
:1059C0003B4B02F042FF02460B462046079908F087
:1059D0000FFB02460B462846089C214608F0CDFAEC
:1059E0002A46234602F031FF05465DE00026304698
:1059F000214632460196234608F0BFFA02460B467E
:105A00002846394602F01CFF00900F46059D2846A7
:105A10002146324608F038FB02460B4600983946CC
:105A200008F0E6FA06460F4608F0A2FA079006913B
:105A3000284621462A4608F027FB05900491304667
:105A4000394632463B4602F000FF02460B463048DC
:105A5000304902F0F5FE05460F4605980499079A6D
:105A6000069B08F08AFA2A463B4602F0E9FE054604
:105A70000F4601982146024608F006FB02460B46F7
:105A8000254C264E2046314602F0DAFE2A463B4699
:105A900002F0D6FE2246334602F0D7FE05460898AD
:105AA000002801DC02984140284609B0F0BDC046FC
:105AB0000000F03FFFFFDF3F0000E03F09F7FD0D72
:105AC000E13D023F88B20175E0EF493F3B8F68B589
:105AD0002882A4BF5544880E55C1C93F7D6FEB0392
