:10000000008020202DA60000FB550000FB550000BD
:1000100000000000000000000000000000000000E0
:10002000000000000000000000000000FB55000080
:100030000000000000000000FB550000C17D000032
:10004000FB55000009880000FB550000FB5500002F
:10005000FB550000FB550000FB550000FB55000060
:1000600000000000FB550000FB55000000000000F0
:1000700000000000FB55000091A5000089A50000CC
:10008000FB550000FB550000FB550000FB55000030
:10009000FB550000FB5500000000000000000000C0
:1000A000FB550000FB5500000000000000000000B0
:1000B000FB55000000000000FB550000FB55000050
:1000C000F0B5F3B007930592799A0E92789E0025C9
:1000D000EF437090139112950878A84C201843783C
:1000E000D80628D513984A1CDB0606D5481C11787B
:1000F00061184B78521C0146F6E7139070A8B04780
:100100000446401C01D100F0FAFD0AF024FA9B4895
:1001100000194078C00603D570A8B0470446F4E73C
:1001200070A80AF06FFA1298401E1290601C934C4F
:1001300001D100F0E4FD01200A9054A801466C3181
:100140000C9101460C3103910D30009014A8401C15
:1001500001900B950D971196029554A870210AF005
:10016000B0F8559770A813A912AA079B98470128C1
:10017000109522D0002801D100F0A7FD401C029B61
:1001800001D100F0A4FD0F93274670A8B0470AF0F4
:10019000AAF938194078C006F7D4374670A80AF093
:1001A00031FA1298411E1291601C39D10029109D1C
:1001B0000F9A01D100F087FDB1E01398471C139707
:1001C000417800262A2935460BD101255495871CF4
:1001D000139706E0B819401C1390B85D71A98855B3
:1001E000761CBC5D204630380928F3D971A800215F
:1001F0000F9181550078002803D071A809F046FCC2
:1002000055904C2C2FD0682C20D06A2C0BD06C2C05
:1002100010D0742C0AD07A2C16D10120000307E0EC
:10022000109D0F9A7BE00120C00201E001204003F5
:100230002D1819E0B919481C13904A786C2A4F4CB4
:1002400018D1012000020AE0B81910E0B919481CC1
:1002500013904A78682A494C0ED1012040022D188B
:100260005495881C0AE080355495B819401C119E9D
:10027000424C04E0403500E020355495119E411C6D
:10028000139103780C9A13705B2B28D10A785E2A9D
:1002900005D102210D435495811C139182785D2A6A
:1002A00006D1481C1390097854AA1173009901E0F3
:1002B000084603990F9D0278002A09D05D2A07D0CD
:1002C000421C139200784B1C087010461946F2E746
:1002D0000D705D2A01D1401C13900C9803781846CC
:1002E0005B38132800D94EE70121814024480142A0
:1002F00000D148E731461E4670AC20460F4688477D
:10030000054620460AF07BF91299681C05D10029A0
:10031000109D324603D100F0D6FC109D3246099163
:100320001046583820284CD83E460D9F4000C04605
:1003300078448088400087445301260326031C012B
:100340002603260326032603260351002603CE0098
:1003500025005100510051002603250026032603E5
:100360002603260329032500250026032603CE00A5
:1003700026032500260326032500C04640B20000C0
:10038000010108001746559C70A8B04721460AF0A5
:10039000AAF814AD002934D014AD2D2C02D02B2C8A
:1003A00000D0B2E014A8047070A80C46B0472146F3
:1003B0000AF099F8491EF64A00D1D3E00891019D50
:1003C000A5E01046413806283E460D9F00D990E032
:1003D000012181407120014200D18AE0559D70A821
:1003E000B047044614AB401C09D00AF0B4F82B2CDB
:1003F00009D114AB002D0BD12B24002513E03C4672
:1004000011E00027B0E014AB002D0CD02D2C0AD148
:1004100014A8047070A8B0470446401C01D00AF02C
:100420009AF86D1E019B204661381A2801D3204698
:1004300001E0204620384928E24F109703D04E288B
:100440002AD1E14F10970026B5421BD01098805D4D
:10045000002816D0214661391A2901D3214601E02E
:100460002146203981420CD11F469C5570A8119914
:1004700088470446401C01D00AF06DF8761C3B46C4
:10048000E2E73546E81E41424141083D6842684185
:10049000084310909D1964E20022002D5CD0302C9E
:1004A0005AD10F9230201F46187070A8B0470446EA
:1004B000401C01D00AF04FF87B1C681E002201216D
:1004C0001091002800D1AAE1214661391A2900D2F1
:1004D000A8E12146A8E1549901250846284049068B
:1004E000174676D4002800D00EE1059810C8059074
:1004F0000BE1252A00D046E270A8B047252801D09C
:1005000000F000FC0AF027F840E20891AC4A002015
:100510003B46115C8B4204D0401C0728F9D10020D7
:1005200000E01018801A012813D1302C5CD10F95EF
:1005300070A81090B047054610980AF060F8202087
:100540008543583D109501D0082010903B460F9DE3
:100550004CE09E49085C48E01946109204920A98C3
:1005600008907CE10027019D3A4638460A990F9190
:1005700062E0559F5498022101400F9114AC002F66
:1005800000D148E170A8B0470546401C089000D152
:10059000B1E010942C46E8B2002303990E7886420D
:1005A0000A4600D01A46491C002E1346F6D10F9B6E
:1005B00059425941531E9A419142119E2546109C21
:1005C00000D098E0611C207009F0C5FF7F1E0C462A
:1005D000D5E7002800D09DE0059810C805909AE066
:1005E00078220C980270CDE60A20109018466938DF
:1005F000C0B2102801D3002100E00121EA4FC7401A
:100600000F406F2B06D1302C0AD000200A990F9191
:10061000089A11E020463038414241410F42F4D05F
:1006200028466D1C047070A8B04709F05CFF089A5A
:10063000521E00200F900A98002F24D0002A22D0AA
:10064000002820D020202146814358291BD1089220
:1006500070AF3846B047014638460F460E9A90476D
:10066000E148C0194078800701D4089A0BE02C704B
:1006700070A8B04709F037FF089A521E00D138E33E
:100680006D1C102010900A9F002A23D01098082873
:1006900004D107202146814330290ED010980A2822
:1006A00003D1204630380A2807D31098102811D1DA
:1006B000CD480019407880070CD56E1C2C7070A8AE
:1006C000119914468847224609F00DFF521E002753
:1006D0003546D9E770A809F095FF1298401E129090
:1006E0000020287005460F98384001280D9F119E64
:1006F00000D04BE1F5E270A809F081FF129809994A
:10070000814200D087E004E300245598002841D4BA
:10071000054640E000245598002800D40546632A89
:1007200000D0054670A8B047014609F014FF632FBA
:1007300005D1481E0222D24390420FD917E0481C2F
:10074000022801D3002000E00120A74A5218527865
:10075000D2060A9A00D40246002A08D1002D06D0FB
:10076000002C01D002C400E000246D1EDAE770A85E
:100770000E9A90471298401E12900999814200D11A
:10078000B7E2732F49D1002C47D00020206044E00D
:10079000C0B900000125632A00D0054670A8B04703
:1007A000014609F0D8FE632F05D1481E0222D2432C
:1007B000904217D921E0481C022809D3002008E004
:1007C000C0B9000084B90000FFB900003AB60000CB
:1007D0000120854A52185278D2060A9A00D402465D
:1007E000002A0AD1002D08D0002C03D0601C2170F3
:1007F000044600E000246D1ED0E770A80E9A9047D2
:100800001298401E12900999814200D171E2732F13
:1008100003D1002C01D0002020700D9FB6E004927F
:10082000154618E021462039582912D17C7070A84D
:10083000119988470446401C01D009F08CFEBA1C6F
:10084000AD1E00200A9904911146109008900F9A4D
:1008500005E0049205460A9808900F9A19460692F8
:1008600016460F95002D0D466ED02B2C39D02D2C11
:1008700037D02E2C2FD0452C01D0652C0BD10898C9
:10088000002846D0109800285ED0002A5CD10120B4
:10089000074610904AE020463A380A21C943884268
:1008A00029460CD8049800284ED04F4800194078AB
:1008B000800704D4202020437028E3D044E02B2C70
:1008C0000FD02D2C0DD0702CDCD0502CDAD0652C14
:1008D000D5D02E2C1DD10698104335D1012006907D
:1008E00023E00898002808D0481E00782021014302
:1008F0006529294601D1174618E00498002823D01D
:10090000481E00782021014370291DD11746294631
:100910000CE0002A07D0204630380122092813D8DD
:100920001746164602E00120109000270C7070A8B0
:10093000119988470446401C01D009F00CFE691C3F
:100940000F9D6D1E3A468CE71099481E814110910B
:10095000701E8641002A0A9800D030461099014046
:1009600010910D9F70A809F04DFE601C02D01299E5
:10097000491E129100212970129A099B9342119EDF
:10098000109D00D1A8E1012D00D0B3E10C980178B1
:10099000012508465B381D283ED804A2124C4000B1
:1009A000105A40008744C046818000002400220085
:1009B00022002200220022004600220057014600A9
:1009C0004600460046002200460022002200220087
:1009D0002200A30046004600220022005701220008
:1009E000460022002200460040B20000FFF7B5FB9F
:1009F0005499C80701D0FFF7B0FB05980068490675
:100A000000D5C8E014A94A1C0978431C01700029CC
:100A100018461146F7D1C7E0084641380628BF4CB2
:100A200001D9FFF79AFB012282407120024201D1D5
:100A3000FFF793FB14A80078002800D10BE154982D
:100A4000C20700D007E10B46613B172B3AD80022C2
:100A50009B0002A4E358B14C9F46C046D90A00004F
:100A6000570C0000570C00006B0B0000D90A000067
:100A7000D90A0000D90A0000570C00006D0B0000D5
:100A8000570C0000570C0000570C0000570C0000DA
:100A9000570C0000BD0A00008F0B0000570C00002F
:100AA000570C0000570C0000570C0000BD0A000056
:100AB000570C0000570C0000BD0A000078293FD0F9
:100AC00008223EE04139062900D9C4E001228A40CB
:100AD00071210A4200D1BEE0C021084080281ED00A
:100AE000402826D114A8002102F078FB1BE054987E
:100AF000C10701D0FFF731FB89490840411E02467A
:100B00004A408A4200D894E0002800D183E0414264
:100B1000014084484143C80E83A1085C7CE014A8CE
:100B2000002102F05BFB059B04CB05931060516034
:100B300091E014A8002102F051FB08F011F987E0C0
:100B40001022752900D10A2275490840411E03462A
:100B50004B408B4242D900282ED04142014071487F
:100B60004143C80E70A1085C27E00A226C49084086
:100B7000411E03464B408B4248D9002833D04142A6
:100B8000014068484143C80E67A1085C2CE014A8E6
:100B90000021102224E014A90A78002A02D0491C5E
:100BA00004C0F9E7002101600598001D05900B982D
:100BB000401C0B90FFF7D1FA2020401F08280DD8C9
:100BC0007844007940008744580909045D09043AD3
:100BD0003A0014A8002104F04BFFA4E714A8002158
:100BE00005F012FD34E02020401F08280ED8C04632
:100BF00078440079400087444A09090452090427CF
:100C0000270014A8002103F0DDFE8CE714A80021C2
:100C100005F07EFA1CE02020401F082809D8C046B5
:100C200078440079400087444204041F48041F04AC
:100C30000400129809F0A0FC0860FFF78EFA14A8CF
:100C4000002104F015FF03E014A8002103F0BAFE10
:100C500009F092FC086054980125294681430B98BD
:100C600008180B90FFF779FA1298C117059B04CB6F
:100C7000059310605160FFF770FA14A8002105F089
:100C8000C3FC08E014A8002105F0BEFC0BE014A88A
:100C9000002105F03DFA09F06FFC0880DBE714A89D
:100CA000002105F035FA09F067FC0870D3E71298C7
:100CB00009F062FC0880FFF750FA129809F05CFC1A
:100CC0000870FFF74AFA0D9F19E00B9F17E00B9889
:100CD000002814D0074612E0002800D121460D4616
:100CE00008E0129809994140E043084302D1ED43DE
:100CF00000E00D9D0B98002800D005462F46384691
:100D000073B0F0BD054670A809F079FC681CF1D0FD
:100D100002E008980028EDD00025EBE740B2000083
:100D2000603F000031B57C0700011C021D0E180356
:100D30001E16140F191104081F1B0D171513100789
:100D40001A0C12060B050A09F0B5FFB08EB0049319
:100D500006920646929802900025E84305908C91F1
:100D60003468204609F073FB21188B9503918C425F
:100D700000D3BCE00020879087A90873889005986D
:100D800089902F46049D2078002800D1B2E02528C4
:100D900005D0641C34600699A8477F1CF3E78B9745
:100DA000601C306087AC2046314600F0BBF88CAA4E
:100DB0002046314600F0D7F8306801780B46683B92
:100DC0000122D341092B2BD87B441B795B009F4424
:100DD00004130A2727271627271943788799682B92
:100DE00019D1520204E0437887996C2B10D112027A
:100DF00011438791801C12E08799D20204E0879901
:100E0000520301E0879912030A438792401C06E0CF
:100E1000401C402201E0401C2022114387910178B0
:100E2000441C346087A80173732913D06E291DD127
:100E3000879832490840411E02464A408A423CD9BE
:100E400000282DD0414201402D484143C80E2DA11C
:100E5000085C26E087A80078400619D4009587A88A
:100E60008CAA8BAB069900F03DF92AE007AD87A963
:100E70008CAA284600F08CF9024628460699029B67
:100E80009847411C059D00D0C5198B9503991AE020
:100E9000009587A88CAA8BAB069900F0C0F810E0EB
:100EA0002020401F082808D8784400794000874453
:100EB0001904040D14040D0404008C9802C88C90CD
:100EC0000F6003998B9D681C13D050E7F8178C991D
:100ED00004C98C9117605060F3E78C9802C88C901D
:100EE0000F70EEE78C9802C88C900F80E9E72F46D0
:100EF00000E0059F38467FB00EB0F0BD603F0000B7
:100F000031B57C0700011C021D0E18031E16140FBC
:100F1000191104081F1B0D17151310071A0C1206C0
:100F20000B050A0910B50A680124E3071AD01378E3
:100F3000302B0CD0232B0ED02B2B0AD02D2B04D0F2
:100F40000024202BF1D1042306E0012304E0102328
:100F500002E0022300E0082304681C430460521CE2
:100F60000A60E1E710BDFEB516460D460446086866
:100F700002782A2A10D13068011D31600068606053
:100F8000002805D5404260602068012101432160AE
:100F90002868471C2F6017E00021303A092A08D83A
:100FA0004218531C2B60435C6F467B545278491C9B
:100FB000F3E76A460023535412784718002A03D0F7
:100FC000684608F063FD606038782E2826D1781CCA
:100FD000286079782A2908D13068011D31600068BD
:100FE000A0602868401C2860FEBD00203039092917
:100FF00008D839188A1C2A604A786B461A548978AE
:10100000401CF3E76A46002111541078002804D0F0
:10101000684608F03BFDA060FEBDA160FEBDF0B5D6
:1010200087B01E460C9F13681C1D14601D68002DA0
:101030003AD0049106908468002C04D4284609F024
:10104000E1F9844203D3284609F0DCF90446069806
:101050004068A042039000DC2046014630680191C0
:10106000401805940399A142029630600EDD06985F
:101070000078C0070AD1059801990E1A0024B442DD
:1010800004DA20200499B847641CF8E70026049C81
:10109000069805998E420ADA2868010A18D12D1D92
:1010A0002146B847761CF3E70020B84718E00599B9
:1010B000039A8A4214DD0078C00711D00198451ABE
:1010C0000024AC420CDA20200499B847641CF8E7ED
:1010D0000020C0430299086009F010FA582101600D
:1010E00007B0F0BDF0B585B00C4606460A9D106805
:1010F000011D116000680490002844D00393B76874
:10110000002F04D4049809F0A2F9874203D304986D
:1011100009F09DF9074602967268BA42114600DC52
:101120003946039B1868009140180192BA42186032
:101130000FDD02980078C0070BD10098C01B039008
:1011400000260398864204DA20202146A847761C10
:10115000F7E70026BE4205DA0498805D2146A847DD
:10116000761CF7E70198B84210DD02980078C007B6
:101170000CD00098C61B0027B74207DA2020214672
:10118000A8477F1CF8E700202146A84705B0F0BD1E
:10119000F0B589B005920E4604467F2080002718DE
:1011A0004868039000250795FF210491FE31202215
:1011B0002046019209F07EF83046089702977D702C
:1011C000367B31466339152906903DD801228A4085
:1011D000604B1A42069822D007A908AA059B00F086
:1011E000BDF806980025067B012731466F3909298D
:1011F000059504D801228A4057490A423FD1582E0A
:101200003DD0016802230B40079A002A27D0089995
:101210004A1E08922D220A705F425F412FE000298A
:1012200012D1059B1A68111D19601268D1B24D4286
:101230004D410499FC316118089102990A700268C5
:1012400002218A430260CEE7252E02D0582EC3D059
:10125000CAE70020607025202070012078E0002B74
:1012600007D149070BD5089A511E089101991170B1
:1012700005E0089A511E08912B211170002703994F
:1012800003976518089B0178C907264608D102997B
:10129000491CC91A42689142264601DC691A4E1C53
:1012A000591C04984300002730463A4608F05EFF78
:1012B00008900599002903D0411C0891077000E0AF
:1012C0000146A94206D8481E691A491C202208F086
:1012D000F1FF2F7006980078C00606D4311B20223B
:1012E000204608F0E7FF059D2EE0A642059D2BD085
:1012F000311B302720463A4608F0DCFF069B079852
:101300004142414103980140012905D11878400725
:1013100002D43046214604E03078611C2070701CF5
:1013200037701A7B412A0CD0582A05D0612A08D080
:10133000782A01D0702A07D11B781B0701D4612AB3
:1013400002D142784A704770204609F080F840196F
:1013500009B0F0BD4230240043020000F8B5144645
:101360000F4605468068002804D428681021884369
:10137000286001E00120A860287B1026582808D0AA
:10138000782806D0702804D06F2801D1082600E004
:101390000A262846194600F055F8AA68002A09D1FD
:1013A00002460A4306D12878000749D52B7B002046
:1013B000024612E02B7B642B03D16423002905D461
:1013C0000AE0692B08D1002906D5692301223A6079
:1013D000002240428A4100E00A460094114632460B
:1013E00000F0CEF8A968884206DA401C21684A1E3F
:1013F000226030220A70F5E7287B582803D078282D
:1014000001D070280FD1297809070CD5702800D198
:10141000782021684A1E226008702068411E2160E1
:1014200030210170287B6F280AD12878000707D562
:1014300020684178302903D0411E2160302101709D
:10144000F8BDC04610B5037B702B05D10868021D9E
:101450000A60006800227BE002683E481040421E9D
:1014600004465440944216D9002807D04242024014
:1014700039485043C00E39A2105C00E02020401FC4
:10148000082808D878440079400087444C04041E9A
:1014900038041E04040000221846643814280DD8AD
:1014A00001248440354804420AD12120044205D059
:1014B0000868021D0A600068C21749E0582B46D12F
:1014C0000868031D0B60006842E018466438142861
:1014D00007D8012282402948024206D12120024237
:1014E00003D10020582B024632D10868C21D0720C4
:1014F00082431046083008601068526828E00022D5
:1015000018466438142807D8012484401B48044234
:1015100004D121200442CBD1582B18D10868031DD7
:101520000B60007814E0002218466438142807D8AD
:10153000012484401148044204D121200442B7D13F
:10154000582B04D10868031D0B60008800E010468A
:10155000114610BD603F000031B57C0700011C0240
:101560001D0E18031E16140F191104081F1B0D174A
:10157000151310071A0C12060B050A0900081200B1
:10158000FEB501920D460646582B01D0174800E0E3
:1015900015480090089802903046284305D1029AD9
:1015A0001068411E116030210170019C30462843B3
:1015B00013D030462946224600F01AF807460D4659
:1015C000224608F0C1FD301A0099085C029B196898
:1015D0004A1E1A6008703E46E8E70298006808F064
:1015E00036FF401EFEBDC0469BB80000ACB80000F0
:1015F00080B5102A06D0082A09D1C0084A078018E9
:10160000C90880BD00090A078018090980BD0029A2
:1016100004D1114608F07CFA002180BD002308F0B7
:101620009DFE80BDF0B5C9B0044602E0092808D18E
:10163000641C20781F28F9DD2028F9D03E28F7D037
:1016400003E0002801D122462CE0651C284608F062
:101650009EFD421C2918824201D20A4622E020182F
:1016600003E0C91EC01EA34215D90278202A01D06A
:10167000092A10D1A04210D9421E1378202B01D084
:10168000092B0ED1A2420AD9831E1D78202DE8D045
:10169000092DE6D006E0421C04E0024602E08A1E64
:1016A00000E04A1E002515702178002922D020462E
:1016B00004E0C21CC178002910461BD00A46613ADA
:1016C000D2B2192A01D8203901704178002911D0ED
:1016D0000A46613AD2B2192A01D82039417081787C
:1016E000002907D00A46613AD2B2192AE1D8203936
:1016F0008170DEE720784C285FD1607854285CD177
:10170000A078552859D1E078522856D120794E2812
:1017100053D16079202850D1A01DF84908AA08F0BB
:10172000E3FB012800D090E2F54D287800284BD14A
:10173000F44F3868F4490968401A45D409A808F0FC
:10174000DFFDF2480024047008F022FAF04804603B
:10175000F048046001262E7038687D210901401888
:101760006438E9490860089D2846214607F0E7FEED
:101770000028304600D1E043E7490860284621466A
:1017800007F0CBFE002801D0F0074540E34928468A
:1017900007F082F8E24906F0ADFFE24908600998D7
:1017A000E14908600A98E1490860E14808F084FED0
:1017B000E04808F081FEE04869E2D24F39682046EF
:1017C00006F08EFD002801D049B0F0BD06A808F053
:1017D00097FD0699079A204601F028FB002806D0BD
:1017E000CB4800210160CB480160D4484FE220780B
:1017F000502823D16078492820D1A07844281DD1D1
:10180000E07820281AD1201D05A90091CC4909AA09
:1018100008AB08F069FB032800D018E20999C44816
:10182000089A059B0EC0C34C0EC40C3C0C3808F043
:1018300043FE204608F040FEC24828E220784228B5
:1018400048D16078412845D1A078532842D1E0782A
:1018500045283FD1207920283CD1601D002529460C
:1018600002F046F80646B84C214607F056FE0490B2
:10187000B64F3046394607F06BFE002800D1374698
:101880000498002800D13C46A04805709C4805708B
:1018900008F07EF99E4804602046294607F034FE91
:1018A000002809D09B480560A14808F005FEA14822
:1018B00008F002FE08F05CF80021204607F03FFE29
:1018C0000546F549204606F015FF002D00D1C2E17E
:1018D0003F21C1E120784D2852D160784F284FD167
:1018E000A07854284CD1E0784F2849D1207952284B
:1018F00046D16079202843D17D2000010890A01DA9
:10190000FD4909AA08AB08F0EFFA002800DCBDE1A8
:10191000099D00242846214607F0FFFD0490F84E5B
:101920002846314607F014FE002800D12E46F7481D
:101930000499002900D1344609940899814200D9BC
:101940000890DC4801210170DB480021017008F09B
:101950001FF90998DD490860DD49086008980028EA
:1019600001D039680818DB490860DB4808F0A4FD9D
:10197000DA4808F0A1FD089B0999E6480A4665E0A7
:101980002078502866D16078572863D1A0784D28F8
:1019900060D1E07820285DD17D2000010590201DD8
:1019A00005A90091D74909AA08AB08F09DFA0228B9
:1019B00000DA4EE1099E00243046214607F0ADFDD5
:1019C0000490CF4D3046294607F0C2FD0028284636
:1019D00000D1304604990029214600D101460991E1
:1019E000089E3046214607F098FD0490304629466F
:1019F00007F0AEFD002800D13546C44804990029FF
:101A000000D12C4608940599814200D90590A94837
:101A100001210170A8480021017008F0B9F8099867
:101A2000AA4908600898AA4908600598002801D0CA
:101A300039680818A7490860A74808F03DFDA7487D
:101A400008F03AFD059B089A0999B14806F0C4FDD3
:101A500049B0F0BD207850287AD16078552877D1E8
:101A6000A0784C2874D1E078532871D1207945288A
:101A70006ED1607920286BD1A01D9F4909AA08ABBF
:101A800008F032FA022800D0FCE07D200490099C86
:101A90002046294607F041FD0390994E20463146E5
:101AA00007F056FD002800D126460498000103994E
:101AB000002900D1354609950899814200D908903E
:101AC0007C48012101707C480021017008F060F819
:101AD00009987E4908607E490860386808990818A6
:101AE0007C4908607C4808F0E7FC7C4808F0E4FC8E
:101AF0000899099807F0E4FD49B0F0BD0CBA000060
:101B0000F70C2020800C20208C0C2020FC0C2020A6
:101B1000CC0C2020B00C2020500C20200000B4421F
:101B2000000096435C0C2020540C2020580C2020F0
:101B3000BC0B2020E00B202046B900003AB9000081
:101B40008DB9000096B90000000070C2000070421C
:101B5000207851281BD16078552818D1A0784928C1
:101B600015D1E078452812D1207954280FD1607919
:101B700020280CD1A01D00210A2204F0C9FA4142FC
:101B80004141584A117000287ED05A487FE02078A1
:101B9000542819D16078452816D1A0784C2813D143
:101BA000E078452810D1207920280DD1601D002132
:101BB0000A2204F0ADFA411E02468A4149490A70E0
:101BC00000285DD1494862E03449204606F020FEF5
:101BD000002810D03249204606F01AFE002828D0EE
:101BE0003049204606F014FE002826D0204608F092
:101BF00063F949B0F0BD2F4805702F48057007F014
:101C0000C7FF2E4805602E4805602E4805602E4807
:101C100005602E4805602E4805602E4805602E4858
:101C200008F04AFC2D4808F047FC07F0A1FE2C48BC
:101C30002DE003F069FA49B0F0BD08F06DFB1A48D9
:101C400005601A4805601A4821E037481FE035480A
:101C50001DE02D481BE0BF21090605F036FD08F008
:101C60000FF8009001902D4A2D4B0120010209A888
:101C700007F0C6FE401EFE2800D9A5E509A806E02B
:101C8000194804E01D4802E0194800E0224807F026
:101C9000B9FD49B0F0BDC0460000C842E6B9000039
:101CA000EFB90000B0B90000A40C2020A80C20203F
:101CB000CBB80000FC0C2020F70C2020CC0C2020FE
:101CC000B00C2020940C20209C0C2020C40C202040
:101CD000C80C2020980C2020BC0B2020E00B2020DA
:101CE0005CB90000000D202016B900000AB9000000
:101CF000D8B80000E5B80000C7B90000FEB8000081
:101D00000000AA427AB9000066B90000102700005E
:101D1000F3B90000CEB900002EB900002DB80000C4
:101D200063B4000070B9000022B90000F0B591B0B2
:101D30000A910127002A00D10BE30E93002B00D15A
:101D400007E30D921349144D81220C920A6001247D
:101D50002C602C64099002262E602C60A027384647
:101D600008F0BCFB284610300B902C61384608F078
:101D7000B5FB2E610998400040B2064A0C991160EB
:101D80002C6010942C6434462E610790002828465D
:101D900005D403E00480424090120A400B98109949
:101DA000016020200F9008F099FBFC4D2C60384614
:101DB00008F094FB2C61384608F090FB099EB006B1
:101DC00006900B9800D5F548109901600F9808F01F
:101DD00085FBF24D2C60384608F080FB2C613846BC
:101DE00008F07CFBF00605900B9800D5EB481099A5
:101DF00001600F9808F072FBE84D2C60384608F03F
:101E00006DFB2C61384608F069FB300704900B9895
:101E100000D5E248109901600F9808F05FFBDF4D94
:101E20002C60384608F05AFB2C61384608F056FB07
:101E3000700703900B9800D5D848109901600F984F
:101E400008F04CFBD54D2C60384608F047FB2C6160
:101E5000384608F043FBB00702900B9800D5CF48F6
:101E6000109901600F9808F039FBCC4D2C60384672
:101E700008F034FB08942C61384608F02FFBF0077B
:101E800001900B9800D0C548109C04600F9808F092
:101E900025FB089EC14D2E60384608F01FFB2E61C1
:101EA000384608F01BFB2C610F9808F017FB2E60DA
:101EB000384608F013FB2E61384608F00FFB05F09A
:101EC00007FEB7490C9A0A602C602C6431462E61DB
:101ED0000028374600D130E20A9840B2AF490F4699
:101EE00010370028084600D4384610990160202099
:101EF0000F9008F0F3FA0224A84D2C60A02630467B
:101F000008F0ECFA2C61304608F0E8FA0A9840062E
:101F1000384600D5A148109901600F9808F0DEFA04
:101F20009E4D2C60304608F0D9FA2C61304608F0FE
:101F3000D5FA0A988006384600D59848109901606D
:101F40000F9808F0CBFA954D2C60304608F0C6FA91
:101F50002C61304608F0C2FA0A98C006384600D50F
:101F60008E48109901600F9808F0B8FAFB4D2C606C
:101F7000304608F0B3FA2C61304608F0AFFA0A9800
:101F80000007384600D5F548109901600F9808F011
:101F9000A5FAF24D2C60304608F0A0FA2C613046CC
:101FA00008F09CFA0A984007384600D5EB4810998B
:101FB00001600F9808F092FAE84D2C60304608F066
:101FC0008DFA2C61304608F089FA0A988007384665
:101FD00000D5E248109901600F9808F07FFADF4DB4
:101FE0002C60304608F07AFA09942C61304608F0EB
:101FF00075FA0A98C00700D0D84F109C3C6027465D
:102000000F9808F06BFA099CD44D2C60304608F00C
:1020100065FA2C61304608F061FA05F059FDCE49A9
:102020000C9A0A602F602F64002800D174E1CB4D18
:102030002C602F60A026304608F050FA2846103554
:1020400007610B96304608F049FAC4490C61C24852
:102050000C9A02600F600F642F460C6107980028ED
:10206000084600D438461099016020200F9008F0EF
:1020700035FABA4D2C600B9E304608F02FFA2C61D1
:10208000304608F02BFA06980028384600D5B348A9
:10209000109901600F9808F021FAB04D2C6030467D
:1020A00008F01CFA2C61304608F018FA0598002850
:1020B000384600D5A948109901600F9808F00EFA2B
:1020C000A64D2C60304608F009FA2C61304608F025
:1020D00005FA04980028384600D5A04810990160F8
:1020E0000F9808F0FBF99D4D2C60304608F0F6F98A
:1020F0002C61304608F0F2F903980028384600D5E4
:102100009648109901600F9808F0E8F9934D2C60FB
:10211000304608F0E3F92C61304608F0DFF9029808
:102120000028384600D58D48109901600F9808F0B6
:10213000D5F98A4D2C60304608F0D0F92C61304634
:1021400008F0CCF90198002800D0844F109C3C6026
:102150000F9808F0C3F9099D804F3D60304608F0A4
:10216000BDF93D61304608F0B9F93C600F9808F0C0
:10217000B5F93D60304608F0B1F93D61304608F0F0
:10218000ADF905F0A5FC002800D1C8E00D99481E66
:10219000C2B20E9D7048099FA02618E090120A4016
:1021A000048042400260304608F098F9099F6B4C69
:1021B0002760304608F092F92761109B23606D1C60
:1021C0000F9A521E0D99491E634800D1AAE00E9540
:1021D0000F920D9163490160604D2F61304608F008
:1021E0007DF92F60304608F079F95D4C20680B903E
:1021F000304608F073F92F61304608F06FF92F6010
:10220000304608F06BF90B98C007800F2168109CCE
:10221000214008180B90304608F060F92F613046D5
:1022200008F05CF92F60304608F058F94C48006817
:102230000A90304608F052F92F61304608F04EF906
:102240002F60304608F04AF90B9880000A99C907B8
:10225000890F401842490968214008180B90304600
:1022600008F03CF92F61304608F038F92F6030460D
:1022700008F034F93A4800680A90304608F02EF920
:102280002F61304608F02AF92F60304608F026F911
:102290000B9880000A99C907890F401830490968CE
:1022A000214008180B90304608F018F92F6130468D
:1022B00008F014F92F60304608F010F9284800683B
:1022C0000A90304608F00AF92F61304608F006F906
:1022D0002F60304608F002F90B9880000A99C90770
:1022E000890F40181E49096821400C18304608F033
:1022F000F5F82F610E990C700C98174A1060109A1F
:102300002A602A642F610F98002828460D4600D1C4
:1023100048E71248103045E7032708990BE00427E7
:102320000D4800E000270C99016010980B490860E7
:1023300008640899099C09480461109E074D2E61A4
:102340002960A024204608F0C9F82E60204608F035
:10235000C5F8384611B0F0BD0480424090120A40E2
:1023600080130A4081000400F0B589B0064607A832
:1023700007F0C6FF0798D6490A68871A089AD54B0E
:102380001C68151BD44C266008601A60D34800787E
:10239000012810D1D2480760D2480560D2480168B0
:1023A000002920D0711A1ED4D04900240C60D049D5
:1023B0000C60046019E00495CE480468CE480568B6
:1023C0002046294607F0A9F80028039623D07D204F
:1023D000C105204605F079F90446294607F0B8F80A
:1023E000002828D028E0C1480468C44E3568284633
:1023F000214607F092F8002800D196E03F20010620
:10240000284605F062F90546214607F0A1F80028A4
:1024100000D19BE09BE02046294607F099F8002870
:1024200009D0B749204605F050F90446294607F07F
:1024300074F8002800D125460295AE480560B14DDC
:102440002C68384607F0E0FB214605F039F97D217C
:10245000CF05394606F04EF9214605F036F9044617
:102460002860A94E3568049807F0CEFB294605F090
:1024700027F9394606F03EF9294605F026F90746C0
:10248000306000212046049107F059F806469F4924
:10249000204606F02FF93F210A06BF210D06002E27
:1024A000294600D01146019205F00FF907F0E8FB2C
:1024B00004468B4804603846049907F040F8064605
:1024C0003846924906F016F9002E00D0019D2946A3
:1024D00005F0FBF807F0D4FB82490860201A8C490C
:1024E0000860029806900590039E304606F0BEFBF9
:1024F000029089480468894D2F780798089906AAA0
:1025000005AB04F0CFFC012F38D1002800D1C3E087
:10251000FA4800210160FA480160FA4801607D48EC
:10252000016007F025FA09B0F0BD2846214607F002
:102530000FF800280AD0BF200106284605F0C5F88C
:102540000546214606F0E9FF002800D12C463460FC
:10255000ED4F3E68664805683046294606F0DDFFC7
:1025600000285CD03F200106304605F0AEF8064654
:10257000294606F0EDFF002862D062E0341B0028F7
:1025800005D10798089906AA05AB03F063FE002C55
:1025900000D5E4E00127039807F012FD0021049123
:1025A000002818D007F016FF0028384600D12878F8
:1025B000C00710D1059C0698002106F0A5FF002851
:1025C00009D00021204606F09FFF002803D0D24802
:1025D000069005900497039807F056FC002800D059
:1025E0002F78F80704D107F0F5FE002800D197E016
:1025F000039807F0E5FC002800D1B0E007F0EAFE00
:10260000002800D0ABE00698C44C214606F072F8D2
:1026100006900598214606F06DF804469EE0304687
:10262000294606F095FF00280AD0BF200106304653
:1026300005F04BF80646294606F06FFF002800D14A
:1026400035463D602046294604F026FBC148006817
:10265000002106F059FF002800D14CE13C68BF483A
:102660000568BD480068002106F04EFF002800D133
:1026700041E10021284606F047FF002800D13AE159
:1026800000252046294606F03FFF002800D132E110
:102690009E48057009B0F0BDAC480568684207F077
:1026A000B3FAAB4E314606F025F804469F48046065
:1026B000284607F0A9FA314606F01CF801469C4866
:1026C00001609D480460A0480160204611E1C046B9
:1026D000A40C2020A80C2020800C2020FC0C202002
:1026E000600C2020740C2020980C2020C40C20208A
:1026F000C80C2020B00C2020CC0C2020940C2020D2
:10270000000080BE440C2020480C20200000C8425D
:10271000700C2020780C20208C0C2020F70C20201E
:102720000699029C204604F0D0FF069005982146A9
:1027300004F0C6FF059007F04DFE00280FD1069863
:102740000024214606F0E9FE002801D00020069072
:102750000598214606F0E1FE002800D00594069C6D
:102760006F4E2046314606F0D8FE05466D4F204696
:10277000394606F0EDFE0028384600D12046002DEF
:10278000344600D104460694059D2846314606F09D
:10279000C4FE03902846394606F0DAFE002800D130
:1027A0002F460398002800D13E460596049800283D
:1027B00026D000252046294606F0AFFE04905A4F49
:1027C0002046394606F0C4FE0028384600D120468F
:1027D000049900292C4600D1044606943046294627
:1027E00006F09BFE04903046394606F0B1FE002804
:1027F00000D137460498002800D13D46059500E0F9
:1028000035464A4804604A480560414802684948DC
:10281000214605F081FB484F38603E480268059923
:10282000464805F079FB04903D68069C002620464A
:10283000314606F069FE0028304624D10395002574
:102840002046294606F069FE002801D1204602E014
:102850000120C00760403A4905F04CFF41210906BC
:1028600004F033FF07462046294606F071FE002893
:1028700004D00398394604F028FF03E00398394652
:1028800004F01EFF2C4F3860059F04463846314641
:1028900006F03AFE002828D1254600243846214675
:1028A00006F03BFE002801D1384602E00120C007B7
:1028B0007840234905F01EFF4121090604F005FF79
:1028C000204905F017FF06463846214606F040FE2F
:1028D000002804D00498314604F0F7FE03E0049881
:1028E000314604F0EDFE06462C46174806602046A9
:1028F000314604F0D1F909B0F0BDC046680C202083
:102900007C0C2020640C20209C0C2020FC0C20201F
:10291000440C2020480C2020000040416666E63E22
:10292000000070C20000704200008841680C202046
:102930007C0C2020BC0B2020640C2020E00B2020ED
:102940003333333F8FC2753F780C2020500C20204A
:1029500000007041C40C2020C80C2020940C2020C2
:10296000F0B589B001930292039107901148124D7E
:1029700081220492026001242C602C6402262E60C5
:102980002C60A027384607F0A9FD284610350461C1
:102990000097384607F0A2FD074F3E6105490498AD
:1029A00008603C6008943C643E61079840060595C9
:1029B00005D503E00480424090120A40FD4D08997D
:1029C00029602020069007F089FDFA4D2E60009FB7
:1029D000384607F083FD2E61384607F07FFD0798E3
:1029E0008006059800D5F34808990160069807F01D
:1029F00075FDF04D2E60384607F070FD2E613846AB
:102A000007F06CFD0798C006059800D5E9480899BD
:102A10000160069807F062FDE64D2E60384607F02B
:102A20005DFD2E61384607F059FD079800070598AF
:102A300000D5FD4808990160069807F04FFDFA4D52
:102A40002E60384607F04AFD2E61384607F046FDF5
:102A500007984007059800D5F34808990160069843
:102A600007F03CFDF04D2E60384607F037FD2E6133
:102A7000384607F033FD07988007059800D5EA48E7
:102A800008990160069807F029FDE74D2E60384649
:102A900007F024FD2E61384607F020FD0798C00797
:102AA00001D0E14805900598089C0460069807F05D
:102AB00015FDDD4D2E60384607F010FD2E613846BD
:102AC00007F00CFD2C61069807F008FD2E603846D3
:102AD00007F004FD2E61384607F000FD04F0F8FF12
:102AE000D049049A0A602C602C642E6100282F467D
:102AF00000D161E10796039840B2394610310028B1
:102B0000384600D40846012606602020059006912C
:102B100007F0E4FC079D3D60A024204607F0DEFCA2
:102B20003D61204607F0DAFC03984006069800D580
:102B300038460660059807F0D1FC079D3D602046A9
:102B400007F0CCFC3D61204607F0C8FC03988006E6
:102B5000069800D538460660059807F0BFFC079D2B
:102B60003D60204607F0BAFC3D61204607F0B6FC08
:102B70000398C006069800D538460660059807F009
:102B8000ADFC079D3D60204607F0A8FC3D61204656
:102B900007F0A4FC03980007069800D538460660A5
:102BA000059807F09BFC079D3D60204607F096FCCA
:102BB0003D61204607F092FC03984007069800D537
:102BC00038460660059807F089FC079D3D60204661
:102BD00007F084FC3D61204607F080FC03988007E5
:102BE000069800D538460660059807F077FC079DE3
:102BF0003D60204607F072FC3D61204607F06EFC08
:102C00000398C007069800D038460660059807F07C
:102C100065FC079D3D60204607F060FC3D61204655
:102C200007F05CFC04F054FF002800D1D0E00298CB
:102C3000002800D1ABE0002108967B4D019805915A
:102C400042567848049901603E603E643E46103624
:102C50003846022707610792002A00D430460899B7
:102C600001602020069007F039FC2F60A024204648
:102C700007F034FC2F61204607F030FC079840062F
:102C8000304600D5284608990160069807F026FCD2
:102C90002F60204607F022FC2F61204607F01EFC23
:102CA00007988006304600D52846089901600698A6
:102CB00007F014FC2F60204607F010FC2F6120461F
:102CC00007F00CFC0798C006304600D52846089946
:102CD0000160069807F002FC2F60204607F0FEFB1B
:102CE0002F61204607F0FAFB07980007304600D511
:102CF000284608990160069807F0F0FB2F602046EF
:102D000007F0ECFB2F61204607F0E8FB079840072F
:102D1000304600D5284608990160069807F0DEFB8A
:102D20002F60204607F0DAFB2F61204607F0D6FB24
:102D300007988007304600D5284608990160069814
:102D400007F0CCFB2F60204607F0C8FB2F61204620
:102D500007F0C4FB0798C00700D02E4608983060E3
:102D60000646069807F0BAFB2F60204607F0B6FB30
:102D70002F61204607F0B2FB04F0AAFE002839D0EC
:102D80000599491C02988842274F00D056E72548EC
:102D9000049901603E603E64022038613E61386003
:102DA000A024204607F09AFB3E60204607F096FBE1
:102DB000002032E090120A40089C3C613E60A02650
:102DC000304607F08BFB3C60304607F087FB25E080
:102DD0001448049901603E603E643D613E613D607F
:102DE000A024204607F07AFB3E60204607F076FBE1
:102DF000089513E00B48049901600B4D2E602E647A
:102E00002F612E612F60A024204607F067FB2E6003
:102E1000204607F063FB0598C01C08900898C0B2D4
:102E200009B0F0BD0480424090120A40F0B589B06C
:102E30000378442B47D14378522B44D18378492BD4
:102E400041D1C378562B3ED10379452B3BD14379F1
:102E5000202B38D1801DD44908AA07AB07F044F8CD
:102E6000022800D025E1089E07980690C848012155
:102E70000170D74D3046294606F04FFB0446D24F2D
:102E80003046394606F064FB002800D13746002C56
:102E900000D13D46BF480560CE4D069F38462946C5
:102EA00006F03BFB0446C44E3846314606F050FB64
:102EB000002800D13E46002C00D13546B6480560BA
:102EC000B6480025BDE00378532B32D14378502B10
:102ED0002FD18378452B2CD1C378452B29D1037969
:102EE000442B26D14379202B23D1801DB74908AA32
:102EF00006F0FAFF012800D0DBE0089DA44801217C
:102F00000170B34C2846214606F007FB0746AE4E3B
:102F10002846314606F01CFB002800D12E46002F23
:102F200000D134469B4804609B48002505609B48BF
:102F300087E00378442B48D14378492B45D18378E7
:102F4000532B42D1C378542B3FD10379202B3CD152
:102F5000059106920125401D934908AA07AB06F08A
:102F6000C3FF022800D0A1E0089C079F002620464E
:102F7000314606F0E4FA019038460396314606F0F1
:102F8000CCFA0121C90700280494029100D04F40D7
:102F90007F48022101707F20C4053846214606F093
:102FA000BCFA0090884E3846314606F0D1FA002827
:102FB00000D13E460098002800D1344601980028F0
:102FC00000D0BFE0029E7440BDE00378542B0BD1CB
:102FD0004378552B08D18378522B05D1C3784E2BDB
:102FE00002D10379202B11D00378412B15D14378DE
:102FF0004E2B12D18378472B0FD1C3784C2B0CD199
:103000000379452B09D14379202B06D10378542B22
:10301000069205911BD006211AE05C4905F0F8FBE9
:10302000002802D0002009B0F0BD594800250570E5
:10303000584805605848056058480560584805607C
:1030400058480560012064490D7009B0F0BD0521A4
:1030500001254018544908AA07AB06F045FF02288D
:103060002AD0012822D1089E00243046214606F0AD
:1030700066FA07463046214606F04FFA002802D08D
:103080000120C00746404949304605F033FB484916
:1030900005F002FC474905F02DFB3D4903220A706B
:1030A0003C490C60002F5DD146495CE0284609B0E0
:1030B000F0BD012009B0F0BD089F079C00263846EE
:1030C000314606F03CFA03902046314606F025FAD8
:1030D0000121C9070028049100D04C4038463146F0
:1030E00006F01BFA002801D0049847402F493846C3
:1030F00005F000FB2E4905F0CFFB2E4905F0FAFA4A
:103100000290234803210170224806607F20C705F2
:103110002046394606F001FA0190274E20463146F6
:1031200006F016FA002800D126460198002800D1A2
:10313000374603980028049800D147400298164962
:103140000F6012E0029E1348046013480399016067
:10315000049C204606F0E1F9002800D0744017498D
:10316000204603E016490C4A1160144905F0C2FAE2
:103170004121090604F0A9FA0849086008490598A0
:1031800008600849069808605CE7C046E0B900009E
:10319000FD0C2020900C2020340C2020C00C20207E
:1031A000B40C2020B80C2020DAB90000DA0F494016
:1031B00000003443000081420000F042E7BD3A4085
:1031C0000000B4420000B4C20000C8420FBA0000C0
:1031D0000000C8C20000F0C2F30C2020F0B58BB094
:1031E0000A460346DF4905462E78881940786D1C4B
:1031F000C006F9D42D2E01D02B2E01D1287801E064
:103200006D1E304607F09FF901D3014601E00146EB
:1032100020394E293FD0492958D1687807F093F9D1
:1032200000D220384E284BD1A87807F08CF900D274
:103230002038462844D1002A01D0E81C1060E878E4
:1032400007F081F900D2203849281FD1287907F0EA
:103250007AF900D220384E2818D1687907F073F92E
:1032600000D22038492811D1A87907F06CF900D292
:10327000203854280AD1E87907F065F900D22038BF
:10328000002A03D0592801D1083515602D2E00D110
:10329000C9E0B749C8E0687807F055F900D220388E
:1032A00041280DD1A87807F04EF900D220384E28D9
:1032B00006D1AD490024002A00D12BE1E81C28E109
:1032C000002A00D013600024214623E1A94905917A
:1032D000002430280192029317D1687807F033F95F
:1032E00000D220389F4958280FD1A878091849786A
:1032F000890707D42E2808D1E8789A490818407819
:10330000800702D5AD1C9C4805909A4B07F027F921
:10331000411E88410690984B049407F020F9411E05
:10332000884103900894099421460A942B782E2B07
:1033300003D1002C3AD1012436E0079418463038E6
:1033400001220928174600D80027069C62403A430C
:1033500009D0039A002A29D0824AD21852789207BB
:1033600024D5092804D8C00084490818049A0AE022
:10337000184661381A28049A00D2203BD8007F49A9
:1033800008187F49401890C80A980899059B07F0CB
:10339000CCF822463B4602F06CF80A900891099856
:1033A000079C001B099001216D1CBFE701242D2EF5
:1033B00001D0089802E0E007089A5040059009986B
:1033C000860003980028324600D1099A002909D0C6
:1033D0000698002807920BD01A46613A1A2A03D39E
:1033E0001A4603E00A9C7DE01A46203A452A09D095
:1033F0000398002812D01A46613A1A2A00D2203BBC
:10340000502B0ED121466B782D2B01D02B2B0DD1BB
:10341000A81C0290AD780022D4430BE00295099ECF
:103420003DE002953BE05149002473E0681C0290A6
:1034300000241D462A46303A092A26D800244D2267
:103440009600303D092D25D82D2B01D0224600E0D5
:10345000624207981218D7177A40D71BB7420A461C
:1034600000D80022069810420AD101229002874219
:1034700000D800220398104202D10A206043441968
:10348000029A501C55780290DBE702980219501EF0
:10349000029000242D2B00D16442079826180024A6
:1034A0000A9D284608992246234605F0FFFF00287A
:1034B00017D106980028059917D04D208000864224
:1034C00019DD0D4607F01AF82221016000240A9840
:1034D00029462246234605F0F2FF002814D124494C
:1034E00013E02C46019A059910E00A98324604F040
:1034F00079F8044609E0234886420EDC06F0FEFF18
:1035000022210160214600E01849019A002A01D0D9
:103510000298106020460BB0F0BD002E0FD41A4C5C
:10352000019A002E1CD0F00706D00CCC0A98083C5B
:1035300006F0FBFF019A0A9076080834F1E774421E
:10354000114D019A002C0BD0E00706D00CCD0A9843
:10355000083D07F021F8019A0A9064080835F1E760
:103560000A9CD3E740B200000000F87F0000F0FFA3
:103570000000F07F000024400000304068B40000EC
:1035800048FEFFFFCCFEFFFFB0B50000F0B589B0EC
:103590000F4605460120C1073E468E43B14886428C
:1035A0000BD3D1483018284300D190E006F0A6FF95
:1035B00021210160CD49002550E1AB48864212D857
:1035C000C64AC74B2846394601F053FF0022A54B97
:1035D00005F090FF002800D186E0C248864200D363
:1035E00082E039463AE10291089700249D4920463D
:1035F0002A46334601F038FF9C4B224606F095FFE1
:1036000005460F469A4A9B4B06F08FFF9A4A9B4B02
:1036100001F02FFF06F06CFF994A9A4B01F029FF49
:1036200006F066FF984A994B01F023FF06F060FF11
:10363000974A984B01F01DFF06F05AFF964A974BA8
:1036400001F017FF06F054FF06900791944A954B3E
:1036500006F0D2FF944A954B01F00BFF06F048FFAD
:10366000934A944B01F005FF06F042FF924A934BB8
:1036700001F0FFFE06F03CFF22467A4B01F0F9FE16
:10368000039004912846394602F038F905900C461B
:103690008B48864200D283E006F042FF02460B468A
:1036A000059D2846214606F040FF2A4606F0BCFF4D
:1036B00002460B4601F0DDFE824A864B01F0D9FE40
:1036C00002460B468148844901F0CEFEC0E07D4AA7
:1036D0007D4B06F091FF04460E467C4A7E4B06F079
:1036E0008BFF2246334657E0284639462A463B465A
:1036F00006F01BFF064608970F465D4A5D4B06F035
:1037000014FF5D4A5D4B01F0B4FE06F004FF5C4A15
:103710005C4B01F0AEFE06F0FEFE5B4A5B4B01F037
:10372000A8FE06F0F8FE5A4A5A4B01F0A2FE06F037
:10373000F2FE594A594B01F09CFE06F0ECFE04469D
:103740000791574A574B3046394606F0EEFE564A27
:10375000564B01F08EFE06F0DEFE554A554B01F049
:1037600088FE06F0D8FE544A544B01F082FE06F063
:10377000D2FE00223B4B01F07CFE02460B46204667
:10378000079906F009FF02460B462846089C214689
:1037900006F0CBFE2A46234601F06BFE05465DE0AF
:1037A00000263046214632460196234606F0BDFEED
:1037B00002460B462846394601F056FE00900F4659
:1037C000059D28462146324606F02EFF02460B464E
:1037D0000098394606F0E0FE06460F4606F0A0FEC9
:1037E00007900691284621462A4606F01DFF0590BF
:1037F00004913046394632463B4601F03AFE0246D5
:103800000B463048304901F02FFE05460F4605981B
:103810000499079A069B06F088FE2A463B4601F06B
:1038200023FE05460F4601982146024606F0FCFE9F
:1038300002460B46254C264E2046314601F014FE2A
:103840002A463B4601F010FE2246334601F011FEA7
:1038500005460898002801DC02984140284609B036
:10386000F0BDC0460000F03FFFFFDF3F0000E03F3B
:1038700009F7FD0DE13D023F88B20175E0EF493FD8
:103880003B8F68B52882A4BF5544880E55C1C93FF7
:103890007D6FEB0312D6D4BF555555555555C53FD1
:1038A00082922EB1C5B8B33F59018D1B6C06E6BF9D
:1038B000C88A599CE52A00404B2D8A1C273A03C030
:1038C0003333EF3F075C143326A6913C182D445444
:1038D000FB21E93F26A691BCFB21F93F9C7500889E
:1038E0003CE4377E0000503E000010C00000F87F2E
:1038F000F0B589B00A460746CB4B02903E7898193E
:1039000040787F1CC006F9D42D2E01D02B2E01D17A
:10391000387801E07F1E304606F019FE01D30146DB
:1039200001E0014620394E2940D0492959D1787803
:1039300006F00DFE00D220384E284BD1B87806F0A4
:1039400006FE00D22038462844D1002A01D0F81CB7
:103950001060F87806F0FBFD00D2203849281FD10E
:10396000387906F0F4FD00D220384E2818D1787945
:1039700006F0EDFD00D22038492811D1B87906F0C3
:10398000E6FD00D2203854280AD1F87906F0DFFD90
:1039900000D22038002A03D0592801D108371760F7
:1039A0002D2E00D1C3E0FF20C50521E1787806F077
:1039B000CEFD00D2203841280CD1B87806F0C7FDE2
:1039C00000D220384E2805D1984D002A00D10FE1B1
:1039D000F81C04E00025002A00D109E102981060DB
:1039E00006E1944905913028019216D1787806F0C5
:1039F000AEFD00D2203858280FD1B8781918497870
:103A0000890706D42E2808D1F8781818407880073E
:103A100003D5BF1C8320C00505908649059C204620
:103A200005F072FD411E884106908320C1052046A5
:103A300005F06AFD411E8841039000240794049418
:103A400008943A782E2A03D1002C33D101242FE098
:103A500011463039012509292B4600D80023069844
:103A600045401D4309D00398002823D06E48831891
:103A70005B789B071ED5092903D888006E49081872
:103A800008E0104661381A2800D2203A90006A49AE
:103A90000818DC3805680898059904F02BFE2946BB
:103AA00003F013FE08900798001B07900120049074
:103AB0007F1CC6E701232D2E01D0089902E0D9070B
:103AC00008984140079EB500039800282C4600D175
:103AD00034460498002809D00698002805910DD096
:103AE000104661381A2805D3104605E00D460198A6
:103AF000029F7AE010462038452809D00398002814
:103B000011D0104661381A2800D2203A502A0CD120
:103B100007937A782D2A01D02B2A0AD1BE1CBB78B4
:103B20000020C54308E0344632E02C4630E0404DEA
:103B30005EE07E1C0025134618463038092823D83D
:103B4000002537462D2A01D0284600E06842303B48
:103B50000019092B1BD8C6177040861B262E079804
:103B600000D80020069901420AD1802E01D80020F9
:103B700000E001200399014202D10A206843C518E0
:103B8000781C7B780746DDE77019471E00E0044685
:103B900000250898294605F0B7FC002813D106989F
:103BA0000028059811D0272C14DB044606F0A6FC4B
:103BB000222101600021204605F0AFFC002812D12F
:103BC000FF20C50510E0059D0EE0214604F040F8F9
:103BD000054609E02521C9438C420CDC06F08EFC29
:103BE0002221016000E0124D0198002800D00760FA
:103BF000284609B0F0BD002C0AD4104D002CE7D0A7
:103C0000E10702D0296804F075FD64082D1DF5E771
:103C100064420A4D002CDBD0E10702D0296804F091
:103C20003BFE64082D1DF5E740B200000000C07F98
:103C3000000080FF0000204180B60000D0B70000E7
:103C4000F0B587B005460F460122D0070E468643E1
:103C5000924886420DD3B448864203D8002D3FD007
:103C600086423DD1284639462A463B4601F001FCB2
:103C7000E2E08B488642039112D8914A914B284644
:103C8000394601F0F6FB00248B4B224605F032FC4E
:103C9000E1430291002869D0B00DF92866D2CDE049
:103CA0008048864220D8854886423FD828463146FB
:103CB0002A46334601F0DDFB00277C4B3A4601F0F3
:103CC000D8FB044628460D4601218B073146029752
:103CD0003A4601F0CEFB02460B462046294636E026
:103CE000002920DC924F1FE06F48864234D8002420
:103CF0006F4B284606F074FC2A4605460F466D4B6E
:103D000010463146224606F010FC6B4B224601F06D
:103D1000B0FB02460B462846394606F03DFC0546F8
:103D20000F46022021E0814F824D87E0029200245D
:103D30005E4B284606F054FC2A4605460F465E4B6D
:103D4000104606F04DFC02460B462846394606F062
:103D500023FC05460F4609E0002054492A46334615
:103D600006F01AFC05460F460320029006952846E9
:103D700039462A463B4606F0D8FB05900491024698
:103D80000B4606F0D2FB04460D464F4A4F4B06F059
:103D9000CCFB4F4A4F4B01F06CFB06F0B7FB4E4A91
:103DA0004E4B01F066FB06F0B1FB4D4A4D4B01F066
:103DB00060FB06F0ABFB4C4A4C4B01F05AFB06F0A3
:103DC000A5FB4B4A4B4B01F054FB02460B460598B2
:103DD000049906F0AAFB04900591474A474B2046F8
:103DE000294606F0A2FB464A464B01F042FB06F08C
:103DF0008DFB454A454B01F03CFB06F087FB444AEE
:103E0000444B01F036FB06F081FB434A434B01F083
:103E100030FB06F07BFB224A964213D8049A059B9E
:103E200001F027FB02460B4606F0AAFB02460B46B2
:103E30002046394601F018FB05460F46284639460C
:103E400007B0F0BD029AD400354A131912590292F4
:103E50005A680192049A059B01F00BFB02460B463F
:103E60003048011906594D6806F08AFB32462B4648
:103E700001F0FAFA22463B4601F0F6FA02460B46FA
:103E80000298019901F0F0FA05460F4603980028C0
:103E9000D4D50120C0074740D0E7C04600001044F9
:103EA000FFFFDB3FFFFFF23FFF7F03400000F0BF5B
:103EB0000000F8BF0000F83F0000F03FFFFFE53FC3
:103EC0009C7500883CE4377E11DA22E33AAD903FDE
:103ED000EB0D76244B7BA93F513DD0A0660DB13F41
:103EE0006E204CC5CD45B73FFF8300922449C23FA9
:103EF0000D5555555555D53F2F6C6A2C44B4A2BF6E
:103F00009AFDDE522DDEADBF6D9A74AFF2B0B3BF35
:103F1000711623FEC671BCBFC4EB98999999C9BFAD
:103F200040B6000060B600000000F07FFB21F93FC2
:103F3000FB21F9BF182D4454F0B591B00F90012525
:103F400048000D90400D5C00670D59401095EE073C
:103F50000E40AB494D1E44198C4200D203E17C193E
:103F60008C4200D2FFE0049610990C05611E00916E
:103F70000B400025E9430E91A449019423430C937F
:103F8000C01B40180290401C0390D0020A90500DB4
:103F9000D9020B9247189E48C41B38462946224630
:103FA0002B4606F0D1F84842294622462B4606F019
:103FB000CBF84900C00F4418204629463A462B4604
:103FC00006F0C2F84A42204629462B4606F0BCF8C5
:103FD0004900C00F4418204629463A462B4606F0B1
:103FE000B3F84A42204629462B4606F0ADF8490070
:103FF000C00F4018441E3846294622462B4606F07C
:10400000A3F806460F460A98294622462B4606F094
:104010009BF870186F411099081A0A902A46BA4105
:10402000204629462B4606F08FF8C20F4900891812
:10403000099146000A98294622462B4606F084F844
:104040004A00C00F8018CF0F341809994F41E13C46
:104050000994AF410F9AD00F0D990918069152009B
:1040600008920E98401E0D902E46AE4108463040F4
:10407000034607902046294606F066F80A910698FE
:10408000C043614AD1430143521A05922C466C4108
:1040900009982946234606F057F8069009913846B4
:1040A0002946089A079B06F04FF808900791384672
:1040B0002946059A234606F047F805900A9A069B7A
:1040C000D0182B466B41079F3E400D9C089A22401A
:1040D00082185E41059838186941099A801869412B
:1040E000841969410E98401C4748684181424BD26F
:1040F000002201988142109800D310460F9B01D3F3
:10410000039A029281401F2242406708D7400F4322
:1041100084405E05204639460B9A0C9B06F014F845
:1041200040428E4102994A1E3449491E8A423EDC71
:10413000012A48DB00990F401205C10F73005B187C
:1041400040001099214040183A4304990A43002145
:10415000651C51410B9E301A0C98984100D325469E
:1041600044D3114642E0002F28D024498F4204D086
:10417000002823D0884200D0F5E6224806430025D7
:104180003146284611B0F0BD6008CA0784184F08B0
:104190000F980605204639460B9A0C9B05F0D4FF74
:1041A00040428E41039A1549491E8A42C0DD154896
:1041B000049901430025284611B0F0BD0025294689
:1041C000284611B0F0BD002A13D10E994C400E497B
:1041D0004F4027430DD1019A56403043294605D11F
:1041E000049911430025284611B0F0BD284611B0AE
:1041F000F0BD2946284611B0F0BDC046FF070000BB
:1042000002F8FFFF0000F07FFFFF1F00FE03000029
:1042100033F30475F0B591B0044601200390000219
:1042200008909720C00004900BAF022002903870D5
:10423000CA207870E320B8700920F8706820042143
:104240003A4604F045FFA3203870402323403D2127
:10425000CA433721CE433F210191CD435C21C9435D
:104260000793002B0B4600D02B460D4600D0354659
:1042700009940E4600D016467B70BD70FE70089CF7
:104280008034099A14403922D2433323DD433B233F
:10429000DE430A94002C0B4600D033460E4600D075
:1042A0002E46894D099C00D011463B717E71B97133
:1042B000F8713872787228460F300A213A4604F0B5
:1042C00007FF0320272120400690059101D02020E0
:1042D00000E0C843387028461E3003993A4604F07F
:1042E000F7FEA00606D40EAAC720107279480F90D8
:1042F000794805E00EAA5D20107274480F9074484A
:104300000E900921049804F0E3FE0A98002826D0B4
:104310006420C04304906F20C0434921C9430391E6
:104320004B21CB437421CF437F21CD434D21C94342
:104330004F26F643089A144200D0BAE000D0BBE002
:1043400000D0BCE000D004980BAA16705570937092
:10435000D0705D4D28460A30042104F0B9FE8B2050
:104360000001E10704D10BAAD821117001214AE014
:104370000BAAF82111700127394604F0A9FE072085
:10438000FA2101F0FFF90EAA019810702920C5004A
:104390002846394604F09CFE0EAA00261670E81D39
:1043A000394604F095FE0EAA167014205070284667
:1043B0009630029F394604F08BFE0EAA16706420D8
:1043C000507028469230394604F082FE0EAA1670CC
:1043D0008E205070F92090709020D07028461430B4
:1043E000042104F075FE0EAA1670082050702846AD
:1043F0001230394604F06CFE0EAA16705770103554
:104400002846314D394604F063FEA007059800D5D3
:104410002620C0430BAA10703048012104F058FE3A
:10442000600704D42E480E9004210EAA09E00EAABB
:10443000C0201070C2205070C4209070C620D07070
:104440000421284604F044FE01F076FCE00605D481
:1044500024480E90A81D04210EAA0AE00EAA2020CE
:10446000107028205070302090703820D070A81D17
:10447000042104F02DFE01F05FFC082020431A49BE
:10448000088001F059FC0799002900D006210A98FC
:10449000002800D0891D1420044201D010200143BF
:1044A0000698002800D0091D10480170002011B0A6
:1044B000F0BD0E4600D143E73D4600D142E7039BE5
:1044C00000D040E740E7C046980A0000B4980D3598
:1044D000B8AAB38DB088C3C5B8AAAAAA3D07000080
:1044E0008B8B8B8BA3A3A3A3F61620201A17202057
:1044F000F0B589B00024002800D1DFE00E46054663
:1045000068203B210E2205ABFDF710FC002800D0EF
:10451000D4E00296012004900598C0BA05F074FB1F
:10452000039005A84088C0BA05F06EFB06460698C1
:10453000C0BA05F069FB07460898C0BA05F064FBED
:1045400001903846394604F0D5F82C4605463046E9
:10455000314604F0CFF8294603F0B7F803F0D6FB54
:1045600001460498C007039A504002F075F96B4D5C
:10457000294604F0BFF820603046394602F06CF955
:10458000294604F0B7F80394606065480588654FD4
:104590003E680198314603F093F80446632D18D81D
:1045A0006D1CA8B205F098FD0146204604F074F990
:1045B0000146304603F089F83860594805805F4865
:1045C000002707605E48029901605B48049C047004
:1045D00072E0049D5449204604F05EF9074601202C
:1045E000C10738468843514904F097FF00280AD094
:1045F0005049204604F07EF8314603F066F84949F8
:10460000086000200BE00021384604F0A1FF0028DC
:1046100001D0474900E04549384603F056F82C469A
:10462000029B45490A78002A40D0454A1168591A28
:104630001360424A1768C8293ED80446084605F068
:104640004BFD404904F056F80146204604F052F86C
:104650003D4904F04FF8394603F037F807463B4927
:1046600004F076FF00282CD0384E2C46039D3846A7
:10467000374903F02AF80746314604F069FF00285D
:1046800021D03846324903F020F80746314604F07D
:104690005FFF002817D038462D4903F016F807466B
:1046A000314604F055FF0028E1D10CE023480027F3
:1046B0000760234803600C70039DAF60204609B07B
:1046C000F0BD2C46039D1D4807602249384604F082
:1046D00024FF0028F1D01F4E38461F4902F0F5FF95
:1046E0000746314604F019FF002813D038461A490E
:1046F00002F0EBFF0746314604F00FFF002809D017
:104700003846154902F0E1FF0746314604F005FF3F
:104710000028E1D109480760CFE7C046E12E654295
:10472000E40C20204C0C2020333383410000404017
:10473000000040C06F12033BF50C2020400C2020ED
:104740003C0C20206F12833A9A99193E00003443A2
:104750000000B4C3000034C30000B443F0B5E3B0BC
:104760008A480078012800D00DE123A805F0C8FD93
:104770002398209024981F90854800681E908548B3
:1047800000681D90844800681C908448056884482F
:1047900006682846314602F093FF07460021229121
:1047A00004F0CDFE04467F49384603F0A3FF3F21C5
:1047B00009062191BF210F06002C394600D021990E
:1047C00002F083FF05F05CFA1B903046229904F05A
:1047D000B6FE04463046734E314603F08BFF002C84
:1047E000394600D0219902F070FF05F049FA1A907D
:1047F0002846229904F0A3FE04462846314603F0D9
:1048000079FF002C394600D0219902F05EFF05F0B7
:1048100037FA1990644804682046229904F08FFE04
:1048200005462046314603F065FF002D394600D08D
:10483000219902F04AFF05F023FA18905B480468BA
:104840002046229904F07BFE05462046314603F0BF
:1048500051FF002D394600D0219902F036FF05F0B6
:104860000FFA1790524804682046229904F067FE18
:104870000546504E2046314603F03CFF002D394698
:1048800000D0219902F021FF05F0FAF9169048486E
:1048900044682046229904F052FE054620463146DF
:1048A00003F028FF002D394600D0219902F00DFFBA
:1048B00005F0E6F915903E4884682046229904F0F8
:1048C0003EFE05462046314603F014FF002D3946D2
:1048D00000D0219902F0F9FE05F0D2F91490364883
:1048E00004682046229904F02AFE054620462D49F8
:1048F00003F000FF002D00D0219F394602F0E5FEB5
:1049000005F0BEF9229004F025FA21902B480068AA
:1049100005F0BAFA054605F055FD064605F04AFDD4
:10492000044605F0BDFD074605F0C0FD1094119743
:104930001290179808901698099015980A90149854
:104940000B9022980C9021980DA961C11F9800909E
:104950001E9801901D9802901C9803901B9804903B
:104960001A9805901998069018980790144A0120F3
:10497000010223A8209B05F043F8401EFE2802D820
:1049800023A804F03FFF63B0F0BDC046000D202017
:10499000600C2020740C2020700C2020780C20202B
:1049A000640C20200000C842680C20207C0C2020D1
:1049B000BC0B202000007A44B00C2020800C20206A
:1049C000D3B30000F0B58FB004910546724E01904C
:1049D0002F78F3195B786D1CDB06F9D46F48002142
:1049E000CC43631C0E93034608464B412D2F029483
:1049F00003D02B2F0E94694B02D12978059102E048
:104A00006D1E05970E94242A00DC1046102812D043
:104A1000002831D10A21059A302A1FD16C78202232
:104A20002243782A1CD1A878059030184078800756
:104A300020D40C911BE010200C90059830281CD13C
:104A40006978302020220A43782A11D1A97805916B
:104A50007218527892070BD5AD1C0EE00C910CE049
:104A6000302C02D3382C00D292E008200C90302059
:104A7000059002E0AD1C10200C90039700270E98C3
:104A80001C4619460C9E32463B4605F067FC0990D1
:104A9000089132460B973B4605F056FB0E9A101ACA
:104AA00006908C4107940A2E0A9601D30A200A9098
:104AB0000B990D910E91059F3E46303E0A9A964203
:104AC0000B9C1CD3344AD219507843063B460BD575
:104AD0001E46373EF417002305930C9BF31A23461A
:104AE000059A93413B460AD382063CD5573BDC17D7
:104AF00000221E460C9BF31A2346934133D2099B96
:104B00000E981A1A089F3A468A4118D302465A400C
:104B10000B467B40134304D1069A921B079AA2418D
:104B20000DD300230C9A05F00FFB30180E904C416A
:104B30000D9A511CAA1857780D912146BCE705F033
:104B4000DDFC222101600498002801D00199016058
:104B50000022029B581C11494A41039C2D2C00D075
:104B6000184611D111E0049A002A039C05D00D9E2D
:104B7000002E019B00D0AB1913602D2C0E9803D191
:104B8000002240428A4100E00A4611460FB0F0BDC3
:104B900005946D1C08206FE740B20000FFFFFF7F07
:104BA000F0B58DB007920890002201260B914900C4
:104BB0004F0D5900490D0C91694C651E09977919E3
:104BC000A142314600D31146F7070A971F460B98BA
:104BD00047400C984519A542344600D314465F4D12
:104BE0000A980740214301290AD10C98002800D1D6
:104BF00084E0A8427BD0099800287FD0A84276D0D4
:104C00000096069700260125079A500DD90208182C
:104C10000590D00203903146089C2246334605F0A9
:104C200093FA049007910195EF07059807433846DA
:104C300031462246334605F087FA089005910B98D5
:104C4000C0434949CA4302438A1A02923446744116
:104C500003983146234605F077FA05460B9138460E
:104C6000049F3146029A234605F06EFA3F4A1740E8
:104C70001540079AAA18334673410B9C20187141BE
:104C8000059C00197141089C121958417141099BFA
:104C90000C9CE318CC0221D4354C1B19C40F4900DD
:104CA00009194000D40F0019FC0F520012197D00A1
:104CB0002A4C641EA342069F19DC019C2405002B8C
:104CC00021DD641E21401B050B43194639436B420D
:104CD0000A9C2346934126D2401C2AE0244C1B19EF
:104CE0005B1C1E4C3D46641EA342069FE5DD1D482D
:104CF00007430026394630460DB0F0BD0026314648
:104D000030460DB0F0BD1B4D6940C043002A15DB95
:104D10000843002B009916D0002817D000980028CF
:104D20003146E8D117E06240154303D1019A0240B1
:104D300080187141064630460DB0F0BD019608431B
:104D4000002B0099E8D101990028E7D10091009843
:104D500000283146CFD12743CBE7C046FF070000EC
:104D600002F8FFFF0000F07FFFFF0F0000F8FFFFD9
:104D700001FCFFFFFFFF1F00FEB5074606460121AD
:104D8000C8073D468543EC0D992C07D369488542F9
:104D900017D33046314602F098FC8DE057488542E3
:104DA00013D85C49304602F090FC7F21C90504F01D
:104DB000CFFB0021C9430028029148D0732C46D272
:104DC0007BE0002F18DC5D4E77E04D48854215D81A
:104DD0004F48854227D82846294602F076FC4A49A2
:104DE00002F073FC04460120810705F013FC05F076
:104DF000EBFB0646002029E04F4E5EE0414885422D
:104E00001ED8424905F006FC0446FF2081052846CD
:104E100003F070FC7F21C90502F057FC05F0D4FBBC
:104E20000646022012E00291374905F0F3FB0446E2
:104E30007F20C10505F0EEFB05F0C6FB064606E047
:104E40003148294603F028FD0646032002900197C9
:104E50003046314603F04EFC0446014603F04AFC5E
:104E600007462D4903F046FC2C4902F02EFC014672
:104E7000384603F03FFC2A4902F027FC0146204651
:104E800003F038FC04462749384603F033FC264932
:104E900002F01BFC0146384603F02CFC17498D42FA
:104EA0000DD8214602F011FC0146304603F022FCE9
:104EB0000146304602F004FC06463046FEBD02992B
:104EC0008F001A49CD59214602F0FFFB01461848D0
:104ED000C459304603F00EFC214602F0F1FB314686
:104EE00002F0EEFB0146284602F0EAFB0646019876
:104EF0000028E2D50120C0074640DEE7FFFFDF3E85
:104F0000FFFF973FFFFF1B40000080BF0000C0BFB6
:104F1000FFFF2F3FCAF2497125AC7C3D0DF5113ED4
:104F2000A9AAAA3E4712DABD98CA4CBE5CB70000D7
:104F30006CB700000100807FDB0FC93FDB0FC9BFEA
:104F4000F0B597B015460E46044610A8019011A87A
:104F5000009014A812A90CAA16AB00F0B9F9002809
:104F600002D0012017B0F0BD11A80088C00502D4FE
:104F7000022017B0F0BD0C9804F046FE61210895A0
:104F8000CD05294603F0B6FB0A900D9804F03CFECF
:104F9000294603F0AFFB074605900E9804F034FE57
:104FA000294603F0A7FB09900F9804F02DFE29462F
:104FB00003F0A0FB05460B9003208107384603F061
:104FC00099FB0494044606900A98014602F07DFB82
:104FD0000390099F394603F08DFB0796064620464D
:104FE000294603F087FB314602F06FFB04F0B0FD69
:104FF000FEF7CCFA424A434B05F097FA03F0B0FEB5
:1050000004990860384639463D4602F05EFB064684
:105010000398059F394603F06DFB044630460B9913
:1050200003F068FB214602F050FB04F091FD0446BA
:1050300004913046294603F05DFB06460698394642
:1050400003F058FB314602F03BFB7F21C90502F01B
:105050003CFB04F07DFD02460B462046049900F01F
:10506000CDFA274A274B05F060FA03F079FE07993D
:1050700008600A9D28460B9903F03CFB04463E4617
:105080003846099F394603F035FB214602F01DFBE7
:10509000014602F01AFB04F05BFD0446079130461E
:1050A000314603F027FB06462846294603F022FB3B
:1050B000314602F00AFB06463846394603F01AFB31
:1050C0000146304602F0FCFA06460B98014603F012
:1050D00011FB0146304602F0F3FA04F039FD0246B6
:1050E0000B462046079900F089FA054A054B05F062
:1050F0001CFA03F035FE08990860002017B0F0BDD7
:105100006666666666A64C40F0B5D9B0644800682D
:1051100014906448046800252046294604F00FFADC
:1051200007466149204603F0E5FA3F210906189138
:10513000BF210C06002F214600D0189902F0C5FAB5
:1051400004F09EFD1690594807683846294604F039
:10515000F6F906463846544903F0CCFA002E2146AB
:1051600000D0189902F0B1FA04F08AFD1590504869
:1051700006683046294604F0E2F9074630464A49B7
:1051800003F0B8FA002F214600D0189902F09DFADA
:1051900004F076FD1390474806683046294604F02F
:1051A000CEF907463046404903F0A4FA002F2146C5
:1051B00000D0189902F089FA04F062FD12903E487E
:1051C000007811903D480078109005F07BF90F9021
:1051D00005F07EF90E903A48066830461795294644
:1051E00004F0ADF907463749304603F083FA002F43
:1051F000214600D01899149A150102F066FA04F0BD
:105200003FFD14902E4846683046179904F097F9F0
:10521000074630462B4903F06DFA002F214600D097
:105220001899EA0F0D9202F050FA04F029FD064693
:10523000234887683846179904F081F905463846AF
:10524000204903F057FA002D00D0189C214602F0A7
:105250003CFA04F015FD16990091159901911399E6
:1052600002911299039111990491109905910D9948
:1052700006910F9907910E990891149909910A9630
:105280000B90114A114B0120010219A804F0B8FB40
:10529000401EFE2802D819A804F0B4FA59B0F0BD97
:1052A00080130A40B00C20200000C842CC0C202003
:1052B000940C20209C0C2020FC0C2020000D202091
:1052C000BC0B202000007A44E8B4000000B80000C5
:1052D000F0B58FB0049315460C460590149F159AAF
:1052E0000026F04306903E805B48007807A902F054
:1052F00059FF002802D006980FB0F0BD0194039723
:105300000124200202905548038814200342059F7F
:1053100040D0294600930798000607AE73781B0417
:105320001D18708840BA40190F460860089800069A
:10533000717909040818F18849BA0918796009993E
:105340000906727A12045118728952BA5218BA6058
:105350000A9A1206737B1B049A18F3895BBA9B188E
:10536000FB602B140014091412145B43404349439F
:105370005243181840188018F12109064018610698
:10538000884263D803990888029A1043088010263F
:10539000009B059F580602D43246039C18E007A8DC
:1053A0008119805D00024A788018019C20808878ED
:1053B0000002CA7880186080087900024979401894
:1053C000A08006223243039C2088082101432180CB
:1053D000029D80352B42049E17D007A88118805C5F
:1053E00000021D464B78C018388088780002CB78C0
:1053F000C0182B4678800879000249794018B88097
:10540000921D2088702101432180980718D007A899
:105410008518EC786878C1070AD011490A68002A13
:1054200006D007202040411CA006400F9047687816
:10543000000705D50B480168002901D0A00988475D
:10544000304603F078FF00200FB0F0BD00F074FC90
:105450000020039908804EE71A172020F616202016
:105460001017202014172020FCB40124E407634007
:1054700002E0FCB40124E40708B41D03ED08D60DD6
:10548000354356025F007F0D06D12C00344300D017
:10549000AEE001B0FCBC7047A408254307242402F9
:1054A000FF34A74205D10020190D090501B0FCBC4D
:1054B0007047002B03D50024A61BAC4125000B032D
:1054C000DB08C20D134342024800400D07D11C0007
:1054D000144300D08CE00EBC1000F0BC70470124D7
:1054E0006407234307242402FF34A04205D100208F
:1054F000090D090501B0FCBC7047002903D5002443
:10550000A21A9C412300C11B08D51C002B002500BA
:105510001400320026000024611A3800362925D5EF
:1055200002B4393949420C00203C03D22F008F408D
:10553000374301E03700A740002F01D040210E4340
:1055400002BC20290BD500290ED04C42203420B4B7
:10555000A5402C0020BC0D41CE40361904E00029A6
:105560002E000D4120390E4192196B411C0014434D
:105570003ED00024002B04D5012400218A1A994131
:105580000B00401E52005B41FBD501218902150032
:105590000D400CD0521800277B4101D3401C0BE07A
:1055A0000721C90115000D4001D189008A43072157
:1055B00009028A4352005B41801C19DD0721090260
:1055C000FF31884209D30EBC0020C90F0902FF3108
:1055D000C900C91D0905F0BC7047190B000501433E
:1055E000E40721431805120B104301B0FCBC7047BF
:1055F0000021002001B0FCBC7047FEE7F0B585B08B
:105600001E46054602920390504B514F04963E4071
:10561000501E1446844134439C4207D80F40681EF4
:105620002C4684413C434948844208D90398029A55
:10563000049BFFF71EFF0C46214605B0F0BD454810
:10564000049B181810431AD00C46C90FD80F4000FD
:10565000019141183D4316D032431CD03B4886424D
:1056600017D187421DD1424C3C48C0467944097944
:1056700049008F4401023B60DEE7414CDCE70398C0
:10568000FEF7DEFAD7E702290398D5D3032918D00D
:1056900015E0874218D10120C00704402E48241885
:1056A00010E000242046C0467944097949008F441F
:1056B00001020608C0E700200121CC07BCE72A4C04
:1056C00000E02A4C2548B7E7B81B00153C2803DD4D
:1056D000214C2248019918E0002B09D500253B22D6
:1056E000D243904204DA28462C460EE0234C23E0B5
:1056F00003980D462146029A04F04EFF0122D2077C
:105700009143FEF79DFA0C462946002994D00229C0
:1057100005D0012912D10121C9074C408CE7104A5C
:10572000104B2146FFF7A5FE02460B460B480E49DB
:10573000FFF79AFE7FE70F4C0F487DE7084A094BB9
:105740002146FFF796FE054A084B72E70000F07FFE
:10575000FFFFFF7F000010C0FB21F93F182D4454CC
:10576000075C143326A6A1BCFB210940FB2109C01C
:10577000FB21E93F7CD902C0D221337F7CD9024092
:10578000FB21E9BFF0B585B005460022D4431920BE
:105790008001814200D992E00720284000D18EE0AC
:1057A0000292084604F098FC464903F075F8064654
:1057B00003AF384604F002FB3878411E02464A40E7
:1057C0008A4200D87BE0002807D0414201403E4891
:1057D0004843C00E3DA1085C00E02020401E032885
:1057E0006DD80194414F8D21C905C0467844007998
:1057F000400087440C0105093F4F2320410606E085
:105800003C4F8B20C10502E0394F45200106304650
:1058100002F070FF04463046394602F06BFF04F098
:105820002FFA0746204604F02BFA010A04AA117049
:105830005070380A961C9070D770E807019C05D10B
:10584000A80715D468071FD4029C38E049208700B8
:105850003846B030022104AA03F03AFC00282ED1C9
:1058600002213846324603F033FC002827D1E7E70F
:10587000492084002046B430022104AA03F028FC09
:10588000002814D0019C1AE0492085002846B83031
:10589000022104AA03F01CFC002810D108350221C3
:1058A0002846324603F014FC002808D1CCE7201D1E
:1058B0000221324603F00CFC0028019CC2D0204695
:1058C00005B0F0BD0000484331B57C0700011C0263
:1058D0001D0E18031E16140F191104081F1B0D1797
:1058E000151310071A0C12060B050A090000404692
:1058F0000000C044000040450000C045F0B585B040
:105900000D460446C8434000400D0CD120462946B0
:1059100022462B4604F009FE22462B46FFF7A9FD3E
:1059200004460D4695E04D49002D04DD4C482915EF
:105930000FD02E4623E028460840204300D188E0BF
:10594000002DF3D504F0DAFD21210160474D00243C
:105950007FE00021002D03D11539E50A6405F9E740
:105960000023421C154202D16D005B1CF9E7C91AE5
:10597000491C2022D21A2646D6402E439C40394A42
:10598000891806408019401C0091C90703D0E10F17
:10599000400040186400E10F40004618002201203A
:1059A0000290400503926400002811D08718F31B71
:1059B000314600DB19463D18039B1B18B74200DC3B
:1059C0002A4600DC03934900E30FCE184008EAE7BB
:1059D0002248471C00250495002F23D00498C319A2
:1059E000964215DD01950025002B029900D4294629
:1059F000D81904900028029800DA28460140B61A07
:105A00009C4200D2761E019D5218E41AED1903E063
:105A100002D19C42E6D23246E00F71000E186400BB
:105A20007F08D9E7344309D0681C03D001202840FF
:105A3000451903E00398401C03900025039A501079
:105A40006908D20754180099490809050818064939
:105A500045182046294605B0F0BDC046FFFFFF7F30
:105A6000FFFF0F0001FCFFFF0000E03F0000F87F98
:105A7000F0B58BB014460391564F06463378F918AB
:105A80004978761CC906F9D4242C00DD00240125B0
:105A90002B2B02D02D2B02D10025337800E0761E6F
:105AA000102C10D0002C2BD10A24302B28D1737845
:105AB00020211943782916D1B378F9184978890734
:105AC00017D430231CE01024302B19D173783021E7
:105AD00020221A43782A04D1B378FA185278920710
