:100000000080202071EA0000F3A50000F3A50000A5
:1000100000000000000000000000000000000000E0
:10002000000000000000000000000000F3A5000038
:100030000000000000000000F3A50000D1BD00009A
:10004000F3A5000057E90000F3A50000F3A50000A8
:10005000F3A50000F3A50000F3A50000F3A5000040
:1000600000000000F3A50000F3A500000000000060
:1000700000000000A9E90000B1E90000A1E90000CA
:10008000F3A50000F3A50000F3A50000F3A5000010
:10009000F3A50000F3A50000000000000000000030
:1000A000F3A50000F3A50000000000000000000020
:1000B000F3A5000000000000F3A50000F3A5000078
:1000C000F0B5C7B005460127A7490CF001FF00288D
:1000D00029D0A64928460CF0FBFE00282AD0A449C6
:1000E00028460CF0F5FE002857D0A24928460CF00F
:1000F000EFFE002867D0A04928460CF0E9FE002852
:1001000070D09E4928460CF0E3FE002800D184E020
:100110009B4928460CF0DCFE002800D1C7E013976D
:100120000020984911E005F0C5F80346964A18AD3D
:10013000302152E00EF0F0FB0346944A18AD38210E
:100140004BE0C01C012A00D1DEE02A5C0B5C9A4225
:1001500000D0B2E0002A00D1D6E02A180B18567859
:100160005C78A64200D0A8E00446093C674267419B
:10017000002E139E00D03E46002E00D0C4E09278A0
:100180009B789A4200D098E00446083C6342634161
:10019000002A139AD5D01A46D3E705F08BF8054606
:1001A0000DF052FE0107C90F4207D20F8307DB0F84
:1001B000012606400006400F00AC4EC40490744A6D
:1001C00018AE6021C5E038A817A90DF091FB389B47
:1001D000179800906F4A18AD502128460DF010FF77
:1001E0002846BBE005F066F805460EF0EDF900285C
:1001F00000D1ABE00AF0FEF9002800D1B0E0664C77
:10020000664D67480DF0FAFD38A818301190ED1CC6
:10021000002012906026139715E205F04BF8054672
:100220000EF0D2F9002800D190E00AF0E3F900289E
:1002300000D195E013975948C51C002660271296F7
:10024000554C02E07F1E00D13AE33C3538A93C22F0
:10025000284608F049FB002800D1FEE238A80178C2
:10026000A529EFD180790128ECD138A84088002851
:10027000E8D038A98A88002AE4D03A9B494959181D
:10028000A142DFD33B99424350008142DAD1581852
:100290001430424A9042D5D201200003081813308E
:1002A0004149084086191298401C1290CAE73F48FD
:1002B0000078012839D13E4850E000203D49139F85
:1002C00003E0C01C012A00D198E12A5C0B5C9A4231
:1002D00000D064E1002A00D190E12A180B1856786A
:1002E0005C78A64200D05AE1002E00D186E19278D7
:1002F0009B789A4200D052E1841F63426341002AF6
:100300003A46DED01A46DCE70B352B4938AA284698
:100310000EF08EF8012800D080E13898FE2800D930
:100320007CE10AF093FB139F1AE004F0C3FF05463B
:100330000EF04AF9002809D00AF05CF900280FD025
:1003400013971648C61C002760203DE01B4A18AED4
:10035000402130462B460DF053FE30460DF04EFD49
:10036000384647B0F0BDC046D4310100ED2F010042
:1003700083310100C03001008C3101009531010052
:10038000EC300100B4300100E32D01006B2C0100C2
:10039000D8280100582A0100001081FF01007F00C9
:1003A000B02D0100000081FF00F0FFFFA8332020E6
:1003B000232F0100203101009D320100C02A0100DD
:1003C0001298001F00D112E3129030463C3038A939
:1003D0003C252A4608F088FA002800D13DE238A8DA
:1003E0000178A52929D18079012826D138A840880B
:1003F000002822D038A9898800291ED03A9A884B33
:10040000D318884CA34218D33B9B414348008342F6
:1004100013D1D0181430844988420ED238467F1C3C
:10042000C0B245438148441938A92CC92CC42DC9F0
:100430002DC42DC92DC42DC92DC43046783038A9FE
:100440003C252A4608F050FA002800D105E238A8D9
:100450000178A5292AD18079012827D138A8408898
:10046000002823D038A9898800291FD03A9A6C4BDC
:10047000D3186C4CA34219D33B9B414348008342A1
:1004800014D1D0181430684988420FD2781C1190CA
:10049000F8B245436548401938A92CC92CC0ACC9ED
:1004A000ACC0ACC9ACC0ACC9ACC0119F3046B43014
:1004B00038A93C252A4608F017FA002800D1CCE1DB
:1004C00038A80178A52929D18079012826D138A812
:1004D0004088002822D038A9898800291ED03A9A5D
:1004E0004F4BD3184F4CA34218D33B9B414348007A
:1004F000834213D1D01814304B4988420ED238466B
:100500007F1CC0B245434948441938A92CC92CC4A2
:100510002DC92DC42DC92DC42DC92DC4F03638A91F
:100520003C2230460B9208F0DFF9002800D194E11C
:1005300038A80178A52900D042E78079012800D0A9
:100540003EE738A84088002800D139E738A98988D3
:10055000002900D134E73A9A314BD318314CA342E9
:1005600000D22DE73B9B41434800834200D027E760
:10057000D01814302C49884200D321E77C1CF8B2F3
:100580000B9948432949081838A92CC92CC0ACC973
:10059000ACC0ACC9ACC0ACC9ACC0274610E70020A9
:1005A000234903E0C01C012A00D179E12A5C0B5CDD
:1005B0009A4200D053E1002A00D171E12A180B18A9
:1005C00056785C78A64200D049E104460C3C67426C
:1005D0006741002E139E00D03E46002E00D05FE102
:1005E00092789B789A4200D039E104460B3C6342F2
:1005F0006341002A139AD5D01A46D3E709350D492D
:1006000038AA28460DF014FF012800D056E138988A
:10061000FE2800D952E10BF039FFA1E60648B1E10E
:10062000000081FF001081FF01007F0000002020FA
:10063000322F01009D320100F42D0100139FF34C75
:10064000361F00D14BE128463C3038A93C2208F047
:100650004BF9002800D1FEE038A80178A52933D154
:100660008079012830D138A8408800282CD038A9BA
:100670008988002928D03A9AE54BD318A34223D37E
:100680003B9F0B4643435B009F421BD1D31914335E
:10069000E04CA34216D238AB5B7810933C9B119C84
:1006A000009401AC83C40493059218AF80213846AE
:1006B000D94A109B0DF0A4FC38460DF09FFB129810
:1006C000401C1290139FD14C2846783038A93C2208
:1006D00008F00AF9002800D1BDE038A80178A52962
:1006E00033D18079012830D138A8408800282CD017
:1006F00038A98988002928D03A9AC54BD318A34233
:1007000023D33B9F0B4643435B009F421BD1D3192E
:100710001433C04CA34216D238AB5B7810933C9B89
:10072000119C009401AC83C40493059218AF8021FE
:100730003846B94A109B0DF063FC38460DF05EFB5D
:100740001298401C1290139FB04C2846B43038A920
:100750003C2208F0C9F800287DD038A80178A529E6
:1007600033D18079012830D138A8408800282CD096
:1007700038A98988002928D03A9AA54BD318A342D2
:1007800023D33B9F0B4643435B009F421BD1D319AE
:100790001433A04CA34216D238AB5B7810933C9B29
:1007A000119C009401AC83C40493059218AF80217E
:1007B0003846994A109B0DF023FC38460DF01EFB7D
:1007C0001298401C1290139F904CF03538A93C228F
:1007D000284608F089F800283DD038A80178A529D6
:1007E00000D02DE78079012800D029E738A840887B
:1007F000002800D124E738A98988002900D11FE703
:100800003A9A834BD318A34200D219E73B9F0B4679
:1008100043435B009F4200D010E7D31914337D4C53
:10082000A34200D30AE738AB5B7810933C9B119C42
:10083000009401AC83C40493059218AF802138461C
:10084000754A109B0DF0DCFB38460DF0D7FA129874
:10085000401C1290F2E6714880E5704892E000205A
:100860006F49139F02E0C01C012A70D02A5C0B5C08
:100870009A423AD1002A6AD02A180B1856785C7826
:10088000A64232D1002E62D092789B789A422CD127
:10089000841F63426341002A3A46E4D01A46E2E7E5
:1008A0000E35604938AA28460DF0C2FD012868D1EE
:1008B00038A800780DF0D4FD139F51E55A484DE556
:1008C0005A4B981B1299C9B2009601900291584A4E
:1008D00018AD602128460DF093FB284652E012988F
:1008E000C3B2544A18AD802177E4002252491292D3
:1008F00002E0D21C012B4BD0AB5C885C834245D11B
:100900001046093846424641002B384600D0304652
:1009100000283DD1AB188E185F787078874235D1AA
:100920001446083C60426041002F139F00D00746E8
:10093000002F139F2CD19B78B078834226D1D41FEF
:1009400060426041002B3B46D3D00346D1E70935D6
:1009500014A8029015A8019016A80090374918AA6B
:1009600017AB28460DF064FD05282AD117A8028888
:1009700016A803881598149900900191FF2018A9D2
:1009800032E029480DF03AFA139FE9E4129FE7E4B8
:100990000A3514A8029015A8019016A80090FB49EA
:1009A00038AA17AB28460DF043FD389BFE2B01D823
:1009B000002100E001210528384600D10846012821
:1009C00001D1F448CAE4F24A18AD102128460DF0CE
:1009D00017FB38A8007817A90A8816A90B8815995B
:1009E000149C00910194294603F0DAF8B8E4380623
:1009F00000D1B0E1F9B20F97B81E069001200C901B
:100A00000022E6480A901046089124E0001081FF79
:100A1000000081FF01007F0010280100812C0100EF
:100A20003E3101009D320100D82E010000F07E0011
:100A300080290100742B0100CB300100FB2C010048
:100A40000C98401C0C900A983C300A900899099820
:100A5000884200D106E1421C09928A42F0D20699EE
:100A6000091A0B9A5043CD4A1618CAB2AB20079206
:100A70005043400A03224243881A401CC1B200225C
:100A80000D92032900D00D900C9A129664D0002488
:100A90000A9F0C9A04E0921CA41CE0B2A8425BD00E
:100AA0007B6CB568AB4210920E9423D23D463C3528
:100AB00018AE1197129F334616CF16C317CF17C320
:100AC00017CF17C317CF17C3129829461CC91CC0CC
:100AD0009CC99CC09CC99CC09CC99CC0119F0E9C79
:100AE00007CE07C50FCE0FC50FCE0FC50FCE0FC552
:100AF000109A129E01202043C0B20D99CDB2A84297
:100B000029D0802038587837B1688842C3D218ABD2
:100B10003046194654C854C11197D4C8D4C1D4C85A
:100B2000D4C1D4C8D4C11298119954C954C0D4C9DD
:100B3000D4C0D4C9D4C0D4C9D4C0119F384616CBB0
:100B400016C056CB56C056CB56C056CB56C00E9C80
:100B5000109A129E9FE7521C0798022800D26FE756
:100B60000B9850438D490F18D01C08E0B437D0B211
:100B70000F99C9B2D21C8142104600D160E7109093
:100B8000B968B268914211971ED218A90A46334635
:100B9000B0CBB0C2B1CBB1C2B1CBB1C2B1CBB1C29B
:100BA0001198324638C838C2B8C8B8C2B8C8B8C236
:100BB000B8C8B8C2119F38461CC91CC03CC93CC04B
:100BC0003CC93CC03CC93CC0786CB168884220D26A
:100BD00039463C3118AA30461346B0C8B0C3F0C8F5
:100BE000F0C3F0C8F0C3F0C8F0C312980B4670CB46
:100BF00070C0F0CBF0C0F0CBF0C0F0CBF0C0119FD4
:100C0000129E19CA19C139CA39C139CA39C139CA7A
:100C100039C180203858B1688842109AA6D2394626
:100C2000783118AA1046334670CB70C0F0CBF0C0B4
:100C3000F0CBF0C0F0CBF0C012980B4670CB70C078
:100C4000F0CBF0C0F0CBF0C0F0CBF0C0119F129E03
:100C500019CA19C139CA39C139CA39C139CA39C1E0
:100C6000109A83E74E4D0120109006034D480DF079
:100C7000C5F808990022494B174611960B987843FE
:100C8000181884680E90C0681294A64253D00C972E
:100C90000D920A900446143444D03F48401EA519D2
:100CA000854256D8002E54D01199129A8A4250D3B8
:100CB0001299611881424CD8AE4237461AD2384652
:100CC00008F090F9002844D011983F18AF4211D293
:100CD000384608F087F900283BD011983F18AF42FA
:100CE00008D2384608F07EF9002832D011983F1813
:100CF000AF42E4D30025671BFF2F01D910980702EC
:100D00001298281828493A4607F0EEFD002820D00E
:100D1000A81925493A4605F001FD002819D07D198A
:100D2000A542E8D30E9886600D9A521C08991C4D76
:100D30001A4B0C9F0A98119C2018133028408619D2
:100D40001548401E86421ED87F1C8F4296D1D5B2D0
:100D500009E0164816E60F970120060311480DF02A
:100D60004DF800250895139F0F98C0B208F03CFC81
:100D7000002805D00898009001960F4AFFF720FA46
:100D80000C48FFF7EBFA0A48FCE5C046D22D0100FB
:100D9000173201007D2F010001007F00000020209C
:100DA00000F0FFFFD12B0100002D2020E72B0100D8
:100DB000BA2B0100582E0100DD290100F0B5F3B077
:100DC00007930592799A0E92789E0025EF437090D2
:100DD000139112950878A84C20184378D80628D586
:100DE00013984A1CDB0606D5481C117861184B780D
:100DF000521C0146F6E7139070A8B0470446401C09
:100E000001D100F0FAFD0DF0B6FD9B4800194078C5
:100E1000C00603D570A8B0470446F4E770A80DF0EB
:100E20000AFE1298401E1290601C934C01D100F0F3
:100E3000E4FD01200A9054A801466C310C91014652
:100E40000C3103910D30009014A8401C01900B95BB
:100E50000D971196029554A870210DF058FC5597E6
:100E600070A813A912AA079B98470128109522D0B1
:100E7000002801D100F0A7FD401C029B01D100F029
:100E8000A4FD0F93274670A8B0470DF050FD381908
:100E90004078C006F7D4374670A80DF0CCFD129804
:100EA000411E1291601C39D10029109D0F9A01D169
:100EB00000F087FDB1E01398471C13974178002696
:100EC0002A2935460BD101255495871C139706E036
:100ED000B819401C1390B85D71A98855761CBC5D8B
:100EE000204630380928F3D971A800210F91815587
:100EF0000078002803D071A80DF0EAF855904C2C2A
:100F00002FD0682C20D06A2C0BD06C2C10D0742CD5
:100F10000AD07A2C16D10120000307E0109D0F9A09
:100F20007BE00120C00201E0012040032D1819E000
:100F3000B919481C13904A786C2A4F4C18D10120DB
:100F400000020AE0B81910E0B919481C13904A7859
:100F5000682A494C0ED1012040022D185495881C56
:100F60000AE080355495B819401C119E424C04E0AB
:100F7000403500E020355495119E411C13910378B3
:100F80000C9A13705B2B28D10A785E2A05D10221B6
:100F90000D435495811C139182785D2A06D1481C1B
:100FA0001390097854AA1173009901E00846039937
:100FB0000F9D0278002A09D05D2A07D0421C1392A7
:100FC00000784B1C087010461946F2E70D705D2A38
:100FD00001D1401C13900C98037818465B381328F5
:100FE00000D94EE7012181402448014200D148E761
:100FF00031461E4670AC20460F46884705462046BF
:101000000DF016FD1299681C05D10029109D32467D
:1010100003D100F0D6FC109D324609911046583895
:1010200020284CD83E460D9F4000C046784480881A
:10103000400087445301260326031C012603260390
:1010400026032603260351002603CE002500510067
:1010500051005100260325002603260326032603FC
:1010600029032500250026032603CE00260325009C
:10107000260326032500C046902301000101080035
:101080001746559C70A8B04721460DF050FC14AD92
:10109000002934D014AD2D2C02D02B2C00D0B2E07E
:1010A00014A8047070A80C46B04721460DF03FFC10
:1010B000491EF64A00D1D3E00891019DA5E01046F3
:1010C000413806283E460D9F00D990E0012181401D
:1010D0007120014200D18AE0559D70A8B0470446B6
:1010E00014AB401C09D00DF046FC2B2C09D114ABDD
:1010F000002D0BD12B24002513E03C4611E00027E6
:10110000B0E014AB002D0CD02D2C0AD114A8047023
:1011100070A8B0470446401C01D00DF02CFC6D1E99
:10112000019B204661381A2801D3204601E0204661
:1011300020384928E24F109703D04E282AD1E14F9A
:1011400010970026B5421BD01098805D002816D05D
:10115000214661391A2901D3214601E0214620396F
:1011600081420CD11F469C5570A8119988470446AE
:10117000401C01D00DF0FFFB761C3B46E2E73546F4
:10118000E81E41424141083D6842684108431090D1
:101190009D1964E20022002D5CD0302C5AD10F92B0
:1011A00030201F46187070A8B0470446401C01D07C
:1011B0000DF0E1FB7B1C681E00220121109100282C
:1011C00000D1AAE1214661391A2900D2A8E12146BD
:1011D000A8E154990125084628404906174676D4C7
:1011E000002800D00EE1059810C805900BE1252AD3
:1011F00000D046E270A8B047252801D000F000FCDE
:101200000DF0B9FB40E20891AC4A00203B46115C6E
:101210008B4204D0401C0728F9D1002000E01018B0
:10122000801A012813D1302C5CD10F9570A8109032
:10123000B047054610980DF0FBFB20208543583D34
:10124000109501D0082010903B460F9D4CE09E4920
:10125000085C48E01946109204920A9808907CE1D4
:101260000027019D3A4638460A990F9162E0559F42
:101270005498022101400F9114AC002F00D148E195
:1012800070A8B0470546401C089000D1B1E010940A
:101290002C46E8B2002303990E7886420A4600D015
:1012A0001A46491C002E1346F6D10F9B594259414C
:1012B000531E9A419142119E2546109C00D098E001
:1012C000611C20700DF057FB7F1E0C46D5E70028EF
:1012D00000D09DE0059810C805909AE078220C98FF
:1012E0000270CDE60A20109018466938C0B2102866
:1012F00001D3002100E00121EA4FC7400F406F2BCE
:1013000006D1302C0AD000200A990F91089A11E0DA
:1013100020463038414241410F42F4D028466D1CEE
:10132000047070A8B0470DF002FB089A521E00200E
:101330000F900A98002F24D0002A22D0002820D015
:1013400020202146814358291BD1089270AF38468E
:10135000B047014638460F460E9A9047E148C019FB
:101360004078800701D4089A0BE02C7070A8B04731
:101370000DF0DDFA089A521E00D138E36D1C1020E2
:1013800010900A9F002A23D01098082804D1072023
:101390002146814330290ED010980A2803D12046D7
:1013A00030380A2807D31098102811D1CD480019D9
:1013B000407880070CD56E1C2C7070A811991446CB
:1013C000884722460DF0B3FA521E00273546D9E76A
:1013D00070A80DF030FB1298401E1290002028706B
:1013E00005460F98384001280D9F119E00D04BE113
:1013F000F5E270A80DF01CFB12980999814200D00B
:1014000087E004E300245598002841D4054640E0D5
:1014100000245598002800D40546632A00D00546CC
:1014200070A8B04701460DF0A6FA632F05D1481EFB
:101430000222D24390420FD917E0481C022801D360
:10144000002000E00120A74A52185278D2060A9ADA
:1014500000D40246002A08D1002D06D0002C01D06D
:1014600002C400E000246D1EDAE770A80E9A9047CF
:101470001298401E12900999814200D1B7E2732F51
:1014800049D1002C47D00020206044E051280100C1
:101490000125632A00D0054670A8B04701460DF02B
:1014A0006AFA632F05D1481E0222D243904217D90F
:1014B00021E0481C022809D3002008E0512801003F
:1014C0007A31010095320100483201000120854A3D
:1014D00052185278D2060A9A00D40246002A0AD13B
:1014E000002D08D0002C03D0601C2170044600E0C1
:1014F00000246D1ED0E770A80E9A90471298401EE7
:1015000012900999814200D171E2732F03D1002C0E
:1015100001D0002020700D9FB6E00492154618E01F
:1015200021462039582912D17C7070A8119988471A
:101530000446401C01D00DF01EFABA1CAD1E00205E
:101540000A9904911146109008900F9A05E00492B0
:1015500005460A9808900F9A1946069216460F9566
:10156000002D0D466ED02B2C39D02D2C37D02E2CA3
:101570002FD0452C01D0652C0BD10898002846D0DF
:10158000109800285ED0002A5CD1012007461090F8
:101590004AE020463A380A21C943884229460CD8F5
:1015A000049800284ED04F4800194078800704D492
:1015B000202020437028E3D044E02B2C0FD02D2C8A
:1015C0000DD0702CDCD0502CDAD0652CD5D02E2C40
:1015D0001DD10698104335D10120069023E00898CC
:1015E000002808D0481E007820210143652929469B
:1015F00001D1174618E00498002823D0481E00782F
:101600002021014370291DD1174629460CE0002AEC
:1016100007D0204630380122092813D8174616462D
:1016200002E00120109000270C7070A811998847E3
:101630000446401C01D00DF09EF9691C0F9D6D1EE3
:101640003A468CE71099481E81411091701E8641E0
:10165000002A0A9800D030461099014010910D9F41
:1016600070A80DF0E8F9601C02D01299491E129181
:1016700000212970129A099B9342119E109D00D15E
:10168000A8E1012D00D0B3E10C98017801250846AE
:101690005B381D283ED804A2124C4000105A40006E
:1016A0008744C046818000002400220022002200DE
:1016B0002200220046002200570146004600460054
:1016C0004600220046002200220022002200A30041
:1016D0004600460022002200570122004600220058
:1016E0002200460090230100FFF7B5FB5499C8077C
:1016F00001D0FFF7B0FB05980068490600D5C8E0A7
:1017000014A94A1C0978431C017000291846114687
:10171000F7D1C7E0084641380628BF4C01D9FFF78A
:101720009AFB012282407120024201D1FFF793FB14
:1017300014A80078002800D10BE15498C20700D00B
:1017400007E10B46613B172B3AD800229B0002A40D
:10175000E358B14C9F46C046D5170000531900000E
:101760005319000067180000D5170000D5170000B6
:10177000D517000053190000691800005319000024
:1017800053190000531900005319000053190000A9
:10179000B91700008B1800005319000053190000FE
:1017A0005319000053190000B91700005319000025
:1017B00053190000B917000078293FD008223EE0F5
:1017C0004139062900D9C4E001228A4071210A4228
:1017D00000D1BEE0C021084080281ED0402826D17C
:1017E00014A8002104F0C2FD1BE05498C10701D0E9
:1017F000FFF731FB89490840411E02464A408A42B0
:1018000000D894E0002800D183E0414201408448A0
:101810004143C80E83A1085C7CE014A8002104F0B9
:10182000A5FD059B04CB05931060516091E014A8C1
:10183000002104F09BFD0BF033FE87E01022752998
:1018400000D10A2275490840411E03464B408B4295
:1018500042D900282ED04142014071484143C80E70
:1018600070A1085C27E00A226C490840411E03462B
:101870004B408B4248D9002833D041420140684850
:101880004143C80E67A1085C2CE014A80021102277
:1018900024E014A90A78002A02D0491C04C0F9E700
:1018A000002101600598001D05900B98401C0B90CD
:1018B000FFF7D1FA2020401F08280DD8784400797E
:1018C00040008744580909045D09043A3A0014A805
:1018D000002109F007F8A4E714A8002109F0E4FDAD
:1018E00034E02020401F08280ED8C04678440079F4
:1018F000400087444A09090452090427270014A814
:10190000002107F061FF8CE714A8002109F0F4FB27
:101910001CE02020401F082809D8C04678440079E0
:10192000400087444204041F48041F040400129826
:101930000DF032F80860FFF78EFA14A8002108F0C5
:10194000D1FF03E014A8002107F03EFF0DF024F8BA
:10195000086054980125294681430B9808180B907C
:10196000FFF779FA1298C117059B04CB0593106015
:101970005160FFF770FA14A8002109F095FD08E006
:1019800014A8002109F090FD0BE014A8002109F033
:10199000B3FB0DF001F80880DBE714A8002109F083
:1019A000ABFB0CF0F9FF0870D3E712980CF0F4FFD2
:1019B0000880FFF750FA12980CF0EEFF0870FFF75E
:1019C0004AFA0D9F19E00B9F17E00B98002814D0DE
:1019D000074612E0002800D121460D4608E0129883
:1019E00009994140E043084302D1ED4300E00D9DD9
:1019F0000B98002800D005462F46384673B0F0BD3E
:101A0000054670A80DF014F8681CF1D002E00898A3
:101A10000028EDD00025EBE790230100603F000097
:101A200031B57C0700011C021D0E18031E16140F91
:101A3000191104081F1B0D17151310071A0C120695
:101A40000B050A09F0B5CFB002480078012803D091
:101A500000F060FD9A3320204CA80BF0B7FB002863
:101A600001D100F057FD01201B904C98FB4C0990D0
:101A700021460BF09DF906464D980A9021460BF041
:101A800097F905464E98F6490B900BF091F90446EC
:101A9000304608F073F81390304608F05BF9129066
:101AA000284608F06BF81590284608F053F9149072
:101AB000204608F063F80546204608F04BF9074633
:101AC0001090002428460D9521460AF05EFA06463D
:101AD000384621460BF06CF931460AF056FA16905A
:101AE000139821460BF064F906460E9028462146CD
:101AF0000BF05EF9119031460AF047FA0746109E46
:101B00003046129D29460BF053F939460AF03DFA4A
:101B10001A901B98C707284639460BF049F9014629
:101B2000089011980AF031FA19903046139D294611
:101B30000BF03EF919990AF028FA19902846214627
:101B40000AF023FA0646129D284621460C940BF013
:101B50002FF931460AF019FA1790204629460AF063
:101B60000FFA01460E9E30460AF00FFA18902046F2
:101B7000109C21460AF004FA014611980AF005FA71
:101B80000F90204639460BF013F9054631460AF00E
:101B9000FCF906460D9C204612990BF009F93146D6
:101BA0000AF0F3F90E90284608990AF0EEF9054676
:101BB000204613990BF0FCF829460AF0E6F910903C
:101BC000149E304639460BF0F3F8054615981699E1
:101BD0000BF0EEF829460AF0D8F905460F980C9C50
:101BE00021460BF0E5F80D9029460AF0CEF9139046
:101BF000179831460BF0DCF80546159E30461A99C9
:101C00000BF0D6F829460AF0BBF905460E98214696
:101C10000BF0CEF8089029460AF0B7F91290189800
:101C200014990BF0C5F80546304619990BF0C0F829
:101C300029460AF0A5F90646109821460BF0B8F897
:101C4000079031460AF0A1F91190159D28462146CA
:101C50000BF0AEF80646149C204616990BF0A8F837
:101C600031460AF092F901460D980AF08EF90D906E
:101C7000284617990BF09CF8064620461A990BF057
:101C800097F831460AF081F9014608980AF07DF983
:101C90000890284618990BF08BF8064620461999AB
:101CA0000BF086F831460AF070F9014607980AF001
:101CB0006CF9159016980C9C21460BF079F821468A
:101CC0000AF063F901460F980AF05FF9064614908E
:101CD000179821460BF06CF805461A9821460BF030
:101CE00067F829460AF051F901460E980AF04DF9B5
:101CF0001790189821460BF05BF805461998214675
:101D00000BF056F829460AF040F9014610980AF0FF
:101D10003CF916900D9821460BF04AF805460F90B5
:101D2000139821460BF044F8109029460AF02DF93B
:101D3000014630460AF029F91A90089E304621469D
:101D40000BF036F805460E90129821460BF030F84D
:101D5000069029460AF019F9014617980AF015F974
:101D60001890159821460BF023F805460790119816
:101D700021460BF01DF8059029460AF006F90146A8
:101D800016980AF002F9199010980D990AF0FDF8CA
:101D90000546149821460BF00BF80D9029460AF0E1
:101DA000F4F81490069831460AF0EFF806461798B2
:101DB00021460AF0FDFF179031460AF0E6F8109030
:101DC000059815990AF0E1F80546169821460AF09B
:101DD000EFFF064629460AF0D8F815900F98139998
:101DE0000AF0CEF801460D980AF0CFF804460E9896
:101DF00012990AF0C5F8014617980AF0C6F8054688
:101E0000079811990AF0BCF8014630460AF0BDF86F
:101E1000024614480178012911920F9536D11248D3
:101E200000680E90114800681690114800680890EC
:101E3000104800680D90104801681048006807902D
:101E40000F48006812900F48006817900E4800680D
:101E50000C9026462846154644E0C04635FA8EBC0E
:101E600035FA8E3C8E332020703220207C322020A8
:101E70008832202074322020803220208C32202092
:101E800078322020843220209032202065491A9810
:101E900008606549189808606449199B0B6064499B
:101EA0001498086063492646109C0C606249159A94
:101EB0000A6062490E6062490D60624911980860CB
:101EC0001B99614D29700C900546179212930F9A39
:101ED0000792214618980D900896149816901A9813
:101EE0000E90104605910AF063FF044606963046B0
:101EF00016990AF05DFF21460AF047F80446284685
:101F000017990AF055FF21460AF03FF805464F4C55
:101F100021460BF056FE13907F20C6052846314619
:101F20000BF06AFE002800D12E461398002800D13D
:101F30003446204608F03CFE139007F01FFEB843DD
:101F400043490BF059FE002800D185E00F9D28463B
:101F500007990AF02DFF0446069E304608990AF0BC
:101F600027FF21460AF011F80446119F38460C99C4
:101F70000AF01EFF21460AF008F80C9028460D9939
:101F80000AF016FF044630460E990AF011FF21466A
:101F900009F0FBFF0446384612990AF009FF214672
:101FA00009F0F3FF12901098059F39460AF000FFE0
:101FB00005461498169C21460AF0FAFE294609F0B7
:101FC000E4FF05461598179E31460AF0F1FE2946B2
:101FD00009F0DBFF0546189839460AF0E9FE074686
:101FE0001A9821460AF0E4FE394609F0CEFF07466A
:101FF000199831460AF0DCFE394609F0C6FF07465B
:102000001B98C607129870400C9909F073FB1A9040
:1020100077403846294609F06DFB0E490AF0C8FEA4
:10202000074649E070322020743220207832202088
:102030007C322020803220208432202088322020D0
:102040008C322020903220208E332020000080BF50
:1020500017B7D138E02E65C2189D284607990AF0B7
:10206000A7FE04461A9E304608990AF0A1FE2146B2
:1020700009F08BFF044619980C990AF099FE214645
:1020800009F083FF044628460D990AF091FE0546A3
:1020900030460E990AF08CFE294609F076FF054677
:1020A000199812990AF084FE294609F06EFF01463C
:1020B000204609F01FFB1A90C94913980AF078FED0
:1020C0000446C8490BF098FD00281FD0C64DC54EE8
:1020D0002046294609F059FF044631460BF08CFD95
:1020E000002813D02046294609F04FFF0446314608
:1020F0000BF082FD002809D02046294609F045FF53
:10210000044631460BF078FD0028E1D1B74920465E
:102110000BF057FD00281FD0B54DB44E2046294680
:1021200009F033FF044631460BF04BFD002813D075
:102130002046294609F029FF044631460BF041FDAF
:10214000002809D02046294609F01FFF04463146E1
:102150000BF037FD0028E1D1EF4938460BF04CFD7C
:1021600000281FD0ED4DEC4E3846294609F00DFFF2
:10217000074631460BF040FD002813D0384629466B
:1021800009F003FF074631460BF036FD002809D061
:102190003846294609F0F9FE074631460BF02CFD7A
:1021A0000028E1D1DE4938460BF00BFD00281FD096
:1021B000DC4DDB4E3846294609F0E7FE074631463E
:1021C0000BF0FFFC002813D03846294609F0DDFE4D
:1021D000074631460BF0F5FC002809D03846294661
:1021E00009F0D3FE074631460BF0EBFC0028E1D1A5
:1021F000CD491A980AF0DCFD0546C7490BF0FCFCF6
:1022000000281ED0C44E2846C44909F0BEFE05462B
:1022100031460BF0F1FC002813D02846BF4909F0E5
:10222000B4FE054631460BF0E7FC002809D02846ED
:10223000BA4909F0AAFE054631460BF0DDFC00283C
:10224000E1D1B74928460BF0BCFC00281ED0B44EA3
:102250002846B44909F099FE054631460BF0B1FC19
:10226000002813D02846AF4909F08FFE05463146B5
:102270000BF0A7FC002809D02846AA4909F085FEE2
:10228000054631460BF09DFC0028E1D1A7480178B6
:10229000002900D1AEE0A648016828461A9109F04D
:1022A0006FFE05469C490BF0A7FC00281ED09A4EF5
:1022B00028469A4909F069FE054631460BF09CFC18
:1022C000002813D02846954909F05FFE054631469F
:1022D0000BF092FC002809D02846904909F055FEE1
:1022E000054631460BF088FC0028E1D18C49284690
:1022F0000BF067FC00281ED0894E2846894909F05A
:1023000044FE054631460BF05CFC002813D02846FD
:10231000844909F03AFE054631460BF052FC00288C
:1023200009D028467F4909F030FE054631460BF0BA
:1023300048FC0028E1D17F4928460AF039FD1A9966
:1023400009F023FE054674490BF056FC00281ED008
:10235000714E2846714909F018FE054631460BF0CA
:102360004BFC002813D028466C4909F00EFE0546A8
:1023700031460BF041FC002809D02846674909F096
:1023800004FE054631460BF037FC0028E1D16449D4
:1023900028460BF016FC00281ED0614E28466149E5
:1023A00009F0F3FD054631460BF00BFC002813D075
:1023B00028465C4909F0E9FD054631460BF001FC71
:1023C000002809D02846574909F0DFFD0546314667
:1023D0000BF0F7FB0028E1D1554805601B990DE093
:1023E000E02E65C2000034430000B4C3000034C3D3
:1023F0000000B4434E490D601B9901704E480560C2
:102400004E480170002120461B910BF0ECFB064664
:102410004B4920460AF0CCFC3F2109061A91BF2106
:102420000C06002E214600D01A9909F0AEFD0BF0E3
:1024300067FF199038461B990BF0D5FB06463846C6
:102440003F490AF0B5FC002E214600D01A9909F048
:102450009CFD0BF055FF189028461B990BF0C3FB11
:102460000646284636490AF0A3FC002E214600D035
:102470001A9909F08AFD0BF043FF1790099D284631
:102480001B990BF0B0FB064628462D490AF090FC3C
:10249000002E214600D01A9909F077FD0BF030FF8D
:1024A00016900A9D28461B990BF09DFB074628466F
:1024B00023490AF07DFC002F214600D01A9909F02B
:1024C00064FD0BF01DFF07460B9E30461B990BF079
:1024D0008AFB054630461A490AF06AFC002D00D0F6
:1024E0001A9C214609F051FD0BF00AFF1899009142
:1024F000179901911699029103970490114A1CA80B
:10250000C021199B0BF07CFD401EBE2802D81CA8E0
:102510000BF074FC4FB0F0BD000034430000B4C3B6
:10252000000034C30000B443E02E654297332020FE
:10253000B83220206666E63E983220209133202073
:102540000000C8427A270100F0B5FFB08EB00493B6
:1025500006920646929802900025E84305908C91D9
:10256000346820460CF0A6F921188B9503918C4213
:1025700000D3BCE00020879087A908738890059855
:1025800089902F46049D2078002800D1B2E02528AC
:1025900005D0641C34600699A8477F1CF3E78B972D
:1025A000601C306087AC2046314600F0BBF88CAA36
:1025B0002046314600F0D7F8306801780B46683B7A
:1025C0000122D341092B2BD87B441B795B009F440C
:1025D00004130A2727271627271943788799682B7A
:1025E00019D1520204E0437887996C2B10D1120262
:1025F00011438791801C12E08799D20204E08799E9
:10260000520301E0879912030A438792401C06E0B7
:10261000401C402201E0401C202211438791017898
:10262000441C346087A80173732913D06E291DD10F
:10263000879832490840411E02464A408A423CD9A6
:1026400000282DD0414201402D484143C80E2DA104
:10265000085C26E087A80078400619D4009587A872
:102660008CAA8BAB069900F03DF92AE007AD87A94B
:102670008CAA284600F08CF9024628460699029B4F
:102680009847411C059D00D0C5198B9503991AE008
:10269000009587A88CAA8BAB069900F0C0F810E0D3
:1026A0002020401F082808D878440079400087443B
:1026B0001904040D14040D0404008C9802C88C90B5
:1026C0000F6003998B9D681C13D050E7F8178C9905
:1026D00004C98C9117605060F3E78C9802C88C9005
:1026E0000F70EEE78C9802C88C900F80E9E72F46B8
:1026F00000E0059F38467FB00EB0F0BD603F00009F
:1027000031B57C0700011C021D0E18031E16140FA4
:10271000191104081F1B0D17151310071A0C1206A8
:102720000B050A0910B50A680124E3071AD01378CB
:10273000302B0CD0232B0ED02B2B0AD02D2B04D0DA
:102740000024202BF1D1042306E0012304E0102310
:1027500002E0022300E0082304681C430460521CCA
:102760000A60E1E710BDFEB516460D46044608684E
:1027700002782A2A10D13068011D3160006860603B
:10278000002805D540426060206801210143216096
:102790002868471C2F6017E00021303A092A08D822
:1027A0004218531C2B60435C6F467B545278491C83
:1027B000F3E76A460023535412784718002A03D0DF
:1027C00068460BF085FC606038782E2826D1781C8E
:1027D000286079782A2908D13068011D31600068A5
:1027E000A0602868401C2860FEBD002030390929FF
:1027F00008D839188A1C2A604A786B461A54897896
:10280000401CF3E76A46002111541078002804D0D8
:1028100068460BF05DFCA060FEBDA160FEBDF0B59A
:1028200087B01E460C9F13681C1D14601D68002D88
:102830003AD0049106908468002C04D428460CF009
:1028400029F8844203D328460CF024F8044606985D
:102850004068A042039000DC2046014630680191A8
:10286000401805940399A142029630600EDD069847
:102870000078C0070AD1059801990E1A0024B442C5
:1028800004DA20200499B847641CF8E70026049C69
:10289000069805998E420ADA2868010A18D12D1D7A
:1028A0002146B847761CF3E70020B84718E00599A1
:1028B000039A8A4214DD0078C00711D00198451AA6
:1028C0000024AC420CDA20200499B847641CF8E7D5
:1028D0000020C043029908600CF076F8582101608E
:1028E00007B0F0BDF0B585B00C4606460A9D1068ED
:1028F000011D116000680490002844D00393B7685C
:10290000002F04D404980BF0D5FF874203D304981A
:102910000BF0D0FF074602967268BA42114600DCFF
:102920003946039B1868009140180192BA4218601A
:102930000FDD02980078C0070BD10098C01B0390F0
:1029400000260398864204DA20202146A847761CF8
:10295000F7E70026BE4205DA0498805D2146A847C5
:10296000761CF7E70198B84210DD02980078C0079E
:102970000CD00098C61B0027B74207DA202021465A
:10298000A8477F1CF8E700202146A84705B0F0BD06
:10299000F0B589B005920E4604467F2080002718C6
:1029A0004868039000250795FF210491FE312022FD
:1029B000204601920BF0A4FE3046089702977D70E6
:1029C000367B31466339152906903DD801228A406D
:1029D000604B1A42069822D007A908AA059B00F06E
:1029E000BDF806980025067B012731466F39092975
:1029F000059504D801228A4057490A423FD1582EF2
:102A00003DD0016802230B40079A002A27D008997D
:102A10004A1E08922D220A705F425F412FE0002972
:102A200012D1059B1A68111D19601268D1B24D426E
:102A30004D410499FC316118089102990A700268AD
:102A400002218A430260CEE7252E02D0582EC3D041
:102A5000CAE70020607025202070012078E0002B5C
:102A600007D149070BD5089A511E08910199117099
:102A700005E0089A511E08912B2111700027039937
:102A800003976518089B0178C907264608D1029963
:102A9000491CC91A42689142264601DC691A4E1C3B
:102AA000591C04984300002730463A460BF0B0FD0D
:102AB00008900599002903D0411C0891077000E097
:102AC0000146A94206D8481E691A491C20220BF06B
:102AD00017FE2F7006980078C00606D4311B2022FE
:102AE00020460BF00DFE059D2EE0A642059D2BD045
:102AF000311B302720463A460BF002FE069B079812
:102B00004142414103980140012905D1187840070D
:102B100002D43046214604E03078611C2070701CDD
:102B200037701A7B412A0CD0582A05D0612A08D068
:102B3000782A01D0702A07D11B781B0701D4612A9B
:102B400002D142784A70477020460BF0B3FE40191C
:102B500009B0F0BD4230240043020000F8B514462D
:102B60000F4605468068002804D428681021884351
:102B7000286001E00120A860287B1026582808D092
:102B8000782806D0702804D06F2801D1082600E0EC
:102B90000A262846194600F055F8AA68002A09D1E5
:102BA00002460A4306D12878000749D52B7B00202E
:102BB000024612E02B7B642B03D16423002905D449
:102BC0000AE0692B08D1002906D5692301223A6061
:102BD000002240428A4100E00A46009411463246F3
:102BE00000F0CEF8A968884206DA401C21684A1E27
:102BF000226030220A70F5E7287B582803D0782815
:102C000001D070280FD1297809070CD5702800D180
:102C1000782021684A1E226008702068411E2160C9
:102C200030210170287B6F280AD12878000707D54A
:102C300020684178302903D0411E21603021017085
:102C4000F8BDC04610B5037B702B05D10868021D86
:102C50000A60006800227BE002683E481040421E85
:102C600004465440944216D9002807D042420240FC
:102C700039485043C00E39A2105C00E02020401FAC
:102C8000082808D878440079400087444C04041E82
:102C900038041E04040000221846643814280DD895
:102CA00001248440354804420AD12120044205D041
:102CB0000868021D0A600068C21749E0582B46D117
:102CC0000868031D0B60006842E018466438142849
:102CD00007D8012282402948024206D1212002421F
:102CE00003D10020582B024632D10868C21D0720AC
:102CF00082431046083008601068526828E00022BD
:102D000018466438142807D8012484401B4804421C
:102D100004D121200442CBD1582B18D10868031DBF
:102D20000B60007814E0002218466438142807D895
:102D3000012484401148044204D121200442B7D127
:102D4000582B04D10868031D0B60008800E0104672
:102D5000114610BD603F000031B57C0700011C0228
:102D60001D0E18031E16140F191104081F1B0D1732
:102D7000151310071A0C12060B050A090008120099
:102D8000FEB501920D460646582B01D0174800E0CB
:102D900015480090089802903046284305D1029AC1
:102DA0001068411E116030210170019C304628439B
:102DB00013D030462946224600F01AF807460D4641
:102DC00022460BF013FC301A0099085C029B19682C
:102DD0004A1E1A6008703E46E8E7029800680BF049
:102DE00069FD401EFEBDC0468E2D0100C12D0100B3
:102DF00080B5102A06D0082A09D1C0084A078018D1
:102E0000C90880BD00090A078018090980BD00298A
:102E100004D111460BF0BEF9002180BD00230BF058
:102E2000EBFC80BDF0B5C9B0044602E0092808D12A
:102E3000641C20781F28F9DD2028F9D03E28F7D01F
:102E400003E0002801D122462CE0651C28460BF047
:102E5000F0FB421C2918824201D20A4622E02018C7
:102E600003E0C91EC01EA34215D90278202A01D052
:102E7000092A10D1A04210D9421E1378202B01D06C
:102E8000092B0ED1A2420AD9831E1D78202DE8D02D
:102E9000092DE6D006E0421C04E0024602E08A1E4C
:102EA00000E04A1E002515702178002922D0204616
:102EB00004E0C21CC178002910461BD00A46613AC2
:102EC000D2B2192A01D8203901704178002911D0D5
:102ED0000A46613AD2B2192A01D820394170817864
:102EE000002907D00A46613AD2B2192AE1D820391E
:102EF0008170DEE720784C285DD1607854285AD163
:102F0000A078552857D1E078522854D120794E28FE
:102F100051D1607920284ED1A01DF74908AA0BF0A5
:102F200087FA012800D08EE2F44D2878002849D194
:102F3000F34F3868F3490968401A43D409A80BF0E5
:102F400011FCF148002404700AF0B8FEEF48046058
:102F5000EF48046001262E7038687D210901401871
:102F60006438E8490860089D284621460AF03BFE7F
:102F70000028304600D1E043E64908602846214653
:102F80000AF01FFE002801D0F0074540E248056026
:102F9000E2480BF0F5FAE24908700998E149086047
:102FA0000A98E1490860E1480BF0A4FCE0480BF006
:102FB000A1FCE04869E2D24F3968204609F09CFC48
:102FC000002801D049B0F0BD06A80BF0CBFB069954
:102FD000079A204602F0D2FF002806D0CB480021F5
:102FE0000160CB480160D4484FE22078502823D1BB
:102FF0006078492820D1A07844281DD1E078202885
:103000001AD1201D05A90091CC4909AA08AB0BF0E3
:103010000FFA032800D018E20999C448089A059BC2
:103020000EC0C34C0EC40C3C0C380BF063FC2046A5
:103030000BF060FCC24828E22078422848D1607832
:10304000412845D1A078532842D1E07845283FD186
:10305000207920283CD1601D0025294604F096F8EF
:103060000646B84C21460AF0ACFD0490B64F3046F7
:1030700039460AF0C1FD002800D1374604980028DF
:1030800000D13C46A04805709C4805700AF016FE29
:103090009E480460204629460AF08AFD002809D08F
:1030A0009B480560A1480BF025FCA1480BF022FCD1
:1030B0000AF058FE002120460AF095FD0546F54924
:1030C000204609F075FE002D00D1C2E13F21C1E18B
:1030D00020784D2852D160784F284FD1A0785428BD
:1030E0004CD1E0784F2849D12079522846D16079D7
:1030F000202843D17D2000010890A01DFD4909AA88
:1031000008AB0BF095F9002800DCBDE1099D002417
:10311000284621460AF055FD0490F84E28463146CF
:103120000AF06AFD002800D12E46F74804990029CC
:1031300000D1344609940899814200D90890DC48AE
:1031400001210170DB48002101700AF0B7FD0998E8
:10315000DD490860DD4908600898002801D0396819
:103160000818DB490860DB480BF0C4FBDA480BF0B9
:10317000C1FB089B0999E6480A4665E0207850287B
:1031800066D16078572863D1A0784D2860D1E07867
:1031900020285DD17D2000010590201D05A900910A
:1031A000D74909AA08AB0BF043F9022800DA4EE12F
:1031B000099E0024304621460AF003FD0490CF4DBD
:1031C000304629460AF018FD0028284600D130462E
:1031D00004990029214600D101460991089E3046F4
:1031E00021460AF0EEFC0490304629460AF004FD20
:1031F000002800D13546C4480499002900D12C4646
:1032000008940599814200D90590A94801210170CF
:10321000A848002101700AF051FD0998AA490860E8
:103220000898AA4908600598002801D0396808184C
:10323000A7490860A7480BF05DFBA7480BF05AFBB5
:10324000059B089A0999B14809F024FD49B0F0BDE1
:10325000207850287AD16078552877D1A0784C28EA
:1032600074D1E078532871D1207945286ED16079E6
:1032700020286BD1A01D9F4909AA08AB0BF0D8F8F4
:10328000022800D0FCE07D200490099C20462946BD
:103290000AF097FC0390994E204631460AF0ACFCA8
:1032A000002800D12646049800010399002900D186
:1032B000354609950899814200D908907C4801213A
:1032C00001707C48002101700AF0F8FC09987E49E1
:1032D00008607E4908603868089908187C490860C9
:1032E0007C480BF007FB7C480BF004FB089909981D
:1032F0000AF00EFD49B0F0BDA03201009B33202042
:10330000F832202004332020A033202060332020F6
:103310003C332020C0322020D0322020CC3220204C
:103320009C332020C4322020C8322020B0312020FD
:10333000D4312020D6300100A8300100A73101008F
:10334000B0310100000070C20000704220785128A6
:103350001BD16078552818D1A078492815D1E0787C
:10336000452812D1207954280FD1607920280CD11A
:10337000A01D00210A2207F0BFFE41424141584AE8
:10338000117000287ED05A487FE02078542819D147
:103390006078452816D1A0784C2813D1E0784528CC
:1033A00010D1207920280DD1601D00210A2207F0BC
:1033B000A3FE411E02468A4149490A7000285DD198
:1033C000494862E03449204609F082FD002810D0C7
:1033D0003249204609F07CFD002828D0304920469B
:1033E00009F076FD002826D020460BF009F849B0F8
:1033F000F0BD2F4805702F4805700AF05FFC2E487D
:1034000005602E4805602E4805602E4805602E4850
:1034100005602E4805602E4805602E480BF06AFABC
:103420002D480BF067FA0AF09DFC2C482DE006F0C1
:103430005BFE49B0F0BD0BF0A1F91A4805601A48CF
:1034400005601A4821E037481FE035481DE02D4847
:103450001BE0BF21090608F098FD0AF051FF00901B
:1034600001902D4A2D4B0120010209A80AF0C8FD48
:10347000401EFE2800D9A5E509A806E0194804E089
:103480001D4802E0194800E022480AF0B7FC49B0A4
:10349000F0BDC0460000C842833201008D320100F9
:1034A000C43101002033202024332020D32F0100F9
:1034B000A03320209B332020603320203C33202069
:1034C0000C33202014332020583320205C3320205C
:1034D00010332020B0312020D43120202A310100A7
:1034E000AE3320206C300100603001000730010055
:1034F00014300100FB310100543001000000AA42E9
:10350000703101005231010010270000913201009A
:103510004E3201009C300100AB2C0100C32701009A
:103520005C31010084300100F0B5FFB0A4B01E464C
:1035300002911090A8980A908000E9490D585C1EED
:103540001192D01E182101910AF08CFBC1178843FB
:10355000011B15910D952D190E9081001496B00048
:103560000F91081ADF494018061D002766ACAF42CC
:103570000DDC1598C01903D430680AF087FF01E00C
:103580000020014603C47F1C0034361DEFE7149869
:10359000C00066A94018083800230D9FBB4224DCF8
:1035A0001293002513900746109C2E4615951498EB
:1035B00086420FDA03CC0CCF083F083C0BF000FA30
:1035C000159A2B4606F051FF15900D46761C0834CF
:1035D000083FECE7129BD80016A90A18159C0C505E
:1035E00055605B1C13980830D7E71720C0430E992D
:1035F0004843119941180846183809903020401A5C
:1036000004902F200591401A03900F98B54908188F
:103610000F9016A8083808908FA8011FB8000791CE
:1036200008180690F80016A90A180B58526808994D
:103630000E188FA815900E97384601282ADB3746BA
:103640000026139018461146129232461193A64B4B
:103650000BF0B6F90AF01EFC0AF018FF04460D46FE
:1036600032463E46A14B0BF0ABF9119A129B06F085
:10367000FCFE0AF00FFC159901C1159103CF2246FB
:103680002B46083F06F0F1FE034613980A46401EFB
:10369000083ED2E718461146099F3A4608F02AFB31
:1036A00005460E46FF2083050024284622460BF0DF
:1036B00087F907F0DBFB0C9422468D4B0BF080F969
:1036C0002A46334606F0D1FE04460D460AF0E2FBD8
:1036D00006460AF0DBFE02460B462046294606F067
:1036E000BFFE0446012F15915FDB0E9880008FA965
:1036F0000818001F01680A46049B1A4196190B9688
:103700009A40891A0160039801410D9E794D0C91F0
:1037100001295ADB139400248FA821460E9A914266
:103720000EDA0268002C2B4602D1002A06D06B1C50
:103730009A1A02600124491C001DEFE70024FAE7F1
:10374000099801280B996C4F10DB059819286B48D4
:1037500003D005981A2809D169480E9989008FAAC3
:103760005118091F0A6802400A600B99491C0B9105
:103770000C98022828D100203946139A159B06F090
:103780006FFE054602200C90002C00D184E0002042
:103790000C463946099A08F0ADFA02460B4628460F
:1037A000214606F05DFE044610E00B96002FF54D15
:1037B00069D020460C9AF44B0AF0E7F900280D9ED8
:1037C00003D002200C90A5E7139C159900252046F4
:1037D00027460C462A462B460AF0BCF900285DD045
:1037E0000E9CA000079909182246B24204DD521E21
:1037F0000B681D43091FF8E7002D0699224663D187
:103800000868521C091F0028FAD014980019C0003B
:1038100066A90D181192601C944232DA1290800051
:103820000F9908580AF032FE149AA218D20066AB1B
:103830009C1898506160002313952C46109F1946E0
:103840001D461498814212DA386815917968226809
:103850001E4663680BF0B4F832462B4606F005FEB0
:1038600003460D461599491C0837083CE9E7129CA8
:10387000E00016A90A180B505560139D0835119ADF
:10388000C9E71746CEE60E9880008FA90818001FDA
:103890000068C1150D9E3AE72C4697E70198059EF2
:1038A000821B3846214608F025FA05460C460022C0
:1038B000B74B0AF06AF9002824D1284621460AF0BD
:1038C000E9FA06460E9C3AE08FA90818001F099AEB
:1038D000183A641E0168001F0029F9D033E0C04681
:1038E000282E0100802201000000703E000070C1FF
:1038F000000020C0FFFFFF000000F03FFFFF7F003F
:10390000FFFF3F000027A34B284621463A460BF015
:1039100057F80AF0BFFA06460AF0B8FD9E4B3A4641
:103920000E9F0BF04DF82A46234606F09EFD0AF046
:10393000B1FAB9008FAA50507C1C05980990A000DC
:103940008FA90E50099A002090490F9008F0D2F9E3
:103950000646A0008FAA1218E50016A81095471970
:103960000E94002C19D4159410680C4615460AF0D4
:103970008DFD02460B46304621460BF021F803C769
:10398000002230462146834B083F0BF019F80646CB
:10399000159C641E2A1F083FE3E716A810994218D9
:1039A0000E9F3B46002B0A990D982ED41293F91ABC
:1039B0008842149000DB1491119100231392174652
:1039C000764C19461D461498814212DC20681591E8
:1039D00061683A681E467B680AF0F2FF32462B4661
:1039E00006F043FD03460D461599491C0834083777
:1039F000E9E71198C0003EA90A180B505560129BC8
:103A00005B1E139A083A0E9FCCE7481E02281FD36C
:103A1000002955D0032900D0AEE03EA810990C181B
:103A2000083C3846002859DD0AF0C0FE02460F4621
:103A30002846314615463B4606F012FD0AF07CFF4B
:103A4000A0C40E9F206015986160401E103CE9E7FD
:103A5000FE0000242546002F0CD43EA8811982596F
:103A60004B682046294606F000FD04460D467F1EA1
:103A7000083EF0E701260C980028284601D0F00700
:103A8000684002990C6048603E983F9922462B4658
:103A900006F0E6FC3EAC08340E9DAE4206DC0CCCD3
:103AA000083C06F0E2FC761C0834F6E70C9A002A83
:103AB00002D00122D2075140029A9060D1605BE0AF
:103AC000F8003EA90C1800200146002F22D40CCC8F
:103AD000083C06F0CAFC7F1E083CF6E73EA8109999
:103AE0000C18083C384601281DDD0AF05FFE074629
:103AF0000B46284631463A461D4606F0B1FC0AF010
:103B00001BFF27600E9F6560A0601598E160401E56
:103B1000083CE8E70C9A002A02D00122D207514063
:103B2000029A03C228E00F980146022F0ADB3EAA40
:103B3000109C131912595B6806F097FC7F1E083C15
:103B40001094F2E706463F983E9A0C9B002B0CD04F
:103B50000123DB075840409C419D5D405940029B3A
:103B60001A601A1D71C2596106E0409B419C029D7A
:103B70002A602A1D59C2696107210B9808407FB04D
:103B800024B0F0BDFFFFFF000000E03F0000F03F69
:103B9000000070410000703E000070C15828010014
:103BA000F0B5FFB0DCB0E09D002D30D0002B2ED062
:103BB000002A2CD0FC4C2478002C28D11C465443DD
:103BC0006400A54223D1F94CF94F2E1913367F1EFC
:103BD000BE421CD30A910B900892099301F06AFB34
:103BE00006460AF0F1FC002800D155E106F002FD7E
:103BF00000280FD00B98FF2800D156E106F0FAFC00
:103C000000283AD0EB48C61C6027E84C07E0EA4899
:103C10000AF0F4F87FB05CB0F0BD7F1E2DD03C36CA
:103C20001BA93C22304604F05FFE002825D01BA8CB
:103C30000178A529F1D180790128EED11BA840880F
:103C40000028EAD01BA98A88002AE6D01D99D84B03
:103C5000CB18A342E1D31E9B424350008342DCD1E8
:103C6000C91814311BA8D34A9142D6D241780B9877
:103C70008142D2D10B9806F0E9FEE19802902846E5
:103C800014300490CD4901200390000307902818B8
:103C9000133008400590C748C71C002006906026D6
:103CA00002E0361F00D144E138463C300CA93C22EA
:103CB00004F01AFE002800D174E10CA80178A529AF
:103CC0002ED1807901282BD10CA84288002A27D038
:103CD0000CA88388002B23D00E98B5494118B34C0B
:103CE000A1421DD30F9953435A00914218D1421853
:103CF0001432B04B9A4213D2069CE2B2D200019227
:103D00001BAB019A9A180092019A9850079A511881
:103D10001331AA4A1140081800994860641C06949F
:103D2000384678300CA93C2204F0DEFD002800D192
:103D300038E10CA80178A5292ED1807901282BD152
:103D40000CA84288002A27D00CA88388002B23D0F7
:103D50000E9897494118954CA1421DD30F99534392
:103D60005A00914218D142181432924B9A4213D2FF
:103D7000069CE2B2D20001921BAB019A9A18009203
:103D8000019A9850079A51181331FC4A11400818AB
:103D900000994860641C06943846B4300CA93C2253
:103DA00004F0A2FD002800D1FCE00CA80178A529B0
:103DB0002ED1807901282BD10CA84288002A27D047
:103DC0000CA88388002B23D00E98E8494118E64CB4
:103DD000A1421DD30F9953435A00914218D1421862
:103DE0001432E44B9A4213D2069CE2B2D200019202
:103DF0001BAB019A9A180092019A9850079A511891
:103E00001331DE4A1140081800994860641C06947A
:103E1000F0370CA93C22384604F066FD002800D19A
:103E2000C0E00CA80178A52900D03AE780790128E4
:103E300000D036E70CA84288002A00D131E70CA850
:103E40008388002B00D12CE70E98C8494118C64C36
:103E5000A14200D225E70F9953435A00914200D066
:103E60001FE742181432C34B9A4200D319E7069C4D
:103E7000E2B2D20001921BAB019A9A180092019A09
:103E80009850079A51181331BC4A114008180099EC
:103E90004860641C069404E7B54A1BAC40212046E8
:103EA00033460AF0ADF82046B2E600200B90AE4C47
:103EB00006F0A0FB002800D1DFE6AE48C61C602754
:103EC00002E07F1E00D1D8E63C361BA93C223046DA
:103ED00004F00AFD002800D1CFE61BA80178A5292F
:103EE000EFD180790128ECD11BA840880028E8D0C8
:103EF0001BA98A88002AE4D01D999C4BCB18A342A9
:103F0000DFD31E9B424350008342DAD1C9181431DB
:103F10001BA8984A9142D4D241780B98C0B28142F2
:103F2000CFD10B98411C80B2FE280B91C0D3924890
:103F30006EE60798059908188E49884232D206998C
:103F4000C9B20029079E3BD0CB001A46103A06930F
:103F5000083B079F3E46002403E018340699A1421F
:103F60002ED01BAF3959814203D239194F68BE4256
:103F700013D3A34224D01BAF3F19B968814202D2A8
:103F8000FF68BE4209D3A2421AD01BA90F19396992
:103F90008142E2D27F69BE42DFD205983818754966
:103FA0008842D7D3764833E6A8332020001081FF1B
:103FB000000081FF01007F007D2D010000F0FFFF68
:103FC000704809F01BFF04988419A6421DD2374699
:103FD000384605F007F8002800D18BE007983F1815
:103FE000A74212D2384604F0FDFF002800D181E03C
:103FF00007983F18A74208D2384604F0F3FF00287C
:1040000078D007983F18A742E2D31BAF0A983946E9
:1040100009F094F95348039901705C490B980870B2
:104020005B49089808805B49099808805A480560F0
:104030005A48029901605A48002404605948E143F3
:1040400001605948066014365848066058480460B4
:104050003878584D2870002849D01BA840786870DF
:10406000002849D01BA88078A870002847D01BA83A
:10407000C078E870002845D01BA800792871002876
:1040800043D01BA840796871002841D01BA88079D3
:10409000A87100283FD01BA8C079E87100283DD046
:1040A0001BA8007A287200283CD01BA8407A6872AE
:1040B00000283BD01BA8807AA87200283AD01BA801
:1040C000C07AE872002839D01BA8007B287300282A
:1040D00038D01BA8407B6873002837D01BA8807B92
:1040E000A873002836D01BA8C07BE87337E0681C93
:1040F0000F2132E024488BE5A81C0E212DE0E81C9E
:104100000D212AE0281D0C2127E0681D0B2124E049
:10411000A81D0A2121E0E81D09211EE028460830DB
:1041200008211AE028460930072116E028460A30FF
:10413000062112E028460B3005210EE028460C30FF
:1041400004210AE028460D30032106E028460E30FF
:10415000022102E028460F3003990AF0D8FAEC73E6
:10416000154855E5A8332020001081FF000081FF8D
:10417000C02A010001007F00C82E010000F0FFFFEF
:10418000212D0100502F0100882E010095332020A1
:104190008833202066322020AC322020A832202014
:1041A0002C33202034332020A43220206C332020D4
:1041B0003833202038322020412F0100F0B5B5B02F
:1041C00009A80690E5480078012800D0E0E208A898
:1041D0000AF07AF8002800D1DAE20698203006903A
:1041E000DF4DE04CE04E05E008A80AF06DF800282D
:1041F00000D1CDE2089829684A1C2A60FE4B585429
:10420000FE4F39680B0A4840C0B28000FC4908588C
:10421000584038602068401C206001210791090245
:104220008A4202D031688842DED1F64E3068F249C7
:1042300002F074FA00284AD0286831680818306003
:1042400000272F6023681DAE28213046EE4A09F072
:10425000D7FE3046E74E09F0D1FD21683068814233
:10426000C2D1E6490968CC43E8491891E84D29884C
:1042700018AA9180E7490988D18007991A911B9063
:104280001C94DB480770E4480068A04225D1E3484D
:10429000006818A9142202F041FA00281FD00394E4
:1042A000DF48C41C3C341DA93C22204604F01CFB02
:1042B000002807D01DA80078FF2800D12EE17F1C20
:1042C000602FEFD1D648C41C002660270DE00020E7
:1042D000C74908702860D34858E2D34856E2D3480B
:1042E00054E2059F3F1F00D1FAE020463C301DA953
:1042F0003C252A4604F0F8FA002800D10CE11DA85C
:104300000178A5292FD1807901282CD11DA84088BA
:10431000002828D01DA98988002924D004961F9A36
:10432000C34BD318C34EB34201D2049E1BE0209B63
:10433000414348008342049E15D1D0181430B84937
:10434000884210D23046761CC0B24543BA48401964
:104350001DA92CC92CC00597ACC9ACC0ACC9ACC058
:10436000ACC9ACC0059F204678301DA93C252A4623
:1043700004F0BAFA002800D1CEE01DA80178A529E2
:104380002ED1807901282BD11DA84088002827D064
:104390001DA98988002923D005971F9AA44BD318FB
:1043A000A44FBB4201D2059F1AE0209B4143480025
:1043B0008342059F14D1D0181430FC4988420FD293
:1043C000701C0490F0B24543F94840191DA92CC94E
:1043D0002CC06CC96CC06CC96CC06CC96CC0049E2C
:1043E0002046B4301DA93C252A4604F07DFA002859
:1043F00000D191E01DA80178A5292FD1807901284D
:104400002CD11DA84088002828D01DA98988002902
:1044100024D004961F9AE44BD318E24EB34201D243
:10442000049E1BE0209B414348008342049E15D11B
:10443000D0181430DD49884210D23046761CC0B204
:104440004543DB4840191DA92CC92CC00597ACC9B0
:10445000ACC0ACC9ACC0ACC9ACC0059FF0341DA9A0
:104460003C2520462A4604F03FFA002854D01DA8D7
:104470000178A52900D035E78079012800D031E7FF
:104480001DA84088002800D12CE71DA98988002993
:1044900000D127E705971F9AC34BD318C14FBB42E2
:1044A00000D21EE7209B414348008342059F00D075
:1044B00018E7D0181430BD49884200D312E7701CA9
:1044C0000490F0B24543BA4840191DA92CC92CC02C
:1044D0006CC96CC06CC96CC06CC96CC0049E01E72F
:1044E000F0B205F081F8002816D0B34809F086FC38
:1044F000AE48C41C0027A74EA74D3C341DA93C2242
:10450000204604F0F1F9002806D01DA80078FF2805
:1045100004D07F1C602FF0D1A64837E109AC201DE4
:104520003821FF220AF0ECF8A5202070A34800787B
:1045300060702888608099480088A0800798A071E2
:10454000974800680B9030680C9003980D9097483E
:10455000C61C0020029060240CE0C046A833202036
:10456000383320202C332020AC3220200F46059DEC
:10457000641E35D03C361DA93C2530462A4604F041
:10458000B3F900282CD01DA90A78A52AF0D1897981
:104590000129EDD11DA94A88002AE9D005951DA958
:1045A0008D88002DE3D039461F9F7F4B0497FB1861
:1045B0007C4FBB42DAD3209B55436A0093420F469F
:1045C000D5D1229A02998A42059D00D8029A04996F
:1045D000C9181431754B994200D3029A0292C7E769
:1045E0002E4600282AD16B4D069C07982AE0C0462B
:1045F000A8332020AC322020002E2020343320206D
:10460000801E01006C332020592D0100494D473098
:104610008833202066322020A8322020A432202097
:1046200001007F00292C01009B2F0100162E0100A4
:10463000000081FF001081FF000020200298401C34
:10464000544D069C0E905E490A7809A80276002A0D
:1046500047D04A7809A84276002A45D08A7809A826
:104660008276002A43D0CA7809A8C276002A41D0AF
:104670000A7909A80277002A3FD04A7909A8427727
:10468000002A3DD08A7909A88277002A3BD0C879D0
:1046900009AAD077002839D0087A2070002838D0AD
:1046A000487A6070002837D0887AA070002836D009
:1046B000C87A069AD070002835D0087B069A107107
:1046C000002834D0487B069A5071002833D08A7B6A
:1046D000069BD81D9A71002A31D0C97B0170069CB7
:1046E00031E019300F212CE01A300E2129E01B3067
:1046F0000D2126E01C300C2123E01D300B2120E091
:104700001E300A211DE01F3009211AE00821204631
:1047100017E0601C072114E0A01C062111E0069C94
:10472000E01C05210DE0069C201D042109E0069CEB
:10473000601D032105E0069CA01D022101E001216E
:10474000069C09F0E4FFF9B20020E0711D485F29E2
:104750001CD87F210F40324677431449CB193F3391
:1047600009A90446184601F0D9FF01462046002950
:104770000CD0124803782868009003980190124AE0
:104780001DAC6021204609F03BFC204609F036FBB9
:1047900035B0F0BDAC322020883320206632202096
:1047A000A4322020001081FF000081FF01007F0063
:1047B00000002020962C0100A32B0100953320201F
:1047C00038322020582E0100312A0100F0B589B07E
:1047D000064607A809F0C6FF0798D6490A68871A4F
:1047E000089AD54B1C68151BD44C266008601A60CB
:1047F000D3480078012810D1D2480760D24805601C
:10480000D2480168002920D0711A1ED4D049002452
:104810000C60D0490C60046019E00495CE4804682F
:10482000CE4805682046294609F0CBF900280396B2
:1048300023D07D20C105204607F0A7FB044629466A
:1048400009F0DAF9002828D028E0C1480468C44EED
:1048500035682846214609F0B4F9002800D196E0D1
:104860003F200106284607F090FB0546214609F047
:10487000C3F9002800D19BE09BE02046294609F0BF
:10488000BBF9002809D0B749204607F07EFB044653
:10489000294609F096F9002800D125460295AE4830
:1048A0000560B14D2C68384609F0D2FC214607F06E
:1048B00067FB7D21CF05394608F07AFA214607F0DB
:1048C00064FB04462860A94E3568049809F0C0FCD2
:1048D000294607F055FB394608F06AFA294607F0E1
:1048E00054FB0746306000212046049109F07BF913
:1048F00006469F49204608F05BFA3F210A06BF2181
:104900000D06002E294600D01146019207F03DFB0E
:1049100009F0F6FC04468B4804603846049909F017
:1049200062F906463846924908F042FA002E00D055
:10493000019D294607F029FB09F0E2FC8249086045
:10494000201A8C490860029806900590039E304614
:1049500008F0B8FC029089480468894D2F780798C0
:10496000089906AA05AB04F029FA012F38D10028CE
:1049700000D1C3E0FA4800210160FA480160FA481A
:1049800001607D48016009F0EDF909B0F0BD2846ED
:10499000214609F031F900280AD0BF200106284637
:1049A00007F0F3FA0546214609F00BF9002800D17B
:1049B0002C463460ED4F3E6866480568304629460F
:1049C00009F0FFF800285CD03F200106304607F0D0
:1049D000DCFA0646294609F00FF9002862D062E0A9
:1049E000341B002805D10798089906AA05AB03F0E7
:1049F00005FA002C00D5E4E00127039809F05CFDDE
:104A000000210491002818D009F03CFF0028384606
:104A100000D12878C00710D1059C0698002109F024
:104A2000C7F8002809D00021204609F0C1F8002865
:104A300003D0D248069005900497039809F0C8FC6B
:104A4000002800D02F78F80704D109F01BFF0028B8
:104A500000D197E0039809F02FFD002800D1B0E0C5
:104A600009F010FF002800D0ABE00698C44C2146A6
:104A700008F09EF906900598214608F099F9044639
:104A80009EE03046294609F0B7F800280AD0BF203A
:104A90000106304607F079FA0646294609F091F8F2
:104AA000002800D135463D602046294606F0AEFE7E
:104AB000C0480068002109F07BF8002800D14CE1D3
:104AC0003C68BE480568BC480068002109F070F8E1
:104AD000002800D141E10021284609F069F80028AA
:104AE00000D13AE100252046294609F061F8002866
:104AF00000D132E19E48057009B0F0BDAC480568B0
:104B0000684209F0A5FBA14E314608F051F9044670
:104B10009F480460284609F09BFB314608F048F99D
:104B200001469C4801609D480460A0480160204601
:104B300011E1C0462033202024332020F8322020E9
:104B4000A0332020D4322020E8322020103320202F
:104B5000583320205C3320203C3320206033202039
:104B60000C332020000080BEB0322020B432202040
:104B70000000C842E4322020EC3220200433202000
:104B80009B3320200699029C204607F0FEF90690F0
:104B90000598214607F0F4F9059009F073FE002806
:104BA0000FD106980024214609F00BF8002801D007
:104BB000002006900598214609F003F8002800D04F
:104BC0000594069C6F4E2046314608F0FAFF0546D4
:104BD0006D4F2046394609F00FF80028384600D1BD
:104BE0002046002D344600D104460694059D2846F3
:104BF000314608F0E6FF03902846394608F0FCFFEE
:104C0000002800D12F460398002800D13E46059683
:104C10000498002826D000252046294608F0D1FF18
:104C200004905A4F2046394608F0E6FF00283846DF
:104C300000D12046049900292C4600D10446069450
:104C40003046294608F0BDFF04903046394608F04A
:104C5000D3FF002800D137460498002800D13D46F4
:104C6000059500E035464A4804604A4805604148D9
:104C700002684948214607F05DFC484F38603E48CD
:104C800002680599464807F055FC04903D68069C6B
:104C900000262046314608F08BFF0028304624D1FC
:104CA000039500252046294608F08BFF002801D1F6
:104CB000204602E00120C00760403A4908F078F839
:104CC0004121090607F061F907462046294608F008
:104CD00093FF002804D00398394607F056F903E003
:104CE0000398394607F04CF92C4F3860059F04466D
:104CF0003846314608F05CFF002828D125460024BC
:104D00003846214608F05DFF002801D1384602E010
:104D10000120C0077840234908F04AF841210906DC
:104D200007F033F9204908F043F806463846214693
:104D300008F062FF002804D00498314607F025F9F6
:104D400003E00498314607F01BF906462C46174845
:104D500006602046314606F059FD09B0F0BDC04658
:104D6000DC322020F0322020D832202014332020C2
:104D7000A0332020B0322020B43220200000204177
:104D80006666263F000070C200007042000070415D
:104D9000DC322020F0322020B0312020D8322020F8
:104DA000D43120203333333F8FC2753FEC32202083
:104DB000C0322020583320205C3320200C332020A8
:104DC000F0B593B001218D03CC038C2290230028F1
:104DD000264600D15EE200D15FE2184600D160E2D3
:104DE00000D11A46FC4B81241C605C60FB4BC45014
:104DF000FB48D050D058D050FA4F11953D65032054
:104E000000033018386408030F90386035464E03AD
:104E10003E613D6138613E613D601295042420464B
:104E200009F080FD3E60204609F07CFDEE480068F8
:104E30003E613D61204609F075FD3E60204609F067
:104E400071FDE94800683E613D61204609F06AFD58
:104E50003E60204609F066FDE34800683E613D6023
:104E6000204609F05FFD3E60204609F05BFDDE480C
:104E700000683E613D60204609F054FD3E602046DA
:104E800009F050FDD84800683E613D60204609F0B9
:104E900049FD3E60204609F045FDD34800683E616B
:104EA0003D60204609F03EFD3E60204609F03AFD97
:104EB000CD4800683E613D60204609F033FD3E600C
:104EC000204609F02FFDFA4800683E613E613D60D2
:104ED000204609F027FD3E60204609F023FDF448F6
:104EE00000680E903E613D60204609F01BFD3E606B
:104EF000204609F017FDEE4800680C903E613D60C9
:104F0000204609F00FFD3E60204609F00BFDE84801
:104F1000006809903E613D60204609F003FD3E6057
:104F2000204609F0FFFCE248006808903E613D60C1
:104F3000204609F0F7FC3E60204609F0F3FCDC480F
:104F4000006806903E613D60204609F0EBFC3E6043
:104F5000204609F0E7FCD648006804903E613D60B9
:104F6000204609F0DFFC3E60204609F0DBFCD0481B
:104F7000006805903E613D60204609F0D3FC3E602C
:104F8000204609F0CFFCCA48006810903E613E619F
:104F90003D60204609F0C6FC3E60204609F0C2FC98
:104FA000C348006807903E613D60204609F0BAFCA6
:104FB0003E60204609F0B6FCBD48006803903E61A3
:104FC0003D60204609F0AEFC3E60204609F0AAFC98
:104FD000B748006802903E613D60204609F0A2FC9F
:104FE0003E60204609F09EFCB148006801903E6199
:104FF0003D60204609F096FC3E60204609F092FC98
:10500000AB48006800903E613D60204609F08AFC94
:105010003E60204609F086FCA54805683E6112986E
:105020003860204609F07EFC3E60204609F07AFC9C
:105030009F4807689D490E6112980860204609F054
:1050400071FC9A480660204609F06CFC984801689B
:1050500096480661119A1140481E81410D911740F2
:10506000781E874178000B9017461540681E8541D1
:10507000A8000A9000991140481E8141C800009084
:1050800001981040411E88410101029B13405A1EA5
:1050900093415A01039D3D4038466B1E9D41AB0133
:1050A000079F07407D1EAF41FD011D4315430D4382
:1050B00000990D430795109905460140481E81410E
:1050C000109105992940481E814148000590049996
:1050D0002940481E81418800049006992940481EB5
:1050E0008141C800089A2A40511E8A411101099B3A
:1050F0002B405A1E93415A010C9F2F407B1E9F410B
:10510000BB010E9F2F407D1EAF41FD011D43154386
:105110000D4305430E95654F3E61129D3D6020464F
:1051200009F000FC3E60204609F0FCFB6048006886
:10513000119F3840411E8841C0010C905B480661B8
:1051400005600546204609F0EDFB2E60204609F07B
:10515000E9FB574800683840411E884185010C989A
:10516000054352490E6112980860204609F0DAFBA7
:105170004E480660204609F0D5FB4D48006838408F
:10518000411E884147012F43484D2E6112992960E5
:10519000204609F0C7FB2E60204609F0C3FB4448B7
:1051A000006811990840411E884105013D433F4870
:1051B0000661129F0760204609F0B4FB3B48066079
:1051C000204609F0AFFB3A48006811990840411E9B
:1051D0008841C0000AE0C0468880424004804240C6
:1051E0008100060090120A4080130A4028430C9068
:1051F0002E4D2E612F60204609F094FB2E60204634
:1052000009F090FB2A480068119F3840411E8841F0
:1052100085002648066112990160204609F082FB4C
:1052200022480660204609F07DFB2148006838408E
:10523000411E8841400009901C4F3E611298386021
:10524000204609F06FFB3E60204609F06BFB1848D2
:10525000006811990840411E884104990E9A0A433A
:1052600005990A4310990A4311040A9A079B1343AC
:105270000B9A13430D9A13431A020A433E610C9989
:105280000D4309990D43054315430F98386028468F
:1052900013B0F0BD2E4600D09FE52546184600D03D
:1052A0009EE5104600D19CE59CE5C04690120A4060
:1052B00080130A40F0B595B0FD4801460C398122B3
:1052C0000A60014608390A60011F0A60F949016055
:1052D0000168016007200003F74D286401200103E5
:1052E0000D91296047032F6186032E6129612F618B
:1052F0002E600424204609F015FB2F60204609F09B
:1053000011FBEE4800682F612E61204609F00AFB70
:105310002F60204609F006FBE84800682F612E61E7
:10532000204609F0FFFA2F60204609F0FBFAFA4800
:1053300000682F612E60204609F0F4FA2F602046A5
:1053400009F0F0FAF44800682F612E60204609F059
:10535000E9FA2F60204609F0E5FAEF4800682F616E
:105360002E60204609F0DEFA2F60204609F0DAFAB6
:10537000E94800682F612E60204609F0D3FA2F60BB
:10538000204609F0CFFAE44800682F612E602046DD
:1053900009F0C8FA2F60204609F0C4FADE48006818
:1053A0002F612F612E60204609F0BCFA2F60204645
:1053B00009F0B8FAD84800680C902F612E6020469A
:1053C00009F0B0FA2F60204609F0ACFAD248006824
:1053D0000B902F612E60204609F0A4FA2F60204622
:1053E00009F0A0FACC4800680A902F612E60204690
:1053F00009F098FA2F60204609F094FAC648006830
:1054000009902F612E60204609F08CFA2F6020460B
:1054100009F088FAC048006805902F612E60204688
:1054200009F080FA2F60204609F07CFABA4800683B
:1054300004902F612E60204609F074FA2F602046F8
:1054400009F070FAB448006801902F612E60204680
:1054500009F068FA2F60204609F064FAAE48006847
:1054600002902F612F612E60204609F05BFA2F60B9
:10547000204609F057FAA84800680E902F612E6068
:10548000204609F04FFA2F60204609F04BFAA24857
:1054900000680F902F612E60204609F043FA2F60BC
:1054A000204609F03FFA9C48006811902F612E6059
:1054B000204609F037FA2F60204609F033FA964863
:1054C000006812902F612E60204609F02BFA2F60A1
:1054D000204609F027FA9048006813902F612E604B
:1054E000204609F01FFA2F60204609F01BFA8A486F
:1054F000006806902F612E601096204609F012FA7F
:105500002F60204609F00EFA8348006814902F613E
:105510002E60204609F006FA2F60204609F002FAB4
:105520007D4800682F610004C00F08901498800B1C
:1055300002211491084007900698400B20400690E5
:105540001398000B08211391084003901299C90A7F
:10555000102212921140119A920A202311931A409C
:105560000F9B5B0A40260F9633400E9E360A802022
:105570000E9006409B19D218891803984018039082
:1055800002980004C00F02900198810B149801400A
:1055900001910498400B204004900598000B13994A
:1055A000084005900999C90A129A11400A9A920A6C
:1055B000119B1A400B9B5B0A0F9E33400C9E360AD0
:1055C0000E9806409B19D2188918059840180C901F
:1055D0002F61109E2E60204609F0A4F92F6020460E
:1055E00009F0A0F94C480068010A0E9801400E919C
:1055F0002F612E60204609F095F92F60204609F0B2
:1056000091F945480068400A0F9908400E994018E2
:105610000F902F612E60204609F084F92F602046FC
:1056200009F080F93C480068800A119908400F99F8
:10563000401811902F612E60204609F073F92F60F9
:10564000204609F06FF934480068C00A12990840F2
:105650001199401812902F612E60204609F062F9CE
:105660002F60204609F05EF92B480068000B139963
:1056700008401299401813902F612E60204609F0BF
:1056800051F92F60204609F04DF923480068400B7E
:10569000204012902F612E60204609F043F92F60C0
:1056A000204609F03FF91C480068860B08E0C04618
:1056B000948042408100060090120A4080130A4004
:1056C000149806402F6110982860204609F02AF9A6
:1056D0002F60204609F026F90F4800680004C10F2A
:1056E00004980C9A8018019A1018029A104300042A
:1056F000069A039BD218079B9A18089B1A4312021A
:1057000002432F611398129B181830180843104356
:105710000D99296015B0F0BD80130A40F0B597B01F
:10572000F3480578042D05D1F54800210170F148B2
:1057300001215DE0EF48017800292CD0F048007885
:10574000012856D1ED480578002D54D0052082015E
:10575000E9490978052D51D86E1E022900D1A4E02F
:10576000012967D0002900D0C8E0032D00D906E147
:10577000F7B2B800F24908580590F24804781820AA
:1057800070432030C5B22B4618330020A74200D109
:1057900000E10646FFE0D8490D70D84900220A70A2
:1057A000D74901220A7002700520820116468F3601
:1057B0000096002420232046214607F08BFF022D6F
:1057C00003D8A800E3490A5800E0E14A10200096F7
:1057D0000190029408200421CE4B01F06DF9C748D6
:1057E0000178491CCAB20170072A02D3C4480021BB
:1057F000017017B0F0BDC0480578D5E7032903D282
:105800008800C2490C5804E0BE4C2078002800D122
:10581000BD4CBF4E009600259821AA23284607F0CC
:1058200059FF102000960190029508209A21B94B4B
:105830002246D2E7144604F03BFD002800D188E060
:10584000BB4F3978814201D3411E3970C9B2091F5B
:10585000224600D200218919CDB2854200D38EE0C4
:1058600006A9284606F0D4F92246002800D186E091
:1058700006A8037801460C31428880880091019285
:105880000290AC4A0DA82821059008F0B9FB3978A0
:1058900018207043C3B21E462036383300200491CE
:1058A0008D4200D108E1074607E1144606A808F03A
:1058B00059FF032E00D9D7E07E4436797600B744ED
:1058C00001B180A0069B07980090974A0DAD282152
:1058D000284608F095FB0026009620213823304604
:1058E000224607F0F7FE2878002800D177E710203D
:1058F0000096019002960C202421B2E092490F7884
:10590000062F01D308700746391F0020042F00D24C
:1059100001468919CCB2E1008C4B595805911821E8
:105920007143CBB21D4620353833BC4201D0064608
:1059300000E01F260096294607F0CCFE059A107855
:10594000002800D14BE704200543BC4230D0734B04
:105950002FE0022D00D19EE0012D22460FD1002420
:10596000009420213823204607F0B4FE1020009434
:1059700001900294714A0C202421684B2DE71820D5
:105980007043C3B21946203138330020009007F02D
:10599000A1FE24E71F260096294607F09BFE059AE4
:1059A0001078002800D11AE704200543A742CED181
:1059B000584B002010210096019102900C2029469E
:1059C0000BE708F057FF064608F04CFF0090544ADA
:1059D0000DAD28212846334608F012FB002600961C
:1059E000502168233046224607F074FE28780028AC
:1059F00000D1F4E610200096019002960C2054216C
:105A00002FE000250095682180232846224607F0D4
:105A100061FE10200095019002953F4A0C206C21F8
:105A20003E4BDAE608F05AFF064608F05DFF0090AC
:105A30003C4A0DAD28212846334608F0E1FA0026FD
:105A40000096382150233046224607F043FE28783E
:105A5000002800D1C3E610200096019002960C2089
:105A60003C210DAA2D4BB8E618207043C5B229463B
:105A700020312B463833002600963046224607F068
:105A800029FE24351020009601900296274A0C200A
:105A9000224B2946A1E600250095382150232846AF
:105AA000224607F017FE1020009501900295224A29
:105AB0000C203C21194B90E61F27009731462246C7
:105AC00007F008FE05980078002800D187E604203A
:105AD00006430498854201D0104B00E00D4B002096
