:1000000000802020B5DD0000F39B0000F39B000082
:1000100000000000000000000000000000000000E0
:10002000000000000000000000000000F39B000042
:100030000000000000000000F39B0000A9B40000D5
:10004000F39B000029C30000F39B0000F39B00001A
:10005000F39B0000F39B0000F39B0000F39B000068
:1000600000000000F39B0000F39B00000000000074
:1000700000000000E9DC0000F1DC0000E1DC000031
:10008000F39B0000F39B0000F39B0000F39B000038
:10009000F39B0000F39B0000000000000000000044
:1000A000F39B0000F39B0000000000000000000034
:1000B000F39B000000000000F39B0000F39B000096
:1000C000F0B5F3B007930592799A0E92789E0025C9
:1000D000EF437090139112950878A84C201843783C
:1000E000D80628D513984A1CDB0606D5481C11787B
:1000F00061184B78521C0146F6E7139070A8B04780
:100100000446401C01D100F0FAFD0DF0D4FD9B48DF
:1001100000194078C00603D570A8B0470446F4E73C
:1001200070A80DF028FE1298401E1290601C934C8F
:1001300001D100F0E4FD01200A9054A801466C3181
:100140000C9101460C3103910D30009014A8401C15
:1001500001900B950D971196029554A870210DF002
:100160007EFC559770A813A912AA079B98470128EF
:10017000109522D0002801D100F0A7FD401C029B61
:1001800001D100F0A4FD0F93274670A8B0470DF0F1
:1001900076FD38194078C006F7D4374670A80DF0C0
:1001A000EAFD1298411E1291601C39D10029109D60
:1001B0000F9A01D100F087FDB1E01398471C139707
:1001C000417800262A2935460BD101255495871CF4
:1001D000139706E0B819401C1390B85D71A98855B3
:1001E000761CBC5D204630380928F3D971A800215F
:1001F0000F9181550078002803D071A80DF022F9E5
:1002000055904C2C2FD0682C20D06A2C0BD06C2C05
:1002100010D0742C0AD07A2C16D10120000307E0EC
:10022000109D0F9A7BE00120C00201E001204003F5
:100230002D1819E0B919481C13904A786C2A4F4CB4
:1002400018D1012000020AE0B81910E0B919481CC1
:1002500013904A78682A494C0ED1012040022D188B
:100260005495881C0AE080355495B819401C119E9D
:10027000424C04E0403500E020355495119E411C6D
:10028000139103780C9A13705B2B28D10A785E2A9D
:1002900005D102210D435495811C139182785D2A6A
:1002A00006D1481C1390097854AA1173009901E0F3
:1002B000084603990F9D0278002A09D05D2A07D0CD
:1002C000421C139200784B1C087010461946F2E746
:1002D0000D705D2A01D1401C13900C9803781846CC
:1002E0005B38132800D94EE70121814024480142A0
:1002F00000D148E731461E4670AC20460F4688477D
:10030000054620460DF034FD1299681C05D10029E0
:10031000109D324603D100F0D6FC109D3246099163
:100320001046583820284CD83E460D9F4000C04605
:1003300078448088400087445301260326031C012B
:100340002603260326032603260351002603CE0098
:1003500025005100510051002603250026032603E5
:100360002603260329032500250026032603CE00A5
:1003700026032500260326032500C046D0160100CB
:10038000010108001746559C70A8B04721460DF0A2
:1003900076FC14AD002934D014AD2D2C02D02B2CBA
:1003A00000D0B2E014A8047070A80C46B0472146F3
:1003B0000DF065FC491EF64A00D1D3E00891019D7D
:1003C000A5E01046413806283E460D9F00D990E032
:1003D000012181407120014200D18AE0559D70A821
:1003E000B047044614AB401C09D00DF064FC2B2C24
:1003F00009D114AB002D0BD12B24002513E03C4672
:1004000011E00027B0E014AB002D0CD02D2C0AD148
:1004100014A8047070A8B0470446401C01D00DF029
:100420004AFC6D1E019B204661381A2801D32046E4
:1004300001E0204620384928E24F109703D04E288B
:100440002AD1E14F10970026B5421BD01098805D4D
:10045000002816D0214661391A2901D3214601E02E
:100460002146203981420CD11F469C5570A8119914
:1004700088470446401C01D00DF01DFC761C3B460D
:10048000E2E73546E81E41424141083D6842684185
:10049000084310909D1964E20022002D5CD0302C9E
:1004A0005AD10F9230201F46187070A8B0470446EA
:1004B000401C01D00DF0FFFB7B1C681E00220121B7
:1004C0001091002800D1AAE1214661391A2900D2F1
:1004D000A8E12146A8E1549901250846284049068B
:1004E000174676D4002800D00EE1059810C8059074
:1004F0000BE1252A00D046E270A8B047252801D09C
:1005000000F000FC0DF0D7FB40E20891AC4A00205F
:100510003B46115C8B4204D0401C0728F9D10020D7
:1005200000E01018801A012813D1302C5CD10F95EF
:1005300070A81090B047054610980DF019FC2020C7
:100540008543583D109501D0082010903B460F9DE3
:100550004CE09E49085C48E01946109204920A98C3
:1005600008907CE10027019D3A4638460A990F9190
:1005700062E0559F5498022101400F9114AC002F66
:1005800000D148E170A8B0470546401C089000D152
:10059000B1E010942C46E8B2002303990E7886420D
:1005A0000A4600D01A46491C002E1346F6D10F9B6E
:1005B00059425941531E9A419142119E2546109C21
:1005C00000D098E0611C20700DF075FB7F1E0C467A
:1005D000D5E7002800D09DE0059810C805909AE066
:1005E00078220C980270CDE60A20109018466938DF
:1005F000C0B2102801D3002100E00121EA4FC7401A
:100600000F406F2B06D1302C0AD000200A990F9191
:10061000089A11E020463038414241410F42F4D05F
:1006200028466D1C047070A8B0470DF028FB089A8E
:10063000521E00200F900A98002F24D0002A22D0AA
:10064000002820D020202146814358291BD1089220
:1006500070AF3846B047014638460F460E9A90476D
:10066000E148C0194078800701D4089A0BE02C704B
:1006700070A8B0470DF003FB089A521E00D138E372
:100680006D1C102010900A9F002A23D01098082873
:1006900004D107202146814330290ED010980A2822
:1006A00003D1204630380A2807D31098102811D1DA
:1006B000CD480019407880070CD56E1C2C7070A8AE
:1006C00011991446884722460DF0D9FA521E002788
:1006D0003546D9E770A80DF04EFB1298401E1290D7
:1006E0000020287005460F98384001280D9F119E64
:1006F00000D04BE1F5E270A80DF03AFB1298099991
:10070000814200D087E004E300245598002841D4BA
:10071000054640E000245598002800D40546632A89
:1007200000D0054670A8B04701460DF0C4FA632F0B
:1007300005D1481E0222D24390420FD917E0481C2F
:10074000022801D3002000E00120A74A5218527865
:10075000D2060A9A00D40246002A08D1002D06D0FB
:10076000002C01D002C400E000246D1EDAE770A85E
:100770000E9A90471298401E12900999814200D11A
:10078000B7E2732F49D1002C47D00020206044E00D
:10079000911B01000125632A00D0054670A8B047CF
:1007A00001460DF088FA632F05D1481E0222D2437C
:1007B000904217D921E0481C022809D3002008E004
:1007C000911B010061230100692401001C24010028
:1007D0000120854A52185278D2060A9A00D402465D
:1007E000002A0AD1002D08D0002C03D0601C2170F3
:1007F000044600E000246D1ED0E770A80E9A9047D2
:100800001298401E12900999814200D171E2732F13
:1008100003D1002C01D0002020700D9FB6E004927F
:10082000154618E021462039582912D17C7070A84D
:10083000119988470446401C01D00DF03CFABA1CBF
:10084000AD1E00200A9904911146109008900F9A4D
:1008500005E0049205460A9808900F9A19460692F8
:1008600016460F95002D0D466ED02B2C39D02D2C11
:1008700037D02E2C2FD0452C01D0652C0BD10898C9
:10088000002846D0109800285ED0002A5CD10120B4
:10089000074610904AE020463A380A21C943884268
:1008A00029460CD8049800284ED04F4800194078AB
:1008B000800704D4202020437028E3D044E02B2C70
:1008C0000FD02D2C0DD0702CDCD0502CDAD0652C14
:1008D000D5D02E2C1DD10698104335D1012006907D
:1008E00023E00898002808D0481E00782021014302
:1008F0006529294601D1174618E00498002823D01D
:10090000481E00782021014370291DD11746294631
:100910000CE0002A07D0204630380122092813D8DD
:100920001746164602E00120109000270C7070A8B0
:10093000119988470446401C01D00DF0BCF9691C90
:100940000F9D6D1E3A468CE71099481E814110910B
:10095000701E8641002A0A9800D030461099014046
:1009600010910D9F70A80DF006FA601C02D012992C
:10097000491E129100212970129A099B9342119EDF
:10098000109D00D1A8E1012D00D0B3E10C980178B1
:10099000012508465B381D283ED804A2124C4000B1
:1009A000105A40008744C046818000002400220085
:1009B00022002200220022004600220057014600A9
:1009C0004600460046002200460022002200220087
:1009D0002200A30046004600220022005701220008
:1009E0004600220022004600D0160100FFF7B5FBAA
:1009F0005499C80701D0FFF7B0FB05980068490675
:100A000000D5C8E014A94A1C0978431C01700029CC
:100A100018461146F7D1C7E0084641380628BF4CB2
:100A200001D9FFF79AFB012282407120024201D1D5
:100A3000FFF793FB14A80078002800D10BE154982D
:100A4000C20700D007E10B46613B172B3AD80022C2
:100A50009B0002A4E358B14C9F46C046D90A00004F
:100A6000570C0000570C00006B0B0000D90A000067
:100A7000D90A0000D90A0000570C00006D0B0000D5
:100A8000570C0000570C0000570C0000570C0000DA
:100A9000570C0000BD0A00008F0B0000570C00002F
:100AA000570C0000570C0000570C0000BD0A000056
:100AB000570C0000570C0000BD0A000078293FD0F9
:100AC00008223EE04139062900D9C4E001228A40CB
:100AD00071210A4200D1BEE0C021084080281ED00A
:100AE000402826D114A8002105F03CFD1BE05498B5
:100AF000C10701D0FFF731FB89490840411E02467A
:100B00004A408A4200D894E0002800D183E0414264
:100B1000014084484143C80E83A1085C7CE014A8CE
:100B2000002105F01FFD059B04CB0593106051606B
:100B300091E014A8002105F015FD0BF0A1FE87E05F
:100B40001022752900D10A2275490840411E03462A
:100B50004B408B4242D900282ED04142014071487F
:100B60004143C80E70A1085C27E00A226C49084086
:100B7000411E03464B408B4248D9002833D04142A6
:100B8000014068484143C80E67A1085C2CE014A8E6
:100B90000021102224E014A90A78002A02D0491C5E
:100BA00004C0F9E7002101600598001D05900B982D
:100BB000401C0B90FFF7D1FA2020401F08280DD8C9
:100BC0007844007940008744580909045D09043AD3
:100BD0003A0014A8002109F085F9A4E714A800211F
:100BE00009F062FF34E02020401F08280ED8C046DC
:100BF00078440079400087444A09090452090427CF
:100C0000270014A8002107F00BFF8CE714A800218F
:100C100009F072FD1CE02020401F082809D8C046BA
:100C200078440079400087444204041F48041F04AC
:100C3000040012980DF050F80860FFF78EFA14A81F
:100C4000002109F04FF903E014A8002107F0E8FEA5
:100C50000DF042F8086054980125294681430B980D
:100C600008180B90FFF779FA1298C117059B04CB6F
:100C7000059310605160FFF770FA14A8002109F085
:100C800013FF08E014A8002109F00EFF0BE014A8E0
:100C9000002109F031FD0DF01FF80880DBE714A8F2
:100CA000002109F029FD0DF017F80870D3E712981C
:100CB0000DF012F80880FFF750FA12980DF00CF8BA
:100CC0000870FFF74AFA0D9F19E00B9F17E00B9889
:100CD000002814D0074612E0002800D121460D4616
:100CE00008E0129809994140E043084302D1ED43DE
:100CF00000E00D9D0B98002800D005462F46384691
:100D000073B0F0BD054670A80DF032F8681CF1D044
:100D100002E008980028EDD00025EBE7D01601008E
:100D2000603F000031B57C0700011C021D0E180356
:100D30001E16140F191104081F1B0D171513100789
:100D40001A0C12060B050A09F0B5CFB0024800785C
:100D5000012803D000F0A7FCC52820204CA80BF0E8
:100D600027FC002801D100F09EFC01201B904C982C
:100D7000FB4C099021460BF04DFA06464D980A901F
:100D800021460BF047FA05464E98F6490B900BF0BA
:100D900041FA0446304608F01DF81390304608F03A
:100DA000D9FA1290284608F015F81590284608F050
:100DB000D1FA1490204608F00DF80546204608F0B8
:100DC000C9FA07461090002428460D9521460AF0DE
:100DD00004FB0646384621460BF01CFA31460AF061
:100DE000FCFA1690139821460BF014FA06460E9062
:100DF000284621460BF00EFA119031460AF0EDFA22
:100E00000746109E3046129D29460BF003FA3946DC
:100E10000AF0E3FA1A901B98C707284639460BF0E8
:100E2000F9F90146089011980AF0D7FA199030465E
:100E3000139D29460BF0EEF919990AF0CEFA199094
:100E4000284621460AF0C9FA0646129D2846214640
:100E50000C940BF0DFF931460AF0BFFA17902046E8
:100E600029460AF0B5FA01460E9E30460AF0B5FA58
:100E700018902046109C21460AF0AAFA01461198C3
:100E80000AF0ABFA0F90204639460BF0C3F905463D
:100E900031460AF0A2FA06460D9C204612990BF044
:100EA000B9F931460AF099FA0E90284608990AF0E5
:100EB00094FA0546204613990BF0ACF929460AF03E
:100EC0008CFA1090149E304639460BF0A3F9054673
:100ED000159816990BF09EF929460AF07EFA0546F8
:100EE0000F980C9C21460BF095F90D9029460AF0BD
:100EF00074FA1390179831460BF08CF90546159E3D
:100F000030461A990BF086F929460AF061FA05462F
:100F10000E9821460BF07EF9089029460AF05DFAFA
:100F20001290189814990BF075F9054630461999E6
:100F30000BF070F929460AF04BFA06461098214644
:100F40000BF068F9079031460AF047FA1190159DA9
:100F5000284621460BF05EF90646149C2046169959
:100F60000BF058F931460AF038FA01460D980AF0AC
:100F700034FA0D90284617990BF04CF90646204696
:100F80001A990BF047F931460AF027FA01460898FA
:100F90000AF023FA0890284618990BF03BF9064608
:100FA000204619990BF036F931460AF016FA014637
:100FB00007980AF012FA159016980C9C21460BF02F
:100FC00029F921460AF009FA01460F980AF005FAB4
:100FD00006461490179821460BF01CF905461A98FE
:100FE00021460BF017F929460AF0F7F901460E9849
:100FF0000AF0F3F91790189821460BF00BF9054603
:10100000199821460BF006F929460AF0E6F901463F
:1010100010980AF0E2F916900D9821460BF0FAF8B4
:1010200005460F90139821460BF0F4F810902946CE
:101030000AF0D3F9014630460AF0CFF91A90089E1B
:10104000304621460BF0E6F805460E9012982146F0
:101050000BF0E0F8069029460AF0BFF90146179810
:101060000AF0BBF91890159821460BF0D3F8054605
:101070000790119821460BF0CDF8059029460AF00B
:10108000ACF9014616980AF0A8F9199010980D9934
:101090000AF0A3F90546149821460BF0BBF80D9011
:1010A00029460AF09AF91490069831460AF095F903
:1010B0000646179821460BF0ADF8179031460AF016
:1010C0008CF91090059815990AF087F9054616983D
:1010D00021460BF09FF8064629460AF07EF9159046
:1010E0000F9813990AF074F901460D980AF075F9F2
:1010F00004460E9812990AF06BF9014617980AF007
:101100006CF90546079811990AF062F901463046D4
:101110000AF063F9024614480178012911920F95EB
:1011200036D1124800680E90114800681690114898
:1011300000680890104800680D9010480168104839
:10114000006807900F48006812900F4800681790D9
:101150000E4800680C9026462846154644E0C046D6
:1011600035FA8EBC35FA8E3CBA282020A0272020E4
:10117000AC272020B8272020A4272020B02720201B
:10118000BC272020A8272020B4272020C0272020EB
:1011900065491A9808606549189808606449199B60
:1011A0000B6064491498086063492646109C0C60E3
:1011B0006249159A0A6062490E6062490D6062498F
:1011C000119808601B99614D29700C900546179283
:1011D00012930F9A0792214618980D90089614982A
:1011E00016901A980E90104605910BF013F80446CD
:1011F0000696304616990BF00DF821460AF0EDF8E8
:101200000446284617990BF005F821460AF0E5F840
:1012100005464F4C21460BF08EFE13907F20C605ED
:10122000284631460BF0A2FE002800D12E46139826
:10123000002800D13446204608F0BAFF139007F08A
:10124000C9FDB84343490BF091FE002800D183E06B
:101250000F9D284607990AF0DDFF0446069E30469A
:1012600008990AF0D7FF21460AF0B7F80446119F03
:1012700038460C990AF0CEFF21460AF0AEF80C90E1
:1012800028460D990AF0C6FF044630460E990AF02A
:10129000C1FF21460AF0A1F80446384612990AF027
:1012A000B9FF21460AF099F812901098059F394627
:1012B0000AF0B0FF05461498169C21460AF0AAFFD2
:1012C00029460AF08AF805461598179E31460AF015
:1012D000A1FF29460AF081F80546189839460AF018
:1012E00099FF07461A9821460AF094FF39460AF0FA
:1012F00074F80746199831460AF08CFF39460AF00F
:101300006CF807461B98C607129870400C9909F0B4
:10131000F1FC1A9077403846294609F0EBFCE34986
:101320000AF078FF074647E0A0272020A4272020C6
:10133000A8272020AC272020B0272020B427202059
:10134000B8272020BC272020C0272020BA28202012
:10135000000080BF17B7D138189D284607990AF0BA
:1013600059FF04461A9E304608990AF053FF214659
:101370000AF033F8044619980C990AF04BFF2146FD
:101380000AF02BF8044628460D990AF043FF05465B
:1013900030460E990AF03EFF29460AF01EF805462F
:1013A000199812990AF036FF29460AF016F80146F4
:1013B000204609F09FFC1A90BC4913980AF02AFFB6
:1013C0000446BB490BF0D2FD00281FD0B94DB84EE2
:1013D000204629460AF001F8044631460BF0C6FDC6
:1013E000002813D02046294609F0F7FF044631466D
:1013F0000BF0BCFD002809D02046294609F0EDFF7E
:10140000044631460BF0B2FD0028E1D1AA4920463E
:101410000BF091FD00281FD0A84DA74E204629466D
:1014200009F0DBFF044631460BF085FD002813D0A0
:101430002046294609F0D1FF044631460BF07BFDDA
:10144000002809D02046294609F0C7FF0446314646
:101450000BF071FD0028E1D1954938460BF086FD6F
:1014600000281FD0934D924E3846294609F0B5FF0B
:10147000074631460BF07AFD002813D0384629463E
:1014800009F0ABFF074631460BF070FD002809D08C
:101490003846294609F0A1FF074631460BF066FDA4
:1014A0000028E1D1844938460BF045FD00281FD0C3
:1014B000824D814E3846294609F08FFF0746314656
:1014C0000BF039FD002813D03846294609F085FF76
:1014D000074631460BF02FFD002809D03846294633
:1014E00009F07BFF074631460BF025FD0028E1D1CE
:1014F00073491A980AF08EFE05466D490BF036FDC9
:1015000000281ED06A4E28466A4909F066FF054643
:1015100031460BF02BFD002813D02846654909F011
:101520005CFF054631460BF021FD002809D0284616
:10153000604909F052FF054631460BF017FD0028BF
:10154000E1D15D4928460BF0F6FC00281ED05A4E2A
:1015500028465A4909F041FF054631460BF0EBFC9D
:10156000002813D02846554909F037FF0546314673
:101570000BF0E1FC002809D02846504909F02DFF66
:10158000054631460BF0D7FC0028E1D14D480560F7
:101590004D481B990170002120461B910BF0DDFC8A
:1015A00006464A4920460AF035FE3F2109061A91AF
:1015B000BF210C06002E214600D01A9909F00DFF1C
:1015C0000CF038F8199038461B990BF0C6FC06460B
:1015D00038463E490AF01EFE002E214600D01A99D8
:1015E00009F0FBFE0CF026F8189028461B990BF02A
:1015F000B4FC0646284635490AF00CFE002E21466A
:1016000000D01A9909F0E9FE0CF014F81790099D22
:1016100028461B990BF0A1FC064628462B490AF0E8
:10162000F9FD002E214600D01A9909F0D6FE0CF0E3
:1016300001F816900A9D28461B990BF08EFC074670
:10164000284622490AF0E6FD002F214600D01A99CB
:1016500009F0C3FE0BF0EEFF07460B9E30461B99C8
:101660000BF07BFC0546304618490AF0D3FD002DEF
:1016700000D01A9C214609F0B0FE0BF0DBFF189950
:101680000091179901911699029103970490104ABD
:101690001CA8C021199B0BF06DFE401EBE2802D86D
:1016A0001CA80BF065FD4FB0F0BDC046E02E65C232
:1016B000000034430000B4C3000034C30000B4434E
:1016C000E02E6542C8272020BD2820200000C84207
:1016D000BA1A0100F0B5FFB08EB004930692064628
:1016E000929802900025E84305908C91346820463A
:1016F0000CF088FA21188B9503918C4200D3BCE042
:101700000020879087A908738890059889902F46B4
:10171000049D2078002800D1B2E0252805D0641C63
:1017200034600699A8477F1CF3E78B97601C3060F4
:1017300087AC2046314600F0BBF88CAA20463146E3
:1017400000F0D7F8306801780B46683B0122D3419E
:10175000092B2BD87B441B795B009F4404130A2779
:1017600027271627271943788799682B19D1520202
:1017700004E0437887996C2B10D1120211438791B2
:10178000801C12E08799D20204E08799520301E09D
:10179000879912030A438792401C06E0401C4022AE
:1017A00001E0401C2022114387910178441C3460E1
:1017B00087A80173732913D06E291DD187983249E8
:1017C0000840411E02464A408A423CD900282DD09A
:1017D000414201402D484143C80E2DA1085C26E03E
:1017E00087A80078400619D4009587A88CAA8BABEF
:1017F000069900F03DF92AE007AD87A98CAA284692
:1018000000F08CF9024628460699029B9847411C35
:10181000059D00D0C5198B9503991AE0009587A8FE
:101820008CAA8BAB069900F0C0F810E02020401F76
:10183000082808D878440079400087441904040D2A
:1018400014040D0404008C9802C88C900F60039956
:101850008B9D681C13D050E7F8178C9904C98C91A4
:1018600017605060F3E78C9802C88C900F70EEE719
:101870008C9802C88C900F80E9E72F4600E0059F06
:1018800038467FB00EB0F0BD603F000031B57C0738
:1018900000011C021D0E18031E16140F1911040856
:1018A0001F1B0D17151310071A0C12060B050A093A
:1018B00010B50A680124E3071AD01378302B0CD036
:1018C000232B0ED02B2B0AD02D2B04D00024202B21
:1018D000F1D1042306E0012304E0102302E00223F7
:1018E00000E0082304681C430460521C0A60E1E71E
:1018F00010BDFEB516460D460446086802782A2A31
:1019000010D13068011D316000686060002805D585
:101910004042606020680121014321602868471C23
:101920002F6017E00021303A092A08D84218531CCA
:101930002B60435C6F467B545278491CF3E76A4640
:101940000023535412784718002A03D068460BF03E
:1019500079FD606038782E2826D1781C2860797847
:101960002A2908D13068011D31600068A06028680C
:10197000401C2860FEBD00203039092908D83918DC
:101980008A1C2A604A786B461A548978401CF3E70F
:101990006A46002111541078002804D068460BF0E4
:1019A00051FDA060FEBDA160FEBDF0B587B01E4632
:1019B0000C9F13681C1D14601D68002D3AD0049103
:1019C00006908468002C04D428460CF00BF984425D
:1019D00003D328460CF006F9044606984068A04256
:1019E000039000DC204601463068019140180594C0
:1019F0000399A142029630600EDD06980078C00778
:101A00000AD1059801990E1A0024B44204DA202064
:101A10000499B847641CF8E70026049C06980599C9
:101A20008E420ADA2868010A18D12D1D2146B847CE
:101A3000761CF3E70020B84718E00599039A8A421C
:101A400014DD0078C00711D00198451A0024AC427B
:101A50000CDA20200499B847641CF8E70020C04342
:101A6000029908600CF050F95821016007B0F0BDF0
:101A7000F0B585B00C4606460A9D1068011D116040
:101A800000680490002844D00393B768002F04D462
:101A900004980CF0B7F8874203D304980CF0B2F81E
:101AA000074602967268BA42114600DC3946039B2B
:101AB0001868009140180192BA4218600FDD029830
:101AC0000078C0070BD10098C01B03900026039834
:101AD000864204DA20202146A847761CF7E7002634
:101AE000BE4205DA0498805D2146A847761CF7E7D8
:101AF0000198B84210DD02980078C0070CD0009819
:101B0000C61B0027B74207DA20202146A8477F1CC2
:101B1000F8E700202146A84705B0F0BDF0B589B030
:101B200005920E4604467F208000271848680390DF
:101B300000250795FF210491FE31202220460192C5
:101B40000BF086FF3046089702977D70367B314652
:101B50006339152906903DD801228A40604B1A420C
:101B6000069822D007A908AA059B00F0BDF80698A0
:101B70000025067B012731466F390929059504D8D0
:101B800001228A4057490A423FD1582E3DD0016870
:101B900002230B40079A002A27D008994A1E089270
:101BA0002D220A705F425F412FE0002912D1059B70
:101BB0001A68111D19601268D1B24D424D41049945
:101BC000FC316118089102990A70026802218A4367
:101BD0000260CEE7252E02D0582EC3D0CAE70020DF
:101BE000607025202070012078E0002B07D1490784
:101BF0000BD5089A511E08910199117005E0089AB9
:101C0000511E08912B211170002703990397651825
:101C1000089B0178C907264608D10299491CC91AB0
:101C200042689142264601DC691A4E1C591C0498F0
:101C30004300002730463A460BF084FE0890059991
:101C4000002903D0411C0891077000E00146A94219
:101C500006D8481E691A491C20220BF0F9FE2F7085
:101C600006980078C00606D4311B202220460BF0CF
:101C7000EFFE059D2EE0A642059D2BD0311B30279F
:101C800020463A460BF0E4FE069B0798414241414C
:101C900003980140012905D11878400702D4304645
:101CA000214604E03078611C2070701C37701A7B6C
:101CB000412A0CD0582A05D0612A08D0782A01D0B0
:101CC000702A07D11B781B0701D4612A02D1427800
:101CD0004A70477020460BF095FF401909B0F0BDDF
:101CE0004230240043020000F8B514460F46054672
:101CF0008068002804D4286810218843286001E007
:101D00000120A860287B1026582808D0782806D003
:101D1000702804D06F2801D1082600E00A26284642
:101D2000194600F055F8AA68002A09D102460A436C
:101D300006D12878000749D52B7B0020024612E007
:101D40002B7B642B03D16423002905D40AE0692B83
:101D500008D1002906D5692301223A6000224042B9
:101D60008A4100E00A4600941146324600F0CEF85F
:101D7000A968884206DA401C21684A1E2260302287
:101D80000A70F5E7287B582803D0782801D07028FE
:101D90000FD1297809070CD5702800D17820216847
:101DA0004A1E226008702068411E216030210170A7
:101DB000287B6F280AD12878000707D5206841784A
:101DC000302903D0411E216030210170F8BDC0468A
:101DD00010B5037B702B05D10868021D0A600068EE
:101DE00000227BE002683E481040421E04465440F8
:101DF000944216D9002807D0424202403948504345
:101E0000C00E39A2105C00E02020401F082808D82E
:101E100078440079400087444C04041E38041E04B2
:101E2000040000221846643814280DD80124844088
:101E3000354804420AD12120044205D00868021D19
:101E40000A600068C21749E0582B46D10868031D94
:101E50000B60006842E018466438142807D8012255
:101E600082402948024206D12120024203D10020AB
:101E7000582B024632D10868C21D07208243104603
:101E8000083008601068526828E00022184664385C
:101E9000142807D8012484401B48044204D121207F
:101EA0000442CBD1582B18D10868031D0B60007871
:101EB00014E0002218466438142807D8012484400E
:101EC0001148044204D121200442B7D1582B04D137
:101ED0000868031D0B60008800E01046114610BD25
:101EE000603F000031B57C0700011C021D0E180385
:101EF0001E16140F191104081F1B0D1715131007B8
:101F00001A0C12060B050A0900081200FEB5019210
:101F10000D460646582B01D0174800E015480090A2
:101F2000089802903046284305D1029A1068411E55
:101F3000116030210170019C3046284313D0304697
:101F40002946224600F01AF807460D4622460BF0B5
:101F5000E7FC301A0099085C029B19684A1E1A6057
:101F600008703E46E8E7029800680BF04BFE401E02
:101F7000FEBDC046C31F0100F61F010080B5102A38
:101F800006D0082A09D1C0084A078018C90880BDB0
:101F900000090A078018090980BD002904D11146EB
:101FA0000BF092FA002180BD00230BF0CDFD80BD27
:101FB000F0B59DB0094F3878042800D982E281003D
:101FC00001A251588F46C046E11F0000E7200000E3
:101FD00051230000C5240000D3260000E128202062
:101FE0000024009405208601AA232046214632467B
:101FF000089303F055FA35468F3500951A2320468D
:1020000021460B96324603F04BFA102000950A90B9
:1020100001900294C24A08200421C24B07900BF0A1
:10202000CDF8C14800781F260028354600D0254647
:102030000095BC4F00D0BD4F2021382320460B9A7D
:10204000059303F02DFA00950A9801900294B84A7E
:102050000C20242109903B460BF0B0F8B24F3878A1
:102060000128069600D026460096AE4D00D0AF4D12
:102070005023204605990B9A059303F011FA009618
:102080000A9801900294AB4A3C2109982B460BF028
:1020900095F838780228069800D020460746009028
:1020A000A04D00D0A14D6823204605990B9E3246D5
:1020B00003F0F6F900970A9F019702949E4A542173
:1020C00009982B460BF07AF89C4D009598212046F4
:1020D0003246089B03F0E4F9009501970294984A70
:1020E0009A210798F0E20520860107F0E1FB0B90AA
:1020F00000240094AA2320462146324603F0D0F95A
:1021000035468F3500951A2320462146324603F086
:10211000C7F910200095054601900294894A0820CD
:102120000421804B0BF04AF80B99002900D1D9E229
:1021300006950A9684480078884202D3481E824A4F
:102140001070C0B2001F08907C4D00D208940CA8FB
:102150000C300790682602220BE031461839002027
:1021600000900A9A334603F09BF94836099AD21C2C
:102170000B99089809921718B81EC4B28C421BD24A
:102180000CA9204609F044F8002815D00CA80378C3
:1021900041888088079A00920191029013AD28210E
:1021A00028466A4A0BF0E6F8674801780020049157
:1021B0008C4256D0024655E0314648393346303BD2
:1021C000002000900A9A03F06BF9781EC4B20B98B5
:1021D00084421BD20CA9204609F01AF8002815D019
:1021E0000CA8037841888088079A00920191029098
:1021F00013AD28212846554A0BF0BCF85248017807
:10220000002004918C424CD002464BE031463039DC
:102210003346183B002000900A9A03F041F9B02E93
:1022200000D142E2FCB20B98844296D20CA920461F
:1022300008F0EEFF002890D00CA803784188808831
:10224000079A00920191029013AD282128463F4A37
:102250000BF090F83C4807780020BC4241D0034680
:1022600040E01F22314648393346303B0592009208
:102270000A9A03F015F928780028304DA5D0049863
:102280008442284B069A00D0284B3146443900201E
:10229000059C0094019202900C2013AA0AF08EFF74
:1022A00093E71F22314630393346183B059200929E
:1022B0000A9A03F0F5F828780028204DAFD004984A
:1022C0008442184B069A00D0184B31462C39002016
:1022D000059C0094019202900C2013AA0AF06EFF54
:1022E0009DE71F230A9A3146183905930093334618
:1022F00003F0D6F828780028104D00D135E7BC420D
:10230000084B069A00D0094B314614390020059C31
:102310000094019202900C2013AA0AF04FFF24E7C8
:1023200073230100FFFF0000D128202018C6000001
:102330003023010089210100B02001003084000019
:10234000182001002E240100C2282020E0200100D6
:10235000E34E052080010B900CA80BF0ABFBFD4871
:10236000007802281BD000240094AA23204621468E
:102370000B9F3A4603F094F83D468F3500951A239B
:10238000204621463A4603F08BF810200095019034
:102390000294F44A0820042133460AF00FFFF24D5C
:1023A0000C9B0D980090F14A13AC282120460AF0AE
:1023B000E1FF002600962021382330460B9A03F0D7
:1023C0006FF82078002809D010200096019002961E
:1023D0000C20242113AA2B460AF0F0FE0BF02CFC53
:1023E00005460BF02FFC0090E14A13AC2821204653
:1023F0002B460AF0BFFF00963821502330460B9A37
:1024000003F04EF82078002809D0102000960190A3
:1024100002960C203C2113AAD34B0AF0CFFE0BF0FE
:10242000D1FB05460BF0C6FB0090D24A13AC282125
:1024300020462B460AF09EFF009650216823304626
:102440000B9A03F02DF820780028C74B08D01020F5
:102450000096019002960C20542113AA0AF0AEFEB9
:102460000096682180230A9330460B9F3A4603F07A
:1024700017F81024009601940296BF4A0C256C218F
:102480002846B94B0AF09AFE00963A4698273046FD
:102490000A993B4603F004F8009601940296B74A65
:1024A00084212846B04B0AF089FEB54D0095AA2339
:1024B000304639460B9A02F0F3FF009501940296DC
:1024C000B04AFFE00527BC0100260096AA2330464B
:1024D0003146224602F0E4FF25468F3500951A2347
:1024E000304631460B94224602F0DAFF1020009568
:1024F000079001900296A74A08200421974B0AF002
:102500005DFEA5480078062802D3A3480770384628
:10251000001F099000D20996682602210AE0314680
:102520001839002000900B9A334602F0B9FF483664
:102530000A99C91C09980D18A81EC4B2052C0A9145
:1025400008D80895944800780025049084420BD060
:1025500028460AE0314648393346303B0020009097
:102560000B9A02F09DFF23E01F20E1008B4A575891
:10257000314648393346303B0690009028460B9A46
:1025800002F08EFF059738780028089D10D0049837
:102590008442724B00D0744B314644390020069A75
:1025A0000092079A019202900C20059A0AF006FE0A
:1025B000681EC4B2062C07D2774800780027069020
:1025C00084420BD038460AE0314630393346183B56
:1025D000002000900B9A02F063FF22E01F20E10030
:1025E0006E4A5258314630393346183B08900090B5
:1025F000384617460B9A02F053FF3878002810D05F
:1026000006988442554B00D0574B31462C39002058
:10261000089A0092079A019202900C203A460AF01A
:10262000CDFDB02E2BD0ECB2062C00D377E75A4864
:1026300005780020AC4201D0034600E01F23E100F2
:10264000564A575831461839089300930B9A334627
:1026500002F026FF3878002800D168E7AC423F4BF3
:1026600000D0414B314614390020089A0092079A55
:10267000019202900C203A460AF0A0FD57E7484E1E
:102680003078002800D1474E3D4C00940027982117
:10269000AA2338460B9A02F003FF00940798019092
:1026A000029708209A2132460EE0009500249821D6
:1026B000AA2320460A9A02F0F3FE0095069801909C
:1026C0000294314A08209A21244B0AF077FD224FC8
:1026D0003878234908703448012101701DB0F0BDDD
:1026E000FFFF000000240094202138200B9020469A
:1026F00032460B9B02F0D4FE009401950294234ACB
:102700000C200A902421184B0AF058FD0094502305
:1027100020460B99324602F0C3FE009401950294C4
:102720001B4A3C210A98104B0AF048FD14480090BF
:102730009821AA232046324602F0B2FE10480090AB
:10274000019502940F4A08209A21044B0AF036FDA5
:10275000BEE7C046E2282020E1282020FFFF00003D
:10276000E22820201524010018C600006222010082
:102770004B2001002E1F0100D0200100302201005B
:10278000308400005C2401009020010044230100FB
:10279000671F010098230100BF282020501C010062
:1027A00028272020B6210100E0282020F0B5BDB068
:1027B0000546BA4909F0BCFD00283BD0B849284677
:1027C00009F0B6FD002843D00127B649284609F094
:1027D000AFFD002856D009970024B34903E0E41C5C
:1027E000012A00D1B8E02A5D0B5D9A4200D092E048
:1027F000002A00D1B0E02A190B1956785F78BE4242
:1028000000D088E02046093847424741002E099E03
:1028100000D03E46002E00D09EE09278987882420A
:1028200079D12046083843424341002A099AD6D03C
:102830001A46D4E7012703F07DF803469B4A0EAD04
:10284000302128460AF096FD28460AF091FCF1E274
:1028500003F070F804460BF051F8002800D18BE02B
:1028600007F0C8F9002800D140E2914E914C9248FF
:102870000AF07EFC2EA818300890E41C0020099075
:1028800060252FE103F056F805460BF037F80028D5
:102890007BD007F0AFF9002800D1CBE2099785483B
:1028A000C51C002660270896844C02E07F1E00D1DC
:1028B00061E23C352EA93C22284605F089FD00281E
:1028C00000D156E22EA80178A529EFD18079012800
:1028D000ECD12EA840880028E8D02EA98A88002AAA
:1028E000E4D0309B72495918A142DFD33199424359
:1028F00050008142DAD1581814306E4A9042D5D235
:1029000001200003081813306D4908408619089803
:10291000401C0890CAE700206A49099F02E0C01CD9
:10292000012A6CD02A5C0B5C9A4239D1002A66D00D
:102930002A180B1856785C78A64231D1002E5ED04A
:1029400092789B789A422BD1841F63426341002A7C
:102950003A46E4D01A46E2E70B355B492EAA2846F0
:102960000AF000FF012800D095E02E98FE2800D93B
:1029700091E007F06BFB5CE2544A0EAD4021284623
:1029800023460AF0F7FC2846AEE1504A0EAE40213D
:1029900030462B460AF0EEFC30460AF0E9FB49E2ED
:1029A00000204B4903E0C01C012A00D1C1E12A5C90
:1029B0000B5C9A4200D09BE1002A00D1B9E12A18B1
:1029C0000B1856785C78A64200D091E104460C3C86
:1029D00067426741002E099E00D03E46002E00D07F
:1029E000A7E192789B789A4200D081E104460B3CA3
:1029F00063426341002A099AD5D01A46D3E70935C4
:102A000031492EAA28460AF0ADFE012800D09DE1EA
:102A10002E9EFE2E00D999E107F0ECF8002800D197
:102A200098E1264C2348C51C602702E07F1E00D198
:102A300090E13C350EA93C22284605F0C9FC00284F
:102A400000D187E10EA80178A529EFD1807901286E
:102A5000ECD10EA841880029E8D00EA88288002A6F
:102A6000E4D01098124BC318A342DFD3119B4A4302
:102A700051008B42DAD1C21814320EA90D4B9A4282
:102A8000D4D24978B142D1D108F0A4F8002800D1BD
:102A9000CFE11048D2E11048C9E1C046B823010097
:102AA000582301006A230100562201005C20010026
:102AB000000081FF01007F003A200100001081FF2B
:102AC00000F0FFFF12230100772401004C1D0100DC
:102AD0003E210100C521010007200100F84E2D1FF5
:102AE00000D1AFE120463C302EA93C2205F070FC1D
:102AF000002800D1F7E02EA80178A52931D18079EE
:102B000001282ED12EA8408800282AD02EA98988F5
:102B1000002926D0309A9319F24FBB4221D3319E1F
:102B20000B4643435B009E421AD193191433EF4F77
:102B3000BB4215D22EAB5B780793329F089B009364
:102B400001ABC3C305920EAE80213046ED4A079B10
:102B50000AF010FC30460AF00BFB0998401C099063
:102B6000E14E204678302EA93C2205F031FC0028A9
:102B700000D1B8E02EA80178A52931D180790128AB
:102B80002ED12EA8408800282AD02EA98988002975
:102B900026D0309A9319D34FBB4221D3319E0B4696
:102BA00043435B009E421AD193191433CF4FBB426B
:102BB00015D22EAB5B780793329F089B009301AB35
:102BC000C3C305920EAE80213046CE4A079B0AF061
:102BD000D1FB30460AF0CCFA0998401C0990C24E4D
:102BE0002046B4302EA93C2205F0F2FB00287AD012
:102BF0002EA80178A52931D1807901282ED12EA8BF
:102C0000408800282AD02EA98988002926D0309A09
:102C10009319B44FBB4221D3319E0B4643435B0013
:102C20009E421AD193191433B04FBB4215D22EAB2A
:102C30005B780793329F089B009301ABC3C3059257
:102C40000EAE80213046AF4A079B0AF093FB304618
:102C50000AF08EFA0998401C0990A34EF0342EA970
:102C60003C22204605F0B4FB00283CD02EA8017879
:102C7000A52900D033E78079012800D02FE72EA8BE
:102C80004088002800D12AE72EA98988002900D190
:102C900025E7309A9319934FBB4200D21FE7319E2C
:102CA0000B4643435B009E4200D017E79319143351
:102CB0008E4FBB4200D311E72EAB5B780793329F58
:102CC000089B009301ABC3C305920EAE8021304632
:102CD0008C4A079B0AF04EFB30460AF049FA0998E5
:102CE000401C0990FAE684480AF042FA0127A1E064
:102CF00000207449099F02E0C01C012A7CD02A5C94
:102D00000B5C9A4246D1002A76D02A180B185678C6
:102D10005C78A6423ED1002E6ED092789B789A4283
:102D200038D1841F63426341002A3A46E4D01A46F0
:102D3000E2E70E3569492EAA28460AF013FD01285C
:102D400074D12EA800780AF025FD72E064480AF0DC
:102D50000FFA6FE01F2E70D870040121090340188C
:102D600007F038FF0028099F64D061480AF000FA94
:102D700060E061485BE0614B981B0899C9B200961E
:102D8000019002915E4A0EAD602128460AF0F2FAE7
:102D900028464CE000224C49089202E0D21C012B4C
:102DA0005CD0AB5C885C834256D110460938464201
:102DB0004641002B384600D0304600284ED1AB1893
:102DC0008E185F787078874246D11446083C60427E
:102DD0006041002F099F00D00746002F099F3DD179
:102DE0009B78B078834237D1D41F60426041002B7A
:102DF0003B46D3D00346D1E709350AA802900BA879
:102E000001900CA8009034490EAA0DAB28460AF098
:102E1000A9FC05283BD10DA802880CA803880B98B3
:102E20000A9900900191FF200EA945E02C480AF074
:102E30009FF9099F38463DB0F0BD2E48099F0AF022
:102E400097F9F7E70998C3B22F4A0EAC80212046C4
:102E50000AF090FA204647E7089FEBE70A350AA8F0
:102E600002900BA801900CA8009018492EAA0DAB57
:102E700028460AF077FC2E9BFE2B01D8002100E0AB
:102E800001210528384600D10846012803D1114800
:102E90000AF06EF9CEE70E4A0EAD102128460AF070
:102EA00069FA2EA800780DA90A880CA90B880B993D
:102EB0000A9C00910194294601F078FABAE7C046CD
:102EC000000081FF08230100C0220100E51F01006E
:102ED000CF23010020210100411F010077240100C0
:102EE0007A210100001081FF000081FF01007F00B6
:102EF000C5210100061F0100B41E010000F07E0084
:102F0000801C0100501B0100E81D0100F0B5C5B098
:102F10000AA80790B6480078012800D037E209A82F
:102F20000AF06CFB002800D131E2079820300790AE
:102F3000B04DB14CB14E05E009A80AF05FFB002886
:102F400000D124E2099829684A1C2A60AC4B5854E5
:102F5000AC4F39680B0A4840C0B28000AA490858F3
:102F6000584038602068401C206001210891090207
:102F70008A4202D031688842DED1A44E3068A0492E
:102F800003F0C8FC002800D1F6E128683168081871
:102F9000306000272F6023681EAE282130469C4AEF
:102FA0000AF0E8F93046954E0AF0E2F821683068F8
:102FB0008142C1D193490968CD43964919919649F7
:102FC000098819AA918095490988D18008991B918F
:102FD0001C901D958648077091480068A84200D053
:102FE000D0E19048006819A9142203F093FC00284E
:102FF00000D1C9E18C48C41C03953C341EA93C2275
:10300000204605F0E5F9002807D01EA80078FF2823
:1030100000D1C0E17F1C602FEFD18348C51C002781
:10302000602182480590069128463C3036A93C260E
:10303000324605F0CDF9002800D19BE136A8017891
:10304000A52929D18079012826D136A840880028D1
:1030500022D036A9898800291ED0389A744BD318FB
:10306000744CA34218D3399B41434800834213D187
:10307000D01814306C4988420ED27C1CF8B24643FA
:103080006A48801936A94CC94CC0CCC9CCC0CCC93F
:10309000CCC0CCC9CCC000E03C462846783036A92C
:1030A0003C26324605F094F9002800D162E136A8AA
:1030B0000178A52929D18079012826D136A8408810
:1030C000002822D036A9898800291ED0389A584B6A
:1030D000D318584FBB4218D3399B41434800834211
:1030E00013D1D0181430504988420ED2671CE0B278
:1030F00046434E48801936A91CC91CC05CC95CC037
:103100005CC95CC05CC95CC000E027462846B4309E
:1031100036A93C26324605F05BF9002800D129E1AA
:1031200036A80178A52929D18079012826D136A889
:103130004088002822D036A9898800291ED0389AD4
:103140003B4BD3183B4CA34218D3399B4143480017
:10315000834213D1D0181430334988420ED27C1CDC
:10316000F8B246433148801936A94CC94CC0CCC985
:10317000CCC0CCC9CCC0CCC9CCC000E03C46F035FA
:1031800036A93C262846324605F022F9002800D10F
:10319000F0E036A80178A5294ED1807901284BD1DD
:1031A00036A84088002847D036A98988002943D00E
:1031B000389A1F4BD3181F4FBB423DD3399B414315
:1031C0004800834238D1D01814301749884233D28E
:1031D000671CE0B246431548801936A91CC91CC0BB
:1031E0005CC95CC05CC95CC05CC95CC025E0C04611
:1031F000D02820206428202058282020DC272020C8
:103200008023202060282020C01101009828202041
:10321000B11F0100494D4730B428202096272020B7
:10322000D8272020D427202001007F000000202064
:10323000000081FF001081FF27460698011F00D083
:10324000F1E6E448451E284605F09CFF002800D121
:1032500090E0E14805F096FF002800D18AE0DF48C1
:1032600005F090FF002800D184E0DD4805F08AFFDA
:1032700000287FD0DB4805F085FF00287AD0DA48A7
:1032800005F080FF002875D0D84805F07BFF0028A6
:1032900070D0D74805F076FF00286BD0FF20C00320
:1032A00005F070FF002865D0D24805F06BFF0028BC
:1032B00060D0D14805F066FF00285BD0CF4805F00C
:1032C00061FF002856D0CE4805F05CFF002851D0A1
:1032D000CC4805F057FF00284CD0CB4805F052FFF2
:1032E000002847D0C94805F04DFF002842D01EAE47
:1032F000304614302C21FF220AF0AAFBC4481E904D
:10330000C4481F900898000320902195002422941F
:1033100040222846314603F0FDFA00282AD038061C
:1033200012D0FEB2AB4D3F35602C23D03C22284654
:10333000059903F0EFFA00281CD0641C05983C3076
:1033400005903C35A642EFD1B44809F011FFA148E1
:10335000C41C00273C341EA93C22204605F038F846
:10336000002807D01EA80078FF2812D0781C074636
:103370006028EFD1A84808E000208C490870286038
:103380008C4802E08E4800E08F4809F0F1FE45B01D
:10339000F0BD874E039D0AAC201D3821FF220AF0A4
:1033A00057FBA52020709E480078607082480088F6
:1033B000608082480088A0800898A07181480068D9
:1033C0000C9030680D900E958248C51C002004902A
:1033D000602603E02746069C761E35D03C351EA9A4
:1033E0003C242846224604F0F3FF00282CD01EA9D6
:1033F0000A78A52AF0D189790129EDD11EA94A8838
:10340000002AE9D006943C461EA98F88002FE1D0FF
:10341000209B6F4905935B186C498B42DAD3219B43
:1034200057437A009342D5D1239A04998A4227467A
:1034300000D8049A0599C9181431664B9942069C24
:1034400000D3049A0492C7E7002803D1584E079D81
:10345000089803E00498401C554E079D0F90714951
:103460000A780AA80276002A47D04A780AA8427643
:10347000002A45D08A780AA88276002A43D0CA78E2
:103480000AA8C276002A41D00A790AA80277002A3F
:103490003FD04A790AA84277002A3DD08A790AA803
:1034A0008277002A3BD0C8790AAAD077002839D081
:1034B000087A2870002838D0487A6870002837D0F9
:1034C000887AA870002836D0C87A079AD070002869
:1034D00035D0087B079A1071002834D0487B079AB2
:1034E0005071002833D08A7B079BD81D9A71002A1F
:1034F00031D0C97B0170079D31E019300F212CE0DC
:103500001A300E2129E01B300D2126E01C300C2141
:1035100023E01D300B2120E01E300A211DE01F306A
:1035200009211AE00821284617E0681C072114E049
:10353000A81C062111E0079DE81C05210DE0079D50
:10354000281D042109E0079D681D032105E0079D52
:10355000A81D022101E00121079D0AF080FAF9B2BD
:103560000020E87130485F2900D90EE77F210F4025
:1035700067431849CA193F320AA905461046224630
:1035800003F0C8F901462846002900D1FDE6244889
:1035900003783068009003980190244A1EAC6021A3
:1035A000204609F0E7FE2046EFE6C046D02820205E
:1035B000DC2720209E1E0100B428202096272020F2
:1035C000E1210100D427202029200100001081FFE3
:1035D000000081FF01007F0000107F0000207F00BD
:1035E00000307F0000407F0000507F0000607F00BF
:1035F00000707F0000907F0000A07F0000B07F007F
:1036000000C07F0000D07F0000E07F0000F07F005E
:103610004D49445801006000C91E01002F1E0100E1
:10362000C12820206827202000210100051D01005D
:10363000F0B5C9B0044602E0092808D1641C20781E
:103640001F28F9DD2028F9D03E28F7D003E0002814
:1036500001D122462CE0651C28460AF084F9421C60
:103660002918824201D20A4622E0201803E0C91E2E
:10367000C01EA34215D90278202A01D0092A10D1F0
:10368000A04210D9421E1378202B01D0092B0ED155
:10369000A2420AD9831E1D78202DE8D0092DE6D03C
:1036A00006E0421C04E0024602E08A1E00E04A1ED8
:1036B000002515702178002922D0204604E0C21C84
:1036C000C178002910461BD00A46613AD2B2192AA5
:1036D00001D8203901704178002911D00A46613A99
:1036E000D2B2192A01D8203941708178002907D037
:1036F0000A46613AD2B2192AE1D820398170DEE750
:1037000020784C285DD1607854285AD1A07855286B
:1037100057D1E078522854D120794E2851D1607980
:1037200020284ED1A01DF74908AA0AF01BF801284D
:1037300000D08EE2F44D2878002849D1F34F386844
:10374000F3490968401A43D409A80AF0B3F9F148CB
:103750000024047009F06CFCEF480460EF4804603A
:1037600001262E7038687D21090140186438E84927
:103770000860089D2846214609F0EFFB00283046E6
:1037800000D1E043E64908602846214609F0D3FB12
:10379000002801D0F0074540E2480560E2480AF001
:1037A00089F8E24908700998E14908600A98E149F6
:1037B0000860E1480AF04CFAE0480AF049FAE048AB
:1037C00069E2D24F3968204608F0CCFA002801D0CF
:1037D00049B0F0BD06A80AF06DF90699079A20468F
:1037E00002F0C8FC002806D0CB4800210160CB487D
:1037F0000160D4484FE22078502823D160784928CE
:1038000020D1A07844281DD1E07820281AD1201D8D
:1038100005A90091CC4909AA08AB09F0A3FF032828
:1038200000D018E20999C448089A059B0EC0C34C01
:103830000EC40C3C0C380AF00BFA20460AF008FAC9
:10384000C24828E22078422848D16078412845D1F2
:10385000A078532842D1E07845283FD1207920280C
:103860003CD1601D0025294603F0ACFB0646B84C50
:10387000214609F060FB0490B64F3046394609F006
:1038800075FB002800D137460498002800D13C463B
:10389000A04805709C48057009F0CAFB9E4804606A
:1038A0002046294609F03EFB002809D09B480560C8
:1038B000A1480AF0CDF9A1480AF0CAF909F00CFCB8
:1038C0000021204609F049FB0546F549204608F04D
:1038D000A1FC002D00D1C2E13F21C1E120784D289B
:1038E00052D160784F284FD1A07854284CD1E0783D
:1038F0004F2849D12079522846D16079202843D1D8
:103900007D2000010890A01DFD4909AA08AB09F01F
:1039100029FF002800DCBDE1099D0024284621463E
:1039200009F009FB0490F84E2846314609F01EFBC9
:10393000002800D12E46F7480499002900D13446CA
:1039400009940899814200D90890DC48012101704E
:10395000DB480021017009F06BFB0998DD49086024
:10396000DD4908600898002801D039680818DB494B
:103970000860DB480AF06CF9DA480AF069F9089B3C
:103980000999E6480A4665E02078502866D16078B3
:10399000572863D1A0784D2860D1E07820285DD1E8
:1039A0007D2000010590201D05A90091D74909AA95
:1039B00008AB09F0D7FE022800DA4EE1099E002488
:1039C0003046214609F0B7FA0490CF4D30462946DB
:1039D00009F0CCFA0028284600D130460499002985
:1039E000214600D101460991089E3046214609F042
:1039F000A2FA04903046294609F0B8FA002800D10E
:103A00003546C4480499002900D12C4608940599EC
:103A1000814200D90590A94801210170A8480021E0
:103A2000017009F005FB0998AA4908600898AA499D
:103A300008600598002801D039680818A74908606F
:103A4000A7480AF005F9A7480AF002F9059B089A69
:103A50000999B14808F050FB49B0F0BD20785028D2
:103A60007AD16078552877D1A0784C2874D1E07845
:103A7000532871D1207945286ED1607920286BD1E7
:103A8000A01D9F4909AA08AB09F06CFE022800D0CE
:103A9000FCE07D200490099C2046294609F04BFA61
:103AA0000390994E2046314609F060FA002800D173
:103AB0002646049800010399002900D1354609954E
:103AC0000899814200D908907C48012101707C4806
:103AD0000021017009F0ACFA09987E4908607E491E
:103AE00008603868089908187C4908607C480AF022
:103AF000AFF87C480AF0ACF80899099809F0C2FAC6
:103B000049B0F0BD74240100C628202024282020BC
:103B100030282020CB2820208C2820206828202016
:103B2000EC272020FC272020F8272020C728202051
:103B3000F0272020F4272020E02620200427202022
:103B4000B5220100922201007C230100852301009F
:103B5000000070C200007042207851281BD16078AC
:103B6000552818D1A078492815D1E078452812D1D8
:103B7000207954280FD1607920280CD1A01D002174
:103B80000A2206F0B9FD41424141584A117000280D
:103B90007ED05A487FE02078542819D16078452893
:103BA00016D1A0784C2813D1E078452810D120797F
:103BB00020280DD1601D00210A2206F09DFD411E26
:103BC00002468A4149490A7000285DD1494862E0AD
:103BD0003449204608F0ACFB002810D0324920467A
:103BE00008F0A6FB002828D03049204608F0A0FBAA
:103BF000002826D0204609F09DFD49B0F0BD2F4891
:103C000005702F48057009F013FA2E4805602E48FC
:103C100005602E4805602E4805602E4805602E4838
:103C200005602E4805602E480AF012F82D480AF06B
:103C30000FF809F051FA2C482DE005F055FD49B078
:103C4000F0BD09F043FF1A4805601A4805601A489C
:103C500021E037481FE035481DE02D481BE0BF211B
:103C6000090607F0BAFB09F0E5FC009001902D4A27
:103C70002D4B0120010209A809F07CFB401EFE2803
:103C800000D9A5E509A806E0194804E01D4802E0AE
:103C9000194800E0224809F06BFA49B0F0BDC0466F
:103CA0000000C8425724010061240100A023010044
:103CB0004C28202050282020EF210100CB28202054
:103CC000C62820208C282020682820203828202062
:103CD0004028202084282020882820203C282020BC
:103CE000E026202004272020F4220100D4282020D0
:103CF0006E2201004A220100232201003D22010020
:103D0000C8230100B41101000000AA424E230100A3
:103D10001C2301001027000065240100222401005B
:103D200086220100DE1E0100031B01002623010084
:103D30007A220100F0B5FFB0A4B01E4602911090A7
:103D4000A8980A908000E9490D585C1E1192D01E77
:103D50001821019109F040F9C1178843011B159101
:103D60000D952D190E9081001496B0000F91081A30
:103D7000DF494018061D002766ACAF420DDC1598E0
:103D8000C01903D4306809F01BFD01E00020014692
:103D900003C47F1C0034361DEFE71498C00066A9E9
:103DA0004018083800230D9FBB4224DC12930025E5
:103DB00013900746109C2E461595149886420FDAEC
:103DC00003CC0CCF083F083C09F09AFF159A2B460C
:103DD00005F04BFE15900D46761C0834083FECE7C5
:103DE000129BD80016A90A18159C0C5055605B1C34
:103DF00013980830D7E71720C0430E99484311990C
:103E000041180846183809903020401A04902F2095
:103E10000591401A03900F98B54908180F9016A8FD
:103E2000083808908FA8011FB8000791081806905D
:103E3000F80016A90A180B58526808990E188FA88E
:103E400015900E97384601282ADB37460026139036
:103E500018461146129232461193A64B09F050FFB4
:103E600009F0D2F909F0ACFC04460D4632463E4654
:103E7000A14B09F045FF119A129B05F0F6FD09F0E0
:103E8000C3F9159901C1159103CF22462B46083F6E
:103E900005F0EBFD034613980A46401E083ED2E7A4
:103EA00018461146099F3A4607F024FA05460E4681
:103EB000FF20830500242846224609F021FF06F052
:103EC000D5FA0C9422468D4B09F01AFF2A46334648
:103ED00005F0CBFD04460D4609F096F9064609F0BB
:103EE0006FFC02460B462046294605F0B9FD044604
:103EF000012F15915FDB0E9880008FA90818001F15
:103F000001680A46049B1A4196190B969A40891A31
:103F10000160039801410D9E794D0C9101295ADBF6
:103F2000139400248FA821460E9A91420EDA02685B
:103F3000002C2B4602D1002A06D06B1C9A1A026074
:103F40000124491C001DEFE70024FAE70998012825
:103F50000B996C4F10DB059819286B4803D0059816
:103F60001A2809D169480E9989008FAA5118091F8A
:103F70000A6802400A600B99491C0B910C980228B0
:103F800028D100203946139A159B05F069FD054696
:103F900002200C90002C00D184E000200C46394611
:103FA000099A07F0A7F902460B462846214605F074
:103FB00057FD044610E00B96002FF54D69D02046C2
:103FC0000C9AF44B08F09BFF00280D9E03D00220B2
:103FD0000C90A5E7139C15990025204627460C4612
:103FE0002A462B4608F070FF00285DD00E9CA000EA
:103FF000079909182246B24204DD521E0B681D4380
:10400000091FF8E7002D0699224663D10868521C63
:10401000091F0028FAD014980019C00066A90D18CD
:104020001192601C944232DA129080000F99085865
:1040300009F0C6FB149AA218D20066AB9C189850DF
:104040006160002313952C46109F19461D46149855
:10405000814212DA38681591796822681E466368D1
:1040600009F04EFE32462B4605F0FFFC03460D4696
:104070001599491C0837083CE9E7129CE00016A98D
:104080000A180B505560139D0835119AC9E7174659
:10409000CEE60E9880008FA90818001F0068C11591
:1040A0000D9E3AE72C4697E70198059E821B3846FD
:1040B000214607F01FF905460C460022B74B08F0D1
:1040C0001EFF002824D12846214609F09DF8064607
:1040D0000E9C3AE08FA90818001F099A183A641E2E
:1040E0000168001F0029F9D033E0C04670200100AC
:1040F000C01501000000703E000070C1000020C02B
:10410000FFFFFF000000F03FFFFF7F00FFFF3F00C9
:104110000027A34B284621463A4609F0F1FD09F055
:1041200073F8064609F04CFB9E4B3A460E9F09F089
:10413000E7FD2A46234605F098FC09F065F8B9002A
:104140008FAA50507C1C05980990A0008FA90E5092
:10415000099A002090490F9007F0CCF80646A0007D
:104160008FAA1218E50016A8109547190E94002C76
:1041700019D4159410680C46154609F021FB024627
:104180000B463046214609F0BBFD03C700223046EE
:104190002146834B083F09F0B3FD0646159C641E7B
:1041A0002A1F083FE3E716A8109942180E9F3B46C6
:1041B000002B0A990D982ED41293F91A8842149064
:1041C00000DB14911191002313921746764C194687
:1041D0001D461498814212DC2068159161683A6886
:1041E0001E467B6809F08CFD32462B4605F03DFCEF
:1041F00003460D461599491C08340837E9E711981C
:10420000C0003EA90A180B505560129B5B1E139A02
:10421000083A0E9FCCE7481E02281FD3002955D02C
:10422000032900D0AEE03EA810990C18083C38468F
:10423000002859DD09F062FC02460F462846314647
:1042400015463B4605F00CFC09F01EFDA0C40E9F70
:10425000206015986160401E103CE9E7FE000024D4
:104260002546002F0CD43EA8811982594B68204660
:10427000294605F0FAFB04460D467F1E083EF0E78E
:1042800001260C980028284601D0F00768400299C2
:104290000C6048603E983F9922462B4605F0E0FBB3
:1042A0003EAC08340E9DAE4206DC0CCC083C05F05A
:1042B000DCFB761C0834F6E70C9A002A02D00122B7
:1042C000D2075140029A9060D1605BE0F8003EA9AD
:1042D0000C1800200146002F22D40CCC083C05F01D
:1042E000C4FB7F1E083CF6E73EA810990C18083C5A
:1042F000384601281DDD09F001FC07460B4628461B
:1043000031463A461D4605F0ABFB09F0BDFC27607F
:104310000E9F6560A0601598E160401E083CE8E7CC
:104320000C9A002A02D00122D2075140029A03C2FD
:1043300028E00F980146022F0ADB3EAA109C1319B1
:1043400012595B6805F091FB7F1E083C1094F2E760
:1043500006463F983E9A0C9B002B0CD00123DB07AE
:104360005840409C419D5D405940029B1A601A1D77
:1043700071C2596106E0409B419C029D2A602A1D42
:1043800059C2696107210B9808407FB024B0F0BD85
:10439000FFFFFF000000E03F0000F03F0000704121
:1043A0000000703E000070C1981B0100F0B5FFB026
:1043B000DCB0E09D002D30D0002B2ED0002A2CD078
:1043C000FC4C2478002C28D11C4654436400A542A0
:1043D00023D1F94CF94F2E1913367F1EBE421CD340
:1043E0000A910B900892099301F0A4FA064609F08D
:1043F00085FA002800D155E105F0FCFB00280FD01C
:104400000B98FF2800D156E105F0F4FB00283AD0C4
:10441000EB48C61C6027E84C07E0EA4808F0A8FE15
:104420007FB05CB0F0BD7F1E2DD03C361BA93C2276
:10443000304603F0CDFF002825D01BA80178A52920
:10444000F1D180790128EED11BA840880028EAD05C
:104450001BA98A88002AE6D01D99D84BCB18A34205
:10446000E1D31E9B424350008342DCD1C918143172
:104470001BA8D34A9142D6D241780B988142D2D11F
:104480000B9805F0E3FDE198029028461430049063
:10449000CD490120039000030790281813300840ED
:1044A0000590C748C71C00200690602602E0361F12
:1044B00000D144E138463C300CA93C2203F088FF8F
:1044C000002800D174E10CA80178A5292ED18079AB
:1044D00001282BD10CA84288002A27D00CA8838859
:1044E000002B23D00E98B5494118B34CA1421DD3DF
:1044F0000F9953435A00914218D142181432B04BCD
:104500009A4213D2069CE2B2D20001921BAB019AEE
:104510009A180092019A9850079A51181331AA4A92
:104520001140081800994860641C06943846783099
:104530000CA93C2203F04CFF002800D138E10CA864
:104540000178A5292ED1807901282BD10CA8428889
:10455000002A27D00CA88388002B23D00E989749D7
:104560004118954CA1421DD30F9953435A009142D3
:1045700018D142181432924B9A4213D2069CE2B2DE
:10458000D20001921BAB019A9A180092019A98509E
:10459000079A51181331FC4A1140081800994860D5
:1045A000641C06943846B4300CA93C2203F010FF7A
:1045B000002800D1FCE00CA80178A5292ED1807933
:1045C00001282BD10CA84288002A27D00CA8838868
:1045D000002B23D00E98E8494118E64CA1421DD388
:1045E0000F9953435A00914218D142181432E44BA8
:1045F0009A4213D2069CE2B2D20001921BAB019AFE
:104600009A180092019A9850079A51181331DE4A6D
:104610001140081800994860641C0694F0370CA9F2
:104620003C22384603F0D4FE002800D1C0E00CA89C
:104630000178A52900D03AE78079012800D036E733
:104640000CA84288002A00D131E70CA88388002BEF
:1046500000D12CE70E98C8494118C64CA14200D29F
:1046600025E70F9953435A00914200D01FE74218A3
:104670001432C34B9A4200D319E7069CE2B2D2002F
:1046800001921BAB019A9A180092019A9850079ACE
:1046900051181331BC4A1140081800994860641C35
:1046A000069404E7B54A1BAC40212046334608F087
:1046B00061FE2046B2E600200B90AE4C05F09AFA5F
:1046C000002800D1DFE6AE48C61C602702E07F1E4E
:1046D00000D1D8E63C361BA93C22304603F078FED8
:1046E000002800D1CFE61BA80178A529EFD1807959
:1046F0000128ECD11BA840880028E8D01BA98A8893
:10470000002AE4D01D999C4BCB18A342DFD31E9BFB
:10471000424350008342DAD1C91814311BA8984A89
:104720009142D4D241780B98C0B28142CFD10B983C
:10473000411C80B2FE280B91C0D392486EE60798C8
:10474000059908188E49884232D20699C9B20029C3
:10475000079E3BD0CB001A46103A0693083B079FB2
:104760003E46002403E018340699A1422ED01BAF28
:104770003959814203D239194F68BE4213D3A3423B
:1047800024D01BAF3F19B968814202D2FF68BE42F4
:1047900009D3A2421AD01BA90F1939698142E2D26A
:1047A0007F69BE42DFD20598381875498842D7D351
:1047B000764833E6D0282020001081FF000081FFDA
:1047C00001007F00D41F010000F0FFFF704808F0D7
:1047D000CFFC04988419A6421DD23746384604F00F
:1047E000D1FC002800D18BE007983F18A74212D2D5
:1047F000384604F0C7FC002800D181E007983F1834
:10480000A74208D2384604F0BDFC002878D00798AB
:104810003F18A742E2D31BAF0A98394607F080FF42
:104820005348039901705C490B9808705B490898DC
:1048300008805B49099808805A4805605A480299DF
:1048400001605A48002404605948E1430160594816
:104850000660143658480660584804603878584D49
:104860002870002849D01BA840786870002849D0DB
:104870001BA88078A870002847D01BA8C078E870D3
:10488000002845D01BA800792871002843D01BA818
:1048900040796871002841D01BA88079A871002850
:1048A0003FD01BA8C079E87100283DD01BA8007A32
:1048B000287200283CD01BA8407A687200283BD0A0
:1048C0001BA8807AA87200283AD01BA8C07AE87288
:1048D000002839D01BA8007B2873002838D01BA8DB
:1048E000407B6873002837D01BA8807BA873002802
:1048F00036D01BA8C07BE87337E0681C0F2132E07C
:1049000024488BE5A81C0E212DE0E81C0D212AE08F
:10491000281D0C2127E0681D0B2124E0A81D0A2179
:1049200021E0E81D09211EE02846083008211AE090
:1049300028460930072116E028460A30062112E0F1
:1049400028460B3005210EE028460C3004210AE0F1
:1049500028460D30032106E028460E30022102E0F1
:1049600028460F30039909F07AF8EC73154855E59D
:10497000D0282020001081FF000081FF4C1D010085
:1049800001007F00A020010000F0FFFF541F010084
:104990006B21010080200100C1282020B4282020A4
:1049A00096272020DC272020D827202058282020C8
:1049B00060282020D4272020982820206428202028
:1049C00068272020A7210100F0B589B0064607A876
:1049D00009F070F80798D6490A68871A089AD54BE3
:1049E0001C68151BD44C266008601A60D3480078F8
:1049F000012810D1D2480760D2480560D24801682A
:104A0000002920D0711A1ED4D04900240C60D0494E
:104A10000C60046019E00495CE480468CE4805682F
:104A20002046294608F087FA0028039623D07D20E7
:104A3000C105204606F0D1FC0446294608F096FA46
:104A4000002828D028E0C1480468C44E35682846AC
:104A5000214608F070FA002800D196E03F200106B8
:104A6000284606F0BAFC0546214608F07FFA0028E1
:104A700000D19BE09BE02046294608F077FA002809
:104A800009D0B749204606F0A8FC0446294608F09C
:104A900052FA002800D125460295AE480560B14D76
:104AA0002C68384608F06EFD214606F091FC7D2109
:104AB000CF05394607F0AEFB214606F08EFC0446D2
:104AC0002860A94E3568049808F05CFD294606F078
:104AD0007FFC394607F09EFB294606F07EFC074620
:104AE000306000212046049108F037FA06469F49BD
:104AF000204607F08FFB3F210A06BF210D06002E3E
:104B0000294600D01146019206F067FC08F092FD9C
:104B100004468B4804603846049908F01EFA06469D
:104B20003846924907F076FB002E00D0019D2946B9
:104B300006F053FC08F07EFD82490860201A8C497B
:104B40000860029806900590039E304607F0ACFD81
:104B5000029089480468894D2F780798089906AA19
:104B600005AB03F055FD012F38D1002800D1C3E07B
:104B7000FA4800210160FA480160FA4801607D4866
:104B8000016008F0A9FA09B0F0BD2846214608F0F6
:104B9000EDF900280AD0BF200106284606F01DFCCA
:104BA0000546214608F0C7F9002800D12C4634609C
:104BB000ED4F3E68664805683046294608F0BBF967
:104BC00000285CD03F200106304606F006FC064671
:104BD000294608F0CBF9002862D062E0341B002897
:104BE00005D10798089906AA05AB03F00FF8002C29
:104BF00000D5E4E00127039808F0F8FD00210491B6
:104C0000002818D008F0E6FF0028384600D12878A0
:104C1000C00710D1059C0698002108F083F90028F0
:104C200009D00021204608F07DF9002803D0D248A1
:104C3000069005900497039808F064FD002800D0C2
:104C40002F78F80704D108F0C5FF002800D197E0BD
:104C5000039808F0CBFD002800D1B0E008F0BAFFBF
:104C6000002800D0ABE00698C44C214607F0D2FAE9
:104C700006900598214607F0CDFA04469EE030469E
:104C8000294608F073F900280AD0BF2001063046F3
:104C900006F0A3FB0646294608F04DF9002800D18E
:104CA00035463D602046294606F0B0F8C148006808
:104CB000002108F037F9002800D14CE13C68BF48DA
:104CC0000568BD480068002108F02CF9002800D1D3
:104CD00041E10021284608F025F9002800D13AE1F9
:104CE00000252046294608F01DF9002800D132E1B0
:104CF0009E48057009B0F0BDAC480568684208F0F0
:104D000041FCAB4E314607F085FA04469F480460EB
:104D1000284608F037FC314607F07CFA01469C48EB
:104D200001609D480460A0480160204611E1C04632
:104D30004C2820205028202024282020CB28202048
:104D400000282020142820203C28202084282020EF
:104D500088282020682820208C28202038282020FF
:104D6000000080BEE0272020E42720200000C84269
:104D7000102820201828202030282020C628202075
:104D80000699029C204606F028FB069005982146CD
:104D900006F01EFB059008F01DFF00280FD10698B5
:104DA0000024214608F0C7F8002801D00020069012
:104DB0000598214608F0BFF8002800D00594069C0D
:104DC0006F4E2046314608F0B6F805466D4F204636
:104DD000394608F0CBF80028384600D12046002D8F
:104DE000344600D104460694059D2846314608F015
:104DF000A2F803902846394608F0B8F8002800D1F8
:104E00002F460398002800D13E46059604980028B6
:104E100026D000252046294608F08DF804905A4FE8
:104E20002046394608F0A2F80028384600D120462E
:104E3000049900292C4600D10446069430462946A0
:104E400008F079F804903046394608F08FF80028C9
:104E500000D137460498002800D13D46059500E072
:104E600035464A4804604A48056041480268494856
:104E7000214606F095FD484F38603E480268059986
:104E8000464806F08DFD04903D68069C00262046AD
:104E9000314608F047F80028304624D10395002514
:104EA0002046294608F047F8002801D1204602E0B4
:104EB0000120C00760403A4907F0ACF941210906DA
:104EC00006F08BFA07462046294608F04FF80028DE
:104ED00004D00398394606F080FA03E00398394677
:104EE00006F076FA2C4F3860059F04463846314666
:104EF00008F018F8002828D1254600243846214615
:104F000008F019F8002801D1384602E00120C00756
:104F10007840234907F07EF94121090606F05DFA41
:104F2000204907F077F906463846214608F01EF872
:104F3000002804D00498314606F04FFA03E00498A4
:104F4000314606F045FA06462C46174806602046CC
:104F5000314605F05BFF09B0F0BDC04608282020AF
:104F60001C2820200428202040282020CB28202076
:104F7000E0272020E42720200000E0406666E63E8F
:104F8000000070C20000704200002041082820206C
:104F90001C282020E0262020042820200427202070
:104FA0003333333F8FC2753F18282020EC27202051
:104FB00000007041842820208828202038282020C4
:104FC000F0B597B0109316461D9C6308DA1DD508FE
:104FD00065431393C218521E0B195B1E11900E915C
:104FE00006F0DCFB002D00D17CE10C3CE0B2A1011D
:104FF00080080818C2B2052A00D973E10120159073
:1050000090402B21084200D16CE109921C980D9030
:10501000203EF0B2810116913027474306010C244F
:105020004443681E032108F04FFA491C00200590F4
:105030000329049101D1059804901E9814901698A4
:10504000EC4A10180390EC48C0190690EB48801900
:105050000790EB48001908901098000A0F900D98DF
:10506000000A0C90159880031690032D05D2119E0E
:1050700005980A901290099944E101910498281A20
:1050800002900020119E0A901290139C09990BE047
:105090000E98401C0E90119E0A98C01C0A9002990E
:1050A0008842099900D11AE10029089806D00329FD
:1050B000069803D00129079800D003980A99405C0C
:1050C0000B90002718E0C0B208F0A6FCF348169C2D
:1050D00004600461E8B208F09FFCF0480460129894
:1050E000401C1290C0B2139C214608F0EDF9002933
:1050F00036D07F1C082F35D01598B8400B99084042
:10510000149900291CD0002814D030460E9932463C
:105110000B4606F043FBE14C169D25610F98C0B28B
:1051200008F07AFC256025611098C0B208F074FC84
:105130002560139C761C1198301AA042D9D10AE040
:10514000D649169A0A6100280C9800D00F980D9D38
:10515000B9D0109DB7E70E98401C0E90119E01E04B
:105160000020129009990029089806D00129079873
:1051700003D00329069800D003980A994018407874
:105180000B90002718E0C0B208F046FCC348169CFC
:1051900004600461E8B208F03FFCC0480460129863
:1051A000401C1290C0B2139C214608F08DF90029D2
:1051B00036D07F1C082F35D01598B8400B99084081
:1051C000149900291CD0002814D030460E9932467C
:1051D0000B4606F0E3FAB14C169D25610F98C0B25C
:1051E00008F01AFC256025611098C0B208F014FC84
:1051F0002560139C761C1198301AA042D9D10AE080
:10520000A649169A0A6100280C9800D00F980D9DA7
:10521000B9D0109DB7E70E98401C0E90119E01E08A
:105220000020129009990029089806D001290798B2
:1052300003D00329069800D003980A994018807873
:105240000B90002719E0C0B208F0E6FB9348169CCB
:1052500004600461E8B208F0DFFB90480460129833
:10526000401C1290C0B2139C214608F02DF9002971
:1052700032D07F1C082F00D10EE71598B8400B994B
:105280000840149900291CD0002814D030460E99EB
:1052900032460B4606F082FA804C169D25610F9827
:1052A000C0B208F0B9FB256025611098C0B208F0C3
:1052B000B3FB2560139C761C1198301AA042D8D1FC
:1052C000E6E67649169A0A6100280C9800D00F98F5
:1052D0000D9DB8D0109DB6E700201290DCE6019835
:1052E00003280FD117B0F0BD0E98401C0E90119EF0
:1052F0000A98801C0A900598801C059004998842A1
:105300000999EFD00029089806D00129079803D001
:105310000329069800D003980A99405C0B90002757
:10532000139C18E0C0B208F077FB5C48169C046040
:105330000461E8B208F070FB584804601298401C01
:105340001290C0B2139C214608F0BEF8002936D056
:105350007F1C082F35D01598B8400B990840149938
:1053600000291CD0002814D030460E9932460B4636
:1053700006F014FA494C169D25610F98C0B208F04A
:105380004BFB256025611098C0B208F045FB2560F5
:10539000139C761C1198301AA042D9D10AE03F49DB
:1053A000169A0A6100280C9800D00F980D9DB9D06C
:1053B000109DB7E70E98401C0E90119E01E0002052
:1053C000129005981599084304998842099989D043
:1053D0000029089806D00129079803D003290698C8
:1053E00000D003980A99401840780B900027139C2E
:1053F00022E0C046C0DD000080F50000500701003B
:10540000400D0100C0B208F007FB2448169C046060
:105410000461E8B208F000FB204804601298401CC8
:105420001290C0B2139C214608F04EF8002932D0E9
:105430007F1C082F00D15BE71598B8400B990840F6
:10544000149900291CD0002814D030460E993246F9
:105450000B4606F0A3F9114C169D25610F98C0B2BA
:1054600008F0DAFA256025611098C0B208F0D4FA85
:105470002560139C761C1198301AA042D8D133E7CE
:105480000649169A0A6100280C9800D00F980D9DC5
:10549000B8D0109DB6E70020129029E790320A405C
:1054A000F0B58FB01C460D460A92521E5B1E0B9043
:1054B00006F074F90694A54200D300E1149C012083
:1054C00004908603270A0B98C0430A99081807908E
:1054D000E843069908180321019007F0F5FF481CDE
:1054E00000210591032800D005900D940E9700D15E
:1054F000E2E00321079807F0E7FF481C0021039032
:1055000003280891029101D003980290ED4A08E027
:10551000099DAD1C0899891C05980891814200D10C
:10552000CAE009950A980B9981425BD20398032837
:105530000B9927D0029F0B990C9116610E98C4B25B
:10554000204608F069FAFA48066006610D98C5B26F
:10555000284608F061FAF64A1660012F10D016614D
:10556000204608F059FAF24806600661284608F01D
:1055700053FAEF4A16600C99891CBF1EDCD101E07A
:105580000C99491C079802280E9B2BD30A98471A9E
:105590001661DCB2204608F03FFAE5480660066175
:1055A0000D98C5B2284608F037FAE1480660066152
:1055B000204608F031FADE4806600661284608F009
:1055C0002BFADB4806600661204608F025FAD84829
:1055D00006600661284608F01FFA0E9BD44A166042
:1055E000FF1ED5D10898049908430599884261D0D7
:1055F0000A980B9981428BD2039803280B9927D0E4
:10560000029F0B990C9116610E98C4B2204608F0C7
:1056100003FAC748066006610D98C5B2284608F02F
:10562000FBF9C34A1660012F10D01661204608F01E
:10563000F3F9BF4806600661284608F0EDF9BC4A58
:1056400016600C99891CBF1EDCD101E00C99491C25
:10565000079802280E9B00D25AE70A98471A16614B
:10566000DCB2204608F0D8F9B148066006610D9812
:10567000C5B2284608F0D0F9AD480660066120465C
:1056800008F0CAF9AA4806600661284608F0C4F97D
:10569000A74806600661204608F0BEF9A4480660E7
:1056A0000661284608F0B8F90E9BA14A1660FF1E55
:1056B000D5D12DE7099D6D1C0198022801D20FB0AC
:1056C000F0BD0321079807F0FFFE481C032808904F
:1056D00000D100200590964A04E0099DED1C069833
:1056E0008542ECD009950A980B998142F5D2089829
:1056F00003280B9927D0059F0B990C9116610E98E2
:10570000C4B2204608F088F98948066006610D9801
:10571000C5B2284608F080F9854A1660012F10D0DE
:105720001661204608F078F981480660066128462F
:1057300008F072F97E4A16600C99891CBF1EDCD1F4
:1057400001E00C99491C079802280E9B2BD30A985C
:10575000471A1661DCB2204608F05EF9744806600C
:1057600006610D98C5B2284608F056F970480660E3
:105770000661204608F050F96D480660066128462B
:1057800008F04AF96A4806600661204608F044F9C4
:10579000674806600661284608F03EF90E9B644A99
:1057A0001660FF1ED5D10A980B99814295D20898B0
:1057B00003280B9927D0059F0B990C9116610E9821
:1057C000C4B2204608F028F95948066006610D98D1
:1057D000C5B2284608F020F9554A1660012F10D0AE
:1057E0001661204608F018F95148066006612846FF
:1057F00008F012F94E4A16600C99891CBF1EDCD1C4
:1058000001E00C99491C079802280E9B2BD30A989B
:10581000471A1661DCB2204608F0FEF844480660DC
:1058200006610D98C5B2284608F0F6F840480660B3
:105830000661204608F0F0F83D48066006612846FB
:1058400008F0EAF83A4806600661204608F0E4F8F5
:10585000374806600661284608F0DEF80E9B344A99
:105860001660FF1ED5D10A980B99814200D334E708
:10587000089803280B9929D0059F0B990C91166164
:105880000E98C4B2204608F0C7F8294806600661A1
:105890000D98C5B2284608F0BFF8254A1660012FBA
:1058A00012D01661204608F0B7F82148066006615C
:1058B000284608F0B1F81E4A16600C99891CBF1ED4
:1058C000DCD103E090320A400C99491C0798022869
:1058D00000D202E70A98471A16610E98C4B2204611
:1058E00008F09AF81248066006610D98C5B228467D
:1058F00008F092F80E4806600661204608F08CF821
:105900000B4806600661284608F086F808480660DD
:105910000661204608F080F80548066006612846C2
:1059200008F07AF8024A1660FF1ED5D1D5E6C046C7
:1059300090320A40F0B595B0012001030D91FD4E63
:10594000316147033761850335600424204608F040
:1059500091F93760204608F08DF9F7480068376103
:105960003561204608F086F93760204608F082F954
:10597000FD48006837613561204608F07BF93760E3
:10598000204608F077F9F84800683761356020460E
:1059900008F070F93760204608F06CF9F2480068AA
:1059A00037613560204608F065F93760204608F019
:1059B00061F9ED48006837613560204608F05AF912
:1059C0003760204608F056F9E748006837613560CF
:1059D000204608F04FF93760204608F04BF9E248BE
:1059E000006837613560204608F044F9376020468A
:1059F00008F040F9DC4800683761376135602046BF
:105A000008F038F93760204608F034F9D6480068C5
:105A10000C9037613560204608F02CF9376020463D
:105A200008F028F9D04800680B90376135602046AF
:105A300008F020F93760204608F01CF9CA480068D1
:105A40000A9037613560204608F014F93760204627
:105A500008F010F9C44800680990376135602046A5
:105A600008F008F93760204608F004F9BE480068DD
:105A7000059037613560204608F0FCF83760204615
:105A800008F0F8F8B848006804903761356020469F
:105A900008F0F0F83760204608F0ECF8B2480068EB
:105AA000019037613560204608F0E4F83760204601
:105AB00008F0E0F8AC480068029037613761356063
:105AC000204608F0D7F83760204608F0D3F8A648FB
:105AD00000680E9037613560204608F0CBF83760DB
