:1000000000802020D7500000B3320000B33200003F
:1000100000000000000000000000000000000000E0
:10002000000000000000000000000000B3320000EB
:100030000000000000000000B33200007940000022
:10004000B332000055500000B3320000B33200005C
:10005000B3320000B3320000B3320000B33200000C
:1000600000000000B3320000B332000000000000C6
:1000700000000000B3320000B332000095500000D1
:10008000B3320000B3320000B3320000B3320000DC
:10009000B3320000B3320000000000000000000096
:1000A000B3320000B3320000000000000000000086
:1000B000B332000000000000B3320000B332000091
:1000C000F0B5F3B007930592799A0E92789E0025C9
:1000D000EF437090139112950878A84C201843783C
:1000E000D80628D513984A1CDB0606D5481C11787B
:1000F00061184B78521C0146F6E7139070A8B04780
:100100000446401C01D100F0FAFD04F0AFFF9B480B
:1001100000194078C00603D570A8B0470446F4E73C
:1001200070A804F0D2FF1298401E1290601C934CED
:1001300001D100F0E4FD01200A9054A801466C3181
:100140000C9101460C3103910D30009014A8401C15
:1001500001900B950D971196029554A8702104F00B
:10016000CCFE559770A813A912AA079B984701289F
:10017000109522D0002801D100F0A7FD401C029B61
:1001800001D100F0A4FD0F93274670A8B04704F0FA
:100190005CFF38194078C006F7D4374670A804F0E1
:1001A00094FF1298411E1291601C39D10029109DB4
:1001B0000F9A01D100F087FDB1E01398471C139707
:1001C000417800262A2935460BD101255495871CF4
:1001D000139706E0B819401C1390B85D71A98855B3
:1001E000761CBC5D204630380928F3D971A800215F
:1001F0000F9181550078002803D071A804F070FC9D
:1002000055904C2C2FD0682C20D06A2C0BD06C2C05
:1002100010D0742C0AD07A2C16D10120000307E0EC
:10022000109D0F9A7BE00120C00201E001204003F5
:100230002D1819E0B919481C13904A786C2A4F4CB4
:1002400018D1012000020AE0B81910E0B919481CC1
:1002500013904A78682A494C0ED1012040022D188B
:100260005495881C0AE080355495B819401C119E9D
:10027000424C04E0403500E020355495119E411C6D
:10028000139103780C9A13705B2B28D10A785E2A9D
:1002900005D102210D435495811C139182785D2A6A
:1002A00006D1481C1390097854AA1173009901E0F3
:1002B000084603990F9D0278002A09D05D2A07D0CD
:1002C000421C139200784B1C087010461946F2E746
:1002D0000D705D2A01D1401C13900C9803781846CC
:1002E0005B38132800D94EE70121814024480142A0
:1002F00000D148E731461E4670AC20460F4688477D
:100300000546204604F0DEFE1299681C05D100293E
:10031000109D324603D100F0D6FC109D3246099163
:100320001046583820284CD83E460D9F4000C04605
:1003300078448088400087445301260326031C012B
:100340002603260326032603260351002603CE0098
:1003500025005100510051002603250026032603E5
:100360002603260329032500250026032603CE00A5
:1003700026032500260326032500C046E050000082
:10038000010108001746559C70A8B047214604F0AB
:100390005CFE14AD002934D014AD2D2C02D02B2CD2
:1003A00000D0B2E014A8047070A80C46B0472146F3
:1003B00004F04BFE491EF64A00D1D3E00891019D9E
:1003C000A5E01046413806283E460D9F00D990E032
:1003D000012181407120014200D18AE0559D70A821
:1003E000B047044614AB401C09D004F03FFE2B2C50
:1003F00009D114AB002D0BD12B24002513E03C4672
:1004000011E00027B0E014AB002D0CD02D2C0AD148
:1004100014A8047070A8B0470446401C01D004F032
:1004200025FE6D1E019B204661381A2801D3204607
:1004300001E0204620384928E24F109703D04E288B
:100440002AD1E14F10970026B5421BD01098805D4D
:10045000002816D0214661391A2901D3214601E02E
:100460002146203981420CD11F469C5570A8119914
:1004700088470446401C01D004F0F8FD761C3B463A
:10048000E2E73546E81E41424141083D6842684185
:10049000084310909D1964E20022002D5CD0302C9E
:1004A0005AD10F9230201F46187070A8B0470446EA
:1004B000401C01D004F0DAFD7B1C681E00220121E3
:1004C0001091002800D1AAE1214661391A2900D2F1
:1004D000A8E12146A8E1549901250846284049068B
:1004E000174676D4002800D00EE1059810C8059074
:1004F0000BE1252A00D046E270A8B047252801D09C
:1005000000F000FC04F0B2FD40E20891AC4A00208B
:100510003B46115C8B4204D0401C0728F9D10020D7
:1005200000E01018801A012813D1302C5CD10F95EF
:1005300070A81090B0470546109804F0C3FD202025
:100540008543583D109501D0082010903B460F9DE3
:100550004CE09E49085C48E01946109204920A98C3
:1005600008907CE10027019D3A4638460A990F9190
:1005700062E0559F5498022101400F9114AC002F66
:1005800000D148E170A8B0470546401C089000D152
:10059000B1E010942C46E8B2002303990E7886420D
:1005A0000A4600D01A46491C002E1346F6D10F9B6E
:1005B00059425941531E9A419142119E2546109C21
:1005C00000D098E0611C207004F050FD7F1E0C46A6
:1005D000D5E7002800D09DE0059810C805909AE066
:1005E00078220C980270CDE60A20109018466938DF
:1005F000C0B2102801D3002100E00121EA4FC7401A
:100600000F406F2B06D1302C0AD000200A990F9191
:10061000089A11E020463038414241410F42F4D05F
:1006200028466D1C047070A8B04704F00EFD089AAF
:10063000521E00200F900A98002F24D0002A22D0AA
:10064000002820D020202146814358291BD1089220
:1006500070AF3846B047014638460F460E9A90476D
:10066000E148C0194078800701D4089A0BE02C704B
:1006700070A8B04704F0E9FC089A521E00D138E394
:100680006D1C102010900A9F002A23D01098082873
:1006900004D107202146814330290ED010980A2822
:1006A00003D1204630380A2807D31098102811D1DA
:1006B000CD480019407880070CD56E1C2C7070A8AE
:1006C000119914468847224604F0BFFC521E0027A9
:1006D0003546D9E770A804F0F8FC1298401E129035
:1006E0000020287005460F98384001280D9F119E64
:1006F00000D04BE1F5E270A804F0E4FC12980999EF
:10070000814200D087E004E300245598002841D4BA
:10071000054640E000245598002800D40546632A89
:1007200000D0054670A8B047014604F09FFC632F37
:1007300005D1481E0222D24390420FD917E0481C2F
:10074000022801D3002000E00120A74A5218527865
:10075000D2060A9A00D40246002A08D1002D06D0FB
:10076000002C01D002C400E000246D1EDAE770A85E
:100770000E9A90471298401E12900999814200D11A
:10078000B7E2732F49D1002C47D00020206044E00D
:10079000E15100000125632A00D0054670A8B0474A
:1007A000014604F063FC632F05D1481E0222D243A8
:1007B000904217D921E0481C022809D3002008E004
:1007C000E1510000BD55000001560000E755000052
:1007D0000120854A52185278D2060A9A00D402465D
:1007E000002A0AD1002D08D0002C03D0601C2170F3
:1007F000044600E000246D1ED0E770A80E9A9047D2
:100800001298401E12900999814200D171E2732F13
:1008100003D1002C01D0002020700D9FB6E004927F
:10082000154618E021462039582912D17C7070A84D
:10083000119988470446401C01D004F017FCBA1CEB
:10084000AD1E00200A9904911146109008900F9A4D
:1008500005E0049205460A9808900F9A19460692F8
:1008600016460F95002D0D466ED02B2C39D02D2C11
:1008700037D02E2C2FD0452C01D0652C0BD10898C9
:10088000002846D0109800285ED0002A5CD10120B4
:10089000074610904AE020463A380A21C943884268
:1008A00029460CD8049800284ED04F4800194078AB
:1008B000800704D4202020437028E3D044E02B2C70
:1008C0000FD02D2C0DD0702CDCD0502CDAD0652C14
:1008D000D5D02E2C1DD10698104335D1012006907D
:1008E00023E00898002808D0481E00782021014302
:1008F0006529294601D1174618E00498002823D01D
:10090000481E00782021014370291DD11746294631
:100910000CE0002A07D0204630380122092813D8DD
:100920001746164602E00120109000270C7070A8B0
:10093000119988470446401C01D004F097FB691CBC
:100940000F9D6D1E3A468CE71099481E814110910B
:10095000701E8641002A0A9800D030461099014046
:1009600010910D9F70A804F0B0FB601C02D012998A
:10097000491E129100212970129A099B9342119EDF
:10098000109D00D1A8E1012D00D0B3E10C980178B1
:10099000012508465B381D283ED804A2124C4000B1
:1009A000105A40008744C046818000002400220085
:1009B00022002200220022004600220057014600A9
:1009C0004600460046002200460022002200220087
:1009D0002200A30046004600220022005701220008
:1009E0004600220022004600E0500000FFF7B5FB61
:1009F0005499C80701D0FFF7B0FB05980068490675
:100A000000D5C8E014A94A1C0978431C01700029CC
:100A100018461146F7D1C7E0084641380628BF4CB2
:100A200001D9FFF79AFB012282407120024201D1D5
:100A3000FFF793FB14A80078002800D10BE154982D
:100A4000C20700D007E10B46613B172B3AD80022C2
:100A50009B0002A4E358B14C9F46C046D90A00004F
:100A6000570C0000570C00006B0B0000D90A000067
:100A7000D90A0000D90A0000570C00006D0B0000D5
:100A8000570C0000570C0000570C0000570C0000DA
:100A9000570C0000BD0A00008F0B0000570C00002F
:100AA000570C0000570C0000570C0000BD0A000056
:100AB000570C0000570C0000BD0A000078293FD0F9
:100AC00008223EE04139062900D9C4E001228A40CB
:100AD00071210A4200D1BEE0C021084080281ED00A
:100AE000402826D114A8002101F002F91BE05498F7
:100AF000C10701D0FFF731FB89490840411E02467A
:100B00004A408A4200D894E0002800D183E0414264
:100B1000014084484143C80E83A1085C7CE014A8CE
:100B2000002101F0E5F8059B04CB059310605160AE
:100B300091E014A8002101F0DBF803F0E9FC87E064
:100B40001022752900D10A2275490840411E03462A
:100B50004B408B4242D900282ED04142014071487F
:100B60004143C80E70A1085C27E00A226C49084086
:100B7000411E03464B408B4248D9002833D04142A6
:100B8000014068484143C80E67A1085C2CE014A8E6
:100B90000021102224E014A90A78002A02D0491C5E
:100BA00004C0F9E7002101600598001D05900B982D
:100BB000401C0B90FFF7D1FA2020401F08280DD8C9
:100BC0007844007940008744580909045D09043AD3
:100BD0003A0014A8002102F06DFBA4E714A800213C
:100BE00002F0BEFC34E02020401F08280ED8C0468A
:100BF00078440079400087444A09090452090427CF
:100C0000270014A8002101F0E9FE8CE714A80021B8
:100C100002F004FC1CE02020401F082809D8C04630
:100C200078440079400087444204041F48041F04AC
:100C30000400129804F02AFA0860FFF78EFA14A84C
:100C4000002102F037FB03E014A8002101F0C6FEEA
:100C500004F01CFA086054980125294681430B983A
:100C600008180B90FFF779FA1298C117059B04CB6F
:100C7000059310605160FFF770FA14A8002102F08C
:100C80006FFC08E014A8002102F06AFC0BE014A835
:100C9000002102F0C3FB04F0F9F90880DBE714A897
:100CA000002102F0BBFB04F0F1F90870D3E71298C1
:100CB00004F0ECF90880FFF750FA129804F0E6F916
:100CC0000870FFF74AFA0D9F19E00B9F17E00B9889
:100CD000002814D0074612E0002800D121460D4616
:100CE00008E0129809994140E043084302D1ED43DE
:100CF00000E00D9D0B98002800D005462F46384691
:100D000073B0F0BD054670A804F0DCF9681CF1D0A2
:100D100002E008980028EDD00025EBE7E050000045
:100D2000603F000031B57C0700011C021D0E180356
:100D30001E16140F191104081F1B0D171513100789
:100D40001A0C12060B050A09F0B5FFB08EB0049319
:100D500006920646929802900025E84305908C91F1
:100D60003468204604F052F921188B9503918C4287
:100D700000D3BCE00020879087A90873889005986D
:100D800089902F46049D2078002800D1B2E02528C4
:100D900005D0641C34600699A8477F1CF3E78B9745
:100DA000601C306087AC2046314600F0BBF88CAA4E
:100DB0002046314600F0D7F8306801780B46683B92
:100DC0000122D341092B2BD87B441B795B009F4424
:100DD00004130A2727271627271943788799682B92
:100DE00019D1520204E0437887996C2B10D112027A
:100DF00011438791801C12E08799D20204E0879901
:100E0000520301E0879912030A438792401C06E0CF
:100E1000401C402201E0401C2022114387910178B0
:100E2000441C346087A80173732913D06E291DD127
:100E3000879832490840411E02464A408A423CD9BE
:100E400000282DD0414201402D484143C80E2DA11C
:100E5000085C26E087A80078400619D4009587A88A
:100E60008CAA8BAB069900F03DF92AE007AD87A963
:100E70008CAA284600F08CF9024628460699029B67
:100E80009847411C059D00D0C5198B9503991AE020
:100E9000009587A88CAA8BAB069900F0C0F810E0EB
:100EA0002020401F082808D8784400794000874453
:100EB0001904040D14040D0404008C9802C88C90CD
:100EC0000F6003998B9D681C13D050E7F8178C991D
:100ED00004C98C9117605060F3E78C9802C88C901D
:100EE0000F70EEE78C9802C88C900F80E9E72F46D0
:100EF00000E0059F38467FB00EB0F0BD603F0000B7
:100F000031B57C0700011C021D0E18031E16140FBC
:100F1000191104081F1B0D17151310071A0C1206C0
:100F20000B050A0910B50A680124E3071AD01378E3
:100F3000302B0CD0232B0ED02B2B0AD02D2B04D0F2
:100F40000024202BF1D1042306E0012304E0102328
:100F500002E0022300E0082304681C430460521CE2
:100F60000A60E1E710BDFEB516460D460446086866
:100F700002782A2A10D13068011D31600068606053
:100F8000002805D5404260602068012101432160AE
:100F90002868471C2F6017E00021303A092A08D83A
:100FA0004218531C2B60435C6F467B545278491C9B
:100FB000F3E76A460023535412784718002A03D0F7
:100FC000684603F08DFD606038782E2826D1781CA5
:100FD000286079782A2908D13068011D31600068BD
:100FE000A0602868401C2860FEBD00203039092917
:100FF00008D839188A1C2A604A786B461A548978AE
:10100000401CF3E76A46002111541078002804D0F0
:10101000684603F065FDA060FEBDA160FEBDF0B5B1
:1010200087B01E460C9F13681C1D14601D68002DA0
:101030003AD0049106908468002C04D4284603F02A
:10104000D5FF844203D3284603F0D0FF0446069818
:101050004068A042039000DC2046014630680191C0
:10106000401805940399A142029630600EDD06985F
:101070000078C0070AD1059801990E1A0024B442DD
:1010800004DA20200499B847641CF8E70026049C81
:10109000069805998E420ADA2868010A18D12D1D92
:1010A0002146B847761CF3E70020B84718E00599B9
:1010B000039A8A4214DD0078C00711D00198451ABE
:1010C0000024AC420CDA20200499B847641CF8E7ED
:1010D0000020C0430299086003F0E8FF5821016036
:1010E00007B0F0BDF0B585B00C4606460A9D106805
:1010F000011D116000680490002844D00393B76874
:10110000002F04D4049803F081FF874203D304988E
:1011100003F07CFF074602967268BA42114600DC73
:101120003946039B1868009140180192BA42186032
:101130000FDD02980078C0070BD10098C01B039008
:1011400000260398864204DA20202146A847761C10
:10115000F7E70026BE4205DA0498805D2146A847DD
:10116000761CF7E70198B84210DD02980078C007B6
:101170000CD00098C61B0027B74207DA2020214672
:10118000A8477F1CF8E700202146A84705B0F0BD1E
:10119000F0B589B005920E4604467F2080002718DE
:1011A0004868039000250795FF210491FE31202215
:1011B0002046019203F09AFE3046089702977D7010
:1011C000367B31466339152906903DD801228A4085
:1011D000604B1A42069822D007A908AA059B00F086
:1011E000BDF806980025067B012731466F3909298D
:1011F000059504D801228A4057490A423FD1582E0A
:101200003DD0016802230B40079A002A27D0089995
:101210004A1E08922D220A705F425F412FE000298A
:1012200012D1059B1A68111D19601268D1B24D4286
:101230004D410499FC316118089102990A700268C5
:1012400002218A430260CEE7252E02D0582EC3D059
:10125000CAE70020607025202070012078E0002B74
:1012600007D149070BD5089A511E089101991170B1
:1012700005E0089A511E08912B211170002703994F
:1012800003976518089B0178C907264608D102997B
:10129000491CC91A42689142264601DC691A4E1C53
:1012A000591C04984300002730463A4603F0B4FD29
:1012B00008900599002903D0411C0891077000E0AF
:1012C0000146A94206D8481E691A491C202203F08B
:1012D0000DFE2F7006980078C00606D4311B202220
:1012E000204603F003FE059D2EE0A642059D2BD06F
:1012F000311B302720463A4603F0F8FD069B07983D
:101300004142414103980140012905D11878400725
:1013100002D43046214604E03078611C2070701CF5
:1013200037701A7B412A0CD0582A05D0612A08D080
:10133000782A01D0702A07D11B781B0701D4612AB3
:1013400002D142784A704770204603F05FFE401990
:1013500009B0F0BD4230240043020000F8B5144645
:101360000F4605468068002804D428681021884369
:10137000286001E00120A860287B1026582808D0AA
:10138000782806D0702804D06F2801D1082600E004
:101390000A262846194600F055F8AA68002A09D1FD
:1013A00002460A4306D12878000749D52B7B002046
:1013B000024612E02B7B642B03D16423002905D461
:1013C0000AE0692B08D1002906D5692301223A6079
:1013D000002240428A4100E00A460094114632460B
:1013E00000F0CEF8A968884206DA401C21684A1E3F
:1013F000226030220A70F5E7287B582803D078282D
:1014000001D070280FD1297809070CD5702800D198
:10141000782021684A1E226008702068411E2160E1
:1014200030210170287B6F280AD12878000707D562
:1014300020684178302903D0411E2160302101709D
:10144000F8BDC04610B5037B702B05D10868021D9E
:101450000A60006800227BE002683E481040421E9D
:1014600004465440944216D9002807D04242024014
:1014700039485043C00E39A2105C00E02020401FC4
:10148000082808D878440079400087444C04041E9A
:1014900038041E04040000221846643814280DD8AD
:1014A00001248440354804420AD12120044205D059
:1014B0000868021D0A600068C21749E0582B46D12F
:1014C0000868031D0B60006842E018466438142861
:1014D00007D8012282402948024206D12120024237
:1014E00003D10020582B024632D10868C21D0720C4
:1014F00082431046083008601068526828E00022D5
:1015000018466438142807D8012484401B48044234
:1015100004D121200442CBD1582B18D10868031DD7
:101520000B60007814E0002218466438142807D8AD
:10153000012484401148044204D121200442B7D13F
:10154000582B04D10868031D0B60008800E010468A
:10155000114610BD603F000031B57C0700011C0240
:101560001D0E18031E16140F191104081F1B0D174A
:10157000151310071A0C12060B050A0900081200B1
:10158000FEB501920D460646582B01D0174800E0E3
:1015900015480090089802903046284305D1029AD9
:1015A0001068411E116030210170019C30462843B3
:1015B00013D030462946224600F01AF807460D4659
:1015C000224603F017FC301A0099085C029B196848
:1015D0004A1E1A6008703E46E8E70298006803F069
:1015E00015FD401EFEBDC046095500001A550000FD
:1015F00080B5102A06D0082A09D1C0084A078018E9
:10160000C90880BD00090A078018090980BD0029A2
:1016100004D1114603F0C6FA002180BD002303F077
:10162000B9FC80BDF0B5A9B0044602E0092808D194
:10163000641C20781F28F9DD2028F9D03E28F7D037
:1016400003E0002801D122462CE0651C284603F067
:10165000F4FB421C2918824201D20A4622E02018DB
:1016600003E0C91EC01EA34215D90278202A01D06A
:10167000092A10D1A04210D9421E1378202B01D084
:10168000092B0ED1A2420AD9831E1D78202DE8D045
:10169000092DE6D006E0421C04E0024602E08A1E64
:1016A00000E04A1E002515702178002922D020462E
:1016B00004E0C21CC178002910461BD00A46613ADA
:1016C000D2B2192A01D8203901704178002911D0ED
:1016D0000A46613AD2B2192A01D82039417081787C
:1016E000002907D00A46613AD2B2192AE1D8203936
:1016F0008170DEE72078502823D16078492820D1F6
:10170000A07844281DD1E07820281AD1201D07A9EF
:101710000091E04909AA08AB03F0F0FA032800D0D1
:10172000A3E10999DC48089A079B0EC0DB4C0EC464
:101730000C3C0C3803F071FC204603F06EFCD848DA
:1017400087E22078422828D16078412825D1A078E6
:10175000532822D1E07845281FD1207920281CD198
:10176000601D0025294600F09BFC0446294603F035
:101770003EF8002800D17CE1F1480570F148056091
:101780002C46F1480560EC4803F047FCEB4803F0B9
:1017900044FC03F017F92746F1E120784D283ED1AB
:1017A00060784F283BD1A078542838D1E0784F2872
:1017B00035D12079522832D1607920282FD17D204F
:1017C00000010790A01DE14908AA07AB03F096FAB3
:1017D000002800DCEFE1089D00242846214603F0A4
:1017E00006F80746DA4E2846314603F01BF8002873
:1017F00000D12E46D749002F00D13446012208944B
:101800000798884200D8D8E10791CD480270D248A5
:101810000460D2480460D24800684018D8E12078BB
:1018200050284FD1607857284CD1A0784D2849D105
:10183000E078202846D17D2000010690201D06A9D1
:101840000091C84908AA07AB03F058FA022800DA49
:101850000DE1089E00243046214602F0C8FF0746ED
:10186000BB4D3046294602F0DDFF0028284600D156
:101870003046002F214600D1014605910891079E70
:101880003046214602F0B3FF07463046294602F0B3
:10189000C9FF002800D13546AE49002F00D12C46A3
:1018A000012207940698884200D8FBE00691F1488F
:1018B0000270F548059A0260F4480460A848006880
:1018C0004018FBE02078502854D16078552851D139
:1018D000A0784C284ED1E07853284BD12079452868
:1018E00048D16079202845D1A01DF24908AA07AB4C
:1018F00003F004FA022800D059E17D200590089CED
:101900002046294602F073FF0746EC4E204631463A
:1019100002F088FF002800D1264605980101002F1B
:1019200000D1354608950798884201D907910846A5
:10193000D04901220A70D4490D60D4490D60E049B4
:1019400009684018D2490860D24803F066FBD248C3
:1019500003F063FB089C079E0021204602F059FF1C
:101960000546D849204602F013FC002D00D15EE167
:101970003F215DE1207851281CD16078552819D18C
:10198000A078492816D1E078452813D12079542829
:1019900010D1607920280DD1A01D00210A2201F06C
:1019A0003DFD41424141BE4A1170002800D100E195
:1019B000BF484EE1207854281AD16078452817D1C5
:1019C000A0784C2814D1E078452811D1207920281E
:1019D0000ED1601D00210A2201F020FD411E0246A9
:1019E0008A41AF490A70002800D0A2E0AE4830E139
:1019F0009A49204602F014FC002810D0984920464D
:101A000002F00EFC002824D09649204602F008FC83
:101A1000002822D0204603F089F929B0F0BD95486E
:101A2000057095480560954805609548056095489E
:101A3000056095480560954805609548056095489E
:101A400003F0EBFA944803F0E8FA02F0BBFF934886
:101A5000FFE001F081FA29B0F0BD03F079FA824885
:101A60000560824805608248F3E0A048F1E09748AD
:101A7000EFE000262046314602F0D4FE002873D065
:101A80007F27F905204602F0B2FE00286CD0FF0542
:101A900071E0C046B45500007C032020A003202044
:101AA000C655000073490A707749059A0A6077495C
:101AB0000C60002802D0824909680818744908603F
:101AC000744803F0AAFA744803F0A7FA06AD31CDC2
:101AD000059000262846314602F09BFE07467949CC
:101AE000284602F055FB3F210A06BF210D06002FB4
:101AF000294600D01146049201F0BDFF03F0AEF874
:101B000007462046314602F084FE064620466D49CF
:101B100002F03EFB002E00D0049D294601F0ABFFF1
:101B200003F09CF80097019005980290684A694B71
:101B300086E05C488DE0C0467C032020A003202086
:101B40002A0420201004202000042020E05500005A
:101B50000000AA4210270000080420200C042020C6
:101B6000E0032020965500005D4F2046394602F0E4
:101B700059FE00284FD03F4806703F4807600021BB
:101B8000384602F046FE04464E49384602F000FB55
:101B9000002C01D03F2100E0BF21090601F06BFFBE
:101BA00003F05CF8009001904E4A4F4B48E04248E9
:101BB0004FE03E484DE049484BE02E490A7032491B
:101BC0000C6032490C60002802D03D4909680818B1
:101BD0002F4908602F4803F020FA2F4803F01DFA20
:101BE000089C079E0021204602F013FE0546354959
:101BF000204602F0CDFA002D01D03F2100E0BF21A8
:101C0000090601F038FF03F029F8009001900296D0
:101C10002F4A314B14E017480670174804602046DD
:101C2000314602F0DBFD00282746A8D0A9E5BF21F8
:101C3000090601F020FF03F011F803460096224A3E
:101C400009A8802102F006FF401E7E2800D9E4E6A4
:101C500009A802F06DFE29B0F0BDC046F3550000A2
:101C6000FD550000D8550000F4032020F803202083
:101C70002B5500002A0420201004202000042020DE
:101C8000E8032020F0032020080420200C0420205A
:101C9000EC0320207C032020A00320208C55000092
:101CA0002C0420205E5500006A55000045550000B8
:101CB00038550000E0550000765500000000AA42AB
:101CC000E00320200000C8426F540000A05500002F
:101CD0005454000005560000ED5500005255000018
:101CE00000007042D1540000F8550000AA550000D1
:101CF000F0B58BB00A460346DF4905462E788819B1
:101D000040786D1CC006F9D42D2E01D02B2E01D1A8
:101D1000287801E06D1E304603F0A0F901D301469A
:101D200001E0014620394E293FD0492958D1687831
:101D300003F094F900D220384E284BD1A87803F054
:101D40008DF900D22038462844D1002A01D0E81C61
:101D50001060E87803F082F900D2203849281FD1BA
:101D6000287903F07BF900D220384E2818D1687901
:101D700003F074F900D22038492811D1A87903F072
:101D80006DF900D2203854280AD1E87903F066F9B9
:101D900000D22038002A03D0592801D10835156017
:101DA0002D2E00D1C9E0B749C8E0687803F056F994
:101DB00000D2203841280DD1A87803F04FF900D285
:101DC00020384E2806D1AD490024002A00D12BE14D
:101DD000E81C28E1002A00D013600024214623E1FA
:101DE000A9490591002430280192029317D16878FF
:101DF00003F034F900D220389F4958280FD1A87831
:101E000009184978890707D42E2808D1E8789A4913
:101E100008184078800702D5AD1C9C4805909A4B65
:101E200003F028F9411E88410690984B049403F072
:101E300021F9411E884103900894099421460A948F
:101E40002B782E2B03D1002C3AD1012436E00794B5
:101E50001846303801220928174600D80027069C6A
:101E600062403A4309D0039A002A29D0824AD21804
:101E70005278920724D5092804D8C000844908184C
:101E8000049A0AE0184661381A28049A00D2203BC6
:101E9000D8007F4908187F49401890C80A980899C7
:101EA000059B03F0FFF822463B4601F03EF90A90FD
:101EB00008910998079C001B099001216D1CBFE740
:101EC00001242D2E01D0089802E0E007089A504026
:101ED00005900998860003980028324600D1099A97
:101EE000002909D00698002807920BD01A46613ABB
:101EF0001A2A03D31A4603E00A9C7DE01A46203AC8
:101F0000452A09D00398002812D01A46613A1A2AA5
:101F100000D2203B502B0ED121466B782D2B01D0C7
:101F20002B2B0DD1A81C0290AD780022D4430BE0DE
:101F30000295099E3DE002953BE05149002473E083
:101F4000681C029000241D462A46303A092A26D8E9
:101F500000244D229600303D092D25D82D2B01D08F
:101F6000224600E0624207981218D7177A40D71B22
:101F7000B7420A4600D80022069810420AD1012230
:101F80009002874200D800220398104202D10A2012
:101F900060434419029A501C55780290DBE702987E
:101FA0000219501E029000242D2B00D16442079884
:101FB000261800240A9D284608992246234602F046
:101FC000DFFB002817D106980028059917D04D206F
:101FD0008000864219DD0D4603F068F82221016079
:101FE00000240A9829462246234602F0D2FB002804
:101FF00014D1244913E02C46019A059910E00A985F
:10200000324601F0C5FC044609E0234886420EDC56
:1020100003F04CF822210160214600E01849019AA2
:10202000002A01D00298106020460BB0F0BD002EAF
:102030000FD41A4C019A002E1CD0F00706D00CCCFD
:102040000A98083C03F02EF8019A0A9076080834A2
:10205000F1E77442114D019A002C0BD0E00706D035
:102060000CCD0A98083D03F019F8019A0A9064080B
:102070000835F1E70A9CD3E7E05000000000F87F44
:102080000000F0FF0000F07F00002440000030401E
:10209000E851000048FEFFFFCCFEFFFF8853000020
:1020A000F0B589B00A460746CB4B02903E789819A6
:1020B00040787F1CC006F9D42D2E01D02B2E01D1E3
:1020C000387801E07F1E304602F0CCFF01D3014694
:1020D00001E0014620394E2940D0492959D178786C
:1020E00002F0C0FF00D220384E284BD1B87802F061
:1020F000B9FF00D22038462844D1002A01D0F81C6C
:102100001060F87802F0AEFF00D2203849281FD1C5
:10211000387902F0A7FF00D220384E2818D17879FC
:1021200002F0A0FF00D22038492811D1B87902F07E
:1021300099FF00D2203854280AD1F87902F092FF92
:1021400000D22038002A03D0592801D1083717605F
:102150002D2E00D1C3E0FF20C50521E1787802F0E3
:1021600081FF00D2203841280CD1B87802F07AFFE4
:1021700000D220384E2805D1984D002A00D10FE119
:10218000F81C04E00025002A00D109E10298106043
:1021900006E1944905913028019216D1787802F031
:1021A00061FF00D2203858280FD1B8781918497823
:1021B000890706D42E2808D1F878181840788007A7
:1021C00003D5BF1C8320C00505908649059C204689
:1021D00002F004FB411E884106908320C105204681
:1021E00002F0FCFA411E88410390002407940494F5
:1021F00008943A782E2A03D1002C33D101242FE001
:1022000011463039012509292B4600D800230698AC
:1022100045401D4309D00398002823D06E488318F9
:102220005B789B071ED5092903D888006E490818DA
:1022300008E0104661381A2800D2203A90006A4916
:102240000818DC3805680898059901F0A1FF2946AF
:1022500001F011FC08900798001B079001200490E2
:102260007F1CC6E701232D2E01D0089902E0D90773
:1022700008984140079EB500039800282C4600D1DD
:1022800034460498002809D00698002805910DD0FE
:10229000104661381A2805D3104605E00D4601980E
:1022A000029F7AE010462038452809D0039800287C
:1022B00011D0104661381A2800D2203A502A0CD189
:1022C00007937A782D2A01D02B2A0AD1BE1CBB781D
:1022D0000020C54308E0344632E02C4630E0404D53
:1022E0005EE07E1C0025134618463038092823D8A6
:1022F000002537462D2A01D0284600E06842303BB1
:102300000019092B1BD8C6177040861B262E07986C
:1023100000D80020069901420AD1802E01D8002061
:1023200000E001200399014202D10A206843C51848
:10233000781C7B780746DDE77019471E00E00446ED
:1023400000250898294602F049FA002813D106987A
:102350000028059811D0272C14DB044602F0A6FEB5
:10236000222101600021204602F041FA002812D10A
:10237000FF20C50510E0059D0EE0214601F044FC5C
:10238000054609E02521C9438C420CDC02F08EFE93
:102390002221016000E0124D0198002800D0076062
:1023A000284609B0F0BD002C0AD4104D002CE7D00F
:1023B000E10702D0296801F0EBFE64082D1DF5E766
:1023C00064420A4D002CDBD0E10702D0296801F0FD
:1023D0006BFF64082D1DF5E7E05000000000C07F92
:1023E000000080FF00002041145400008C540000C5
:1023F000F0B587B0044605A802F09EFD0598AA49ED
:102400000A68861A069AA94B1D68551BA84F3C609E
:1024100008601A60A7480078012810D1AB48066010
:10242000AB480560B148016800291ED0611A1CD470
:10243000AF4900240C60AF490C60046017E09E486F
:1024400004689E4807682046394602F0D0F9002803
:1024500023D03F200106204601F00DFB04463946FB
:1024600002F0E0F9002829D029E0A1480468A24E32
:1024700035682846214602F0BAF9002800D1B1E0BB
:102480003F200106284601F0F6FA0546214602F0F3
:10249000C9F9002800D1B6E0B6E02046394602F07E
:1024A000C1F900280AD0BF200106204601F0E3FA56
:1024B0000446394602F09BF9002800D127460397CD
:1024C0007D480760F0174640301AE9174D40691AF9
:1024D00004917B4F3E6802F067FC314601F0C6FA7A
:1024E0007D21CD05294601F053FE314601F0C3FAA6
:1024F00004463860734E3768049802F055FC39463C
:1025000001F0B4FA294601F043FE394601F0B3FA6E
:102510000746306000212046049102F07AF9054612
:1025200069490294204601F033FE3F210A06BF218B
:102530000C06002D214600D01146019201F09BFAB5
:1025400002F08CFB0546614805603846049902F0AC
:1025500060F9064638465C4901F01AFE002E00D0AC
:10256000019C214601F087FA02F078FB5849086087
:10257000281A5849086058480399029A01F0F8FB54
:10258000564E30604F4802684B4D2968544801F060
:10259000EFFB044636682F683846049902F030F99C
:1025A00005465049384601F0F3FD4121090601F086
:1025B00062FA07463046394601F05DFA0646204683
:1025C000394601F058FA0146002D00D0049E4348D8
:1025D000066000D0049944480160304601F0B2FA28
:1025E00007B0F0BD2846214602F01CF900280AD0A9
:1025F000BF200106284601F03EFA0546214602F0BA
:10260000F6F8002800D12C4634603C4F3E6839482B
:1026100005683046294602F0EAF800280BD03F2032
:102620000106304601F027FA0646294602F0FAF87C
:10263000002811D011E03046294602F0F3F80028B6
:102640000AD0BF200106304601F015FA0646294699
:1026500002F0CDF8002800D135463D6020462946DD
:1026600001F070FA22480068002102F0B7F8002853
:10267000B6D03C68204805681E480068002102F07A
:10268000ADF80028ACD00021284602F0A7F80028B9
:10269000A6D000252046294602F0A0F800289FD0A9
:1026A0000448057007B0F0BDF4032020F803202093
:1026B000E00320202A0420200004202010042020F1
:1026C000C4032020C80320200000C842CC032020DF
:1026D000D8032020D40320207C032020D0032020F6
:1026E000A00320203333333FDC032020EC032020E1
:1026F000080420200C042020E8032020F0032020E0
:10270000F0B591B00F90012548000D90400D5C0090
:10271000670D59401095EE070E40AB494D1E441908
:102720008C4200D203E17C198C4200D2FFE0049677
:1027300010990C05611E00910B400025E9430E9194
:10274000A449019423430C93C01B40180290401CE1
:102750000390D0020A90500DD9020B9247189E4860
:10276000C41B3846294622462B4602F043FB48420A
:10277000294622462B4602F03DFB4900C00F441873
:10278000204629463A462B4602F034FB4A42204670
:1027900029462B4602F02EFB4900C00F4418204664
:1027A00029463A462B4602F025FB4A422046294656
:1027B0002B4602F01FFB4900C00F4018441E38464C
:1027C000294622462B4602F015FB06460F460A987C
:1027D000294622462B4602F00DFB70186F411099D6
:1027E000081A0A902A46BA41204629462B4602F08A
:1027F00001FBC20F49008918099146000A98294631
:1028000022462B4602F0F6FA4A00C00F8018CF0F7E
:10281000341809994F41E13C0994AF410F9AD00F08
:102820000D9909180691520008920E98401E0D90BD
:102830002E46AE41084630400346079020462946C2
:1028400002F0D8FA0A910698C043614AD143014385
:10285000521A05922C466C4109982946234602F0EB
:10286000C9FA0690099138462946089A079B02F052
:10287000C1FA0890079138462946059A234602F086
:10288000B9FA05900A9A069BD0182B466B41079F10
:102890003E400D9C089A224082185E4105983818E7
:1028A0006941099A80186941841969410E98401C50
:1028B0004748684181424BD20022019881421098DA
:1028C00000D310460F9B01D3039A029281401F222E
:1028D00042406708D7400F4384405E052046394692
:1028E0000B9A0C9B02F086FA40428E4102994A1ED6
:1028F0003449491E8A423EDC012A48DB00990F40D8
:102900001205C10F73005B18400010992140401858
:102910003A4304990A430021651C51410B9E301A29
:102920000C98984100D3254644D3114642E0002F2D
:1029300028D024498F4204D0002823D0884200D0D8
:10294000F5E62248064300253146284611B0F0BD81
:102950006008CA0784184F080F98060520463946B4
:102960000B9A0C9B02F046FA40428E41039A15499D
:10297000491E8A42C0DD15480499014300252846B6
:1029800011B0F0BD00252946284611B0F0BD002A3F
:1029900013D10E994C400E494F4027430DD1019A57
:1029A00056403043294605D1049911430025284655
:1029B00011B0F0BD284611B0F0BD2946284611B02F
:1029C000F0BDC046FF07000002F8FFFF0000F07FE7
:1029D000FFFF1F00FE03000033F30475F0B58FB056
:1029E00004910546724E01902F78F3195B786D1CA7
:1029F000DB06F9D46F480021CC43631C0E930346D9
:102A000008464B412D2F029403D02B2F0E94694B77
:102A100002D12978059102E06D1E05970E94242AB3
:102A200000DC1046102812D0002831D10A21059A66
:102A3000302A1FD16C7820222243782A1CD1A87812
:102A4000059030184078800720D40C911BE01020AE
:102A50000C90059830281CD16978302020220A4338
:102A6000782A11D1A97805917218527892070BD55E
:102A7000AD1C0EE00C910CE0302C02D3382C00D2AF
:102A800092E008200C903020059002E0AD1C102050
:102A90000C90039700270E981C4619460C9E324650
:102AA0003B4602F077FA0990089132460B973B4675
:102AB00002F0A0F90E9A101A06908C4107940A2E83
:102AC0000A9601D30A200A900B990D910E91059F49
:102AD0003E46303E0A9A96420B9C1CD3344AD21989
:102AE000507843063B460BD51E46373EF41700236D
:102AF00005930C9BF31A2346059A93413B460AD350
:102B000082063CD5573BDC1700221E460C9BF31A6D
:102B10002346934133D2099B0E981A1A089F3A46CE
:102B20008A4118D302465A400B467B40134304D1D6
:102B3000069A921B079AA2410DD300230C9A02F029
:102B400059F930180E904C410D9A511CAA1857781B
:102B50000D912146BCE702F0A9FA222101600498F8
:102B6000002801D0019901600022029B581C1149E4
:102B70004A41039C2D2C00D0184611D111E0049A33
:102B8000002A039C05D00D9E002E019B00D0AB199E
:102B900013602D2C0E9803D1002240428A4100E0A0
:102BA0000A4611460FB0F0BD05946D1C08206FE772
:102BB000E0500000FFFFFF7FF0B58DB00792089056
:102BC000002201260B9149004F0D5900490D0C912F
:102BD000694C651E09977919A142314600D3114607
:102BE000F7070A971F460B9847400C984519A542CE
:102BF000344600D314465F4D0A980740214301290B
:102C00000AD10C98002800D184E0A8427BD0099812
:102C100000287FD0A84276D000960697002601258E
:102C2000079A500DD90208180590D002039031463A
:102C3000089C2246334602F0DDF804900791019586
:102C4000EF0705980743384631462246334602F0DF
:102C5000D1F8089005910B98C0434949CA430243F3
:102C60008A1A02923446744103983146234602F090
:102C7000C1F805460B913846049F3146029A234617
:102C800002F0B8F83F4A17401540079AAA18334691
:102C900073410B9C20187141059C00197141089CDF
:102CA000121958417141099B0C9CE318CC0221D4A4
:102CB000354C1B19C40F490009194000D40F0019E5
:102CC000FC0F520012197D002A4C641EA342069F7D
:102CD00019DC019C2405002B21DD641E21401B050D
:102CE0000B43194639436B420A9C2346934126D233
:102CF000401C2AE0244C1B195B1C1E4C3D46641EE4
:102D0000A342069FE5DD1D480743002639463046AD
:102D10000DB0F0BD0026314630460DB0F0BD1B4D64
:102D20006940C043002A15DB0843002B009916D0E8
:102D3000002817D0009800283146E8D117E06240FB
:102D4000154303D1019A024080187141064630466E
:102D50000DB0F0BD01960843002B0099E8D1019910
:102D60000028E7D10091009800283146CFD12743B1
:102D7000CBE7C046FF07000002F8FFFF0000F07F2E
:102D8000FFFF0F0000F8FFFF01FCFFFFFFFF1F0028
:102D9000F0B5B7B065480078012800D0C3E017A8A7
:102DA00002F0CAF8179814901898139060480068B9
:102DB00012906048006811905F48006810905F486A
:102DC00004685F4805682046294600F04FFE064625
:102DD0000021169101F01DFD07465A49304601F0C9
:102DE000D7F93F2109061591BF210E06002F314664
:102DF00000D0159900F03FFE01F030FF0F902846FB
:102E0000169901F006FD074628464E4901F0C0F923
:102E1000002F314600D0159900F02DFE01F01EFF65
:102E20000E902046169901F0F4FC054620464549CF
:102E300001F0AEF9002D314600D0159900F01BFECF
:102E400001F00CFF0D90404805682846169901F0E6
:102E5000E0FC07463D4C2846214601F099F9002F39
:102E6000314600D0159900F006FE01F0F7FE0C90F7
:102E7000354845682846169901F0CBFC0746284698
:102E8000214601F085F9002F314600D0159900F058
:102E9000F2FD01F0E3FE0B902B4887683846169947
:102EA00001F0B7FC05463846214601F071F9002DC6
:102EB000314600D0159900F0DEFD01F0CFFE04464A
:102EC000234805682846169901F0A3FC07462846C2
:102ED0001C4901F05DF9002F00D0159E314600F02D
:102EE000CAFD01F0BBFE0B99089109940A90139852
:102EF00000901298019011980290109803900F98EA
:102F000004900E9805900D9806900C980790114A21
:102F100017A88021149B01F09DFD401E7E2802D839
:102F200017A801F005FD37B0F0BDC0462C042020E5
:102F3000CC032020D8032020D4032020DC03202031
:102F4000D00320200000C8427C03202000007A44E7
:102F500000042020DF520000F0B5B9B064480068DA
:102F600014906448046800252046294601F051FC6D
:102F700007466149204601F00BF93F2109061891E7
:102F8000BF210C06002F214600D0189900F073FDD8
:102F900001F064FE1690594807683846294601F04A
:102FA00038FC06463846544901F0F2F8002E214616
:102FB00000D0189900F05FFD01F050FE15905048C8
:102FC00006683046294601F024FC074630464A4947
:102FD00001F0DEF8002F214600D0189900F04BFDDB
:102FE00001F03CFE1390474806683046294601F040
:102FF00010FC07463046404901F0CAF8002F214630
:1030000000D0189900F037FD01F028FE12903E48DC
:10301000007811903D480078109002F005F80F906C
:1030200002F008F80E903A4806683046179529468F
:1030300001F0EFFB07463749304601F0A9F8002FB1
:10304000214600D01899149A150100F014FD01F0E2
:1030500005FE14902E4846683046179901F0D9FBBA
:10306000074630462B4901F093F8002F214600D047
:103070001899EA0F0D9200F0FEFC01F0EFFD0646F4
:10308000234887683846179901F0C3FB0546384640
:10309000204901F07DF8002D00D0189C214600F059
:1030A000EAFC01F0DBFD1699009115990191139945
:1030B00002911299039111990491109905910D991A
:1030C00006910F9907910E990891149909910A9602
:1030D0000B90114A114B19A8802101F0BBFC401E36
:1030E0007E2802D819A801F023FC39B0F0BDC046F3
:1030F00080130A40000420200000C8421004202051
:10310000E8032020F00320202A0420202C04202083
:103110007C03202000007A4468520000A454000080
:10312000FCB40124E407634002E0FCB40124E4079A
:1031300008B41D03ED08D60D354356025F007F0D20
:1031400006D12C00344300D0AEE001B0FCBC704787
:10315000A408254307242402FF34A74205D10020F8
:10316000190D090501B0FCBC7047002B03D50024E4
:10317000A61BAC4125000B03DB08C20D1343420222
:103180004800400D07D11C00144300D08CE00EBC59
:103190001000F0BC70470124640723430724240275
:1031A000FF34A04205D10020090D090501B0FCBC87
:1031B0007047002903D50024A21A9C412300C11B9B
:1031C00008D51C002B002500140032002600002426
:1031D000611A3800362925D502B4393949420C0024
:1031E000203C03D22F008F40374301E03700A74037
:1031F000002F01D040210E4302BC20290BD500290D
:103200000ED04C42203420B4A5402C0020BC0D41EF
:10321000CE40361904E000292E000D4120390E4120
:1032200092196B411C0014433ED00024002B04D59E
:10323000012400218A1A99410B00401E52005B4173
:10324000FBD50121890215000D400CD05218002732
:103250007B4101D3401C0BE00721C90115000D4043
:1032600001D189008A43072109028A4352005B4148
:10327000801C19DD07210902FF31884209D30EBCE9
:103280000020C90F0902FF31C900C91D0905F0BCA2
:103290007047190B00050143E40721431805120B81
:1032A000104301B0FCBC70470021002001B0FCBC01
:1032B0007047FEE7F0B58BB014460391564F0646B3
:1032C0003378F9184978761CC906F9D4242C00DD26
:1032D000002401252B2B02D02D2B02D10025337881
:1032E00000E0761E102C10D0002C2BD10A24302B9D
:1032F00028D1737820211943782916D1B378F91889
:103300004978890717D430231CE01024302B19D1B9
:103310007378302120221A43782A04D1B378FA181E
:10332000527892070AD40B460CE0302B01D3382B8D
:1033300006D3302305E0B61C102403E0B61C01E0E0
:10334000761C0824019502900A2C069401D30A20C9
:10335000069000200A9007460590099004961D46A5
:10336000303D06988542059811D32B48C1184978FD
:103370004A0605D51D46373DA54201D2E81706E0AD
:10338000890632D5573BA3422FD2D8171D46079046
:10339000E6170A98089739462246334601F02AFD77
:1033A00022460F462D18079847412846394633468E
:1033B00001F0F0FD089A51400A9A5040084307D1A5
:1033C0000998411C049E301843780A950991C6E774
:1033D0000020C44301F06AFE222101600398002806
:1033E00001D002990160214613E003980028019A58
:1033F0000A9C394605D0099D002D029B00D0731907
:103400000360002063428841002A00D11C4600D19D
:10341000014620460BB0F0BDE0500000F0B585B08D
:1034200016464D4B044625785A195278641CD2062C
:10343000F9D44A4A2D2D02D1521C029202E02B2DC2
:10344000029201D1277802E0641E2F460292242EB8
:1034500000DD0026102E0191009011D0002E27D102
:103460000A26302F24D1677820223A43782A17D1B0
:10347000A778D8194078800717D5A41C102617E024
:103480001026302F14D16178302020220A43782A68
:1034900004D1A778D9194978890708D4074607E0E5
:1034A000302F01D3382F54D30826302700E0A41C36
:1034B0000298314601F076FB3146039041430A2ED3
:1034C0003046049601D30A220492029A511A0291BC
:1034D000002319463E46303E049A96420ED31E4AB9
:1034E000D2195278560603D53E46373E864205D35A
:1034F000920620D5573F87423E461CD2039A9142FE
:103500000AD802D1029A964206D8414371185A1C31
:10351000E3185F781346DDE701F0C8FD2221016062
:103520000198002801D0009901602D2D0B4800D191
:10353000401C05B0F0BD0198002804D0002B009A73
:1035400000D0E21802602D2D01D00846F1E7484274
:10355000EFE7641C0826ABE7E0500000FFFFFF7FA9
:10356000F0B585B002910546474B019028781918AF
:1035700049786D1CC906F9D4242A00DD00220124F3
:103580002B2802D02D2802D10024287800E06D1EBF
:10359000102A11D0002A0DD10A2230280AD16878C9
:1035A00020210143782917D1A8781918497889076B
:1035B00018D4302013461AE01026302816D1687827
:1035C000302120220243782A04D1A8781A18527890
:1035D00092070AD4084609E0302801D338284FD38F
:1035E00030204EE0AD1C102301E0AD1C33460094AA
:1035F0000A2B039301D30A21039100273C4601467D
:103600003039039A91420ED31F4909184A7851065E
:1036100003D501463739994205D3910623D557384A
:10362000984201461FD21846784304970F1838462F
:103630001E46194601F0B6FA0499814205D1611C73
:10364000281940780C463346D9E70020C74301F0DB
:103650002DFD222101600298002801D0019901600E
:10366000384605B0F0BD0298002804D0002C01991E
:1036700000D02919016000980028F1D17F42EFE7BE
:103680006D1C0823B3E7C046E0500000F0B583B0DE
:103690000290384F3C68384D2B883848028800200B
:1036A000934265D001900091384909E036480555AC
:1036B000641C3C60304D2888304A1388984244D0BE
:1036C00028882A462F4B1D5C1088401C7F2303400E
:1036D00013800D2D01D00A2D03D1002C38D10024E8
:1036E000E8E73E2CE2D900243C604525244A0888BE
:1036F000401C1040264F3B8898421FD00B88254E17
:10370000F55408802448051968780B885B1C134021
:103710003F88BB4212D00F88F0550B800F2C11D080
:10372000A8780B885B1C1340194F3F88BB4205D01B
:103730000F88F0550B80E41CED78D8E7174A106825
:10374000401C106000240B4FB4E7019803B0F0BD9B
:103750000098844200D3441E002C04D00A490298E9
:10376000224601F0ABFC002102980155396001208E
:1037700003B0F0BD1C0420202204202020042020BF
:10378000FF010000BC0220203C0320202404202054
:103790002604202000002020F754000018042020D8
:1037A000F0B5394A8218394BC0183A4D4C790B792B
:1037B000002C22D0466F202B02D00524E70100E028
:1037C000354F2E40002B00D188273E434667846F3B
:1037D0002C403C438467446B2D4E34404463846BDF
:1037E0003440846300244465846554688F26F6431E
:1037F000344054609468344094600C688979202B7C
:1038000009D006467036002B15D1641E4460C46E84
:103810002C40882715E0641E4460C46E2C401E4E68
:103820003443C466046F2C40344304671B4D0124A9
:103830006707064607E00527FF0164084460C46E79
:103840002C403C43C46634682C403C433460C46A1A
:103850000F4D2C40C462046B2C4004630024C464EC
:103860000465C46F8F25ED432C40C46714682C4059
:103870001460194302680A4B1340BD220A40D11854
:10388000891C0160F0BDC0468418000004180000C7
:103890008888FDFF24493E0001040000FFFFFFCFA0
:1038A0004000FFCF90B001F093FA01F0AFF801F0C3
:1038B00053FA00F0EDFF00F033FF2D482D49416031
:1038C0002D490A68FF231B069A4303239B07D2183E
:1038D0000A6000258560072101602B4E2B4F02E016
:1038E00001F000F830BF68464021FFF7CFFE002806
:1038F0001AD06C462046FDF795FE40212046FFF782
:10390000C5FE002810D06C462046FDF78BFE4021F6
:103910002046FFF7BBFE002806D06C462046FDF788
:1039200081FE40212046E0E700F0DCFF13480078EC
:10393000012805D11148057011480068FEF758FDAF
:1039400010480078012803D10E480570FFF720FACF
:103950003078012804D135700948006801F09EF8DC
:1039600038780128BCD13D7001F038FBB8E7C0467B
:1039700010E000E0FF7C000020ED00E028042020A3
:10398000040420202D042020290420202B042020A2
:10399000F8B515460C462B4E0A0D771C3A402A4BBB
:1039A0009A4213D0002A1AD10122D207914301432F
:1039B00045D00022254B214601F074FB0C462449DA
:1039C0008D4209DC234A244B214635E0214602463C
:1039D0002346FFF7AAFB31E0220D3A40363A51194F
:1039E000B1420ADD01F062FB222101600120C00723
:1039F00004401D482418002021E0012904DB174A57
:103A00001440090564181AE03522D24391420ADCB9
:103A100001F04CFB2221016012488542E6DA0120C8
:103A2000C0070440E7E70D4A144009051B22520570
:103A30008918214300220A4B01F034FB0C46214631
:103A4000F8BDC046FE070000FF070000000050431D
:103A5000AF3CFFFF59F3F8C21F6EA501FFFF0F80B7
:103A60000000903C51C300000000F07FFCB401272F
:103A7000FF07794002E0FCB40127FF070C024D006C
:103A80002D0E03D1002C52D1FCBC70473C43FF2DBE
:103A900050D0A408002900D56442020243001B0E46
:103AA00004D1002A43D10800FCBC70473A43FF2BE5
:103AB00041D09208002800D552425E1B04D5170061
:103AC00022003C0076422B00192E06D527003741F4
:103AD000D2191C27F71B7F42BC40002A27D002D5F1
:103AE0005242012700E00027013B5200FCD515009F
:103AF000802635400FD01500202635402C438032DB
:103B000008D21500402635402C4304D10126360248
:103B1000B24300E05B1C5200023308DDFF2B0BD2E6
:103B2000500ADB051843FF073843FCBC70470020F0
:103B3000FCBC70470800C70FFF07FF20C0053843D3
:103B4000FCBC7047F0B581B00C460646002100F081
:103B500057FE002809D00021204600F051FE002821
:103B600003D000F02FFF01B0F0BD002130460091DE
:103B700000F03DFE0746214D3046294600F052FE3A
:103B80000028284600D130461D4900F001FB1D49A0
:103B900000F08AFB3F210E063146FFF76CFF01461D
:103BA000002F304600D1084601F08EF8014601276B
:103BB000384600F041FE2046009900F018FE0090C3
:103BC0002046294600F02EFE002800D12546284632
:103BD0000B4900F0DDFA0B4900F066FB3146FFF7B8
:103BE0004AFF0099002900D10646304601F06CF8E2
:103BF0000146384600F064FD01B0F0BD0000AA4265
:103C000000007A440000C842B0B50446C00DC0B2FE
:103C1000FF2814D00D46002819D10021204600F0BD
:103C2000DDFD002845D113208106204600F0B0FAC2
:103C300004462148854207DC2049204636E02046DC
:103C40002146FFF718FF33E0E00DC0B219384019E4
:103C5000FF280ADB01F02AFA222101600120C007B7
:103C60000440FF20C005241823E0012805DBFF21C4
:103C7000C9058C43C00504191BE01821C9438842BB
:103C80000ADC01F013FA222101600D488542E5DAD1
:103C90000120C00704400CE0FF21C9058C43C0058A
:103CA0001921C905401820433321090600F070FA94
:103CB00004462046B0BDC046AF3CFFFF6042A20DA7
:103CC00051C30000B0B5214A8520D06101210B020B
:103CD0001F480360842393634B021E490B608223B9
:103CE00053621D4B93621D4B81245C611546183D48
:103CF0002C609C62546594641C60DC611C62184BEF
:103D0000D360D468D46013611469146113601468BB
:103D100014605360536853600246303A45235B0693
:103D200013600360084630380E4A02600A600E488D
:103D3000016855220A4302600C48016A0F221143B0
:103D40000162016811430160B0BDC046308042404D
:103D5000D0120A40D0320A4082000400C88042409B
:103D600081000E000020410C90330A4028300A40A8
:103D7000F0B581B0044640690090A0610846114644
:103D8000FFF774FE06466061E169FFF774FE0546C1
:103D9000E061E768394600F045FD002808D10120C0
:103DA000C00747402846394600F021FD002801D0D1
:103DB000E7613D4627686068294600F0E9F9054655
:103DC0003846314600F0E4F92946FFF754FE05462F
:103DD000A76830460099FFF749FE0146384600F0D3
:103DE000D7F92946FFF747FE06462062256929468E
:103DF00000F018FD002808D10120C00745403046DA
:103E0000294600F0F4FC002801D025622E463046F9
:103E100001B0F0BDF0B58B4200D1824204D90B0055
:103E200002000021002040E0002B00D1002A0CD12C
:103E30000B00020000210020002B00D1002A01D03D
:103E4000C943C04300F03BFC2FE01C0015000B00F1
:103E500002000CB4002126002F00FF19764102D287
:103E6000491C4029F9D100201E001700FF19764196
:103E700002D2401C4028F9D10E1A2100280032003D
:103E800000F0ECFF0C0005000CBC00200021A34258
:103E900000D1AA4201D3521BA341404149416D08C0
:103EA000E7073D436408761EF1D5059F002F01D03A
:103EB0003A607B60F0BD002A49D084468B071CD154
:103EC000830722D1102A08D370B4103A78C978C079
:103ED000103AFBD270BC103238D0042A2CD3082AF6
:103EE00005D30C2A01D308C908C008C908C008C9ED
:103EF00008C092072AD0920F22E00B780370491C69
:103F0000401C521E22D08B07F7D1C30714D1830760
:103F1000D8D0121F12D308C903801B0C4380001D88
:103F2000121FF8D20AE008C903701B0A43701B0A6B
:103F300083701B0AC370001D121FF4D2121D05D01E
:103F40000B780370491C401C521EF9D16046704723
:103F5000F0B581B01C491D4C204600F09DFF1C4966
:103F60002046FFF71DFC1B4801681B4A0A400260FF
:103F700000250095204629462A462B4600F0C4FF1E
:103F8000204629462A4600F079FF144E2046314645
:103F90002A4601F01BF801270097204629462A46A9
:103FA0002B4600F0B1FF204629463A4600F066FF56
:103FB000204631463A4601F009F809488760032156
:103FC000016001B0F0BDC046095600000000864007
:103FD000D0550000041886407F00FFFF7F020000DC
:103FE00000118640F0B50020C1431F4A1F48034618
:103FF000103B1B6808241C405D0706D4002C0FD121
:10400000DC0719D19B0721D428E01768184D2E68CA
:104010003F070F4600D50127BE192E60002CEFD0B8
:104020001668134C2568760701D50E4600E0012678
:1040300075192560DC07E5D01468022525400D4C74
:104040002668751B6D1C25609B0707D51468094AF7
:104050001368E40700D00121C918116001680F221C
:104060000A430260F0BDC04680330A4048300A402F
:10407000E4032020FC032020B0B517480168491C48
:1040800001600468154A54430221CC41144B9C4200
:1040900002D8144C0125257004686243CA419A4233
:1040A00002D8114A012313700268104B53430422B3
:1040B000D3410F4A934202D80E4A0123137000687D
:1040C0000D4A4243CA410D48824200D9B0BD0C4856
:1040D00001210170B0BDC04604042020CDCCCCCC61
:1040E000CCCCCC0C280420202D042020DBD453BEC3
:1040F0003D2F020029042020D578E9266E12830086
:104100002B04202040B542004B005E08164301D02E
:1041100006004E4000D4D01A04D20120C90F06D1A7
:10412000404204E003D90120C90F00D04042FF26DD
:104130003606B24200D8B34200D9012040BD40B596
:1041400042004B005E08164301D006004E4000D4EA
:10415000D01A04D20120C90F06D1404204E003D98D
:104160000120C90F00D04042FF263606B24200D8D7
:10417000B34201D90120404240BD42004B00002023
:10418000FF2109068A4200D88B4200D901207047DE
:10419000FCB40127FF0706004E4001D4002600E0D2
:1041A0003E00020243001B0E30D03A43FF2B30D0BA
:1041B0000C024D002D0E29D03C43FF2D29D05B1958
:1041C0004240504042404C4061404C4000B500F0FD
:1041D00027FD20BCAE464240504042404C4061402A
:1041E0004C4025001400002C01D46400013B8034B5
:1041F00001D3013364087E3B08DDFF2B09D2BC43A9
:10420000200ADB0518433043FCBC70470020FCBC8F
:104210007047FF20C0053043FCBC704700BF7047AB
:10422000024670B50A4392072AD11E4DEE0104C81A
:1042300008C9541B9443344017D0D0B2D9B2401AA5
:104240002106014310D190B299B2401A21040143D2
:104250000AD110021902000A090A401A2102014378
:1042600002D1100E190E401A70BD9A42DFD010BA5A
:1042700019BA884201D9012070BD0020C04370BD29
:1042800002780B7801300131002A09D09A4207D117
:1042900002780B7801300131002A01D09A42EFD028
:1042A000D01A70BD01010101FCB40127FF0706000F
:1042B0004E40F60FF607020243001B0E2DD03A4384
:1042C000FF2B2DD00C024D002D0E26D03C43FF2D90
:1042D00026D05B1B0020202164085208A2424041E6
:1042E000A24200D3121B013904D0002A01D052008F
:1042F000F4D18840384201D14000013B803001D3E5
:10430000013300E040007F3307DDFF2B08D2400A75
:10431000DB0518433043FCBC70470020FCBC7047F1
:10432000FF20C0053043FCBC7047704710B51949E9
:10433000194C204600F038FE1849204600F01EFBBC
:10434000174801680322D203914301600169154AAD
:104350000A4011320261416917220A4328218A4327
:104360004261426801210A4043688B439A184260C7
:1043700002684B0413430360C26870231343C36095
:10438000C2680223134305229343C36002680A43B1
:10439000026010BD8653000000801040825500006E
:1043A000009110400000FFFFF8B5451C0078002385
:1043B000082B32D02F78C2070CD16A780F24144012
:1043C000E41C122C0BD102242E57F4B2002E08D478
:1043D000EE1C0EE06D1C4A1C0F7011461AE0AE1C5C
:1043E00008E02E1DED7800957F252C40009DED0105
:1043F0002C1912343D0112095219094DAA420ED04E
:10440000D243002C05D08D5C4F1C0D70641E3946C4
:10441000F7E7354640085B1CCAE72846C5E7F8BD04
:10442000FF0F0000FEB502930F46194D0024E14333
:10443000184E00973740019043422B46BB4101D2B2
:104440000C4623E0084602990E405342B54101D282
:1044500004461BE0134601990B433E431E43029D55
:10446000009E13D02B46334004D401998B1A334657
:10447000AB4103E00199531A2B46B341044605DBD7
:1044800051406E400E43701E864134462046FEBDAC
:104490000000F07FFFFFFF7FF8B5009003680C6815
:1044A000194D2678AF197F78FF060CD51E78AE1906
:1044B0007678F60604D51668761C16605B1CF5E760
:1044C000641C0C60EDE70025F6B2002E13D0252EFB
:1044D0000CD06619761C0E60605D5F5DB8420CD131
:1044E0001068401C106036786D1CEDE75819009973
:1044F00008600120F8BD0020F8BD0020002F00D08A
:10450000F8BDC043F8BDC046E05000000120704730
:104510000CB41B4B4A00D21A1BD2000D0A031043E5
:1045200001221202801802D3400812038918400A9F
:10453000002902D50122D20710434900490D382233
:104540001201891A0CD4FF290DD2C90508430CBCED
:104550007047DB431A40024305D0D8430CBC704778
:1045600000200CBC7047C90FC907FF20C0050843D5
:104570000CBC7047C046C046C046C046C046C04698
:104580000000E0FFF0B581B014480068C0B20B280D
:1045900021D1134C6946204600F08CFC00281AD02B
:1045A000104D114E124F09E02A88104B9854298063
:1045B0006946204600F07EFC00280CD06846007852
:1045C00029884A1C7F21114032889142ECD13868F9
:1045D000401C3860ECE701B0F0BDC04620901040B0
:1045E000008010402004202022042020BC02202033
:1045F00014042020F8B50446164F174D0E462E40E1
:104600000120009464423C46B4411AD31D405442F8
:10461000AF4116D31046009C20433543054311D0CB
:104620000020C0431C460C400ED4009CA41A0C462B
:104630009C4106DB0098504059400143481E81418F
:104640000846F8BD0020F8BD009C141B1C468C4198
:10465000F0DAF6E70000F07FFFFFFF7F8446830774
:1046600006D0002A29D001700130013A8307F8D121
:10467000042A1CD30906090E0B0219430B04194323
:10468000082A10D30B00102A09D370B40F24161B6C
:1046900022400C000D003AC0103EFCD870BC082A25
:1046A00001D30AC0083A042A01D302C0043A002AFE
:1046B00003D0013A8154013AFCD2604670477047FA
:1046C00070B50D460124E106124A116012490A46EE
:1046D00010320128104600D0084600D011462204AE
:1046E0000260600308607D20C1004A1B0026A942C9
:1046F00000D2324619208001504300F053FAE908F5
:104700007C2900D8461E05483146224600F05EFC52
:1047100070BDC04690120A4090320A4000008640A8
:10472000F0B583B00F4801900F4F00970F487F21DD
:10473000CC050F4D002621462A46334600F014FCD6
:104740000097084801900B4821462A46334600F05E
:104750000BFC3120800508490860084800F0E8F8A3
:1047600003B0F0BD0000AA42000048437C032020B3
:104770000AD7A33CA003202090320A403753000000
:1047800010B5FFF737FF002801D0002010BD012031
:1047900010BD10B5FFF72EFF002801DB002010BD73
:1047A000012010BD10B5FFF725FF002801DD002016
:1047B00010BD012010BD10B5FFF734FE002801DA4E
:1047C000002010BD012010BD10B5FFF72BFE002802
:1047D00001DC002010BD012010BD000010B5FFF766
:1047E00091FC002801D0002010BD012010BD10B5A3
:1047F000FFF788FC002801DB002010BD012010BD60
:1048000010B5FFF77FFC002801DD002010BD01205E
:1048100010BD10B5FFF793FC002801DA002010BD91
:10482000012010BD10B5FFF78AFC002801DC002034
:1048300010BD012010BD0000B0B50C460121CB0613
:10484000114A1360134610330128184600D0104651
:1048500000D01A464B060360C80710607D20C100D7
:104860000A1B0025A14200D22A461920800150438C
:1048700000F098F9E1087C29294600D8411E034838
:104880002A4600F0A3FBB0BD90120A40000086400B
:1048900070B50F4D0F4E00222846314600F096FBB2
:1048A000012428463146224600F090FB60060A4962
:1048B0000860E00708602004084A10606003106088
:1048C000E0060861064801682143016070BDC046EA
:1048D000000086403F06000090120A4090320A40D5
:1048E00004188640F0B581B00C4D28880C4E3188F4
:1048F000884211D00C4C0D4F28880A49095C20468B
:1049000000F0E6FA002807D02888401C38402880AC
:10491000288831888842EFD101B0F0BD26042020DC
:10492000240420200000202000801040FF0100000F
:10493000F0B50178002911D0401C0B4A0B4B0C4CF0
:104940000C4D1688761C1E402788BE4207D017885B
:10495000E95516800178401C0029F2D1F0BD0648C7
:104960000168491C0160F0BD24042020FF01000003
:1049700026042020000020201804202070B51122D9
:104980001302C218C4580125AC43C4500C888D785A
:1049900025438C882C43C558084E2E40084D254091
:1049A0007419C4508879CB790343087A1843516845
:1049B0007E23994318400818506070BDE798FDFFAA
:1049C0001867000070B50D4C0D4D00222046294699
:1049D00000F0FCFA012620462946324600F0F6FA9D
:1049E000700608490860F00708603004064A106045
:1049F00070031060F006086170BDC046000086407C
:104A00003F06000090120A4090320A400C480D49BF
:104A1000C160C268C260016102690261016002682E
:104A20000260416041684160074801680F220A4303
:104A30000260064802210160054801607047C046D7
:104A4000308042408100060048300A4080E200E0A9
:104A500000E100E081B0B0B587B00C460B93059241
:104A6000491E22468A41A11A03910025049502900D
:104A70000BA9069107480090074B05A802AAFCF76E
:104A800063F9002C01D002990D7007B0B0BC02BCD4
:104A900001B00847954C0000214F0000F0B5A7B0C9
:104AA000044605A800F048FA059E069F00F0BCFAEF
:104AB000054600F0BFFA0096019702950390074A59
:104AC00007A880212346FFF7C5FF401E7E2802D895
:104AD00007A8FFF72DFF27B0F0BDC046D053000058
:104AE00010B50F4A017853185B78401CDB06F9D4E7
:104AF0002D2901D02B2901D1027801E0401E0A4660
:104B0000431C0020303A092A05D80A2444431019CE
:104B10001A785B1CF6E72D2900D1404210BDC04633
:104B2000E05000000C48002101600C4801460839A3
:104B30000A6803239A430A600168012291430160D5
:104B4000016812029143016005480168FF221202C8
:104B5000914301607047C04608030B4008010B40B9
:104B600000E400E010B5094809494160094A516074
:104B7000094B5960094C6160094901601160196075
:104B80002160102000F05CFA10BDC04600080A4009
:104B9000030000B100280A40000886400088104049
:104BA000010000261CB50A0017D000230124E407E9
:104BB000A04200D20400944201D95200FBE7904287
:104BC0005B41904200D3801A914201D25208F6E72D
:104BD00019000200080011001CBD01000020FFF7B1
:104BE000A4FB1CBD70B50A480A4C84420CD00A4D87
:104BF0000A4EB54208D02A686968501C12789200A3
:104C0000A25890470835F4E700BF00BF70BDC0460A
:104C10001C560000105600002C5600003C560000A8
:104C2000FCB4020C0B0CFF242402FF342040214072
:104C30000C00444315005D4306005E430F005743DC
:104C4000320C3B0CA818C01832043B040025A118F4
:104C50006841C9186841FCBC7047000006B54100B6
:104C6000090E7F390DD41F22511A0CD98646000235
:104C70000122D2071043C8407246002A00D54042A4
:104C800006BD002006BD02000120C007002A00D496
:104C9000401E06BD70B514460D4601466A68A868F8
:104CA00082420CD9101A8442264600D30646286850
:104CB000324600F003FA286880192860A8680019B5
:104CC000A860204670BD000006B5002803D57346D5
:104CD000FFF7C4FF06BD4100090E7F3908D31F222C
:104CE000511A07D300020122D2071043C84006BD63
:104CF000002006BD0020401E06BD000082B0F8B5B1
:104D00000692079306AA0392054B0193054B009365
:104D1000054BFBF7D5F904B080BC02BC02B00847D4
:104D2000B5500000814F00009944000080B5A0B04C
:104D30000346074A68468021FFF78CFE401E7E2806
:104D400001D8684600E00348FFF7F2FD20B080BDBF
:104D5000E5540000BB54000001208102054A1162A5
:104D600013680B431360C0030349086003490860DC
:104D70007047C0462890104080E200E000E100E06B
:104D8000084880F3088800BF00BFFFF7BFFB00287A
:104D900001D0FFF727FF0020FEF784FD012000F07F
:104DA00097F9C0460080202002B49E21002805D437
:104DB00001D102BC704701394000FCD5803001D3DD
:104DC000013100E04000400AC905084302BC7047B9
:104DD00080B5FFF7C7FEFEF775FFFFF7A3FEFFF7ED
:104DE000B7F8FFF7A3FA0248B8210022425480BD69
:104DF0000002202030B514004C4325001C00444321
:104E00006419050010002900FFF70AFF00190400CB
:104E10000D002100280030BDB0B504460020002B55
:104E200008D0D2B20D782570954204D0641C491C7C
:104E30005B1EF7D1B0BD601CB0BD014600200A5C0E
:104E4000002A08D00A185378002B05D09278C01C8D
:104E5000002AF4D1401E7047401C704718B520232B
:104E60009B1A04D8010000205B42994004E0040032
:104E70009140DC402143904018BD000010B59200E5
:104E80008018044A83580724A404A34321405918D6
:104E9000815010BD3018000010B501221203831894
:104EA0000C789C604B7883508978014A815010BD02
:104EB0000C11000010B5054BC4580422224002D149
:104EC000C018C06908705042504110BD0811000060
:104ED00010B5054BC4588022224001D1C018816111
:104EE0005042504110BDC046081100000B4611460B
:104EF0001A4680B5FFF7B2FB80BD0A46002180B597
:104F0000FFF7ACFB80BD000010B5029CA4000019A7
:104F100011431943014A815010BDC046501800008A
:104F20004B688A689A4204D20A68531C0B6010705E
:104F30008A68521C8A60704772B603490968034A3E
:104F4000126806C062B67047E4032020FC032020EC
:104F500072B60348002101600248016062B67047E2
:104F6000E4032020FC03202070B5059C049D00264E
:104F70002EC00460103846618661C661066270BD4D
:104F800001460068421C00780A60002801D1002018
:104F9000C043704740B584B002AE0096FEF73AFFBA
:104FA000029A039B04B040BD10B50122120383187E
:104FB0000C789C604978815010BD80B50B46032168
:104FC0004258C11D184600F079F880BD9200801843
:104FD000014A81507047C0461018000031208005FA
:104FE000014908607047C046B0320A40002142586B
:104FF000091D002AFBD1081F8010704780B50A46A2
:10500000032141581046FFF778FF80BD0021425C24
:10501000491C002AFBD1481E704700214161816173
:10502000C161016270470000014800687047C046D6
:1050300014042020014800687047C046180420204E
:10504000811E091F00BFFCD2704704461298401C05
:105050001290704780B5FEF7C5FF80BD01466139EB
:105060001A297047014661391A2970471298401C65
:1050700012907047204605992246FFE782B00094BF
:10508000014C019410BD00BF81470000059A02CA7F
:105090000592704780B5FFF775FA80BD80B5FDF7C2
:1050A0002FFB80BD80B5FDF787FD80BD00487047B0
:1050B000300420200168491E0160704780B5FEF76A
:1050C000FAFE80BD29460E9A104721460E9A1047D7
:1050D000FFF7A4F8FEE753E6704700000000000069
:1050E00000808080808080808080909090909080F0
:1050F00080808080808080808080808080808080B0
:1051000080180404040404040404040404040404CF
:105110000402020202020202020202040404040463
:1051200004044343434343434141414141414141DD
:105130004141414141414141414141410404040453
:10514000040423232323232321212121212121217D
:1051500021212121212121212121212104040404B3
:1051600080000000000000000000000000000000BF
:10517000000000000000000000000000000000002F
:10518000000000000000000000000000000000001F
:10519000000000000000000000000000000000000F
:1051A00000000000000000000000000000000000FF
:1051B00000000000000000000000000000000000EF
:1051C00000000000000000000000000000000000DF
:1051D00000000000000000000000000000000000CF
:1051E0000064696F75787000000000000000000026
:1051F000000000000000F03F000000000000004040
:105200000000000000000840000000000000104006
:1052100000000000000014400000000000001840E2
:105220000000000000001C400000000000002040C2
:1052300000000000000022400000000000002440A8
:105240000000000000002640000000000000284090
:105250000000000000002A400000000000002C4078
:105260000000000000002E40535441545553204686
:10527000573D25732053504545443D256C642054CB
:1052800041524745543D256C64204D4C3D256C648E
:10529000204D523D256C64204D414E55414C3D25DD
:1052A000642054454C453D256420535442593D25C6
:1052B0006420525844524F503D256C752054584438
:1052C000524F503D256C75204B503D256C64204B52
:1052D000493D256C64204B443D256C640D0A004C0F
:1052E0003D256C6420523D256C64204C443D256C6A
:1052F000642052443D256C64204552523D256C6427
:10530000204F55543D256C64204C4F3D256C642046
:10531000524F3D256C64204B503D256C64204B4919
:105320003D256C64204B443D256C6420424153452F
:105330003D256C640D0A004D53504D302063617261
:105340002050494420646961672D3230323630364E
:1053500033302D7265666163746F722072656164AB
:10536000792C20554152543020504131302054582E
:1053700020504131312052582031313532303020E7
:10538000384E310D0A0008000000000000002440E3
:105390000000000000005940000000000088C340E9
:1053A0000000000084D797410080E03779C3414373
:1053B000176E05B5B5B89346F5F93FE9034F384D7B
:1053C000321D30F94877825A3CBF737FDD4F157527
:1053D00052554E206D733D256C75204C3D256C64F7
:1053E00020523D256C6420525844524F503D256C4C
:1053F0007520545844524F503D256C75204C4544FF
:105400003D504232322F504232362F504232370D09
:105410000A000000000000000000803F0000004083
:1054200000004040000080400000A0400000C0405C
:105430000000E04000000041000010410000204159
:105440000000304100004041000050410000604138
:10545000000070414F4B202573204C3D256C64208B
:10546000523D256C64204D533D256C750D0A004F4F
:105470004B2050554C534520445554593D256C64A0
:10548000204D533D256C750D0A00000000002041A1
:105490000000C84200401C4620BCBE4CCA1B0E5A2D
:1054A000AEC59D74646961672D3230323630363353
:1054B000302D7265666163746F72004552522043ED
:1054C0004D442052585F544F4F5F4C4F4E470D0A8A
:1054D000004F4B202573204C3D256C6420523D2508
:1054E0006C640D0A0045525220434D442052583DF1
:1054F0005B25735D0D0A004552522052585F4F568E
:105500004552464C4F570D0A003031323334353650
:10551000373839414243444546003031323334351F
:1055200036373839616263646566004F4B20454EFB
:10553000435A45524F0D0A004F4B2051554945548F
:1055400020310D0A004F4B20515549455420300D54
:105550000A00455252204D4F544F520D0A004F4BF6
:105560002054454C4520310D0A004F4B2054454CEA
:105570004520300D0A004552522050554C53450DE0
:105580000A00000018000000003000004F4B2053BC
:10559000544F500D0A00256620256620256C7500A5
:1055A0004552522050574D0D0A0045525220504945
:1055B000440D0A00256620256620256600494E46D2
:1055C000494E495459004F4B205049440D0A0000A0
:1055D0004006000000010000454E435A45524F006E
:1055E000256620256C75000A00080A10104D4F54DE
:1055F0004F520053544F50004241534500474554C9
:10560000004E414E0050574D0008000000000000C1
:10561000A9430000BB4F0000FD4F00000200000046
:105620002E0400000001000000FFF0001C560000E6
:10563000000020202456000030042020000000003C
:0400000300004D812B
:00000001FF
