:1000000000802020EB5C0000F3370000F337000095
:1000100000000000000000000000000000000000E0
:10002000000000000000000000000000F3370000A6
:100030000000000000000000F337000059490000F4
:10004000F3370000694E0000F3370000F33700007B
:10005000F3370000F3370000F3370000F3370000F8
:1000600000000000F3370000F3370000000000003C
:1000700000000000F3370000A95C0000A15C000054
:10008000F3370000F3370000F3370000F3370000C8
:10009000F3370000F337000000000000000000000C
:1000A000F3370000F33700000000000000000000FC
:1000B000F337000000000000F3370000F3370000C2
:1000C000F0B5F3B007930592799A0E92789E0025C9
:1000D000EF437090139112950878A84C201843783C
:1000E000D80628D513984A1CDB0606D5481C11787B
:1000F00061184B78521C0146F6E7139070A8B04780
:100100000446401C01D100F0FAFD05F0B5FD9B4806
:1001100000194078C00603D570A8B0470446F4E73C
:1001200070A805F0DCFD1298401E1290601C934CE4
:1001300001D100F0E4FD01200A9054A801466C3181
:100140000C9101460C3103910D30009014A8401C15
:1001500001900B950D971196029554A8702105F00A
:10016000ACFC559770A813A912AA079B98470128C1
:10017000109522D0002801D100F0A7FD401C029B61
:1001800001D100F0A4FD0F93274670A8B04705F0F9
:1001900066FD38194078C006F7D4374670A805F0D8
:1001A0009EFD1298411E1291601C39D10029109DAC
:1001B0000F9A01D100F087FDB1E01398471C139707
:1001C000417800262A2935460BD101255495871CF4
:1001D000139706E0B819401C1390B85D71A98855B3
:1001E000761CBC5D204630380928F3D971A800215F
:1001F0000F9181550078002803D071A805F0E2F92D
:1002000055904C2C2FD0682C20D06A2C0BD06C2C05
:1002100010D0742C0AD07A2C16D10120000307E0EC
:10022000109D0F9A7BE00120C00201E001204003F5
:100230002D1819E0B919481C13904A786C2A4F4CB4
:1002400018D1012000020AE0B81910E0B919481CC1
:1002500013904A78682A494C0ED1012040022D188B
:100260005495881C0AE080355495B819401C119E9D
:10027000424C04E0403500E020355495119E411C6D
:10028000139103780C9A13705B2B28D10A785E2A9D
:1002900005D102210D435495811C139182785D2A6A
:1002A00006D1481C1390097854AA1173009901E0F3
:1002B000084603990F9D0278002A09D05D2A07D0CD
:1002C000421C139200784B1C087010461946F2E746
:1002D0000D705D2A01D1401C13900C9803781846CC
:1002E0005B38132800D94EE70121814024480142A0
:1002F00000D148E731461E4670AC20460F4688477D
:100300000546204605F0E8FC1299681C05D1002935
:10031000109D324603D100F0D6FC109D3246099163
:100320001046583820284CD83E460D9F4000C04605
:1003300078448088400087445301260326031C012B
:100340002603260326032603260351002603CE0098
:1003500025005100510051002603250026032603E5
:100360002603260329032500250026032603CE00A5
:1003700026032500260326032500C046005D000055
:10038000010108001746559C70A8B047214605F0AA
:1003900066FC14AD002934D014AD2D2C02D02B2CCA
:1003A00000D0B2E014A8047070A80C46B0472146F3
:1003B00005F055FC491EF64A00D1D3E00891019D95
:1003C000A5E01046413806283E460D9F00D990E032
:1003D000012181407120014200D18AE0559D70A821
:1003E000B047044614AB401C09D005F045FC2B2C4B
:1003F00009D114AB002D0BD12B24002513E03C4672
:1004000011E00027B0E014AB002D0CD02D2C0AD148
:1004100014A8047070A8B0470446401C01D005F031
:100420002BFC6D1E019B204661381A2801D3204603
:1004300001E0204620384928E24F109703D04E288B
:100440002AD1E14F10970026B5421BD01098805D4D
:10045000002816D0214661391A2901D3214601E02E
:100460002146203981420CD11F469C5570A8119914
:1004700088470446401C01D005F0FEFB761C3B4635
:10048000E2E73546E81E41424141083D6842684185
:10049000084310909D1964E20022002D5CD0302C9E
:1004A0005AD10F9230201F46187070A8B0470446EA
:1004B000401C01D005F0E0FB7B1C681E00220121DE
:1004C0001091002800D1AAE1214661391A2900D2F1
:1004D000A8E12146A8E1549901250846284049068B
:1004E000174676D4002800D00EE1059810C8059074
:1004F0000BE1252A00D046E270A8B047252801D09C
:1005000000F000FC05F0B8FB40E20891AC4A002086
:100510003B46115C8B4204D0401C0728F9D10020D7
:1005200000E01018801A012813D1302C5CD10F95EF
:1005300070A81090B0470546109805F0CDFB20201C
:100540008543583D109501D0082010903B460F9DE3
:100550004CE09E49085C48E01946109204920A98C3
:1005600008907CE10027019D3A4638460A990F9190
:1005700062E0559F5498022101400F9114AC002F66
:1005800000D148E170A8B0470546401C089000D152
:10059000B1E010942C46E8B2002303990E7886420D
:1005A0000A4600D01A46491C002E1346F6D10F9B6E
:1005B00059425941531E9A419142119E2546109C21
:1005C00000D098E0611C207005F056FB7F1E0C46A1
:1005D000D5E7002800D09DE0059810C805909AE066
:1005E00078220C980270CDE60A20109018466938DF
:1005F000C0B2102801D3002100E00121EA4FC7401A
:100600000F406F2B06D1302C0AD000200A990F9191
:10061000089A11E020463038414241410F42F4D05F
:1006200028466D1C047070A8B04705F018FB089AA6
:10063000521E00200F900A98002F24D0002A22D0AA
:10064000002820D020202146814358291BD1089220
:1006500070AF3846B047014638460F460E9A90476D
:10066000E148C0194078800701D4089A0BE02C704B
:1006700070A8B04705F0F3FA089A521E00D138E38B
:100680006D1C102010900A9F002A23D01098082873
:1006900004D107202146814330290ED010980A2822
:1006A00003D1204630380A2807D31098102811D1DA
:1006B000CD480019407880070CD56E1C2C7070A8AE
:1006C000119914468847224605F0C9FA521E0027A0
:1006D0003546D9E770A805F002FB1298401E12902B
:1006E0000020287005460F98384001280D9F119E64
:1006F00000D04BE1F5E270A805F0EEFA12980999E6
:10070000814200D087E004E300245598002841D4BA
:10071000054640E000245598002800D40546632A89
:1007200000D0054670A8B047014605F0A5FA632F32
:1007300005D1481E0222D24390420FD917E0481C2F
:10074000022801D3002000E00120A74A5218527865
:10075000D2060A9A00D40246002A08D1002D06D0FB
:10076000002C01D002C400E000246D1EDAE770A85E
:100770000E9A90471298401E12900999814200D11A
:10078000B7E2732F49D1002C47D00020206044E00D
:10079000915E00000125632A00D0054670A8B0478D
:1007A000014605F069FA632F05D1481E0222D243A3
:1007B000904217D921E0481C022809D3002008E004
:1007C000915E000022620000876200005762000014
:1007D0000120854A52185278D2060A9A00D402465D
:1007E000002A0AD1002D08D0002C03D0601C2170F3
:1007F000044600E000246D1ED0E770A80E9A9047D2
:100800001298401E12900999814200D171E2732F13
:1008100003D1002C01D0002020700D9FB6E004927F
:10082000154618E021462039582912D17C7070A84D
:10083000119988470446401C01D005F01DFABA1CE6
:10084000AD1E00200A9904911146109008900F9A4D
:1008500005E0049205460A9808900F9A19460692F8
:1008600016460F95002D0D466ED02B2C39D02D2C11
:1008700037D02E2C2FD0452C01D0652C0BD10898C9
:10088000002846D0109800285ED0002A5CD10120B4
:10089000074610904AE020463A380A21C943884268
:1008A00029460CD8049800284ED04F4800194078AB
:1008B000800704D4202020437028E3D044E02B2C70
:1008C0000FD02D2C0DD0702CDCD0502CDAD0652C14
:1008D000D5D02E2C1DD10698104335D1012006907D
:1008E00023E00898002808D0481E00782021014302
:1008F0006529294601D1174618E00498002823D01D
:10090000481E00782021014370291DD11746294631
:100910000CE0002A07D0204630380122092813D8DD
:100920001746164602E00120109000270C7070A8B0
:10093000119988470446401C01D005F09DF9691CB7
:100940000F9D6D1E3A468CE71099481E814110910B
:10095000701E8641002A0A9800D030461099014046
:1009600010910D9F70A805F0BAF9601C02D0129981
:10097000491E129100212970129A099B9342119EDF
:10098000109D00D1A8E1012D00D0B3E10C980178B1
:10099000012508465B381D283ED804A2124C4000B1
:1009A000105A40008744C046818000002400220085
:1009B00022002200220022004600220057014600A9
:1009C0004600460046002200460022002200220087
:1009D0002200A30046004600220022005701220008
:1009E0004600220022004600005D0000FFF7B5FB34
:1009F0005499C80701D0FFF7B0FB05980068490675
:100A000000D5C8E014A94A1C0978431C01700029CC
:100A100018461146F7D1C7E0084641380628BF4CB2
:100A200001D9FFF79AFB012282407120024201D1D5
:100A3000FFF793FB14A80078002800D10BE154982D
:100A4000C20700D007E10B46613B172B3AD80022C2
:100A50009B0002A4E358B14C9F46C046D90A00004F
:100A6000570C0000570C00006B0B0000D90A000067
:100A7000D90A0000D90A0000570C00006D0B0000D5
:100A8000570C0000570C0000570C0000570C0000DA
:100A9000570C0000BD0A00008F0B0000570C00002F
:100AA000570C0000570C0000570C0000BD0A000056
:100AB000570C0000570C0000BD0A000078293FD0F9
:100AC00008223EE04139062900D9C4E001228A40CB
:100AD00071210A4200D1BEE0C021084080281ED00A
:100AE000402826D114A8002101F032FB1BE05498C5
:100AF000C10701D0FFF731FB89490840411E02467A
:100B00004A408A4200D894E0002800D183E0414264
:100B1000014084484143C80E83A1085C7CE014A8CE
:100B2000002101F015FB059B04CB0593106051607B
:100B300091E014A8002101F00BFB04F099F987E083
:100B40001022752900D10A2275490840411E03462A
:100B50004B408B4242D900282ED04142014071487F
:100B60004143C80E70A1085C27E00A226C49084086
:100B7000411E03464B408B4248D9002833D04142A6
:100B8000014068484143C80E67A1085C2CE014A8E6
:100B90000021102224E014A90A78002A02D0491C5E
:100BA00004C0F9E7002101600598001D05900B982D
:100BB000401C0B90FFF7D1FA2020401F08280DD8C9
:100BC0007844007940008744580909045D09043AD3
:100BD0003A0014A8002102F00DFEA4E714A8002199
:100BE00003F096F834E02020401F08280ED8C046B5
:100BF00078440079400087444A09090452090427CF
:100C0000270014A8002102F06DFA8CE714A8002137
:100C100002F0A4FE1CE02020401F082809D8C0468E
:100C200078440079400087444204041F48041F04AC
:100C30000400129805F030F80860FFF78EFA14A847
:100C4000002102F0D7FD03E014A8002102F04AFAC7
:100C500005F022F8086054980125294681430B9835
:100C600008180B90FFF779FA1298C117059B04CB6F
:100C7000059310605160FFF770FA14A8002103F08B
:100C800047F808E014A8002103F042F80BE014A88C
:100C9000002102F063FE04F0FFFF0880DBE714A8E8
:100CA000002102F05BFE04F0F7FF0870D3E7129812
:100CB00004F0F2FF0880FFF750FA129804F0ECFFFE
:100CC0000870FFF74AFA0D9F19E00B9F17E00B9889
:100CD000002814D0074612E0002800D121460D4616
:100CE00008E0129809994140E043084302D1ED43DE
:100CF00000E00D9D0B98002800D005462F46384691
:100D000073B0F0BD054670A804F0E6FF681CF1D092
:100D100002E008980028EDD00025EBE7005D000018
:100D2000603F000031B57C0700011C021D0E180356
:100D30001E16140F191104081F1B0D171513100789
:100D40001A0C12060B050A09F0B5FFB08EB0049319
:100D500006920646929802900025E84305908C91F1
:100D60003468204604F04AFF21188B9503918C4289
:100D700000D3BCE00020879087A90873889005986D
:100D800089902F46049D2078002800D1B2E02528C4
:100D900005D0641C34600699A8477F1CF3E78B9745
:100DA000601C306087AC2046314600F0BBF88CAA4E
:100DB0002046314600F0D7F8306801780B46683B92
:100DC0000122D341092B2BD87B441B795B009F4424
:100DD00004130A2727271627271943788799682B92
:100DE00019D1520204E0437887996C2B10D112027A
:100DF00011438791801C12E08799D20204E0879901
:100E0000520301E0879912030A438792401C06E0CF
:100E1000401C402201E0401C2022114387910178B0
:100E2000441C346087A80173732913D06E291DD127
:100E3000879832490840411E02464A408A423CD9BE
:100E400000282DD0414201402D484143C80E2DA11C
:100E5000085C26E087A80078400619D4009587A88A
:100E60008CAA8BAB069900F03DF92AE007AD87A963
:100E70008CAA284600F08CF9024628460699029B67
:100E80009847411C059D00D0C5198B9503991AE020
:100E9000009587A88CAA8BAB069900F0C0F810E0EB
:100EA0002020401F082808D8784400794000874453
:100EB0001904040D14040D0404008C9802C88C90CD
:100EC0000F6003998B9D681C13D050E7F8178C991D
:100ED00004C98C9117605060F3E78C9802C88C901D
:100EE0000F70EEE78C9802C88C900F80E9E72F46D0
:100EF00000E0059F38467FB00EB0F0BD603F0000B7
:100F000031B57C0700011C021D0E18031E16140FBC
:100F1000191104081F1B0D17151310071A0C1206C0
:100F20000B050A0910B50A680124E3071AD01378E3
:100F3000302B0CD0232B0ED02B2B0AD02D2B04D0F2
:100F40000024202BF1D1042306E0012304E0102328
:100F500002E0022300E0082304681C430460521CE2
:100F60000A60E1E710BDFEB516460D460446086866
:100F700002782A2A10D13068011D31600068606053
:100F8000002805D5404260602068012101432160AE
:100F90002868471C2F6017E00021303A092A08D83A
:100FA0004218531C2B60435C6F467B545278491C9B
:100FB000F3E76A460023535412784718002A03D0F7
:100FC000684604F0FFFA606038782E2826D1781C35
:100FD000286079782A2908D13068011D31600068BD
:100FE000A0602868401C2860FEBD00203039092917
:100FF00008D839188A1C2A604A786B461A548978AE
:10100000401CF3E76A46002111541078002804D0F0
:10101000684604F0D7FAA060FEBDA160FEBDF0B541
:1010200087B01E460C9F13681C1D14601D68002DA0
:101030003AD0049106908468002C04D4284604F029
:10104000CDFD844203D3284604F0C8FD044606982B
:101050004068A042039000DC2046014630680191C0
:10106000401805940399A142029630600EDD06985F
:101070000078C0070AD1059801990E1A0024B442DD
:1010800004DA20200499B847641CF8E70026049C81
:10109000069805998E420ADA2868010A18D12D1D92
:1010A0002146B847761CF3E70020B84718E00599B9
:1010B000039A8A4214DD0078C00711D00198451ABE
:1010C0000024AC420CDA20200499B847641CF8E7ED
:1010D0000020C0430299086004F0F2FD582101602D
:1010E00007B0F0BDF0B585B00C4606460A9D106805
:1010F000011D116000680490002844D00393B76874
:10110000002F04D4049804F079FD874203D3049897
:1011100004F074FD074602967268BA42114600DC7C
:101120003946039B1868009140180192BA42186032
:101130000FDD02980078C0070BD10098C01B039008
:1011400000260398864204DA20202146A847761C10
:10115000F7E70026BE4205DA0498805D2146A847DD
:10116000761CF7E70198B84210DD02980078C007B6
:101170000CD00098C61B0027B74207DA2020214672
:10118000A8477F1CF8E700202146A84705B0F0BD1E
:10119000F0B589B005920E4604467F2080002718DE
:1011A0004868039000250795FF210491FE31202215
:1011B0002046019204F07AFC3046089702977D7031
:1011C000367B31466339152906903DD801228A4085
:1011D000604B1A42069822D007A908AA059B00F086
:1011E000BDF806980025067B012731466F3909298D
:1011F000059504D801228A4057490A423FD1582E0A
:101200003DD0016802230B40079A002A27D0089995
:101210004A1E08922D220A705F425F412FE000298A
:1012200012D1059B1A68111D19601268D1B24D4286
:101230004D410499FC316118089102990A700268C5
:1012400002218A430260CEE7252E02D0582EC3D059
:10125000CAE70020607025202070012078E0002B74
:1012600007D149070BD5089A511E089101991170B1
:1012700005E0089A511E08912B211170002703994F
:1012800003976518089B0178C907264608D102997B
:10129000491CC91A42689142264601DC691A4E1C53
:1012A000591C04984300002730463A4604F094FB4A
:1012B00008900599002903D0411C0891077000E0AF
:1012C0000146A94206D8481E691A491C202204F08A
:1012D000EDFB2F7006980078C00606D4311B202243
:1012E000204604F0E3FB059D2EE0A642059D2BD091
:1012F000311B302720463A4604F0D8FB069B07985E
:101300004142414103980140012905D11878400725
:1013100002D43046214604E03078611C2070701CF5
:1013200037701A7B412A0CD0582A05D0612A08D080
:10133000782A01D0702A07D11B781B0701D4612AB3
:1013400002D142784A704770204604F057FC401999
:1013500009B0F0BD4230240043020000F8B5144645
:101360000F4605468068002804D428681021884369
:10137000286001E00120A860287B1026582808D0AA
:10138000782806D0702804D06F2801D1082600E004
:101390000A262846194600F055F8AA68002A09D1FD
:1013A00002460A4306D12878000749D52B7B002046
:1013B000024612E02B7B642B03D16423002905D461
:1013C0000AE0692B08D1002906D5692301223A6079
:1013D000002240428A4100E00A460094114632460B
:1013E00000F0CEF8A968884206DA401C21684A1E3F
:1013F000226030220A70F5E7287B582803D078282D
:1014000001D070280FD1297809070CD5702800D198
:10141000782021684A1E226008702068411E2160E1
:1014200030210170287B6F280AD12878000707D562
:1014300020684178302903D0411E2160302101709D
:10144000F8BDC04610B5037B702B05D10868021D9E
:101450000A60006800227BE002683E481040421E9D
:1014600004465440944216D9002807D04242024014
:1014700039485043C00E39A2105C00E02020401FC4
:10148000082808D878440079400087444C04041E9A
:1014900038041E04040000221846643814280DD8AD
:1014A00001248440354804420AD12120044205D059
:1014B0000868021D0A600068C21749E0582B46D12F
:1014C0000868031D0B60006842E018466438142861
:1014D00007D8012282402948024206D12120024237
:1014E00003D10020582B024632D10868C21D0720C4
:1014F00082431046083008601068526828E00022D5
:1015000018466438142807D8012484401B48044234
:1015100004D121200442CBD1582B18D10868031DD7
:101520000B60007814E0002218466438142807D8AD
:10153000012484401148044204D121200442B7D13F
:10154000582B04D10868031D0B60008800E010468A
:10155000114610BD603F000031B57C0700011C0240
:101560001D0E18031E16140F191104081F1B0D174A
:10157000151310071A0C12060B050A0900081200B1
:10158000FEB501920D460646582B01D0174800E0E3
:1015900015480090089802903046284305D1029AD9
:1015A0001068411E116030210170019C30462843B3
:1015B00013D030462946224600F01AF807460D4659
:1015C000224604F0F7F9301A0099085C029B19686A
:1015D0004A1E1A6008703E46E8E70298006804F068
:1015E0000DFB401EFEBDC04661610000726100003F
:1015F00080B5102A06D0082A09D1C0084A078018E9
:10160000C90880BD00090A078018090980BD0029A2
:1016100004D1114604F018F8002180BD002304F025
:1016200099FA80BDF0B5C9B0044602E0092808D196
:10163000641C20781F28F9DD2028F9D03E28F7D037
:1016400003E0002801D122462CE0651C284604F066
:10165000D4F9421C2918824201D20A4622E02018FD
:1016600003E0C91EC01EA34215D90278202A01D06A
:10167000092A10D1A04210D9421E1378202B01D084
:10168000092B0ED1A2420AD9831E1D78202DE8D045
:10169000092DE6D006E0421C04E0024602E08A1E64
:1016A00000E04A1E002515702178002922D020462E
:1016B00004E0C21CC178002910461BD00A46613ADA
:1016C000D2B2192A01D8203901704178002911D0ED
:1016D0000A46613AD2B2192A01D82039417081787C
:1016E000002907D00A46613AD2B2192AE1D8203936
:1016F0008170DEE7F94F3968204602F0B5FF002817
:1017000000D057E207A804F0F7F90799089A204695
:1017100000F0F6FE002806D0F14800210160F148F3
:101720000160F14844E22078502823D160784928AC
:1017300020D1A07844281DD1E07820281AD1201D7E
:1017400005A90091FA4909AA06AB04F07DF803281F
:1017500000D0F7E10999FD48069A059B0EC0FC4CA4
:101760000EC40C3C0C3804F063FA204604F060FA16
:10177000F8481DE22078422846D16078412843D1BC
:10178000A078532840D1E07845283DD12079202801
:101790003AD1601D0025294601F05AF80646EE4C64
:1017A000214603F048FD0490EC4F3046394603F0E3
:1017B0005DFD002800D137460498002800D13C4642
:1017C000FD48057003F060FFD848046020462946B4
:1017D00003F028FD002809D0C2480560DB4804F06A
:1017E00027FADB4804F024FA03F05EFE00212046CD
:1017F00003F033FD0546F149204603F039F9002D89
:1018000000D1ADE13F21ACE120784D285AD160787C
:101810004F2857D1A078542854D1E0784F2851D17F
:10182000207952284ED1607920284BD17D200001AB
:101830000590A01DF84906AA05AB04F005F800289C
:1018400000DCA0E1069D00242846214603F0F3FCBD
:101850000490F34E2846314603F008FD002800D1DD
:101860002E46F2480499002900D134460694059981
:10187000814200D90590D8480126067003F004FF84
:101880000698DA490860DA4908600598002801D00E
:1018900039680818D7490860D74804F0C9F9D7480B
:1018A00004F0C6F9069C059F0021204603F0D5FCF4
:1018B0000546E049204603F0DBF8002D00D164E145
:1018C0003F2163E12078502863D16078572860D1A8
:1018D000A0784D285DD1E07820285AD17D200001E4
:1018E0000590201D05A90091CE4909AA06AB03F079
:1018F000ABFF022800DA27E1099E0024304621468A
:1019000003F099FC0490C64D3046294603F0AEFC26
:101910000028284600D1304604990029214600D1EC
:1019200001460991069E3046214603F084FC04904E
:101930003046294603F09AFC002800D13546BB48C2
:101940000499002900D12C4606940599814200D9BA
:101950000590A1480121017003F096FE0998A34962
:1019600008600698A24908600598002801D03968E7
:101970000818A0490860A04804F05AF99F4804F0EC
:1019800057F9059B069A0999A94802F09DFF49B0AD
:10199000F0BD207850284DD1607855284AD1A078E4
:1019A0004C2847D1E078532844D12079452841D1AB
:1019B000607920283ED1A01D974909AA06AB03F003
:1019C00043FF022800D0DAE07D200490099C2046E5
:1019D000294603F030FC0390914E2046314603F037
:1019E00045FC002800D126460498000103990029EF
:1019F00000D1354609950699814200D9069076486E
:101A00000121017003F040FE099878490860784987
:101A1000086038680699081876490860764804F026
:101A200007F9764804F004F90699099803F07EFC5A
:101A300049B0F0BD207851281CD16078552819D1C3
:101A4000A078492816D1E078452813D12079542868
:101A500010D1607920280DD1A01D00210A2201F0AB
:101A60007DFF41424141674A1170002800D188E062
:101A700068489DE02078542819D16078452816D10F
:101A8000A0784C2813D1E078452810D1207920285F
:101A90000DD1601D00210A2201F060FF411E0246A7
:101AA0008A4158490A70002867D1584880E0444963
:101AB000204603F025F8002818D04249204603F0BC
:101AC0001FF800282ED04049204603F019F80028BE
:101AD00030D0204603F0A0FE49B0F0BD9004202095
:101AE000D8042020BC042020DA6100003A480570A8
:101AF00003F0CAFD3948056039480560394805607A
:101B0000394805603948056039480560394805603D
:101B1000394804F08DF8394804F08AF803F0C4FC21
:101B2000374845E001F0B8FC49B0F0BDD8042020AA
:101B30002B62000003F0ECFF244805602448056098
:101B4000244835E0414833E0374831E0FC032020A9
:101B50002004202034620000000070C200007042A7
:101B6000BF21090602F06DFB03F006FE0090019014
:101B7000344A354B0120010213E0234818E027487E
:101B800016E0234814E02E4812E0BF21090602F0B7
:101B900058FB03F0F1FD009001900297264A274B75
:101BA000310209A803F0C8FC401EFE2802D809A88B
:101BB00003F00CFC49B0F0BDFD0420200000C84239
:101BC0007A6200007F62000048620000B0042020BA
:101BD000B404202083610000FD042020D8042020CC
:101BE000BC042020A0042020A8042020D004202011
:101BF000D4042020A4042020FC0320202004202042
:101C0000FA61000000052020C2610000B6610000FA
:101C1000906100009D61000050620000AA61000018
:101C20000000AA42186200000462000010270000B1
:101C3000836200000000C842AC6000005D620000EA
:101C4000CE61000029610000756200000E62000094
:101C5000F0B589B0054607A803F04EFF0798FD4987
:101C60000A68871A089AFC4B1C68161BFB4C2560F7
:101C700008601A60FA480078012810D1F948076016
:101C8000F9480660F9480168002920D0691A1ED475
:101C9000F74900240C60F7490C60046019E00496D1
:101CA0000395F54D2C68F54806682046314603F04B
:101CB000C2FA002823D07D20C105204602F0C1FAD7
:101CC0000446314603F0D2FA002828D028E0E8483C
:101CD0000468EB4E35682846214603F0ACFA00282C
:101CE00000D1B2E03F200106284602F0AAFA0546DC
:101CF000214603F0BBFA002800D1B7E0B7E0204648
:101D0000314603F0B3FA002809D0F949204602F021
:101D100098FA0446314603F08EFA002800D1264690
:101D200002962E60F34D2C68384603F0E9FC2146FC
:101D300002F082FA7D21CF05394602F099FE214654
:101D400002F07FFA04462860EB4E3568049803F0F1
:101D5000D7FC294602F070FA394602F089FE29467E
:101D600002F06FFA0746306000212046049103F02C
:101D700074FA0646E149204602F07AFE3F210A063F
:101D8000BF210D06002E294600D01146019202F017
:101D900058FA03F0F1FC0446D94804603846049927
:101DA00003F05BFA06463846D44902F061FE002E85
:101DB00000D0019D294602F044FA03F0DDFCD14930
:101DC0000860201AD0490860029806900590039D8B
:101DD000284603F087F806460798089906AA05AB37
:101DE00001F05EFE284603F0D3FD002815D003F075
:101DF000EDFE002811D1059C0698002103F012FA8F
:101E000000280AD00021204603F00CFA002804D054
:101E1000BE480690059001200490284603F02CFD52
:101E200000283BD00699304602F00BFA0690059840
:101E3000314602F001FA059003F0C8FE069E002824
:101E40007CD00598039037468AE02846214603F067
:101E50000DFA00280AD0BF200106284602F0F1F949
:101E60000546214603F0E7F9002800D12C463460EE
:101E7000B64F3E68B34805683046294603F0DBF9A3
:101E800000281ED03F200106304602F0DAF906464F
:101E9000294603F0EBF9002824D024E0284603F07B
:101EA00077FD069F059C002859D0994D3846294654
:101EB00002F0DEFD07462046294602F0D9FD0390D8
:101EC0004EE03046294603F0D1F900280AD0BF2061
:101ED0000106304602F0B5F90646294603F0ABF993
:101EE000002800D135463D602046294602F030F8F2
:101EF00093480068002103F095F9002800D1F2E032
:101F00003C68914805688F480068002103F08AF911
:101F1000002800D1E7E00021284603F083F90028DB
:101F200000D1E0E000252046294603F07BF9002897
:101F300000D1D8E06D48057009B0F0BD00243046EE
:101F4000214603F078F90028274600D13746059D41
:101F50002846214603F06FF9002800D12C4603944F
:101F60006C4C3846214603F066F905466A4E384601
:101F7000314603F07BF90028304600D13846002D69
:101F8000254600D105460695039F3846214603F0B5
:101F900052F902903846314603F068F9002800D122
:101FA0003E460298002800D1344605940498002843
:101FB00026D000262846314603F03DF90490574FBD
:101FC0002846394603F052F90028384600D1284601
:101FD00004990029354600D105460695204631462C
:101FE00003F029F904902046394603F03FF9002810
:101FF00000D127460498002800D13E46059600E00F
:10200000264647480560474806603A480268464801
:10201000294602F033FA454F38603748026805997F
:10202000434802F02BFA04903E68069C00252046A7
:10203000294603F0F7F8002828462ED10021204633
:1020400003F014F9324900281CD0204602F010FD9C
:1020500039491BE0B0042020B40420209004202043
:10206000FD0420207004202084042020A4042020CB
:10207000D0042020D4042020BC042020D804202018
:10208000A0042020204602F0F3FC2A4902F0D9F8EF
:102090000146304602F0D5F8244F3860059C0646CC
:1020A0002046294603F0BEF8002816D1002120461C
:1020B00003F0DCF81649002804D0204602F0D8FCD2
:1020C0001D4903E0204602F0D3FC1A4902F0B9F89A
:1020D0000146049802F0B5F80546184805603046F8
:1020E000294601F035FF09B0F0BDC046FD042020AF
:1020F000000080BE680420206C0420200000C8423C
:10210000700420208404202080042020000020412E
:102110003333B33E000070C20000704200006041E3
:10212000780420208C042020FC032020740420202C
:10213000200420200000A0C00000A040880420202F
:10214000D0042020D4042020A0042020A804202093
:10215000F0B58BB00A460346DF4905462E7888194C
:1021600040786D1CC006F9D42D2E01D02B2E01D144
:10217000287801E06D1E304603F076FD01D301465C
:1021800001E0014620394E293FD0492958D16878CD
:1021900003F06AFD00D220384E284BD1A87803F016
:1021A00063FD00D22038462844D1002A01D0E81C23
:1021B0001060E87803F058FD00D2203849281FD17C
:1021C000287903F051FD00D220384E2818D16879C3
:1021D00003F04AFD00D22038492811D1A87903F034
:1021E00043FD00D2203854280AD1E87903F03CFDA1
:1021F00000D22038002A03D0592801D108351560B3
:102200002D2E00D1C9E0B749C8E0687803F02CFD55
:1022100000D2203841280DD1A87803F025FD00D246
:1022200020384E2806D1AD490024002A00D12BE1E8
:10223000E81C28E1002A00D013600024214623E195
:10224000A9490591002430280192029317D168789A
:1022500003F00AFD00D220389F4958280FD1A878F2
:1022600009184978890707D42E2808D1E8789A49AF
:1022700008184078800702D5AD1C9C4805909A4B01
:1022800003F0FEFC411E88410690984B049403F035
:10229000F7FC411E884103900894099421460A9452
:1022A0002B782E2B03D1002C3AD1012436E0079451
:1022B0001846303801220928174600D80027069C06
:1022C00062403A4309D0039A002A29D0824AD218A0
:1022D0005278920724D5092804D8C00084490818E8
:1022E000049A0AE0184661381A28049A00D2203B62
:1022F000D8007F4908187F49401890C80A98089963
:10230000059B03F0D9FC22463B4601F0AEF90A904A
:1023100008910998079C001B099001216D1CBFE7DB
:1023200001242D2E01D0089802E0E007089A5040C1
:1023300005900998860003980028324600D1099A32
:10234000002909D00698002807920BD01A46613A56
:102350001A2A03D31A4603E00A9C7DE01A46203A63
:10236000452A09D00398002812D01A46613A1A2A41
:1023700000D2203B502B0ED121466B782D2B01D063
:102380002B2B0DD1A81C0290AD780022D4430BE07A
:102390000295099E3DE002953BE05149002473E01F
:1023A000681C029000241D462A46303A092A26D885
:1023B00000244D229600303D092D25D82D2B01D02B
:1023C000224600E0624207981218D7177A40D71BBE
:1023D000B7420A4600D80022069810420AD10122CC
:1023E0009002874200D800220398104202D10A20AE
:1023F00060434419029A501C55780290DBE702981A
:102400000219501E029000242D2B00D1644207981F
:10241000261800240A9D284608992246234602F0E1
:10242000D3FE002817D106980028059917D04D2013
:102430008000864219DD0D4603F042FC2221016036
:1024400000240A9829462246234602F0C6FE0028A8
:1024500014D1244913E02C46019A059910E00A98FA
:10246000324601F07BFE044609E0234886420EDC3A
:1024700003F026FC22210160214600E01849019A60
:10248000002A01D00298106020460BB0F0BD002E4B
:102490000FD41A4C019A002E1CD0F00706D00CCC99
:1024A0000A98083C03F008FC019A0A907608083460
:1024B000F1E77442114D019A002C0BD0E00706D0D1
:1024C0000CCD0A98083D03F0F3FB019A0A906408CA
:1024D0000835F1E70A9CD3E7005D00000000F87FB3
:1024E0000000F0FF0000F07F0000244000003040BA
:1024F000985E000048FEFFFFCCFEFFFFE05F00009B
:10250000F0B589B00378442B47D14378522B44D19E
:102510008378492B41D1C378562B3ED10379452B83
:102520003BD14379202B38D1801DBE4908AA07AB87
:1025300003F08AF9022800D048E1089E0798069027
:10254000B24801210170BF4D3046294602F073FEAA
:102550000446BA4F3046394602F088FE002800D1C2
:102560003746002C00D13D46A9480560B64D069F70
:102570003846294602F05FFE0446AE4E38463146E4
:1025800002F074FE002800D13E46002C00D13546F2
:10259000A0480560A0480024BDE00378532B32D149
:1025A0004378502B2FD18378452B2CD1C378452BE2
:1025B00029D10379442B26D14379202B23D1801DA7
:1025C0009F4908AA03F040F9012800D0FEE0089DC9
:1025D0008E48012101709B4C2846214602F02BFEBB
:1025E0000746964E2846314602F040FE002800D1AC
:1025F0002E46002F00D134468548046085480024CB
:102600000460854887E00378442B48D14378492B00
:1026100045D18378532B42D1C378542B3FD10379D2
:10262000202B3CD1059106920124401D7D4908AA2A
:1026300007AB03F009F9022800D0C4E0089D079F0A
:1026400000262846314602F008FE019038460396DF
:10265000314602F0F0FD0121C907002804950291DE
:1026600000D04F406948022101707F20C5053846DF
:10267000294602F0E0FD0090704E3846314602F0E7
:10268000F5FD002800D13E460098002800D13546CF
:102690000198002800D09CE0029E75409AE00378E3
:1026A000542B0BD14378552B08D18378522B05D16D
:1026B000C3784E2B02D10379202B11D00378412B04
:1026C00015D143784E2B12D18378472B0FD1C37885
:1026D0004C2B0CD10379452B09D14379202B06D102
:1026E0000378542B069205911BD006211AE0464927
:1026F00002F006FA002802D0002009B0F0BD4348DD
:102700000024047042480460424804604248046067
:10271000424804604248046001204C490C7009B0F2
:10272000F0BD0521012440183E4908AA07AB03F07B
:102730008BF8022847D1089F079D0026384631466E
:1027400002F08BFD03902846314602F074FD012112
:10275000C9070028049100D04D403846314602F0A8
:102760006AFD002801D0049847402F49384602F0FE
:102770007FF92E4902F008FA2D4902F079F902900A
:10278000224803210170224806607F20C6052846A2
:10279000314602F050FD01902F46264D384629461D
:1027A00002F064FD002800D13D460198002800D1C8
:1027B0002E4603980028049800D14640154806602C
:1027C0001D49029814E0204609B0F0BD012009B06F
:1027D000F0BD029E0E4805600E4803990160049DFD
:1027E000284602F028FD002800D0754012492846EE
:1027F00002F03EF908490860084905980860084950
:102800000698086088E7C0466F620000FE0420203A
:102810009C04202064042020CC042020C00420201C
:10282000C404202069620000DA0F494000003443EC
:10283000000070420000F042E7BD3A400000C8428C
:102840008B6200000000C8C20000F0C2F804202023
:10285000F0B589B00A460746CB4B02903E789819EE
:1028600040787F1CC006F9D42D2E01D02B2E01D12B
:10287000387801E07F1E304603F0FAF901D30146B3
:1028800001E0014620394E2940D0492959D17878B4
:1028900003F0EEF900D220384E284BD1B87803F07F
:1028A000E7F900D22038462844D1002A01D0F81C8C
:1028B0001060F87803F0DCF900D2203849281FD1E5
:1028C000387903F0D5F900D220384E2818D178791C
:1028D00003F0CEF900D22038492811D1B87903F09D
:1028E000C7F900D2203854280AD1F87903F0C0F98A
:1028F00000D22038002A03D0592801D108371760A8
:102900002D2E00D1C3E0FF20C50521E1787803F02A
:10291000AFF900D2203841280CD1B87803F0A8F9DB
:1029200000D220384E2805D1984D002A00D10FE161
:10293000F81C04E00025002A00D109E1029810608B
:1029400006E1944905913028019216D1787803F078
:102950008FF900D2203858280FD1B8781918497843
:10296000890706D42E2808D1F878181840788007EF
:1029700003D5BF1C8320C00505908649059C2046D1
:1029800002F050FC411E884106908320C10520467C
:1029900002F048FC411E88410390002407940494EF
:1029A00008943A782E2A03D1002C33D101242FE049
:1029B00011463039012509292B4600D800230698F5
:1029C00045401D4309D00398002823D06E48831842
:1029D0005B789B071ED5092903D888006E49081823
:1029E00008E0104661381A2800D2203A90006A495F
:1029F0000818DC3805680898059902F039F8294666
:102A000001F01FFC08900798001B0790012004901C
:102A10007F1CC6E701232D2E01D0089902E0D907BB
:102A200008984140079EB500039800282C4600D125
:102A300034460498002809D00698002805910DD046
:102A4000104661381A2805D3104605E00D46019856
:102A5000029F7AE010462038452809D003980028C4
:102A600011D0104661381A2800D2203A502A0CD1D1
:102A700007937A782D2A01D02B2A0AD1BE1CBB7865
:102A80000020C54308E0344632E02C4630E0404D9B
:102A90005EE07E1C0025134618463038092823D8EE
:102AA000002537462D2A01D0284600E06842303BF9
:102AB0000019092B1BD8C6177040861B262E0798B5
:102AC00000D80020069901420AD1802E01D80020AA
:102AD00000E001200399014202D10A206843C51891
:102AE000781C7B780746DDE77019471E00E0044636
:102AF00000250898294602F095FB002813D1069876
:102B00000028059811D0272C14DB044603F0D8F8D0
:102B1000222101600021204602F08DFB002812D105
:102B2000FF20C50510E0059D0EE0214601F0F0FBF9
:102B3000054609E02521C9438C420CDC03F0C0F8AE
:102B40002221016000E0124D0198002800D00760AA
:102B5000284609B0F0BD002C0AD4104D002CE7D057
:102B6000E10702D0296801F083FF64082D1DF5E715
:102B700064420A4D002CDBD0E10702D0296802F044
:102B800003F864082D1DF5E7005D00000000C07F1C
:102B9000000080FF000020416C600000E460000045
:102BA000F0B591B00F90012548000D90400D5C00EC
:102BB000670D59401095EE070E40AB494D1E441964
:102BC0008C4200D203E17C198C4200D2FFE00496D3
:102BD00010990C05611E00910B400025E9430E91F0
:102BE000A449019423430C93C01B40180290401C3D
:102BF0000390D0020A90500DD9020B9247189E48BC
:102C0000C41B3846294622462B4602F0D3FE4842D2
:102C1000294622462B4602F0CDFE4900C00F44183B
:102C2000204629463A462B4602F0C4FE4A42204638
:102C300029462B4602F0BEFE4900C00F441820462C
:102C400029463A462B4602F0B5FE4A42204629461E
:102C50002B4602F0AFFE4900C00F4018441E384614
:102C6000294622462B4602F0A5FE06460F460A9844
:102C7000294622462B4602F09DFE70186F4110999E
:102C8000081A0A902A46BA41204629462B4602F0E5
:102C900091FEC20F49008918099146000A982946F9
:102CA00022462B4602F086FE4A00C00F8018CF0F46
:102CB000341809994F41E13C0994AF410F9AD00F64
:102CC0000D9909180691520008920E98401E0D9019
:102CD0002E46AE410846304003460790204629461E
:102CE00002F068FE0A910698C043614AD14301434D
:102CF000521A05922C466C4109982946234602F047
:102D000059FE0690099138462946089A079B02F019
:102D100051FE0890079138462946059A234602F04D
:102D200049FE05900A9A069BD0182B466B41079FD7
:102D30003E400D9C089A224082185E410598381842
:102D40006941099A80186941841969410E98401CAB
:102D50004748684181424BD2002201988142109835
:102D600000D310460F9B01D3039A029281401F2289
:102D700042406708D7400F4384405E0520463946ED
:102D80000B9A0C9B02F016FE40428E4102994A1E9D
:102D90003449491E8A423EDC012A48DB00990F4033
:102DA0001205C10F73005B184000109921404018B4
:102DB0003A4304990A430021651C51410B9E301A85
:102DC0000C98984100D3254644D3114642E0002F89
:102DD00028D024498F4204D0002823D0884200D034
:102DE000F5E62248064300253146284611B0F0BDDD
:102DF0006008CA0784184F080F9806052046394610
:102E00000B9A0C9B02F0D6FD40428E41039A154965
:102E1000491E8A42C0DD1548049901430025284611
:102E200011B0F0BD00252946284611B0F0BD002A9A
:102E300013D10E994C400E494F4027430DD1019AB2
:102E400056403043294605D10499114300252846B0
:102E500011B0F0BD284611B0F0BD2946284611B08A
:102E6000F0BDC046FF07000002F8FFFF0000F07F42
:102E7000FFFF1F00FE03000033F30475F0B5E3B05D
:102E80008A480078012800D00DE123A802F034FE22
:102E90002398209024981F90854800681E908548AC
:102EA00000681D90844800681C9084480568844828
:102EB00006682846314601F0BFF9074600212291F5
:102EC00002F0CBF904467F49384601F0D1FD3F219D
:102ED00009062191BF210F06002C394600D0219907
:102EE00001F0AFF902F048FC1B903046229902F045
:102EF000B4F904463046734E314601F0B9FD002C5A
:102F0000394600D0219901F09CF902F035FC1A9065
:102F10002846229902F0A1F904462846314601F0DC
:102F2000A7FD002C394600D0219901F08AF902F062
:102F300023FC1990644804682046229902F08DF918
:102F400005462046314601F093FD002D394600D05C
:102F5000219901F076F902F00FFC18905B480468A3
:102F60002046229902F079F905462046314601F0C3
:102F70007FFD002D394600D0219901F062F902F061
:102F8000FBFB1790524804682046229902F065F92D
:102F90000546504E2046314601F06AFD002D394667
:102FA00000D0219901F04DF902F0E6FB1690484857
:102FB00044682046229902F050F9054620463146E1
:102FC00001F056FD002D394600D0219901F039F964
:102FD00002F0D2FB15903E4884682046229902F008
:102FE0003CF905462046314601F042FD002D3946A8
:102FF00000D0219901F025F902F0BEFB149036486B
:1030000004682046229902F028F9054620462D49F9
:1030100001F02EFD002D00D0219F394601F011F95D
:1030200002F0AAFB229002F0F1FD21902B480068EB
:1030300002F022FC054602F0C1FD064602F0B6FD94
:10304000044602F0E9FD074602F0ECFD10941197EA
:103050001290179808901698099015980A9014984D
:103060000B9022980C9021980DA961C11F98009097
:103070001E9801901D9802901C9803901B98049034
:103080001A9805901998069018980790144A0120EC
:10309000010223A8209B02F04FFA401EFE2802D80E
:1030A00023A802F093F963B0F0BDC04600052020CC
:1030B0007004202084042020800420208804202004
:1030C000740420200000C842780420208C042020B2
:1030D000FC03202000007A44BC042020900420201F
:1030E000015E0000F0B58FB004910546724E01906C
:1030F0002F78F3195B786D1CDB06F9D46F4800213B
:10310000CC43631C0E93034608464B412D2F02947B
:1031100003D02B2F0E94694B02D12978059102E040
:103120006D1E05970E94242A00DC1046102812D03C
:10313000002831D10A21059A302A1FD16C7820222B
:103140002243782A1CD1A87805903018407880074F
:1031500020D40C911BE010200C90059830281CD135
:103160006978302020220A43782A11D1A978059164
:103170007218527892070BD5AD1C0EE00C910CE042
:10318000302C02D3382C00D292E008200C90302052
:10319000059002E0AD1C10200C90039700270E98BC
:1031A0001C4619460C9E32463B4602F0D3FC099061
:1031B000089132460B973B4602F0FCFB0E9A101A20
:1031C00006908C4107940A2E0A9601D30A200A9091
:1031D0000B990D910E91059F3E46303E0A9A9642FC
:1031E0000B9C1CD3344AD219507843063B460BD56E
:1031F0001E46373EF417002305930C9BF31A234613
:10320000059A93413B460AD382063CD5573BDC17CF
:1032100000221E460C9BF31A2346934133D2099B8E
:103220000E981A1A089F3A468A4118D302465A4005
:103230000B467B40134304D1069A921B079AA24186
:103240000DD300230C9A02F0B5FB30180E904C41C0
:103250000D9A511CAA1857780D912146BCE702F02F
:103260002FFD222101600498002801D001990160FE
:103270000022029B581C11494A41039C2D2C00D06E
:10328000184611D111E0049A002A039C05D00D9E26
:10329000002E019B00D0AB1913602D2C0E9803D18A
:1032A000002240428A4100E00A4611460FB0F0BDBC
:1032B00005946D1C08206FE7005D0000FFFFFF7F95
:1032C000F0B58DB007920890002201260B914900BD
:1032D0004F0D5900490D0C91694C651E09977919DC
:1032E000A142314600D31146F7070A971F460B98B3
:1032F00047400C984519A542344600D314465F4D0B
:103300000A980740214301290AD10C98002800D1CE
:1033100084E0A8427BD0099800287FD0A84276D0CC
:103320000096069700260125079A500DD902081825
:103330000590D00203903146089C2246334602F0A5
:1033400039FB049007910195EF070598074338462C
:1033500031462246334602F02DFB089005910B982A
:10336000C0434949CA4302438A1A0292344674410F
:1033700003983146234602F01DFB05460B91384663
:10338000049F3146029A234602F014FB3F4A17403D
:103390001540079AAA18334673410B9C20187141B7
:1033A000059C00197141089C121958417141099BF3
:1033B0000C9CE318CC0221D4354C1B19C40F4900D6
:1033C00009194000D40F0019FC0F520012197D009A
:1033D0002A4C641EA342069F19DC019C2405002B85
:1033E00021DD641E21401B050B43194639436B4206
:1033F0000A9C2346934126D2401C2AE0244C1B19E8
:103400005B1C1E4C3D46641EA342069FE5DD1D4825
:1034100007430026394630460DB0F0BD0026314640
:1034200030460DB0F0BD1B4D6940C043002A15DB8E
:103430000843002B009916D0002817D000980028C8
:103440003146E8D117E06240154303D1019A0240AA
:1034500080187141064630460DB0F0BD0196084314
:10346000002B0099E8D101990028E7D1009100983C
:1034700000283146CFD12743CBE7C046FF070000E5
:1034800002F8FFFF0000F07FFFFF0F0000F8FFFFD2
:1034900001FCFFFFFFFF1F00F0B5D9B064480068D2
:1034A00014906448046800252046294601F0D5FEA2
:1034B00007466149204601F0DBFA3F2109061891D1
:1034C000BF210C06002F214600D0189900F0B9FE4C
:1034D00002F052F91690594807683846294601F01B
:1034E000BCFE06463846544901F0C2FA002E214679
:1034F00000D0189900F0A5FE02F03EF91590504852
:1035000006683046294601F0A8FE074630464A497B
:1035100001F0AEFA002F214600D0189900F091FE7C
:1035200002F02AF91390474806683046294601F010
:1035300094FE07463046404901F09AFA002F214692
:1035400000D0189900F07DFE02F016F912903E4866
:10355000007811903D480078109002F06FFB0F90BA
:1035600002F072FB0E903A480668304617952946DD
:1035700001F073FE07463749304601F079FA002F13
:10358000214600D01899149A150100F05AFE02F055
:10359000F3F814902E4846683046179901F05DFE06
:1035A000074630462B4901F063FA002F214600D030
:1035B0001899EA0F0D9200F044FE02F0DDF806467D
:1035C000234887683846179901F047FE0546384674
:1035D000204901F04DFA002D00D0189C214600F042
:1035E00030FE02F0C9F816990091159901911399CE
:1035F00002911299039111990491109905910D99D5
:1036000006910F9907910E990891149909910A96BC
:103610000B90114A114B0120010219A801F08CFFF7
:10362000401EFE2802D819A801F0D0FE59B0F0BD06
:1036300080130A40BC0420200000C842D804202087
:10364000A0042020A8042020FD0420200005202024
:10365000FC03202000007A44185F0000FC6000009A
:10366000FCB40124E407634002E0FCB40124E40755
:1036700008B41D03ED08D60D354356025F007F0DDB
:1036800006D12C00344300D0AEE001B0FCBC704742
:10369000A408254307242402FF34A74205D10020B3
:1036A000190D090501B0FCBC7047002B03D500249F
:1036B000A61BAC4125000B03DB08C20D13434202DD
:1036C0004800400D07D11C00144300D08CE00EBC14
:1036D0001000F0BC70470124640723430724240230
:1036E000FF34A04205D10020090D090501B0FCBC42
:1036F0007047002903D50024A21A9C412300C11B56
:1037000008D51C002B0025001400320026000024E0
:10371000611A3800362925D502B4393949420C00DE
:10372000203C03D22F008F40374301E03700A740F1
:10373000002F01D040210E4302BC20290BD50029C7
:103740000ED04C42203420B4A5402C0020BC0D41AA
:10375000CE40361904E000292E000D4120390E41DB
:1037600092196B411C0014433ED00024002B04D559
:10377000012400218A1A99410B00401E52005B412E
:10378000FBD50121890215000D400CD052180027ED
:103790007B4101D3401C0BE00721C90115000D40FE
:1037A00001D189008A43072109028A4352005B4103
:1037B000801C19DD07210902FF31884209D30EBCA4
:1037C0000020C90F0902FF31C900C91D0905F0BC5D
:1037D0007047190B00050143E40721431805120B3C
:1037E000104301B0FCBC70470021002001B0FCBCBC
:1037F0007047FEE7F0B58BB014460391564F06466E
:103800003378F9184978761CC906F9D4242C00DDE0
:10381000002401252B2B02D02D2B02D1002533783B
:1038200000E0761E102C10D0002C2BD10A24302B57
:1038300028D1737820211943782916D1B378F91843
:103840004978890717D430231CE01024302B19D174
:103850007378302120221A43782A04D1B378FA18D9
:10386000527892070AD40B460CE0302B01D3382B48
:1038700006D3302305E0B61C102403E0B61C01E09B
:10388000761C0824019502900A2C069401D30A2084
:10389000069000200A9007460590099004961D4660
:1038A000303D06988542059811D32B48C1184978B8
:1038B0004A0605D51D46373DA54201D2E81706E068
:1038C000890632D5573BA3422FD2D8171D46079001
:1038D000E6170A98089739462246334602F06AF8F6
:1038E00022460F462D180798474128463946334649
:1038F00002F030F9089A51400A9A5040084307D123
:103900000998411C049E301843780A950991C6E72E
:103910000020C44302F0D4F922210160039800285A
:1039200001D002990160214613E003980028019A12
:103930000A9C394605D0099D002D029B00D07319C1
:103940000360002063428841002A00D11C4600D158
:10395000014620460BB0F0BD005D0000F0B585B01B
:1039600016464D4B044625785A195278641CD206E7
:10397000F9D44A4A2D2D02D1521C029202E02B2D7D
:10398000029201D1277802E0641E2F460292242E73
:1039900000DD0026102E0191009011D0002E27D1BD
:1039A0000A26302F24D1677820223A43782A17D16B
:1039B000A778D8194078800717D5A41C102617E0DF
:1039C0001026302F14D16178302020220A43782A23
:1039D00004D1A778D9194978890708D4074607E0A0
:1039E000302F01D3382F54D30826302700E0A41CF1
:1039F0000298314601F028FE3146039041430A2ED9
:103A00003046049601D30A220492029A511A029176
:103A1000002319463E46303E049A96420ED31E4A73
:103A2000D2195278560603D53E46373E864205D314
:103A3000920620D5573F87423E461CD2039A9142B8
:103A40000AD802D1029A964206D8414371185A1CEC
:103A5000E3185F781346DDE702F032F922210160B6
:103A60000198002801D0009901602D2D0B4800D14C
:103A7000401C05B0F0BD0198002804D0002B009A2E
:103A800000D0E21802602D2D01D00846F1E748422F
:103A9000EFE7641C0826ABE7005D0000FFFFFF7F37
:103AA000F0B581B00E46424C217800297DD01546F4
:103AB0000093032919D002293DD13E490968401AD3
:103AC00001F01EFE07463C480068301A01F018FE5F
:103AD0000146384600F0B5FB3F21090600F0C8FF5B
:103AE00006460120C007864319E032490968401A9A
:103AF000C1174840401A01F025FF07462E480068CC
:103B0000301AC1174840401A01F01CFF01463846E0
:103B100000F097FB3F21090600F0AAFF0646274F59
:103B20003868C121090600F08CFB0146304601F0DF
:103B300094FB002829D122480668224800682349BE
:103B400000F096FF224901F01FF8224900F090FF93
:103B500007463046394600F06FFB0446304639468A
:103B600000F06FFB06461C4F2046394600F080FFF0
:103B70001A4C214600F07CFF28603046394600F0A0
:103B800077FF214600F074FF0DE0002020700C4903
:103B900008600C49086038600649086006490860FA
:103BA0000949087028600099086001B0F0BDC0465E
:103BB000FE042020C0042020C4042020CC042020A7
:103BC0009C04202064042020F8042020DA0F4940BF
:103BD0000000344300007042E7BD3A400AD7A33CDE
:103BE00090B001F05FFE01F083FC01F06FFE01F088
:103BF00081FE01F071FB01F051FA3D483D49416001
:103C00003D490A68FF231B069A4303239B07D218EA
:103C10000A6000258560072101603B4E3B4F02E0B2
:103C200001F0AEFB30BF6846402100F007F90028E4
:103C30001AD06C462046FDF7F5FC4021204600F0E6
:103C4000FDF8002810D06C462046FDF7EBFC402123
:103C5000204600F0F3F8002806D06C462046FDF719
:103C6000E1FC40212046E0E76846402100F058FC96
:103C700000281AD06C462046FDF7D4FC402120468F
:103C800000F04EFC002810D06C462046FDF7CAFC20
:103C90004021204600F044FC002806D06C46204617
:103CA000FDF7C0FC40212046E0E701F069FB134826
:103CB0000078012805D11148057011480068FDF70A
:103CC000C7FF10480078012803D10E480570FFF7A0
:103CD000D5F83078012804D135700948006801F022
:103CE0004FFC387801289BD13D7001F057FF97E7D2
:103CF00010E000E0FF7C000020ED00E0F90420204F
:103D0000C804202001052020FA042020FF042020E0
:103D1000F0B585B002910546474B019028781918F7
:103D200049786D1CC906F9D4242A00DD002201243B
:103D30002B2802D02D2802D10024287800E06D1E07
:103D4000102A11D0002A0DD10A2230280AD1687811
:103D500020210143782917D1A878191849788907B3
:103D600018D4302013461AE01026302816D168786F
:103D7000302120220243782A04D1A8781A185278D8
:103D800092070AD4084609E0302801D338284FD3D7
:103D900030204EE0AD1C102301E0AD1C33460094F2
:103DA0000A2B039301D30A21039100273C460146C5
:103DB0003039039A91420ED31F4909184A785106A7
:103DC00003D501463739994205D3910623D5573893
:103DD000984201461FD21846784304970F18384678
:103DE0001E46194601F030FC0499814205D1611C40
:103DF000281940780C463346D9E70020C74301F024
:103E00005FFF222101600298002801D00199016022
:103E1000384605B0F0BD0298002804D0002C019966
:103E200000D02919016000980028F1D17F42EFE706
:103E30006D1C0823B3E7C046005D0000F0B583B0F9
:103E40000290384F3C68384D2B8838480288002053
:103E5000934265D001900091384909E036480555F4
:103E6000641C3C60304D2888304A1388984244D006
:103E700028882A462F4B1D5C1088401C7F23034056
:103E800013800D2D01D00A2D03D1002C38D1002430
:103E9000E8E73E2CE2D900243C604525244A088806
:103EA000401C1040264F3B8898421FD00B88254E5F
:103EB000F55408802448051968780B885B1C13406A
:103EC0003F88BB4212D00F88F0550B800F2C11D0C9
:103ED000A8780B885B1C1340194F3F88BB4205D064
:103EE0000F88F0550B80E41CED78D8E7174A10686E
:103EF000401C106000240B4FB4E7019803B0F0BDE4
:103F00000098844200D3441E002C04D00A49029831
:103F1000224601F0DDFE00210298015539600120A2
:103F200003B0F0BDE4042020F2042020F00420209F
:103F3000FF0100003C032020BC032020F4042020CB
:103F4000F6042020000020204F610000E004202023
:103F5000F0B583B00C460746002101F063F9002854
:103F600009D00021204601F05DF9002803D001F0BE
:103F70009BFA03B0F0BD00253846294601F06DF9E3
:103F8000411E884102903846294601F054F901212A
:103F9000C9070028009100D04F403846294601F05B
:103FA0004AF90190294E3846314601F05FF9002860
:103FB00000D13E462649304600F05AFD254900F022
:103FC000E3FD3F210F06394600F03BF90146019819
:103FD0000028384600D1084601F004FC014602984A
:103FE00001F04EF92046294601F037F90646401EF9
:103FF00086412046294601F01EF9002801D000988C
:1040000044402046294601F016F9029020460F4D03
:10401000294601F02BF9002800D1254628460C49F5
:1040200000F026FD0B4900F0AFFD394600F009F91C
:104030000299002900D10746384601F0D3FB01461A
:10404000304601F091F803B0F0BDC0460000AA422E
:1040500000007A440000C842F0B5394A8218394B52
:10406000C0183A4D4C790B79002C22D0466F202B8A
:1040700002D00524E70100E0354F2E40002B00D18F
:1040800088273E434667846F2C403C438467446BDB
:104090002D4E34404463846B344084630024446573
:1040A000846554688F26F6433440546094683440E5
:1040B00094600C688979202B09D006467036002B55
:1040C00015D1641E4460C46E2C40882715E0641E20
:1040D0004460C46E2C401E4E3443C466046F2C40B2
:1040E000344304671B4D01246707064607E0052794
:1040F000FF0164084460C46E2C403C43C4663468CD
:104100002C403C433460C46A0F4D2C40C462046BA5
:104110002C4004630024C4640465C46F8F25ED4300
:104120002C40C46714682C401460194302680A4B81
:104130001340BD220A40D118891C0160F0BDC04661
:1041400084180000041800008888FDFF24493E0000
:1041500001040000FFFFFFCF4000FFCFF8B5154678
:104160000C462B4E0A0D771C3A402A4B9A4213D02C
:10417000002A1AD10122D2079143014345D00022DF
:10418000254B214601F098FD0C4624498D4209DC5F
:10419000234A244B214635E0214602462346FFF7B9
:1041A00064FA31E0220D3A40363A5119B1420ADD43
:1041B00001F086FD222101600120C00704401D4856
:1041C0002418002021E0012904DB174A14400905C6
:1041D00064181AE03522D24391420ADC01F070FDE6
:1041E0002221016012488542E6DA0120C00704401E
:1041F000E7E70D4A144009051B225205891821439F
:1042000000220A4B01F058FD0C462146F8BDC0467D
:10421000FE070000FF07000000005043AF3CFFFF17
:1042200059F3F8C21F6EA501FFFF0F800000903CFC
:1042300051C300000000F07FFCB40127FF07794064
:1042400002E0FCB40127FF070C024D002D0E03D144
:10425000002C52D1FCBC70473C43FF2D50D0A40829
:10426000002900D56442020243001B0E04D1002A3B
:1042700043D10800FCBC70473A43FF2B41D0920861
:10428000002800D552425E1B04D5170022003C00D6
:1042900076422B00192E06D527003741D2191C274C
:1042A000F71B7F42BC40002A27D002D5524201278B
:1042B00000E00027013B5200FCD515008026354068
:1042C0000FD01500202635402C43803208D215002F
:1042D000402635402C4304D101263602B24300E08B
:1042E0005B1C5200023308DDFF2B0BD2500ADB05AA
:1042F0001843FF073843FCBC70470020FCBC7047E4
:104300000800C70FFF07FF20C0053843FCBC7047FB
:10431000B0B50446C00DC0B2FF2814D00D46002829
:1043200019D10021204600F07DFF002845D113203F
:104330008106204600F09CFB04462148854207DCAC
:104340002049204636E020462146FFF77AFF33E039
:10435000E00DC0B219384019FF280ADB01F0B0FCAB
:10436000222101600120C0070440FF20C00524185D
:1043700023E0012805DBFF21C9058C43C005041992
:104380001BE01821C94388420ADC01F099FC222174
:1043900001600D488542E5DA0120C00704400CE0C9
:1043A000FF21C9058C43C0051921C90540182043C8
:1043B0003321090600F05CFB04462046B0BDC04630
:1043C000AF3CFFFF6042A20D51C30000B0B5224ACE
:1043D0008520D06101210B02204803608423936370
:1043E0004B021F490B60822353621E4C94621E4D88
:1043F000EB602C6181236B611446183C2360AB6237
:10440000536593642B60EB612B62184BD360D468C7
:10441000D4601361146914611360146814605360EC
:10442000536853600246303A45235B0613600360CD
:10443000084630380E4A02600A600E48016855226C
:104440000A4302600C48016A0F22114301620168AD
:1044500011430160B0BDC04630804240D0120A40D6
:10446000D0320A4082000400C880424081000E0021
:104470000020410C90330A4028300A40F0B581B04A
:10448000044640690090A06108461146FFF7D4FE3B
:1044900006466061E169FFF7D4FE0546E061E76822
:1044A000394600F0E3FE002808D10120C00747404C
:1044B0002846394600F0BFFE002801D0E7613D469E
:1044C00027686068294600F0D3FA05463846314629
:1044D00000F0CEFA2946FFF7B4FE0546A76830463D
:1044E0000099FFF7A9FE0146384600F0C1FA2946B7
:1044F000FFF7A7FE064620622569294600F0B6FEB2
:10450000002808D10120C00745403046294600F068
:1045100092FE002801D025622E46304601B0F0BD43
:10452000F0B583B00290214E3468214B1F88214D95
:104530002A880020974224D0019000911E4F09E064
:10454000002434601E490868401C086018882988C7
:10455000884215D01988795C1888401C7F22024057
:104560001A800D2901D00A2903D1002C0BD1002477
:10457000ECE71E2CE4D811480155641C3460E5E7D3
:10458000019803B0F0BD0098844200D3441E002C73
:1045900004D00A490298224601F09AFB00210298B1
:1045A00001553160012003B0F0BDC046E804202071
:1045B000EE042020EC042020BC0220204404202013
:1045C000AC042020F0B58B4200D1824204D90B000C
:1045D00002000021002040E0002B00D1002A0CD175
:1045E0000B00020000210020002B00D1002A01D086
:1045F000C943C04300F0D3F82FE01C0015000B00A6
:1046000002000CB4002126002F00FF19764102D2CF
:10461000491C4029F9D100201E001700FF197641DE
:1046200002D2401C4028F9D10E1A21002800320085
:1046300001F0F4F90C0005000CBC00200021A3429D
:1046400000D1AA4201D3521BA341404149416D0808
:10465000E7073D436408761EF1D5059F002F01D082
:104660003A607B60F0BD7047B0B582B00C464D211A
:10467000C94302784C2A0FD14278492A10D1827856
:104680004E2A0ED1C278452A2BD10279202A0AD08F
:104690002E31D14207D027E0891CD14203D023E03C
:1046A000491DD14220D10125401D114901AA6B4667
:1046B00001F0CAF8022818D10E4805700198411E71
:1046C00088410D49087000989F21C943884200DC49
:1046D0000846A02800DBA0200849086008480460BC
:1046E00003E00931D142DED00025284602B0B0BD3A
:1046F00063620000FB042020FC042020980420209A
:104700007C042020002A49D084468B071CD18307D3
:1047100022D1102A08D370B4103A78C978C0103A60
:10472000FBD270BC103238D0042A2CD3082A05D30F
:104730000C2A01D308C908C008C908C008C908C0A4
:1047400092072AD0920F22E00B780370491C401C7C
:10475000521E22D08B07F7D1C30714D18307D8D0BC
:10476000121F12D308C903801B0C4380001D121FA7
:10477000F8D20AE008C903701B0A43701B0A837051
:104780001B0AC370001D121FF4D2121D05D00B7836
:104790000370491C401C521EF9D160467047704797
:1047A000F0B581B01C491D4C204601F055F91C495B
:1047B0002046FFF751FC1B4801681B4A0A40026073
:1047C00000250095204629462A462B4601F07CF913
:1047D000204629462A4601F031F9144E204631463A
:1047E0002A4601F0D3F901270097204629462A4698
:1047F0002B4601F069F9204629463A4601F01EF998
:10480000204631463A4601F0C1F909488760032144
:10481000016001B0F0BDC0463D620000000086406E
:1048200040620000041886407F00FFFF7F02000006
:1048300000118640F0B50020C1431F4A1F480346BF
:10484000103B1B6808241C405D0706D4002C10D1C7
:10485000DC0719D19B0721D428E01768184D2E6872
:104860003F0701D50F4600E00127BE192E60002C3E
:10487000EED01668124C256876070E4600D5012644
:1048800075192560DC07E5D01468022525400D4C1C
:104890002668AD196D1E25609B0707D51468094A67
:1048A0001368E40700D10121C918116001680F22C3
:1048B0000A430260F0BDC04680330A4048300A40D7
:1048C00094042020B8042020F0B5C7B005930492CA
:1048D0000D46069000240846214600F0BEFC064620
:1048E0001B49284600F0C4F83F210A06BF210F06E5
:1048F000002E394600D011460392FFF7A2FC00F0CB
:104900003BFF0546049E3046214600F0A6FC0446C7
:1049100030460F4900F0ACF8002C00D0039F394618
:10492000FFF78FFC00F028FF00950190059802909A
:10493000084A0120010207A8069B00F0FDFD401E69
:10494000FE2802D807A800F041FD47B0F0BDC046E0
:104950000000C842AC600000B0B517480168491CAF
:1049600001600468154A54430221CC41144B9C4217
:1049700002D8144C0125257004686243CA419A424A
:1049800002D8114A012313700268104B53430422CA
:10499000D3410F4A934202D80E4A01231370006894
:1049A0000D4A4243CA410D48824200D9B0BD0C486D
:1049B00001210170B0BDC046C8042020CDCCCCCCB4
:1049C000CCCCCC0CF904202001052020DBD453BE34
:1049D0003D2F0200FA042020D578E9266E128300CC
:1049E000FF04202040B542004B005E08164301D072
:1049F00006004E4000D4D01A04D20120C90F06D1BF
:104A0000404204E003D90120C90F00D04042FF26F4
:104A10003606B24200D8B34200D9012040BD40B5AD
:104A200042004B005E08164301D006004E4000D401
:104A3000D01A04D20120C90F06D1404204E003D9A4
:104A40000120C90F00D04042FF263606B24200D8EE
:104A5000B34201D90120404240BD42004B0000203A
:104A6000FF2109068A4200D88B4200D901207047F5
:104A7000FCB40127FF0706004E4001D4002600E0E9
:104A80003E00020243001B0E30D03A43FF2B30D0D1
:104A90000C024D002D0E29D03C43FF2D29D05B196F
:104AA0004240504042404C4061404C4000B500F014
:104AB00045FE20BCAE464240504042404C40614022
:104AC0004C4025001400002C01D46400013B8034CC
:104AD00001D3013364087E3B08DDFF2B09D2BC43C0
:104AE000200ADB0518433043FCBC70470020FCBCA7
:104AF0007047FF20C0053043FCBC704700BF7047C3
:104B0000024670B50A4392072AD11E4DEE0104C831
:104B100008C9541B9443344017D0D0B2D9B2401ABC
:104B20002106014310D190B299B2401A21040143E9
:104B30000AD110021902000A090A401A210201438F
:104B400002D1100E190E401A70BD9A42DFD010BA71
:104B500019BA884201D9012070BD0020C04370BD40
:104B600002780B7801300131002A09D09A4207D12E
:104B700002780B7801300131002A01D09A42EFD03F
:104B8000D01A70BD01010101FCB40127FF07060026
:104B90004E40F60FF607020243001B0E2DD03A439B
:104BA000FF2B2DD00C024D002D0E26D03C43FF2DA7
:104BB00026D05B1B0020202164085208A2424041FD
:104BC000A24200D3121B013904D0002A01D05200A6
:104BD000F4D18840384201D14000013B803001D3FC
:104BE000013300E040007F3307DDFF2B08D2400A8D
:104BF000DB0518433043FCBC70470020FCBC704709
:104C0000FF20C0053043FCBC7047000010B51949B7
:104C1000194C204600F0A8FF1849204600F0FCFB84
:104C2000174801680322D203914301600169154AC4
:104C30000A4011320261416917220A4328218A433E
:104C40004261426801210A4043688B439A184260DE
:104C500002684B0413430360C26870231343C360AC
:104C6000C2680223134305229343C36002680A43C8
:104C7000026010BDDE5F000000801040E6610000B1
:104C8000009110400000FFFF10B51949194C204653
:104C900000F06AFF1849204600F0BEFB1748016883
:104CA0000322D203914301600169154A0A4011327F
:104CB0000261416917220A4328218A4342614268FE
:104CC00001210A4043688B439A18426002684B04F2
:104CD00013430360C26870231343C360C268022396
:104CE000134305229343C36002680A43026010BD68
:104CF0006A60000000201040F061000000311040A8
:104D00000000FFFFF8B5451C00780023082B32D0C7
:104D10002F78C2070CD16A780F241440E41C122C9F
:104D20000BD102242E57F4B2002E08D4EE1C0EE054
:104D30006D1C4A1C0F7011461AE0AE1C08E02E1DB7
:104D4000ED7800957F252C40009DED012C19123443
:104D50003D0112095219094DAA420ED0D243002C2E
:104D600005D08D5C4F1C0D70641E3946F7E7354643
:104D700040085B1CCAE72846C5E7F8BDFF0F0000E6
:104D8000FEB502930F46194D0024E143184E0097DB
:104D90003740019043422B46BB4101D20C4623E0F1
:104DA000084602990E405342B54101D204461BE029
:104DB000134601990B433E431E43029D009E13D0B0
:104DC0002B46334004D401998B1A3346AB4103E0A0
:104DD0000199531A2B46B341044605DB51406E40FE
:104DE0000E43701E864134462046FEBD0000F07F13
:104DF000FFFFFF7FF8B5009003680C68194D267817
:104E0000AF197F78FF060CD51E78AE197678F606B6
:104E100004D51668761C16605B1CF5E7641C0C60F4
:104E2000EDE70025F6B2002E13D0252E0CD0661922
:104E3000761C0E60605D5F5DB8420CD11068401C4E
:104E4000106036786D1CEDE7581900990860012054
:104E5000F8BD0020F8BD0020002F00D0F8BDC043F1
:104E6000F8BDC046005D000080B5FFF7E3FC80BDE3
:104E70000CB41B4B4A00D21A1BD2000D0A0310437C
:104E800001221202801802D3400812038918400A36
:104E9000002902D50122D20710434900490D3822CA
:104EA0001201891A0CD4FF290DD2C90508430CBC84
:104EB0007047DB431A40024305D0D8430CBC70470F
:104EC00000200CBC7047C90FC907FF20C00508436C
:104ED0000CBC7047C046C046C046C046C046C0462F
:104EE0000000E0FFF0B581B01449097800240129E1
:104EF00021D113490968401AC8281CD811480078E4
:104F0000C00718D01048006800F0FAFB0F49FFF7FF
:104F1000AFFD05460E4C214600F08DF90646812076
:104F2000C7052846394600F0A1F9002800D12F46D0
:104F3000002E00D13C46204601B0F0BDFB042020ED
:104F40007C042020FC042020980420200AD7233D44
:104F5000000080C0F0B581B014480068C0B20B28D2
:104F600021D1134C6946204600F084FD00281AD058
:104F7000104D114E124F09E02A88104B9854298089
:104F80006946204600F076FD00280CD0684600787F
:104F900029884A1C7F21114032889142ECD138681F
:104FA000401C3860ECE701B0F0BDC04620901040D6
:104FB00000801040F0042020F20420203C03202038
:104FC000DC042020F0B581B014480068C0B20B2882
:104FD00021D1134C6946204600F04CFD00281AD020
:104FE000104D114E124F09E02A88104B9854298019
:104FF0006946204600F03EFD00280CD06846007847
:1050000029884A1C7F21114032889142ECD13868AE
:10501000401C3860ECE701B0F0BDC04620301040C5
:1050200000201040EC042020EE042020BC022020B0
:10503000AC042020F8B50446164F174D0E462E40FE
:105040000120009464423C46B4411AD31D405442AE
:10505000AF4116D31046009C20433543054311D081
:105060000020C0431C460C400ED4009CA41A0C46E1
:105070009C4106DB0098504059400143481E814145
:105080000846F8BD0020F8BD009C141B1C468C414E
:10509000F0DAF6E70000F07FFFFFFF7FF0B583B0A6
:1050A00011480190114F009711487F21CC05114DF7
:1050B000002621462A46334600F036FD00970A486E
:1050C00001900D4821462A46334600F02DFD00F0A0
:1050D0004DFC00F0D9FA31208005084908600848E5
:1050E00000F074F903B0F0BD0000AA42000048438C
:1050F000FC0320200AD7A33C2004202090320A4041
:105100008F5F00008446830706D0002A29D00170F3
:105110000130013A8307F8D1042A1CD30906090E8D
:105120000B0219430B041943082A10D30B00102A51
:1051300009D370B40F24161B22400C000D003AC096
:10514000103EFCD870BC082A01D30AC0083A042AD1
:1051500001D302C0043A002A03D0013A8154013A33
:10516000FCD260467047000070B50D460124E10690
:10517000124A116012490A4610320128104600D026
:10518000084600D0114622040260600308607D20BA
:10519000C1004A1B0026A94200D2324619208001D4
:1051A000504300F051FAE9087C2900D8461E054812
:1051B0003146224600F0EAFC70BDC04690120A401B
:1051C00090320A400000864010B5FFF733FF0028F8
:1051D00001D0002010BD012010BD10B5FFF72AFF3F
:1051E000002801DB002010BD012010BD10B5FFF725
:1051F00021FF002801DD002010BD012010BD10B5E9
:10520000FFF7BEFD002801DA002010BD012010BD0F
:1052100010B5FFF7B5FD002801DC002010BD01200E
:1052200010BD000010B5FFF7DDFB002801D0002005
:1052300010BD012010BD10B5FFF7D4FB002801DB25
:10524000002010BD012010BD10B5FFF7CBFB0028DA
:1052500001DD002010BD012010BD10B5FFF7DFFB00
:10526000002801DA002010BD012010BD10B5FFF7A5
:10527000D6FB002801DC002010BD012010BD00007D
:10528000B0B50C460121CB06114A1360134610330A
:105290000128184600D0104600D01A464B0603607D
:1052A000C80710607D20C1000A1B0025A14200D262
:1052B0002A4619208001504300F0C6F9E1087C29F4
:1052C000294600D8411E03482A4600F05FFCB0BDC5
:1052D00090120A400000864070B50F4D0F4E00221C
:1052E0002846314600F052FC012428463146224629
:1052F00000F04CFC60060A490860E00708602004E2
:10530000084A106060031060E00608610648016802
:105310002143016070BDC046000086403F0600008A
:1053200090120A4090320A400418864070B5C2B00C
:105330000C4605460021FFF790FF06460E49284619
:10534000FFF796FB002E01D03F2100E0BF210906A8
:10535000FEF777FF00F010FA03460094074A012099
:10536000010202A800F0E8F8401EFE2802D802A8B8
:1053700000F02CF842B070BD0000C842C7600000C9
:10538000F0B581B00C4D28880C4E3188884211D080
:105390000C4C0D4F28880A49095C204600F078FB28
:1053A000002807D02888401C384028802888318869
:1053B0008842EFD101B0F0BDF6042020F404202093
:1053C0000000202000801040FF010000F0B50178AF
:1053D000002911D0401C0B4A0B4B0C4C0C4D16886D
:1053E000761C1E402788BE4207D01788E9551680D4
:1053F0000178401C0029F2D1F0BD06480168491C23
:105400000160F0BDF4042020FF010000F60420201C
:1054100000002020E004202070B511221302C218E1
:10542000C4580125AC43C4500C888D7825438C8822
:105430002C43C558084E2E40084D25407419C450C1
:105440008879CB790343087A184351687E239943BE
:1054500018400818506070BDE798FDFF18670000FD
:10546000B0B50A480A4941600A4A51600A4B59607E
:105470000A4C61600A4D69600A4901601160196057
:1054800021602960102000F0E5FBB0BD00080A4053
:10549000030000B100280A40000886400088104040
:1054A000002810400100002670B50D4C0D4D002263
:1054B0002046294600F06AFB01262046294632464E
:1054C00000F064FB700608490860F00708603004CB
:1054D000064A106070031060F006086170BDC04697
:1054E000000086403F06000090120A4090320A40B9
:1054F0000C480D49C160C268C26001610269026165
:1055000001600268026041604168416007480168CB
:105510000F220A430260064802210160054801602B
:105520007047C046308042408100060048300A4043
:1055300080E200E000E100E081B0B0B587B00C4649
:105540000B930592491E22468A41A11A0391002518
:10555000049502900BA9069107480090074B05A8F7
:1055600002AAFBF7F1FB002C01D002990D7007B0E5
:10557000B0BC02BC01B00847B1570000E15A0000BE
:10558000F0B5C7B0044605A800F0B6FA059E069F20
:1055900000F054FB054600F057FB0096019702957A
:1055A0000390074A0120010207A82346FFF7C4FF22
:1055B000401EFE2802D807A8FFF708FF47B0F0BD3D
:1055C0002860000010B50F4A017853185B78401C22
:1055D000DB06F9D42D2901D02B2901D1027801E075
:1055E000401E0A46431C0020303A092A05D80A24E6
:1055F000444310191A785B1CF6E72D2900D140426C
:1056000010BDC046005D00000C48002101600C4840
:10561000014608390A6803239A430A600168012297
:1056200091430160016812029143016005480168DD
:10563000FF221202914301607047C04608030B40ED
:1056400008010B4000E400E01CB50A0017D000235D
:105650000124E407A04200D20400944201D9520080
:10566000FBE790425B41904200D3801A914201D205
:105670005208F6E719000200080011001CBD0100E5
:105680000020FEF7F0FF1CBD07480021017007480D
:10569000016007480160074801600748016007484A
:1056A0000160074801707047FE0420209C04202000
:1056B00064042020CC042020C0042020C404202026
:1056C000F804202070B50A480A4C84420CD00A4DD8
:1056D0000A4EB54208D02A686968501C12789200B8
:1056E000A25890470835F4E700BF00BF70BDC04620
:1056F0009C62000090620000AC620000BC6200008E
:1057000006B49E22002802D404D106BC7047414250
:1057100004D400E00100013A4900FCD5803101D3F6
:10572000013200E04900490AD2051143002802D5A0
:105730000122D2071143080006BC7047FCB4020CDA
:105740000B0CFF242402FF34204021400C00444372
:1057500015005D4306005E430F005743320C3B0CBF
:10576000A818C01832043B040025A1186841C918C4
:105770006841FCBC7047000006B54100090E7F3946
:105780000DD41F22511A0CD9864600020122D207DD
:105790001043C8407246002A00D5404206BD002092
:1057A00006BD02000120C007002A00D4401E06BD2D
:1057B00070B514460D4601466A68A86882420CD945
:1057C000101A8442264600D306462868324600F066
:1057D0007FFA286880192860A8680019A860204608
:1057E00070BD000006B5002803D57346FFF7C4FF5F
:1057F00006BD4100090E7F3908D31F22511A07D375
:1058000000020122D2071043C84006BD002006BD99
:105810000020401E06BD000080B5C0B00346084A07
:10582000012001026846FFF787FE401EFE2801D8CE
:10583000684600E00348FFF7C9FD40B080BDC046A0
:105840003D6100001361000082B0F8B50692079335
:1058500006AA0392054B0193054B0093054BFAF7FB
:105860002FFC04B080BC02BC02B00847C95C000039
:10587000415B0000F54D000007490978074A1268AE
:10588000801AC92801D3002000E00120014004480B
:10589000007808407047C046FB0420207C0420208C
:1058A000FC04202080B5FFF7DBFDFEF78FFDFFF73E
:1058B000ABFEFEF775FFFFF7A9F9FFF7E5F9024820
:1058C000B8210022425480BD000220200120810224
:1058D000054A116213680B431360C0030349086053
:1058E000034908607047C0462890104080E200E0FD
:1058F00000E100E001208102054A116213680B43B8
:105900001360800303490860034908607047C0467C
:105910002830104080E200E000E100E0084880F319
:10592000088800BF00BF00F0E2F9002801D0FFF7AF
:10593000C9FE0020FEF754F9012000F0D3F9C0465B
:105940000080202002B49E21002805D401D102BC91
:10595000704701394000FCD5803001D3013100E0AF
:105960004000400AC905084302BC704704480021B2
:1059700001700448017004480160044801607047E8
:10598000FB042020FC042020980420207C042020FC
:10599000014606480078064A1268891AC92902D3C6
:1059A000002108407047012108407047FB04202077
:1059B0007C04202030B514004C4325001C004443D7
:1059C0006419050010002900FFF7B8FE0019040053
:1059D0000D002100280030BDB0B504460020002B8A
:1059E00008D0D2B20D782570954204D0641C491CB1
:1059F0005B1EF7D1B0BD601CB0BD014600200A5C43
:105A0000002A08D00A185378002B05D09278C01CC1
:105A1000002AF4D1401E7047401C704718B520235F
:105A20009B1A04D8010000205B42994004E0040066
:105A30009140DC402143904018BD000010B5920019
:105A40008018044A83580724A404A343214059180A
:105A5000815010BD3018000010B5012212038318C8
:105A60000C789C604B7883508978014A815010BD36
:105A70000C11000010B5054BC4580422224002D17D
:105A8000C018C06908705042504110BD0811000094
:105A900010B5054BC4588022224001D1C018816145
:105AA0005042504110BDC046081100000B4611463F
:105AB0001A4680B5FFF726FB80BD0A46002180B557
:105AC000FFF720FB80BD000010B5029CA400001968
:105AD00011431943014A815010BDC04650180000BF
