:100000000080202059E60000179F0000179F000085
:1000100000000000000000000000000000000000E0
:10002000000000000000000000000000179F00001A
:100030000000000000000000179F0000C5B800008D
:10004000179F000089CA0000179F0000179F00003B
:10005000179F0000179F0000179F0000179F0000C8
:1000600000000000179F0000179F00000000000024
:100070000000000091E5000099E5000089E500001E
:10008000179F0000179F0000179F0000179F000098
:10009000179F0000179F00000000000000000000F4
:1000A000179F0000179F00000000000000000000E4
:1000B000179F000000000000179F0000179F00001E
:1000C000F0B5F3B007930592799A0E92789E0025C9
:1000D000EF437090139112950878A84C201843783C
:1000E000D80628D513984A1CDB0606D5481C11787B
:1000F00061184B78521C0146F6E7139070A8B04780
:100100000446401C01D100F0FAFD0EF028FA9B488D
:1001100000194078C00603D570A8B0470446F4E73C
:1001200070A80EF07CFA1298401E1290601C934C3E
:1001300001D100F0E4FD01200A9054A801466C3181
:100140000C9101460C3103910D30009014A8401C15
:1001500001900B950D971196029554A870210EF001
:10016000CEF8559770A813A912AA079B98470128A3
:10017000109522D0002801D100F0A7FD401C029B61
:1001800001D100F0A4FD0F93274670A8B0470EF0F0
:10019000C6F938194078C006F7D4374670A80EF073
:1001A0003EFA1298411E1291601C39D10029109D0F
:1001B0000F9A01D100F087FDB1E01398471C139707
:1001C000417800262A2935460BD101255495871CF4
:1001D000139706E0B819401C1390B85D71A98855B3
:1001E000761CBC5D204630380928F3D971A800215F
:1001F0000F9181550078002803D071A80DF01AFDE9
:1002000055904C2C2FD0682C20D06A2C0BD06C2C05
:1002100010D0742C0AD07A2C16D10120000307E0EC
:10022000109D0F9A7BE00120C00201E001204003F5
:100230002D1819E0B919481C13904A786C2A4F4CB4
:1002400018D1012000020AE0B81910E0B919481CC1
:1002500013904A78682A494C0ED1012040022D188B
:100260005495881C0AE080355495B819401C119E9D
:10027000424C04E0403500E020355495119E411C6D
:10028000139103780C9A13705B2B28D10A785E2A9D
:1002900005D102210D435495811C139182785D2A6A
:1002A00006D1481C1390097854AA1173009901E0F3
:1002B000084603990F9D0278002A09D05D2A07D0CD
:1002C000421C139200784B1C087010461946F2E746
:1002D0000D705D2A01D1401C13900C9803781846CC
:1002E0005B38132800D94EE70121814024480142A0
:1002F00000D148E731461E4670AC20460F4688477D
:10030000054620460EF088F91299681C05D100298F
:10031000109D324603D100F0D6FC109D3246099163
:100320001046583820284CD83E460D9F4000C04605
:1003300078448088400087445301260326031C012B
:100340002603260326032603260351002603CE0098
:1003500025005100510051002603250026032603E5
:100360002603260329032500250026032603CE00A5
:1003700026032500260326032500C046701F010022
:10038000010108001746559C70A8B04721460EF0A1
:10039000C6F814AD002934D014AD2D2C02D02B2C6E
:1003A00000D0B2E014A8047070A80C46B0472146F3
:1003B0000EF0B5F8491EF64A00D1D3E00891019D30
:1003C000A5E01046413806283E460D9F00D990E032
:1003D000012181407120014200D18AE0559D70A821
:1003E000B047044614AB401C09D00EF0B8F82B2CD3
:1003F00009D114AB002D0BD12B24002513E03C4672
:1004000011E00027B0E014AB002D0CD02D2C0AD148
:1004100014A8047070A8B0470446401C01D00EF028
:100420009EF86D1E019B204661381A2801D3204694
:1004300001E0204620384928E24F109703D04E288B
:100440002AD1E14F10970026B5421BD01098805D4D
:10045000002816D0214661391A2901D3214601E02E
:100460002146203981420CD11F469C5570A8119914
:1004700088470446401C01D00EF071F8761C3B46BC
:10048000E2E73546E81E41424141083D6842684185
:10049000084310909D1964E20022002D5CD0302C9E
:1004A0005AD10F9230201F46187070A8B0470446EA
:1004B000401C01D00EF053F87B1C681E0022012165
:1004C0001091002800D1AAE1214661391A2900D2F1
:1004D000A8E12146A8E1549901250846284049068B
:1004E000174676D4002800D00EE1059810C8059074
:1004F0000BE1252A00D046E270A8B047252801D09C
:1005000000F000FC0EF02BF840E20891AC4A00200D
:100510003B46115C8B4204D0401C0728F9D10020D7
:1005200000E01018801A012813D1302C5CD10F95EF
:1005300070A81090B047054610980EF06DF8202076
:100540008543583D109501D0082010903B460F9DE3
:100550004CE09E49085C48E01946109204920A98C3
:1005600008907CE10027019D3A4638460A990F9190
:1005700062E0559F5498022101400F9114AC002F66
:1005800000D148E170A8B0470546401C089000D152
:10059000B1E010942C46E8B2002303990E7886420D
:1005A0000A4600D01A46491C002E1346F6D10F9B6E
:1005B00059425941531E9A419142119E2546109C21
:1005C00000D098E0611C20700DF0C9FF7F1E0C4622
:1005D000D5E7002800D09DE0059810C805909AE066
:1005E00078220C980270CDE60A20109018466938DF
:1005F000C0B2102801D3002100E00121EA4FC7401A
:100600000F406F2B06D1302C0AD000200A990F9191
:10061000089A11E020463038414241410F42F4D05F
:1006200028466D1C047070A8B0470DF078FF089A3A
:10063000521E00200F900A98002F24D0002A22D0AA
:10064000002820D020202146814358291BD1089220
:1006500070AF3846B047014638460F460E9A90476D
:10066000E148C0194078800701D4089A0BE02C704B
:1006700070A8B0470DF053FF089A521E00D138E31E
:100680006D1C102010900A9F002A23D01098082873
:1006900004D107202146814330290ED010980A2822
:1006A00003D1204630380A2807D31098102811D1DA
:1006B000CD480019407880070CD56E1C2C7070A8AE
:1006C00011991446884722460DF029FF521E002733
:1006D0003546D9E770A80DF0A2FF1298401E12907F
:1006E0000020287005460F98384001280D9F119E64
:1006F00000D04BE1F5E270A80DF08EFF1298099939
:10070000814200D087E004E300245598002841D4BA
:10071000054640E000245598002800D40546632A89
:1007200000D0054670A8B04701460DF018FF632FB2
:1007300005D1481E0222D24390420FD917E0481C2F
:10074000022801D3002000E00120A74A5218527865
:10075000D2060A9A00D40246002A08D1002D06D0FB
:10076000002C01D002C400E000246D1EDAE770A85E
:100770000E9A90471298401E12900999814200D11A
:10078000B7E2732F49D1002C47D00020206044E00D
:10079000B12101000125632A00D0054670A8B047A9
:1007A00001460DF0DCFE632F05D1481E0222D24324
:1007B000904217D921E0481C022809D3002008E004
:1007C000B1210100EB2C0100F12D01009D2D010054
:1007D0000120854A52185278D2060A9A00D402465D
:1007E000002A0AD1002D08D0002C03D0601C2170F3
:1007F000044600E000246D1ED0E770A80E9A9047D2
:100800001298401E12900999814200D171E2732F13
:1008100003D1002C01D0002020700D9FB6E004927F
:10082000154618E021462039582912D17C7070A84D
:10083000119988470446401C01D00DF090FEBA1C67
:10084000AD1E00200A9904911146109008900F9A4D
:1008500005E0049205460A9808900F9A19460692F8
:1008600016460F95002D0D466ED02B2C39D02D2C11
:1008700037D02E2C2FD0452C01D0652C0BD10898C9
:10088000002846D0109800285ED0002A5CD10120B4
:10089000074610904AE020463A380A21C943884268
:1008A00029460CD8049800284ED04F4800194078AB
:1008B000800704D4202020437028E3D044E02B2C70
:1008C0000FD02D2C0DD0702CDCD0502CDAD0652C14
:1008D000D5D02E2C1DD10698104335D1012006907D
:1008E00023E00898002808D0481E00782021014302
:1008F0006529294601D1174618E00498002823D01D
:10090000481E00782021014370291DD11746294631
:100910000CE0002A07D0204630380122092813D8DD
:100920001746164602E00120109000270C7070A8B0
:10093000119988470446401C01D00DF010FE691C37
:100940000F9D6D1E3A468CE71099481E814110910B
:10095000701E8641002A0A9800D030461099014046
:1009600010910D9F70A80DF05AFE601C02D01299D4
:10097000491E129100212970129A099B9342119EDF
:10098000109D00D1A8E1012D00D0B3E10C980178B1
:10099000012508465B381D283ED804A2124C4000B1
:1009A000105A40008744C046818000002400220085
:1009B00022002200220022004600220057014600A9
:1009C0004600460046002200460022002200220087
:1009D0002200A30046004600220022005701220008
:1009E0004600220022004600701F0100FFF7B5FB01
:1009F0005499C80701D0FFF7B0FB05980068490675
:100A000000D5C8E014A94A1C0978431C01700029CC
:100A100018461146F7D1C7E0084641380628BF4CB2
:100A200001D9FFF79AFB012282407120024201D1D5
:100A3000FFF793FB14A80078002800D10BE154982D
:100A4000C20700D007E10B46613B172B3AD80022C2
:100A50009B0002A4E358B14C9F46C046D90A00004F
:100A6000570C0000570C00006B0B0000D90A000067
:100A7000D90A0000D90A0000570C00006D0B0000D5
:100A8000570C0000570C0000570C0000570C0000DA
:100A9000570C0000BD0A00008F0B0000570C00002F
:100AA000570C0000570C0000570C0000BD0A000056
:100AB000570C0000570C0000BD0A000078293FD0F9
:100AC00008223EE04139062900D9C4E001228A40CB
:100AD00071210A4200D1BEE0C021084080281ED00A
:100AE000402826D114A8002105F09EF91BE0549857
:100AF000C10701D0FFF731FB89490840411E02467A
:100B00004A408A4200D894E0002800D183E0414264
:100B1000014084484143C80E83A1085C7CE014A8CE
:100B2000002105F081F9059B04CB0593106051600D
:100B300091E014A8002105F077F90CF091FA87E014
:100B40001022752900D10A2275490840411E03462A
:100B50004B408B4242D900282ED04142014071487F
:100B60004143C80E70A1085C27E00A226C49084086
:100B7000411E03464B408B4248D9002833D04142A6
:100B8000014068484143C80E67A1085C2CE014A8E6
:100B90000021102224E014A90A78002A02D0491C5E
:100BA00004C0F9E7002101600598001D05900B982D
:100BB000401C0B90FFF7D1FA2020401F08280DD8C9
:100BC0007844007940008744580909045D09043AD3
:100BD0003A0014A8002109F017FBA4E714A800218B
:100BE0000AF0F4F834E02020401F08280ED8C04650
:100BF00078440079400087444A09090452090427CF
:100C0000270014A8002108F0BFF88CE714A80021E1
:100C100009F004FF1CE02020401F082809D8C04626
:100C200078440079400087444204041F48041F04AC
:100C3000040012980DF0A4FC0860FFF78EFA14A8C7
:100C4000002109F0E1FA03E014A8002108F09CF863
:100C50000DF096FC086054980125294681430B98B5
:100C600008180B90FFF779FA1298C117059B04CB6F
:100C7000059310605160FFF770FA14A800210AF084
:100C8000A5F808E014A800210AF0A0F80BE014A8C9
:100C9000002109F0C3FE0DF073FC0880DBE714A807
:100CA000002109F0BBFE0DF06BFC0870D3E7129831
:100CB0000DF066FC0880FFF750FA12980DF060FC0A
:100CC0000870FFF74AFA0D9F19E00B9F17E00B9889
:100CD000002814D0074612E0002800D121460D4616
:100CE00008E0129809994140E043084302D1ED43DE
:100CF00000E00D9D0B98002800D005462F46384691
:100D000073B0F0BD054670A80DF086FC681CF1D0EC
:100D100002E008980028EDD00025EBE7701F0100E5
:100D2000603F000031B57C0700011C021D0E180356
:100D30001E16140F191104081F1B0D171513100789
:100D40001A0C12060B050A09F0B5C9B005460120B8
:100D50001590FE4928460BF09BFE002840D0FE4926
:100D600028460BF095FE002845D0FC4928460BF09C
:100D70008FFE00285BD0FA4928460BF089FE002838
:100D800000D19DE00020F74903E0C01C012A00D1FA
:100D9000C2E02A5C0B5C9A4200D097E0002A00D1A6
:100DA000BAE02A180B1856785C78A64200D08DE07D
:100DB0000446093C67426741002E159E00D03E461E
:100DC000002E00D0A8E092789B789A427ED104460B
:100DD000083C63426341002A159AD6D01A46D4E7EC
:100DE00004F0F4F90346E04A1AAD302128460CF02D
:100DF000B9FE284658E304F0E9F905460DF0CEF9AE
:100E0000002800D1A9E009F087F8002800D14DE3BF
:100E1000D64ED74FD74CD8480CF0A4FD3AA818307E
:100E20001390E51C344600201490602630E204F054
:100E3000CDF905460DF0B2F9002800D18DE009F09A
:100E40006BF8002800D131E3C84CCA48C51C002605
:100E50006027149602E07F1E00D10AE23C353AA9D1
:100E60003C22284607F06EFA002800D11BE33AA87E
:100E70000178A529EFD180790128ECD13AA84088E2
:100E80000028E8D03AA98A88002AE4D03C9BB849D7
:100E90005918A142DFD33D99424350008142DAD133
:100EA00058181430B34A9042D5D2012000030818D4
:100EB0001330B249084086191498401C1490CAE7B0
:100EC000AF480078012837D1AE48EDE20020AE49A6
:100ED00003E0C01C012A00D186E12A5C0B5C9A4227
:100EE00000D035E1002A00D17EE12A180B1856788F
:100EF0005C78A64200D02BE1002E00D174E19278FC
:100F00009B789A4200D023E1841F63426341002A08
:100F1000159ADED01A46DCE70B359C493AAA2846DA
:100F20000DF070F8012800D06CE13A98FE2800D945
:100F300068E109F01DFAB9E204F048F905460DF040
:100F40002DF9002809D008F0E7FF002800D1ADE214
:100F50008848C61C002760200CE08D4A1AAE40214C
:100F600030462B460CF0FEFD30469DE21498001FE3
:100F700000D121E3149030463C303AA93C252A4662
:100F800007F0E0F9002800D18DE23AA80178A52900
:100F900029D18079012826D13AA84088002822D07A
:100FA0003AA9898800291ED03C9A714BD3186F4CFE
:100FB000A34218D33D9B41434800834213D1D0182C
:100FC00014306C4988420ED238467F1CC0B245436B
:100FD000704844193AA92CC92CC42DC92DC42DC957
:100FE0002DC42DC92DC4304678303AA93C252A4657
:100FF00007F0A8F9002800D155E23AA80178A52900
:101000002AD18079012827D13AA84088002823D006
:101010003AA9898800291FD03C9A554BD318534CC4
:10102000A34219D33D9B41434800834214D1D018B9
:101030001430504988420FD2781C1390F8B24543BF
:10104000544840193AA92CC92CC0ACC9ACC0ACC991
:10105000ACC0ACC9ACC0139F3046B4303AA93C25F3
:101060002A4607F06FF9002800D11CE23AA801785F
:10107000A52929D18079012826D13AA840880028BD
:1010800022D03AA9898800291ED03C9A384BD3181F
:10109000364CA34218D33D9B41434800834213D1B1
:1010A000D0181430334988420ED238467F1CC0B263
:1010B0004543384844193AA92CC92CC42DC92DC41C
:1010C0002DC92DC42DC92DC4F0363AA93C22304675
:1010D0000D9207F037F9002800D1E4E13AA8017831
:1010E000A52900D042E78079012800D03EE73AA840
:1010F0004088002800D139E73AA98988002900D121
:1011000034E73C9A1A4BD318184CA34200D22DE76F
:101110003D9B41434800834200D027E7D01814305C
:101120001449884200D321E77C1CF8B20D9948434A
:10113000184908183AA92CC92CC0ACC9ACC0ACC914
:10114000ACC0ACC9ACC0274610E7C046302D01008A
:101150000020114925E0C046E22C0100062D0100C7
:10116000202C0100D82B01002D290100001081FF47
:10117000000081FF01007F007129010000F0FFFFE6
:10118000BD332020AE2A0100B02C0100062E010044
:1011900040260100000020209F2A0100C01C012AD7
:1011A00058D02A5C0B5C9A422ED1002A52D02A18C1
:1011B0000B1856785C78A64226D104460C3C674250
:1011C0006741002E159E00D03E46002E42D19278F7
:1011D0009B789A4218D104460B3C63426341002A33
:1011E000159ADBD01A46D9E70935FC493AAA2846B0
:1011F0000CF008FF01283AD13A98FE2837D80AF0B7
:101200004FFE53E1F6484FE10020F64903E0C01CD1
:10121000012A00D184E12A5C0B5C9A4200D04EE1A5
:10122000002A00D17CE12A180B1856785C78A64277
:1012300000D044E1002E00D172E192789B789A426E
:1012400000D03CE1841F63426341002A159ADED03E
:101250001A46DCE70E35E1493AAA28460CF0D2FEE0
:10126000012804D13AA800780CF0E4FE1EE1DE4823
:101270001AE1DE4B981B1499C9B2009601900291B5
:10128000DB4A1AAD6021B1E5DA4F361F00D110E11B
:1012900028463C303AA93C2207F054F8002800D1F7
:1012A00001E13AA80178A52934D18079012831D10A
:1012B0003AA8408800282DD03AA98988002929D049
:1012C0003C9AD319A34225D33D9F0B4643435B0071
:1012D0009F421ED1D3191433C74CA34216D23AAB46
:1012E0005B7812933E9B139C009401AC83C40493DF
:1012F00005921AAF80213846C04A129B0CF032FC8E
:1013000038460CF02FFB1498401C1490B94FBC4C7D
:1013100000E0B84F284678303AA93C2207F012F88E
:10132000002800D1BFE03AA80178A52934D18079FE
:10133000012831D13AA8408800282DD03AA98988BF
:10134000002929D03C9AD319A34225D33D9F0B46AF
:1013500043435B009F421ED1D3191433A64CA342D2
:1013600016D23AAB5B7812933E9B139C009401AC6F
:1013700083C4049305921AAF802138469F4A129B7A
:101380000CF0F0FB38460CF0EDFA1498401C149069
:10139000984F9B4C00E0974F2846B4303AA93C2226
:1013A00006F0D0FF00287ED03AA80178A52934D1D4
:1013B0008079012831D13AA8408800282DD03AA957
:1013C0008988002929D03C9AD319A34225D33D9F6F
:1013D0000B4643435B009F421ED1D3191433864C06
:1013E000A34216D23AAB5B7812933E9B139C0094B7
:1013F00001AC83C4049305921AAF802138467F4A1A
:10140000129B0CF0AFFB38460CF0ACFA1498401C61
:101410001490784F7A4C00E0764FF0353AA93C2290
:10142000284606F08FFF00283DD03AA80178A5296C
:1014300000D02AE78079012800D026E73AA8408822
:10144000002800D121E73AA98988002900D11CE7AA
:101450003C9AD319A34200D217E73D9F0B46434362
:101460005B009F4200D00FE7D3191433624CA342B4
:1014700016D23AAB5B7812933E9B139C009401AC5E
:1014800083C4049305921AAF802138465B4A129BAD
:101490000CF068FB38460CF065FA1498401C149068
:1014A000544F574CF1E657480CF05CFA159849B088
:1014B000F0BD1498C3B2544A1AAD802196E40022BC
:1014C0005249149202E0D21C012B46D0AB5C885CDE
:1014D00083423FD11046093846424641002B1598B9
:1014E00000D03046002838D1AB188E185F7870785D
:1014F00087422FD11446083C60426041002F159F5F
:1015000000D00746002F28D19B78B078834221D1A4
:10151000D41F60426041002B159BD4D00346D2E714
:10152000093516A8029017A8019018A8009038490C
:101530001AAA19AB28460CF065FD052826D119A872
:10154000028818A803881798169900900191FF2027
:101550001AA92EE014981590A8E70A3516A802904B
:1015600017A8019018A80090FB493AAA19AB284681
:101570000CF048FD3A9BFE2B01D8002100E0012130
:101580000528159800D10846012801D1F4488BE7B9
:10159000F24A1AAD102128460CF0E4FA3AA8007875
:1015A00019A90A8818A90B881799169C009101940B
:1015B000294602F0D7FD79E701200E90000307903D
:1015C000380600D1AEE1F9B21197B81E089000229A
:1015D000E5480C9010460A9127E0C046062E01000F
:1015E00060290100742C0100722A010000F07E00C5
:1015F00028250100000081FF01007F00F823010081
:10160000001081FFEB270100F42601002B2C0100C4
:10161000652801000E98401C0E900C983C300C90F0
:101620000A990B98884200D106E1421C0B928A422B
:10163000F0D20899091A0D9A5043CB4A1618CAB22B
:10164000AB2009925043400A03224243881A401CAF
:10165000C1B200220F92032900D00F900E9A149667
:1016600064D000240C9F0E9A04E0921CA41CE0B2EB
:10167000A8425BD07B6CB568AB421292109423D227
:101680003D463C351AAE33461397149F15CF15C30C
:1016900017CF17C317CF17C317CF17C314982946EF
:1016A0001CC91CC09CC99CC09CC99CC09CC99CC036
:1016B000139F109C07CE07C50FCE0FC50FCE0FC5C9
:1016C0000FCE0FC5129A149E01202043C0B20F996D
:1016D000CDB2A84229D0802038587837B1688842E6
:1016E000C3D21AAB1846314654C954C01397D4C953
:1016F000D4C0D4C9D4C0D4C9D4C01498139954C97F
:1017000054C0D4C9D4C0D4C9D4C0D4C9D4C0139F80
:10171000384616CB16C056CB56C056CB56C056CB05
:1017200056C0109C129A149E9FE7521C09980228DA
:1017300000D26FE70D9850438B490F18D01C08E07A
:10174000B437D0B21199C9B2D21C8142104600D12F
:1017500060E71290B868B268904213971ED21AA838
:1017600032460346B0CAB0C3B2CAB2C3B2CAB2C3E9
:10177000B2CAB2C33146139A38CA38C1B8CAB8C15E
:10178000B8CAB8C1B8CAB8C1139F39461CC81CC171
:101790003CC83CC13CC83CC13CC83CC1786CB16849
:1017A000884220D238463C301AAA11463346B0CB84
:1017B000B0C1F0CBF0C1F0CBF0C1F0CBF0C11499C7
:1017C000034670CB70C1F0CBF0C1F0CBF0C1F0CBD1
:1017D000F0C1139F149E1ACA1AC03ACA3AC03ACA34
:1017E0003AC03ACA3AC080203858B1688842129A42
:1017F000A6D2384678301AAA3146134670C970C34B
:10180000F0C9F0C3F0C9F0C3F0C9F0C3149903469E
:1018100070CB70C1F0CBF0C1F0CBF0C1F0CBF0C118
:10182000139F149E1ACA1AC03ACA3AC03ACA3AC09A
:101830003ACA3AC0129A83E74C4D4D480CF092F8E0
:101840000021494A0B46079E0D985843101884689A
:10185000C7681494A64253D0109013930F91129717
:101860003C46143444D03F48401EA519854257D801
:10187000002E55D00799149A8A4251D314996118B1
:1018800081424DD8AE4237461AD2384607F042FD63
:10189000002845D007983F18AF4211D2384607F0CC
:1018A00039FD00283CD007983F18AF4208D238468F
:1018B00007F030FD002833D007983F18AF42E4D33B
:1018C0000025671BFF2F01D9012007021498281853
:1018D00028493A4606F036FD002821D0A8192549A6
:1018E0003A4604F039FE00281AD07D19A542E8D303
:1018F000109886600F99491C1C4D1B4A139B129F20
:101900000798C0191330284086191648401E864291
:101910001FD85B1C0A98834296D1CDB2079607E088
:101920001548C1E5119712480CF01CF800250A95DE
:101930001198C0B207F038F9002808D00A98009032
:10194000079801900F4A1AAE6021FFF709FB0C4877
:10195000AAE50A48A8E5C0461C290100882D010017
:10196000BD2A010001007F000000202000F0FFFFE1
:101970007D270100002D2020BF2701002327010023
:10198000C429010085250100F0B5CFB002480078D8
:10199000012803D000F060FDAE3320204CA80BF0EE
:1019A000F5F9002801D100F057FD01201B904C985B
:1019B000FB4C099021460AF099FF06464D980A9083
:1019C00021460AF093FF05464E98F6490B900AF01F
:1019D0008DFF0446304607F0B1FB1390304607F008
:1019E00081FD1290284607F0A9FB1590284607F0C4
:1019F00079FD1490204607F0A1FB0546204607F02C
:101A000071FD07461090002428460D95214609F0E7
:101A1000F2FE0646384621460AF068FF314609F0D4
:101A2000EAFE1690139821460AF060FF06460E90D3
:101A3000284621460AF05AFF1190314609F0DBFE94
:101A40000746109E3046129D29460AF04FFF394640
:101A500009F0D1FE1A901B98C707284639460AF0AC
:101A600045FF01460890119809F0C5FE19903046CF
:101A7000139D29460AF03AFF199909F0BCFE199006
:101A80002846214609F0B7FE0646129D2846214603
:101A90000C940AF02BFF314609F0ADFE179020465A
:101AA000294609F0A3FE01460E9E304609F0A3FE2A
:101AB00018902046109C214609F098FE0146119886
:101AC00009F099FE0F90204639460AF00FFF0546AF
:101AD000314609F090FE06460D9C204612990AF008
:101AE00005FF314609F087FE0E902846089909F057
:101AF00082FE0546204613990AF0F8FE294609F0B1
:101B00007AFE1090149E304639460AF0EFFE0546E4
:101B1000159816990AF0EAFE294609F06CFE05466A
:101B20000F980C9C21460AF0E1FE0D90294609F021
:101B300062FE1390179831460AF0D8FE0546159EAE
:101B400030461A990AF0D2FE294609F04FFE0546A2
:101B50000E9821460AF0CAFE0890294609F04BFE6D
:101B60001290189814990AF0C1FE0546304619994A
:101B70000AF0BCFE294609F039FE064610982146B7
:101B80000AF0B4FE0790314609F035FE1190159D1C
:101B9000284621460AF0AAFE0646149C20461699BD
:101BA0000AF0A4FE314609F026FE01460D9809F020
:101BB00022FE0D90284617990AF098FE0646204608
:101BC0001A990AF093FE314609F015FE014608986D
:101BD00009F011FE0890284618990AF087FE06467B
:101BE000204619990AF082FE314609F004FE0146AA
:101BF000079809F000FE159016980C9C21460AF0F3
:101C000075FE214609F0F7FD01460F9809F0F3FD36
:101C100006461490179821460AF068FE05461A9861
:101C200021460AF063FE294609F0E5FD01460E98BB
:101C300009F0E1FD1790189821460AF057FE054675
:101C4000199821460AF052FE294609F0D4FD0146B2
:101C5000109809F0D0FD16900D9821460AF046FE26
:101C600005460F90139821460AF040FE1090294631
:101C700009F0C1FD0146304609F0BDFD1A90089EED
:101C8000304621460AF032FE05460E901298214653
:101C90000AF02CFE0690294609F0ADFD0146179882
:101CA00009F0A9FD1890159821460AF01FFE054677
:101CB0000790119821460AF019FE0590294609F06F
:101CC0009AFD0146169809F096FD199010980D9905
:101CD00009F091FD0546149821460AF007FE0D9083
:101CE000294609F088FD14900698314609F083FDD5
:101CF0000646179821460AF0F9FD1790314609F07B
:101D00007AFD10900598159909F075FD054616980D
:101D100021460AF0EBFD0646294609F06CFD1590B8
:101D20000F98139909F062FD01460D9809F063FDC3
:101D300004460E98129909F059FD0146179809F0CA
:101D40005AFD05460798119909F050FD01463046A5
:101D500009F051FD024614480178012911920F95AE
:101D600036D1124800680E9011480068169011484C
:101D700000680890104800680D90104801681048ED
:101D8000006807900F48006812900F48006817908D
:101D90000E4800680C9026462846154644E0C0468A
:101DA00035FA8EBC35FA8E3CA033202070322020CC
:101DB0007C32202088322020743220208032202063
:101DC0008C32202078322020843220209032202033
:101DD00065491A9808606549189808606449199B14
:101DE0000B6064491498086063492646109C0C6097
:101DF0006249159A0A6062490E6062490D60624943
:101E0000119808601B99614D29700C900546179236
:101E100012930F9A0792214618980D9008961498DD
:101E200016901A980E90104605910AF05FFD044630
:101E30000696304616990AF059FD214609F0DBFC5A
:101E40000446284617990AF051FD214609F0D3FCB3
:101E500005464F4C21460BF092FC13907F20C6059F
:101E6000284631460BF0A6FC002800D12E461398D8
:101E7000002800D13446204608F02CFB139007F0D0
:101E80005DF9B84343490BF095FC002800D185E08B
:101E90000F9D284607990AF029FD0446069E304604
:101EA00008990AF023FD214609F0A5FC0446119F7C
:101EB00038460C990AF01AFD214609F09CFC0C905A
:101EC00028460D990AF012FD044630460E990AF094
:101ED0000DFD214609F08FFC0446384612990AF0A0
:101EE00005FD214609F087FC12901098059F3946A0
:101EF0000AF0FCFC05461498169C21460AF0F6FCF4
:101F0000294609F078FC05461598179E31460AF0D7
:101F1000EDFC294609F06FFC0546189839460AF091
:101F2000E5FC07461A9821460AF0E0FC394609F01C
:101F300062FC0746199831460AF0D8FC394609F088
:101F40005AFC07461B98C607129870400C9909F076
:101F5000EFF81A9077403846294609F0E9F80E491B
:101F60000AF0C4FC074649E0703220207432202079
:101F7000783220207C3220208032202084322020A1
:101F8000883220208C32202090322020A033202044
:101F9000000080BF17B7D138E02E65C2189D2846D3
:101FA00007990AF0A3FC04461A9E304608990AF0E5
:101FB0009DFC214609F01FFC044619980C990AF073
:101FC00095FC214609F017FC044628460D990AF0B5
:101FD0008DFC054630460E990AF088FC294609F02A
:101FE0000AFC0546199812990AF080FC294609F066
:101FF00002FC0146204609F09BF81A90C949139843
:102000000AF074FC0446C8490BF0D4FB00281FD02A
:10201000C64DC54E2046294609F0EDFB0446314623
:102020000BF0C8FB002813D02046294609F0E3FB3B
:10203000044631460BF0BEFB002809D02046294655
:1020400009F0D9FB044631460BF0B4FB0028E1D17E
:10205000B74920460BF093FB00281FD0B54DB44E76
:102060002046294609F0C7FB044631460BF087FBA2
:10207000002813D02046294609F0BDFB044631460E
:102080000BF07DFB002809D02046294609F0B3FB60
:10209000044631460BF073FB0028E1D1EF49384686
:1020A0000BF088FB00281FD0ED4DEC4E384629463A
:1020B00009F0A1FB074631460BF07CFB002813D04A
:1020C0003846294609F097FB074631460BF072FB6C
:1020D000002809D03846294609F08DFB07463146CD
:1020E0000BF068FB0028E1D1DE4938460BF047FBD6
:1020F00000281FD0DC4DDB4E3846294609F07BFB1B
:10210000074631460BF03BFB002813D038462946E2
:1021100009F071FB074631460BF031FB002809D06E
:102120003846294609F067FB074631460BF027FB86
:102130000028E1D1CD491A980AF0D8FB0546C749D5
:102140000BF038FB00281ED0C44E2846C44909F0C5
:1021500052FB054631460BF02DFB002813D02846D4
:10216000BF4909F048FB054631460BF023FB002828
:1021700009D02846BA4909F03EFB054631460BF026
:1021800019FB0028E1D1B74928460BF0F8FA0028DE
:102190001ED0B44E2846B44909F02DFB0546314601
:1021A0000BF0EDFA002813D02846AF4909F023FBC5
:1021B000054631460BF0E3FA002809D02846AA4923
:1021C00009F019FB054631460BF0D9FA0028E1D198
:1021D000A7480178002900D1AEE0A648016828464A
:1021E0001A9109F003FB05469C490BF0E3FA00281D
:1021F0001ED09A4E28469A4909F0FDFA0546314606
:102200000BF0D8FA002813D02846954909F0F3FAC4
:10221000054631460BF0CEFA002809D028469049F1
:1022200009F0E9FA054631460BF0C4FA0028E1D17D
:102230008C4928460BF0A3FA00281ED0894E284668
:10224000894909F0D8FA054631460BF098FA00287A
:1022500013D02846844909F0CEFA054631460BF0E2
:102260008EFA002809D028467F4909F0C4FA0546AD
:1022700031460BF084FA0028E1D17F4928460AF064
:1022800035FB1A9909F0B7FA054674490BF092FA32
:1022900000281ED0714E2846714909F0ACFA054657
:1022A00031460BF087FA002813D028466C4909F014
:1022B000A2FA054631460BF07DFA002809D02846DF
:1022C000674909F098FA054631460BF073FA002881
:1022D000E1D1644928460BF052FA00281ED0614E25
:1022E0002846614909F087FA054631460BF047FA5E
:1022F000002813D028465C4909F07DFA054631468E
:102300000BF03DFA002809D02846574909F073FA26
:10231000054631460BF033FA0028E1D155480560F7
:102320001B990DE0E02E65C2000034430000B4C3E9
:10233000000034C30000B4434E490D601B99017086
:102340004E4805604E480170002120461B910BF05D
:1023500028FA06464B4920460AF0C8FA3F210906EA
:102360001A91BF210C06002E214600D01A9909F0BF
:1023700042FA0BF0AFFD199038461B990BF011FA99
:10238000064638463F490AF0B1FA002E214600D0F1
:102390001A9909F030FA0BF09DFD189028461B9908
:1023A0000BF0FFF90646284636490AF09FFA002E40
:1023B000214600D01A9909F01EFA0BF08BFD1790F8
:1023C000099D28461B990BF0ECF9064628462D4935
:1023D0000AF08CFA002E214600D01A9909F00BFA67
:1023E0000BF078FD16900A9D28461B990BF0D9F941
:1023F0000746284623490AF079FA002F214600D0E3
:102400001A9909F0F8F90BF065FD07460B9E304666
:102410001B990BF0C6F9054630461A490AF066FAD0
:10242000002D00D01A9C214609F0E5F90BF052FD71
:1024300018990091179901911699029103970490A8
:10244000114A1CA8C021199B0BF08CFB401EBE2812
:1024500002D81CA80BF086FA4FB0F0BD0000344340
:102460000000B4C3000034C30000B443E02E654252
:10247000A9332020B83220206666E63E983220201C
:10248000A23320200000C84262230100F0B5FFB053
:102490008EB0049306920646929802900025E84377
:1024A00005908C91346820460BF0FCFF21188B9529
:1024B00003918C4200D3BCE00020879087A9087369
:1024C0008890059889902F46049D2078002800D197
:1024D000B2E0252805D0641C34600699A8477F1C0B
:1024E000F3E78B97601C306087AC2046314600F0E4
:1024F000BBF88CAA2046314600F0D7F83068017846
:102500000B46683B0122D341092B2BD87B441B7916
:102510005B009F4404130A272727162727194378AF
:102520008799682B19D1520204E0437887996C2B64
:1025300010D1120211438791801C12E08799D202B8
:1025400004E08799520301E0879912030A438792B6
:10255000401C06E0401C402201E0401C20221143A8
:1025600087910178441C346087A80173732913D0C4
:102570006E291DD1879832490840411E02464A40C3
:102580008A423CD900282DD0414201402D48414388
:10259000C80E2DA1085C26E087A80078400619D453
:1025A000009587A88CAA8BAB069900F03DF92AE02C
:1025B00007AD87A98CAA284600F08CF90246284668
:1025C0000699029B9847411C059D00D0C5198B9523
:1025D00003991AE0009587A88CAA8BAB069900F0A6
:1025E000C0F810E02020401F082808D8784400795F
:1025F000400087441904040D14040D0404008C9851
:1026000002C88C900F6003998B9D681C13D050E713
:10261000F8178C9904C98C9117605060F3E78C9877
:1026200002C88C900F70EEE78C9802C88C900F80D7
:10263000E9E72F4600E0059F38467FB00EB0F0BDB9
:10264000603F000031B57C0700011C021D0E18031D
:102650001E16140F191104081F1B0D171513100750
:102660001A0C12060B050A0910B50A680124E307C3
:102670001AD01378302B0CD0232B0ED02B2B0AD052
:102680002D2B04D00024202BF1D1042306E00123BC
:1026900004E0102302E0022300E0082304681C4346
:1026A0000460521C0A60E1E710BDFEB516460D46F7
:1026B0000446086802782A2A10D13068011D31606A
:1026C00000686060002805D54042606020680121F4
:1026D000014321602868471C2F6017E00021303A31
:1026E000092A08D84218531C2B60435C6F467B5460
:1026F0005278491CF3E76A4600235354127847186E
:10270000002A03D068460BF095FA606038782E28CE
:1027100026D1781C286079782A2908D13068011DD3
:1027200031600068A0602868401C2860FEBD002061
:102730003039092908D839188A1C2A604A786B462A
:102740001A548978401CF3E76A4600211154107826
:10275000002804D068460BF06DFAA060FEBDA160B1
:10276000FEBDF0B587B01E460C9F13681C1D14609B
:102770001D68002D3AD0049106908468002C04D482
:1027800028460BF07FFE844203D328460BF07AFEE6
:10279000044606984068A042039000DC20460146AB
:1027A00030680191401805940399A1420296306067
:1027B0000EDD06980078C0070AD1059801990E1A17
:1027C0000024B44204DA20200499B847641CF8E7D6
:1027D0000026049C069805998E420ADA2868010AA8
:1027E00018D12D1D2146B847761CF3E70020B847C5
:1027F00018E00599039A8A4214DD0078C00711D0C9
:102800000198451A0024AC420CDA20200499B847FC
:10281000641CF8E70020C043029908600BF0C8FE72
:102820005821016007B0F0BDF0B585B00C460646F2
:102830000A9D1068011D116000680490002844D0B2
:102840000393B768002F04D404980BF02BFE874243
:1028500003D304980BF026FE074602967268BA422C
:10286000114600DC3946039B18680091401801921C
:10287000BA4218600FDD02980078C0070BD10098AB
:10288000C01B039000260398864204DA20202146CC
:10289000A847761CF7E70026BE4205DA0498805D5B
:1028A0002146A847761CF7E70198B84210DD029848
:1028B0000078C0070CD00098C61B0027B74207DA83
:1028C00020202146A8477F1CF8E700202146A84782
:1028D00005B0F0BDF0B589B005920E4604467F20E4
:1028E000800027184868039000250795FF21049170
:1028F000FE312022204601920BF0FAFC3046089768
:1029000002977D70367B31466339152906903DD894
:1029100001228A40604B1A42069822D007A908AAD1
:10292000059B00F0BDF806980025067B012731467F
:102930006F390929059504D801228A4057490A426E
:102940003FD1582E3DD0016802230B40079A002A40
:1029500027D008994A1E08922D220A705F425F41D3
:102960002FE0002912D1059B1A68111D1960126809
:10297000D1B24D424D410499FC3161180891029940
:102980000A70026802218A430260CEE7252E02D037
:10299000582EC3D0CAE70020607025202070012087
:1029A00078E0002B07D149070BD5089A511E0891F2
:1029B0000199117005E0089A511E08912B211170A0
:1029C0000027039903976518089B0178C9072646D5
:1029D00008D10299491CC91A42689142264601DC75
:1029E000691A4E1C591C04984300002730463A4689
:1029F0000BF0F8FB08900599002903D0411C0891C1
:102A0000077000E00146A94206D8481E691A491C11
:102A100020220BF06DFC2F7006980078C00606D4BB
:102A2000311B202220460BF063FC059D2EE0A642C0
:102A3000059D2BD0311B302720463A460BF058FC21
:102A4000069B07984142414103980140012905D165
:102A50001878400702D43046214604E03078611CE3
:102A60002070701C37701A7B412A0CD0582A05D070
:102A7000612A08D0782A01D0702A07D11B781B0759
:102A800001D4612A02D142784A70477020460BF087
:102A900009FD401909B0F0BD423024004302000096
:102AA000F8B514460F4605468068002804D4286807
:102AB00010218843286001E00120A860287B1026AF
:102AC000582808D0782806D0702804D06F2801D163
:102AD000082600E00A262846194600F055F8AA689C
:102AE000002A09D102460A4306D12878000749D5B1
:102AF0002B7B0020024612E02B7B642B03D1642346
:102B0000002905D40AE0692B08D1002906D56923DC
:102B100001223A60002240428A4100E00A460094C5
:102B20001146324600F0CEF8A968884206DA401C09
:102B300021684A1E226030220A70F5E7287B582857
:102B400003D0782801D070280FD1297809070CD537
:102B5000702800D1782021684A1E22600870206801
:102B6000411E216030210170287B6F280AD128780E
:102B7000000707D520684178302903D0411E216025
:102B800030210170F8BDC04610B5037B702B05D114
:102B90000868021D0A60006800227BE002683E4867
:102BA0001040421E04465440944216D9002807D0D3
:102BB0004242024039485043C00E39A2105C00E046
:102BC0002020401F082808D8784400794000874416
:102BD0004C04041E38041E04040000221846643805
:102BE00014280DD801248440354804420AD12120FC
:102BF000044205D00868021D0A600068C21749E057
:102C0000582B46D10868031D0B60006842E0184647
:102C10006438142807D8012282402948024206D18C
:102C20002120024203D10020582B024632D10868ED
:102C3000C21D0720824310460830086010685268A1
:102C400028E0002218466438142807D8012484405C
:102C50001B48044204D121200442CBD1582B18D167
:102C60000868031D0B60007814E0002218466438E1
:102C7000142807D8012484401148044204D121209B
:102C80000442B7D1582B04D10868031D0B6000889B
:102C900000E01046114610BD603F000031B57C07D2
:102CA00000011C021D0E18031E16140F1911040832
:102CB0001F1B0D17151310071A0C12060B050A0916
:102CC00000081200FEB501920D460646582B01D0B1
:102CD000174800E0154800900898029030462843B5
:102CE00005D1029A1068411E116030210170019CCB
:102CF0003046284313D030462946224600F01AF8C1
:102D000007460D4622460BF05BFA301A0099085C24
:102D1000029B19684A1E1A6008703E46E8E702984E
:102D200000680BF0BFFB401EFEBDC046FA28010044
:102D30003E29010080B5102A06D0082A09D1C00812
:102D40004A078018C90880BD00090A0780180909C8
:102D500080BD002904D111460AF0CEFF002180BDBC
:102D600000230BF041FB80BDF0B589B0044602E0C2
:102D7000092808D1641C20781F28F9DD2028F9D003
:102D80003E28F7D003E0002801D122462CE0651C44
:102D900028460BF038FA421C2918824201D20A4612
:102DA00022E0201803E0C91EC01EA34215D90278F4
:102DB000202A01D0092A10D1A04210D9421E13782E
:102DC000202B01D0092B0ED1A2420AD9831E1D78D7
:102DD000202DE8D0092DE6D006E0421C04E0024692
:102DE00002E08A1E00E04A1E0025157021780029A5
:102DF00022D0204604E0C21CC178002910461BD016
:102E00000A46613AD2B2192A01D8203901704178B4
:102E1000002911D00A46613AD2B2192A01D82039C4
:102E200041708178002907D00A46613AD2B2192A46
:102E3000E1D820398170DEE720784E282AD16078E9
:102E4000412827D1A078562824D1E078202821D104
:102E5000201DE04908AA07AB0BF0D4F8022800D0E7
:102E6000A7E2DD4800210170DC480170DC48016008
:102E7000DC4801600799089809F062FCDA480068AC
:102E8000192109014018D9490860D9480121017068
:102E900009B0F0BD2078572828D16078482825D17E
:102EA000A078452822D1E07845281FD120794C28E8
:102EB0001CD16079532819D1A079202816D1E01DA2
:102EC000C44908AA07AB0BF09DF8022800D080E2A5
:102ED000C14800210170C1480170C1480160C1486A
:102EE00001600799089809F0E1FBC7E720784C28B2
:102EF00025D16078542822D1A07855281FD1E078B8
:102F000052281CD120794E2819D16079202816D159
:102F1000A01DB84908AA0BF075F8012800D052E2AC
:102F2000AE480078002811D1AF480068B24909685E
:102F3000401A0BD4089808F02FFDB04852E2AA4F6F
:102F40003968204609F046F9002801D009B0F0BDE3
:102F500005A80BF0FFF90599069A204602F064FDDA
:102F6000002808D0A248002101709D4801609D48BA
:102F70000160A34836E22078502823D160784928A0
:102F800020D1A07844281DD1E07820281AD1201D16
:102F900004A900919B4908AA07AB0BF033F803285A
:102FA00000D012E208999848079A049B0EC0974CEB
:102FB0000EC40C3C0C380BF09BFA20460BF098FA30
:102FC00093480FE22078422840D1607841283DD1D3
:102FD000A07853283AD1E078452837D120792028A5
:102FE00034D1601D0025294603F00EFE0646894CAB
:102FF00021460AF0C4FB0390874F304639460AF059
:10300000D9FB002800D137460398002800D13C4660
:10301000FD480570FD4805700AF0E6FAFC480460BA
:10302000204629460AF0A2FB002809D0F94805608D
:1030300075480BF05DFA75480BF05AFA0AF046FC39
:103040002046214609F0DCFC09B0F0BD20784D286F
:1030500052D160784F284FD1A07854284CD1E078D5
:103060004F2849D12079522846D16079202843D170
:103070007D2000010790A01DF44908AA07AB0AF0C3
:10308000C1FF002800DCACE1089D00242846214651
:103090000AF075FB0390EF4E284631460AF08AFB92
:1030A000002800D12E46EE480399002900D134466D
:1030B00008940799814200D90790D34801210170F3
:1030C000D248002101700AF08FFA0898D4490860AC
:1030D000D44908600798002801D039680818D249F7
:1030E0000860D2480BF004FAD1480BF001FA079BB4
:1030F0000899DD480A4669E02078502800D08DE024
:103100006078572800D089E0A0784D2800D085E06D
:10311000E078202800D081E07D2000010490201D6F
:1031200004A90091CC4908AA07AB0AF06BFF02285A
:1031300000DA4CE1089E0024304621460AF01FFBCD
:103140000390C44D304629460AF034FB0028284637
:1031500000D1304603990029214600D1014608914B
:10316000079E304621460AF00AFB03903046294666
:103170000AF020FB002800D13546B9480399002900
:1031800000D12C4607940499814200D904909E48AE
:10319000012101709D48002101700AF025FA08986C
:1031A0009F49086007989F4908600498002801D04B
:1031B000396808189C4908609C480BF099F99C48AC
:1031C0000BF096F9049B079A0899A64809F000FBB2
:1031D00009B0F0BDA32D0100B4332020AF3320206F
:1031E000703320204C332020FC322020203320203C
:1031F000B7332020032E01000C332020412C010086
:10320000142C0100FD2C0100B0312020D4312020ED
:10321000F42C0100000070C2000070422078502899
:1032200050D1607855284DD1A0784C284AD1E0780B
:10323000532847D12079452844D16079202841D1AD
:10324000A01D824908AA07AB0AF0DCFE022800D0C4
:10325000C3E07D200390089C204629460AF08FFA9F
:1032600002907C4E204631460AF0A4FA002800D194
:103270002646039800010299002900D13546089599
:103280000799814200D907905F48012101705F488A
:10329000002101700AF0A8F90898614908606149A5
:1032A00008603868079908185F4908605F480BF0A4
:1032B0001FF95F480BF01CF9079908980AF0DCFA2F
:1032C00009B0F0BD207851281BD16078552818D15D
:1032D000A078492815D1E078452812D120795428C2
:1032E0000FD1607920280CD1A01D00210A2207F0FF
:1032F00095FB41424141504A117000286FD052481D
:1033000070E02078542819D16078452816D1A0782B
:103310004C2813D1E078452810D1207920280DD1F0
:10332000601D00210A2207F079FB411E02468A41F6
:1033300041490A7000284ED1414853E02B492046AC
:1033400009F0A6FB002810D02949204609F0A0FB6F
:1033500000282AD02749204609F09AFB00282AD0C5
:1033600020460AF037FE09B0F0BD26480570264811
:103370000570264805700AF037F92548056025488C
:1033800005602548056025480560254805602548F5
:1033900005602548056025480BF0AAF824480BF085
:1033A000A7F80AF093FA23481CE006F065FA09B082
:1033B000F0BD324816E00AF0D9FF0F4805600F480B
:1033C00005600F480EE02B480CE029480AE023482E
:1033D00008E0294806E0194804E01D4802E01948C1
:1033E00000E022480AF0BEFA09B0F0BDE82D010065
:1033F000ED2D0100202D01002C3320203033202022
:10340000662B0100B7332020B4332020AF332020B7
:10341000703320204C332020143320201C332020F4
:10342000683320206C33202018332020B031202036
:10343000D43120207E2C0100C3332020C02B01007A
:10344000B42B0100592B01003F2B01006C2D010012
:10345000CC2B01000000AA42CE2C0100BA2C0100A6
:1034600010270000F92D0100CD2D0100FC2B0100DB
:10347000A62C0100082C0100732B0100D82C0100A0
:10348000F0B5FFB0A4B01E4602911090A8980A9023
:103490008000E9490D585C1E1192D01E182101913F
:1034A0000AF0BEF9C1178843011B15910D952D191E
:1034B0000E9081001496B0000F91081ADF49401851
:1034C000061D002766ACAF420DDC1598C01903D469
:1034D00030680AF0C5FD01E00020014603C47F1CEE
:1034E0000034361DEFE71498C00066A9401808386C
:1034F00000230D9FBB4224DC129300251390074646
:10350000109C2E461595149886420FDA03CC0CCFEA
:10351000083F083C0BF048F8159A2B4606F037FC9C
:1035200015900D46761C0834083FECE7129BD80036
:1035300016A90A18159C0C5055605B1C139808308E
:10354000D7E71720C0430E99484311994118084600
:10355000183809903020401A04902F200591401A05
:1035600003900F98B54908180F9016A808380890CE
:103570008FA8011FB800079108180690F80016A937
:103580000A180B58526808990E188FA815900E97B4
:10359000384601282ADB3746002613901846114684
:1035A000129232461193A64B0AF0FEFF0AF000FA7F
:1035B0000AF056FD04460D4632463E46A14B0AF03F
:1035C000F3FF119A129B06F0E2FB0AF0F1F915994C
:1035D00001C1159103CF22462B46083F06F0D7FBC9
:1035E000034613980A46401E083ED2E71846114685
:1035F000099F3A4608F020F805460E46FF2083054D
:103600000024284622460AF0CFFF07F0C1F80C94A8
:1036100022468D4B0AF0C8FF2A46334606F0B7FB18
:1036200004460D460AF0C4F906460AF019FD0246A2
:103630000B462046294606F0A5FB0446012F1591AE
:103640005FDB0E9880008FA90818001F01680A46EA
:10365000049B1A4196190B969A40891A01600398A7
:1036600001410D9E794D0C9101295ADB13940024E0
:103670008FA821460E9A91420EDA0268002C2B4642
:1036800002D1002A06D06B1C9A1A02600124491C40
:10369000001DEFE70024FAE7099801280B996C4F09
:1036A00010DB059819286B4803D005981A2809D112
:1036B00069480E9989008FAA5118091F0A680240AB
:1036C0000A600B99491C0B910C98022828D1002004
:1036D0003946139A159B06F055FB054602200C90BF
:1036E000002C00D184E000200C463946099A07F0EE
:1036F000A3FF02460B462846214606F043FB04463C
:1037000010E00B96002FF54D69D020460C9AF44B33
:103710000AF019F800280D9E03D002200C90A5E7AE
:10372000139C15990025204627460C462A462B4611
:1037300009F0EEFF00285DD00E9CA0000799091843
:103740002246B24204DD521E0B681D43091FF8E7F2
:10375000002D0699224663D10868521C091F0028D3
:10376000FAD014980019C00066A90D181192601CB7
:10377000944232DA129080000F9908580AF070FCD7
:10378000149AA218D20066AB9C189850616000236E
:1037900013952C46109F19461D461498814212DA43
:1037A00038681591796822681E4663680AF0FCFE45
:1037B00032462B4606F0EBFA03460D461599491C96
:1037C0000837083CE9E7129CE00016A90A180B50DC
:1037D0005560139D0835119AC9E71746CEE60E9835
:1037E00080008FA90818001F0068C1150D9E3AE7D8
:1037F0002C4697E70198059E821B3846214607F024
:103800001BFF05460C460022B74B09F09CFF002821
:1038100024D1284621460AF0CBF806460E9C3AE011
:103820008FA90818001F099A183A641E0168001F22
:103830000029F9D033E0C046A4290100601E010030
:103840000000703E000070C1000020C0FFFFFF00BC
:103850000000F03FFFFF7F00FFFF3F000027A34B6A
:10386000284621463A460AF09FFE0AF0A1F806468D
:103870000AF0F6FB9E4B3A460E9F0AF095FE2A464A
:10388000234606F084FA0AF093F8B9008FAA505044
:103890007C1C05980990A0008FA90E50099A002061
:1038A00090490F9007F0C8FE0646A0008FAA121894
:1038B000E50016A8109547190E94002C19D41594FC
:1038C00010680C4615460AF0CBFB02460B46304604
:1038D00021460AF069FE03C7002230462146834B89
:1038E000083F0AF061FE0646159C641E2A1F083F29
:1038F000E3E716A8109942180E9F3B46002B0A9941
:103900000D982ED41293F91A8842149000DB14916A
:103910001191002313921746764C19461D461498B0
:10392000814212DC2068159161683A681E467B6806
:103930000AF03AFE32462B4606F029FA03460D46B7
:103940001599491C08340837E9E71198C0003EA9C9
:103950000A180B505560129B5B1E139A083A0E9F73
:10396000CCE7481E02281FD3002955D0032900D0D8
:10397000AEE03EA810990C18083C3846002859DDE6
:103980000AF00CFD02460F462846314615463B46D6
:1039900006F0F8F90AF0C8FDA0C40E9F2060159843
:1039A0006160401E103CE9E7FE0000242546002F20
:1039B0000CD43EA8811982594B682046294606F04E
:1039C000E6F904460D467F1E083EF0E701260C98F6
:1039D0000028284601D0F007684002990C60486032
:1039E0003E983F9922462B4606F0CCF93EAC08346F
:1039F0000E9DAE4206DC0CCC083C06F0C8F9761CE5
:103A00000834F6E70C9A002A02D00122D20751406E
:103A1000029A9060D1605BE0F8003EA90C1800208B
:103A20000146002F22D40CCC083C06F0B0F97F1ED2
:103A3000083CF6E73EA810990C18083C38460128C7
:103A40001DDD0AF0ABFC07460B46284631463A46D8
:103A50001D4606F097F90AF067FD27600E9F656026
:103A6000A0601598E160401E083CE8E70C9A002A27
:103A700002D00122D2075140029A03C228E00F98D7
:103A80000146022F0ADB3EAA109C131912595B68EB
:103A900006F07DF97F1E083C1094F2E706463F9839
:103AA0003E9A0C9B002B0CD00123DB075840409C16
:103AB000419D5D405940029B1A601A1D71C25961B7
:103AC00006E0409B419C029D2A602A1D59C2696103
:103AD00007210B9808407FB024B0F0BDFFFFFF0026
:103AE0000000E03F0000F03F000070410000703E29
:103AF000000070C140240100F0B58BB0054609A854
:103B00000AF028FC06AC2046294606F071F8099810
:103B10000290EC48006801900A9EEB480768EB4869
:103B200005602078079903952A460AF09BF92089B9
:103B3000002804D000B20AF03DF907F02DFFE44C54
:103B40002078012810D1E34800680399081A0BD4A3
:103B500009F04AFD00202070DF480AF0C9FCDF4868
:103B60000AF0C6FC09F0B2FE02980199451AF11B51
:103B70000998D44A10600A98D34A1060D84800784F
:103B8000012811D1D7480560D7480160D74801689E
:103B9000002920D0039A511A1DD4D54900240C6065
:103BA000D4490C60046018E00291D34E3468D348C5
:103BB00007682046394609F0E2FD002823D07D2021
:103BC000C105204607F017FE0446394609F0F2FD0C
:103BD000002828D028E0C6480468C94E3568284621
:103BE000214609F0CCFD002800D195E03F200106D8
:103BF000284607F000FE0546214609F0DBFD0028B7
:103C000000D19AE09AE02046394609F0D3FD002819
:103C100009D0BC49204607F0EEFD0446394609F0BC
:103C2000AEFD002800D1274601973760B64E3468B4
:103C300028460AF0BFF8214607F0D8FD7D21CF05C0
:103C4000394608F053FE214607F0D5FD04463060A2
:103C5000AE4E356802980AF0ADF8294607F0C6FD69
:103C6000394608F043FE294607F0C5FD0746306097
:103C700000212046029109F094FD0646A449204601
:103C800008F034FE3F210A06BF210D06002E29460A
:103C900000D01146009207F0AEFD0AF01BF9044671
:103CA000904804603846029909F07BFD0646384684
:103CB000974908F01BFE002E00D0009D294607F012
:103CC0009AFD0AF007F988490860201A91490860AE
:103CD000019805900490039E304609F0D3F80190B6
:103CE0008D4804688D4D2F7809980A9905AA04AB70
:103CF00004F048FC012F38D1002800D1C6E08848E4
:103D000000210160874801608748016087480160A1
:103D100009F0DCFD0BB0F0BD2846214609F04AFD54
:103D200000280AD0BF200106284607F064FD05469A
:103D3000214609F024FD002800D12C463460F44FC0
:103D40003E686C4805683046294609F018FD002891
:103D50005FD03F200106304607F04DFD064629465C
:103D600009F028FD002865D065E0341B002805D146
:103D700009980A9905AA04AB03F010FC002C00D5A1
:103D8000F5E00127039C20460AF080F9002102910A
:103D900000281AD00AF06EFB0028384600D1287897
:103DA000C00712D1049C0598002109F0DFFC00280F
:103DB00000D1AAE10021204609F0D8FC0028039C8C
:103DC00003D0D94805900490029720460AF0EAF8FB
:103DD000002800D02F78F80704D10AF04BFB002808
:103DE00000D1A5E020460AF051F9002800D1BEE03C
:103DF0000AF040FB002800D0B9E00598CB4C2146E2
:103E000008F074FD05900498214608F06FFD044603
:103E1000ACE03046294609F0CDFC00280AD0BF208E
:103E20000106304607F0E7FC0646294609F0A7FCE4
:103E3000002800D135463D602046294607F004FAA7
:103E4000C5480068002109F091FC002800D15AE122
:103E50003C68C3480568C1480068002109F086FC39
:103E6000002800D14FE10021284609F07FFC0028FE
:103E700000D148E100252046294609F077FC0028BA
:103E800000D140E1A54805700BB0F0BDB148056810
:103E9000684209F08FFFA84E314608F027FD04461E
:103EA000A6480460284609F085FF314608F01EFD4B
:103EB0000146A3480160A3480460A548016020466C
:103EC0001FE1C0462C33202030332020FC3220203C
:103ED000B733202020332020B0312020D4312020BF
:103EE000B4332020D8322020EC3220201833202078
:103EF000683320206C3320204C3320207033202066
:103F000014332020000080BEB0322020B4322020A4
:103F10000000C842E83220200C332020AF3320209C
:103F2000E0322020F4322020DC322020F032202029
:103F30000599019C204607F05EFC059004982146F7
:103F400007F054FC04900AF095FA00280FD1059868
:103F50000024214609F013FC002801D00020059020
:103F60000498214609F00BFC002800D00494059C1D
:103F70006F4E2046314609F002FC05466D4F204643
:103F8000394609F017FC0028384600D12046002D9C
:103F9000344600D104460594049D2846314609F074
:103FA000EEFB03902846394609F004FC002800D1B6
:103FB0002F460398002800D13E4604960298002818
:103FC00026D000252046294609F0D9FB03905A4FF8
:103FD0002046394609F0EEFB0028384600D120463D
:103FE000039900292C4600D1044605943046294601
:103FF00009F0C5FB03903046394609F0DBFB002889
:1040000000D137460398002800D13D46049500E0D2
:1040100035464A4804604A480560414802683D48C0
:10402000214607F091FF474F38603E4802680499E7
:10403000394807F089FF03903D68059C002620461B
:10404000314609F093FB0028304624D10295002523
:104050002046294609F093FB002801D1204602E0C2
:104060000120C0076040384908F040FC41210906A2
:1040700007F0C1FB07462046294609F09BFB0028B4
:1040800004D00298394607F0B6FB03E0029839469F
:1040900007F0ACFB2B4F3860049F0446384631468E
:1040A00009F064FB002828D1254600243846214623
:1040B00009F065FB002801D1384602E00120C00765
:1040C0007840214908F012FC4121090607F093FBD2
:1040D0001E4908F00BFC06463846214609F06AFBEB
:1040E000002804D00398314607F085FB03E00398CD
:1040F000314607F07BFB06462C46154806602046F5
:10410000314607F0A1F80BB0F0BD039C5DE6C04658
:104110001C332020B0312020D4312020B433202083
:10412000B0322020B4322020000020416666263FB5
:10413000000070C20000704200007041E032202098
:10414000F4322020DC3220203333333F8FC2753FDE
:10415000F0322020C0322020683320206C33202011
:1041600014332020F0B5FFB0DCB0E09D002D30D03E
:10417000002B2ED0002A2CD0FC4C2478002C28D1E7
:104180001C4654436400A54223D1F94CF94F2E1923
:1041900013367F1EBE421CD30A910B9008920993DE
:1041A00001F014F8064609F0F9FF002800D155E1A6
:1041B00005F0B2FE00280FD00B98FF2800D156E181
:1041C00005F0AAFE00283AD0EB48C61C6027E84C50
:1041D00007E0EA4809F0C6FB7FB05CB0F0BD7F1E87
:1041E0002DD03C361BA93C22304604F0ABF8002809
:1041F00025D01BA80178A529F1D180790128EED11D
:104200001BA840880028EAD01BA98A88002AE6D08B
:104210001D99D84BCB18A342E1D31E9B42435000BB
:104220008342DCD1C91814311BA8D34A9142D6D29B
:1042300041780B988142D2D10B9806F099F8E19819
:104240000290284614300490CD49012003900003C9
:1042500007902818133008400590C748C71C002055
:104260000690602602E0361F00D144E138463C301B
:104270000CA93C2204F066F8002800D174E10CA8D7
:104280000178A5292ED1807901282BD10CA842884C
:10429000002A27D00CA88388002B23D00E98B5497C
:1042A0004118B34CA1421DD30F9953435A00914278
:1042B00018D142181432B04B9A4213D2069CE2B283
:1042C000D20001921BAB019A9A180092019A985061
:1042D000079A51181331AA4A1140081800994860EA
:1042E000641C0694384678300CA93C2204F02AF865
:1042F000002800D138E10CA80178A5292ED18079B9
:1043000001282BD10CA84288002A27D00CA883882A
:10431000002B23D00E9897494118954CA1421DD3EC
:104320000F9953435A00914218D142181432924BBC
:104330009A4213D2069CE2B2D20001921BAB019AC0
:104340009A180092019A9850079A51181331FC4A12
:104350001140081800994860641C06943846B4302F
:104360000CA93C2203F0EEFF002800D1FCE00CA8D1
:104370000178A5292ED1807901282BD10CA842885B
:10438000002A27D00CA88388002B23D00E98E84958
:104390004118E64CA1421DD30F9953435A00914254
:1043A00018D142181432E44B9A4213D2069CE2B25E
:1043B000D20001921BAB019A9A180092019A985070
:1043C000079A51181331DE4A1140081800994860C5
:1043D000641C0694F0370CA93C22384603F0B2FF67
:1043E000002800D1C0E00CA80178A52900D03AE748
:1043F0008079012800D036E70CA84288002A00D135
:1044000031E70CA88388002B00D12CE70E98C8490F
:104410004118C64CA14200D225E70F9953435A00D8
:10442000914200D01FE742181432C34B9A4200D386
:1044300019E7069CE2B2D20001921BAB019A9A18CE
:104440000092019A9850079A51181331BC4A1140B2
:10445000081800994860641C069404E7B54A1BAC30
:1044600040212046334609F07DFB2046B2E600207D
:104470000B90AE4C05F050FD002800D1DFE6AE48B1
:10448000C61C602702E07F1E00D1D8E63C361BA97F
:104490003C22304603F056FF002800D1CFE61BA88F
:1044A0000178A529EFD180790128ECD11BA840889B
:1044B0000028E8D01BA98A88002AE4D01D999C4BCB
:1044C000CB18A342DFD31E9B424350008342DAD174
:1044D000C91814311BA8984A9142D4D241780B983C
:1044E000C0B28142CFD10B98411C80B2FE280B9103
:1044F000C0D392486EE60798059908188E498842FD
:1045000032D20699C9B20029079E3BD0CB001A4689
:10451000103A0693083B079F3E46002403E01834F8
:104520000699A1422ED01BAF3959814203D23919C5
:104530004F68BE4213D3A34224D01BAF3F19B968C2
:10454000814202D2FF68BE4209D3A2421AD01BA9FF
:104550000F1939698142E2D27F69BE42DFD20598E4
:10456000381875498842D7D3764833E6BD332020C2
:10457000001081FF000081FF01007F004F29010032
:1045800000F0FFFF704809F0EDF904988419A64285
:104590001DD23746384604F0BDFE002800D18BE01E
:1045A00007983F18A74212D2384604F0B3FE0028FD
:1045B00000D181E007983F18A74208D2384604F09E
:1045C000A9FE002878D007983F18A742E2D31BAF76
:1045D0000A98394608F092FC5348039901705C49E7
:1045E0000B9808705B49089808805B490998088017
:1045F0005A4805605A48029901605A4800240460EC
:104600005948E1430160594806601436584806602D
:10461000584804603878584D2870002849D01BA8A5
:1046200040786870002849D01BA88078A8700028BE
:1046300047D01BA8C078E870002845D01BA8007997
:104640002871002843D01BA840796871002841D008
:104650001BA88079A87100283FD01BA8C079E871F9
:1046600000283DD01BA8007A287200283CD01BA847
:10467000407A687200283BD01BA8807AA872002874
:104680003AD01BA8C07AE872002839D01BA8007B5A
:104690002873002838D01BA8407B6873002837D0C7
:1046A0001BA8807BA873002836D01BA8C07BE873AA
:1046B00037E0681C0F2132E024488BE5A81C0E214E
:1046C0002DE0E81C0D212AE0281D0C2127E0681DA3
:1046D0000B2124E0A81D0A2121E0E81D09211EE08C
:1046E0002846083008211AE028460930072116E03C
:1046F00028460A30062112E028460B3005210EE03C
:1047000028460C3004210AE028460D30032106E03B
:1047100028460E30022102E028460F30039909F0A6
:10472000EEFDEC73154855E5BD332020001081FFE8
:10473000000081FF4026010001007F00E429010004
:1047400000F0FFFF8B280100542A0100442A0100D9
:10475000A73320209A33202066322020AC3220203C
:10476000A83220203833202044332020A4322020B7
:104770007C3320204833202038322020812A010039
:10478000F0B5B5B009A80690E5480078012800D03A
:10479000E0E208A809F082FB002800D1DAE20698DE
:1047A00020300690DF4DE04CE04E05E008A809F00F
:1047B00075FB002800D1CDE2089829684A1C2A60C0
:1047C000FE4B5854FE4F39680B0A4840C0B2800077
:1047D000FC490858584038602068401C206001217E
:1047E000079109028A4202D031688842DED1F64E32
:1047F0003068F24901F0B0FE00284AD028683168DC
:104800000818306000272F6023681DAE282130462D
:10481000EE4A09F0A7F93046E74E09F0A3F82168FF
:1048200030688142C2D1E6490968CC43E849189111
:10483000E84D298818AA9180E7490988D18007990D
:104840001A911B901C94DB480770E4480068A04252
:1048500025D1E348006818A9142201F07DFE002844
:104860001FD00394DF48C41C3C341DA93C222046C1
:1048700003F068FD002807D01DA80078FF2800D1AC
:104880002EE17F1C602FEFD1D648C41C0026602784
:104890000DE00020C74908702860D34858E2D3488B
:1048A00056E2D34854E2059F3F1F00D1FAE020466C
:1048B0003C301DA93C252A4603F044FD002800D1C8
:1048C0000CE11DA80178A5292FD1807901282CD1D0
:1048D0001DA84088002828D01DA98988002924D037
:1048E00004961F9AC34BD318C34EB34201D2049E01
:1048F0001BE0209B414348008342049E15D1D01801
:104900001430B849884210D23046761CC0B24543B4
:10491000BA4840191DA92CC92CC00597ACC9ACC018
:10492000ACC9ACC0ACC9ACC0059F204678301DA94D
:104930003C252A4603F006FD002800D1CEE01DA844
:104940000178A5292ED1807901282BD11DA8408876
:10495000002827D01DA98988002923D005971F9AF0
:10496000A44BD318A44FBB4201D2059F1AE0209B51
:10497000414348008342059F14D1D0181430FC49AC
:1049800088420FD2701C0490F0B24543F948401998
:104990001DA92CC92CC06CC96CC06CC96CC06CC979
:1049A0006CC0049E2046B4301DA93C252A4603F065
:1049B000C9FC002800D191E01DA80178A5292FD1BC
:1049C000807901282CD11DA84088002828D01DA955
:1049D0008988002924D004961F9AE44BD318E24E0C
:1049E000B34201D2049E1BE0209B41434800834216
:1049F000049E15D1D0181430DD49884210D23046BB
:104A0000761CC0B24543DB4840191DA92CC92CC0F7
:104A10000597ACC9ACC0ACC9ACC0ACC9ACC0059FB3
:104A2000F0341DA93C2520462A4603F08BFC0028C3
:104A300054D01DA80178A52900D035E78079012838
:104A400000D031E71DA84088002800D12CE71DA91F
:104A50008988002900D127E705971F9AC34BD318EF
:104A6000C14FBB4200D21EE7209B41434800834216
:104A7000059F00D018E7D0181430BD49884200D3F4
:104A800012E7701C0490F0B24543BA4840191DA9C2
:104A90002CC92CC06CC96CC06CC96CC06CC96CC012
:104AA000049E01E7F0B204F07FF8002816D0B34866
:104AB00008F058FFAE48C41C0027A74EA74D3C3451
:104AC0001DA93C22204603F03DFC002806D01DA86D
:104AD0000078FF2804D07F1C602FF0D1A64837E172
:104AE00009AC201D3821FF2209F002FCA52020700E
:104AF000A348007860702888608099480088A0806A
:104B00000798A071974800680B9030680C90039844
:104B10000D909748C61C0020029060240CE0C0460F
:104B2000BD3320204833202038332020AC322020D1
:104B30000F46059D641E35D03C361DA93C253046E8
:104B40002A4603F0FFFB00282CD01DA90A78A52ACD
:104B5000F0D189790129EDD11DA94A88002AE9D02F
:104B600005951DA98D88002DE3D039461F9F7F4BE9
:104B70000497FB187C4FBB42DAD3209B55436A0055
:104B800093420F46D5D1229A02998A42059D00D8B8
:104B9000029A0499C9181431754B994200D3029AAC
:104BA0000292C7E72E4600282AD16B4D069C079833
:104BB0002AE0C046BD332020AC322020002E202029
:104BC00044332020601A01007C332020C4280100D7
:104BD000494D47309A33202066322020A8322020C9
:104BE000A432202001007F0051270100242B010066
:104BF00093290100000081FF001081FF00002020A8
:104C00000298401C544D069C0E905E490A7809A8F3
:104C10000276002A47D04A7809A84276002A45D071
:104C20008A7809A88276002A43D0CA7809A8C27671
:104C3000002A41D00A7909A80277002A3FD04A7990
:104C400009A84277002A3DD08A7909A88277002AEC
:104C50003BD0C87909AAD077002839D0087A2070CB
:104C6000002838D0487A6070002837D0887AA07041
:104C7000002836D0C87A069AD070002835D0087B34
:104C8000069A1071002834D0487B069A507100288B
:104C900033D08A7B069BD81D9A71002A31D0C97BFC
:104CA0000170069C31E019300F212CE01A300E21E2
:104CB00029E01B300D2126E01C300C2123E01D30A3
:104CC0000B2120E01E300A211DE01F3009211AE0CF
:104CD0000821204617E0601C072114E0A01C0621D3
:104CE00011E0069CE01C05210DE0069C201D04211E
:104CF00009E0069C601D032105E0069CA01D022121
:104D000001E00121069C09F0FAFAF9B20020E071F5
:104D10001D485F291CD87F210F4032467743144934
:104D2000CB193F3309A90446184601F015FC01468A
:104D3000204600290CD01248037828680090039878
:104D40000190124A1DAC6021204608F00BFF20465E
:104D500008F008FE35B0F0BDAC3220209A33202098
:104D600066322020A4322020001081FF000081FF45
:104D700001007F0000002020002801003A270100E8
:104D8000A733202038322020C4290100D925010072
:104D9000F0B597B0F3480578042D05D1F54800210A
:104DA0000170F14801215DE0EF48017800292CD025
:104DB000F0480078012856D1ED480578002D54D0F0
:104DC00005208201E9490978052D51D86E1E022976
:104DD00000D1A4E0012967D0002900D0C8E0032D4C
:104DE00000D906E1F7B2B800F24908580590F24838
:104DF0000478182070432030C5B22B4618330020A9
:104E0000A74200D100E10646FFE0D8490D70D8491D
:104E100000220A70D74901220A700270052082011F
:104E200016468F360096002420232046214608F09F
:104E300069FA022D03D8A800E3490A5800E0E14AC4
:104E4000102000960190029408200421CE4B01F01E
:104E5000C3F9C7480178491CCAB20170072A02D3B6
:104E6000C4480021017017B0F0BDC0480578D5E7EF
:104E7000032903D28800C2490C5804E0BE4C2078B4
:104E8000002800D1BD4CBF4E009600259821AA23D2
:104E9000284608F037FA1020009601900295082065
:104EA0009A21B94B2246D2E7144604F0C9FD0028E6
:104EB00000D188E0BB4F3978814201D3411E39705F
:104EC000C9B2091F224600D200218919CDB28542FC
:104ED00000D38EE006A9284606F03CFB22460028B7
:104EE00000D186E006A8037801460C31428880880C
:104EF000009101920290AC4A0DA82821059008F07B
:104F000031FE397818207043C3B21E46203638333C
:104F1000002004918D4200D108E1074607E11446C4
:104F200006A809F017FA032E00D9D7E07E44367997
:104F30007600B74401B180A0069B07980090974A7D
:104F40000DAD2821284608F00DFE002600962021F0
:104F500038233046224608F0D5F92878002800D1B9
:104F600077E710200096019002960C202421B2E0F1
:104F700092490F78062F01D308700746391F002089
:104F8000042F00D201468919CCB2E1008C4B59584C
:104F9000059118217143CBB21D4620353833BC42F0
:104FA00001D0064600E01F260096294608F0AAF91F
:104FB000059A1078002800D14BE704200543BC4235
:104FC00030D0734B2FE0022D00D19EE0012D224600
:104FD0000FD10024009420213823204608F092F9B4
:104FE0001020009401900294714A0C202421684BF7
:104FF0002DE718207043C3B2194620313833002002
:10500000009008F07FF924E71F260096294608F053
:1050100079F9059A1078002800D11AE70420054391
:10502000A742CED1584B002010210096019102904A
:105030000C2029460BE709F015FA064609F00AFA92
:105040000090544A0DAD28212846334608F08AFDC9
:1050500000260096502168233046224608F052F977
:105060002878002800D1F4E61020009601900296DE
:105070000C2054212FE0002500956821802328462C
:10508000224608F03FF910200095019002953F4A12
:105090000C206C213E4BDAE609F01EFA064609F0B8
:1050A00021FA00903C4A0DAD28212846334608F0ED
:1050B00059FD00260096382150233046224608F03C
:1050C00021F92878002800D1C3E61020009601902D
:1050D00002960C203C210DAA2D4BB8E618207043F7
:1050E000C5B2294620312B4638330026009630467B
:1050F000224608F007F92435102000960190029608
:10510000274A0C20224B2946A1E60025009538218C
:1051100050232846224608F0F5F81020009501900B
:105120000295224A0C203C21194B90E61F2700973C
:105130003146224608F0E6F805980078002800D1AC
:1051400087E6042006430498854201D0104B00E016
:105150000D4B002010210097019102900C200DAA08
:10516000314674E6D1332020D0332020D2332020A2
:10517000BF332020BE332020F8312020CC2A01006C
:10518000541A010030840000FFFF0000D429010000
:1051900018C600007828010082290100E42B0100D4
:1051A0008D2B0100A8332020F42901009E28010046
:1051B0009C2C0100A82B0100C0332020A533202007
:1051C000F8240100382D01009C2B0100F0B595B0AA
:1051D000012001030D91FD4E3161470337618503C5
:1051E00035600424204609F095F93760204609F01F
:1051F00091F9F748006837613561204609F08AF96E
:105200003760204609F086F9FD480068376135614E
:10521000204609F07FF93760204609F07BF9F8480D
:10522000006837613560204609F074F93760204620
:1052300009F070F9F248006837613560204609F0DE
:1052400069F93760204609F065F9ED480068376173
:105250003560204609F05EF93760204609F05AF9BA
:10526000E748006837613560204609F053F9376038
:10527000204609F04FF9E248006837613560204662
:1052800009F048F93760204609F044F9DC48006825
:10529000376137613560204609F03CF937602046B8
:1052A00009F038F9D64800680C903761356020461F
:1052B00009F030F93760204609F02CF9D048006831
:1052C0000B9037613560204609F024F9376020469D
:1052D00009F020F9CA4800680A9037613560204615
:1052E00009F018F93760204609F014F9C44800683D
:1052F000099037613560204609F00CF93760204687
:1053000009F008F9BE48006805903761356020460D
:1053100009F000F93760204609F0FCF8B848006849
:10532000049037613560204609F0F4F83760204674
:1053300009F0F0F8B2480068019037613560204606
:1053400009F0E8F83760204609F0E4F8AC48006856
:105350000290376137613560204609F0DBF837602D
:10536000204609F0D7F8A64800680E9037613560EE
:10537000204609F0CFF83760204609F0CBF8A04866
:1053800000680F9037613560204609F0C3F8376038
:10539000204609F0BFF89A480068119037613560DF
:1053A000204609F0B7F83760204609F0B3F8944872
:1053B0000068129037613560204609F0ABF837601D
:1053C000204609F0A7F88E480068139037613560D1
:1053D000204609F09FF83760204609F09BF888487E
:1053E00000680690376135601095204609F092F804
:1053F0003760204609F08EF88148006814903761C4
:105400003560204609F086F83760204609F082F8BA
:105410007B48006837610004C00F08901498800B27
:1054200002211491084007900698400B20400690F6
:105430001398000B08211391084003901299C90A90
:10544000102212921140119A920A202311931A40AD
:105450000F9B5B0A40250F952B400E9D2D0A802047
:105460000E9005405B19D2188918039840180390D4
:1054700002980004C00F02900198810B149801401B
:1054800001910498400B204004900598000B13995B
:10549000084005900999C90A129A11400A9A920A7D
:1054A000119B1A400B9B5B0A0F9D2B400C9D2D0AF4
:1054B0000E9805405B19D2188918059840180C9071
:1054C0003761109D3560204609F024F8376020468A
:1054D00009F020F84A480068010A0E9801400E9130
:1054E00037613560204609F015F83760204609F02D
:1054F00011F843480068400A0F9908400E99401877
:105500000F9037613560204609F004F83760204677
:1055100009F000F83A480068800A119908400F998C
:105520004018119037613560204608F0F3FF37606E
:10553000204608F0EFFF32480068C00A1299084080
:1055400011994018129037613560204608F0E2FF4B
:105550003760204608F0DEFF29480068000B1399E9
:10556000084012994018139037613560204608F0C2
:10557000D1FF3760204608F0CDFF21480068400B7E
:105580002040129037613560204608F0C3FF376035
:10559000204608F0BFFF1A480068850B14980540A4
:1055A000376110983060204608F0B4FF376020461D
:1055B00008F0B0FF124800680004C10F04980C9A6C
:1055C0008018019A1018029A104303E090120A40C2
:1055D00080130A400004069A039BD218079B9A186E
:1055E000089B1A431202024337611398129B181842
:1055F0002818084310430D99316015B0F0BDC0461E
:1056000080130A40F0B58BB003900123F148016884
:105610001A040A4057425741090C02685D041540BC
:105620006C426C410668EC4A10780843C00728D1E8
:10563000EA480078032819D0012807D0002820D193
:10564000E9480178002915D1022116E0029304F0FF
:10565000F7F9E14A029B002813D0E2490A78002AB0
:1056600000D01046401E0870DB4A07E0DC48017895
:10567000002901D0491E00E005210170DB4800210E
:1056800001705805DA49002D02D00D46194601E097
:105690000D4609780640080626D1D0480078002833
:1056A00013D003280CD001281ED1029304F0C8F9AE
:1056B000C94A029B002817D001460197C94F08E04C
:1056C000019702930621C64F03E00197029303213D
:1056D000C54F3878401C08F00FFB3970C3480021D3
:1056E0000170029BBC4A019F7142714117702C707E
:1056F000C04802784A40D10709D0002E039F0ED13E
:105700000370BD4800210170BC48076039E0BA4809
:10571000002E039F10D01946C90710D031E0B649BA
:10572000097800292BD1AD490A78002A22D0042A11
:105730001ED1BA4A12781CE00178C90721D1AF49BD
:105740000968791A490919291BD30370A34C2078D9
:1057500003284BD0012832D0002814D1A248007869
:10576000012800D1D9E0002800D0DCE00120DBE0F6
:1057700000220A70A34900220A709C490A70002185
:10578000017096480078022809D1A5480168791A65
:1057900089087D2903D3076094480021017093484C
:1057A0000078002803D1D80705D10BB0F0BD9D4883
:1057B0000378D807F9D0FFF7EBFA0BB0F0BD1E461F
:1057C0008848007804A905F0C5FE002800D18EE0C5
:1057D00004A8007807F0D0F8002800D187E08F48AF
:1057E000334606700420207030468FE07C480078F5
:1057F000C00083490E1871680A7804A80270002A54
:1058000000D186E04A7804A842701D46002A00D1E3
:1058100090E08A7804A88270002A00D18DE0CA78CE
:1058200004A8C270002A00D18AE00A7904A8027193
:10583000002A00D187E04A7904A84271002A00D1E9
:1058400084E08A7904A88271002A00D181E0CA79B3
:1058500004A8C271002A7FD00A7A04A80272002A22
:105860007DD04A7A04A84272002A7BD08A7A04A8A2
:105870008272002A79D0CA7A04A8C272002A77D02C
:105880000A7B04A80273002A75D04A7B04A84273DD
:10589000002A73D08A7B04A88273002A71D0CA7B45
:1058A00004A8C273002A6FD00A7C04A80274002ADC
:1058B0006DD04A7C04A84274002A6BD08A7C04A86C
:1058C0008274002A69D0CA7C04A8C274002A67D0F6
:1058D0000A7D04A80275002A65D04A7D04A8427595
:1058E000002A63D0887D04A98875039F63E0454939
:1058F000464A474B474C484D00200D604C608B603A
:10590000CA60086148618861C861334637490870D8
:1059100037E71D46401C16214BE00220207040480E
:105920000021016001E00320207036480021017051
:105930002E4825E7801C15213BE0C01C142138E0CF
:10594000001D132135E0401D122132E0801D112180
:105950002FE0C01D10212CE008300F2129E0093074
:105960000E2126E00A300D2123E00B300C2120E02F
:105970000C300B211DE00D300A211AE00E300921F8
:1059800016E00F30082113E01030072110E011302D
:1059900006210DE0123005210AE01330042107E052
:1059A0001430032104E01530022101E016300121FA
:1059B000039F08F0A4FC04A80024C475FDF7D4F9E3
:1059C00033681048104A202108F0CCF807480470CA
:1059D0002B46D6E680130A405D322020D1332020AA
:1059E000A5332020A8332020C0332020D03320200E
:1059F00053322020A4332020A133202094322020B1
:105A0000F8240100F8312020D32D0100756E6400C8
:105A10007420666F65206E6F496D6167D3332020F7
:105A2000F8322020BE332020F0B589B00378442B13
:105A300047D14378522B44D18378492B41D1C37845
:105A4000562B3ED10379452B3BD14379202B38D1BE
:105A5000801DE84908AA07AB08F0D4FA022800D054
:105A600036E1089E07980690D74801210170EB4D5A
:105A70003046294607F083FE0446E64F3046394655
:105A800007F098FE002800D13746002C00D13D4693
:105A9000CE480560E24D069F3846294607F06FFE66
:105AA0000446D84E3846314607F084FE002800D11F
:105AB0003E46002C00D13546C5480560C548002546
:105AC000C7E00378532B32D14378502B2FD1837802
:105AD000452B2CD1C378452B29D10379442B26D1D2
