:1000000000802020CDE500005BA300005BA3000082
:1000100000000000000000000000000000000000E0
:100020000000000000000000000000005BA30000D2
:1000300000000000000000005BA3000011BC0000F5
:100040005BA30000B7E400005BA300005BA300001B
:100050005BA300005BA300005BA300005BA30000A8
:10006000000000005BA300005BA300000000000094
:100070000000000001E5000009E50000F9E40000CF
:100080005BA300005BA300005BA300005BA3000078
:100090005BA300005BA30000000000000000000064
:1000A0005BA300005BA30000000000000000000054
:1000B0005BA30000000000005BA300005BA3000046
:1000C000F0B5F3B007930592799A0E92789E0025C9
:1000D000EF437090139112950878A84C201843783C
:1000E000D80628D513984A1CDB0606D5481C11787B
:1000F00061184B78521C0146F6E7139070A8B04780
:100100000446401C01D100F0FAFD0EF0E0F99B48D6
:1001100000194078C00603D570A8B0470446F4E73C
:1001200070A80EF034FA1298401E1290601C934C86
:1001300001D100F0E4FD01200A9054A801466C3181
:100140000C9101460C3103910D30009014A8401C15
:1001500001900B950D971196029554A870210EF001
:1001600086F8559770A813A912AA079B98470128EB
:10017000109522D0002801D100F0A7FD401C029B61
:1001800001D100F0A4FD0F93274670A8B0470EF0F0
:100190007EF938194078C006F7D4374670A80EF0BB
:1001A000F6F91298411E1291601C39D10029109D58
:1001B0000F9A01D100F087FDB1E01398471C139707
:1001C000417800262A2935460BD101255495871CF4
:1001D000139706E0B819401C1390B85D71A98855B3
:1001E000761CBC5D204630380928F3D971A800215F
:1001F0000F9181550078002803D071A80DF02AFDD9
:1002000055904C2C2FD0682C20D06A2C0BD06C2C05
:1002100010D0742C0AD07A2C16D10120000307E0EC
:10022000109D0F9A7BE00120C00201E001204003F5
:100230002D1819E0B919481C13904A786C2A4F4CB4
:1002400018D1012000020AE0B81910E0B919481CC1
:1002500013904A78682A494C0ED1012040022D188B
:100260005495881C0AE080355495B819401C119E9D
:10027000424C04E0403500E020355495119E411C6D
:10028000139103780C9A13705B2B28D10A785E2A9D
:1002900005D102210D435495811C139182785D2A6A
:1002A00006D1481C1390097854AA1173009901E0F3
:1002B000084603990F9D0278002A09D05D2A07D0CD
:1002C000421C139200784B1C087010461946F2E746
:1002D0000D705D2A01D1401C13900C9803781846CC
:1002E0005B38132800D94EE70121814024480142A0
:1002F00000D148E731461E4670AC20460F4688477D
:10030000054620460EF040F91299681C05D10029D7
:10031000109D324603D100F0D6FC109D3246099163
:100320001046583820284CD83E460D9F4000C04605
:1003300078448088400087445301260326031C012B
:100340002603260326032603260351002603CE0098
:1003500025005100510051002603250026032603E5
:100360002603260329032500250026032603CE00A5
:1003700026032500260326032500C046F01E0100A3
:10038000010108001746559C70A8B04721460EF0A1
:100390007EF814AD002934D014AD2D2C02D02B2CB6
:1003A00000D0B2E014A8047070A80C46B0472146F3
:1003B0000EF06DF8491EF64A00D1D3E00891019D78
:1003C000A5E01046413806283E460D9F00D990E032
:1003D000012181407120014200D18AE0559D70A821
:1003E000B047044614AB401C09D00EF070F82B2C1B
:1003F00009D114AB002D0BD12B24002513E03C4672
:1004000011E00027B0E014AB002D0CD02D2C0AD148
:1004100014A8047070A8B0470446401C01D00EF028
:1004200056F86D1E019B204661381A2801D32046DC
:1004300001E0204620384928E24F109703D04E288B
:100440002AD1E14F10970026B5421BD01098805D4D
:10045000002816D0214661391A2901D3214601E02E
:100460002146203981420CD11F469C5570A8119914
:1004700088470446401C01D00EF029F8761C3B4604
:10048000E2E73546E81E41424141083D6842684185
:10049000084310909D1964E20022002D5CD0302C9E
:1004A0005AD10F9230201F46187070A8B0470446EA
:1004B000401C01D00EF00BF87B1C681E00220121AD
:1004C0001091002800D1AAE1214661391A2900D2F1
:1004D000A8E12146A8E1549901250846284049068B
:1004E000174676D4002800D00EE1059810C8059074
:1004F0000BE1252A00D046E270A8B047252801D09C
:1005000000F000FC0DF0E3FF40E20891AC4A00204F
:100510003B46115C8B4204D0401C0728F9D10020D7
:1005200000E01018801A012813D1302C5CD10F95EF
:1005300070A81090B047054610980EF025F82020BE
:100540008543583D109501D0082010903B460F9DE3
:100550004CE09E49085C48E01946109204920A98C3
:1005600008907CE10027019D3A4638460A990F9190
:1005700062E0559F5498022101400F9114AC002F66
:1005800000D148E170A8B0470546401C089000D152
:10059000B1E010942C46E8B2002303990E7886420D
:1005A0000A4600D01A46491C002E1346F6D10F9B6E
:1005B00059425941531E9A419142119E2546109C21
:1005C00000D098E0611C20700DF081FF7F1E0C466A
:1005D000D5E7002800D09DE0059810C805909AE066
:1005E00078220C980270CDE60A20109018466938DF
:1005F000C0B2102801D3002100E00121EA4FC7401A
:100600000F406F2B06D1302C0AD000200A990F9191
:10061000089A11E020463038414241410F42F4D05F
:1006200028466D1C047070A8B0470DF030FF089A82
:10063000521E00200F900A98002F24D0002A22D0AA
:10064000002820D020202146814358291BD1089220
:1006500070AF3846B047014638460F460E9A90476D
:10066000E148C0194078800701D4089A0BE02C704B
:1006700070A8B0470DF00BFF089A521E00D138E366
:100680006D1C102010900A9F002A23D01098082873
:1006900004D107202146814330290ED010980A2822
:1006A00003D1204630380A2807D31098102811D1DA
:1006B000CD480019407880070CD56E1C2C7070A8AE
:1006C00011991446884722460DF0E1FE521E00277C
:1006D0003546D9E770A80DF05AFF1298401E1290C7
:1006E0000020287005460F98384001280D9F119E64
:1006F00000D04BE1F5E270A80DF046FF1298099981
:10070000814200D087E004E300245598002841D4BA
:10071000054640E000245598002800D40546632A89
:1007200000D0054670A8B04701460DF0D0FE632FFB
:1007300005D1481E0222D24390420FD917E0481C2F
:10074000022801D3002000E00120A74A5218527865
:10075000D2060A9A00D40246002A08D1002D06D0FB
:10076000002C01D002C400E000246D1EDAE770A85E
:100770000E9A90471298401E12900999814200D11A
:10078000B7E2732F49D1002C47D00020206044E00D
:10079000B12301000125632A00D0054670A8B047A7
:1007A00001460DF094FE632F05D1481E0222D2436C
:1007B000904217D921E0481C022809D3002008E004
:1007C000B1230100072C01000D2D0100C02C0100F8
:1007D0000120854A52185278D2060A9A00D402465D
:1007E000002A0AD1002D08D0002C03D0601C2170F3
:1007F000044600E000246D1ED0E770A80E9A9047D2
:100800001298401E12900999814200D171E2732F13
:1008100003D1002C01D0002020700D9FB6E004927F
:10082000154618E021462039582912D17C7070A84D
:10083000119988470446401C01D00DF048FEBA1CAF
:10084000AD1E00200A9904911146109008900F9A4D
:1008500005E0049205460A9808900F9A19460692F8
:1008600016460F95002D0D466ED02B2C39D02D2C11
:1008700037D02E2C2FD0452C01D0652C0BD10898C9
:10088000002846D0109800285ED0002A5CD10120B4
:10089000074610904AE020463A380A21C943884268
:1008A00029460CD8049800284ED04F4800194078AB
:1008B000800704D4202020437028E3D044E02B2C70
:1008C0000FD02D2C0DD0702CDCD0502CDAD0652C14
:1008D000D5D02E2C1DD10698104335D1012006907D
:1008E00023E00898002808D0481E00782021014302
:1008F0006529294601D1174618E00498002823D01D
:10090000481E00782021014370291DD11746294631
:100910000CE0002A07D0204630380122092813D8DD
:100920001746164602E00120109000270C7070A8B0
:10093000119988470446401C01D00DF0C8FD691C80
:100940000F9D6D1E3A468CE71099481E814110910B
:10095000701E8641002A0A9800D030461099014046
:1009600010910D9F70A80DF012FE601C02D012991C
:10097000491E129100212970129A099B9342119EDF
:10098000109D00D1A8E1012D00D0B3E10C980178B1
:10099000012508465B381D283ED804A2124C4000B1
:1009A000105A40008744C046818000002400220085
:1009B00022002200220022004600220057014600A9
:1009C0004600460046002200460022002200220087
:1009D0002200A30046004600220022005701220008
:1009E0004600220022004600F01E0100FFF7B5FB82
:1009F0005499C80701D0FFF7B0FB05980068490675
:100A000000D5C8E014A94A1C0978431C01700029CC
:100A100018461146F7D1C7E0084641380628BF4CB2
:100A200001D9FFF79AFB012282407120024201D1D5
:100A3000FFF793FB14A80078002800D10BE154982D
:100A4000C20700D007E10B46613B172B3AD80022C2
:100A50009B0002A4E358B14C9F46C046D90A00004F
:100A6000570C0000570C00006B0B0000D90A000067
:100A7000D90A0000D90A0000570C00006D0B0000D5
:100A8000570C0000570C0000570C0000570C0000DA
:100A9000570C0000BD0A00008F0B0000570C00002F
:100AA000570C0000570C0000570C0000BD0A000056
:100AB000570C0000570C0000BD0A000078293FD0F9
:100AC00008223EE04139062900D9C4E001228A40CB
:100AD00071210A4200D1BEE0C021084080281ED00A
:100AE000402826D114A8002105F0DCFF1BE0549813
:100AF000C10701D0FFF731FB89490840411E02467A
:100B00004A408A4200D894E0002800D183E0414264
:100B1000014084484143C80E83A1085C7CE014A8CE
:100B2000002105F0BFFF059B04CB059310605160C9
:100B300091E014A8002105F0B5FF0CF0A9FA87E0B8
:100B40001022752900D10A2275490840411E03462A
:100B50004B408B4242D900282ED04142014071487F
:100B60004143C80E70A1085C27E00A226C49084086
:100B7000411E03464B408B4248D9002833D04142A6
:100B8000014068484143C80E67A1085C2CE014A8E6
:100B90000021102224E014A90A78002A02D0491C5E
:100BA00004C0F9E7002101600598001D05900B982D
:100BB000401C0B90FFF7D1FA2020401F08280DD8C9
:100BC0007844007940008744580909045D09043AD3
:100BD0003A0014A8002109F039FDA4E714A8002167
:100BE0000AF016FB34E02020401F08280ED8C0462B
:100BF00078440079400087444A09090452090427CF
:100C0000270014A8002108F0BFFA8CE714A80021DF
:100C10000AF026F91CE02020401F082809D8C04609
:100C200078440079400087444204041F48041F04AC
:100C3000040012980DF05CFC0860FFF78EFA14A80F
:100C4000002109F003FD03E014A8002108F09CFA3C
:100C50000DF04EFC086054980125294681430B98FD
:100C600008180B90FFF779FA1298C117059B04CB6F
:100C7000059310605160FFF770FA14A800210AF084
:100C8000C7FA08E014A800210AF0C2FA0BE014A881
:100C900000210AF0E5F80DF02BFC0880DBE714A832
:100CA00000210AF0DDF80DF023FC0870D3E712985C
:100CB0000DF01EFC0880FFF750FA12980DF018FC9A
:100CC0000870FFF74AFA0D9F19E00B9F17E00B9889
:100CD000002814D0074612E0002800D121460D4616
:100CE00008E0129809994140E043084302D1ED43DE
:100CF00000E00D9D0B98002800D005462F46384691
:100D000073B0F0BD054670A80DF03EFC681CF1D034
:100D100002E008980028EDD00025EBE7F01E010066
:100D2000603F000031B57C0700011C021D0E180356
:100D30001E16140F191104081F1B0D171513100789
:100D40001A0C12060B050A09F0B5C9B005460120B8
:100D50001590FE4928460BF0F3FE002840D0FE49CE
:100D600028460BF0EDFE002845D0FC4928460BF044
:100D7000E7FE00285BD0FA4928460BF0E1FE002888
:100D800000D19DE00020F74903E0C01C012A00D1FA
:100D9000C2E02A5C0B5C9A4200D097E0002A00D1A6
:100DA000BAE02A180B1856785C78A64200D08DE07D
:100DB0000446093C67426741002E159E00D03E461E
:100DC000002E00D0A8E092789B789A427ED104460B
:100DD000083C63426341002A159AD6D01A46D4E7EC
:100DE00005F048F80346E04A1AAD302128460CF0D9
:100DF000C9FE284658E305F03DF805460DF086F992
:100E0000002800D1A9E009F0A9FA002800D14DE39B
:100E1000D64ED74FD74CD8480CF0B2FD3AA8183070
:100E20001390E51C344600201490602630E205F053
:100E300021F805460DF06AF9002800D18DE009F08F
:100E40008DFA002800D131E3C84CCA48C51C0026E1
:100E50006027149602E07F1E00D10AE23C353AA9D1
:100E60003C22284607F068FD002800D11BE33AA881
:100E70000178A529EFD180790128ECD13AA84088E2
:100E80000028E8D03AA98A88002AE4D03C9BB849D7
:100E90005918A142DFD33D99424350008142DAD133
:100EA00058181430B34A9042D5D2012000030818D4
:100EB0001330B249084086191498401C1490CAE7B0
:100EC000AF480078012837D1AE48EDE20020AE49A6
:100ED00003E0C01C012A00D186E12A5C0B5C9A4227
:100EE00000D035E1002A00D17EE12A180B1856788F
:100EF0005C78A64200D02BE1002E00D174E19278FC
:100F00009B789A4200D023E1841F63426341002A08
:100F1000159ADED01A46DCE70B359C493AAA2846DA
:100F20000DF028F8012800D06CE13A98FE2800D98D
:100F300068E109F03FFCB9E204F09CFF05460DF0C2
:100F4000E5F8002809D009F009FA002800D1ADE23F
:100F50008848C61C002760200CE08D4A1AAE40214C
:100F600030462B460CF00EFE30469DE21498001FD2
:100F700000D121E3149030463C303AA93C252A4662
:100F800007F0DAFC002800D18DE23AA80178A52903
:100F900029D18079012826D13AA84088002822D07A
:100FA0003AA9898800291ED03C9A714BD3186F4CFE
:100FB000A34218D33D9B41434800834213D1D0182C
:100FC00014306C4988420ED238467F1CC0B245436B
:100FD000704844193AA92CC92CC42DC92DC42DC957
:100FE0002DC42DC92DC4304678303AA93C252A4657
:100FF00007F0A2FC002800D155E23AA80178A52903
:101000002AD18079012827D13AA84088002823D006
:101010003AA9898800291FD03C9A554BD318534CC4
:10102000A34219D33D9B41434800834214D1D018B9
:101030001430504988420FD2781C1390F8B24543BF
:10104000544840193AA92CC92CC0ACC9ACC0ACC991
:10105000ACC0ACC9ACC0139F3046B4303AA93C25F3
:101060002A4607F069FC002800D11CE23AA8017862
:10107000A52929D18079012826D13AA840880028BD
:1010800022D03AA9898800291ED03C9A384BD3181F
:10109000364CA34218D33D9B41434800834213D1B1
:1010A000D0181430334988420ED238467F1CC0B263
:1010B0004543384844193AA92CC92CC42DC92DC41C
:1010C0002DC92DC42DC92DC4F0363AA93C22304675
:1010D0000D9207F031FC002800D1E4E13AA8017834
:1010E000A52900D042E78079012800D03EE73AA840
:1010F0004088002800D139E73AA98988002900D121
:1011000034E73C9A1A4BD318184CA34200D22DE76F
:101110003D9B41434800834200D027E7D01814305C
:101120001449884200D321E77C1CF8B20D9948434A
:10113000184908183AA92CC92CC0ACC9ACC0ACC914
:10114000ACC0ACC9ACC0274610E7C0465C2C01005F
:101150000020114925E0C046FE2B0100102C0100A3
:10116000452B0100092B010074280100001081FFAC
:10117000000081FF01007F00B828010000F0FFFFA0
:10118000D5282020062A0100CC2B01001E2D0100AD
:101190009825010000002020F7290100C01C012A29
:1011A00058D02A5C0B5C9A422ED1002A52D02A18C1
:1011B0000B1856785C78A64226D104460C3C674250
:1011C0006741002E159E00D03E46002E42D19278F7
:1011D0009B789A4218D104460B3C63426341002A33
:1011E000159ADBD01A46D9E70935FC493AAA2846B0
:1011F0000CF0C0FE01283AD13A98FE2837D80AF000
:1012000083FF53E1F6484FE10020F64903E0C01C9C
:10121000012A00D184E12A5C0B5C9A4200D04EE1A5
:10122000002A00D17CE12A180B1856785C78A64277
:1012300000D044E1002E00D172E192789B789A426E
:1012400000D03CE1841F63426341002A159ADED03E
:101250001A46DCE70E35E1493AAA28460CF08AFE28
:10126000012804D13AA800780CF09CFE1EE1DE486B
:101270001AE1DE4B981B1499C9B2009601900291B5
:10128000DB4A1AAD6021B1E5DA4F361F00D110E11B
:1012900028463C303AA93C2207F04EFB002800D1FA
:1012A00001E13AA80178A52934D18079012831D10A
:1012B0003AA8408800282DD03AA98988002929D049
:1012C0003C9AD319A34225D33D9F0B4643435B0071
:1012D0009F421ED1D3191433C74CA34216D23AAB46
:1012E0005B7812933E9B139C009401AC83C40493DF
:1012F00005921AAF80213846C04A129B0CF042FC7E
:1013000038460CF03DFB1498401C1490B94FBC4C6F
:1013100000E0B84F284678303AA93C2207F00CFB91
:10132000002800D1BFE03AA80178A52934D18079FE
:10133000012831D13AA8408800282DD03AA98988BF
:10134000002929D03C9AD319A34225D33D9F0B46AF
:1013500043435B009F421ED1D3191433A64CA342D2
:1013600016D23AAB5B7812933E9B139C009401AC6F
:1013700083C4049305921AAF802138469F4A129B7A
:101380000CF000FC38460CF0FBFA1498401C14904A
:10139000984F9B4C00E0974F2846B4303AA93C2226
:1013A00007F0CAFA00287ED03AA80178A52934D1DE
:1013B0008079012831D13AA8408800282DD03AA957
:1013C0008988002929D03C9AD319A34225D33D9F6F
:1013D0000B4643435B009F421ED1D3191433864C06
:1013E000A34216D23AAB5B7812933E9B139C0094B7
:1013F00001AC83C4049305921AAF802138467F4A1A
:10140000129B0CF0BFFB38460CF0BAFA1498401C43
:101410001490784F7A4C00E0764FF0353AA93C2290
:10142000284607F089FA00283DD03AA80178A52976
:1014300000D02AE78079012800D026E73AA8408822
:10144000002800D121E73AA98988002900D11CE7AA
:101450003C9AD319A34200D217E73D9F0B46434362
:101460005B009F4200D00FE7D3191433624CA342B4
:1014700016D23AAB5B7812933E9B139C009401AC5E
:1014800083C4049305921AAF802138465B4A129BAD
:101490000CF078FB38460CF073FA1498401C14904A
:1014A000544F574CF1E657480CF06AFA159849B07A
:1014B000F0BD1498C3B2544A1AAD802196E40022BC
:1014C0005249149202E0D21C012B46D0AB5C885CDE
:1014D00083423FD11046093846424641002B1598B9
:1014E00000D03046002838D1AB188E185F7870785D
:1014F00087422FD11446083C60426041002F159F5F
:1015000000D00746002F28D19B78B078834221D1A4
:10151000D41F60426041002B159BD4D00346D2E714
:10152000093516A8029017A8019018A8009038490C
:101530001AAA19AB28460CF01DFD052826D119A8BA
:10154000028818A803881798169900900191FF2027
:101550001AA92EE014981590A8E70A3516A802904B
:1015600017A8019018A80090FB493AAA19AB284681
:101570000CF000FD3A9BFE2B01D8002100E0012178
:101580000528159800D10846012801D1F4488BE7B9
:10159000F24A1AAD102128460CF0F4FA3AA8007865
:1015A00019A90A8818A90B881799169C009101940B
:1015B000294602F095FE79E701200E90000307907E
:1015C000380600D1AEE1F9B21197B81E089000229A
:1015D000E5480C9010460A9127E0C0461E2D0100F8
:1015E000A72801009A2B0100CA29010000F07E0003
:1015F000A0240100000081FF01007F007023010092
:10160000001081FF432701004C260100502B0100F0
:10161000D02701000E98401C0E900C983C300C9086
:101620000A990B98884200D106E1421C0B928A422B
:10163000F0D20899091A0D9A5043CB4A1618CAB22B
:10164000AB2009925043400A03224243881A401CAF
:10165000C1B200220F92032900D00F900E9A149667
:1016600064D000240C9F0E9A04E0921CA41CE0B2EB
:10167000A8425BD07B6CB568AB421292109423D227
:101680003D463C351AAE33461397149F15CF15C30C
:1016900017CF17C317CF17C317CF17C314982946EF
:1016A0001CC91CC09CC99CC09CC99CC09CC99CC036
:1016B000139F109C07CE07C50FCE0FC50FCE0FC5C9
:1016C0000FCE0FC5129A149E01202043C0B20F996D
:1016D000CDB2A84229D0802038587837B1688842E6
:1016E000C3D21AAB1846314654C954C01397D4C953
:1016F000D4C0D4C9D4C0D4C9D4C01498139954C97F
:1017000054C0D4C9D4C0D4C9D4C0D4C9D4C0139F80
:10171000384616CB16C056CB56C056CB56C056CB05
:1017200056C0109C129A149E9FE7521C09980228DA
:1017300000D26FE70D9850438B490F18D01C08E07A
:10174000B437D0B21199C9B2D21C8142104600D12F
:1017500060E71290B868B268904213971ED21AA838
:1017600032460346B0CAB0C3B2CAB2C3B2CAB2C3E9
:10177000B2CAB2C33146139A38CA38C1B8CAB8C15E
:10178000B8CAB8C1B8CAB8C1139F39461CC81CC171
:101790003CC83CC13CC83CC13CC83CC1786CB16849
:1017A000884220D238463C301AAA11463346B0CB84
:1017B000B0C1F0CBF0C1F0CBF0C1F0CBF0C11499C7
:1017C000034670CB70C1F0CBF0C1F0CBF0C1F0CBD1
:1017D000F0C1139F149E1ACA1AC03ACA3AC03ACA34
:1017E0003AC03ACA3AC080203858B1688842129A42
:1017F000A6D2384678301AAA3146134670C970C34B
:10180000F0C9F0C3F0C9F0C3F0C9F0C3149903469E
:1018100070CB70C1F0CBF0C1F0CBF0C1F0CBF0C118
:10182000139F149E1ACA1AC03ACA3AC03ACA3AC09A
:101830003ACA3AC0129A83E74C4D4D480CF0A0F8D2
:101840000021494A0B46079E0D985843101884689A
:10185000C7681494A64253D0109013930F91129717
:101860003C46143444D03F48401EA519854257D801
:10187000002E55D00799149A8A4251D314996118B1
:1018800081424DD8AE4237461AD2384608F02EF87B
:10189000002845D007983F18AF4211D2384608F0CB
:1018A00025F800283CD007983F18AF4208D23846A8
:1018B00008F01CF8002833D007983F18AF42E4D353
:1018C0000025671BFF2F01D9012007021498281853
:1018D00028493A4607F030F8002821D0A8192549B0
:1018E0003A4605F0B7FA00281AD07D19A542E8D388
:1018F000109886600F99491C1C4D1B4A139B129F20
:101900000798C0191330284086191648401E864291
:101910001FD85B1C0A98834296D1CDB2079607E088
:101920001548C1E5119712480CF02AF800250A95D0
:101930001198C0B207F038FB002808D00A98009030
:10194000079801900F4A1AAE6021FFF709FB0C4877
:10195000AAE50A48A8E5C04663280100AB2C0100AF
:10196000152A010001007F000000202000F0FFFF89
:10197000BF260100802220201727010064260100D5
:101980000C290100FD240100F0B5CFB00248007819
:10199000012803D000F060FDCA2820204CA80BF0DD
:1019A0000FFA002801D100F057FD01201B904C9840
:1019B000FB4C099021460BF039F806464D980A90E9
:1019C00021460BF033F805464E98F6490B900BF084
:1019D0002DF80446304607F0B1FD1390304608F06C
:1019E0006DF81290284607F0A9FD1590284608F0DA
:1019F00065F81490204607F0A1FD0546204608F042
:101A00005DF807461090002428460D9521460AF0FF
:101A100098F80646384621460BF008F831460AF099
:101A200090F81690139821460BF000F806460E9099
:101A3000284621460AF0FAFF119031460AF081F853
:101A40000746109E3046129D29460AF0EFFF3946A0
:101A50000AF077F81A901B98C707284639460AF00B
:101A6000E5FF0146089011980AF06BF8199030468E
:101A7000139D29460AF0DAFF19990AF062F81990C5
:101A8000284621460AF05DF80646129D2846214662
:101A90000C940AF0CBFF31460AF053F81790204619
:101AA00029460AF049F801460E9E30460AF049F8E8
:101AB00018902046109C21460AF03EF801461198E5
:101AC0000AF03FF80F90204639460AF0AFFF05466E
:101AD00031460AF036F806460D9C204612990AF067
:101AE000A5FF31460AF02DF80E90284608990AF015
:101AF00028F80546204613990AF098FF29460AF06F
:101B000020F81090149E304639460AF08FFF0546A3
:101B1000159816990AF08AFF29460AF012F8054628
:101B20000F980C9C21460AF081FF0D9029460AF07F
:101B300008F81390179831460AF078FF0546159E6D
:101B400030461A990AF072FF294609F0F5FF05465A
:101B50000E9821460AF06AFF0890294609F0F1FF25
:101B60001290189814990AF061FF054630461999A9
:101B70000AF05CFF294609F0DFFF0646109821466F
:101B80000AF054FF0790314609F0DBFF1190159DD4
:101B9000284621460AF04AFF0646149C204616991C
:101BA0000AF044FF314609F0CCFF01460D9809F0D8
:101BB000C8FF0D90284617990AF038FF06462046C0
:101BC0001A990AF033FF314609F0BBFF0146089825
:101BD00009F0B7FF0890284618990AF027FF064633
:101BE000204619990AF022FF314609F0AAFF014662
:101BF000079809F0A6FF159016980C9C21460AF04C
:101C000015FF214609F09DFF01460F9809F099FF45
:101C100006461490179821460AF008FF05461A98C0
:101C200021460AF003FF294609F08BFF01460E9872
:101C300009F087FF1790189821460AF0F7FE05462D
:101C4000199821460AF0F2FE294609F07AFF01466A
:101C5000109809F076FF16900D9821460AF0E6FEDE
:101C600005460F90139821460AF0E0FE1090294691
:101C700009F067FF0146304609F063FF1A90089E9D
:101C8000304621460AF0D2FE05460E9012982146B3
:101C90000AF0CCFE0690294609F053FF014617983A
:101CA00009F04FFF1890159821460AF0BFFE05462F
:101CB0000790119821460AF0B9FE0590294609F0CF
:101CC00040FF0146169809F03CFF199010980D99B5
:101CD00009F037FF0546149821460AF0A7FE0D903B
:101CE000294609F02EFF14900698314609F029FF85
:101CF0000646179821460AF099FE1790314609F0DA
:101D000020FF10900598159909F01BFF05461698BD
:101D100021460AF08BFE0646294609F012FF15906F
:101D20000F98139909F008FF01460D9809F009FF73
:101D300004460E98129909F0FFFE0146179809F023
:101D400000FF05460798119909F0F6FE0146304656
:101D500009F0F7FE024614480178012911920F9507
:101D600036D1124800680E9011480068169011484C
:101D700000680890104800680D90104801681048ED
:101D8000006807900F48006812900F48006817908D
:101D90000E4800680C9026462846154644E0C0468A
:101DA00035FA8EBC35FA8E3CBE282020A027202094
:101DB000AC272020B8272020A4272020B0272020CF
:101DC000BC272020A8272020B4272020C02720209F
:101DD00065491A9808606549189808606449199B14
:101DE0000B6064491498086063492646109C0C6097
:101DF0006249159A0A6062490E6062490D60624943
:101E0000119808601B99614D29700C900546179236
:101E100012930F9A0792214618980D9008961498DD
:101E200016901A980E90104605910AF0FFFD044690
:101E30000696304616990AF0F9FD214609F081FE12
:101E40000446284617990AF0F1FD214609F079FE6B
:101E500005464F4C21460BF076FC13907F20C605BB
:101E6000284631460BF08AFC002800D12E461398F4
:101E7000002800D13446204608F04EFD139007F0AC
:101E80005DFBB84343490BF079FC002800D185E0A5
:101E90000F9D284607990AF0C9FD0446069E304664
:101EA00008990AF0C3FD214609F04BFE0446119F34
:101EB00038460C990AF0BAFD214609F042FE0C9012
:101EC00028460D990AF0B2FD044630460E990AF0F4
:101ED000ADFD214609F035FE0446384612990AF058
:101EE000A5FD214609F02DFE12901098059F394658
:101EF0000AF09CFD05461498169C21460AF096FDB2
:101F0000294609F01EFE05461598179E31460AF02F
:101F10008DFD294609F015FE0546189839460AF048
:101F200085FD07461A9821460AF080FD394609F0DA
:101F300008FE0746199831460AF078FD394609F03F
:101F400000FE07461B98C607129870400C9909F0CE
:101F500085FA1A9077403846294609F07FFA0E49EB
:101F60000AF064FD074649E0A0272020A42720208E
:101F7000A8272020AC272020B0272020B42720200D
:101F8000B8272020BC272020C0272020BE282020C2
:101F9000000080BF17B7D138E02E65C2189D2846D3
:101FA00007990AF043FD04461A9E304608990AF044
:101FB0003DFD214609F0C5FD044619980C990AF02B
:101FC00035FD214609F0BDFD044628460D990AF06D
:101FD0002DFD054630460E990AF028FD294609F0E8
:101FE000B0FD0546199812990AF020FD294609F01E
:101FF000A8FD0146204609F031FA1A90C949139804
:102000000AF014FD0446C8490BF0B8FB00281FD0A5
:10201000C64DC54E2046294609F093FD044631467B
:102020000BF0ACFB002813D02046294609F089FDAF
:10203000044631460BF0A2FB002809D02046294671
:1020400009F07FFD044631460BF098FB0028E1D1F2
:10205000B74920460BF077FB00281FD0B54DB44E92
:102060002046294609F06DFD044631460BF06BFB16
:10207000002813D02046294609F063FD0446314666
:102080000BF061FB002809D02046294609F059FDD4
:10209000044631460BF057FB0028E1D1EF493846A2
:1020A0000BF06CFB00281FD0ED4DEC4E3846294656
:1020B00009F047FD074631460BF060FB002813D0BE
:1020C0003846294609F03DFD074631460BF056FBE0
:1020D000002809D03846294609F033FD0746314625
:1020E0000BF04CFB0028E1D1DE4938460BF02BFB0E
:1020F00000281FD0DC4DDB4E3846294609F021FD73
:10210000074631460BF01FFB002813D038462946FE
:1021100009F017FD074631460BF015FB002809D0E2
:102120003846294609F00DFD074631460BF00BFBFA
:102130000028E1D1CD491A980AF078FC0546C74934
:102140000BF01CFB00281ED0C44E2846C44909F0E1
:10215000F8FC054631460BF011FB002813D0284649
:10216000BF4909F0EEFC054631460BF007FB00289D
:1021700009D02846BA4909F0E4FC054631460BF07F
:10218000FDFA0028E1D1B74928460BF0DCFA002817
:102190001ED0B44E2846B44909F0D3FC054631465A
:1021A0000BF0D1FA002813D02846AF4909F0C9FC3A
:1021B000054631460BF0C7FA002809D02846AA493F
:1021C00009F0BFFC054631460BF0BDFA0028E1D10D
:1021D000A7480178002900D1AEE0A648016828464A
:1021E0001A9109F0A9FC05469C490BF0C7FA002892
:1021F0001ED09A4E28469A4909F0A3FC054631465E
:102200000BF0BCFA002813D02846954909F099FC38
:10221000054631460BF0B2FA002809D0284690490D
:1022200009F08FFC054631460BF0A8FA0028E1D1F1
:102230008C4928460BF087FA00281ED0894E284684
:10224000894909F07EFC054631460BF07CFA0028EE
:1022500013D02846844909F074FC054631460BF03A
:1022600072FA002809D028467F4909F06AFC054621
:1022700031460BF068FA0028E1D17F4928460AF080
:10228000D5FB1A9909F05DFC054674490BF076FA06
:1022900000281ED0714E2846714909F052FC0546AF
:1022A00031460BF06BFA002813D028466C4909F030
:1022B00048FC054631460BF061FA002809D0284653
:1022C000674909F03EFC054631460BF057FA0028F5
:1022D000E1D1644928460BF036FA00281ED0614E41
:1022E0002846614909F02DFC054631460BF02BFAD2
:1022F000002813D028465C4909F023FC05463146E6
:102300000BF021FA002809D02846574909F019FC9A
:10231000054631460BF017FA0028E1D15548056013
:102320001B990DE0E02E65C2000034430000B4C3E9
:10233000000034C30000B4434E490D601B99017086
:102340004E4805604E480170002120461B910BF05D
:102350000CFA06464B4920460AF068FB3F21090665
:102360001A91BF210C06002E214600D01A9909F0BF
:10237000E8FB0BF067FD199038461B990BF0F5F957
:10238000064638463F490AF051FB002E214600D050
:102390001A9909F0D6FB0BF055FD189028461B99A9
:1023A0000BF0E3F90646284636490AF03FFB002EBB
:1023B000214600D01A9909F0C4FB0BF043FD179099
:1023C000099D28461B990BF0D0F9064628462D4951
:1023D0000AF02CFB002E214600D01A9909F0B1FB1F
:1023E0000BF030FD16900A9D28461B990BF0BDF9A5
:1023F0000746284623490AF019FB002F214600D042
:102400001A9909F09EFB0BF01DFD07460B9E304606
:102410001B990BF0AAF9054630461A490AF006FB4B
:10242000002D00D01A9C214609F08BFB0BF00AFD11
:1024300018990091179901911699029103970490A8
:10244000114A1CA8C021199B0BF09CFB401EBE2802
:1024500002D81CA80BF094FA4FB0F0BD0000344332
:102460000000B4C3000034C30000B443E02E654252
:10247000C7282020E82720206666E63EC8272020BF
:10248000C12820200000C842DA220100F0B5FFB0C8
:102490008EB0049306920646929802900025E84377
:1024A00005908C91346820460BF0B4FF21188B9571
:1024B00003918C4200D3BCE00020879087A9087369
:1024C0008890059889902F46049D2078002800D197
:1024D000B2E0252805D0641C34600699A8477F1C0B
:1024E000F3E78B97601C306087AC2046314600F0E4
:1024F000BBF88CAA2046314600F0D7F83068017846
:102500000B46683B0122D341092B2BD87B441B7916
:102510005B009F4404130A272727162727194378AF
:102520008799682B19D1520204E0437887996C2B64
:1025300010D1120211438791801C12E08799D202B8
:1025400004E08799520301E0879912030A438792B6
:10255000401C06E0401C402201E0401C20221143A8
:1025600087910178441C346087A80173732913D0C4
:102570006E291DD1879832490840411E02464A40C3
:102580008A423CD900282DD0414201402D48414388
:10259000C80E2DA1085C26E087A80078400619D453
:1025A000009587A88CAA8BAB069900F03DF92AE02C
:1025B00007AD87A98CAA284600F08CF90246284668
:1025C0000699029B9847411C059D00D0C5198B9523
:1025D00003991AE0009587A88CAA8BAB069900F0A6
:1025E000C0F810E02020401F082808D8784400795F
:1025F000400087441904040D14040D0404008C9851
:1026000002C88C900F6003998B9D681C13D050E713
:10261000F8178C9904C98C9117605060F3E78C9877
:1026200002C88C900F70EEE78C9802C88C900F80D7
:10263000E9E72F4600E0059F38467FB00EB0F0BDB9
:10264000603F000031B57C0700011C021D0E18031D
:102650001E16140F191104081F1B0D171513100750
:102660001A0C12060B050A0910B50A680124E307C3
:102670001AD01378302B0CD0232B0ED02B2B0AD052
:102680002D2B04D00024202BF1D1042306E00123BC
:1026900004E0102302E0022300E0082304681C4346
:1026A0000460521C0A60E1E710BDFEB516460D46F7
:1026B0000446086802782A2A10D13068011D31606A
:1026C00000686060002805D54042606020680121F4
:1026D000014321602868471C2F6017E00021303A31
:1026E000092A08D84218531C2B60435C6F467B5460
:1026F0005278491CF3E76A4600235354127847186E
:10270000002A03D068460BF0A5FA606038782E28BE
:1027100026D1781C286079782A2908D13068011DD3
:1027200031600068A0602868401C2860FEBD002061
:102730003039092908D839188A1C2A604A786B462A
:102740001A548978401CF3E76A4600211154107826
:10275000002804D068460BF07DFAA060FEBDA160A1
:10276000FEBDF0B587B01E460C9F13681C1D14609B
:102770001D68002D3AD0049106908468002C04D482
:1027800028460BF037FE844203D328460BF032FE76
:10279000044606984068A042039000DC20460146AB
:1027A00030680191401805940399A1420296306067
:1027B0000EDD06980078C0070AD1059801990E1A17
:1027C0000024B44204DA20200499B847641CF8E7D6
:1027D0000026049C069805998E420ADA2868010AA8
:1027E00018D12D1D2146B847761CF3E70020B847C5
:1027F00018E00599039A8A4214DD0078C00711D0C9
:102800000198451A0024AC420CDA20200499B847FC
:10281000641CF8E70020C043029908600BF080FEBA
:102820005821016007B0F0BDF0B585B00C460646F2
:102830000A9D1068011D116000680490002844D0B2
:102840000393B768002F04D404980BF0E3FD87428C
:1028500003D304980BF0DEFD074602967268BA4275
:10286000114600DC3946039B18680091401801921C
:10287000BA4218600FDD02980078C0070BD10098AB
:10288000C01B039000260398864204DA20202146CC
:10289000A847761CF7E70026BE4205DA0498805D5B
:1028A0002146A847761CF7E70198B84210DD029848
:1028B0000078C0070CD00098C61B0027B74207DA83
:1028C00020202146A8477F1CF8E700202146A84782
:1028D00005B0F0BDF0B589B005920E4604467F20E4
:1028E000800027184868039000250795FF21049170
:1028F000FE312022204601920BF0B2FC30460897B0
:1029000002977D70367B31466339152906903DD894
:1029100001228A40604B1A42069822D007A908AAD1
:10292000059B00F0BDF806980025067B012731467F
:102930006F390929059504D801228A4057490A426E
:102940003FD1582E3DD0016802230B40079A002A40
:1029500027D008994A1E08922D220A705F425F41D3
:102960002FE0002912D1059B1A68111D1960126809
:10297000D1B24D424D410499FC3161180891029940
:102980000A70026802218A430260CEE7252E02D037
:10299000582EC3D0CAE70020607025202070012087
:1029A00078E0002B07D149070BD5089A511E0891F2
:1029B0000199117005E0089A511E08912B211170A0
:1029C0000027039903976518089B0178C9072646D5
:1029D00008D10299491CC91A42689142264601DC75
:1029E000691A4E1C591C04984300002730463A4689
:1029F0000BF0B0FB08900599002903D0411C089109
:102A0000077000E00146A94206D8481E691A491C11
:102A100020220BF025FC2F7006980078C00606D403
:102A2000311B202220460BF01BFC059D2EE0A64208
:102A3000059D2BD0311B302720463A460BF010FC69
:102A4000069B07984142414103980140012905D165
:102A50001878400702D43046214604E03078611CE3
:102A60002070701C37701A7B412A0CD0582A05D070
:102A7000612A08D0782A01D0702A07D11B781B0759
:102A800001D4612A02D142784A70477020460BF087
:102A9000C1FC401909B0F0BD4230240043020000DF
:102AA000F8B514460F4605468068002804D4286807
:102AB00010218843286001E00120A860287B1026AF
:102AC000582808D0782806D0702804D06F2801D163
:102AD000082600E00A262846194600F055F8AA689C
:102AE000002A09D102460A4306D12878000749D5B1
:102AF0002B7B0020024612E02B7B642B03D1642346
:102B0000002905D40AE0692B08D1002906D56923DC
:102B100001223A60002240428A4100E00A460094C5
:102B20001146324600F0CEF8A968884206DA401C09
:102B300021684A1E226030220A70F5E7287B582857
:102B400003D0782801D070280FD1297809070CD537
:102B5000702800D1782021684A1E22600870206801
:102B6000411E216030210170287B6F280AD128780E
:102B7000000707D520684178302903D0411E216025
:102B800030210170F8BDC04610B5037B702B05D114
:102B90000868021D0A60006800227BE002683E4867
:102BA0001040421E04465440944216D9002807D0D3
:102BB0004242024039485043C00E39A2105C00E046
:102BC0002020401F082808D8784400794000874416
:102BD0004C04041E38041E04040000221846643805
:102BE00014280DD801248440354804420AD12120FC
:102BF000044205D00868021D0A600068C21749E057
:102C0000582B46D10868031D0B60006842E0184647
:102C10006438142807D8012282402948024206D18C
:102C20002120024203D10020582B024632D10868ED
:102C3000C21D0720824310460830086010685268A1
:102C400028E0002218466438142807D8012484405C
:102C50001B48044204D121200442CBD1582B18D167
:102C60000868031D0B60007814E0002218466438E1
:102C7000142807D8012484401148044204D121209B
:102C80000442B7D1582B04D10868031D0B6000889B
:102C900000E01046114610BD603F000031B57C07D2
:102CA00000011C021D0E18031E16140F1911040832
:102CB0001F1B0D17151310071A0C12060B050A0916
:102CC00000081200FEB501920D460646582B01D0B1
:102CD000174800E0154800900898029030462843B5
:102CE00005D1029A1068411E116030210170019CCB
:102CF0003046284313D030462946224600F01AF8C1
:102D000007460D4622460BF013FA301A0099085C6C
:102D1000029B19684A1E1A6008703E46E8E702984E
:102D200000680BF077FB401EFEBDC0465228010034
:102D30008528010080B5102A06D0082A09D1C008CC
:102D40004A078018C90880BD00090A0780180909C8
:102D500080BD002904D111460AF0BEFF002180BDCC
:102D600000230BF0F9FA80BDF0B59DB0094F38781B
:102D7000042800D982E2810001A251588F46C04642
:102D8000992D00009F2E0000093100007D320000C7
:102D90008B340000E52820200024009405208601C3
:102DA000AA23204621463246089302F019FE3546F2
:102DB0008F3500951A23204621460B96324602F0A5
:102DC0000FFE102000950A9001900294C24A08203C
:102DD0000421C24B07900AF0F9FDC14800781F2674
:102DE0000028354600D025460095BC4F00D0BD4F89
:102DF0002021382320460B9A059302F0F1FD00951F
:102E00000A9801900294B84A0C20242109903B466C
:102E10000AF0DCFDB24F38780128069600D026462D
:102E20000096AE4D00D0AF4D5023204605990B9A29
:102E3000059302F0D5FD00960A9801900294AB4AE2
:102E40003C2109982B460AF0C1FD387802280698E3
:102E500000D0204607460090A04D00D0A14D682329
:102E6000204605990B9E324602F0BAFD00970A9F54
:102E7000019702949E4A542109982B460AF0A6FD18
:102E80009C4D0095982120463246089B02F0A8FDF3
:102E9000009501970294984A9A210798F0E205203C
:102EA000860107F0B9F80B9000240094AA2320466D
:102EB0002146324602F094FD35468F3500951A239F
:102EC00020462146324602F08BFD10200095054633
:102ED00001900294894A08200421804B0AF076FD73
:102EE0000B99002900D1D9E206950A96844800780A
:102EF000884202D3481E824A1070C0B2001F089058
:102F00007C4D00D208940CA80C3007906826022251
:102F10000BE031461839002000900A9A334602F03F
:102F20005FFD4836099AD21C0B9908980992171828
:102F3000B81EC4B28C421BD20CA9204608F01CFD5E
:102F4000002815D00CA8037841888088079A009241
:102F50000191029013AD282128466A4A0AF012FE18
:102F600067480178002004918C4256D0024655E013
:102F7000314648393346303B002000900A9A02F02F
:102F80002FFD781EC4B20B9884421BD20CA9204698
:102F900008F0F2FC002815D00CA80378418880883E
:102FA000079A00920191029013AD28212846554AB4
:102FB0000AF0E8FD52480178002004918C424CD080
:102FC00002464BE0314630393346183B0020009032
:102FD0000A9A02F005FDB02E00D142E2FCB20B9835
:102FE000844296D20CA9204608F0C6FC002890D056
:102FF0000CA8037841888088079A0092019102907A
:1030000013AD282128463F4A0AF0BCFD3C4807780A
:103010000020BC4241D0034640E01F2231464839DF
:103020003346303B059200920A9A02F0D9FC287888
:103030000028304DA5D004988442284B069A00D031
:10304000284B314644390020059C0094019202909F
:103050000C2013AA0AF0BAFC93E71F22314630393C
:103060003346183B059200920A9A02F0B9FC287880
:103070000028204DAFD004988442184B069A00D007
:10308000184B31462C390020059C00940192029087
:103090000C2013AA0AF09AFC9DE71F230A9A3146D6
:1030A000183905930093334602F09AFC28780028DB
:1030B000104D00D135E7BC42084B069A00D0094BB1
:1030C000314614390020059C0094019202900C2096
:1030D00013AA0AF07BFC24E7192C0100FFFF000073
:1030E000D628202018C60000D62B0100332A010064
:1030F0003C29010030840000C9280100D22C0100C5
:10310000C62820206C290100E34E052080010B9089
:103110000CA80BF0D7F8FD48007802281BD000243B
:103120000094AA23204621460B9F3A4602F058FC01
:103130003D468F3500951A23204621463A4602F037
:103140004FFC1020009501900294F44A08200421BD
:1031500033460AF03BFCF24D0C9B0D980090F14A6F
:1031600013AC282120460AF00DFD002600962021F0
:10317000382330460B9A02F033FC2078002809D01F
:1031800010200096019002960C20242113AA2B46B1
:103190000AF01CFC0BF058F905460BF05BF90090A7
:1031A000E14A13AC282120462B460AF0EBFC00969E
:1031B0003821502330460B9A02F012FC2078002868
:1031C00009D010200096019002960C203C2113AAF1
:1031D000D34B0AF0FBFB0BF0FDF805460BF0F2F8C1
:1031E0000090D24A13AC282120462B460AF0CAFC94
:1031F00000965021682330460B9A02F0F1FB2078AC
:103200000028C74B08D010200096019002960C2091
:10321000542113AA0AF0DAFB0096682180230A934E
:1032200030460B9F3A4602F0DBFB102400960194D7
:103230000296BF4A0C256C212846B94B0AF0C6FB02
:1032400000963A46982730460A993B4602F0C8FB5A
:10325000009601940296B74A84212846B04B0AF0A2
:10326000B5FBB54D0095AA23304639460B9A02F0BE
:10327000B7FB009501940296B04AFFE00527BC0118
:1032800000260096AA2330463146224602F0A8FBCB
:1032900025468F3500951A23304631460B94224639
:1032A00002F09EFB10200095079001900296A74A1D
:1032B00008200421974B0AF089FBA54800780628CE
:1032C00002D3A34807703846001F099000D2099620
:1032D000682602210AE031461839002000900B9A36
:1032E000334602F07DFB48360A99C91C09980D182F
:1032F000A81EC4B2052C0A9108D8089594480078F5
:103300000025049084420BD028460AE03146483913
:103310003346303B002000900B9A02F061FB23E023
:103320001F20E1008B4A5758314648393346303B1D
:103330000690009028460B9A02F052FB05973878C9
:103340000028089D10D004988442724B00D0744B22
:10335000314644390020069A0092079A0192029061
:103360000C20059A0AF032FB681EC4B2062C07D264
:10337000774800780027069084420BD038460AE050
:10338000314630393346183B002000900B9A02F04A
:1033900027FB22E01F20E1006E4A525831463039A7
:1033A0003346183B08900090384617460B9A02F0B7
:1033B00017FB3878002810D006988442554B00D06F
:1033C000574B31462C390020089A0092079A0192F7
:1033D00002900C203A460AF0F9FAB02E2BD0ECB24B
:1033E000062C00D377E75A4805780020AC4201D07C
:1033F000034600E01F23E100564A5758314618396A
:10340000089300930B9A334602F0EAFA38780028C2
:1034100000D168E7AC423F4B00D0414B31461439F4
:103420000020089A0092079A019202900C203A46D6
:103430000AF0CCFA57E7484E3078002800D1474EC2
:103440003D4C009400279821AA2338460B9A02F09D
:10345000C7FA009407980190029708209A213246F3
:103460000EE0009500249821AA2320460A9A02F033
:10347000B7FA0095069801900294314A08209A21E3
:10348000244B0AF0A3FA224F3878234908703448B5
:10349000012101701DB0F0BDFFFF00000024009469
:1034A000202138200B90204632460B9B02F098FAE0
:1034B000009401950294234A0C200A902421184B71
:1034C0000AF084FA0094502320460B99324602F009
:1034D00087FA0094019502941B4A3C210A98104BEC
:1034E0000AF074FA144800909821AA232046324624
:1034F00002F076FA10480090019502940F4A0820D5
:103500009A21044B0AF062FABEE7C046E628202062
:10351000E5282020FFFF0000E6282020B92C01002C
:1035200018C60000F12A0100EB280100BD270100A8
:103530005C290100CB2A010030840000002D01002D
:103540001C290100EA2B0100E32701003C2C0100AB
:10355000C32820207024010028272020512A0100A0
:10356000E4282020F0B5C9B0044602E0092808D1BB
:10357000641C20781F28F9DD2028F9D03E28F7D0D8
:1035800003E0002801D122462CE0651C28460AF001
:10359000F2FD421C2918824201D20A4622E020187C
:1035A00003E0C91EC01EA34215D90278202A01D00B
:1035B000092A10D1A04210D9421E1378202B01D025
:1035C000092B0ED1A2420AD9831E1D78202DE8D0E6
:1035D000092DE6D006E0421C04E0024602E08A1E05
:1035E00000E04A1E002515702178002922D02046CF
:1035F00004E0C21CC178002910461BD00A46613A7B
:10360000D2B2192A01D8203901704178002911D08D
:103610000A46613AD2B2192A01D82039417081781C
:10362000002907D00A46613AD2B2192AE1D82039D6
:103630008170DEE720784C285DD1607854285AD11B
:10364000A078552857D1E078522854D120794E28B7
:1036500051D1607920284ED1A01DF74908AA0AF05F
:1036600089FC012800D08EE2F44D2878002849D149
:10367000F34F3868F3490968401A43D409A80AF09F
:1036800021FEF148002404700AF0DAF8EF480460E3
:10369000EF48046001262E7038687D21090140182A
:1036A0006438E8490860089D284621460AF05DF81C
:1036B0000028304600D1E043E6490860284621460C
:1036C0000AF041F8002801D0F0074540E2480560C3
:1036D000E2480AF0F7FCE24908700998E1490860FD
:1036E0000A98E1490860E1480AF0BAFEE0480AF0A9
:1036F000B7FEE04869E2D24F3968204608F03AFF49
:10370000002801D049B0F0BD06A80AF0DBFD0699FB
:10371000079A204602F0CEFF002806D0CB480021B1
:103720000160CB480160D4484FE22078502823D173
:103730006078492820D1A07844281DD1E07820283D
:103740001AD1201D05A90091CC4909AA08AB0AF09D
:1037500011FC032800D018E20999C448089A059B77
:103760000EC0C34C0EC40C3C0C380AF079FE204647
:103770000AF076FEC24828E22078422848D16078D4
:10378000412845D1A078532842D1E07845283FD13F
:10379000207920283CD1601D0025294603F0B2FE87
:1037A0000646B84C214609F0CEFF0490B64F30468D
:1037B000394609F0E3FF002800D137460498002875
:1037C00000D13C46A04805709C4805700AF038F8C6
:1037D0009E4804602046294609F0ACFF002809D025
:1037E0009B480560A1480AF03BFEA1480AF038FE5C
:1037F0000AF07AF80021204609F0B7FF0546F5499E
:10380000204609F013F9002D00D1C2E13F21C1E1AA
:1038100020784D2852D160784F284FD1A078542875
:103820004CD1E0784F2849D12079522846D160798F
:10383000202843D17D2000010890A01DFD4909AA40
:1038400008AB0AF097FB002800DCBDE1099D0024CD
:103850002846214609F077FF0490F84E2846314665
:1038600009F08CFF002800D12E46F7480499002962
:1038700000D1344609940899814200D90890DC4867
:1038800001210170DB480021017009F0D9FF09987E
:10389000DD490860DD4908600898002801D03968D2
:1038A0000818DB490860DB480AF0DAFDDA480AF05C
:1038B000D7FD089B0999E6480A4665E0207850281C
:1038C00066D16078572863D1A0784D2860D1E07820
:1038D00020285DD17D2000010590201D05A90091C3
:1038E000D74909AA08AB0AF045FB022800DA4EE1E5
:1038F000099E00243046214609F025FF0490CF4D53
:103900003046294609F03AFF0028284600D13046C3
:1039100004990029214600D101460991089E3046AC
:10392000214609F010FF04903046294609F026FF91
:10393000002800D13546C4480499002900D12C46FE
:1039400008940599814200D90590A9480121017088
:10395000A8480021017009F073FF0998AA4908607E
:103960000898AA4908600598002801D03968081805
:10397000A7490860A7480AF073FDA7480AF070FD40
:10398000059B089A0999B14808F0C2FF49B0F0BDFB
:10399000207850287AD16078552877D1A0784C28A3
:1039A00074D1E078532871D1207945286ED160799F
:1039B00020286BD1A01D9F4909AA08AB0AF0DAFAAA
:1039C000022800D0FCE07D200490099C2046294676
:1039D00009F0B9FE0390994E2046314609F0CEFE1B
:1039E000002800D12646049800010399002900D13F
:1039F000354609950899814200D908907C480121F3
:103A000001707C480021017009F01AFF09987E4975
:103A100008607E4908603868089908187C49086081
:103A20007C480AF01DFD7C480AF01AFD08990998A7
:103A300009F030FF49B0F0BD1B2D0100CB2820203C
:103A40002828202034282020D0282020902820201A
:103A50006C282020F027202000282020FC27202070
:103A6000CC282020F4272020F8272020E026202022
:103A700004272020662B01002D2B0100222C0100A1
:103A80002B2C0100000070C20000704220785128E9
:103A90001BD16078552818D1A078492815D1E07835
:103AA000452812D1207954280FD1607920280CD1D3
:103AB000A01D00210A2207F0D3F941424141584A92
:103AC000117000287ED05A487FE02078542819D100
:103AD0006078452816D1A0784C2813D1E078452885
:103AE00010D1207920280DD1601D00210A2207F075
:103AF000B7F9411E02468A4149490A7000285DD142
:103B0000494862E03449204609F01AF8002810D0EC
:103B10003249204609F014F8002828D030492046C0
:103B200009F00EF8002826D020460AF00BFA49B01A
:103B3000F0BD2F4805702F48057009F081FE2E4812
:103B400005602E4805602E4805602E4805602E4809
:103B500005602E4805602E4805602E480AF080FC5E
:103B60002D480AF07DFC09F0BFFE2C482DE006F040
:103B70006FF949B0F0BD0AF0B1FB1A4805601A4868
:103B800005601A4821E037481FE035481DE02D4800
:103B90001BE0BF21090607F0D4FF0AF053F900909B
:103BA00001902D4A2D4B0120010209A809F0EAFFDE
:103BB000401EFE2800D9A5E509A806E0194804E042
:103BC0001D4802E0194800E0224809F0D9FE49B03A
:103BD000F0BDC0460000C842FB2C0100052D0100CD
:103BE000442C010050282020542820208A2A01003B
:103BF000D0282020CB282020902820206C2820208E
:103C00003C28202044282020882820208C28202080
:103C100040282020E026202004272020A42B01007B
:103C2000D9282020FD2A0100E52A0100BE2A010032
:103C3000D82A01006C2C0100D41901000000AA420E
:103C4000F42B0100B82B010010270000092D010002
:103C5000C62C0100212B0100812701002323010034
:103C6000C22B0100152B0100F0B5FFB0A4B01E4619
:103C700002911090A8980A908000E9490D585C1EA6
:103C80001192D01E1821019109F0AEFDC117884391
:103C9000011B15910D952D190E9081001496B00001
:103CA0000F91081ADF494018061D002766ACAF4285
:103CB0000DDC1598C01903D430680AF089F901E0C9
:103CC0000020014603C47F1C0034361DEFE7149822
:103CD000C00066A94018083800230D9FBB4224DCB1
:103CE0001293002513900746109C2E4615951498A4
:103CF00086420FDA03CC0CCF083F083C0AF00CFCDC
:103D0000159A2B4606F065FA15900D46761C083478
:103D1000083FECE7129BD80016A90A18159C0C5016
:103D200055605B1C13980830D7E71720C0430E99E5
:103D30004843119941180846183809903020401A14
:103D400004902F200591401A03900F98B549081848
:103D50000F9016A8083808908FA8011FB800079187
:103D600008180690F80016A90A180B585268089906
:103D70000E188FA815900E97384601282ADB374673
:103D80000026139018461146129232461193A64B04
:103D90000AF0C2FB09F040FE0AF01AF904460D468B
:103DA00032463E46A14B0AF0B7FB119A129B06F031
:103DB00010FA09F031FE159901C1159103CF224681
:103DC0002B46083F06F005FA034613980A46401EA4
:103DD000083ED2E718461146099F3A4607F03EFED4
:103DE00005460E46FF2083050024284622460AF099
:103DF00093FB06F0EFFE0C9422468D4B0AF08CFBF1
:103E00002A46334606F0E5F904460D4609F004FE5D
:103E100006460AF0DDF802460B462046294606F023
:103E2000D3F90446012F15915FDB0E9880008FA90E
:103E30000818001F01680A46049B1A4196190B9640
:103E40009A40891A0160039801410D9E794D0C91A9
:103E500001295ADB139400248FA821460E9A91421F
:103E60000EDA0268002C2B4602D1002A06D06B1C09
:103E70009A1A02600124491C001DEFE70024FAE7AA
:103E8000099801280B996C4F10DB059819286B488D
:103E900003D005981A2809D169480E9989008FAA7C
:103EA0005118091F0A6802400A600B99491C0B91BE
:103EB0000C98022828D100203946139A159B06F049
:103EC00083F9054602200C90002C00D184E00020EC
:103ED0000C463946099A07F0C1FD02460B462846B2
:103EE000214606F071F9044610E00B96002FF54DBF
:103EF00069D020460C9AF44B09F009FC00280D9E6D
:103F000003D002200C90A5E7139C159900252046AC
:103F100027460C462A462B4609F0DEFB00285DD0DA
:103F20000E9CA000079909182246B24204DD521ED9
:103F30000B681D43091FF8E7002D0699224663D13F
:103F40000868521C091F0028FAD014980019C000F4
:103F500066A90D181192601C944232DA129080000A
:103F60000F9908580AF034F8149AA218D20066ABD8
:103F70009C1898506160002313952C46109F194699
:103F80001D461498814212DA3868159179682268C2
:103F90001E4663680AF0C0FA32462B4606F019F94D
:103FA00003460D461599491C0837083CE9E7129C61
:103FB000E00016A90A180B505560139D0835119A98
:103FC000C9E71746CEE60E9880008FA90818001F93
:103FD0000068C1150D9E3AE72C4697E70198059EAB
:103FE000821B3846214607F039FD05460C46002263
:103FF000B74B09F08CFB002824D12846214609F054
:104000000BFD06460E9C3AE08FA90818001F099A7E
:10401000183A641E0168001F0029F9D033E0C04639
:10402000FC280100E01D01000000703E000070C18E
:10403000000020C0FFFFFF000000F03FFFFF7F00F7
:10404000FFFF3F000027A34B284621463A460AF0CF
:1040500063FA09F0E1FC064609F0BAFF9E4B3A46C6
:104060000E9F0AF059FA2A46234606F0B2F809F0E4
:10407000D3FCB9008FAA50507C1C05980990A00071
:104080008FA90E50099A002090490F9007F0E6FC86
:104090000646A0008FAA1218E50016A81095471929
:1040A0000E94002C19D4159410680C46154609F08E
:1040B0008FFF02460B46304621460AF02DFA03C711
:1040C000002230462146834B083F0AF025FA064677
:1040D000159C641E2A1F083FE3E716A81099421892
:1040E0000E9F3B46002B0A990D982ED41293F91A75
:1040F0008842149000DB149111910023139217460B
:10410000764C19461D461498814212DC20681591A0
:1041100061683A681E467B680AF0FEF932462B4613
:1041200006F057F803460D461599491C0834083720
:10413000E9E71198C0003EA90A180B505560129B80
:104140005B1E139A083A0E9FCCE7481E02281FD325
:10415000002955D0032900D0AEE03EA810990C18D4
:10416000083C3846002859DD0AF0D0F802460F46D0
:104170002846314615463B4606F026F80AF08CF9EB
:10418000A0C40E9F206015986160401E103CE9E7B6
:10419000FE0000242546002F0CD43EA88119825928
:1041A0004B682046294606F014F804460D467F1E4B
:1041B000083EF0E701260C980028284601D0F007B9
:1041C000684002990C6048603E983F9922462B4611
:1041D00005F0FAFF3EAC08340E9DAE4206DC0CCC76
:1041E000083C05F0F6FF761C0834F6E70C9A002A26
:1041F00002D00122D2075140029A9060D1605BE068
:10420000F8003EA90C1800200146002F22D40CCC47
:10421000083C05F0DEFF7F1E083CF6E73EA810993B
:104220000C18083C384601281DDD0AF06FF80746D7
:104230000B46284631463A461D4605F0C5FF0AF0B2
:104240002BF927600E9F6560A0601598E160401E05
:10425000083CE8E70C9A002A02D00122D20751401C
:10426000029A03C228E00F980146022F0ADB3EAAF9
:10427000109C131912595B6805F0ABFF7F1E083CB8
:104280001094F2E706463F983E9A0C9B002B0CD008
:104290000123DB075840409C419D5D405940029BF3
:1042A0001A601A1D71C2596106E0409B419C029D33
:1042B0002A602A1D59C2696107210B9808407FB006
:1042C00024B0F0BDFFFFFF000000E03F0000F03F22
:1042D000000070410000703E000070C1B823010072
:1042E000F0B5FFB0DCB0E09D002D30D0002B2ED01B
:1042F000002A2CD0FC4C2478002C28D11C46544396
:104300006400A54223D1F94CF94F2E1913367F1EB4
:10431000BE421CD30A910B900892099301F0AAFDAA
:10432000064609F0F3FE002800D155E106F016F824
:1043300000280FD00B98FF2800D156E106F00EF8A8
:1043400000283AD0EB48C61C6027E84C07E0EA4852
:1043500009F016FB7FB05CB0F0BD7F1E2DD03C365F
:104360001BA93C22304604F0E7FA002825D01BA800
:104370000178A529F1D180790128EED11BA84088C8
:104380000028EAD01BA98A88002AE6D01D99D84BBC
:10439000CB18A342E1D31E9B424350008342DCD1A1
:1043A000C91814311BA8D34A9142D6D241780B9830
:1043B0008142D2D10B9806F0FDF9E198029028468F
:1043C00014300490CD490120039000030790281871
:1043D000133008400590C748C71C0020069060268F
:1043E00002E0361F00D144E138463C300CA93C22A3
:1043F00004F0A2FA002800D174E10CA80178A529E4
:104400002ED1807901282BD10CA84288002A27D0F0
:104410000CA88388002B23D00E98B5494118B34CC3
:10442000A1421DD30F9953435A00914218D142180B
:104430001432B04B9A4213D2069CE2B2D2000192DF
:104440001BAB019A9A180092019A9850079A51183A
:104450001331AA4A1140081800994860641C069458
:10446000384678300CA93C2204F066FA002800D1C6
:1044700038E10CA80178A5292ED1807901282BD10B
:104480000CA84288002A27D00CA88388002B23D0B0
:104490000E9897494118954CA1421DD30F9953434B
:1044A0005A00914218D142181432924B9A4213D2B8
:1044B000069CE2B2D20001921BAB019A9A180092BC
:1044C000019A9850079A51181331FC4A1140081864
:1044D00000994860641C06943846B4300CA93C220C
:1044E00004F02AFA002800D1FCE00CA80178A529E4
:1044F0002ED1807901282BD10CA84288002A27D000
:104500000CA88388002B23D00E98E8494118E64C6C
:10451000A1421DD30F9953435A00914218D142181A
:104520001432E44B9A4213D2069CE2B2D2000192BA
:104530001BAB019A9A180092019A9850079A511849
:104540001331DE4A1140081800994860641C069433
:10455000F0370CA93C22384604F0EEF9002800D1CF
:10456000C0E00CA80178A52900D03AE7807901289D
:1045700000D036E70CA84288002A00D131E70CA809
:104580008388002B00D12CE70E98C8494118C64CEF
:10459000A14200D225E70F9953435A00914200D01F
:1045A0001FE742181432C34B9A4200D319E7069C06
:1045B000E2B2D20001921BAB019A9A180092019AC2
:1045C0009850079A51181331BC4A114008180099A5
:1045D0004860641C069404E7B54A1BAC40212046A1
:1045E000334609F0CFFA2046B2E600200B90AE4CDD
:1045F00005F0B4FE002800D1DFE6AE48C61C6027F7
:1046000002E07F1E00D1D8E63C361BA93C22304692
:1046100004F092F9002800D1CFE61BA80178A52963
:10462000EFD180790128ECD11BA840880028E8D080
:104630001BA98A88002AE4D01D999C4BCB18A34261
:10464000DFD31E9B424350008342DAD1C918143194
:104650001BA8984A9142D4D241780B98C0B28142AB
:10466000CFD10B98411C80B2FE280B91C0D3924849
:104670006EE60798059908188E49884232D2069945
:10468000C9B20029079E3BD0CB001A46103A0693C8
:10469000083B079F3E46002403E018340699A142D8
:1046A0002ED01BAF3959814203D239194F68BE420F
:1046B00013D3A34224D01BAF3F19B968814202D261
:1046C000FF68BE4209D3A2421AD01BA90F1939694B
:1046D0008142E2D27F69BE42DFD20598381875491F
:1046E0008842D7D3764833E6D5282020001081FFB2
:1046F000000081FF01007F009628010000F0FFFF0D
:10470000704809F03DF904988419A6421DD2374635
:10471000384605F0EBF8002800D18BE007983F18E9
:10472000A74212D2384605F0E1F8002800D181E016
:1047300007983F18A74208D2384605F0D7F8002856
:1047400078D007983F18A742E2D31BAF0A983946A2
:1047500008F0EEFB5348039901705C490B98087010
:104760005B49089808805B49099808805A480560A9
:104770005A48029901605A48002404605948E143AC
:10478000016059480660143658480660584804606D
:104790003878584D2870002849D01BA84078687098
:1047A000002849D01BA88078A870002847D01BA8F3
:1047B000C078E870002845D01BA80079287100282F
:1047C00043D01BA840796871002841D01BA880798C
:1047D000A87100283FD01BA8C079E87100283DD0FF
:1047E0001BA8007A287200283CD01BA8407A687267
:1047F00000283BD01BA8807AA87200283AD01BA8BA
:10480000C07AE872002839D01BA8007B28730028E2
:1048100038D01BA8407B6873002837D01BA8807B4A
:10482000A873002836D01BA8C07BE87337E0681C4B
:104830000F2132E024488BE5A81C0E212DE0E81C56
:104840000D212AE0281D0C2127E0681D0B2124E002
:10485000A81D0A2121E0E81D09211EE02846083094
:1048600008211AE028460930072116E028460A30B8
:10487000062112E028460B3005210EE028460C30B8
:1048800004210AE028460D30032106E028460E30B8
:10489000022102E028460F30039909F0E8FCEC738E
:1048A000154855E5D5282020001081FF000081FF24
:1048B0009825010001007F002C29010000F0FFFF76
:1048C000F6270100AC2901009C290100C528202001
:1048D000B828202096272020DC272020D827202039
:1048E0005C28202064282020D42720209C282020F9
:1048F0006828202068272020D9290100F0B5B5B00C
:1049000009A80690E5480078012800D0E0E208A850
:1049100009F07CFA002800D1DAE2069820300690EF
:10492000DF4DE04CE04E05E008A809F06FFA0028E2
:1049300000D1CDE2089829684A1C2A60FE4B5854E1
:10494000FE4F39680B0A4840C0B28000FC49085845
:10495000584038602068401C2060012107910902FE
:104960008A4202D031688842DED1F64E3068F24980
:1049700002F070FA00284AD02868316808183060C0
:1049800000272F6023681DAE28213046EE4A09F02B
:10499000F9F83046E74E08F0F3FF216830688142AD
:1049A000C2D1E6490968CC43E8491891E84D298805
:1049B00018AA9180E7490988D18007991A911B901C
:1049C0001C94DB480770E4480068A04225D1E34806
:1049D000006818A9142202F03DFA00281FD00394A1
:1049E000DF48C41C3C341DA93C22204603F0A4FF30
:1049F000002807D01DA80078FF2800D12EE17F1CD9
:104A0000602FEFD1D648C41C002660270DE000209F
:104A1000C74908702860D34858E2D34856E2D348C3
:104A200054E2059F3F1F00D1FAE020463C301DA90B
:104A30003C252A4603F080FF002800D10CE11DA888
:104A40000178A5292FD1807901282CD11DA8408873
:104A5000002828D01DA98988002924D004961F9AEF
:104A6000C34BD318C34EB34201D2049E1BE0209B1C
:104A7000414348008342049E15D1D0181430B849F0
:104A8000884210D23046761CC0B24543BA4840191D
:104A90001DA92CC92CC00597ACC9ACC0ACC9ACC011
:104AA000ACC9ACC0059F204678301DA93C252A46DC
:104AB00003F042FF002800D1CEE01DA80178A5290F
:104AC0002ED1807901282BD11DA84088002827D01D
:104AD0001DA98988002923D005971F9AA44BD318B4
:104AE000A44FBB4201D2059F1AE0209B41434800DE
:104AF0008342059F14D1D0181430FC4988420FD24C
:104B0000701C0490F0B24543F94840191DA92CC906
:104B10002CC06CC96CC06CC96CC06CC96CC0049EE4
:104B20002046B4301DA93C252A4603F005FF002885
:104B300000D191E01DA80178A5292FD18079012805
:104B40002CD11DA84088002828D01DA989880029BB
:104B500024D004961F9AE44BD318E24EB34201D2FC
:104B6000049E1BE0209B414348008342049E15D1D4
:104B7000D0181430DD49884210D23046761CC0B2BD
:104B80004543DB4840191DA92CC92CC00597ACC969
:104B9000ACC0ACC9ACC0ACC9ACC0059FF0341DA959
:104BA0003C2520462A4603F0C7FE002854D01DA805
:104BB0000178A52900D035E78079012800D031E7B8
:104BC0001DA84088002800D12CE71DA9898800294C
:104BD00000D127E705971F9AC34BD318C14FBB429B
:104BE00000D21EE7209B414348008342059F00D02E
:104BF00018E7D0181430BD49884200D312E7701C62
:104C00000490F0B24543BA4840191DA92CC92CC0E4
:104C10006CC96CC06CC96CC06CC96CC0049E01E7E7
:104C2000F0B204F0C1F9002816D0B34808F0A8FE8D
:104C3000AE48C41C0027A74EA74D3C341DA93C22FA
:104C4000204603F079FE002806D01DA80078FF2832
:104C500004D07F1C602FF0D1A64837E109AC201D9D
:104C60003821FF2209F0FCFAA5202070A348007823
:104C700060702888608099480088A0800798A0719B
:104C8000974800680B9030680C9003980D909748F7
:104C9000C61C0020029060240CE0C046D5282020CD
:104CA000682820205C282020DC2720200F46059D36
:104CB000641E35D03C361DA93C2530462A4603F0FB
:104CC0003BFE00282CD01DA90A78A52AF0D18979AD
:104CD0000129EDD11DA94A88002AE9D005951DA911
:104CE0008D88002DE3D039461F9F7F4B0497FB181A
:104CF0007C4FBB42DAD3209B55436A0093420F4658
:104D0000D5D1229A02998A42059D00D8029A049927
:104D1000C9181431754B994200D3029A0292C7E721
:104D20002E4600282AD16B4D069C07982AE0C046E3
:104D3000D5282020DC272020802320206428202044
:104D4000E01901009C2820201C280100494D473013
:104D5000B828202096272020D8272020D4272020BC
:104D600001007F00A92601007C2A0100DA28010049
:104D7000000081FF001081FF000020200298401CED
:104D8000544D069C0E905E490A7809A80276002AC6
:104D900047D04A7809A84276002A45D08A7809A8DF
:104DA0008276002A43D0CA7809A8C276002A41D068
:104DB0000A7909A80277002A3FD04A7909A84277E0
:104DC000002A3DD08A7909A88277002A3BD0C87989
:104DD00009AAD077002839D0087A2070002838D066
:104DE000487A6070002837D0887AA070002836D0C2
:104DF000C87A069AD070002835D0087B069A1071C0
:104E0000002834D0487B069A5071002833D08A7B22
:104E1000069BD81D9A71002A31D0C97B0170069C6F
:104E200031E019300F212CE01A300E2129E01B301F
:104E30000D2126E01C300C2123E01D300B2120E049
:104E40001E300A211DE01F3009211AE008212046EA
:104E500017E0601C072114E0A01C062111E0069C4D
:104E6000E01C05210DE0069C201D042109E0069CA4
:104E7000601D032105E0069CA01D022101E0012127
:104E8000069C09F0F4F9F9B20020E0711D485F2991
:104E90001CD87F210F40324677431449CB193F334A
:104EA00009A90446184601F0D5FF0146204600290D
:104EB0000CD0124803782868009003980190124A99
:104EC0001DAC6021204608F05DFE204608F058FD2C
:104ED00035B0F0BDDC272020B828202096272020E0
:104EE000D4272020001081FF000081FF01007F00F7
:104EF000000020205827010092260100C52820200C
:104F0000682720200C29010051250100F0B589B047
:104F1000064607A809F0D6F90798D6490A68871AFD
:104F2000089AD54B1C68151BD44C266008601A6083
:104F3000D3480078012810D1D2480760D2480560D4
:104F4000D2480168002920D0711A1ED4D04900240B
:104F50000C60D0490C60046019E00495CE480468E8
:104F6000CE4805682046294608F0EDFB0028039648
:104F700023D07D20C105204606F0E3FD04462946E6
:104F800008F0FCFB002828D028E0C1480468C44E83
:104F900035682846214608F0D6FB002800D196E067
:104FA0003F200106284606F0CCFD0546214608F0C4
:104FB000E5FB002800D19BE09BE02046294608F055
:104FC000DDFB002809D0B749204606F0BAFD0446AB
:104FD000294608F0B8FB002800D125460295AE48C6
:104FE0000560B14D2C68384608F0D4FE214606F025
:104FF000A3FD7D21CF05394607F018FD214606F0B7
:10500000A0FD04462860A94E3568049808F0C2FE49
:10501000294606F091FD394607F008FD294606F0BD
:1050200090FD0746306000212046049108F09DFB6A
:1050300006469F49204607F0F9FC3F210A06BF219A
:105040000D06002E294600D01146019206F079FD8A
:1050500008F0F8FE04468B4804603846049908F0CE
:1050600084FB06463846924907F0E0FC002E00D04B
:10507000019D294606F065FD08F0E4FE82490860BE
:10508000201A8C490860029806900590039E3046CD
:1050900007F012FF029089480468894D2F7807981D
:1050A000089906AA05AB03F067FD012F38D1002847
:1050B00000D1C3E0FA4800210160FA480160FA48D3
:1050C00001607D48016008F00FFC09B0F0BD284682
:1050D000214608F053FB00280AD0BF2001062846CD
:1050E00006F02FFD0546214608F02DFB002800D1D3
:1050F0002C463460ED4F3E686648056830462946C8
:1051000008F021FB00285CD03F200106304606F065
:1051100018FD0646294608F031FB002862D062E0FF
:10512000341B002805D10798089906AA05AB03F09F
:1051300013F8002C00D5E4E00127039808F05EFF87
:1051400000210491002818D009F04CF900283846B5
:1051500000D12878C00710D1059C0698002108F0DE
:10516000E9FA002809D00021204608F0E3FA0028D7
:1051700003D0D248069005900497039808F0CAFE21
:10518000002800D02F78F80704D109F02BF9002867
:1051900000D197E0039808F031FF002800D1B0E07B
:1051A00009F020F9002800D0ABE00698C44C214655
:1051B00007F03CFC06900598214607F037FC0446B2
:1051C0009EE03046294608F0D9FA00280AD0BF20D0
:1051D0000106304606F0B5FC0646294608F0B3FA4B
:1051E000002800D135463D602046294606F0C2F928
:1051F000C0480068002108F09DFA002800D14CE169
:105200003C68BE480568BC480068002108F092FA76
:10521000002800D141E10021284608F08BFA00283F
:1052200000D13AE100252046294608F083FA0028FB
:1052300000D132E19E48057009B0F0BDAC48056868
:10524000684208F0A7FDA14E314607F0EFFB044687
:105250009F480460284608F09DFD314607F0E6FBB4
:1052600001469C4801609D480460A04801602046BA
:1052700011E1C04650282020542820202828202032
:10528000D028202004282020182820204028202052
:10529000882820208C2820206C282020902820205E
:1052A0003C282020000080BEE0272020E42720208A
:1052B0000000C842142820201C2820203428202048
:1052C000CB2820200699029C204606F03AFC069046
:1052D0000598214606F030FC059009F083F8002877
:1052E0000FD106980024214608F02DFA002801D09D
:1052F000002006900598214608F025FA002800D0E5
:105300000594069C6F4E2046314608F01CFA05466F
:105310006D4F2046394608F031FA0028384600D152
:105320002046002D344600D104460694059D2846AB
:10533000314608F008FA03902846394608F01EFA6C
:10534000002800D12F460398002800D13E4605963C
:105350000498002826D000252046294608F0F3F9B5
:1053600004905A4F2046394608F008FA002838467B
:1053700000D12046049900292C4600D10446069409
:105380003046294608F0DFF904903046394608F0E7
:10539000F5F9002800D137460498002800D13D4691
:1053A000059500E035464A4804604A480560414892
:1053B00002684948214606F0FBFE484F38603E48E7
:1053C00002680599464806F0F3FE04903D68069C85
:1053D00000262046314608F0ADF90028304624D199
:1053E000039500252046294608F0ADF9002801D193
:1053F000204602E00120C00760403A4907F016FB52
:105400004121090606F09DFB07462046294608F083
:10541000B5F9002804D00398394606F092FB03E062
:105420000398394606F088FB2C4F3860059F0446E8
:105430003846314608F07EF9002828D12546002458
:105440003846214608F07FF9002801D1384602E0AD
:105450000120C0077840234907F0E8FA41210906F6
:1054600006F06FFB204907F0E1FA06463846214670
:1054700008F084F9002804D00498314606F061FB56
:1054800003E00498314606F057FB06462C461748C1
:1054900006602046314606F06DF809B0F0BDC04602
:1054A0000C282020202820200828202044282020E4
:1054B000D0282020E0272020E427202000002041C1
:1054C0006666263F000070C2000070420000704116
:1054D0000C28202020282020E0262020082820201A
:1054E000042720203333333F8FC2753F1C282020F0
:1054F000F0272020882820208C2820203C282020CD
:10550000F0B597B0109316461D9C6308DA1DD508B8
:1055100065431393C218521E0B195B1E11900E9116
:1055200006F0F0FC002D00D17CE10C3CE0B2A101C2
:1055300080080818C2B2052A00D973E1012015902D
:1055400090402B21084200D16CE109921C980D90EB
:10555000203EF0B2810116913027474306010C240A
:105560004443681E032108F0B7FB491C0020059046
:105570000329049101D1059804901E98149016985F
:10558000EC4A10180390EC48C0190690EB488019BB
:105590000790EB48001908901098000A0F900D989A
:1055A000000A0C90159880031690032D05D2119EC9
:1055B00005980A901290099944E101910498281ADB
:1055C00002900020119E0A901290139C09990BE002
:1055D0000E98401C0E90119E0A98C01C0A900299C9
:1055E0008842099900D11AE10029089806D00329B8
:1055F000069803D00129079800D003980A99405CC7
:105600000B90002718E0C0B208F00EFEF348169C7D
:1056100004600461E8B208F007FEF04804601298E4
:10562000401C1290C0B2139C214608F055FB002983
:1056300036D07F1C082F35D01598B8400B990840FC
:10564000149900291CD0002814D030460E993246F7
:105650000B4606F057FCE14C169D25610F98C0B231
:1056600008F0E2FD256025611098C0B208F0DCFD6D
:105670002560139C761C1198301AA042D9D10AE0FB
:10568000D649169A0A6100280C9800D00F980D9DF3
:10569000B9D0109DB7E70E98401C0E90119E01E006
:1056A0000020129009990029089806D0012907982E
:1056B00003D00329069800D003980A99401840782F
:1056C0000B90002718E0C0B208F0AEFDC348169C4E
:1056D00004600461E8B208F0A7FDC04804601298B5
:1056E000401C1290C0B2139C214608F0F5FA002924
:1056F00036D07F1C082F35D01598B8400B9908403C
:10570000149900291CD0002814D030460E99324636
:105710000B4606F0F7FBB14C169D25610F98C0B201
:1057200008F082FD256025611098C0B208F07CFD6C
:105730002560139C761C1198301AA042D9D10AE03A
:10574000A649169A0A6100280C9800D00F980D9D62
:10575000B9D0109DB7E70E98401C0E90119E01E045
:105760000020129009990029089806D0012907986D
:1057700003D00329069800D003980A99401880782E
:105780000B90002719E0C0B208F04EFD9348169C1C
:1057900004600461E8B208F047FD90480460129884
:1057A000401C1290C0B2139C214608F095FA0029C3
:1057B00032D07F1C082F00D10EE71598B8400B9906
:1057C0000840149900291CD0002814D030460E99A6
:1057D00032460B4606F096FB804C169D25610F98CD
:1057E000C0B208F021FD256025611098C0B208F014
:1057F0001BFD2560139C761C1198301AA042D8D14D
:10580000E6E67649169A0A6100280C9800D00F98AF
:105810000D9DB8D0109DB6E700201290DCE60198EF
:1058200003280FD117B0F0BD0E98401C0E90119EAA
:105830000A98801C0A900598801C0590049988425B
:105840000999EFD00029089806D00129079803D0BC
:105850000329069800D003980A99405C0B90002712
:10586000139C18E0C0B208F0DFFC5C48169C046092
:105870000461E8B208F0D8FC584804601298401C53
:105880001290C0B2139C214608F026FA002936D0A7
:105890007F1C082F35D01598B8400B9908401499F3
:1058A00000291CD0002814D030460E9932460B46F1
:1058B00006F028FB494C169D25610F98C0B208F0F0
:1058C000B3FC256025611098C0B208F0ADFC2560DE
:1058D000139C761C1198301AA042D9D10AE03F4996
:1058E000169A0A6100280C9800D00F980D9DB9D027
:1058F000109DB7E70E98401C0E90119E01E000200D
:10590000129005981599084304998842099989D0FD
:105910000029089806D00129079803D00329069882
:1059200000D003980A99401840780B900027139CE8
:1059300022E0C046E0E50000A0FD0000700F01007D
:1059400060150100C0B208F06FFC2448169C04608A
:105950000461E8B208F068FC204804601298401C1A
:105960001290C0B2139C214608F0B6F9002932D03B
:105970007F1C082F00D15BE71598B8400B990840B1
:10598000149900291CD0002814D030460E993246B4
:105990000B4606F0B7FA114C169D25610F98C0B260
:1059A00008F042FC256025611098C0B208F03CFC6C
:1059B0002560139C761C1198301AA042D8D133E789
:1059C0000649169A0A6100280C9800D00F980D9D80
:1059D000B8D0109DB6E70020129029E790320A4017
:1059E000F0B58FB01C460D460A92521E5B1E0B90FE
:1059F00006F088FA0694A54200D300E1149C012029
:105A000004908603270A0B98C0430A990818079048
:105A1000E843069908180321019008F05DF9481C35
:105A200000210591032800D005900D940E9700D118
:105A3000E2E00321079808F04FF9481C0021039089
:105A400003280891029101D003980290ED4A08E0E2
:105A5000099DAD1C0899891C05980891814200D1C7
:105A6000CAE009950A980B9981425BD203980328F2
:105A70000B9927D0029F0B990C9116610E98C4B216
:105A8000204608F0D1FBFA48066006610D98C5B2C1
:105A9000284608F0C9FBF64A1660012F10D016619F
:105AA000204608F0C1FBF24806600661284608F06F
:105AB000BBFBEF4A16600C99891CBF1EDCD101E0CC
:105AC0000C99491C079802280E9B2BD30A98471A59
:105AD0001661DCB2204608F0A7FBE54806600661C7
