:10000000008020207DE00000A79C0000A79C00004D
:1000100000000000000000000000000000000000E0
:10002000000000000000000000000000A79C00008D
:100030000000000000000000A79C000085B4000044
:10004000A79C000079C50000A79C0000A79C0000A9
:10005000A79C0000A79C0000A79C0000A79C000094
:1000600000000000A79C0000A79C0000000000000A
:1000700000000000B5DF0000BDDF0000ADDF0000C4
:10008000A79C0000A79C0000A79C0000A79C000064
:10009000A79C0000A79C00000000000000000000DA
:1000A000A79C0000A79C00000000000000000000CA
:1000B000A79C000000000000A79C0000A79C000077
:1000C000F0B5F3B007930592799A0E92789E0025C9
:1000D000EF437090139112950878A84C201843783C
:1000E000D80628D513984A1CDB0606D5481C11787B
:1000F00061184B78521C0146F6E7139070A8B04780
:100100000446401C01D100F0FAFD0DF03AFF9B4877
:1001100000194078C00603D570A8B0470446F4E73C
:1001200070A80DF08EFF1298401E1290601C934C28
:1001300001D100F0E4FD01200A9054A801466C3181
:100140000C9101460C3103910D30009014A8401C15
:1001500001900B950D971196029554A870210DF002
:10016000E0FD559770A813A912AA079B984701288C
:10017000109522D0002801D100F0A7FD401C029B61
:1001800001D100F0A4FD0F93274670A8B0470DF0F1
:10019000D8FE38194078C006F7D4374670A80DF05D
:1001A00050FF1298411E1291601C39D10029109DF8
:1001B0000F9A01D100F087FDB1E01398471C139707
:1001C000417800262A2935460BD101255495871CF4
:1001D000139706E0B819401C1390B85D71A98855B3
:1001E000761CBC5D204630380928F3D971A800215F
:1001F0000F9181550078002803D071A80DF064FAA2
:1002000055904C2C2FD0682C20D06A2C0BD06C2C05
:1002100010D0742C0AD07A2C16D10120000307E0EC
:10022000109D0F9A7BE00120C00201E001204003F5
:100230002D1819E0B919481C13904A786C2A4F4CB4
:1002400018D1012000020AE0B81910E0B919481CC1
:1002500013904A78682A494C0ED1012040022D188B
:100260005495881C0AE080355495B819401C119E9D
:10027000424C04E0403500E020355495119E411C6D
:10028000139103780C9A13705B2B28D10A785E2A9D
:1002900005D102210D435495811C139182785D2A6A
:1002A00006D1481C1390097854AA1173009901E0F3
:1002B000084603990F9D0278002A09D05D2A07D0CD
:1002C000421C139200784B1C087010461946F2E746
:1002D0000D705D2A01D1401C13900C9803781846CC
:1002E0005B38132800D94EE70121814024480142A0
:1002F00000D148E731461E4670AC20460F4688477D
:10030000054620460DF09AFE1299681C05D1002979
:10031000109D324603D100F0D6FC109D3246099163
:100320001046583820284CD83E460D9F4000C04605
:1003300078448088400087445301260326031C012B
:100340002603260326032603260351002603CE0098
:1003500025005100510051002603250026032603E5
:100360002603260329032500250026032603CE00A5
:1003700026032500260326032500C046A0190100F8
:10038000010108001746559C70A8B04721460DF0A2
:10039000D8FD14AD002934D014AD2D2C02D02B2C57
:1003A00000D0B2E014A8047070A80C46B0472146F3
:1003B0000DF0C7FD491EF64A00D1D3E00891019D1A
:1003C000A5E01046413806283E460D9F00D990E032
:1003D000012181407120014200D18AE0559D70A821
:1003E000B047044614AB401C09D00DF0CAFD2B2CBD
:1003F00009D114AB002D0BD12B24002513E03C4672
:1004000011E00027B0E014AB002D0CD02D2C0AD148
:1004100014A8047070A8B0470446401C01D00DF029
:10042000B0FD6D1E019B204661381A2801D320467D
:1004300001E0204620384928E24F109703D04E288B
:100440002AD1E14F10970026B5421BD01098805D4D
:10045000002816D0214661391A2901D3214601E02E
:100460002146203981420CD11F469C5570A8119914
:1004700088470446401C01D00DF083FD761C3B46A6
:10048000E2E73546E81E41424141083D6842684185
:10049000084310909D1964E20022002D5CD0302C9E
:1004A0005AD10F9230201F46187070A8B0470446EA
:1004B000401C01D00DF065FD7B1C681E002201214F
:1004C0001091002800D1AAE1214661391A2900D2F1
:1004D000A8E12146A8E1549901250846284049068B
:1004E000174676D4002800D00EE1059810C8059074
:1004F0000BE1252A00D046E270A8B047252801D09C
:1005000000F000FC0DF03DFD40E20891AC4A0020F7
:100510003B46115C8B4204D0401C0728F9D10020D7
:1005200000E01018801A012813D1302C5CD10F95EF
:1005300070A81090B047054610980DF07FFD202060
:100540008543583D109501D0082010903B460F9DE3
:100550004CE09E49085C48E01946109204920A98C3
:1005600008907CE10027019D3A4638460A990F9190
:1005700062E0559F5498022101400F9114AC002F66
:1005800000D148E170A8B0470546401C089000D152
:10059000B1E010942C46E8B2002303990E7886420D
:1005A0000A4600D01A46491C002E1346F6D10F9B6E
:1005B00059425941531E9A419142119E2546109C21
:1005C00000D098E0611C20700DF0DBFC7F1E0C4613
:1005D000D5E7002800D09DE0059810C805909AE066
:1005E00078220C980270CDE60A20109018466938DF
:1005F000C0B2102801D3002100E00121EA4FC7401A
:100600000F406F2B06D1302C0AD000200A990F9191
:10061000089A11E020463038414241410F42F4D05F
:1006200028466D1C047070A8B0470DF08AFC089A2B
:10063000521E00200F900A98002F24D0002A22D0AA
:10064000002820D020202146814358291BD1089220
:1006500070AF3846B047014638460F460E9A90476D
:10066000E148C0194078800701D4089A0BE02C704B
:1006700070A8B0470DF065FC089A521E00D138E30F
:100680006D1C102010900A9F002A23D01098082873
:1006900004D107202146814330290ED010980A2822
:1006A00003D1204630380A2807D31098102811D1DA
:1006B000CD480019407880070CD56E1C2C7070A8AE
:1006C00011991446884722460DF03BFC521E002724
:1006D0003546D9E770A80DF0B4FC1298401E129070
:1006E0000020287005460F98384001280D9F119E64
:1006F00000D04BE1F5E270A80DF0A0FC129809992A
:10070000814200D087E004E300245598002841D4BA
:10071000054640E000245598002800D40546632A89
:1007200000D0054670A8B04701460DF02AFC632FA3
:1007300005D1481E0222D24390420FD917E0481C2F
:10074000022801D3002000E00120A74A5218527865
:10075000D2060A9A00D40246002A08D1002D06D0FB
:10076000002C01D002C400E000246D1EDAE770A85E
:100770000E9A90471298401E12900999814200D11A
:10078000B7E2732F49D1002C47D00020206044E00D
:10079000611E01000125632A00D0054670A8B047FC
:1007A00001460DF0EEFB632F05D1481E0222D24315
:1007B000904217D921E0481C022809D3002008E004
:1007C000611E0100FD26010005280100B827010077
:1007D0000120854A52185278D2060A9A00D402465D
:1007E000002A0AD1002D08D0002C03D0601C2170F3
:1007F000044600E000246D1ED0E770A80E9A9047D2
:100800001298401E12900999814200D171E2732F13
:1008100003D1002C01D0002020700D9FB6E004927F
:10082000154618E021462039582912D17C7070A84D
:10083000119988470446401C01D00DF0A2FBBA1C58
:10084000AD1E00200A9904911146109008900F9A4D
:1008500005E0049205460A9808900F9A19460692F8
:1008600016460F95002D0D466ED02B2C39D02D2C11
:1008700037D02E2C2FD0452C01D0652C0BD10898C9
:10088000002846D0109800285ED0002A5CD10120B4
:10089000074610904AE020463A380A21C943884268
:1008A00029460CD8049800284ED04F4800194078AB
:1008B000800704D4202020437028E3D044E02B2C70
:1008C0000FD02D2C0DD0702CDCD0502CDAD0652C14
:1008D000D5D02E2C1DD10698104335D1012006907D
:1008E00023E00898002808D0481E00782021014302
:1008F0006529294601D1174618E00498002823D01D
:10090000481E00782021014370291DD11746294631
:100910000CE0002A07D0204630380122092813D8DD
:100920001746164602E00120109000270C7070A8B0
:10093000119988470446401C01D00DF022FB691C28
:100940000F9D6D1E3A468CE71099481E814110910B
:10095000701E8641002A0A9800D030461099014046
:1009600010910D9F70A80DF06CFB601C02D01299C5
:10097000491E129100212970129A099B9342119EDF
:10098000109D00D1A8E1012D00D0B3E10C980178B1
:10099000012508465B381D283ED804A2124C4000B1
:1009A000105A40008744C046818000002400220085
:1009B00022002200220022004600220057014600A9
:1009C0004600460046002200460022002200220087
:1009D0002200A30046004600220022005701220008
:1009E0004600220022004600A0190100FFF7B5FBD7
:1009F0005499C80701D0FFF7B0FB05980068490675
:100A000000D5C8E014A94A1C0978431C01700029CC
:100A100018461146F7D1C7E0084641380628BF4CB2
:100A200001D9FFF79AFB012282407120024201D1D5
:100A3000FFF793FB14A80078002800D10BE154982D
:100A4000C20700D007E10B46613B172B3AD80022C2
:100A50009B0002A4E358B14C9F46C046D90A00004F
:100A6000570C0000570C00006B0B0000D90A000067
:100A7000D90A0000D90A0000570C00006D0B0000D5
:100A8000570C0000570C0000570C0000570C0000DA
:100A9000570C0000BD0A00008F0B0000570C00002F
:100AA000570C0000570C0000570C0000BD0A000056
:100AB000570C0000570C0000BD0A000078293FD0F9
:100AC00008223EE04139062900D9C4E001228A40CB
:100AD00071210A4200D1BEE0C021084080281ED00A
:100AE000402826D114A8002105F050F91BE05498A5
:100AF000C10701D0FFF731FB89490840411E02467A
:100B00004A408A4200D894E0002800D183E0414264
:100B1000014084484143C80E83A1085C7CE014A8CE
:100B2000002105F033F9059B04CB0593106051605B
:100B300091E014A8002105F029F90CF009F887E0EC
:100B40001022752900D10A2275490840411E03462A
:100B50004B408B4242D900282ED04142014071487F
:100B60004143C80E70A1085C27E00A226C49084086
:100B7000411E03464B408B4248D9002833D04142A6
:100B8000014068484143C80E67A1085C2CE014A8E6
:100B90000021102224E014A90A78002A02D0491C5E
:100BA00004C0F9E7002101600598001D05900B982D
:100BB000401C0B90FFF7D1FA2020401F08280DD8C9
:100BC0007844007940008744580909045D09043AD3
:100BD0003A0014A8002109F0DFF9A4E714A80021C5
:100BE00009F0BCFF34E02020401F08280ED8C04682
:100BF00078440079400087444A09090452090427CF
:100C0000270014A8002108F051F88CE714A800214F
:100C100009F0CCFD1CE02020401F082809D8C04660
:100C200078440079400087444204041F48041F04AC
:100C3000040012980DF0B6F90860FFF78EFA14A8B8
:100C4000002109F0A9F903E014A8002108F02EF80A
:100C50000DF0A8F9086054980125294681430B98A6
:100C600008180B90FFF779FA1298C117059B04CB6F
:100C7000059310605160FFF770FA14A8002109F085
:100C80006DFF08E014A8002109F068FF0BE014A82C
:100C9000002109F08BFD0DF085F90880DBE714A831
:100CA000002109F083FD0DF07DF90870D3E712985B
:100CB0000DF078F90880FFF750FA12980DF072F9EC
:100CC0000870FFF74AFA0D9F19E00B9F17E00B9889
:100CD000002814D0074612E0002800D121460D4616
:100CE00008E0129809994140E043084302D1ED43DE
:100CF00000E00D9D0B98002800D005462F46384691
:100D000073B0F0BD054670A80DF098F9681CF1D0DD
:100D100002E008980028EDD00025EBE7A0190100BB
:100D2000603F000031B57C0700011C021D0E180356
:100D30001E16140F191104081F1B0D171513100789
:100D40001A0C12060B050A09F0B5C9B005460120B8
:100D50001590FE4928460BF013FC002840D0FE49B0
:100D600028460BF00DFC002845D0FC4928460BF026
:100D700007FC00285BD0FA4928460BF001FC00284C
:100D800000D19DE00020F74903E0C01C012A00D1FA
:100D9000C2E02A5C0B5C9A4200D097E0002A00D1A6
:100DA000BAE02A180B1856785C78A64200D08DE07D
:100DB0000446093C67426741002E159E00D03E461E
:100DC000002E00D0A8E092789B789A427ED104460B
:100DD000083C63426341002A159AD6D01A46D4E7EC
:100DE00004F0AEF90346E04A1AAD302128460CF073
:100DF00003FC284658E304F0A3F905460CF0E0FE96
:100E0000002800D1A9E008F04FFF002800D14DE3F1
:100E1000D64ED74FD74CD8480CF012FB3AA8183012
:100E20001390E51C344600201490602630E204F054
:100E300087F905460CF0C4FE002800D18DE008F0CB
:100E400033FF002800D131E3C84CCA48C51C002636
:100E50006027149602E07F1E00D10AE23C353AA9D1
:100E60003C22284607F000FA002800D11BE33AA8EC
:100E70000178A529EFD180790128ECD13AA84088E2
:100E80000028E8D03AA98A88002AE4D03C9BB849D7
:100E90005918A142DFD33D99424350008142DAD133
:100EA00058181430B34A9042D5D2012000030818D4
:100EB0001330B249084086191498401C1490CAE7B0
:100EC000AF480078012837D1AE48EDE20020AE49A6
:100ED00003E0C01C012A00D186E12A5C0B5C9A4227
:100EE00000D035E1002A00D17EE12A180B1856788F
:100EF0005C78A64200D02BE1002E00D174E19278FC
:100F00009B789A4200D023E1841F63426341002A08
:100F1000159ADED01A46DCE70B359C493AAA2846DA
:100F20000CF082FD012800D06CE13A98FE2800D92F
:100F300068E109F0E5F8B9E204F002F905460CF0C1
:100F40003FFE002809D008F0AFFE002800D1ADE236
:100F50008848C61C002760200CE08D4A1AAE40214C
:100F600030462B460CF048FB30469DE21498001F9B
:100F700000D121E3149030463C303AA93C252A4662
:100F800007F072F9002800D18DE23AA80178A5296E
:100F900029D18079012826D13AA84088002822D07A
:100FA0003AA9898800291ED03C9A714BD3186F4CFE
:100FB000A34218D33D9B41434800834213D1D0182C
:100FC00014306C4988420ED238467F1CC0B245436B
:100FD000704844193AA92CC92CC42DC92DC42DC957
:100FE0002DC42DC92DC4304678303AA93C252A4657
:100FF00007F03AF9002800D155E23AA80178A5296E
:101000002AD18079012827D13AA84088002823D006
:101010003AA9898800291FD03C9A554BD318534CC4
:10102000A34219D33D9B41434800834214D1D018B9
:101030001430504988420FD2781C1390F8B24543BF
:10104000544840193AA92CC92CC0ACC9ACC0ACC991
:10105000ACC0ACC9ACC0139F3046B4303AA93C25F3
:101060002A4607F001F9002800D11CE23AA80178CD
:10107000A52929D18079012826D13AA840880028BD
:1010800022D03AA9898800291ED03C9A384BD3181F
:10109000364CA34218D33D9B41434800834213D1B1
:1010A000D0181430334988420ED238467F1CC0B263
:1010B0004543384844193AA92CC92CC42DC92DC41C
:1010C0002DC92DC42DC92DC4F0363AA93C22304675
:1010D0000D9207F0C9F8002800D1E4E13AA80178A0
:1010E000A52900D042E78079012800D03EE73AA840
:1010F0004088002800D139E73AA98988002900D121
:1011000034E73C9A1A4BD318184CA34200D22DE76F
:101110003D9B41434800834200D027E7D01814305C
:101120001449884200D321E77C1CF8B20D9948434A
:10113000184908183AA92CC92CC0ACC9ACC0ACC914
:10114000ACC0ACC9ACC0274610E7C046442701007C
:101150000020114925E0C046F426010006270100C1
:101160003C260100F425010055230100001081FFF9
:10117000000081FF01007F009923010000F0FFFFC4
:10118000A8332020D6240100D62601001028010013
:101190006820010000002020C7240100C01C012A93
:1011A00058D02A5C0B5C9A422ED1002A52D02A18C1
:1011B0000B1856785C78A64226D104460C3C674250
:1011C0006741002E159E00D03E46002E42D19278F7
:1011D0009B789A4218D104460B3C63426341002A33
:1011E000159ADBD01A46D9E70935FC493AAA2846B0
:1011F0000CF01AFC01283AD13A98FE2837D80AF0A8
:101200009FFC53E1F6484FE10020F64903E0C01C83
:10121000012A00D184E12A5C0B5C9A4200D04EE1A5
:10122000002A00D17CE12A180B1856785C78A64277
:1012300000D044E1002E00D172E192789B789A426E
:1012400000D03CE1841F63426341002A159ADED03E
:101250001A46DCE70E35E1493AAA28460CF0E4FBD1
:10126000012804D13AA800780CF0F6FB1EE1DE4814
:101270001AE1DE4B981B1499C9B2009601900291B5
:10128000DB4A1AAD6021B1E5DA4F361F00D110E11B
:1012900028463C303AA93C2206F0E6FF002800D15F
:1012A00001E13AA80178A52934D18079012831D10A
:1012B0003AA8408800282DD03AA98988002929D049
:1012C0003C9AD319A34225D33D9F0B4643435B0071
:1012D0009F421ED1D3191433C74CA34216D23AAB46
:1012E0005B7812933E9B139C009401AC83C40493DF
:1012F00005921AAF80213846C04A129B0CF07CF947
:1013000038460CF09DF81498401C1490B94FBC4C12
:1013100000E0B84F284678303AA93C2206F0A4FFF6
:10132000002800D1BFE03AA80178A52934D18079FE
:10133000012831D13AA8408800282DD03AA98988BF
:10134000002929D03C9AD319A34225D33D9F0B46AF
:1013500043435B009F421ED1D3191433A64CA342D2
:1013600016D23AAB5B7812933E9B139C009401AC6F
:1013700083C4049305921AAF802138469F4A129B7A
:101380000CF03AF938460CF05BF81498401C1490B5
:10139000984F9B4C00E0974F2846B4303AA93C2226
:1013A00006F062FF00287ED03AA80178A52934D142
:1013B0008079012831D13AA8408800282DD03AA957
:1013C0008988002929D03C9AD319A34225D33D9F6F
:1013D0000B4643435B009F421ED1D3191433864C06
:1013E000A34216D23AAB5B7812933E9B139C0094B7
:1013F00001AC83C4049305921AAF802138467F4A1A
:10140000129B0CF0F9F838460CF01AF81498401CAE
:101410001490784F7A4C00E0764FF0353AA93C2290
:10142000284606F021FF00283DD03AA80178A529DA
:1014300000D02AE78079012800D026E73AA8408822
:10144000002800D121E73AA98988002900D11CE7AA
:101450003C9AD319A34200D217E73D9F0B46434362
:101460005B009F4200D00FE7D3191433624CA342B4
:1014700016D23AAB5B7812933E9B139C009401AC5E
:1014800083C4049305921AAF802138465B4A129BAD
:101490000CF0B2F838460BF0D3FF1498401C1490AF
:1014A000544F574CF1E657480BF0CAFF159849B016
:1014B000F0BD1498C3B2544A1AAD802196E40022BC
:1014C0005249149202E0D21C012B46D0AB5C885CDE
:1014D00083423FD11046093846424641002B1598B9
:1014E00000D03046002838D1AB188E185F7870785D
:1014F00087422FD11446083C60426041002F159F5F
:1015000000D00746002F28D19B78B078834221D1A4
:10151000D41F60426041002B159BD4D00346D2E714
:10152000093516A8029017A8019018A8009038490C
:101530001AAA19AB28460CF077FA052826D119A863
:10154000028818A803881798169900900191FF2027
:101550001AA92EE014981590A8E70A3516A802904B
:1015600017A8019018A80090FB493AAA19AB284681
:101570000CF05AFA3A9BFE2B01D8002100E0012121
:101580000528159800D10846012801D1F4488BE7B9
:10159000F24A1AAD102128460CF02EF83AA800782D
:1015A00019A90A8818A90B881799169C009101940B
:1015B000294602F097FA79E701200E900003079080
:1015C000380600D1AEE1F9B21197B81E089000229A
:1015D000E5480C9010460A9127E0C046102801000B
:1015E00088230100902601009A24010000F07E006B
:1015F000501F0100000081FF01007F00201E01003C
:10160000001081FF132201001C210100522601005D
:101610008D2201000E98401C0E900C983C300C90CE
:101620000A990B98884200D106E1421C0B928A422B
:10163000F0D20899091A0D9A5043CB4A1618CAB22B
:10164000AB2009925043400A03224243881A401CAF
:10165000C1B200220F92032900D00F900E9A149667
:1016600064D000240C9F0E9A04E0921CA41CE0B2EB
:10167000A8425BD07B6CB568AB421292109423D227
:101680003D463C351AAE33461397149F15CF15C30C
:1016900017CF17C317CF17C317CF17C314982946EF
:1016A0001CC91CC09CC99CC09CC99CC09CC99CC036
:1016B000139F109C07CE07C50FCE0FC50FCE0FC5C9
:1016C0000FCE0FC5129A149E01202043C0B20F996D
:1016D000CDB2A84229D0802038587837B1688842E6
:1016E000C3D21AAB1846314654C954C01397D4C953
:1016F000D4C0D4C9D4C0D4C9D4C01498139954C97F
:1017000054C0D4C9D4C0D4C9D4C0D4C9D4C0139F80
:10171000384616CB16C056CB56C056CB56C056CB05
:1017200056C0109C129A149E9FE7521C09980228DA
:1017300000D26FE70D9850438B490F18D01C08E07A
:10174000B437D0B21199C9B2D21C8142104600D12F
:1017500060E71290B868B268904213971ED21AA838
:1017600032460346B0CAB0C3B2CAB2C3B2CAB2C3E9
:10177000B2CAB2C33146139A38CA38C1B8CAB8C15E
:10178000B8CAB8C1B8CAB8C1139F39461CC81CC171
:101790003CC83CC13CC83CC13CC83CC1786CB16849
:1017A000884220D238463C301AAA11463346B0CB84
:1017B000B0C1F0CBF0C1F0CBF0C1F0CBF0C11499C7
:1017C000034670CB70C1F0CBF0C1F0CBF0C1F0CBD1
:1017D000F0C1139F149E1ACA1AC03ACA3AC03ACA34
:1017E0003AC03ACA3AC080203858B1688842129A42
:1017F000A6D2384678301AAA3146134670C970C34B
:10180000F0C9F0C3F0C9F0C3F0C9F0C3149903469E
:1018100070CB70C1F0CBF0C1F0CBF0C1F0CBF0C118
:10182000139F149E1ACA1AC03ACA3AC03ACA3AC09A
:101830003ACA3AC0129A83E74C4D4D480BF000FE6D
:101840000021494A0B46079E0D985843101884689A
:10185000C7681494A64253D0109013930F91129717
:101860003C46143444D03F48401EA519854257D801
:10187000002E55D00799149A8A4251D314996118B1
:1018800081424DD8AE4237461AD2384607F0D4FCD2
:10189000002845D007983F18AF4211D2384607F0CC
:1018A000CBFC00283CD007983F18AF4208D23846FE
:1018B00007F0C2FC002833D007983F18AF42E4D3AA
:1018C0000025671BFF2F01D9012007021498281853
:1018D00028493A4606F0C8FC002821D0A819254915
:1018E0003A4604F0EBFD00281AD07D19A542E8D352
:1018F000109886600F99491C1C4D1B4A139B129F20
:101900000798C0191330284086191648401E864291
:101910001FD85B1C0A98834296D1CDB2079607E088
:101920001548C1E5119712480BF08AFD00250A956C
:101930001198C0B207F0CAF8002808D00A980090A1
:10194000079801900F4A1AAE6021FFF709FB0C4877
:10195000AAE50A48A8E5C04644230100A3270100E0
:10196000E524010001007F000000202000F0FFFFBF
:10197000A5210100002D2020E72101004B210100BD
:10198000EC230100AD1F0100F0B5CFB00248007894
:10199000012803D000F060FD9A3320204CA80AF003
:1019A0006DFF002801D100F057FD01201B904C98DD
:1019B000FB4C099021460AF055FD06464D980A90C9
:1019C00021460AF04FFD05464E98F6490B900AF065
:1019D00049FD0446304607F043FB1390304607F0BC
:1019E00013FD1290284607F03BFB1590284607F0A0
:1019F0000BFD1490204607F033FB0546204607F008
:101A000003FD07461090002428460D95214609F055
:101A100016FE0646384621460AF024FD314609F0F6
:101A20000EFE1690139821460AF01CFD06460E90F5
:101A3000284621460AF016FD1190314609F0FFFDB7
:101A40000746109E3046129D29460AF00BFD394686
:101A500009F0F5FD1A901B98C707284639460AF089
:101A600001FD01460890119809F0E9FD19903046F2
:101A7000139D29460AF0F6FC199909F0E0FD19902A
:101A80002846214609F0DBFD0646129D28462146E0
:101A90000C940AF0E7FC314609F0D1FD179020467E
:101AA000294609F0C7FD01460E9E304609F0C7FDE4
:101AB00018902046109C214609F0BCFD0146119863
:101AC00009F0BDFD0F90204639460AF0CBFC0546D3
:101AD000314609F0B4FD06460D9C204612990AF0E5
:101AE000C1FC314609F0ABFD0E902846089909F07B
:101AF000A6FD0546204613990AF0B4FC294609F0D4
:101B00009EFD1090149E304639460AF0ABFC054607
:101B1000159816990AF0A6FC294609F090FD05468D
:101B20000F980C9C21460AF09DFC0D90294609F067
:101B300086FD1390179831460AF094FC0546159ED1
:101B400030461A990AF08EFC294609F073FD0546C5
:101B50000E9821460AF086FC0890294609F06FFD90
:101B60001290189814990AF07DFC05463046199990
:101B70000AF078FC294609F05DFD064610982146DA
:101B80000AF070FC0790314609F059FD1190159D3F
:101B9000284621460AF066FC0646149C2046169903
:101BA0000AF060FC314609F04AFD01460D9809F043
:101BB00046FD0D90284617990AF054FC064620462B
:101BC0001A990AF04FFC314609F039FD0146089890
:101BD00009F035FD0890284618990AF043FC06469E
:101BE000204619990AF03EFC314609F028FD0146CD
:101BF000079809F024FD159016980C9C21460AF0D0
:101C000031FC214609F01BFD01460F9809F017FD34
:101C100006461490179821460AF024FC05461A98A7
:101C200021460AF01FFC294609F009FD01460E98DD
:101C300009F005FD1790189821460AF013FC054697
:101C4000199821460AF00EFC294609F0F8FC0146D5
:101C5000109809F0F4FC16900D9821460AF002FC49
:101C600005460F90139821460AF0FCFB1090294678
:101C700009F0E5FC0146304609F0E1FC1A90089EA7
:101C8000304621460AF0EEFB05460E90129821469A
:101C90000AF0E8FB0690294609F0D1FC01461798A6
:101CA00009F0CDFC1890159821460AF0DBFB05469B
:101CB0000790119821460AF0D5FB0590294609F0B6
:101CC000BEFC0146169809F0BAFC199010980D99BF
:101CD00009F0B5FC0546149821460AF0C3FB0D90A7
:101CE000294609F0ACFC14900698314609F0A7FC8F
:101CF0000646179821460AF0B5FB1790314609F0C1
:101D00009EFC10900598159909F099FC05461698C7
:101D100021460AF0A7FB0646294609F090FC1590DB
:101D20000F98139909F086FC01460D9809F087FC7D
:101D300004460E98129909F07DFC0146179809F0A7
:101D40007EFC05460798119909F074FC014630465F
:101D500009F075FC024614480178012911920F958B
:101D600036D1124800680E9011480068169011484C
:101D700000680890104800680D90104801681048ED
:101D8000006807900F48006812900F48006817908D
:101D90000E4800680C9026462846154644E0C0468A
:101DA00035FA8EBC35FA8E3C8E33202070322020DE
:101DB0007C32202088322020743220208032202063
:101DC0008C32202078322020843220209032202033
:101DD00065491A9808606549189808606449199B14
:101DE0000B6064491498086063492646109C0C6097
:101DF0006249159A0A6062490E6062490D60624943
:101E0000119808601B99614D29700C900546179236
:101E100012930F9A0792214618980D9008961498DD
:101E200016901A980E90104605910AF01BFB044676
:101E30000696304616990AF015FB214609F0FFFB7D
:101E40000446284617990AF00DFB214609F0F7FBD6
:101E500005464F4C21460BF0D6F913907F20C6055E
:101E6000284631460BF0EAF9002800D12E46139897
:101E7000002800D13446204608F0F4F9139007F00A
:101E8000EFF8B84343490BF0D9F9002800D185E0B9
:101E90000F9D284607990AF0E5FA0446069E30464B
:101EA00008990AF0DFFA214609F0C9FB0446119FA0
:101EB00038460C990AF0D6FA214609F0C0FB0C907E
:101EC00028460D990AF0CEFA044630460E990AF0DB
:101ED000C9FA214609F0B3FB0446384612990AF0C4
:101EE000C1FA214609F0ABFB12901098059F3946C4
:101EF0000AF0B8FA05461498169C21460AF0B2FA80
:101F0000294609F09CFB05461598179E31460AF0B4
:101F1000A9FA294609F093FB0546189839460AF0B4
:101F2000A1FA07461A9821460AF09CFA394609F0A8
:101F300086FB0746199831460AF094FA394609F0AB
:101F40007EFB07461B98C607129870400C9908F054
:101F50002BFF1A9077403846294608F025FF0E4996
:101F60000AF080FA074649E07032202074322020BF
:101F7000783220207C3220208032202084322020A1
:101F8000883220208C322020903220208E33202056
:101F9000000080BF17B7D138E02E65C2189D2846D3
:101FA00007990AF05FFA04461A9E304608990AF02B
:101FB00059FA214609F043FB044619980C990AF096
:101FC00051FA214609F03BFB044628460D990AF0D8
:101FD00049FA054630460E990AF044FA294609F0B6
:101FE0002EFB0546199812990AF03CFA294609F089
:101FF00026FB0146204608F0D7FE1A90C9491398DF
:102000000AF030FA0446C8490BF018F900281FD02E
:10201000C64DC54E2046294609F011FB04463146FF
:102020000BF00CF9002813D02046294609F007FBD5
:10203000044631460BF002F9002809D02046294613
:1020400009F0FDFA044631460BF0F8F80028E1D11A
:10205000B74920460BF0D7F800281FD0B54DB44E35
:102060002046294609F0EBFA044631460BF0CBF83E
:10207000002813D02046294609F0E1FA04463146EB
:102080000BF0C1F8002809D02046294609F0D7FAFC
:10209000044631460BF0B7F80028E1D1EF49384645
:1020A0000BF0CCF800281FD0ED4DEC4E38462946F9
:1020B00009F0C5FA074631460BF0C0F8002813D0E6
:1020C0003846294609F0BBFA074631460BF0B6F808
:1020D000002809D03846294609F0B1FA07463146AA
:1020E0000BF0ACF80028E1D1DE4938460BF08BF854
:1020F00000281FD0DC4DDB4E3846294609F09FFAF8
:10210000074631460BF07FF8002813D038462946A1
:1021100009F095FA074631460BF075F8002809D00A
:102120003846294609F08BFA074631460BF06BF822
:102130000028E1D1CD491A980AF094F90546C7491B
:102140000BF07CF800281ED0C44E2846C44909F084
:1021500076FA054631460BF071F8002813D0284670
:10216000BF4909F06CFA054631460BF067F80028C4
:1021700009D02846BA4909F062FA054631460BF003
:102180005DF80028E1D1B74928460BF03CF800285B
:102190001ED0B44E2846B44909F051FA05463146DE
:1021A0000BF031F8002813D02846AF4909F047FA60
:1021B000054631460BF027F8002809D02846AA49E1
:1021C00009F03DFA054631460BF01DF80028E1D133
:1021D000A7480178002900D1AEE0A648016828464A
:1021E0001A9109F027FA05469C490BF027F80028B8
:1021F0001ED09A4E28469A4909F021FA05463146E2
:102200000BF01CF8002813D02846954909F017FA5E
:10221000054631460BF012F8002809D028469049AF
:1022200009F00DFA054631460BF008F80028E1D117
:102230008C4928460AF0E7FF00281ED0894E284620
:10224000894909F0FCF9054631460AF0DCFF00280F
:1022500013D02846844909F0F2F9054631460AF0C0
:10226000D2FF002809D028467F4909F0E8F9054641
:1022700031460AF0C8FF0028E1D17F4928460AF01C
:10228000F1F81A9909F0DBF9054674490AF0D6FF0E
:1022900000281ED0714E2846714909F0D0F9054634
:1022A00031460AF0CBFF002813D028466C4909F0CC
:1022B000C6F9054631460AF0C1FF002809D0284674
:1022C000674909F0BCF9054631460AF0B7FF002816
:1022D000E1D1644928460AF096FF00281ED0614EDD
:1022E0002846614909F0ABF9054631460AF08BFFF3
:1022F000002813D028465C4909F0A1F9054631466B
:102300000AF081FF002809D02846574909F097F9BB
:10231000054631460AF077FF0028E1D155480560AF
:102320001B990DE0E02E65C2000034430000B4C3E9
:10233000000034C30000B4434E490D601B99017086
:102340004E4805604E480170002120461B910AF05E
:102350006CFF06464B4920460AF084F83F210906E7
:102360001A91BF210C06002E214600D01A9909F0BF
:1023700066F90BF0C1FA199038461B990AF055FF1F
:10238000064638463F490AF06DF8002E214600D037
:102390001A9909F054F90BF0AFFA189028461B99D6
:1023A0000AF043FF0646284636490AF05BF8002E3D
:1023B000214600D01A9909F042F90BF09DFA1790C6
:1023C000099D28461B990AF030FF064628462D49EC
:1023D0000AF048F8002E214600D01A9909F02FF98A
:1023E0000BF08AFA16900A9D28461B990AF01DFFE9
:1023F0000746284623490AF035F8002F214600D029
:102400001A9909F01CF90BF077FA07460B9E304633
:102410001B990AF00AFF054630461A490AF022F8CD
:10242000002D00D01A9C214609F009F90BF064FA3E
:1024300018990091179901911699029103970490A8
:10244000114A1CA8C021199B0BF0D6F8401EBE28CB
:1024500002D81CA80AF0F4FF4FB0F0BD00003443CE
:102460000000B4C3000034C30000B443E02E654252
:1024700097332020B83220206666E63E983220202E
:10248000913320200000C8428A1D0100F0B5FFB042
:102490008EB0049306920646929802900025E84377
:1024A00005908C91346820460BF00EFD21188B9519
:1024B00003918C4200D3BCE00020879087A9087369
:1024C0008890059889902F46049D2078002800D197
:1024D000B2E0252805D0641C34600699A8477F1C0B
:1024E000F3E78B97601C306087AC2046314600F0E4
:1024F000BBF88CAA2046314600F0D7F83068017846
:102500000B46683B0122D341092B2BD87B441B7916
:102510005B009F4404130A272727162727194378AF
:102520008799682B19D1520204E0437887996C2B64
:1025300010D1120211438791801C12E08799D202B8
:1025400004E08799520301E0879912030A438792B6
:10255000401C06E0401C402201E0401C20221143A8
:1025600087910178441C346087A80173732913D0C4
:102570006E291DD1879832490840411E02464A40C3
:102580008A423CD900282DD0414201402D48414388
:10259000C80E2DA1085C26E087A80078400619D453
:1025A000009587A88CAA8BAB069900F03DF92AE02C
:1025B00007AD87A98CAA284600F08CF90246284668
:1025C0000699029B9847411C059D00D0C5198B9523
:1025D00003991AE0009587A88CAA8BAB069900F0A6
:1025E000C0F810E02020401F082808D8784400795F
:1025F000400087441904040D14040D0404008C9851
:1026000002C88C900F6003998B9D681C13D050E713
:10261000F8178C9904C98C9117605060F3E78C9877
:1026200002C88C900F70EEE78C9802C88C900F80D7
:10263000E9E72F4600E0059F38467FB00EB0F0BDB9
:10264000603F000031B57C0700011C021D0E18031D
:102650001E16140F191104081F1B0D171513100750
:102660001A0C12060B050A0910B50A680124E307C3
:102670001AD01378302B0CD0232B0ED02B2B0AD052
:102680002D2B04D00024202BF1D1042306E00123BC
:1026900004E0102302E0022300E0082304681C4346
:1026A0000460521C0A60E1E710BDFEB516460D46F7
:1026B0000446086802782A2A10D13068011D31606A
:1026C00000686060002805D54042606020680121F4
:1026D000014321602868471C2F6017E00021303A31
:1026E000092A08D84218531C2B60435C6F467B5460
:1026F0005278491CF3E76A4600235354127847186E
:10270000002A03D068460AF0DFFF606038782E2880
:1027100026D1781C286079782A2908D13068011DD3
:1027200031600068A0602868401C2860FEBD002061
:102730003039092908D839188A1C2A604A786B462A
:102740001A548978401CF3E76A4600211154107826
:10275000002804D068460AF0B7FFA060FEBDA16063
:10276000FEBDF0B587B01E460C9F13681C1D14609B
:102770001D68002D3AD0049106908468002C04D482
:1027800028460BF091FB844203D328460BF08CFBC8
:10279000044606984068A042039000DC20460146AB
:1027A00030680191401805940399A1420296306067
:1027B0000EDD06980078C0070AD1059801990E1A17
:1027C0000024B44204DA20200499B847641CF8E7D6
:1027D0000026049C069805998E420ADA2868010AA8
:1027E00018D12D1D2146B847761CF3E70020B847C5
:1027F00018E00599039A8A4214DD0078C00711D0C9
:102800000198451A0024AC420CDA20200499B847FC
:10281000641CF8E70020C043029908600BF0DAFB63
:102820005821016007B0F0BDF0B585B00C460646F2
:102830000A9D1068011D116000680490002844D0B2
:102840000393B768002F04D404980BF03DFB874234
:1028500003D304980BF038FB074602967268BA421D
:10286000114600DC3946039B18680091401801921C
:10287000BA4218600FDD02980078C0070BD10098AB
:10288000C01B039000260398864204DA20202146CC
:10289000A847761CF7E70026BE4205DA0498805D5B
:1028A0002146A847761CF7E70198B84210DD029848
:1028B0000078C0070CD00098C61B0027B74207DA83
:1028C00020202146A8477F1CF8E700202146A84782
:1028D00005B0F0BDF0B589B005920E4604467F20E4
:1028E000800027184868039000250795FF21049170
:1028F000FE312022204601920BF00CFA3046089758
:1029000002977D70367B31466339152906903DD894
:1029100001228A40604B1A42069822D007A908AAD1
:10292000059B00F0BDF806980025067B012731467F
:102930006F390929059504D801228A4057490A426E
:102940003FD1582E3DD0016802230B40079A002A40
:1029500027D008994A1E08922D220A705F425F41D3
:102960002FE0002912D1059B1A68111D1960126809
:10297000D1B24D424D410499FC3161180891029940
:102980000A70026802218A430260CEE7252E02D037
:10299000582EC3D0CAE70020607025202070012087
:1029A00078E0002B07D149070BD5089A511E0891F2
:1029B0000199117005E0089A511E08912B211170A0
:1029C0000027039903976518089B0178C9072646D5
:1029D00008D10299491CC91A42689142264601DC75
:1029E000691A4E1C591C04984300002730463A4689
:1029F0000BF00AF908900599002903D0411C0891B1
:102A0000077000E00146A94206D8481E691A491C11
:102A100020220BF07FF92F7006980078C00606D4AC
:102A2000311B202220460BF075F9059D2EE0A642B1
:102A3000059D2BD0311B302720463A460BF06AF912
:102A4000069B07984142414103980140012905D165
:102A50001878400702D43046214604E03078611CE3
:102A60002070701C37701A7B412A0CD0582A05D070
:102A7000612A08D0782A01D0702A07D11B781B0759
:102A800001D4612A02D142784A70477020460BF087
:102A90001BFA401909B0F0BD423024004302000087
:102AA000F8B514460F4605468068002804D4286807
:102AB00010218843286001E00120A860287B1026AF
:102AC000582808D0782806D0702804D06F2801D163
:102AD000082600E00A262846194600F055F8AA689C
:102AE000002A09D102460A4306D12878000749D5B1
:102AF0002B7B0020024612E02B7B642B03D1642346
:102B0000002905D40AE0692B08D1002906D56923DC
:102B100001223A60002240428A4100E00A460094C5
:102B20001146324600F0CEF8A968884206DA401C09
:102B300021684A1E226030220A70F5E7287B582857
:102B400003D0782801D070280FD1297809070CD537
:102B5000702800D1782021684A1E22600870206801
:102B6000411E216030210170287B6F280AD128780E
:102B7000000707D520684178302903D0411E216025
:102B800030210170F8BDC04610B5037B702B05D114
:102B90000868021D0A60006800227BE002683E4867
:102BA0001040421E04465440944216D9002807D0D3
:102BB0004242024039485043C00E39A2105C00E046
:102BC0002020401F082808D8784400794000874416
:102BD0004C04041E38041E04040000221846643805
:102BE00014280DD801248440354804420AD12120FC
:102BF000044205D00868021D0A600068C21749E057
:102C0000582B46D10868031D0B60006842E0184647
:102C10006438142807D8012282402948024206D18C
:102C20002120024203D10020582B024632D10868ED
:102C3000C21D0720824310460830086010685268A1
:102C400028E0002218466438142807D8012484405C
:102C50001B48044204D121200442CBD1582B18D167
:102C60000868031D0B60007814E0002218466438E1
:102C7000142807D8012484401148044204D121209B
:102C80000442B7D1582B04D10868031D0B6000889B
:102C900000E01046114610BD603F000031B57C07D2
:102CA00000011C021D0E18031E16140F1911040832
:102CB0001F1B0D17151310071A0C12060B050A0916
:102CC00000081200FEB501920D460646582B01D0B1
:102CD000174800E0154800900898029030462843B5
:102CE00005D1029A1068411E116030210170019CCB
:102CF0003046284313D030462946224600F01AF8C1
:102D000007460D4622460AF06DFF301A0099085C0E
:102D1000029B19684A1E1A6008703E46E8E702984E
:102D200000680BF0D1F8401EFEBDC0462223010012
:102D30006623010080B5102A06D0082A09D1C008F0
:102D40004A078018C90880BD00090A0780180909C8
:102D500080BD002904D111460AF018FD002180BD74
:102D600000230BF053F880BDF0B5C9B0044602E073
:102D7000092808D1641C20781F28F9DD2028F9D003
:102D80003E28F7D003E0002801D122462CE0651C44
:102D900028460AF04AFF421C2918824201D20A46FC
:102DA00022E0201803E0C91EC01EA34215D90278F4
:102DB000202A01D0092A10D1A04210D9421E13782E
:102DC000202B01D0092B0ED1A2420AD9831E1D78D7
:102DD000202DE8D0092DE6D006E0421C04E0024692
:102DE00002E08A1E00E04A1E0025157021780029A5
:102DF00022D0204604E0C21CC178002910461BD016
:102E00000A46613AD2B2192A01D8203901704178B4
:102E1000002911D00A46613AD2B2192A01D82039C4
:102E200041708178002907D00A46613AD2B2192A46
:102E3000E1D820398170DEE720784C285DD16078B8
:102E400054285AD1A078552857D1E078522854D127
:102E500020794E2851D1607920284ED1A01DF74904
:102E600008AA0AF0E1FD012800D08EE2F44D28788E
:102E7000002849D1F34F3868F3490968401A43D410
:102E800009A80AF079FFF148002404700AF038FA22
:102E9000EF480460EF48046001262E7038687D21F9
:102EA000090140186438E8490860089D2846214611
:102EB0000AF0BBF90028304600D1E043E64908603B
:102EC000284621460AF09FF9002801D0F007454026
:102ED000E2480560E2480AF04FFEE24908700998AE
:102EE000E14908600A98E1490860E1480BF012F8EE
:102EF000E0480BF00FF8E04869E2D24F396820460D
:102F000009F054F8002801D049B0F0BD06A80AF035
:102F100033FF0699079A204602F040FD002806D0AC
:102F2000CB4800210160CB480160D4484FE22078B3
:102F3000502823D16078492820D1A07844281DD179
:102F4000E07820281AD1201D05A90091CC4909AAB2
:102F500008AB0AF069FD032800D018E20999C448BB
:102F6000089A059B0EC0C34C0EC40C3C0C380AF0EA
:102F7000D1FF20460AF0CEFFC24828E2207842283E
:102F800048D16078412845D1A078532842D1E078D3
:102F900045283FD1207920283CD1601D00252946B5
:102FA00003F0E4FD0646B84C21460AF02CF90490E3
:102FB000B64F304639460AF041F9002800D137466D
:102FC0000498002800D13C46A04805709C48057034
:102FD0000AF096F99E480460204629460AF00AF94C
:102FE000002809D09B480560A1480AF093FFA1483A
:102FF0000AF090FF0AF0D8F9002120460AF015F9EE
:103000000546F549204609F02DFA002D00D1C2E110
:103010003F21C1E120784D2852D160784F284FD10F
:10302000A07854284CD1E0784F2849D120795228F3
:1030300046D16079202843D17D2000010890A01D51
:10304000FD4909AA08AB0AF0EFFC002800DCBDE14D
:10305000099D0024284621460AF0D5F80490F84E30
:10306000284631460AF0EAF8002800D12E46F748F3
:103070000499002900D1344609940899814200D965
:103080000890DC4801210170DB48002101700AF042
:1030900037F90998DD490860DD490860089800287B
:1030A00001D039680818DB490860DB480AF032FFB4
:1030B000DA480AF02FFF089B0999E6480A4665E0BE
:1030C0002078502866D16078572863D1A0784D28A1
:1030D00060D1E07820285DD17D2000010590201D81
:1030E00005A90091D74909AA08AB0AF09DFC02285E
:1030F00000DA4EE1099E0024304621460AF083F8AA
:103100000490CF4D304629460AF098F8002828460A
:1031100000D1304604990029214600D10146099189
:10312000089E304621460AF06EF804903046294643
:103130000AF084F8002800D13546C44804990029D3
:1031400000D12C4608940599814200D90590A948E0
:1031500001210170A848002101700AF0D1F80998F6
:10316000AA4908600898AA4908600598002801D073
:1031700039680818A7490860A7480AF0CBFEA74895
:103180000AF0C8FE059B089A0999B14809F0DCF8D5
:1031900049B0F0BD207850287AD16078552877D191
:1031A000A0784C2874D1E078532871D12079452833
:1031B0006ED1607920286BD1A01D9F4909AA08AB68
:1031C0000AF032FC022800D0FCE07D200490099C2B
:1031D000204629460AF017F80390994E20463146BA
:1031E0000AF02CF8002800D1264604980001039923
:1031F000002900D1354609950899814200D90890E7
:103200007C48012101707C48002101700AF078F8A7
:1032100009987E4908607E4908603868089908184E
:103220007C4908607C480AF075FE7C480AF072FE12
:10323000089909980AF08EF849B0F0BD13280100EA
:103240009B332020F832202004332020A03320207C
:10325000603320203C332020C0322020D032202078
:10326000CC3220209C332020C4322020C8322020A1
:10327000B0312020D4312020472601003026010023
:103280001827010021270100000070C200007042D1
:10329000207851281BD16078552818D1A07849286A
:1032A00015D1E078452812D1207954280FD16079C2
:1032B00020280CD1A01D00210A2207F077FA4142F4
:1032C0004141584A117000287ED05A487FE020784A
:1032D000542819D16078452816D1A0784C2813D1EC
:1032E000E078452810D1207920280DD1601D0021DB
:1032F0000A2207F05BFA411E02468A4149490A70D8
:1033000000285DD1494862E03449204609F038F987
:10331000002810D03249204609F032F9002828D080
:103320003049204609F02CF9002826D020460AF022
:1033300063FB49B0F0BD2F4805702F48057009F0B8
:10334000DFFF2E4805602E4805602E4805602E4898
:1033500005602E4805602E4805602E4805602E4801
:103360000AF0D8FD2D480AF0D5FD0AF01DF82C48CA
:103370002DE006F013FA49B0F0BD0AF009FD1A4835
:1033800005601A4805601A4821E037481FE03548B3
:103390001DE02D481BE0BF21090608F050F90AF096
:1033A000ABFA009001902D4A2D4B0120010209A893
:1033B0000AF022F9401EFE2800D9A5E509A806E07A
:1033C000194804E01D4802E0194800E022480AF0CC
:1033D00037F849B0F0BDC0460000C842F3270100ED
:1033E000FD27010034270100203320202433202032
:1033F0005A250100A03320209B3320206033202059
:103400003C3320200C33202014332020583320203C
:103410005C33202010332020B0312020D4312020F4
:103420009A260100AE332020E8250100DC250100AA
:10343000812501008E2501006B270100D0250100A8
:103440000000AA42EA260100C2260100102700005F
:1034500001280100BE27010024260100512201009D
:10346000D31D0100CC2601000C260100F0B5FFB0F1
:10347000A4B01E4602911090A8980A908000E949D5
:103480000D585C1E1192D01E1821019109F00CFFFD
:10349000C1178843011B15910D952D190E908100C0
:1034A0001496B0000F91081ADF494018061D002736
:1034B00066ACAF420DDC1598C01903D430680AF031
:1034C000E1FA01E00020014603C47F1C0034361DF0
:1034D000EFE71498C00066A94018083800230D9F34
:1034E000BB4224DC1293002513900746109C2E4605
:1034F0001595149886420FDA03CC0CCF083F083C90
:103500000AF064FD159A2B4606F009FB15900D464E
:10351000761C0834083FECE7129BD80016A90A185D
:10352000159C0C5055605B1C13980830D7E717208A
:10353000C0430E994843119941180846183809901C
:103540003020401A04902F200591401A03900F98C4
:10355000B54908180F9016A8083808908FA8011FC1
:10356000B800079108180690F80016A90A180B5819
:10357000526808990E188FA815900E9738460128A2
:103580002ADB37460026139018461146129232461F
:103590001193A64B0AF01AFD09F078FF0AF072FAAF
:1035A00004460D4632463E46A14B0AF00FFD119AE5
:1035B000129B06F0B4FA09F069FF159901C1159143
:1035C00003CF22462B46083F06F0A9FA034613987C
:1035D0000A46401E083ED2E718461146099F3A4661
:1035E00007F0E2FE05460E46FF208305002428462C
:1035F00022460AF0EBFC06F093FF0C9422468D4B1A
:103600000AF0E4FC2A46334606F089FA04460D46E1
:1036100009F03CFF06460AF035FA02460B46204602
:10362000294606F077FA0446012F15915FDB0E98C4
:1036300080008FA90818001F01680A46049B1A41E0
:1036400096190B969A40891A0160039801410D9EC4
:10365000794D0C9101295ADB139400248FA821463F
:103660000E9A91420EDA0268002C2B4602D1002AF3
:1036700006D06B1C9A1A02600124491C001DEFE75A
:103680000024FAE7099801280B996C4F10DB059884
:1036900019286B4803D005981A2809D169480E9952
:1036A00089008FAA5118091F0A6802400A600B9905
:1036B000491C0B910C98022828D100203946139AF6
:1036C000159B06F027FA054602200C90002C00D12D
:1036D00084E000200C463946099A07F065FE024650
:1036E0000B462846214606F015FA044610E00B96D4
:1036F000002FF54D69D020460C9AF44B09F067FD78
:1037000000280D9E03D002200C90A5E7139C15996C
:103710000025204627460C462A462B4609F03CFD4C
:1037200000285DD00E9CA000079909182246B242DD
:1037300004DD521E0B681D43091FF8E7002D069992
:10374000224663D10868521C091F0028FAD0149839
:103750000019C00066A90D181192601C944232DA5B
:10376000129080000F9908580AF08CF9149AA21848
:10377000D20066AB9C1898506160002313952C46CC
:10378000109F19461D461498814212DA3868159127
:10379000796822681E4663680AF018FC32462B4698
:1037A00006F0BDF903460D461599491C0837083C3B
:1037B000E9E7129CE00016A90A180B505560139D0A
:1037C0000835119AC9E71746CEE60E9880008FA9F2
:1037D0000818001F0068C1150D9E3AE72C4697E7B0
:1037E0000198059E821B3846214607F0DDFD0546FF
:1037F0000C460022B74B09F0EAFC002824D12846E9
:10380000214609F043FE06460E9C3AE08FA90818AF
:10381000001F099A183A641E0168001F0029F9D098
:1038200033E0C046CC230100901801000000703E38
:10383000000070C1000020C0FFFFFF000000F03F4B
:10384000FFFF7F00FFFF3F000027A34B28462146D4
:103850003A460AF0BBFB09F019FE06460AF012F9D7
:103860009E4B3A460E9F0AF0B1FB2A46234606F0CD
:1038700056F909F00BFEB9008FAA50507C1C059830
:103880000990A0008FA90E50099A002090490F902E
:1038900007F08AFD0646A0008FAA1218E50016A8B8
:1038A000109547190E94002C19D4159410680C46E5
:1038B00015460AF0E7F802460B46304621460AF064
:1038C00085FB03C7002230462146834B083F0AF0A0
:1038D0007DFB0646159C641E2A1F083FE3E716A8D9
:1038E000109942180E9F3B46002B0A990D982ED432
:1038F0001293F91A8842149000DB1491119100235D
:1039000013921746764C19461D461498814212DCD4
:103910002068159161683A681E467B680AF056FB7C
:1039200032462B4606F0FBF803460D461599491C16
:1039300008340837E9E71198C0003EA90A180B506F
:103940005560129B5B1E139A083A0E9FCCE7481EE7
:1039500002281FD3002955D0032900D0AEE03EA88D
:1039600010990C18083C3846002859DD0AF028FA4E
:1039700002460F462846314615463B4606F0CAF831
:103980000AF0E4FAA0C40E9F206015986160401E02
:10399000103CE9E7FE0000242546002F0CD43EA889
:1039A000811982594B682046294606F0B8F804462A
:1039B0000D467F1E083EF0E701260C980028284699
:1039C00001D0F007684002990C6048603E983F992A
:1039D00022462B4606F09EF83EAC08340E9DAE42C1
:1039E00006DC0CCC083C06F09AF8761C0834F6E7A6
:1039F0000C9A002A02D00122D2075140029A90600C
:103A0000D1605BE0F8003EA90C1800200146002FB1
:103A100022D40CCC083C06F082F87F1E083CF6E766
:103A20003EA810990C18083C384601281DDD0AF004
:103A3000C7F907460B46284631463A461D4606F06A
:103A400069F80AF083FA27600E9F6560A0601598F8
:103A5000E160401E083CE8E70C9A002A02D00122EF
:103A6000D2075140029A03C228E00F980146022F64
:103A70000ADB3EAA109C131912595B6806F04FF836
:103A80007F1E083C1094F2E706463F983E9A0C9B36
:103A9000002B0CD00123DB075840409C419D5D402A
:103AA0005940029B1A601A1D71C2596106E0409B81
:103AB000419C029D2A602A1D59C2696107210B9809
:103AC00008407FB024B0F0BDFFFFFF000000E03FE2
:103AD0000000F03F000070410000703E000070C127
:103AE000681E0100F0B5FFB0DCB0E09D002D30D0C5
:103AF000002B2ED0002A2CD0FC4C2478002C28D16E
:103B00001C4654436400A54223D1F94CF94F2E19A9
:103B100013367F1EBE421CD30A910B900892099364
:103B200001F00EFB06460AF04BF8002800D155E1E3
:103B300006F0BAF800280FD00B98FF2800D156E104
:103B400006F0B2F800283AD0EB48C61C6027E84CD3
:103B500007E0EA4809F074FC7FB05CB0F0BD7F1E5E
:103B60002DD03C361BA93C22304604F07DFB0028BA
:103B700025D01BA80178A529F1D180790128EED1A3
:103B80001BA840880028EAD01BA98A88002AE6D012
:103B90001D99D84BCB18A342E1D31E9B4243500042
:103BA0008342DCD1C91814311BA8D34A9142D6D222
:103BB00041780B988142D2D10B9806F0A1FAE19896
:103BC0000290284614300490CD4901200390000350
:103BD00007902818133008400590C748C71C0020DC
:103BE0000690602602E0361F00D144E138463C30A2
:103BF0000CA93C2204F038FB002800D174E10CA889
:103C00000178A5292ED1807901282BD10CA84288D2
:103C1000002A27D00CA88388002B23D00E98B54902
:103C20004118B34CA1421DD30F9953435A009142FE
:103C300018D142181432B04B9A4213D2069CE2B209
:103C4000D20001921BAB019A9A180092019A9850E7
:103C5000079A51181331AA4A114008180099486070
:103C6000641C0694384678300CA93C2204F0FCFA17
:103C7000002800D138E10CA80178A5292ED180793F
:103C800001282BD10CA84288002A27D00CA88388B1
:103C9000002B23D00E9897494118954CA1421DD373
:103CA0000F9953435A00914218D142181432924B43
:103CB0009A4213D2069CE2B2D20001921BAB019A47
:103CC0009A180092019A9850079A51181331FC4A99
:103CD0001140081800994860641C06943846B430B6
:103CE0000CA93C2204F0C0FA002800D1FCE00CA88A
:103CF0000178A5292ED1807901282BD10CA84288E2
:103D0000002A27D00CA88388002B23D00E98E849DE
:103D10004118E64CA1421DD30F9953435A009142DA
:103D200018D142181432E44B9A4213D2069CE2B2E4
:103D3000D20001921BAB019A9A180092019A9850F6
:103D4000079A51181331DE4A11400818009948604B
:103D5000641C0694F0370CA93C22384604F084FA1F
:103D6000002800D1C0E00CA80178A52900D03AE7CE
:103D70008079012800D036E70CA84288002A00D1BB
:103D800031E70CA88388002B00D12CE70E98C84996
:103D90004118C64CA14200D225E70F9953435A005F
:103DA000914200D01FE742181432C34B9A4200D30D
:103DB00019E7069CE2B2D20001921BAB019A9A1855
:103DC0000092019A9850079A51181331BC4A114039
:103DD000081800994860641C069404E7B54A1BACB7
:103DE00040212046334609F007FC2046B2E6002079
:103DF0000B90AE4C05F058FF002800D1DFE6AE482E
:103E0000C61C602702E07F1E00D1D8E63C361BA905
:103E10003C22304604F028FA002800D1CFE61BA847
:103E20000178A529EFD180790128ECD11BA8408821
:103E30000028E8D01BA98A88002AE4D01D999C4B51
:103E4000CB18A342DFD31E9B424350008342DAD1FA
:103E5000C91814311BA8984A9142D4D241780B98C2
:103E6000C0B28142CFD10B98411C80B2FE280B9189
:103E7000C0D392486EE60798059908188E49884283
:103E800032D20699C9B20029079E3BD0CB001A4610
:103E9000103A0693083B079F3E46002403E018347F
:103EA0000699A1422ED01BAF3959814203D239194C
:103EB0004F68BE4213D3A34224D01BAF3F19B96849
:103EC000814202D2FF68BE4209D3A2421AD01BA986
:103ED0000F1939698142E2D27F69BE42DFD205986B
:103EE000381875498842D7D3764833E6A83320205E
:103EF000001081FF000081FF01007F007723010097
:103F000000F0FFFF704809F09BFA04988419A6425C
:103F10001DD23746384605F08FF9002800D18BE0D6
:103F200007983F18A74212D2384605F085F90028B5
:103F300000D181E007983F18A74208D2384605F023
:103F40007BF9002878D007983F18A742E2D31BAF2F
:103F50000A98394608F04AFD5348039901705C49B4
:103F60000B9808705B49089808805B49099808809D
:103F70005A4805605A48029901605A480024046072
:103F80005948E143016059480660143658480660B4
:103F9000584804603878584D2870002849D01BA82C
:103FA00040786870002849D01BA88078A870002845
:103FB00047D01BA8C078E870002845D01BA800791E
:103FC0002871002843D01BA840796871002841D08F
:103FD0001BA88079A87100283FD01BA8C079E87180
:103FE00000283DD01BA8007A287200283CD01BA8CE
:103FF000407A687200283BD01BA8807AA8720028FB
:104000003AD01BA8C07AE872002839D01BA8007BE0
:104010002873002838D01BA8407B6873002837D04D
:104020001BA8807BA873002836D01BA8C07BE87330
:1040300037E0681C0F2132E024488BE5A81C0E21D4
:104040002DE0E81C0D212AE0281D0C2127E0681D29
:104050000B2124E0A81D0A2121E0E81D09211EE012
:104060002846083008211AE028460930072116E0C2
:1040700028460A30062112E028460B3005210EE0C2
:1040800028460C3004210AE028460D30032106E0C2
:1040900028460E30022102E028460F30039909F02D
:1040A00040FEEC73154855E5A8332020001081FF31
:1040B000000081FF6820010001007F000C24010046
:1040C00000F0FFFFB32201007C2401006C240100FA
:1040D000953320208833202066322020AC322020E7
:1040E000A83220202C33202034332020A43220205A
:1040F0006C3320203833202038322020A9240100BE
:10410000F0B5B5B009A80690E5480078012800D0C0
:10411000E0E208A809F0D4FB002800D1DAE2069812
:1041200020300690DF4DE04CE04E05E008A809F095
:10413000C7FB002800D1CDE2089829684A1C2A60F4
:10414000FE4B5854FE4F39680B0A4840C0B28000FD
:10415000FC490858584038602068401C2060012104
:10416000079109028A4202D031688842DED1F64EB8
:104170003068F24902F0A2F900284AD02868316874
:104180000818306000272F6023681DAE28213046B4
:10419000EE4A09F031FA3046E74E09F051F921684C
:1041A00030688142C2D1E6490968CC43E849189198
:1041B000E84D298818AA9180E7490988D180079994
:1041C0001A911B901C94DB480770E4480068A042D9
:1041D00025D1E348006818A9142202F06FF90028DD
:1041E0001FD00394DF48C41C3C341DA93C22204648
:1041F00004F03AF8002807D01DA80078FF2800D165
:104200002EE17F1C602FEFD1D648C41C002660270A
:104210000DE00020C74908702860D34858E2D34811
:1042200056E2D34854E2059F3F1F00D1FAE02046F2
:104230003C301DA93C252A4604F016F8002800D180
:104240000CE11DA80178A5292FD1807901282CD156
:104250001DA84088002828D01DA98988002924D0BD
:1042600004961F9AC34BD318C34EB34201D2049E87
:104270001BE0209B414348008342049E15D1D01887
:104280001430B849884210D23046761CC0B245433B
:10429000BA4840191DA92CC92CC00597ACC9ACC09F
:1042A000ACC9ACC0ACC9ACC0059F204678301DA9D4
:1042B0003C252A4603F0D8FF002800D1CEE01DA8F7
:1042C0000178A5292ED1807901282BD11DA84088FD
:1042D000002827D01DA98988002923D005971F9A77
:1042E000A44BD318A44FBB4201D2059F1AE0209BD8
:1042F000414348008342059F14D1D0181430FC4933
:1043000088420FD2701C0490F0B24543F94840191E
:104310001DA92CC92CC06CC96CC06CC96CC06CC9FF
:104320006CC0049E2046B4301DA93C252A4603F0EB
:104330009BFF002800D191E01DA80178A5292FD16D
:10434000807901282CD11DA84088002828D01DA9DB
:104350008988002924D004961F9AE44BD318E24E92
:10436000B34201D2049E1BE0209B4143480083429C
:10437000049E15D1D0181430DD49884210D2304641
:10438000761CC0B24543DB4840191DA92CC92CC07E
:104390000597ACC9ACC0ACC9ACC0ACC9ACC0059F3A
:1043A000F0341DA93C2520462A4603F05DFF002875
:1043B00054D01DA80178A52900D035E780790128BF
:1043C00000D031E71DA84088002800D12CE71DA9A6
:1043D0008988002900D127E705971F9AC34BD31876
:1043E000C14FBB4200D21EE7209B4143480083429D
:1043F000059F00D018E7D0181430BD49884200D37B
:1044000012E7701C0490F0B24543BA4840191DA948
:104410002CC92CC06CC96CC06CC96CC06CC96CC098
:10442000049E01E7F0B204F051FB002816D0B34817
:1044300009F006F8AE48C41C0027A74EA74D3C342F
:104440001DA93C22204603F00FFF002806D01DA81E
:104450000078FF2804D07F1C602FF0D1A64837E1F8
:1044600009AC201D3821FF2209F054FCA520207042
:10447000A348007860702888608099480088A080F0
:104480000798A071974800680B9030680C900398CB
:104490000D909748C61C0020029060240CE0C04696
:1044A000A8332020383320202C332020AC32202089
:1044B0000F46059D641E35D03C361DA93C2530466F
:1044C0002A4603F0D1FE00282CD01DA90A78A52A7F
:1044D000F0D189790129EDD11DA94A88002AE9D0B6
:1044E00005951DA98D88002DE3D039461F9F7F4B70
:1044F0000497FB187C4FBB42DAD3209B55436A00DC
:1045000093420F46D5D1229A02998A42059D00D83E
:10451000029A0499C9181431754B994200D3029A32
:104520000292C7E72E4600282AD16B4D069C0798B9
:104530002AE0C046A8332020AC322020002E2020C4
:1045400034332020901401006C332020EC22010031
:10455000494D47308833202066322020A832202061
:10456000A432202001007F00792101004C250100A8
:10457000BB230100000081FF001081FF000020200C
:104580000298401C544D069C0E905E490A7809A87A
:104590000276002A47D04A7809A84276002A45D0F8
:1045A0008A7809A88276002A43D0CA7809A8C276F8
:1045B000002A41D00A7909A80277002A3FD04A7917
:1045C00009A84277002A3DD08A7909A88277002A73
:1045D0003BD0C87909AAD077002839D0087A207052
:1045E000002838D0487A6070002837D0887AA070C8
:1045F000002836D0C87A069AD070002835D0087BBB
:10460000069A1071002834D0487B069A5071002811
:1046100033D08A7B069BD81D9A71002A31D0C97B82
:104620000170069C31E019300F212CE01A300E2168
:1046300029E01B300D2126E01C300C2123E01D3029
:104640000B2120E01E300A211DE01F3009211AE055
:104650000821204617E0601C072114E0A01C062159
:1046600011E0069CE01C05210DE0069C201D0421A4
:1046700009E0069C601D032105E0069CA01D0221A7
:1046800001E00121069C09F04CFBF9B20020E07129
:104690001D485F291CD87F210F40324677431449BB
:1046A000CB193F3309A90446184601F007FF01461C
:1046B000204600290CD012480378286800900398FF
:1046C0000190124A1DAC6021204608F095FF20465B
:1046D00008F0B6FE35B0F0BDAC3220208833202083
:1046E00066322020A4322020001081FF000081FFCC
:1046F00001007F000000202028220100622101002B
:104700009533202038322020EC23010001200100C5
:10471000F0B589B0064607A809F02EFB0798D649E0
:104720000A68871A089AD54B1C68151BD44C26605A
:1047300008601A60D3480078012810D1D248076079
:10474000D2480560D2480168002920D0711A1ED4D1
:10475000D04900240C60D0490C60046019E0049535
:10476000CE480468CE4805682046294608F04BFD2F
:104770000028039623D07D20C105204606F05FFF68
:104780000446294608F05AFD002828D028E0C148F0
:104790000468C44E35682846214608F034FD0028D8
:1047A00000D196E03F200106284606F048FF054666
:1047B000214608F043FD002800D19BE09BE0204605
:1047C000294608F03BFD002809D0B749204606F0ED
:1047D00036FF0446294608F016FD002800D125467C
:1047E0000295AE480560B14D2C68384609F02CF8AA
:1047F000214606F01FFF7D21CF05394607F032FE26
:10480000214606F01CFF04462860A94E356804982E
:1048100009F01AF8294606F00DFF394607F022FE86
:10482000294606F00CFF074630600021204604911F
:1048300008F0FBFC06469F49204607F013FE3F2187
:104840000A06BF210D06002E294600D0114601920E
:1048500006F0F5FE09F050F804468B48046038462F
:10486000049908F0E2FC06463846924907F0FAFD42
:10487000002E00D0019D294606F0E1FE09F03CF82B
:1048800082490860201A8C490860029806900590B9
:10489000039E304608F06EF8029089480468894DFE
:1048A0002F780798089906AA05AB03F0FDFD012FA4
:1048B00038D1002800D1C3E0FA4800210160FA484D
:1048C0000160FA4801607D48016008F06DFD09B0A3
:1048D000F0BD2846214608F0B1FC00280AD0BF20D0
:1048E0000106284606F0ABFE0546214608F08BFC83
:1048F000002800D12C463460ED4F3E6866480568BC
:104900003046294608F07FFC00285CD03F20010695
:10491000304606F094FE0646294608F08FFC002833
:1049200062D062E0341B002805D10798089906AAD6
:1049300005AB02F053FF002C00D5E4E001270398FB
:1049400009F0B6F800210491002818D009F0A4FA63
:104950000028384600D12878C00710D1059C069859
:10496000002108F047FC002809D00021204608F06B
:1049700041FC002803D0D248069005900497039884
:1049800009F022F8002800D02F78F80704D109F0A8
:1049900083FA002800D197E0039809F089F80028ED
:1049A00000D1B0E009F078FA002800D0ABE006981A
:1049B000C44C214607F056FD06900598214607F0A5
:1049C00051FD04469EE03046294608F037FC002899
:1049D0000AD0BF200106304606F031FE06462946C1
:1049E00008F011FC002800D135463D6020462946DC
:1049F00006F066FAC0480068002108F0FBFB0028BA
:104A000000D14CE13C68BE480568BC480068002104
:104A100008F0F0FB002800D141E10021284608F011
:104A2000E9FB002800D13AE100252046294608F09C
:104A3000E1FB002800D132E19E48057009B0F0BDCD
:104A4000AC480568684208F0FFFEA14E314607F009
:104A500009FD04469F480460284608F0F5FE3146EB
:104A600007F000FD01469C4801609D480460A04895
:104A70000160204611E1C04620332020243320204D
:104A8000F8322020A0332020D4322020E832202009
:104A900010332020583320205C3320203C3320204A
:104AA000603320200C332020000080BEB032202054
:104AB000B43220200000C842E4322020EC32202012
:104AC000043320209B3320200699029C204606F0C8
:104AD000B6FD06900598214606F0ACFD059009F05C
:104AE000DBF900280FD106980024214608F08BFB43
:104AF000002801D0002006900598214608F083FB8D
:104B0000002800D00594069C6F4E2046314608F0E0
:104B10007AFB05466D4F2046394608F08FFB00288A
:104B2000384600D12046002D344600D10446069474
:104B3000059D2846314608F066FB03902846394615
:104B400008F07CFB002800D12F460398002800D1F4
:104B50003E4605960498002826D000252046294682
:104B600008F051FB04905A4F2046394608F066FB86
:104B70000028384600D12046049900292C4600D14F
:104B8000044606943046294608F03DFB0490304622
:104B9000394608F053FB002800D137460498002816
:104BA00000D13D46059500E035464A4804604A4834
:104BB0000560414802684948214607F015F8484F0A
:104BC00038603E4802680599464807F00DF80490A1
:104BD0003D68069C00262046314608F00BFB002865
:104BE000304624D1039500252046294608F00BFBCA
:104BF000002801D1204602E00120C00760403A4968
:104C000007F030FC4121090606F019FD0746204651
:104C1000294608F013FB002804D00398394606F013
:104C20000EFD03E00398394606F004FD2C4F386072
:104C3000059F04463846314608F0DCFA002828D1A2
:104C4000254600243846214608F0DDFA002801D127
:104C5000384602E00120C0077840234907F002FCF3
:104C60004121090606F0EBFC204907F0FBFB064654
:104C70003846214608F0E2FA002804D0049831466C
:104C800006F0DDFC03E00498314606F0D3FC06464E
:104C90002C46174806602046314606F011F909B047
:104CA000F0BDC046DC322020F0322020D832202057
:104CB00014332020A0332020B0322020B432202012
:104CC000000020416666263F000070C2000070426E
:104CD00000007041DC322020F0322020B031202052
:104CE000D8322020D43120203333333F8FC2753F58
:104CF000EC322020C0322020583320205C3320208A
:104D00000C332020F0B597B0F3480578042D05D179
:104D1000F54800210170F14801215DE0EF4801787C
:104D200000292CD0F0480078012856D1ED480578AC
:104D3000002D54D005208201E9490978052D51D86C
:104D40006E1E022900D1A4E0012967D0002900D0FD
:104D5000C8E0032D00D906E1F7B2B800F2490858BF
:104D60000590F2480478182070432030C5B22B46D5
:104D700018330020A74200D100E10646FFE0D849E1
:104D80000D70D84900220A70D74901220A700270BA
:104D90000520820116468F360096002420232046E7
:104DA000214607F0EFFF022D03D8A800E3490A5877
:104DB00000E0E14A102000960190029408200421AE
:104DC000CE4B01F0BBF9C7480178491CCAB201704B
:104DD000072A02D3C4480021017017B0F0BDC048B3
:104DE0000578D5E7032903D28800C2490C5804E0AE
:104DF000BE4C2078002800D1BD4CBF4E0096002547
:104E00009821AA23284607F0BDFF102000960190A4
:104E1000029508209A21B94B2246D2E7144604F0A5
:104E2000A1FD002800D188E0BB4F3978814201D331
:104E3000411E3970C9B2091F224600D200218919CA
:104E4000CDB2854200D38EE006A9284606F03AFA94
:104E50002246002800D186E006A8037801460C31DE
:104E600042888088009101920290AC4A0DA82821C6
:104E7000059008F0C1FB397818207043C3B21E4674
:104E800020363833002004918D4200D108E10746D6
:104E900007E1144606A808F06FFF032E00D9D7E0FB
:104EA0007E4436797600B74401B180A0069B07980E
:104EB0000090974A0DAD2821284608F09DFB00265A
:104EC0000096202138233046224607F05BFF2878E1
:104ED000002800D177E710200096019002960C2060
:104EE0002421B2E092490F78062F01D308700746BB
:104EF000391F0020042F00D201468919CCB2E100ED
:104F00008C4B5958059118217143CBB21D46203561
:104F10003833BC4201D0064600E01F2600962946E1
:104F200007F030FF059A1078002800D14BE70420E5
:104F30000543BC4230D0734B2FE0022D00D19EE0E0
:104F4000012D22460FD10024009420213823204631
:104F500007F018FF1020009401900294714A0C2071
:104F60002421684B2DE718207043C3B21946203125
:104F700038330020009007F005FF24E71F26009635
:104F8000294607F0FFFE059A1078002800D11AE79D
:104F900004200543A742CED1584B00201021009693
:104FA000019102900C2029460BE708F06DFF0646A0
:104FB00008F062FF0090544A0DAD28212846334680
:104FC00008F01AFB0026009650216823304622463E
:104FD00007F0D8FE2878002800D1F4E610200096CB
:104FE000019002960C2054212FE0002500956821A5
:104FF00080232846224607F0C5FE10200095019028
:1050000002953F4A0C206C213E4BDAE608F076FF11
:10501000064608F079FF00903C4A0DAD282128464D
:10502000334608F0E9FA002600963821502330462E
:10503000224607F0A7FE2878002800D1C3E61020FA
:105040000096019002960C203C210DAA2D4BB8E64B
:1050500018207043C5B2294620312B46383300262C
:1050600000963046224607F08DFE2435102000962B
:1050700001900296274A0C20224B2946A1E60025E2
:105080000095382150232846224607F07BFE102049
:10509000009501900295224A0C203C21194B90E684
:1050A0001F2700973146224607F06CFE05980078CE
:1050B000002800D187E6042006430498854201D0E9
:1050C000104B00E00D4B0020102100970191029041
:1050D0000C200DAA314674E6BD332020BC332020BD
:1050E000BE332020AA332020A9332020F8312020ED
:1050F000F42401008414010030840000FFFF00004C
:10510000FC23010018C60000A0220100AA23010010
:1051100000260100A8250100963320201C24010050
:10512000C6220100B8260100C4250100AB332020AF
:1051300093332020201F01004C270100B8250100D7
:10514000F0B595B0012001030D91FD4E316147038B
:105150003761850335600424204608F0EDFE376092
:10516000204608F0E9FEF7480068376135612046BF
:1051700008F0E2FE3760204608F0DEFEFD480068D9
:1051800037613561204608F0D7FE3760204608F0C9
:10519000D3FEF848006837613560204608F0CCFE41
:1051A0003760204608F0C8FEF24800683761356075
:1051B000204608F0C1FE3760204608F0BDFEED48ED
:1051C000006837613560204608F0B6FE376020463B
:1051D00008F0B2FEE748006837613560204608F005
:1051E000ABFE3760204608F0A7FEE2480068376152
:1051F0003560204608F0A0FE3760204608F09CFE8F
:10520000DC480068376137613560204608F094FE5D
:105210003760204608F090FED64800680C90376151
:105220003560204608F088FE3760204608F084FE8E
:10523000D04800680B9037613560204608F07CFE4E
:105240003760204608F078FECA4800680A90376147
:105250003560204608F070FE3760204608F06CFE8E
:10526000C4480068099037613560204608F064FE44
:105270003760204608F060FEBE4800680590376140
:105280003560204608F058FE3760204608F054FE8E
:10529000B8480068049037613560204608F04CFE3D
:1052A0003760204608F048FEB24800680190376138
:1052B0003560204608F040FE3760204608F03CFE8E
:1052C000AC4800680290376137613560204608F0CD
:1052D00033FE3760204608F02FFEA64800680E9087
:1052E00037613560204608F027FE3760204608F019
:1052F00023FEA04800680F9037613560204608F013
:105300001BFE3760204608F017FE9A48006811908F
:1053100037613560204608F00FFE3760204608F000
:105320000BFE94480068129037613560204608F003
:1053300003FE3760204608F0FFFD8E48006813909A
:1053400037613560204608F0F7FD3760204608F0E9
:10535000F3FD884800680690376135601095204657
:1053600008F0EAFD3760204608F0E6FD8148006855
:10537000149037613560204608F0DEFD3760204626
:1053800008F0DAFD7B48006837610004C00F089020
:105390001498800B02211491084007900698400B46
:1053A000204006901398000B0821139108400390A9
:1053B0001299C90A102212921140119A920A2023BE
:1053C00011931A400F9B5B0A40250F952B400E9DB1
:1053D0002D0A80200E9005405B19D2188918039879
:1053E0004018039002980004C00F02900198810BAE
:1053F0001498014001910498400B204004900598B6
:10540000000B1399084005900999C90A129A114096
:105410000A9A920A119B1A400B9B5B0A0F9D2B4024
:105420000C9D2D0A0E9805405B19D2188918059815
:1054300040180C903761109D3560204608F07CFDC7
:105440003760204608F078FD4A480068010A0E9847
:1054500001400E9137613560204608F06DFD3760E0
:10546000204608F069FD43480068400A0F9908404B
:105470000E9940180F9037613560204608F05CFDAA
:105480003760204608F058FD3A480068800A1199B4
:1054900008400F994018119037613560204608F098
:1054A0004BFD3760204608F047FD32480068C00ACF
:1054B00012990840119940181290376135602046C2
:1054C00008F03AFD3760204608F036FD29480068AC
:1054D000000B1399084012994018139037613560FA
:1054E000204608F029FD3760204608F025FD2148B8
:1054F0000068400B2040129037613560204608F06C
:105500001BFD3760204608F017FD1A480068850B20
:1055100014980540376110983060204608F00CFD63
:105520003760204608F008FD124800680004C10FEB
:1055300004980C9A8018019A1018029A104303E0FC
:1055400090120A4080130A400004069A039BD21866
:10555000079B9A18089B1A4312020243376113985B
:10556000129B18182818084310430D99316015B084
:10557000F0BDC04680130A40F0B58BB00390012304
:10558000F14801681A040A4057425741090C026861
:105590005D0415406C426C410668EC4A1078084383
:1055A000C00728D1EA480078032819D0012807D07D
:1055B000002820D1E9480178002915D1022116E000
:1055C000029304F0CFF9E14A029B002813D0E2498C
:1055D0000A78002A00D01046401E0870DB4A07E017
:1055E000DC480178002901D0491E00E00521017046
:1055F000DB48002101705805DA49002D02D00D4624
:10560000194601E00D4609780640080626D1D04823
:105610000078002813D003280CD001281ED1029353
:1056200004F0A0F9C94A029B002817D0014601974F
:10563000C94F08E0019702930621C64F03E0019786
:1056400002930321C54F3878401C08F09FF8397049
:10565000C34800210170029BBC4A019F7142714105
:1056600017702C70C04802784A40D10709D0002E2C
:10567000039F0ED10370BD4800210170BC48076034
:1056800039E0BA48002E039F10D01946C90710D040
:1056900031E0B649097800292BD1AD490A78002AB2
:1056A00022D0042A1ED1BA4A12781CE00178C90718
:1056B00021D1AF490968791A490919291BD3037007
:1056C000A34C207803284BD0012832D0002814D1D5
:1056D000A2480078012800D1D9E0002800D0DCE001
:1056E0000120DBE000220A70A34900220A709C49D5
:1056F0000A700021017096480078022809D1A54857
:105700000168791A89087D2903D30760944800212C
:10571000017093480078002803D1D80705D10BB059
:10572000F0BD9D480378D807F9D0FFF7EBFA0BB02E
:10573000F0BD1E468848007804A905F0C3FD002886
:1057400000D18EE004A8007806F0D2FE002800D137
:1057500087E08F48334606700420207030468FE083
:105760007C480078C00083490E1871680A7804A844
:105770000270002A00D186E04A7804A842701D46D3
:10578000002A00D190E08A7804A88270002A00D113
:105790008DE0CA7804A8C270002A00D18AE00A7994
:1057A00004A80271002A00D187E04A7904A8427156
:1057B000002A00D184E08A7904A88271002A00D1ED
:1057C00081E0CA7904A8C271002A7FD00A7A04A8AD
:1057D0000272002A7DD04A7A04A84272002A7BD045
:1057E0008A7A04A88272002A79D0CA7A04A8C2727E
:1057F000002A77D00A7B04A80273002A75D04A7B5E
:1058000004A84273002A73D08A7B04A88273002AFA
:1058100071D0CA7B04A8C273002A6FD00A7C04A886
:105820000274002A6DD04A7C04A84274002A6BD00E
:105830008A7C04A88274002A69D0CA7C04A8C27435
:10584000002A67D00A7D04A80275002A65D04A7D27
:1058500004A84275002A63D0887D04A98875039F37
:1058600063E04549464A474B474C484D00200D6090
:105870004C608B60CA60086148618861C8613346CA
:105880003749087037E71D46401C16214BE00220BF
:10589000207040480021016001E00320207036485C
:1058A000002101702E4825E7801C15213BE0C01C1B
:1058B000142138E0001D132135E0401D122132E093
:1058C000801D11212FE0C01D10212CE008300F2178
:1058D00029E009300E2126E00A300D2123E00B30AB
:1058E0000C2120E00C300B211DE00D300A211AE0C4
:1058F0000E30092116E00F30082113E01030072187
:1059000010E0113006210DE0123005210AE01330BD
:10591000042107E01430032104E01530022101E0E6
:1059200016300121039F08F0FCF904A80024C47577
:10593000FDF71AFA33681048104A202107F05CFE80
:10594000074804702B46D6E680130A405D322020BB
:10595000BD3320209333202096332020AB332020EA
:10596000BC33202053322020903320208F3320203E
:1059700094322020201F0100F8312020E827010068
:10598000756E64007420666F65206E6F496D616787
:10599000BF332020F4322020A9332020F0B589B075
:1059A0000378442B47D14378522B44D18378492B39
:1059B00041D1C378562B3ED10379452B3BD1437956
:1059C000202B38D1801DE44908AA07AB08F02CF839
:1059D000022800D032E1089E07980690D5480121A0
:1059E0000170E74D3046294607F00DFC0446E24FB2
:1059F0003046394607F022FC002800D13746002CFB
:105A000000D13D46CC480560DE4D069F384629460C
:105A100007F0F9FB0446D44E3846314607F00EFC39
:105A2000002800D13E46002C00D13546C348056011
:105A3000C3480025C3E00378532B32D14378502B61
:105A40002FD18378452B2CD1C378452B29D10379CD
:105A5000442B26D14379202B23D1801DC74908AA86
:105A600007F0E2FF012800D0E8E0089DB1480121DD
:105A70000170C34C2846214607F0C5FB0746BE4EC1
:105A80002846314607F0DAFB002800D12E46002FC9
:105A900000D13446A8480460A84800250560A848FD
:105AA0008DE00378442B48D14378492B45D1837846
:105AB000532B42D1C378542B3FD10379202B3CD1B7
:105AC000059106920125401DA34908AA07AB07F0DE
:105AD000ABFF022800D0AEE0089C079F00262046BE
