:10000000008020207DB500004F6400004F64000098
:1000100000000000000000000000000000000000E0
:100020000000000000000000000000004F6400001D
:1000300000000000000000004F640000798B000009
:100040004F640000799A00004F6400004F64000084
:100050004F6400004F6400004F6400004F640000D4
:10006000000000004F6400004F640000000000002A
:10007000000000004F640000E5B40000DDB40000A3
:100080004F6400004F6400004F6400004F640000A4
:100090004F6400004F6400000000000000000000FA
:1000A0004F6400004F6400000000000000000000EA
:1000B0004F640000000000004F6400004F64000027
:1000C000F0B5F3B007930592799A0E92789E0025C9
:1000D000EF437090139112950878A84C201843783C
:1000E000D80628D513984A1CDB0606D5481C11787B
:1000F00061184B78521C0146F6E7139070A8B04780
:100100000446401C01D100F0FAFD0BF0CEF99B48EB
:1001100000194078C00603D570A8B0470446F4E73C
:1001200070A80BF019FA1298401E1290601C934CA4
:1001300001D100F0E4FD01200A9054A801466C3181
:100140000C9101460C3103910D30009014A8401C15
:1001500001900B950D971196029554A870210BF004
:100160004AF8559770A813A912AA079B9847012827
:10017000109522D0002801D100F0A7FD401C029B61
:1001800001D100F0A4FD0F93274670A8B0470BF0F3
:1001900054F938194078C006F7D4374670A80BF0E8
:1001A000DBF91298411E1291601C39D10029109D73
:1001B0000F9A01D100F087FDB1E01398471C139707
:1001C000417800262A2935460BD101255495871CF4
:1001D000139706E0B819401C1390B85D71A98855B3
:1001E000761CBC5D204630380928F3D971A800215F
:1001F0000F9181550078002803D071A80AF0E6FB22
:1002000055904C2C2FD0682C20D06A2C0BD06C2C05
:1002100010D0742C0AD07A2C16D10120000307E0EC
:10022000109D0F9A7BE00120C00201E001204003F5
:100230002D1819E0B919481C13904A786C2A4F4CB4
:1002400018D1012000020AE0B81910E0B919481CC1
:1002500013904A78682A494C0ED1012040022D188B
:100260005495881C0AE080355495B819401C119E9D
:10027000424C04E0403500E020355495119E411C6D
:10028000139103780C9A13705B2B28D10A785E2A9D
:1002900005D102210D435495811C139182785D2A6A
:1002A00006D1481C1390097854AA1173009901E0F3
:1002B000084603990F9D0278002A09D05D2A07D0CD
:1002C000421C139200784B1C087010461946F2E746
:1002D0000D705D2A01D1401C13900C9803781846CC
:1002E0005B38132800D94EE70121814024480142A0
:1002F00000D148E731461E4670AC20460F4688477D
:10030000054620460BF025F91299681C05D10029F5
:10031000109D324603D100F0D6FC109D3246099163
:100320001046583820284CD83E460D9F4000C04605
:1003300078448088400087445301260326031C012B
:100340002603260326032603260351002603CE0098
:1003500025005100510051002603250026032603E5
:100360002603260329032500250026032603CE00A5
:1003700026032500260326032500C04680F500003D
:10038000010108001746559C70A8B04721460BF0A4
:1003900054F814AD002934D014AD2D2C02D02B2CE0
:1003A00000D0B2E014A8047070A80C46B0472146F3
:1003B0000BF043F8491EF64A00D1D3E00891019DA5
:1003C000A5E01046413806283E460D9F00D990E032
:1003D000012181407120014200D18AE0559D70A821
:1003E000B047044614AB401C09D00BF05EF82B2C30
:1003F00009D114AB002D0BD12B24002513E03C4672
:1004000011E00027B0E014AB002D0CD02D2C0AD148
:1004100014A8047070A8B0470446401C01D00BF02B
:1004200044F86D1E019B204661381A2801D32046EE
:1004300001E0204620384928E24F109703D04E288B
:100440002AD1E14F10970026B5421BD01098805D4D
:10045000002816D0214661391A2901D3214601E02E
:100460002146203981420CD11F469C5570A8119914
:1004700088470446401C01D00BF017F8761C3B4619
:10048000E2E73546E81E41424141083D6842684185
:10049000084310909D1964E20022002D5CD0302C9E
:1004A0005AD10F9230201F46187070A8B0470446EA
:1004B000401C01D00AF0F9FF7B1C681E00220121BC
:1004C0001091002800D1AAE1214661391A2900D2F1
:1004D000A8E12146A8E1549901250846284049068B
:1004E000174676D4002800D00EE1059810C8059074
:1004F0000BE1252A00D046E270A8B047252801D09C
:1005000000F000FC0AF0D1FF40E20891AC4A002064
:100510003B46115C8B4204D0401C0728F9D10020D7
:1005200000E01018801A012813D1302C5CD10F95EF
:1005300070A81090B047054610980BF00AF82020DC
:100540008543583D109501D0082010903B460F9DE3
:100550004CE09E49085C48E01946109204920A98C3
:1005600008907CE10027019D3A4638460A990F9190
:1005700062E0559F5498022101400F9114AC002F66
:1005800000D148E170A8B0470546401C089000D152
:10059000B1E010942C46E8B2002303990E7886420D
:1005A0000A4600D01A46491C002E1346F6D10F9B6E
:1005B00059425941531E9A419142119E2546109C21
:1005C00000D098E0611C20700AF06FFF7F1E0C467F
:1005D000D5E7002800D09DE0059810C805909AE066
:1005E00078220C980270CDE60A20109018466938DF
:1005F000C0B2102801D3002100E00121EA4FC7401A
:100600000F406F2B06D1302C0AD000200A990F9191
:10061000089A11E020463038414241410F42F4D05F
:1006200028466D1C047070A8B0470AF006FF089AAF
:10063000521E00200F900A98002F24D0002A22D0AA
:10064000002820D020202146814358291BD1089220
:1006500070AF3846B047014638460F460E9A90476D
:10066000E148C0194078800701D4089A0BE02C704B
:1006700070A8B0470AF0E1FE089A521E00D138E394
:100680006D1C102010900A9F002A23D01098082873
:1006900004D107202146814330290ED010980A2822
:1006A00003D1204630380A2807D31098102811D1DA
:1006B000CD480019407880070CD56E1C2C7070A8AE
:1006C00011991446884722460AF0B7FE521E0027A9
:1006D0003546D9E770A80AF03FFF1298401E1290E5
:1006E0000020287005460F98384001280D9F119E64
:1006F00000D04BE1F5E270A80AF02BFF129809999F
:10070000814200D087E004E300245598002841D4BA
:10071000054640E000245598002800D40546632A89
:1007200000D0054670A8B04701460AF0BEFE632F10
:1007300005D1481E0222D24390420FD917E0481C2F
:10074000022801D3002000E00120A74A5218527865
:10075000D2060A9A00D40246002A08D1002D06D0FB
:10076000002C01D002C400E000246D1EDAE770A85E
:100770000E9A90471298401E12900999814200D11A
:10078000B7E2732F49D1002C47D00020206044E00D
:1007900020FD00000125632A00D0054670A8B0475F
:1007A00001460AF082FE632F05D1481E0222D24381
:1007B000904217D921E0481C022809D3002008E004
:1007C00020FD0000DCFC000066FD00007AF5000062
:1007D0000120854A52185278D2060A9A00D402465D
:1007E000002A0AD1002D08D0002C03D0601C2170F3
:1007F000044600E000246D1ED0E770A80E9A9047D2
:100800001298401E12900999814200D171E2732F13
:1008100003D1002C01D0002020700D9FB6E004927F
:10082000154618E021462039582912D17C7070A84D
:10083000119988470446401C01D00AF036FEBA1CC4
:10084000AD1E00200A9904911146109008900F9A4D
:1008500005E0049205460A9808900F9A19460692F8
:1008600016460F95002D0D466ED02B2C39D02D2C11
:1008700037D02E2C2FD0452C01D0652C0BD10898C9
:10088000002846D0109800285ED0002A5CD10120B4
:10089000074610904AE020463A380A21C943884268
:1008A00029460CD8049800284ED04F4800194078AB
:1008B000800704D4202020437028E3D044E02B2C70
:1008C0000FD02D2C0DD0702CDCD0502CDAD0652C14
:1008D000D5D02E2C1DD10698104335D1012006907D
:1008E00023E00898002808D0481E00782021014302
:1008F0006529294601D1174618E00498002823D01D
:10090000481E00782021014370291DD11746294631
:100910000CE0002A07D0204630380122092813D8DD
:100920001746164602E00120109000270C7070A8B0
:10093000119988470446401C01D00AF0B6FD691C95
:100940000F9D6D1E3A468CE71099481E814110910B
:10095000701E8641002A0A9800D030461099014046
:1009600010910D9F70A80AF0F7FD601C02D012993B
:10097000491E129100212970129A099B9342119EDF
:10098000109D00D1A8E1012D00D0B3E10C980178B1
:10099000012508465B381D283ED804A2124C4000B1
:1009A000105A40008744C046818000002400220085
:1009B00022002200220022004600220057014600A9
:1009C0004600460046002200460022002200220087
:1009D0002200A30046004600220022005701220008
:1009E000460022002200460080F50000FFF7B5FB1C
:1009F0005499C80701D0FFF7B0FB05980068490675
:100A000000D5C8E014A94A1C0978431C01700029CC
:100A100018461146F7D1C7E0084641380628BF4CB2
:100A200001D9FFF79AFB012282407120024201D1D5
:100A3000FFF793FB14A80078002800D10BE154982D
:100A4000C20700D007E10B46613B172B3AD80022C2
:100A50009B0002A4E358B14C9F46C046D90A00004F
:100A6000570C0000570C00006B0B0000D90A000067
:100A7000D90A0000D90A0000570C00006D0B0000D5
:100A8000570C0000570C0000570C0000570C0000DA
:100A9000570C0000BD0A00008F0B0000570C00002F
:100AA000570C0000570C0000570C0000BD0A000056
:100AB000570C0000570C0000BD0A000078293FD0F9
:100AC00008223EE04139062900D9C4E001228A40CB
:100AD00071210A4200D1BEE0C021084080281ED00A
:100AE000402826D114A8002103F032F81BE05498C6
:100AF000C10701D0FFF731FB89490840411E02467A
:100B00004A408A4200D894E0002800D183E0414264
:100B1000014084484143C80E83A1085C7CE014A8CE
:100B2000002103F015F8059B04CB0593106051607C
:100B300091E014A8002103F00BF808F0A1FF87E072
:100B40001022752900D10A2275490840411E03462A
:100B50004B408B4242D900282ED04142014071487F
:100B60004143C80E70A1085C27E00A226C49084086
:100B7000411E03464B408B4248D9002833D04142A6
:100B8000014068484143C80E67A1085C2CE014A8E6
:100B90000021102224E014A90A78002A02D0491C5E
:100BA00004C0F9E7002101600598001D05900B982D
:100BB000401C0B90FFF7D1FA2020401F08280DD8C9
:100BC0007844007940008744580909045D09043AD3
:100BD0003A0014A8002105F075FEA4E714A800212E
:100BE00006F08CFB34E02020401F08280ED8C046B9
:100BF00078440079400087444A09090452090427CF
:100C0000270014A8002104F01DFD8CE714A8002182
:100C100006F0F8F81CE02020401F082809D8C0463C
:100C200078440079400087444204041F48041F04AC
:100C3000040012980AF04AFC0860FFF78EFA14A824
:100C4000002105F03FFE03E014A8002104F0FAFCA7
:100C50000AF03CFC086054980125294681430B9812
:100C600008180B90FFF779FA1298C117059B04CB6F
:100C7000059310605160FFF770FA14A8002106F088
:100C80003DFB08E014A8002106F038FB0BE014A897
:100C9000002106F0B7F80AF019FC0880DBE714A879
:100CA000002106F0AFF80AF011FC0870D3E71298A3
:100CB0000AF00CFC0880FFF750FA12980AF006FCC4
:100CC0000870FFF74AFA0D9F19E00B9F17E00B9889
:100CD000002814D0074612E0002800D121460D4616
:100CE00008E0129809994140E043084302D1ED43DE
:100CF00000E00D9D0B98002800D005462F46384691
:100D000073B0F0BD054670A80AF023FC681CF1D052
:100D100002E008980028EDD00025EBE780F5000000
:100D2000603F000031B57C0700011C021D0E180356
:100D30001E16140F191104081F1B0D171513100789
:100D40001A0C12060B050A09F0B5FFB08EB0049319
:100D500006920646929802900025E84305908C91F1
:100D6000346820460AF017FB21188B9503918C42BA
:100D700000D3BCE00020879087A90873889005986D
:100D800089902F46049D2078002800D1B2E02528C4
:100D900005D0641C34600699A8477F1CF3E78B9745
:100DA000601C306087AC2046314600F0BBF88CAA4E
:100DB0002046314600F0D7F8306801780B46683B92
:100DC0000122D341092B2BD87B441B795B009F4424
:100DD00004130A2727271627271943788799682B92
:100DE00019D1520204E0437887996C2B10D112027A
:100DF00011438791801C12E08799D20204E0879901
:100E0000520301E0879912030A438792401C06E0CF
:100E1000401C402201E0401C2022114387910178B0
:100E2000441C346087A80173732913D06E291DD127
:100E3000879832490840411E02464A408A423CD9BE
:100E400000282DD0414201402D484143C80E2DA11C
:100E5000085C26E087A80078400619D4009587A88A
:100E60008CAA8BAB069900F03DF92AE007AD87A963
:100E70008CAA284600F08CF9024628460699029B67
:100E80009847411C059D00D0C5198B9503991AE020
:100E9000009587A88CAA8BAB069900F0C0F810E0EB
:100EA0002020401F082808D8784400794000874453
:100EB0001904040D14040D0404008C9802C88C90CD
:100EC0000F6003998B9D681C13D050E7F8178C991D
:100ED00004C98C9117605060F3E78C9802C88C901D
:100EE0000F70EEE78C9802C88C900F80E9E72F46D0
:100EF00000E0059F38467FB00EB0F0BD603F0000B7
:100F000031B57C0700011C021D0E18031E16140FBC
:100F1000191104081F1B0D17151310071A0C1206C0
:100F20000B050A0910B50A680124E3071AD01378E3
:100F3000302B0CD0232B0ED02B2B0AD02D2B04D0F2
:100F40000024202BF1D1042306E0012304E0102328
:100F500002E0022300E0082304681C430460521CE2
:100F60000A60E1E710BDFEB516460D460446086866
:100F700002782A2A10D13068011D31600068606053
:100F8000002805D5404260602068012101432160AE
:100F90002868471C2F6017E00021303A092A08D83A
:100FA0004218531C2B60435C6F467B545278491C9B
:100FB000F3E76A460023535412784718002A03D0F7
:100FC000684609F003FD606038782E2826D1781C29
:100FD000286079782A2908D13068011D31600068BD
:100FE000A0602868401C2860FEBD00203039092917
:100FF00008D839188A1C2A604A786B461A548978AE
:10100000401CF3E76A46002111541078002804D0F0
:10101000684609F0DBFCA060FEBDA160FEBDF0B536
:1010200087B01E460C9F13681C1D14601D68002DA0
:101030003AD0049106908468002C04D428460AF023
:1010400085F9844203D328460AF080F904460698BD
:101050004068A042039000DC2046014630680191C0
:10106000401805940399A142029630600EDD06985F
:101070000078C0070AD1059801990E1A0024B442DD
:1010800004DA20200499B847641CF8E70026049C81
:10109000069805998E420ADA2868010A18D12D1D92
:1010A0002146B847761CF3E70020B84718E00599B9
:1010B000039A8A4214DD0078C00711D00198451ABE
:1010C0000024AC420CDA20200499B847641CF8E7ED
:1010D0000020C043029908600AF0BAF95821016063
:1010E00007B0F0BDF0B585B00C4606460A9D106805
:1010F000011D116000680490002844D00393B76874
:10110000002F04D404980AF046F9874203D30498C8
:101110000AF041F9074602967268BA42114600DCAD
:101120003946039B1868009140180192BA42186032
:101130000FDD02980078C0070BD10098C01B039008
:1011400000260398864204DA20202146A847761C10
:10115000F7E70026BE4205DA0498805D2146A847DD
:10116000761CF7E70198B84210DD02980078C007B6
:101170000CD00098C61B0027B74207DA2020214672
:10118000A8477F1CF8E700202146A84705B0F0BD1E
:10119000F0B589B005920E4604467F2080002718DE
:1011A0004868039000250795FF210491FE31202215
:1011B000204601920AF018F83046089702977D7091
:1011C000367B31466339152906903DD801228A4085
:1011D000604B1A42069822D007A908AA059B00F086
:1011E000BDF806980025067B012731466F3909298D
:1011F000059504D801228A4057490A423FD1582E0A
:101200003DD0016802230B40079A002A27D0089995
:101210004A1E08922D220A705F425F412FE000298A
:1012200012D1059B1A68111D19601268D1B24D4286
:101230004D410499FC316118089102990A700268C5
:1012400002218A430260CEE7252E02D0582EC3D059
:10125000CAE70020607025202070012078E0002B74
:1012600007D149070BD5089A511E089101991170B1
:1012700005E0089A511E08912B211170002703994F
:1012800003976518089B0178C907264608D102997B
:10129000491CC91A42689142264601DC691A4E1C53
:1012A000591C04984300002730463A4609F0EAFEEC
:1012B00008900599002903D0411C0891077000E0AF
:1012C0000146A94206D8481E691A491C202209F085
:1012D0008BFF2F7006980078C00606D4311B2022A1
:1012E000204609F081FF059D2EE0A642059D2BD0EA
:1012F000311B302720463A4609F076FF069B0798B7
:101300004142414103980140012905D11878400725
:1013100002D43046214604E03078611C2070701CF5
:1013200037701A7B412A0CD0582A05D0612A08D080
:10133000782A01D0702A07D11B781B0701D4612AB3
:1013400002D142784A70477020460AF024F84019CA
:1013500009B0F0BD4230240043020000F8B5144645
:101360000F4605468068002804D428681021884369
:10137000286001E00120A860287B1026582808D0AA
:10138000782806D0702804D06F2801D1082600E004
:101390000A262846194600F055F8AA68002A09D1FD
:1013A00002460A4306D12878000749D52B7B002046
:1013B000024612E02B7B642B03D16423002905D461
:1013C0000AE0692B08D1002906D5692301223A6079
:1013D000002240428A4100E00A460094114632460B
:1013E00000F0CEF8A968884206DA401C21684A1E3F
:1013F000226030220A70F5E7287B582803D078282D
:1014000001D070280FD1297809070CD5702800D198
:10141000782021684A1E226008702068411E2160E1
:1014200030210170287B6F280AD12878000707D562
:1014300020684178302903D0411E2160302101709D
:10144000F8BDC04610B5037B702B05D10868021D9E
:101450000A60006800227BE002683E481040421E9D
:1014600004465440944216D9002807D04242024014
:1014700039485043C00E39A2105C00E02020401FC4
:10148000082808D878440079400087444C04041E9A
:1014900038041E04040000221846643814280DD8AD
:1014A00001248440354804420AD12120044205D059
:1014B0000868021D0A600068C21749E0582B46D12F
:1014C0000868031D0B60006842E018466438142861
:1014D00007D8012282402948024206D12120024237
:1014E00003D10020582B024632D10868C21D0720C4
:1014F00082431046083008601068526828E00022D5
:1015000018466438142807D8012484401B48044234
:1015100004D121200442CBD1582B18D10868031DD7
:101520000B60007814E0002218466438142807D8AD
:10153000012484401148044204D121200442B7D13F
:10154000582B04D10868031D0B60008800E010468A
:10155000114610BD603F000031B57C0700011C0240
:101560001D0E18031E16140F191104081F1B0D174A
:10157000151310071A0C12060B050A0900081200B1
:10158000FEB501920D460646582B01D0174800E0E3
:1015900015480090089802903046284305D1029AD9
:1015A0001068411E116030210170019C30462843B3
:1015B00013D030462946224600F01AF807460D4659
:1015C000224609F04DFD301A0099085C029B19680B
:1015D0004A1E1A6008703E46E8E70298006809F063
:1015E000DAFE401EFEBDC046CBFB0000DCFB000067
:1015F00080B5102A06D0082A09D1C0084A078018E9
:10160000C90880BD00090A078018090980BD0029A2
:1016100004D1114609F01CFA002180BD002309F015
:1016200037FE80BDF0B5C9B0044602E0092808D1F4
:10163000641C20781F28F9DD2028F9D03E28F7D037
:1016400003E0002801D122462CE0651C284609F061
:101650002AFD421C2918824201D20A4622E02018A3
:1016600003E0C91EC01EA34215D90278202A01D06A
:10167000092A10D1A04210D9421E1378202B01D084
:10168000092B0ED1A2420AD9831E1D78202DE8D045
:10169000092DE6D006E0421C04E0024602E08A1E64
:1016A00000E04A1E002515702178002922D020462E
:1016B00004E0C21CC178002910461BD00A46613ADA
:1016C000D2B2192A01D8203901704178002911D0ED
:1016D0000A46613AD2B2192A01D82039417081787C
:1016E000002907D00A46613AD2B2192AE1D8203936
:1016F0008170DEE720784C285FD1607854285CD177
:10170000A078552859D1E078522856D120794E2812
:1017100053D16079202850D1A01DF84908AA09F0BA
:1017200083FB012800D090E2F54D287800284BD1AA
:10173000F44F3868F4490968401A45D409A809F0FB
:1017400079FDF2480024047009F0C2F9F048046001
:10175000F048046001262E7038687D210901401888
:101760006438E9490860089D2846214608F045FE8E
:101770000028304600D1E043E7490860284621466A
:1017800008F029FE002801D0F0074540E34928462B
:1017900007F012FFE24907F03FFEE24908600998AE
:1017A000E14908600A98E1490860E14809F02EFE25
:1017B000E04809F02BFEE04869E2D24F3968204644
:1017C00007F06AFC002801D049B0F0BD06A809F076
:1017D00031FD0699079A204601F0E2FF002806D065
:1017E000CB4800210160CB480160D4484FE220780B
:1017F000502823D16078492820D1A07844281DD1D1
:10180000E07820281AD1201D05A90091CC4909AA09
:1018100008AB09F009FB032800D018E20999C44875
:10182000089A059B0EC0C34C0EC40C3C0C3809F042
:10183000EDFD204609F0EAFDC24828E22078422862
:1018400048D16078412845D1A078532842D1E0782A
:1018500045283FD1207920283CD1601D002529460C
:1018600002F000FD0646B84C214608F0B4FD049095
:10187000B64F3046394608F0C9FD002800D137463A
:101880000498002800D13C46A04805709C4805708B
:1018900009F01EF99E4804602046294608F092FD92
:1018A000002809D09B480560A14809F0AFFDA14878
:1018B00009F0ACFD08F0B4FE0021204608F09DFDC3
:1018C0000546F549204607F0A7FD002D00D1C2E1ED
:1018D0003F21C1E120784D2852D160784F284FD167
:1018E000A07854284CD1E0784F2849D1207952284B
:1018F00046D16079202843D17D2000010890A01DA9
:10190000FD4909AA08AB09F08FFA002800DCBDE107
:10191000099D00242846214608F05DFD0490F84EFC
:101920002846314608F072FD002800D12E46F748BF
:101930000499002900D1344609940899814200D9BC
:101940000890DC4801210170DB480021017009F09A
:10195000BFF80998DD490860DD490860089800284B
:1019600001D039680818DB490860DB4809F04EFDF2
:10197000DA4809F04BFD089B0999E6480A4665E0FC
:101980002078502866D16078572863D1A0784D28F8
:1019900060D1E07820285DD17D2000010590201DD8
:1019A00005A90091D74909AA08AB09F03DFA022818
:1019B00000DA4EE1099E00243046214608F00BFD76
:1019C0000490CF4D3046294608F020FD00282846D7
:1019D00000D1304604990029214600D101460991E1
:1019E000089E3046214608F0F6FC04903046294611
:1019F00008F00CFD002800D13546C44804990029A0
:101A000000D12C4608940599814200D90590A94837
:101A100001210170A8480021017009F059F80998C6
:101A2000AA4908600898AA4908600598002801D0CA
:101A300039680818A7490860A74809F0E7FCA748D3
:101A400009F0E4FC059B089A0999B14807F056FC97
:101A500049B0F0BD207850287AD16078552877D1E8
:101A6000A0784C2874D1E078532871D1207945288A
:101A70006ED1607920286BD1A01D9F4909AA08ABBF
:101A800009F0D2F9022800D0FCE07D200490099CE6
:101A90002046294608F09FFC0390994E2046314687
:101AA00008F0B4FC002800D12646049800010399F0
:101AB000002900D1354609950899814200D908903E
:101AC0007C48012101707C480021017009F000F878
:101AD00009987E4908607E490860386808990818A6
:101AE0007C4908607C4809F091FC7C4809F08EFC38
:101AF0000899099808F018FD49B0F0BD76FD00007E
:101B0000DB0D2020640D2020700D2020E00D202012
:101B1000B00D2020940D2020340D20200000B44270
:101B200000808943400D2020380D20203C0D2020CE
:101B3000A00C2020C40C202081FC00006AFC0000C6
:101B4000E5FC0000EEFC0000000070C200007042E6
:101B5000207851281BD16078552818D1A0784928C1
:101B600015D1E078452812D1207954280FD1607919
:101B700020280CD1A01D00210A2205F043F9414282
:101B80004141584A117000287ED05A487FE02078A1
:101B9000542819D16078452816D1A0784C2813D143
:101BA000E078452810D1207920280DD1601D002132
:101BB0000A2205F027F9411E02468A4149490A7066
:101BC00000285DD1494862E03449204607F0B0FC66
:101BD000002810D03249204607F0AAFC002828D05F
:101BE0003049204607F0A4FC002826D0204609F002
:101BF00003F949B0F0BD2F4805702F48057008F073
:101C000067FF2E4805602E4805602E4805602E4867
:101C100005602E4805602E4805602E4805602E4858
:101C200009F0F4FB2D4809F0F1FB08F0F9FC2C4811
:101C30002DE004F093F949B0F0BD09F007FB1A4814
:101C400005601A4805601A4821E037481FE035480A
:101C50001DE02D481BE0BF21090606F022FC08F01C
:101C6000AFFF009001902D4A2D4B0120010209A8E1
:101C700008F022FE401EFE2800D9A5E509A806E0CE
:101C8000194804E01D4802E0194800E0224808F025
:101C900013FD49B0F0BDC0460000C8424DFD000034
:101CA00056FD000010FD0000880D20208C0D202026
:101CB000FBFB0000E00D2020DB0D2020B00D2020DC
:101CC000940D2020780D2020800D2020A80D2020AC
:101CD000AC0D20207C0D2020A00C2020C40C202046
:101CE000AAFC0000E40D202046FC00003AFC0000A5
:101CF00008FC000015FC000027FD00002EFC000081
:101D00000000AA42D2FC0000BEFC00001027000028
:101D10005AFD000035FD00005EFC00005DFB000088
:101D2000A3F70000C8FC000052FC0000F0B591B021
:101D30000A910127002A00D10BE30E93002B00D15A
:101D400007E30D921349144D81220C920A6001247D
:101D50002C602C64099002262E602C60A027384647
:101D600009F066FB284610300B902C61384609F0CC
:101D70005FFB2E610998400040B2064A0C99116041
:101D80002C6010942C6434462E610790002828465D
:101D900005D403E00480424090120A400B98109949
:101DA000016020200F9009F043FBFC4D2C60384669
:101DB00009F03EFB2C61384609F03AFB099EB0065B
:101DC00006900B9800D5F548109901600F9809F01E
:101DD0002FFBF24D2C60384609F02AFB2C61384667
:101DE00009F026FBF00605900B9800D5EB481099FA
:101DF00001600F9809F01CFBE84D2C60384609F093
:101E000017FB2C61384609F013FB300704900B9840
:101E100000D5E248109901600F9809F009FBDF4DE9
:101E20002C60384609F004FB2C61384609F000FBB1
:101E3000700703900B9800D5D848109901600F984F
:101E400009F0F6FAD54D2C60384609F0F1FA2C610C
:101E5000384609F0EDFAB00702900B9800D5CF484C
:101E6000109901600F9809F0E3FACC4D2C603846C8
:101E700009F0DEFA08942C61384609F0D9FAF00727
:101E800001900B9800D0C548109C04600F9809F091
:101E9000CFFA089EC14D2E60384609F0C9FA2E616E
:101EA000384609F0C5FA2C610F9809F0C1FA2E6086
:101EB000384609F0BDFA2E61384609F0B9FA06F045
:101EC0008DFCB7490C9A0A602C602C6431462E6157
:101ED0000028374600D130E20A9840B2AF490F4699
:101EE00010370028084600D4384610990160202099
:101EF0000F9009F09DFA0224A84D2C60A0263046D0
:101F000009F096FA2C61304609F092FA0A984006D8
:101F1000384600D5A148109901600F9809F088FA59
:101F20009E4D2C60304609F083FA2C61304609F052
:101F30007FFA0A988006384600D5984810990160C3
:101F40000F9809F075FA954D2C60304609F070FA3B
:101F50002C61304609F06CFA0A98C006384600D564
:101F60008E48109901600F9809F062FAFB4D2C60C1
:101F7000304609F05DFA2C61304609F059FA0A98AA
:101F80000007384600D5F548109901600F9809F010
:101F90004FFAF24D2C60304609F04AFA2C61304677
:101FA00009F046FA0A984007384600D5EB481099E0
:101FB00001600F9809F03CFAE84D2C60304609F0BA
:101FC00037FA2C61304609F033FA0A988007384610
:101FD00000D5E248109901600F9809F029FADF4D09
:101FE0002C60304609F024FA09942C61304609F03F
:101FF0001FFA0A98C00700D0D84F109C3C602746B3
:102000000F9809F015FA099CD44D2C60304609F060
:102010000FFA2C61304609F00BFA06F0DFFBCE49CF
:102020000C9A0A602F602F64002800D174E1CB4D18
:102030002C602F60A026304609F0FAF928461035AA
:1020400007610B96304609F0F3F9C4490C61C248A8
:102050000C9A02600F600F642F460C6107980028ED
:10206000084600D438461099016020200F9009F0EE
:10207000DFF9BA4D2C600B9E304609F0D9F92C617E
:10208000304609F0D5F906980028384600D5B348FF
:10209000109901600F9809F0CBF9B04D2C603046D3
:1020A00009F0C6F92C61304609F0C2F905980028FC
:1020B000384600D5A948109901600F9809F0B8F981
:1020C000A64D2C60304609F0B3F92C61304609F07A
:1020D000AFF904980028384600D5A048109901604F
:1020E0000F9809F0A5F99D4D2C60304609F0A0F934
:1020F0002C61304609F09CF903980028384600D539
:102100009648109901600F9809F092F9934D2C6050
:10211000304609F08DF92C61304609F089F90298B2
:102120000028384600D58D48109901600F9809F0B5
:102130007FF98A4D2C60304609F07AF92C613046DF
:1021400009F076F90198002800D0844F109C3C607B
:102150000F9809F06DF9099D804F3D60304609F0F8
:1021600067F93D61304609F063F93C600F9809F06A
:102170005FF93D60304609F05BF93D61304609F09A
:1021800057F906F02BFB002800D1C8E00D99481E36
:10219000C2B20E9D7048099FA02618E090120A4016
:1021A000048042400260304609F042F9099F6B4CBE
:1021B0002760304609F03CF92761109B23606D1CB5
:1021C0000F9A521E0D99491E634800D1AAE00E9540
:1021D0000F920D9163490160604D2F61304609F007
:1021E00027F92F60304609F023F95D4C20680B90E9
:1021F000304609F01DF92F61304609F019F92F60BA
:10220000304609F015F90B98C007800F2168109C23
:10221000214008180B90304609F00AF92F6130462A
:1022200009F006F92F60304609F002F94C480068C1
:102230000A90304609F0FCF82F61304609F0F8F8B2
:102240002F60304609F0F4F80B9880000A99C9070E
:10225000890F401842490968214008180B90304600
:1022600009F0E6F82F61304609F0E2F82F603046B9
:1022700009F0DEF83A4800680A90304609F0D8F8CC
:102280002F61304609F0D4F82F60304609F0D0F8BD
:102290000B9880000A99C907890F401830490968CE
:1022A000214008180B90304609F0C2F82F613046E3
:1022B00009F0BEF82F60304609F0BAF828480068E7
:1022C0000A90304609F0B4F82F61304609F0B0F8B2
:1022D0002F60304609F0ACF80B9880000A99C907C6
:1022E000890F40181E49096821400C18304609F032
:1022F0009FF82F610E990C700C98174A1060109A75
:102300002A602A642F610F98002828460D4600D1C4
:1023100048E71248103045E7032708990BE00427E7
:102320000D4800E000270C99016010980B490860E7
:1023300008640899099C09480461109E074D2E61A4
:102340002960A024204609F073F82E60204609F089
:102350006FF8384611B0F0BD0480424090120A4038
:1023600080130A4081000400F0B589B0064607A832
:1023700008F060FF0798D6490A68871A089AD54B73
:102380001C68151BD44C266008601A60D34800787E
:10239000012810D1D2480760D2480560D2480168B0
:1023A000002920D0711A1ED4D04900240C60D049D5
:1023B0000C60046019E00495CE480468CE480568B6
:1023C0002046294608F007F80028039623D07D20F0
:1023D000C105204606F065F80446294608F016F8BF
:1023E000002828D028E0C1480468C44E3568284633
:1023F000214607F0F0FF002800D196E03F200106BB
:10240000284606F04EF80546214607F0FFFF002853
:1024100000D19BE09BE02046294607F0F7FF00280B
:1024200009D0B749204606F03CF80446294607F093
:10243000D2FF002800D125460295AE480560B14D77
:102440002C68384608F080FB214606F025F87D21EF
:10245000CF05394606F0E0FF214606F022F8044693
:102460002860A94E3568049808F06EFB294606F0EE
:1024700013F8394606F0D0FF294606F012F8074651
:10248000306000212046049107F0B7FF06469F49BF
:10249000204606F0C1FF3F210A06BF210D06002E8F
:1024A000294600D01146019205F0FBFF08F088FB99
:1024B00004468B4804603846049907F09EFF0646A0
:1024C0003846924906F0A8FF002E00D0019D29460B
:1024D00005F0E7FF08F074FB82490860201A8C4978
:1024E0000860029806900590039E304607F09EF91A
:1024F000029089480468894D2F780798089906AAA0
:1025000005AB05F049FB012F38D1002800D1C3E00D
:10251000FA4800210160FA480160FA4801607D48EC
:10252000016008F07DF809B0F0BD2846214607F0AB
:102530006DFF00280AD0BF200106284605F0B1FF34
:102540000546214607F047FF002800D12C4634609D
:10255000ED4F3E68664805683046294607F03BFF68
:1025600000285CD03F200106304605F09AFF064661
:10257000294607F04BFF002862D062E0341B002898
:1025800005D10798089906AA05AB04F0DDFC002CDC
:1025900000D5E4E00127039808F09EFC0021049197
:1025A000002818D008F0BAFE0028384600D1287854
:1025B000C00710D1059C0698002107F003FF0028F2
:1025C00009D00021204607F0FDFE002803D0D248A4
:1025D000069005900497039808F0F6FB002800D0B9
:1025E0002F78F80704D108F099FE002800D197E071
:1025F000039808F071FC002800D1B0E008F08EFECE
:10260000002800D0ABE00698C44C214606F004FF39
:1026100006900598214606F0FFFE04469EE03046EF
:10262000294607F0F3FE00280AD0BF2001063046F5
:1026300005F037FF0646294607F0CDFE002800D1F9
:1026400035463D602046294605F0A0F9C14800689E
:10265000002107F0B7FE002800D14CE13C68BF48DC
:102660000568BD480068002107F0ACFE002800D1D5
:1026700041E10021284607F0A5FE002800D13AE1FB
:1026800000252046294607F09DFE002800D132E1B2
:102690009E48057009B0F0BDAC480568684208F076
:1026A00053FAAB4E314606F0B7FE04469F4804602D
:1026B000284608F049FA314606F0AEFE01469C482D
:1026C00001609D480460A0480160204611E1C046B9
:1026D000880D20208C0D2020640D2020E00D20206E
:1026E000440D2020580D20207C0D2020A80D2020F6
:1026F000AC0D2020940D2020B00D2020780D20203E
:10270000000080BE280D20202C0D20200000C84293
:10271000540D20205C0D2020700D2020DB0D20208A
:102720000699029C204605F0BCFE069005982146BD
:1027300005F0B2FE059008F0F1FD00280FD10698D3
:102740000024214607F047FE002801D00020069013
:102750000598214607F03FFE002800D00594069C0E
:102760006F4E2046314607F036FE05466D4F204637
:10277000394607F04BFE0028384600D12046002D90
:10278000344600D104460694059D2846314607F09C
:1027900022FE03902846394607F038FE002800D173
:1027A0002F460398002800D13E460596049800283D
:1027B00026D000252046294607F00DFE04905A4FEA
:1027C0002046394607F022FE0028384600D1204630
:1027D000049900292C4600D1044606943046294627
:1027E00007F0F9FD04903046394607F00FFE002847
:1027F00000D137460498002800D13D46059500E0F9
:1028000035464A4804604A480560414802684948DC
:10281000214606F05DFA484F38603E480268059947
:10282000464806F055FA04903D68069C002620466E
:10283000314607F0C7FD0028304624D10395002516
:102840002046294607F0C7FD002801D1204602E0B6
:102850000120C00760403A4906F0DEFD412109062B
:1028600005F01FFE07462046294607F0CFFD002849
:1028700004D00398394605F014FE03E00398394666
:1028800005F00AFE2C4F3860059F04463846314655
:1028900007F098FD002828D1254600243846214617
:1028A00007F099FD002801D1384602E00120C00759
:1028B0007840234906F0B0FD4121090605F0F1FDFD
:1028C000204906F0A9FD06463846214607F09EFD40
:1028D000002804D00498314605F0E3FD03E0049895
:1028E000314605F0D9FD06462C46174806602046BD
:1028F000314605F04BF809B0F0BDC0464C0D202024
:10290000600D2020480D2020800D2020E00D20208B
:10291000280D20202C0D20200000E0406666E63EB9
:10292000000070C200007042000020414C0D2020C9
:10293000600D2020A00C2020480D2020C40C202059
:102940003333333F8FC2753F5C0D2020340D202080
:1029500000007041A80D2020AC0D2020780D202013
:10296000F0B597B0109316461D9C6308DA1DD50884
:1029700065431393C218521E0B195B1E11900E91E2
:1029800006F0A4F8002D00D17CE10C3CE0B2A101DE
:1029900080080818C2B2052A00D973E101201590F9
:1029A00090402B21084200D16CE109921C980D90B7
:1029B000203EF0B2810116913027474306010C24D6
:1029C0004443681E032108F043F8491C0020059089
:1029D0000329049101D1059804901E98149016982B
:1029E000EC4A10180390EC48C0190690EB48801987
:1029F0000790EB48001908901098000A0F900D9866
:102A0000000A0C90159880031690032D05D2119E94
:102A100005980A901290099944E101910498281AA6
:102A200002900020119E0A901290139C09990BE0CD
:102A30000E98401C0E90119E0A98C01C0A90029994
:102A40008842099900D11AE10029089806D0032983
:102A5000069803D00129079800D003980A99405C92
:102A60000B90002718E0C0B208F0A2FBF348169CB8
:102A700004600461E8B208F09BFBF048046012981F
:102A8000401C1290C0B2139C214607F0E1FF0029C0
:102A900036D07F1C082F35D01598B8400B990840C8
:102AA000149900291CD0002814D030460E993246C3
:102AB0000B4606F00BF8E14C169D25610F98C0B24D
:102AC00008F076FB256025611098C0B208F070FB15
:102AD0002560139C761C1198301AA042D9D10AE0C7
:102AE000D649169A0A6100280C9800D00F980D9DBF
:102AF000B9D0109DB7E70E98401C0E90119E01E0D2
:102B00000020129009990029089806D001290798F9
:102B100003D00329069800D003980A9940184078FA
:102B20000B90002718E0C0B208F042FBC348169C87
:102B300004600461E8B208F03BFBC04804601298EE
:102B4000401C1290C0B2139C214607F081FF00295F
:102B500036D07F1C082F35D01598B8400B99084007
:102B6000149900291CD0002814D030460E99324602
:102B70000B4605F0ABFFB14C169D25610F98C0B216
:102B800008F016FB256025611098C0B208F010FB14
:102B90002560139C761C1198301AA042D9D10AE006
:102BA000A649169A0A6100280C9800D00F980D9D2E
:102BB000B9D0109DB7E70E98401C0E90119E01E011
:102BC0000020129009990029089806D00129079839
:102BD00003D00329069800D003980A9940188078FA
:102BE0000B90002719E0C0B208F0E2FA9348169C57
:102BF00004600461E8B208F0DBFA904804601298BF
:102C0000401C1290C0B2139C214607F021FF0029FE
:102C100032D07F1C082F00D10EE71598B8400B99D1
:102C20000840149900291CD0002814D030460E9971
:102C300032460B4605F04AFF804C169D25610F98E1
:102C4000C0B208F0B5FA256025611098C0B208F04E
:102C5000AFFA2560139C761C1198301AA042D8D187
:102C6000E6E67649169A0A6100280C9800D00F987B
:102C70000D9DB8D0109DB6E700201290DCE60198BB
:102C800003280FD117B0F0BD0E98401C0E90119E76
:102C90000A98801C0A900598801C05900499884227
:102CA0000999EFD00029089806D00129079803D088
:102CB0000329069800D003980A99405C0B900027DE
:102CC000139C18E0C0B208F073FA5C48169C0460CC
:102CD0000461E8B208F06CFA584804601298401C8D
:102CE0001290C0B2139C214607F0B2FE002936D0E4
:102CF0007F1C082F35D01598B8400B9908401499BF
:102D000000291CD0002814D030460E9932460B46BC
:102D100005F0DCFE494C169D25610F98C0B208F005
:102D200047FA256025611098C0B208F041FA256085
:102D3000139C761C1198301AA042D9D10AE03F4961
:102D4000169A0A6100280C9800D00F980D9DB9D0F2
:102D5000109DB7E70E98401C0E90119E01E00020D8
:102D6000129005981599084304998842099989D0C9
:102D70000029089806D00129079803D0032906984E
:102D800000D003980A99401840780B900027139CB4
:102D900022E0C04690B5000050CD000016EB0000C8
:102DA00006F10000C0B208F003FA2448169C046043
:102DB0000461E8B208F0FCF9204804601298401C55
:102DC0001290C0B2139C214607F042FE002932D077
:102DD0007F1C082F00D15BE71598B8400B9908407D
:102DE000149900291CD0002814D030460E99324680
:102DF0000B4605F06BFE114C169D25610F98C0B275
:102E000008F0D6F9256025611098C0B208F0D0F915
:102E10002560139C761C1198301AA042D8D133E754
:102E20000649169A0A6100280C9800D00F980D9D4B
:102E3000B8D0109DB6E70020129029E790320A40E2
:102E4000F0B589B001930292039107901148124D99
:102E500081220492026001242C602C6402262E60E0
:102E60002C60A027384608F0E3FA284610350461A4
:102E70000097384608F0DCFA074F3E610549049890
:102E800008603C6008943C643E61079840060595E4
:102E900005D503E00480424090120A40FD4D089998
:102EA00029602020069008F0C3FAFA4D2E60009F9A
:102EB000384608F0BDFA2E61384608F0B9FA07988E
:102EC0008006059800D5F34808990160069808F037
:102ED000AFFAF04D2E60384608F0AAFA2E61384657
:102EE00008F0A6FA0798C006059800D5E9480899A1
:102EF0000160069808F09CFAE64D2E60384608F00E
:102F000097FA2E61384608F093FA0798000705985B
:102F100000D5FD4808990160069808F089FAFA4D35
:102F20002E60384608F084FA2E61384608F080FAA0
:102F300007984007059800D5F3480899016006985E
:102F400008F076FAF04D2E60384608F071FA2E61DE
:102F5000384608F06DFA07988007059800D5EA48CA
:102F600008990160069808F063FAE74D2E6038462C
:102F700008F05EFA2E61384608F05AFA0798C00742
:102F800001D0E14805900598089C0460069808F077
:102F90004FFADD4D2E60384608F04AFA2E61384669
:102FA00008F046FA2C61069808F042FA2E6038467E
:102FB00008F03EFA2E61384608F03AFA05F00EFCA9
:102FC000D049049A0A602C602C642E6100282F4698
:102FD00000D161E10796039840B2394610310028CC
:102FE000384600D408460126066020200590069148
:102FF00008F01EFA079D3D60A024204608F018FA4C
:103000003D61204608F014FA03984006069800D562
:1030100038460660059808F00BFA079D3D6020468B
:1030200008F006FA3D61204608F002FA039880068F
:10303000069800D538460660059808F0F9F9079D0E
:103040003D60204608F0F4F93D61204608F0F0F9B3
:103050000398C006069800D538460660059808F023
:10306000E7F9079D3D60204608F0E2F93D61204602
:1030700008F0DEF903980007069800D53846066088
:10308000059808F0D5F9079D3D60204608F0D0F975
:103090003D61204608F0CCF903984007069800D51A
:1030A00038460660059808F0C3F9079D3D60204644
:1030B00008F0BEF93D61204608F0BAF90398800790
:1030C000069800D538460660059808F0B1F9079DC6
:1030D0003D60204608F0ACF93D61204608F0A8F9B3
:1030E0000398C007069800D038460660059808F097
:1030F0009FF9079D3D60204608F09AF93D61204602
:1031000008F096F905F06AFB002800D1D0E002989B
:10311000002800D1ABE0002108967B4D0198059175
:1031200042567848049901603E603E643E4610363F
:103130003846022707610792002A00D430460899D2
:1031400001602020069008F073F92F60A02420462B
:1031500008F06EF92F61204608F06AF907984006DA
:10316000304600D5284608990160069808F060F9B5
:103170002F60204608F05CF92F61204608F058F9CE
:1031800007988006304600D52846089901600698C1
:1031900008F04EF92F60204608F04AF92F612046CA
:1031A00008F046F90798C006304600D52846089929
:1031B0000160069808F03CF92F60204608F038F9C5
:1031C0002F61204608F034F907980007304600D5F3
:1031D000284608990160069808F02AF92F602046D1
:1031E00008F026F92F61204608F022F907984007D9
:1031F000304600D5284608990160069808F018F96D
:103200002F60204608F014F92F61204608F010F9CD
:1032100007988007304600D528460899016006982F
:1032200008F006F92F60204608F002F92F612046C9
:1032300008F0FEF80798C00700D02E4608983060C6
:103240000646069808F0F4F82F60204608F0F0F8DB
:103250002F61204608F0ECF805F0C0FA002839D0BC
:103260000599491C02988842274F00D056E7254807
:10327000049901603E603E64022038613E6138601E
:10328000A024204608F0D4F83E60204608F0D0F88C
:10329000002032E090120A40089C3C613E60A0266B
:1032A000304608F0C5F83C60304608F0C1F825E02B
:1032B0001448049901603E603E643D613E613D609A
:1032C000A024204608F0B4F83E60204608F0B0F88C
:1032D000089513E00B48049901600B4D2E602E6495
:1032E0002F612E612F60A024204608F0A1F82E60E7
:1032F000204608F09DF80598C01C08900898C0B2B8
:1033000009B0F0BD0480424090120A40F0B58FB081
:103310001C460D460A92521E5B1E0B9005F0D6FB12
:103320000694A54200D300E1149C0120049086037A
:10333000270A0B98C0430A9908180790E843069992
:1033400008180321019007F083FB481C0021059118
:10335000032800D005900D940E9700D1E2E00321E0
:10336000079807F075FB481C00210390032808917B
:10337000029101D003980290ED4A08E0099DAD1C2E
:103380000899891C05980891814200D1CAE00995E5
:103390000A980B9981425BD2039803280B9927D096
:1033A000029F0B990C9116610E98C4B2204607F04B
:1033B000FFFEFA48066006610D98C5B2284607F080
:1033C000F7FEF64A1660012F10D01661204607F06E
:1033D000EFFEF24806600661284607F0E9FEEF4A74
:1033E00016600C99891CBF1EDCD101E00C99491CA8
:1033F000079802280E9B2BD30A98471A1661DCB255
:10340000204607F0D5FEE548066006610D98C5B276
:10341000284607F0CDFEE14806600661204607F029
:10342000C7FEDE4806600661284607F0C1FEDB489D
:1034300006600661204607F0BBFED84806600661BC
:10344000284607F0B5FE0E9BD44A1660FF1ED5D164
:103450000898049908430599884261D00A980B9905
:1034600081428BD2039803280B9927D0029F0B9996
:103470000C9116610E98C4B2204607F099FEC74819
:10348000066006610D98C5B2284607F091FEC34A52
:103490001660012F10D01661204607F089FEBF4844
:1034A00006600661284607F083FEBC4A16600C9948
:1034B000891CBF1EDCD101E00C99491C0798022829
:1034C0000E9B00D25AE70A98471A1661DCB22046D2
:1034D00007F06EFEB148066006610D98C5B2284639
:1034E00007F066FEAD4806600661204607F060FE04
:1034F000AA4806600661284607F05AFEA7480660FB
:103500000661204607F054FEA4480660066128467E
:1035100007F04EFE0E9BA14A1660FF1ED5D12DE787
:10352000099D6D1C0198022801D20FB0F0BD032146
:10353000079807F08DFA481C0328089000D1002056
:103540000590964A04E0099DED1C06988542ECD052
:1035500009950A980B998142F5D2089803280B998E
:1035600027D0059F0B990C9116610E98C4B2204686
:1035700007F01EFE8948066006610D98C5B2284610
:1035800007F016FE854A1660012F10D016612046FE
:1035900007F00EFE814806600661284607F008FE27
:1035A0007E4A16600C99891CBF1EDCD101E00C9983
:1035B000491C079802280E9B2BD30A98471A1661BC
:1035C000DCB2204607F0F4FD7448066006610D98F1
:1035D000C5B2284607F0ECFD70480660066120463B
:1035E00007F0E6FD6D4806600661284607F0E0FD3D
:1035F0006A4806600661204607F0DAFD6748066003
:103600000661284607F0D4FD0E9B644A1660FF1E33
:10361000D5D10A980B99814295D2089803280B9925
:1036200027D0059F0B990C9116610E98C4B22046C5
:1036300007F0BEFD5948066006610D98C5B22846E0
:1036400007F0B6FD554A1660012F10D016612046CE
:1036500007F0AEFD514806600661284607F0A8FD58
:103660004E4A16600C99891CBF1EDCD101E00C99F2
:10367000491C079802280E9B2BD30A98471A1661FB
:10368000DCB2204607F094FD4448066006610D98C0
:10369000C5B2284607F08CFD40480660066120460A
:1036A00007F086FD3D4806600661284607F080FD6C
:1036B0003A4806600661204607F07AFD3748066002
:1036C0000661284607F074FD0E9B344A1660FF1E03
:1036D000D5D10A980B99814200D334E70898032882
:1036E0000B9929D0059F0B990C9116610E98C4B2C5
:1036F000204607F05DFD2948066006610D98C5B2B9
:10370000284607F055FD254A1660012F12D0166194
:10371000204607F04DFD214806600661284607F067
:1037200047FD1E4A16600C99891CBF1EDCD103E0C0
:1037300090320A400C99491C0798022800D202E7EF
:103740000A98471A16610E98C4B2204607F030FD59
:103750001248066006610D98C5B2284607F028FD9C
:103760000E4806600661204607F022FD0B48066001
:103770000661284607F01CFD0848066006612046E1
:1037800007F016FD054806600661284607F010FDA3
:10379000024A1660FF1ED5D1D5E6C04690320A40D7
:1037A000F0B589B00378442B47D14378522B44D1EC
:1037B0008378492B41D1C378562B3ED10379452BD1
:1037C0003BD14379202B38D1801DD44908AA07ABBF
:1037D00007F02AFB022800D025E1089E07980690F2
:1037E000C84801210170D74D3046294606F0F3FD47
:1037F0000446D24F3046394606F008FE002800D174
:103800003746002C00D13D46BF480560CE4D069F8F
:103810003846294606F0DFFD0446C44E3846314698
:1038200006F0F4FD002800D13E46002C00D13546BC
:10383000B6480560B6480025BDE00378532B32D169
:103840004378502B2FD18378452B2CD1C378452B2F
:1038500029D10379442B26D14379202B23D1801DF4
:10386000B74908AA07F0E0FA012800D0DBE0089D7C
:10387000A44801210170B34C2846214606F0ABFD57
:103880000746AE4E2846314606F0C0FD002800D15E
:103890002E46002F00D134469B4804609B480025EB
:1038A00005609B4887E00378442B48D14378492B37
:1038B00045D18378532B42D1C378542B3FD1037920
:1038C000202B3CD1059106920125401D934908AA61
:1038D00007AB07F0A9FA022800D0A1E0089C079FD7
:1038E00000262046314606F088FD019038460396B2
:1038F000314606F070FD0121C907002804940291A9
:1039000000D04F407F48022101707F20C405384617
:10391000214606F060FD0090884E3846314606F09C
:1039200075FD002800D13E460098002800D134469D
:103930000198002800D0BFE0029E7440BDE00378EB
:10394000542B0BD14378552B08D18378522B05D1BA
:10395000C3784E2B02D10379202B11D00378412B51
:1039600015D143784E2B12D18378472B0FD1C378D2
:103970004C2B0CD10379452B09D14379202B06D14F
:103980000378542B069205911BD006211AE05C495E
:1039900005F0CEFD002802D0002009B0F0BD594846
:1039A000002505705848056058480560584805606E
:1039B0005848056058480560012064490D7009B0F9
:1039C000F0BD052101254018544908AA07AB07F0AE
:1039D0002BFA02282AD0012822D1089E0024304642
:1039E000214606F00AFD07463046214606F0F3FC64
:1039F000002802D00120C00746404949304605F062
:103A00000BFD484905F0D8FD474905F005FD3D4946
:103A100003220A703C490C60002F5DD146495CE0EE
:103A2000284609B0F0BD012009B0F0BD089F079CF1
:103A300000263846314606F0E0FC03902046314629
:103A400006F0C9FC0121C9070028049100D04C40B0
:103A50003846314606F0BFFC002801D004984740A4
:103A60002F49384605F0D8FC2E4905F0A5FD2E4912
:103A700005F0D2FC02902348032101702248066021
:103A80007F20C7052046394606F0A5FC0190274E49
:103A90002046314606F0BAFC002800D1264601989F
:103AA000002800D1374603980028049800D14740E9
:103AB000029816490F6012E0029E134804601348F2
:103AC00003990160049C204606F085FC002800D084
:103AD00074401749204603E016490C4A1160144906
:103AE00005F09AFC4121090604F0DBFC0849086056
:103AF0000849059808600849069808605CE7C046D0
:103B000047FD0000E10D2020740D2020180D20201D
:103B1000A40D2020980D20209C0D202041FD0000A8
:103B2000DA0F494000003443000081420000F042B7
:103B3000E7BD3A400000B4420000B4C20000C842F1
:103B400079FD00000000C8C20000F0C2D70D20209F
:103B5000F0B58BB00A460346DF4905462E78881932
:103B600040786D1CC006F9D42D2E01D02B2E01D12A
:103B7000287801E06D1E304607F08FFC01D3014626
:103B800001E0014620394E293FD0492958D16878B3
:103B900007F083FC00D220384E284BD1A87807F0DC
:103BA0007CFC00D22038462844D1002A01D0E81CF1
:103BB0001060E87807F071FC00D2203849281FD146
:103BC000287907F06AFC00D220384E2818D168798D
:103BD00007F063FC00D22038492811D1A87907F0FA
:103BE0005CFC00D2203854280AD1E87907F055FC53
:103BF00000D22038002A03D0592801D10835156099
:103C00002D2E00D1C9E0B749C8E0687807F045FC1F
:103C100000D2203841280DD1A87807F03EFC00D210
:103C200020384E2806D1AD490024002A00D12BE1CE
:103C3000E81C28E1002A00D013600024214623E17B
:103C4000A9490591002430280192029317D1687880
:103C500007F023FC00D220389F4958280FD1A878BC
:103C600009184978890707D42E2808D1E8789A4995
:103C700008184078800702D5AD1C9C4805909A4BE7
:103C800007F017FC411E88410690984B049407F0FA
:103C900010FC411E884103900894099421460A941F
:103CA0002B782E2B03D1002C3AD1012436E0079437
:103CB0001846303801220928174600D80027069CEC
:103CC00062403A4309D0039A002A29D0824AD21886
:103CD0005278920724D5092804D8C00084490818CE
:103CE000049A0AE0184661381A28049A00D2203B48
:103CF000D8007F4908187F49401890C80A98089949
:103D0000059B07F0BCFB22463B4602F0DCFA0A901A
:103D100008910998079C001B099001216D1CBFE7C1
:103D200001242D2E01D0089802E0E007089A5040A7
:103D300005900998860003980028324600D1099A18
:103D4000002909D00698002807920BD01A46613A3C
:103D50001A2A03D31A4603E00A9C7DE01A46203A49
:103D6000452A09D00398002812D01A46613A1A2A27
:103D700000D2203B502B0ED121466B782D2B01D049
:103D80002B2B0DD1A81C0290AD780022D4430BE060
:103D90000295099E3DE002953BE05149002473E005
:103DA000681C029000241D462A46303A092A26D86B
:103DB00000244D229600303D092D25D82D2B01D011
:103DC000224600E0624207981218D7177A40D71BA4
:103DD000B7420A4600D80022069810420AD10122B2
:103DE0009002874200D800220398104202D10A2094
:103DF00060434419029A501C55780290DBE7029800
:103E00000219501E029000242D2B00D16442079805
:103E1000261800240A9D284608992246234606F0C3
:103E2000A3FA002817D106980028059917D04D202D
:103E30008000864219DD0D4607F00AFB2221016051
:103E400000240A9829462246234606F096FA0028BE
:103E500014D1244913E02C46019A059910E00A98E0
:103E6000324604F0ABFA044609E0234886420EDCF1
:103E700007F0EEFA22210160214600E01849019A7C
:103E8000002A01D00298106020460BB0F0BD002E31
:103E90000FD41A4C019A002E1CD0F00706D00CCC7F
:103EA0000A98083C07F0EBFA019A0A907608083461
:103EB000F1E77442114D019A002C0BD0E00706D0B7
:103EC0000CCD0A98083D07F011FB019A0A9064088E
:103ED0000835F1E70A9CD3E780F500000000F87F81
:103EE0000000F0FF0000F07F0000244000003040A0
:103EF000A8F7000048FEFFFFCCFEFFFFF0F800002F
:103F0000F0B589B00F4605460120C1073E468E43F5
:103F1000B14886420BD3D1483018284300D190E0F5
:103F200007F096FA21210160CD49002550E1AB4808
:103F3000864212D8C64AC74B2846394602F0C3F912
:103F40000022A54B06F034FA002800D186E0C248D2
:103F5000864200D382E039463AE102910897002474
:103F60009D4920462A46334602F0A8F99C4B22463A
:103F700007F085FA05460F469A4A9B4B07F07FFAF1
:103F80009A4A9B4B02F09FF907F05CFA994A9A4BC8
:103F900002F099F907F056FA984A994B02F093F912
:103FA00007F050FA974A984B02F08DF907F04AFA59
:103FB000964A974B02F087F907F044FA069007916A
:103FC000944A954B07F0C2FA944A954B02F07BF95C
:103FD00007F038FA934A944B02F075F907F032FA79
:103FE000924A934B02F06FF907F02CFA22467A4B73
:103FF00002F069F9039004912846394602F0A8FBC3
:1040000005900C468B48864200D283E007F032FAD6
:1040100002460B46059D2846214607F030FA2A46FF
:1040200007F0AAFA02460B4602F04DF9824A864B87
:1040300002F049F902460B468148844902F03EF9F4
:10404000C0E07D4A7D4B07F081FA04460E467C4A6B
:104050007E4B07F07BFA2246334657E02846394626
:104060002A463B4607F00BFA064608970F465D4A7C
:104070005D4B07F004FA5D4A5D4B02F024F907F04E
:10408000F4F95C4A5C4B02F01EF907F0EEF95B4A6A
:104090005B4B02F018F907F0E8F95A4A5A4B02F064
:1040A00012F907F0E2F9594A594B02F00CF907F0FE
:1040B000DCF904460791574A574B3046394607F01A
:1040C000DEF9564A564B02F0FEF807F0CEF9554A93
:1040D000554B02F0F8F807F0C8F9544A544B02F077
:1040E000F2F807F0C2F900223B4B02F0ECF802466E
:1040F0000B462046079907F0F9F902460B46284679
:10410000089C214607F0BBF92A46234602F0DBF85B
:1041100005465DE00026304621463246019623469C
:1041200007F0ADF902460B462846394602F0C6F8BC
:1041300000900F46059D28462146324607F01CFA9E
:1041400002460B460098394607F0D0F906460F465E
:1041500007F090F907900691284621462A4607F075
:104160000BFA059004913046394632463B4602F040
:10417000AAF802460B463048304902F09FF805463F
:104180000F4605980499079A069B07F078F92A4686
:104190003B4602F093F805460F4601982146024639
:1041A00007F0EAF902460B46254C264E20463146DA
:1041B00002F084F82A463B4602F080F82246334655
:1041C00002F081F805460898002801DC0298414079
:1041D000284609B0F0BDC0460000F03FFFFFDF3FBA
:1041E0000000E03F09F7FD0DE13D023F88B2017597
:1041F000E0EF493F3B8F68B52882A4BF5544880E45
:1042000055C1C93F7D6FEB0312D6D4BF55555555E7
:104210005555C53F82922EB1C5B8B33F59018D1B8C
:104220006C06E6BFC88A599CE52A00404B2D8A1CC3
:10423000273A03C03333EF3F075C143326A6913C83
:10424000182D4454FB21E93F26A691BCFB21F93FE0
:104250009C7500883CE4377E0000503E000010C092
:104260000000F87FF0B589B00A460746CB4B0290B4
:104270003E78981940787F1CC006F9D42D2E01D0C5
:104280002B2E01D1387801E07F1E304607F009F966
:1042900001D3014601E0014620394E2940D0492989
:1042A00059D1787807F0FDF800D220384E284BD14C
:1042B000B87807F0F6F800D22038462844D1002A12
:1042C00001D0F81C1060F87807F0EBF800D2203825
:1042D00049281FD1387907F0E4F800D220384E2859
:1042E00018D1787907F0DDF800D22038492811D1AB
:1042F000B87907F0D6F800D2203854280AD1F879D6
:1043000007F0CFF800D22038002A03D0592801D175
:10431000083717602D2E00D1C3E0FF20C50521E12D
:10432000787807F0BEF800D2203841280CD1B87850
:1043300007F0B7F800D220384E2805D1984D002A52
:1043400000D10FE1F81C04E00025002A00D109E1AA
:104350000298106006E1944905913028019216D127
:10436000787807F09EF800D2203858280FD1B87816
:1043700019184978890706D42E2808D1F878181812
:104380004078800703D5BF1C8320C005059086496F
:10439000059C204606F016F8411E884106908320B1
:1043A000C105204606F00EF8411E88410390002406
:1043B0000794049408943A782E2A03D1002C33D120
:1043C00001242FE011463039012509292B4600D858
:1043D0000023069845401D4309D00398002823D0A8
:1043E0006E4883185B789B071ED5092903D888007F
:1043F0006E49081808E0104661381A2800D2203AA1
:1044000090006A490818DC3805680898059905F095
:1044100003F8294604F045F808900798001B079018
:10442000012004907F1CC6E701232D2E01D008999E
:1044300002E0D90708984140079EB500039800287C
:104440002C4600D134460498002809D0069800284C
:1044500005910DD0104661381A2805D3104605E0A5
:104460000D460198029F7AE010462038452809D071
:104470000398002811D0104661381A2800D2203A3B
:10448000502A0CD107937A782D2A01D02B2A0AD1F1
:10449000BE1CBB780020C54308E0344632E02C4601
:1044A00030E0404D5EE07E1C002513461846303853
:1044B000092823D8002537462D2A01D0284600E0B8
:1044C0006842303B0019092B1BD8C6177040861B69
:1044D000262E079800D80020069901420AD1802E86
:1044E00001D8002000E001200399014202D10A20F6
:1044F0006843C518781C7B780746DDE77019471EAE
:1045000000E0044600250898294605F05BFF0028D6
:1045100013D106980028059811D0272C14DB0446E7
:1045200006F096FF222101600021204605F053FF8E
:10453000002812D1FF20C50510E0059D0EE02146A0
:1045400004F00CFA054609E02521C9438C420CDC35
:1045500006F07EFF2221016000E0124D0198002844
:1045600000D00760284609B0F0BD002C0AD4104DD9
:10457000002CE7D0E10702D0296804F04DFF640861
:104580002D1DF5E764420A4D002CDBD0E10702D077
:10459000296805F011F864082D1DF5E780F5000085
:1045A0000000C07F000080FF0000204178F900007B
:1045B00000FB0000F0B589B00124A502BC4F3D61AD
:1045C000BC4806F035FF3D60BB4806F031FF204691
:1045D0000494E4023C6185033D611120079006F0DC
:1045E000E7FD3D603C603C613D613620069006F091
:1045F000DFFD3D603C603D61702006F0D9FD3D600F
:104600003C613D613A2006F0D3FD3D603C603D6178
:104610000520059006F0CCFD3D603C613D61B22077
:1046200006F0C6FD3D603C603D610C26304606F05C
:10463000BFFD3D603D61304606F0BAFD3D603D6125
:104640000020039006F0B4FD3D603D613326304606
:1046500006F0AEFD3D603D613046029606F0A8FDD5
:104660003D603C613D61B72006F0A2FD3D603C60CD
:104670003D61352006F09CFD3D603C613D61BB2005
:1046800006F096FD3D603C603D611A2006F090FD0D
:104690003D603C613D61C02006F08AFD3D603C60AC
:1046A0003D612C2006F084FD3D603C613D61C220EF
:1046B00006F07EFD3D603C603D61049806F078FDAB
:1046C0003D603C613D61C32006F072FD3D603C6091
:1046D0003D610B20049006F06BFD3D603C613D6147
:1046E000C42006F065FD3D603C603D61202006F081
:1046F0005FFD3D603C613D61C62006F059FD3D60B7
:104700003C603D610F2006F053FD3D603C613D6122
:10471000D02006F04DFD3D603C603D61A42006F0D8
:1047200047FD3D603D61A12006F042FD3D603C61DA
:104730003D61212006F03CFD3D603C603C610894F9
:104740003D61E02006F034FD3D603C603D61F020BD
:10475000019006F02DFD3D603D61039806F028FDB7
:104760003D603D610424204606F022FD3D603D6130
:10477000204606F01DFD3D603D61204606F018FD17
:104780003D603D61059806F013FD3D603D612920C7
:10479000059006F00DFD3D603D61304606F008FDD8
:1047A0003D603D613E20039006F002FD3D603D61AD
:1047B000382006F0FDFC3D603D611226304606F0D3
:1047C000F7FC3D603D61304606F0F2FC3D603D6126
:1047D0002826304606F0ECFC3D603D61302006F0B6
:1047E000E7FC3D60089C3C613D61E12006F0E0FC97
:1047F0003D603C603D61019806F0DAFC3D603D6142
:104800000724204606F0D4FC3D603D610A2006F0F6
:10481000CFFC3D603D610D2006F0CAFC3D603D616E
:10482000049806F0C5FC3D603D61204606F0C0FCE2
:104830003D603D61304606F0BBFC3D603D61029845
:1048400006F0B6FC3D603D61039806F0B1FC3D60AA
:104850003D61069806F0ACFC3D603D6114242046A5
:1048600006F0A6FC3D603D61204606F0A1FC3D60DF
:104870003D61059E304606F09BFC3D603D61322067
:1048800006F096FC3D60089C3C613D61079806F08F
:104890008FFC3D603C60094806F0CAFD3C613D610B
:1048A000304606F085FC3D603C6009B0F0BDC04676
:1048B00090320A40009F240000127A00007C92008F
:1048C000F0B587B005460F460122D0070E46864355
:1048D000924886420DD3B448864203D8002D3FD07B
:1048E00086423DD1284639462A463B4601F0EBFC3C
:1048F000E2E08B488642039112D8914A914B2846B8
:10490000394601F0E0FC00248B4B224605F050FDB7
:10491000E1430291002869D0B00DF92866D2CDE0BC
:104920008048864220D8854886423FD8284631466E
:104930002A46334601F0C7FC00277C4B3A4601F07B
:10494000C2FC044628460D4601218B0731460297DA
:104950003A4601F0B8FC02460B462046294636E0AE
:10496000002920DC924F1FE06F48864234D8002493
:104970006F4B284606F0DEFD2A4605460F466D4B76
:1049800010463146224606F07AFD6B4B224601F076
:104990009AFC02460B462846394606F0A7FD054616
:1049A0000F46022021E0814F824D87E002920024D1
:1049B0005E4B284606F0BEFD2A4605460F465E4B76
:1049C000104606F0B7FD02460B462846394606F06B
:1049D0008DFD05460F4609E0002054492A4633461E
:1049E00006F084FD05460F460320029006952846F2
:1049F00039462A463B4606F042FD059004910246A0
:104A00000B4606F03CFD04460D464F4A4F4B06F060
:104A100036FD4F4A4F4B01F056FC06F021FD4E4A41
:104A20004E4B01F050FC06F01BFD4D4A4D4B01F082
:104A30004AFC06F015FD4C4A4C4B01F044FC06F0D4
:104A40000FFD4B4A4B4B01F03EFC02460B460598CE
:104A5000049906F014FD04900591474A474B2046FF
:104A6000294606F00CFD464A464B01F02CFC06F0A8
:104A7000F7FC454A454B01F026FC06F0F1FC444AA0
:104A8000444B01F020FC06F0EBFC434A434B01F0A1
:104A90001AFC06F0E5FC224A964213D8049A059BBC
:104AA00001F011FC02460B4606F014FD02460B46CF
:104AB0002046394601F002FC05460F462846394695
:104AC00007B0F0BD029AD400354A13191259029268
:104AD0005A680192049A059B01F0F5FB02460B46C9
:104AE0003048011906594D6806F0F4FC32462B4651
:104AF00001F0E4FB22463B4601F0E0FB02460B4698
:104B00000298019901F0DAFB05460F460398002848
:104B1000D4D50120C0074740D0E7C046000010446C
:104B2000FFFFDB3FFFFFF23FFF7F03400000F0BFCE
:104B30000000F8BF0000F83F0000F03FFFFFE53F36
:104B40009C7500883CE4377E11DA22E33AAD903F51
:104B5000EB0D76244B7BA93F513DD0A0660DB13FB4
:104B60006E204CC5CD45B73FFF8300922449C23F1C
:104B70000D5555555555D53F2F6C6A2C44B4A2BFE1
:104B80009AFDDE522DDEADBF6D9A74AFF2B0B3BFA9
:104B9000711623FEC671BCBFC4EB98999999C9BF21
:104BA00038F9000058F900000000F07FFB21F93FC0
:104BB000FB21F9BF182D4454F0B591B00F90012599
:104BC00048000D90400D5C00670D59401095EE07B0
:104BD0000E40AB494D1E44198C4200D203E17C19B2
:104BE0008C4200D2FFE0049610990C05611E0091E2
:104BF0000B400025E9430E91A449019423430C93F3
:104C0000C01B40180290401C0390D0020A90500D27
:104C1000D9020B9247189E48C41B384629462246A3
:104C20002B4606F01DFA4842294622462B4606F03E
:104C300017FA4900C00F4418204629463A462B4629
:104C400006F00EFA4A42204629462B4606F008FA9C
:104C50004900C00F4418204629463A462B4606F024
:104C6000FFF94A42204629462B4606F0F9F9490049
:104C7000C00F4018441E3846294622462B4606F0EF
:104C8000EFF906460F460A98294622462B4606F0BB
:104C9000E7F970186F411099081A0A902A46BA412C
:104CA000204629462B4606F0DBF9C20F4900891839
:104CB000099146000A98294622462B4606F0D0F96B
:104CC0004A00C00F8018CF0F341809994F41E13CBA
:104CD0000994AF410F9AD00F0D990918069152000F
:104CE00008920E98401E0D902E46AE410846304068
:104CF000034607902046294606F0B2F90A91069825
:104D0000C043614AD1430143521A05922C466C417B
:104D100009982946234606F0A3F9069009913846DA
:104D20002946089A079B06F09BF908900791384698
:104D30002946059A234606F093F905900A9A069BA0
:104D4000D0182B466B41079F3E400D9C089A22408D
:104D500082185E41059838186941099A801869419E
:104D6000841969410E98401C4748684181424BD2E2
:104D7000002201988142109800D310460F9B01D366
:104D8000039A029281401F2242406708D7400F4396
:104D900084405E05204639460B9A0C9B06F060F96C
:104DA00040428E4102994A1E3449491E8A423EDCE5
:104DB000012A48DB00990F401205C10F73005B18F0
:104DC00040001099214040183A4304990A430021B9
:104DD000651C51410B9E301A0C98984100D3254612
:104DE00044D3114642E0002F28D024498F4204D0FA
:104DF000002823D0884200D0F5E62248064300254B
:104E00003146284611B0F0BD6008CA0784184F0823
:104E10000F980605204639460B9A0C9B06F020F9A0
:104E200040428E41039A1549491E8A42C0DD154809
:104E3000049901430025284611B0F0BD00252946FC
:104E4000284611B0F0BD002A13D10E994C400E49EE
:104E50004F4027430DD1019A56403043294605D192
:104E6000049911430025284611B0F0BD284611B021
:104E7000F0BD2946284611B0F0BDC046FF0700002E
:104E800002F8FFFF0000F07FFFFF1F00FE0300009D
:104E900033F30475F0B591B004460120039000028D
:104EA00008909720C00004900BAF02200290387049
:104EB000CA207870E320B8700920F87068200421B7
:104EC0003A4605F001F8A3203870402323403D21E5
:104ED000CA433721CE433F210191CD435C21C943D1
:104EE0000793002B0B4600D02B460D4600D03546CD
:104EF00009940E4600D016467B70BD70FE70089C6B
:104F00008034099A14403922D2433323DD433B23B2
:104F1000DE430A94002C0B4600D033460E4600D0E8
:104F20002E46894D099C00D011463B717E71B971A6
:104F3000F8713872787228460F300A213A4604F028
:104F4000C3FF0320272120400690059101D0202097
:104F500000E0C843387028461E3003993A4604F0F2
:104F6000B3FFA00606D40EAAC720107279480F908E
:104F7000794805E00EAA5D20107274480F907448BD
:104F80000E900921049804F09FFF0A98002826D06B
:104F90006420C04304906F20C0434921C94303915A
:104FA0004B21CB437421CF437F21CD434D21C943B6
:104FB0004F26F643089A144200D0BAE000D0BBE076
:104FC00000D0BCE000D004980BAA16705570937006
:104FD000D0705D4D28460A30042104F075FF8B2007
:104FE0000001E10704D10BAAD821117001214AE088
:104FF0000BAAF82111700127394604F065FF07203C
:10500000FA2101F0E9FA0EAA019810702920C500D2
:105010002846394604F058FF0EAA00261670E81DEF
:10502000394604F051FF0EAA16701420507028461D
:105030009630029F394604F047FF0EAA167064208E
:10504000507028469230394604F03EFF0EAA167082
:105050008E205070F92090709020D0702846143027
:10506000042104F031FF0EAA167008205070284663
:105070001230394604F028FF0EAA1670577010350A
:105080002846314D394604F01FFFA007059800D58A
:105090002620C0430BAA10703048012104F014FFF1
:1050A000600704D42E480E9004210EAA09E00EAA2F
:1050B000C0201070C2205070C4209070C620D070E4
:1050C0000421284604F000FF01F0B0FCE00605D4FE
:1050D00024480E90A81D04210EAA0AE00EAA202042
:1050E000107028205070302090703820D070A81D8B
:1050F000042104F0E9FE01F099FC082020431A493C
:10510000088001F093FC0799002900D006210A9835
:10511000002800D0891D1420044201D01020014332
:105120000698002800D0091D10480170002011B019
:10513000F0BD0E4600D143E73D4600D142E7039B58
:1051400000D040E740E7C046980A0000B4980D350B
:10515000B8AAB38DB088C3C5B8AAAAAA3D070000F3
:105160008B8B8B8BA3A3A3A3D6172020FA17202009
:10517000F0B589B00024002800D1DFE00E460546D6
:1051800068203B210E2205ABFCF7D0FD002800D0A3
:10519000D4E00296012004900598C0BA05F0D4FC32
:1051A000039005A84088C0BA05F0CEFC06460698D4
:1051B000C0BA05F0C9FC07460898C0BA05F0C4FC9F
:1051C00001903846394604F027F92C46054630460A
:1051D000314604F021F9294603F063F903F01CFC81
:1051E00001460498C007039A504002F0AFF96B4D96
:1051F000294604F011F920603046394602F0A6F93C
:10520000294604F009F90394606065480588654FF4
:105210003E680198314603F03FF90446632D18D8E3
:105220006D1CA8B205F0E4FE0146204604F0C4F966
:105230000146304603F035F93860594805805F482B
:10524000002707605E48029901605B48049C047077
:1052500072E0049D5449204604F0AEF9074601204F
:10526000C10738468843514905F0B5F800280AD0EF
:105270005049204604F0D0F8314603F012F949496C
:10528000086000200BE00021384605F0BFF8002838
:1052900001D0474900E04549384603F002F92C4661
:1052A000029B45490A78002A40D0454A1168591A9C
:1052B0001360424A1768C8293ED80446084605F0DC
:1052C00097FE404904F0A8F80146204604F0A4F8EF
:1052D0003D4904F0A1F8394603F0E3F807463B499D
:1052E00005F094F800282CD0384E2C46039D384603
:1052F000374903F0D6F80746314605F087F800280D
:1053000021D03846324903F0CCF80746314605F043
:105310007DF8002817D038462D4903F0C2F807461B
:10532000314605F073F80028E1D10CE0234800274E
:105330000760234803600C70039DAF60204609B0EE
:10534000F0BD2C46039D1D4807602249384605F0F4
:1053500042F80028F1D01F4E38461F4903F0A1F84B
:105360000746314605F037F8002813D038461A4969
:1053700003F097F80746314605F02DF8002809D0CC
:105380003846154903F08DF80746314605F023F8F5
:105390000028E1D109480760CFE7C046E12E654209
:1053A000C80D2020300D20203333834100004040C1
:1053B000000040C06F12033BD90D2020240D202097
:1053C000200D20206F12833A9A99193E0000344331
:1053D0000000B4C3000034C30000B443F0B5E3B030
:1053E0008A480078012800D00DE123A805F022FFAB
:1053F0002398209024981F90854800681E90854827
:1054000000681D90844800681C90844805688448A2
:1054100006682846314603F03FF8074600212291EE
:1054200004F0EBFF04467F49384603F0F5FF3F21C7
:1054300009062191BF210F06002C394600D0219981
:1054400003F02FF805F0BCFB1B903046229904F0C6
:10545000D4FF04463046734E314603F0DDFF002C86
:10546000394600D0219903F01CF805F0A9FB1A90E9
:105470002846229904F0C1FF04462846314603F02D
:10548000CBFF002C394600D0219903F00AF805F033
:1054900097FB1990644804682046229904F0ADFFF8
:1054A00005462046314603F0B7FF002D394600D0AF
:1054B000219902F0F6FF05F083FB18905B48046821
:1054C0002046229904F099FF05462046314603F014
:1054D000A3FF002D394600D0219902F0E2FF05F02C
:1054E0006FFB1790524804682046229904F085FF0C
:1054F0000546504E2046314603F08EFF002D3946BA
:1055000000D0219902F0CDFF05F05AFB16904848D3
:1055100044682046229904F070FF05462046314633
:1055200003F07AFF002D394600D0219902F0B9FF2F
:1055300005F046FB15903E4884682046229904F009
:105540005CFF05462046314603F066FF002D3946D4
:1055500000D0219902F0A5FF05F032FB14903648E7
:1055600004682046229904F048FF054620462D494C
:1055700003F052FF002D00D0219F394602F091FF29
:1055800005F01EFB229005F029FF21902B480068B2
:1055900005F01AFC054605F0B9FE064605F0AEFE1C
:1055A000044605F027FF074605F02AFF10941197DF
:1055B0001290179808901698099015980A901498C8
:1055C0000B9022980C9021980DA961C11F98009012
:1055D0001E9801901D9802901C9803901B980490AF
:1055E0001A9805901998069018980790144A012067
:1055F000010223A8209B05F05FF9401EFE2802D877
:1056000023A805F059F863B0F0BDC046E40D202092
:10561000440D2020580D2020540D20205C0D20200A
:10562000480D20200000C8424C0D2020600D202095
:10563000A00C202000007A44940D2020640D20202E
:1056400013F70000F0B58FB004910546724E01903B
:105650002F78F3195B786D1CDB06F9D46F480021B5
:10566000CC43631C0E93034608464B412D2F0294F6
:1056700003D02B2F0E94694B02D12978059102E0BB
:105680006D1E05970E94242A00DC1046102812D0B7
:10569000002831D10A21059A302A1FD16C782022A6
:1056A0002243782A1CD1A8780590301840788007CA
:1056B00020D40C911BE010200C90059830281CD1B0
:1056C0006978302020220A43782A11D1A9780591DF
:1056D0007218527892070BD5AD1C0EE00C910CE0BD
:1056E000302C02D3382C00D292E008200C903020CD
:1056F000059002E0AD1C10200C90039700270E9837
:105700001C4619460C9E32463B4605F0C1FD0990E9
:10571000089132460B973B4605F0A2FC0E9A101AF0
:1057200006908C4107940A2E0A9601D30A200A900B
:105730000B990D910E91059F3E46303E0A9A964276
:105740000B9C1CD3344AD219507843063B460BD5E8
:105750001E46373EF417002305930C9BF31A23468D
:10576000059A93413B460AD382063CD5573BDC174A
:1057700000221E460C9BF31A2346934133D2099B09
:105780000E981A1A089F3A468A4118D302465A4080
:105790000B467B40134304D1069A921B079AA24101
:1057A0000DD300230C9A05F05BFC30180E904C4191
:1057B0000D9A511CAA1857780D912146BCE705F0A7
:1057C00047FE222101600498002801D00199016060
:1057D0000022029B581C11494A41039C2D2C00D0E9
:1057E000184611D111E0049A002A039C05D00D9EA1
:1057F000002E019B00D0AB1913602D2C0E9803D105
:10580000002240428A4100E00A4611460FB0F0BD36
:1058100005946D1C08206FE780F50000FFFFFF7FF7
:10582000F0B58DB007920890002201260B91490037
:105830004F0D5900490D0C91694C651E0997791956
:10584000A142314600D31146F7070A971F460B982D
:1058500047400C984519A542344600D314465F4D85
:105860000A980740214301290AD10C98002800D149
:1058700084E0A8427BD0099800287FD0A84276D047
:105880000096069700260125079A500DD9020818A0
:105890000590D00203903146089C2246334605F01D
:1058A000DFFB049007910195EF0705980743384601
:1058B00031462246334605F0D3FB089005910B98FC
:1058C000C0434949CA4302438A1A0292344674418A
:1058D00003983146234605F0C3FB05460B91384635
:1058E000049F3146029A234605F0BAFB3F4A17400F
:1058F0001540079AAA18334673410B9C2018714132
:10590000059C00197141089C121958417141099B6D
:105910000C9CE318CC0221D4354C1B19C40F490050
:1059200009194000D40F0019FC0F520012197D0014
:105930002A4C641EA342069F19DC019C2405002BFF
:1059400021DD641E21401B050B43194639436B4280
:105950000A9C2346934126D2401C2AE0244C1B1962
:105960005B1C1E4C3D46641EA342069FE5DD1D48A0
:1059700007430026394630460DB0F0BD00263146BB
:1059800030460DB0F0BD1B4D6940C043002A15DB09
:105990000843002B009916D0002817D00098002843
:1059A0003146E8D117E06240154303D1019A024025
:1059B00080187141064630460DB0F0BD019608438F
:1059C000002B0099E8D101990028E7D100910098B7
:1059D00000283146CFD12743CBE7C046FF07000060
:1059E00002F8FFFF0000F07FFFFF0F0000F8FFFF4D
:1059F00001FCFFFFFFFF1F0094B004F0A3FF04F0C1
:105A000037FF05F0A5FA05F0B7FA04F0FBFAFEF748
:105A1000D1FD0024009405208201AA2320462146BE
:105A2000FDF774FC5B4D2B461F331827009401973C
:105A30000294594A14263046394604F063FE009415
:105A400001970294554A3F2043013A21304604F021
:105A500059FE1020009401900294514A5C21304676
:105A60002B4604F04FFE012080064E49086004F0EA
:105A700089F905F043FD4C484C4941604C490A689E
:105A8000FF231B069A4303239B07D2180A608460F6
:105A9000072101604B4E4C4F02E004F0E7FD30BFA0
:105AA00004A8402101F0DEFD002824D004A804F061
:105AB000FFFB002802D104A8FBF7B4FD04A8402195
:105AC00001F0D0FD002816D004A804F0F1FB002856
:105AD00002D104A8FBF7A6FD04A8402101F0C2FDF5
