:1000000000802020E9A100008F5300008F530000E2
:1000100000000000000000000000000000000000E0
:100020000000000000000000000000008F530000EE
:1000300000000000000000008F53000089790000DC
:100040008F53000009A100008F5300008F53000060
:100050008F5300008F5300008F5300008F53000018
:10006000000000008F5300008F53000000000000CC
:10007000000000008F53000059A1000051A10000B2
:100080008F5300008F5300008F5300008F530000E8
:100090008F5300008F53000000000000000000009C
:1000A0008F5300008F53000000000000000000008C
:1000B0008F530000000000008F5300008F5300009A
:1000C000F0B5F3B007930592799A0E92789E0025C9
:1000D000EF437090139112950878A84C201843783C
:1000E000D80628D513984A1CDB0606D5481C11787B
:1000F00061184B78521C0146F6E7139070A8B04780
:100100000446401C01D100F0FAFD0AF009F89B48B2
:1001100000194078C00603D570A8B0470446F4E73C
:1001200070A80AF04FF81298401E1290601C934C71
:1001300001D100F0E4FD01200A9054A801466C3181
:100140000C9101460C3103910D30009014A8401C15
:1001500001900B950D971196029554A8702109F006
:100160008AFE559770A813A912AA079B98470128E1
:10017000109522D0002801D100F0A7FD401C029B61
:1001800001D100F0A4FD0F93274670A8B04709F0F5
:1001900090FF38194078C006F7D4374670A80AF0A7
:1001A00011F81298411E1291601C39D10029109D3E
:1001B0000F9A01D100F087FDB1E01398471C139707
:1001C000417800262A2935460BD101255495871CF4
:1001D000139706E0B819401C1390B85D71A98855B3
:1001E000761CBC5D204630380928F3D971A800215F
:1001F0000F9181550078002803D071A809F03AFAD0
:1002000055904C2C2FD0682C20D06A2C0BD06C2C05
:1002100010D0742C0AD07A2C16D10120000307E0EC
:10022000109D0F9A7BE00120C00201E001204003F5
:100230002D1819E0B919481C13904A786C2A4F4CB4
:1002400018D1012000020AE0B81910E0B919481CC1
:1002500013904A78682A494C0ED1012040022D188B
:100260005495881C0AE080355495B819401C119E9D
:10027000424C04E0403500E020355495119E411C6D
:10028000139103780C9A13705B2B28D10A785E2A9D
:1002900005D102210D435495811C139182785D2A6A
:1002A00006D1481C1390097854AA1173009901E0F3
:1002B000084603990F9D0278002A09D05D2A07D0CD
:1002C000421C139200784B1C087010461946F2E746
:1002D0000D705D2A01D1401C13900C9803781846CC
:1002E0005B38132800D94EE70121814024480142A0
:1002F00000D148E731461E4670AC20460F4688477D
:100300000546204609F05BFF1299681C05D10029BB
:10031000109D324603D100F0D6FC109D3246099163
:100320001046583820284CD83E460D9F4000C04605
:1003300078448088400087445301260326031C012B
:100340002603260326032603260351002603CE0098
:1003500025005100510051002603250026032603E5
:100360002603260329032500250026032603CE00A5
:1003700026032500260326032500C046F0AD000015
:10038000010108001746559C70A8B047214609F0A6
:1003900090FE14AD002934D014AD2D2C02D02B2C9E
:1003A00000D0B2E014A8047070A80C46B0472146F3
:1003B00009F07FFE491EF64A00D1D3E00891019D65
:1003C000A5E01046413806283E460D9F00D990E032
:1003D000012181407120014200D18AE0559D70A821
:1003E000B047044614AB401C09D009F099FE2B2CF1
:1003F00009D114AB002D0BD12B24002513E03C4672
:1004000011E00027B0E014AB002D0CD02D2C0AD148
:1004100014A8047070A8B0470446401C01D009F02D
:100420007FFE6D1E019B204661381A2801D32046AD
:1004300001E0204620384928E24F109703D04E288B
:100440002AD1E14F10970026B5421BD01098805D4D
:10045000002816D0214661391A2901D3214601E02E
:100460002146203981420CD11F469C5570A8119914
:1004700088470446401C01D009F052FE761C3B46DA
:10048000E2E73546E81E41424141083D6842684185
:10049000084310909D1964E20022002D5CD0302C9E
:1004A0005AD10F9230201F46187070A8B0470446EA
:1004B000401C01D009F034FE7B1C681E0022012183
:1004C0001091002800D1AAE1214661391A2900D2F1
:1004D000A8E12146A8E1549901250846284049068B
:1004E000174676D4002800D00EE1059810C8059074
:1004F0000BE1252A00D046E270A8B047252801D09C
:1005000000F000FC09F00CFE40E20891AC4A00202B
:100510003B46115C8B4204D0401C0728F9D10020D7
:1005200000E01018801A012813D1302C5CD10F95EF
:1005300070A81090B0470546109809F040FE2020A2
:100540008543583D109501D0082010903B460F9DE3
:100550004CE09E49085C48E01946109204920A98C3
:1005600008907CE10027019D3A4638460A990F9190
:1005700062E0559F5498022101400F9114AC002F66
:1005800000D148E170A8B0470546401C089000D152
:10059000B1E010942C46E8B2002303990E7886420D
:1005A0000A4600D01A46491C002E1346F6D10F9B6E
:1005B00059425941531E9A419142119E2546109C21
:1005C00000D098E0611C207009F0AAFD7F1E0C4647
:1005D000D5E7002800D09DE0059810C805909AE066
:1005E00078220C980270CDE60A20109018466938DF
:1005F000C0B2102801D3002100E00121EA4FC7401A
:100600000F406F2B06D1302C0AD000200A990F9191
:10061000089A11E020463038414241410F42F4D05F
:1006200028466D1C047070A8B04709F042FD089A76
:10063000521E00200F900A98002F24D0002A22D0AA
:10064000002820D020202146814358291BD1089220
:1006500070AF3846B047014638460F460E9A90476D
:10066000E148C0194078800701D4089A0BE02C704B
:1006700070A8B04709F01DFD089A521E00D138E35A
:100680006D1C102010900A9F002A23D01098082873
:1006900004D107202146814330290ED010980A2822
:1006A00003D1204630380A2807D31098102811D1DA
:1006B000CD480019407880070CD56E1C2C7070A8AE
:1006C000119914468847224609F0F3FC521E002770
:1006D0003546D9E770A809F075FD1298401E1290B2
:1006E0000020287005460F98384001280D9F119E64
:1006F00000D04BE1F5E270A809F061FD129809996C
:10070000814200D087E004E300245598002841D4BA
:10071000054640E000245598002800D40546632A89
:1007200000D0054670A8B047014609F0F9FC632FD8
:1007300005D1481E0222D24390420FD917E0481C2F
:10074000022801D3002000E00120A74A5218527865
:10075000D2060A9A00D40246002A08D1002D06D0FB
:10076000002C01D002C400E000246D1EDAE770A85E
:100770000E9A90471298401E12900999814200D11A
:10078000B7E2732F49D1002C47D00020206044E00D
:1007900081AF00000125632A00D0054670A8B0474C
:1007A000014609F0BDFC632F05D1481E0222D24349
:1007B000904217D921E0481C022809D3002008E004
:1007C00081AF0000C6B400002AB50000AAB1000045
:1007D0000120854A52185278D2060A9A00D402465D
:1007E000002A0AD1002D08D0002C03D0601C2170F3
:1007F000044600E000246D1ED0E770A80E9A9047D2
:100800001298401E12900999814200D171E2732F13
:1008100003D1002C01D0002020700D9FB6E004927F
:10082000154618E021462039582912D17C7070A84D
:10083000119988470446401C01D009F071FCBA1C8C
:10084000AD1E00200A9904911146109008900F9A4D
:1008500005E0049205460A9808900F9A19460692F8
:1008600016460F95002D0D466ED02B2C39D02D2C11
:1008700037D02E2C2FD0452C01D0652C0BD10898C9
:10088000002846D0109800285ED0002A5CD10120B4
:10089000074610904AE020463A380A21C943884268
:1008A00029460CD8049800284ED04F4800194078AB
:1008B000800704D4202020437028E3D044E02B2C70
:1008C0000FD02D2C0DD0702CDCD0502CDAD0652C14
:1008D000D5D02E2C1DD10698104335D1012006907D
:1008E00023E00898002808D0481E00782021014302
:1008F0006529294601D1174618E00498002823D01D
:10090000481E00782021014370291DD11746294631
:100910000CE0002A07D0204630380122092813D8DD
:100920001746164602E00120109000270C7070A8B0
:10093000119988470446401C01D009F0F1FB691C5D
:100940000F9D6D1E3A468CE71099481E814110910B
:10095000701E8641002A0A9800D030461099014046
:1009600010910D9F70A809F02DFC601C02D0129907
:10097000491E129100212970129A099B9342119EDF
:10098000109D00D1A8E1012D00D0B3E10C980178B1
:10099000012508465B381D283ED804A2124C4000B1
:1009A000105A40008744C046818000002400220085
:1009B00022002200220022004600220057014600A9
:1009C0004600460046002200460022002200220087
:1009D0002200A30046004600220022005701220008
:1009E0004600220022004600F0AD0000FFF7B5FBF4
:1009F0005499C80701D0FFF7B0FB05980068490675
:100A000000D5C8E014A94A1C0978431C01700029CC
:100A100018461146F7D1C7E0084641380628BF4CB2
:100A200001D9FFF79AFB012282407120024201D1D5
:100A3000FFF793FB14A80078002800D10BE154982D
:100A4000C20700D007E10B46613B172B3AD80022C2
:100A50009B0002A4E358B14C9F46C046D90A00004F
:100A6000570C0000570C00006B0B0000D90A000067
:100A7000D90A0000D90A0000570C00006D0B0000D5
:100A8000570C0000570C0000570C0000570C0000DA
:100A9000570C0000BD0A00008F0B0000570C00002F
:100AA000570C0000570C0000570C0000BD0A000056
:100AB000570C0000570C0000BD0A000078293FD0F9
:100AC00008223EE04139062900D9C4E001228A40CB
:100AD00071210A4200D1BEE0C021084080281ED00A
:100AE000402826D114A8002102F078FB1BE054987E
:100AF000C10701D0FFF731FB89490840411E02467A
:100B00004A408A4200D894E0002800D183E0414264
:100B1000014084484143C80E83A1085C7CE014A8CE
:100B2000002102F05BFB059B04CB05931060516034
:100B300091E014A8002102F051FB07F0A9FE87E024
:100B40001022752900D10A2275490840411E03462A
:100B50004B408B4242D900282ED04142014071487F
:100B60004143C80E70A1085C27E00A226C49084086
:100B7000411E03464B408B4248D9002833D04142A6
:100B8000014068484143C80E67A1085C2CE014A8E6
:100B90000021102224E014A90A78002A02D0491C5E
:100BA00004C0F9E7002101600598001D05900B982D
:100BB000401C0B90FFF7D1FA2020401F08280DD8C9
:100BC0007844007940008744580909045D09043AD3
:100BD0003A0014A8002104F015FEA4E714A800218F
:100BE00005F0DAFB34E02020401F08280ED8C0466C
:100BF00078440079400087444A09090452090427CF
:100C0000270014A8002103F0A7FD8CE714A80021F9
:100C100005F046F91CE02020401F082809D8C046EE
:100C200078440079400087444204041F48041F04AC
:100C30000400129809F084FA0860FFF78EFA14A8ED
:100C4000002104F0DFFD03E014A8002103F084FD7F
:100C500009F076FA086054980125294681430B98DB
:100C600008180B90FFF779FA1298C117059B04CB6F
:100C7000059310605160FFF770FA14A8002105F089
:100C80008BFB08E014A8002105F086FB0BE014A8FC
:100C9000002105F005F909F053FA0880DBE714A8F4
:100CA000002105F0FDF809F04BFA0870D3E712981F
:100CB00009F046FA0880FFF750FA129809F040FA56
:100CC0000870FFF74AFA0D9F19E00B9F17E00B9889
:100CD000002814D0074612E0002800D121460D4616
:100CE00008E0129809994140E043084302D1ED43DE
:100CF00000E00D9D0B98002800D005462F46384691
:100D000073B0F0BD054670A809F059FA681CF1D01F
:100D100002E008980028EDD00025EBE7F0AD0000D8
:100D2000603F000031B57C0700011C021D0E180356
:100D30001E16140F191104081F1B0D171513100789
:100D40001A0C12060B050A09F0B5FFB08EB0049319
:100D500006920646929802900025E84305908C91F1
:100D60003468204609F04DF921188B9503918C4287
:100D700000D3BCE00020879087A90873889005986D
:100D800089902F46049D2078002800D1B2E02528C4
:100D900005D0641C34600699A8477F1CF3E78B9745
:100DA000601C306087AC2046314600F0BBF88CAA4E
:100DB0002046314600F0D7F8306801780B46683B92
:100DC0000122D341092B2BD87B441B795B009F4424
:100DD00004130A2727271627271943788799682B92
:100DE00019D1520204E0437887996C2B10D112027A
:100DF00011438791801C12E08799D20204E0879901
:100E0000520301E0879912030A438792401C06E0CF
:100E1000401C402201E0401C2022114387910178B0
:100E2000441C346087A80173732913D06E291DD127
:100E3000879832490840411E02464A408A423CD9BE
:100E400000282DD0414201402D484143C80E2DA11C
:100E5000085C26E087A80078400619D4009587A88A
:100E60008CAA8BAB069900F03DF92AE007AD87A963
:100E70008CAA284600F08CF9024628460699029B67
:100E80009847411C059D00D0C5198B9503991AE020
:100E9000009587A88CAA8BAB069900F0C0F810E0EB
:100EA0002020401F082808D8784400794000874453
:100EB0001904040D14040D0404008C9802C88C90CD
:100EC0000F6003998B9D681C13D050E7F8178C991D
:100ED00004C98C9117605060F3E78C9802C88C901D
:100EE0000F70EEE78C9802C88C900F80E9E72F46D0
:100EF00000E0059F38467FB00EB0F0BD603F0000B7
:100F000031B57C0700011C021D0E18031E16140FBC
:100F1000191104081F1B0D17151310071A0C1206C0
:100F20000B050A0910B50A680124E3071AD01378E3
:100F3000302B0CD0232B0ED02B2B0AD02D2B04D0F2
:100F40000024202BF1D1042306E0012304E0102328
:100F500002E0022300E0082304681C430460521CE2
:100F60000A60E1E710BDFEB516460D460446086866
:100F700002782A2A10D13068011D31600068606053
:100F8000002805D5404260602068012101432160AE
:100F90002868471C2F6017E00021303A092A08D83A
:100FA0004218531C2B60435C6F467B545278491C9B
:100FB000F3E76A460023535412784718002A03D0F7
:100FC000684608F057FB606038782E2826D1781CD8
:100FD000286079782A2908D13068011D31600068BD
:100FE000A0602868401C2860FEBD00203039092917
:100FF00008D839188A1C2A604A786B461A548978AE
:10100000401CF3E76A46002111541078002804D0F0
:10101000684608F02FFBA060FEBDA160FEBDF0B5E4
:1010200087B01E460C9F13681C1D14601D68002DA0
:101030003AD0049106908468002C04D4284608F025
:10104000BBFF844203D3284608F0B6FF0446069847
:101050004068A042039000DC2046014630680191C0
:10106000401805940399A142029630600EDD06985F
:101070000078C0070AD1059801990E1A0024B442DD
:1010800004DA20200499B847641CF8E70026049C81
:10109000069805998E420ADA2868010A18D12D1D92
:1010A0002146B847761CF3E70020B84718E00599B9
:1010B000039A8A4214DD0078C00711D00198451ABE
:1010C0000024AC420CDA20200499B847641CF8E7ED
:1010D0000020C0430299086008F0F6FF5821016023
:1010E00007B0F0BDF0B585B00C4606460A9D106805
:1010F000011D116000680490002844D00393B76874
:10110000002F04D4049808F07CFF874203D304988E
:1011100008F077FF074602967268BA42114600DC73
:101120003946039B1868009140180192BA42186032
:101130000FDD02980078C0070BD10098C01B039008
:1011400000260398864204DA20202146A847761C10
:10115000F7E70026BE4205DA0498805D2146A847DD
:10116000761CF7E70198B84210DD02980078C007B6
:101170000CD00098C61B0027B74207DA2020214672
:10118000A8477F1CF8E700202146A84705B0F0BD1E
:10119000F0B589B005920E4604467F2080002718DE
:1011A0004868039000250795FF210491FE31202215
:1011B0002046019208F058FE3046089702977D704D
:1011C000367B31466339152906903DD801228A4085
:1011D000604B1A42069822D007A908AA059B00F086
:1011E000BDF806980025067B012731466F3909298D
:1011F000059504D801228A4057490A423FD1582E0A
:101200003DD0016802230B40079A002A27D0089995
:101210004A1E08922D220A705F425F412FE000298A
:1012200012D1059B1A68111D19601268D1B24D4286
:101230004D410499FC316118089102990A700268C5
:1012400002218A430260CEE7252E02D0582EC3D059
:10125000CAE70020607025202070012078E0002B74
:1012600007D149070BD5089A511E089101991170B1
:1012700005E0089A511E08912B211170002703994F
:1012800003976518089B0178C907264608D102997B
:10129000491CC91A42689142264601DC691A4E1C53
:1012A000591C04984300002730463A4608F02AFDAE
:1012B00008900599002903D0411C0891077000E0AF
:1012C0000146A94206D8481E691A491C202208F086
:1012D000CBFD2F7006980078C00606D4311B202263
:1012E000204608F0C1FD059D2EE0A642059D2BD0AD
:1012F000311B302720463A4608F0B6FD069B07987A
:101300004142414103980140012905D11878400725
:1013100002D43046214604E03078611C2070701CF5
:1013200037701A7B412A0CD0582A05D0612A08D080
:10133000782A01D0702A07D11B781B0701D4612AB3
:1013400002D142784A704770204608F05AFE401990
:1013500009B0F0BD4230240043020000F8B5144645
:101360000F4605468068002804D428681021884369
:10137000286001E00120A860287B1026582808D0AA
:10138000782806D0702804D06F2801D1082600E004
:101390000A262846194600F055F8AA68002A09D1FD
:1013A00002460A4306D12878000749D52B7B002046
:1013B000024612E02B7B642B03D16423002905D461
:1013C0000AE0692B08D1002906D5692301223A6079
:1013D000002240428A4100E00A460094114632460B
:1013E00000F0CEF8A968884206DA401C21684A1E3F
:1013F000226030220A70F5E7287B582803D078282D
:1014000001D070280FD1297809070CD5702800D198
:10141000782021684A1E226008702068411E2160E1
:1014200030210170287B6F280AD12878000707D562
:1014300020684178302903D0411E2160302101709D
:10144000F8BDC04610B5037B702B05D10868021D9E
:101450000A60006800227BE002683E481040421E9D
:1014600004465440944216D9002807D04242024014
:1014700039485043C00E39A2105C00E02020401FC4
:10148000082808D878440079400087444C04041E9A
:1014900038041E04040000221846643814280DD8AD
:1014A00001248440354804420AD12120044205D059
:1014B0000868021D0A600068C21749E0582B46D12F
:1014C0000868031D0B60006842E018466438142861
:1014D00007D8012282402948024206D12120024237
:1014E00003D10020582B024632D10868C21D0720C4
:1014F00082431046083008601068526828E00022D5
:1015000018466438142807D8012484401B48044234
:1015100004D121200442CBD1582B18D10868031DD7
:101520000B60007814E0002218466438142807D8AD
:10153000012484401148044204D121200442B7D13F
:10154000582B04D10868031D0B60008800E010468A
:10155000114610BD603F000031B57C0700011C0240
:101560001D0E18031E16140F191104081F1B0D174A
:10157000151310071A0C12060B050A0900081200B1
:10158000FEB501920D460646582B01D0174800E0E3
:1015900015480090089802903046284305D1029AD9
:1015A0001068411E116030210170019C30462843B3
:1015B00013D030462946224600F01AF807460D4659
:1015C000224608F08DFB301A0099085C029B1968CE
:1015D0004A1E1A6008703E46E8E70298006808F064
:1015E00010FD401EFEBDC046DAB30000EBB30000A4
:1015F00080B5102A06D0082A09D1C0084A078018E9
:10160000C90880BD00090A078018090980BD0029A2
:1016100004D1114608F070F8002180BD002308F0C5
:1016200077FC80BDF0B5C9B0044602E0092808D1B6
:10163000641C20781F28F9DD2028F9D03E28F7D037
:1016400003E0002801D122462CE0651C284608F062
:101650006AFB421C2918824201D20A4622E0201865
:1016600003E0C91EC01EA34215D90278202A01D06A
:10167000092A10D1A04210D9421E1378202B01D084
:10168000092B0ED1A2420AD9831E1D78202DE8D045
:10169000092DE6D006E0421C04E0024602E08A1E64
:1016A00000E04A1E002515702178002922D020462E
:1016B00004E0C21CC178002910461BD00A46613ADA
:1016C000D2B2192A01D8203901704178002911D0ED
:1016D0000A46613AD2B2192A01D82039417081787C
:1016E000002907D00A46613AD2B2192AE1D8203936
:1016F0008170DEE720784C285FD1607854285CD177
:10170000A078552859D1E078522856D120794E2812
:1017100053D16079202850D1A01DF84908AA08F0BB
:10172000D7F9012800D090E2F54D287800284BD158
:10173000F44F3868F4490968401A45D409A808F0FC
:10174000B9FBF2480024047008F016F8F048046071
:10175000F048046001262E7038687D210901401888
:101760006438E9490860089D2846214607F0B9FC1D
:101770000028304600D1E043E7490860284621466A
:1017800007F09DFC002801D0F0074540E3492846BA
:1017900006F05AFEE24906F087FDE2490860099822
:1017A000E14908600A98E1490860E14808F06AFCEC
:1017B000E04808F067FCE04869E2D24F396820460B
:1017C00006F022FB002801D049B0F0BD06A808F0C1
:1017D00071FB0699079A204601F028FB002806D0E5
:1017E000CB4800210160CB480160D4484FE220780B
:1017F000502823D16078492820D1A07844281DD1D1
:10180000E07820281AD1201D05A90091CC4909AA09
:1018100008AB08F05DF9032800D018E20999C44824
:10182000089A059B0EC0C34C0EC40C3C0C3808F043
:1018300029FC204608F026FCC24828E220784228ED
:1018400048D16078412845D1A078532842D1E0782A
:1018500045283FD1207920283CD1601D002529460C
:1018600002F046F80646B84C214607F028FC0490E2
:10187000B64F3046394607F03DFC002800D13746C8
:101880000498002800D13C46A04805709C4805708B
:1018900007F072FF9E4804602046294607F006FCC8
:1018A000002809D09B480560A14808F0EBFBA1483F
:1018B00008F0E8FB07F02EFE0021204607F011FC9F
:1018C0000546F549204606F0EFFC002D00D1C2E1A7
:1018D0003F21C1E120784D2852D160784F284FD167
:1018E000A07854284CD1E0784F2849D1207952284B
:1018F00046D16079202843D17D2000010890A01DA9
:10190000FD4909AA08AB08F0E3F8002800DCBDE1B6
:10191000099D00242846214607F0D1FB0490F84E8B
:101920002846314607F0E6FB002800D12E46F7484E
:101930000499002900D1344609940899814200D9BC
:101940000890DC4801210170DB480021017007F09C
:1019500013FF0998DD490860DD49086008980028F0
:1019600001D039680818DB490860DB4808F08AFBB9
:10197000DA4808F087FB089B0999E6480A4665E0C3
:101980002078502866D16078572863D1A0784D28F8
:1019900060D1E07820285DD17D2000010590201DD8
:1019A00005A90091D74909AA08AB08F091F80228C7
:1019B00000DA4EE1099E00243046214607F07FFB05
:1019C0000490CF4D3046294607F094FB0028284666
:1019D00000D1304604990029214600D101460991E1
:1019E000089E3046214607F06AFB0490304629469F
:1019F00007F080FB002800D13546C448049900292F
:101A000000D12C4608940599814200D90590A94837
:101A100001210170A8480021017007F0ADFE09986E
:101A2000AA4908600898AA4908600598002801D0CA
:101A300039680818A7490860A74808F023FBA74899
:101A400008F020FB059B089A0999B14806F058FB5D
:101A500049B0F0BD207850287AD16078552877D1E8
:101A6000A0784C2874D1E078532871D1207945288A
:101A70006ED1607920286BD1A01D9F4909AA08ABBF
:101A800008F026F8022800D0FCE07D200490099C94
:101A90002046294607F013FB0390994E2046314615
:101AA00007F028FB002800D126460498000103997E
:101AB000002900D1354609950899814200D908903E
:101AC0007C48012101707C480021017007F054FE20
:101AD00009987E4908607E490860386808990818A6
:101AE0007C4908607C4808F0CDFA7C4808F0CAFAC6
:101AF0000899099807F0B6FB49B0F0BD34B500006D
:101B0000E80C2020740C2020800C2020EB0C2020DE
:101B1000C00C2020A40C2020440C20200000B44243
:101B200000009643500C2020480C20204C0C202014
:101B3000BC0B2020E00B202088B400007CB4000007
:101B4000CFB40000D8B40000000070C200007042A2
:101B5000207851281BD16078552818D1A0784928C1
:101B600015D1E078452812D1207954280FD1607919
:101B700020280CD1A01D00210A2204F091F9414235
:101B80004141584A117000287ED05A487FE02078A1
:101B9000542819D16078452816D1A0784C2813D143
:101BA000E078452810D1207920280DD1601D002132
:101BB0000A2204F075F9411E02468A4149490A7019
:101BC00000285DD1494862E03449204606F0F8FB20
:101BD000002810D03249204606F0F2FB002828D019
:101BE0003049204606F0ECFB002826D0204607F0BE
:101BF00057FF49B0F0BD2F4805702F48057007F01A
:101C0000BBFD2E4805602E4805602E4805602E4815
:101C100005602E4805602E4805602E4805602E4858
:101C200008F030FA2D4808F02DFA07F073FC2C4824
:101C30002DE003F033F949B0F0BD08F047F91A4838
:101C400005601A4805601A4821E037481FE035480A
:101C50001DE02D481BE0BF21090605F080FB07F0C1
:101C600003FE009001902D4A2D4B0120010209A88E
:101C700007F098FC401EFE2800D9A5E509A806E05B
:101C8000194804E01D4802E0194800E0224807F026
:101C90008BFB49B0F0BDC0460000C84219B500003A
:101CA00022B50000ECB40000980C20209C0C2020F1
:101CB0000DB40000EB0C2020E80C2020C00C2020EC
:101CC000A40C2020880C2020900C2020B80C202070
:101CD000BC0C20208C0C2020BC0B2020E00B2020F2
:101CE0009EB40000EF0C202058B400004CB400005B
:101CF0001AB4000027B4000019B1000040B400007D
:101D00000000AA42BCB40000A8B4000010270000E4
:101D100026B50000FCB4000070B400007DB30000E4
:101D200014B50000B2B4000064B40000F0B591B086
:101D30000A910127002A00D10BE30E93002B00D15A
:101D400007E30D921349144D81220C920A6001247D
:101D50002C602C64099002262E602C60A027384647
:101D600008F0A2F9284610300B902C61384608F094
:101D70009BF92E610998400040B2064A0C99116007
:101D80002C6010942C6434462E610790002828465D
:101D900005D403E00480424090120A400B98109949
:101DA000016020200F9008F07FF9FC4D2C60384630
:101DB00008F07AF92C61384608F076F9099EB006E9
:101DC00006900B9800D5F548109901600F9808F01F
:101DD0006BF9F24D2C60384608F066F92C613846F4
:101DE00008F062F9F00605900B9800D5EB481099C1
:101DF00001600F9808F058F9E84D2C60384608F05B
:101E000053F92C61384608F04FF9300704900B98CD
:101E100000D5E248109901600F9808F045F9DF4DB0
:101E20002C60384608F040F92C61384608F03CF93F
:101E3000700703900B9800D5D848109901600F984F
:101E400008F032F9D54D2C60384608F02DF92C6198
:101E5000384608F029F9B00702900B9800D5CF4812
:101E6000109901600F9808F01FF9CC4D2C6038468E
:101E700008F01AF908942C61384608F015F9F007B3
:101E800001900B9800D0C548109C04600F9808F092
:101E90000BF9089EC14D2E60384608F005F92E61F9
:101EA000384608F001F92C610F9808F0FDF82E6013
:101EB000384608F0F9F82E61384608F0F5F805F0D4
:101EC000EBFBB7490C9A0A602C602C6431462E61FA
:101ED0000028374600D130E20A9840B2AF490F4699
:101EE00010370028084600D4384610990160202099
:101EF0000F9008F0D9F80224A84D2C60A026304697
:101F000008F0D2F82C61304608F0CEF80A98400666
:101F1000384600D5A148109901600F9808F0C4F820
:101F20009E4D2C60304608F0BFF82C61304608F01A
:101F3000BBF80A988006384600D598481099016089
:101F40000F9808F0B1F8954D2C60304608F0ACF8C9
:101F50002C61304608F0A8F80A98C006384600D52B
:101F60008E48109901600F9808F09EF8FB4D2C6088
:101F7000304608F099F82C61304608F095F80A9838
:101F80000007384600D5F548109901600F9808F011
:101F90008BF8F24D2C60304608F086F82C61304604
:101FA00008F082F80A984007384600D5EB481099A7
:101FB00001600F9808F078F8E84D2C60304608F082
:101FC00073F82C61304608F06FF80A98800738469D
:101FD00000D5E248109901600F9808F065F8DF4DD0
:101FE0002C60304608F060F809942C61304608F007
:101FF0005BF80A98C00700D0D84F109C3C60274679
:102000000F9808F051F8099CD44D2C60304608F028
:102010004BF82C61304608F047F805F03DFBCE49FF
:102020000C9A0A602F602F64002800D174E1CB4D18
:102030002C602F60A026304608F036F82846103570
:1020400007610B96304608F02FF8C4490C61C2486E
:102050000C9A02600F600F642F460C6107980028ED
:10206000084600D438461099016020200F9008F0EF
:102070001BF8BA4D2C600B9E304608F015F82C6109
:10208000304608F011F806980028384600D5B348C5
:10209000109901600F9808F007F8B04D2C60304699
:1020A00008F002F82C61304607F0FEFF0598002882
:1020B000384600D5A948109901600F9807F0F4FF41
:1020C000A64D2C60304607F0EFFF2C61304607F03C
:1020D000EBFF04980028384600D5A048109901600D
:1020E0000F9807F0E1FF9D4D2C60304607F0DCFFB4
:1020F0002C61304607F0D8FF03980028384600D5F9
:102100009648109901600F9807F0CEFF934D2C6010
:10211000304607F0C9FF2C61304607F0C5FF029832
:102120000028384600D58D48109901600F9807F0B7
:10213000BBFF8A4D2C60304607F0B6FF2C6130465D
:1021400007F0B2FF0198002800D0844F109C3C603B
:102150000F9807F0A9FF099D804F3D60304607F0BA
:10216000A3FF3D61304607F09FFF3C600F9807F0EA
:102170009BFF3D60304607F097FF3D61304607F01A
:1021800093FF05F089FA002800D1C8E00D99481E98
:10219000C2B20E9D7048099FA02618E090120A4016
:1021A000048042400260304607F07EFF099F6B4C7E
:1021B0002760304607F078FF2761109B23606D1C75
:1021C0000F9A521E0D99491E634800D1AAE00E9540
:1021D0000F920D9163490160604D2F61304607F009
:1021E00063FF2F60304607F05FFF5D4C20680B9067
:1021F000304607F059FF2F61304607F055FF2F603A
:10220000304607F051FF0B98C007800F2168109CE3
:10221000214008180B90304607F046FF2F613046EA
:1022200007F042FF2F60304607F03EFF4C48006841
:102230000A90304607F038FF2F61304607F034FF30
:102240002F60304607F030FF0B9880000A99C907CD
:10225000890F401842490968214008180B90304600
:1022600007F022FF2F61304607F01EFF2F60304637
:1022700007F01AFF3A4800680A90304607F014FF4A
:102280002F61304607F010FF2F60304607F00CFF3B
:102290000B9880000A99C907890F401830490968CE
:1022A000214008180B90304607F0FEFE2F613046A3
:1022B00007F0FAFE2F60304607F0F6FE2848006867
:1022C0000A90304607F0F0FE2F61304607F0ECFE32
:1022D0002F60304607F0E8FE0B9880000A99C90786
:1022E000890F40181E49096821400C18304607F034
:1022F000DBFE2F610E990C700C98174A1060109A33
:102300002A602A642F610F98002828460D4600D1C4
:1023100048E71248103045E7032708990BE00427E7
:102320000D4800E000270C99016010980B490860E7
:1023300008640899099C09480461109E074D2E61A4
:102340002960A024204607F0AFFE2E60204607F04B
:10235000ABFE384611B0F0BD0480424090120A40F6
:1023600080130A4081000400F0B589B0064607A832
:1023700007F0A0FD0798D6490A68871A089AD54B36
:102380001C68151BD44C266008601A60D34800787E
:10239000012810D1D2480760D2480560D2480168B0
:1023A000002920D0711A1ED4D04900240C60D049D5
:1023B0000C60046019E00495CE480468CE480568B6
:1023C0002046294606F07BFE0028039623D07D2078
:1023D000C105204604F0C3FF0446294606F08AFEE4
:1023E000002828D028E0C1480468C44E3568284633
:1023F000214606F064FE002800D196E03F20010649
:10240000284604F0ACFF0546214606F073FE00287E
:1024100000D19BE09BE02046294606F06BFE002899
:1024200009D0B749204604F09AFF0446294606F031
:1024300046FE002800D125460295AE480560B14D04
:102440002C68384607F0D4F9214604F083FF7D213B
:10245000CF05394605F028FF214604F080FF0446E9
:102460002860A94E3568049807F0C2F9294604F09F
:1024700071FF394605F018FF294604F070FF074642
:10248000306000212046049106F02BFE06469F494D
:10249000204605F009FF3F210A06BF210D06002E48
:1024A000294600D01146019204F059FF07F0DCF9EB
:1024B00004468B4804603846049906F012FE06462E
:1024C0003846924905F0F0FE002E00D0019D2946C5
:1024D00004F045FF07F0C8F982490860201A8C49CA
:1024E0000860029806900590039E304606F05AF95F
:1024F000029089480468894D2F780798089906AAA0
:1025000005AB04F013FB012F38D1002800D1C3E044
:10251000FA4800210160FA480160FA4801607D48EC
:10252000016006F0F7FF09B0F0BD2846214606F02D
:10253000E1FD00280AD0BF200106284604F00FFF65
:102540000546214606F0BBFD002800D12C4634602C
:10255000ED4F3E68664805683046294606F0AFFDF7
:1025600000285CD03F200106304604F0F8FE064605
:10257000294606F0BFFD002862D062E0341B002827
:1025800005D10798089906AA05AB03F02BFD002C8E
:1025900000D5E4E00127039807F0F0FA0021049148
:1025A000002818D007F0F0FC0028384600D1287821
:1025B000C00710D1059C0698002106F077FD002881
:1025C00009D00021204606F071FD002803D0D24832
:1025D000069005900497039807F04AFA002800D067
:1025E0002F78F80704D107F0CFFC002800D197E03E
:1025F000039807F0C3FA002800D1B0E007F0C4FC4C
:10260000002800D0ABE00698C44C214605F04CFEF3
:1026100006900598214605F047FE04469EE03046A8
:10262000294606F067FD00280AD0BF200106304683
:1026300004F095FE0646294606F041FD002800D12B
:1026400035463D602046294604F06AF9C1480068D5
:10265000002106F02BFD002800D14CE13C68BF486A
:102660000568BD480068002106F020FD002800D163
:1026700041E10021284606F019FD002800D13AE189
:1026800000252046294606F011FD002800D132E140
:102690009E48057009B0F0BDAC480568684207F077
:1026A000A7F8AB4E314605F0FFFD04469F48046095
:1026B000284607F09DF8314605F0F6FD01469C4896
:1026C00001609D480460A0480160204611E1C046B9
:1026D000980C20209C0C2020740C2020EB0C202037
:1026E000540C2020680C20208C0C2020B80C2020BA
:1026F000BC0C2020A40C2020C00C2020880C202002
:10270000000080BE3C0C2020400C20200000C8426D
:10271000640C20206C0C2020800C2020E80C202051
:102720000699029C204604F01AFE06900598214660
:1027300004F010FE059007F027FC00280FD1069842
:102740000024214606F0BBFC002801D000200690A2
:102750000598214606F0B3FC002800D00594069C9D
:102760006F4E2046314606F0AAFC05466D4F2046C6
:10277000394606F0BFFC0028384600D12046002D1F
:10278000344600D104460694059D2846314606F09D
:1027900096FC03902846394606F0ACFC002800D190
:1027A0002F460398002800D13E460596049800283D
:1027B00026D000252046294606F081FC04905A4F79
:1027C0002046394606F096FC0028384600D12046BF
:1027D000049900292C4600D1044606943046294627
:1027E00006F06DFC04903046394606F083FC002864
:1027F00000D137460498002800D13D46059500E0F9
:1028000035464A4804604A480560414802684948DC
:10281000214605F065F9484F38603E480268059941
:10282000464805F05DF904903D68069C0026204668
:10283000314606F03BFC0028304624D103950025A4
:102840002046294606F03BFC002801D1204602E044
:102850000120C00760403A4905F026FD41210906E4
:1028600004F07DFD07462046294606F043FC00287B
:1028700004D00398394604F072FD03E0039839460A
:1028800004F068FD2C4F3860059F044638463146F9
:1028900006F00CFC002828D12546002438462146A5
:1028A00006F00DFC002801D1384602E00120C007E7
:1028B0007840234905F0F8FC4121090604F04FFD5A
:1028C000204905F0F1FC06463846214606F012FC88
:1028D000002804D00498314604F041FD03E0049838
:1028E000314604F037FD06462C4617480660204660
:1028F000314604F015F809B0F0BDC0465C0C20204C
:10290000700C2020580C2020900C2020EB0C202054
:102910003C0C2020400C20200000E0403333B33E2C
:10292000000070C200007042000020415C0C2020BA
:10293000700C2020BC0B2020580C2020E00B202005
:102940003333333F8FC2753F6C0C2020440C202062
:1029500000007041B80C2020BC0C2020880C2020E6
:10296000F0B589B001930292039107901148124D7E
:1029700081220492026001242C602C6402262E60C5
:102980002C60A027384607F08FFB284610350461DD
:102990000097384607F088FB074F3E6105490498C9
:1029A00008603C6008943C643E61079840060595C9
:1029B00005D503E00480424090120A40FD4D08997D
:1029C00029602020069007F06FFBFA4D2E60009FD3
:1029D000384607F069FB2E61384607F065FB07981B
:1029E0008006059800D5F34808990160069807F01D
:1029F0005BFBF04D2E60384607F056FB2E613846E3
:102A000007F052FB0798C006059800D5E9480899D9
:102A10000160069807F048FBE64D2E60384607F047
:102A200043FB2E61384607F03FFB079800070598E7
:102A300000D5FD4808990160069807F035FBFA4D6E
:102A40002E60384607F030FB2E61384607F02CFB2D
:102A500007984007059800D5F34808990160069843
:102A600007F022FBF04D2E60384607F01DFB2E616B
:102A7000384607F019FB07988007059800D5EA4803
:102A800008990160069807F00FFBE74D2E60384665
:102A900007F00AFB2E61384607F006FB0798C007CF
:102AA00001D0E14805900598089C0460069807F05D
:102AB000FBFADD4D2E60384607F0F6FA2E613846F7
:102AC00007F0F2FA2C61069807F0EEFA2E6038460D
:102AD00007F0EAFA2E61384607F0E6FA04F0DCFD6A
:102AE000D049049A0A602C602C642E6100282F467D
:102AF00000D161E10796039840B2394610310028B1
:102B0000384600D40846012606602020059006912C
:102B100007F0CAFA079D3D60A024204607F0C4FADA
:102B20003D61204607F0C0FA03984006069800D59C
:102B300038460660059807F0B7FA079D3D602046C5
:102B400007F0B2FA3D61204607F0AEFA039880061E
:102B5000069800D538460660059807F0A5FA079D47
:102B60003D60204607F0A0FA3D61204607F09CFA40
:102B70000398C006069800D538460660059807F009
:102B800093FA079D3D60204607F08EFA3D6120468E
:102B900007F08AFA03980007069800D538460660C1
:102BA000059807F081FA079D3D60204607F07CFA02
:102BB0003D61204607F078FA03984007069800D553
:102BC00038460660059807F06FFA079D3D6020467D
:102BD00007F06AFA3D61204607F066FA039880071D
:102BE000069800D538460660059807F05DFA079DFF
:102BF0003D60204607F058FA3D61204607F054FA40
:102C00000398C007069800D038460660059807F07C
:102C10004BFA079D3D60204607F046FA3D6120468D
:102C200007F042FA04F038FD002800D1D0E0029805
:102C3000002800D1ABE0002108967B4D019805915A
:102C400042567848049901603E603E643E46103624
:102C50003846022707610792002A00D430460899B7
:102C600001602020069007F01FFA2F60A024204664
:102C700007F01AFA2F61204607F016FA0798400667
:102C8000304600D5284608990160069807F00CFAEE
:102C90002F60204607F008FA2F61204607F004FA5B
:102CA00007988006304600D52846089901600698A6
:102CB00007F0FAF92F60204607F0F6F92F61204659
:102CC00007F0F2F90798C006304600D52846089963
:102CD0000160069807F0E8F92F60204607F0E4F954
:102CE0002F61204607F0E0F907980007304600D52D
:102CF000284608990160069807F0D6F92F6020460B
:102D000007F0D2F92F61204607F0CEF90798400767
:102D1000304600D5284608990160069807F0C4F9A6
:102D20002F60204607F0C0F92F61204607F0BCF95C
:102D300007988007304600D5284608990160069814
:102D400007F0B2F92F60204607F0AEF92F61204658
:102D500007F0AAF90798C00700D02E4608983060FF
:102D60000646069807F0A0F92F60204607F09CF968
:102D70002F61204607F098F904F08EFC002839D026
:102D80000599491C02988842274F00D056E72548EC
:102D9000049901603E603E64022038613E61386003
:102DA000A024204607F080F93E60204607F07CF919
:102DB000002032E090120A40089C3C613E60A02650
:102DC000304607F071F93C60304607F06DF925E0B8
:102DD0001448049901603E603E643D613E613D607F
:102DE000A024204607F060F93E60204607F05CF919
:102DF000089513E00B48049901600B4D2E602E647A
:102E00002F612E612F60A024204607F04DF92E601F
:102E1000204607F049F90598C01C08900898C0B2F0
:102E200009B0F0BD0480424090120A40F0B589B06C
:102E30000378442B47D14378522B44D18378492BD4
:102E400041D1C378562B3ED10379452B3BD14379F1
:102E5000202B38D1801DD44908AA07AB06F038FED4
:102E6000022800D025E1089E07980690C848012155
:102E70000170D74D3046294606F021F90446D24F5D
:102E80003046394606F036F9002800D13746002C86
:102E900000D13D46BF480560CE4D069F38462946C5
:102EA00006F00DF90446C44E3846314606F022F9C4
:102EB000002800D13E46002C00D13546B6480560BA
:102EC000B6480025BDE00378532B32D14378502B10
:102ED0002FD18378452B2CD1C378452B29D1037969
:102EE000442B26D14379202B23D1801DB74908AA32
:102EF00006F0EEFD012800D0DBE0089DA44801218A
:102F00000170B34C2846214606F0D9F80746AE4E6C
:102F10002846314606F0EEF8002800D12E46002F54
:102F200000D134469B4804609B48002505609B48BF
:102F300087E00378442B48D14378492B45D18378E7
:102F4000532B42D1C378542B3FD10379202B3CD152
:102F5000059106920125401D934908AA07AB06F08A
:102F6000B7FD022800D0A1E0089C079F002620465C
:102F7000314606F0B6F8019038460396314606F021
:102F80009EF80121C90700280494029100D04F4007
:102F90007F48022101707F20C4053846214606F093
:102FA0008EF80090884E3846314606F0A3F8002887
:102FB00000D13E460098002800D1344601980028F0
:102FC00000D0BFE0029E7440BDE00378542B0BD1CB
:102FD0004378552B08D18378522B05D1C3784E2BDB
:102FE00002D10379202B11D00378412B15D14378DE
:102FF0004E2B12D18378472B0FD1C3784C2B0CD199
:103000000379452B09D14379202B06D10378542B22
:10301000069205911BD006211AE05C4905F0D0F913
:10302000002802D0002009B0F0BD594800250570E5
:10303000584805605848056058480560584805607C
:1030400058480560012064490D7009B0F0BD0521A4
:1030500001254018544908AA07AB06F039FD02289B
:103060002AD0012822D1089E00243046214606F0AD
:1030700038F807463046214606F021F8002802D0ED
:103080000120C00746404949304605F00DF948493E
:1030900005F0DAF9474905F007F93D4903220A70BE
:1030A0003C490C60002F5DD146495CE0284609B0E0
:1030B000F0BD012009B0F0BD089F079C00263846EE
:1030C000314606F00EF803902046314605F0F7FF32
:1030D0000121C9070028049100D04C4038463146F0
:1030E00005F0EDFF002801D0049847402F493846ED
:1030F00005F0DAF82E4905F0A7F92E4905F0D4F8C5
:103100000290234803210170224806607F20C705F2
:103110002046394605F0D3FF0190274E2046314620
:1031200005F0E8FF002800D126460198002800D1CC
:10313000374603980028049800D147400298164962
:103140000F6012E0029E1348046013480399016067
:10315000049C204605F0B3FF002800D074401749B6
:10316000204603E016490C4A1160144905F09CF80A
:103170004121090604F0F3F8084908600849059858
:1031800008600849069808605CE7C0460EB5000074
:10319000EC0C2020840C2020340C2020B40C2020A7
:1031A000A80C2020AC0C202008B50000DA0F494004
:1031B00000003443000081420000F042E7BD3A4085
:1031C0000000B4420000B4C20000C84237B500009D
:1031D0000000C8C20000F0C2E50C2020F0B58BB0A2
:1031E0000A460346DF4905462E78881940786D1C4B
:1031F000C006F9D42D2E01D02B2E01D1287801E064
:103200006D1E304606F084FF01D3014601E0014601
:1032100020394E293FD0492958D1687806F078FFE7
:1032200000D220384E284BD1A87806F071FF00D28A
:103230002038462844D1002A01D0E81C1060E878E4
:1032400006F066FF00D2203849281FD1287906F001
:103250005FFF00D220384E2818D1687906F058FF59
:1032600000D22038492811D1A87906F051FF00D2A8
:10327000203854280AD1E87906F04AFF00D22038D5
:10328000002A03D0592801D1083515602D2E00D110
:10329000C9E0B749C8E0687806F03AFF00D22038A4
:1032A00041280DD1A87806F033FF00D220384E28EF
:1032B00006D1AD490024002A00D12BE1E81C28E109
:1032C000002A00D013600024214623E1A94905917A
:1032D000002430280192029317D1687806F018FF75
:1032E00000D220389F4958280FD1A878091849786A
:1032F000890707D42E2808D1E8789A490818407819
:10330000800702D5AD1C9C4805909A4B06F00CFF37
:10331000411E88410690984B049406F005FF411E1B
:10332000884103900894099421460A942B782E2B07
:1033300003D1002C3AD1012436E0079418463038E6
:1033400001220928174600D80027069C62403A430C
:1033500009D0039A002A29D0824AD21852789207BB
:1033600024D5092804D8C00084490818049A0AE022
:10337000184661381A28049A00D2203BD8007F49A9
:1033800008187F49401890C80A980899059B06F0CC
:10339000B2FE22463B4601F036FF0A90089109989A
:1033A000079C001B099001216D1CBFE701242D2EF5
:1033B00001D0089802E0E007089A5040059009986B
:1033C000860003980028324600D1099A002909D0C6
:1033D0000698002807920BD01A46613A1A2A03D39E
:1033E0001A4603E00A9C7DE01A46203A452A09D095
:1033F0000398002812D01A46613A1A2A00D2203BBC
:10340000502B0ED121466B782D2B01D02B2B0DD1BB
:10341000A81C0290AD780022D4430BE00295099ECF
:103420003DE002953BE05149002473E0681C0290A6
:1034300000241D462A46303A092A26D800244D2267
:103440009600303D092D25D82D2B01D0224600E0D5
:10345000624207981218D7177A40D71BB7420A461C
:1034600000D80022069810420AD101229002874219
:1034700000D800220398104202D10A206043441968
:10348000029A501C55780290DBE702980219501EF0
:10349000029000242D2B00D16442079826180024A6
:1034A0000A9D284608992246234605F0D1FD0028AA
:1034B00017D106980028059917D04D208000864224
:1034C00019DD0D4606F000FE2221016000240A9855
:1034D00029462246234605F0C4FD002814D124497C
:1034E00013E02C46019A059910E00A98324603F041
:1034F000C3FE044609E0234886420EDC06F0E4FDE4
:1035000022210160214600E01849019A002A01D0D9
:103510000298106020460BB0F0BD002E0FD41A4C5C
:10352000019A002E1CD0F00706D00CCC0A98083C5B
:1035300006F0E1FD019A0A9076080834F1E774423A
:10354000114D019A002C0BD0E00706D00CCD0A9843
:10355000083D06F005FE019A0A9064080835F1E777
:103560000A9CD3E7F0AD00000000F87F0000F0FFF8
:103570000000F07F000024400000304088AF0000D1
:1035800048FEFFFFCCFEFFFF20B10000F0B589B080
:103590000F4605460120C1073E468E43B14886428C
:1035A0000BD3D1483018284300D190E006F08CFDB1
:1035B00021210160CD49002550E1AB48864212D857
:1035C000C64AC74B2846394601F01DFE0022A54BCE
:1035D00005F062FD002800D186E0C248864200D393
:1035E00082E039463AE10291089700249D4920463D
:1035F0002A46334601F002FE9C4B224606F07BFD34
:1036000005460F469A4A9B4B06F075FD9A4A9B4B1E
:1036100001F0F9FD06F052FD994A9A4B01F0F3FDD5
:1036200006F04CFD984A994B01F0EDFD06F046FD81
:10363000974A984B01F0E7FD06F040FD964A974BFC
:1036400001F0E1FD06F03AFD06900791944A954B92
:1036500006F0B2FD944A954B01F0D5FD06F02EFD23
:10366000934A944B01F0CFFD06F028FD924A934B0C
:1036700001F0C9FD06F022FD22467A4B01F0C3FDA0
:10368000039004912846394602F002F805900C4652
:103690008B48864200D283E006F028FD02460B46A6
:1036A000059D2846214606F026FD2A4606F09AFD8D
:1036B00002460B4601F0A7FD824A864B01F0A3FDAE
:1036C00002460B468148844901F098FDC0E07D4ADE
:1036D0007D4B06F071FD04460E467C4A7E4B06F09B
:1036E0006BFD2246334657E0284639462A463B467C
:1036F00006F001FD064608970F465D4A5D4B06F051
:10370000FAFC5D4A5D4B01F07EFD06F0EAFC5C4A86
:103710005C4B01F078FD06F0E4FC5B4A5B4B01F08A
:1037200072FD06F0DEFC5A4A5A4B01F06CFD06F0C1
:10373000D8FC594A594B01F066FD06F0D2FC04460C
:103740000791574A574B3046394606F0D4FC564A43
:10375000564B01F058FD06F0C4FC554A554B01F09C
:1037600052FD06F0BEFC544A544B01F04CFD06F0ED
:10377000B8FC00223B4B01F046FD02460B462046BA
:10378000079906F0EDFC02460B462846089C2146A8
:1037900006F0B1FC2A46234601F035FD05465DE002
:1037A00000263046214632460196234606F0A3FC09
:1037B00002460B462846394601F020FD00900F4690
:1037C000059D28462146324606F00CFD02460B4672
:1037D0000098394606F0C4FC06460F4606F086FC03
:1037E00007900691284621462A4606F0FBFC0590E4
:1037F00004913046394632463B4601F004FD02460C
:103800000B463048304901F0F9FC05460F46059853
:103810000499079A069B06F06EFC2A463B4601F087
:10382000EDFC05460F4601982146024606F0DAFCFB
:1038300002460B46254C264E2046314601F0DEFC62
:103840002A463B4601F0DAFC2246334601F0DBFC17
:1038500005460898002801DC02984140284609B036
:10386000F0BDC0460000F03FFFFFDF3F0000E03F3B
:1038700009F7FD0DE13D023F88B20175E0EF493FD8
:103880003B8F68B52882A4BF5544880E55C1C93FF7
:103890007D6FEB0312D6D4BF555555555555C53FD1
:1038A00082922EB1C5B8B33F59018D1B6C06E6BF9D
:1038B000C88A599CE52A00404B2D8A1C273A03C030
:1038C0003333EF3F075C143326A6913C182D445444
:1038D000FB21E93F26A691BCFB21F93F9C7500889E
:1038E0003CE4377E0000503E000010C00000F87F2E
:1038F000F0B589B00A460746CB4B02903E7898193E
:1039000040787F1CC006F9D42D2E01D02B2E01D17A
:10391000387801E07F1E304606F0FEFB01D30146F9
:1039200001E0014620394E2940D0492959D1787803
:1039300006F0F2FB00D220384E284BD1B87806F0C2
:10394000EBFB00D22038462844D1002A01D0F81CD5
:103950001060F87806F0E0FB00D2203849281FD12B
:10396000387906F0D9FB00D220384E2818D1787962
:1039700006F0D2FB00D22038492811D1B87906F0E0
:10398000CBFB00D2203854280AD1F87906F0C4FBCA
:1039900000D22038002A03D0592801D108371760F7
:1039A0002D2E00D1C3E0FF20C50521E1787806F077
:1039B000B3FB00D2203841280CD1B87806F0ACFB1C
:1039C00000D220384E2805D1984D002A00D10FE1B1
:1039D000F81C04E00025002A00D109E102981060DB
:1039E00006E1944905913028019216D1787806F0C5
:1039F00093FB00D2203858280FD1B878191849788D
:103A0000890706D42E2808D1F8781818407880073E
:103A100003D5BF1C8320C00505908649059C204620
:103A200005F044FB411E884106908320C1052046D5
:103A300005F03CFB411E8841039000240794049448
:103A400008943A782E2A03D1002C33D101242FE098
:103A500011463039012509292B4600D80023069844
:103A600045401D4309D00398002823D06E48831891
:103A70005B789B071ED5092903D888006E49081872
:103A800008E0104661381A2800D2203A90006A49AE
:103A90000818DC3805680898059904F005FC2946E3
:103AA00003F05DFC08900798001B0790012004902C
:103AB0007F1CC6E701232D2E01D0089902E0D9070B
:103AC00008984140079EB500039800282C4600D175
:103AD00034460498002809D00698002805910DD096
:103AE000104661381A2805D3104605E00D460198A6
:103AF000029F7AE010462038452809D00398002814
:103B000011D0104661381A2800D2203A502A0CD120
:103B100007937A782D2A01D02B2A0AD1BE1CBB78B4
:103B20000020C54308E0344632E02C4630E0404DEA
:103B30005EE07E1C0025134618463038092823D83D
:103B4000002537462D2A01D0284600E06842303B48
:103B50000019092B1BD8C6177040861B262E079804
:103B600000D80020069901420AD1802E01D80020F9
:103B700000E001200399014202D10A206843C518E0
:103B8000781C7B780746DDE77019471E00E0044685
:103B900000250898294605F089FA002813D10698CF
:103BA0000028059811D0272C14DB044606F08CFA67
:103BB000222101600021204605F081FA002812D15F
:103BC000FF20C50510E0059D0EE0214603F024FE10
:103BD000054609E02521C9438C420CDC06F074FA45
:103BE0002221016000E0124D0198002800D00760FA
:103BF000284609B0F0BD002C0AD4104D002CE7D0A7
:103C0000E10702D0296804F04FFB64082D1DF5E799
:103C100064420A4D002CDBD0E10702D0296804F091
:103C200013FC64082D1DF5E7F0AD00000000C07F17
:103C3000000080FF00002041F0B1000038B3000018
:103C4000F0B587B005460F460122D0070E468643E1
:103C5000924886420DD3B448864203D8002D3FD007
:103C600086423DD1284639462A463B4601F0CBFAEA
:103C7000E2E08B488642039112D8914A914B284644
:103C8000394601F0C0FA00248B4B224605F004FAB5
:103C9000E1430291002869D0B00DF92866D2CDE049
:103CA0008048864220D8854886423FD828463146FB
:103CB0002A46334601F0A7FA00277C4B3A4601F02A
:103CC000A2FA044628460D4601218B073146029789
:103CD0003A4601F098FA02460B462046294636E05D
:103CE000002920DC924F1FE06F48864234D8002420
:103CF0006F4B284606F054FA2A4605460F466D4B90
:103D000010463146224606F0F6F96B4B224601F08A
:103D10007AFA02460B462846394606F021FA05464D
:103D20000F46022021E0814F824D87E0029200245D
:103D30005E4B284606F034FA2A4605460F465E4B8F
:103D4000104606F02DFA02460B462846394606F084
:103D500007FA05460F4609E0002054492A46334633
:103D600006F0FEF905460F46032002900695284608
:103D700039462A463B4606F0BEF9059004910246B4
:103D80000B4606F0B8F904460D464F4A4F4B06F075
:103D9000B2F94F4A4F4B01F036FA06F09DF94E4A00
:103DA0004E4B01F030FA06F097F94D4A4D4B01F0B9
:103DB0002AFA06F091F94C4A4C4B01F024FA06F02D
:103DC0008BF94B4A4B4B01F01EFA02460B46059805
:103DD000049906F090F904900591474A474B204614
:103DE000294606F088F9464A464B01F00CFA06F0DF
:103DF00073F9454A454B01F006FA06F06DF9444A5D
:103E0000444B01F000FA06F067F9434A434B01F0D6
:103E1000FAF906F061F9224A964213D8049A059BF2
:103E200001F0F1F902460B4606F08EF902460B4608
:103E30002046394601F0E2F905460F462846394644
:103E400007B0F0BD029AD400354A131912590292F4
:103E50005A680192049A059B01F0D5F902460B4677
:103E60003048011906594D6806F06EF932462B4666
:103E700001F0C4F922463B4601F0C0F902460B4668
:103E80000298019901F0BAF905460F4603980028F7
:103E9000D4D50120C0074740D0E7C04600001044F9
:103EA000FFFFDB3FFFFFF23FFF7F03400000F0BF5B
:103EB0000000F8BF0000F83F0000F03FFFFFE53FC3
:103EC0009C7500883CE4377E11DA22E33AAD903FDE
:103ED000EB0D76244B7BA93F513DD0A0660DB13F41
:103EE0006E204CC5CD45B73FFF8300922449C23FA9
:103EF0000D5555555555D53F2F6C6A2C44B4A2BF6E
:103F00009AFDDE522DDEADBF6D9A74AFF2B0B3BF35
:103F1000711623FEC671BCBFC4EB98999999C9BFAD
:103F2000B0B10000D0B100000000F07FFB21F93FEC
:103F3000FB21F9BF182D4454F0B591B00F90012525
:103F400048000D90400D5C00670D59401095EE073C
:103F50000E40AB494D1E44198C4200D203E17C193E
:103F60008C4200D2FFE0049610990C05611E00916E
:103F70000B400025E9430E91A449019423430C937F
:103F8000C01B40180290401C0390D0020A90500DB4
:103F9000D9020B9247189E48C41B38462946224630
:103FA0002B4605F09DFE4842294622462B4605F049
:103FB00097FE4900C00F4418204629463A462B4632
:103FC00005F08EFE4A42204629462B4605F088FE23
:103FD0004900C00F4418204629463A462B4605F0B2
:103FE0007FFE4A42204629462B4605F079FE4900CD
:103FF000C00F4018441E3846294622462B4605F07D
:104000006FFE06460F460A98294622462B4605F0C3
:1040100067FE70186F411099081A0A902A46BA4133
:10402000204629462B4605F05BFEC20F4900891841
:10403000099146000A98294622462B4605F050FE73
:104040004A00C00F8018CF0F341809994F41E13C46
:104050000994AF410F9AD00F0D990918069152009B
:1040600008920E98401E0D902E46AE4108463040F4
:10407000034607902046294605F032FE0A9106982D
:10408000C043614AD1430143521A05922C466C4108
:1040900009982946234605F023FE069009913846E3
:1040A0002946089A079B05F01BFE089007913846A1
:1040B0002946059A234605F013FE05900A9A069BA9
:1040C000D0182B466B41079F3E400D9C089A22401A
:1040D00082185E41059838186941099A801869412B
:1040E000841969410E98401C4748684181424BD26F
:1040F000002201988142109800D310460F9B01D3F3
:10410000039A029281401F2242406708D7400F4322
:1041100084405E05204639460B9A0C9B05F0E0FD75
:1041200040428E4102994A1E3449491E8A423EDC71
:10413000012A48DB00990F401205C10F73005B187C
:1041400040001099214040183A4304990A43002145
:10415000651C51410B9E301A0C98984100D325469E
:1041600044D3114642E0002F28D024498F4204D086
:10417000002823D0884200D0F5E6224806430025D7
:104180003146284611B0F0BD6008CA0784184F08B0
:104190000F980605204639460B9A0C9B05F0A0FDAA
:1041A00040428E41039A1549491E8A42C0DD154896
:1041B000049901430025284611B0F0BD0025294689
:1041C000284611B0F0BD002A13D10E994C400E497B
:1041D0004F4027430DD1019A56403043294605D11F
:1041E000049911430025284611B0F0BD284611B0AE
:1041F000F0BD2946284611B0F0BDC046FF070000BB
:1042000002F8FFFF0000F07FFFFF1F00FE03000029
:1042100033F30475F0B591B0044601200390000219
:1042200008909720C00004900BAF022002903870D5
:10423000CA207870E320B8700920F8706820042143
:104240003A4604F015FDA3203870402323403D2159
:10425000CA433721CE433F210191CD435C21C9435D
:104260000793002B0B4600D02B460D4600D0354659
:1042700009940E4600D016467B70BD70FE70089CF7
:104280008034099A14403922D2433323DD433B233F
:10429000DE430A94002C0B4600D033460E4600D075
:1042A0002E46894D099C00D011463B717E71B97133
:1042B000F8713872787228460F300A213A4604F0B5
:1042C000D7FC0320272120400690059101D0202013
:1042D00000E0C843387028461E3003993A4604F07F
:1042E000C7FCA00606D40EAAC720107279480F900A
:1042F000794805E00EAA5D20107274480F9074484A
:104300000E900921049804F0B3FC0A98002826D0E6
:104310006420C04304906F20C0434921C9430391E6
:104320004B21CB437421CF437F21CD434D21C94342
:104330004F26F643089A144200D0BAE000D0BBE002
:1043400000D0BCE000D004980BAA16705570937092
:10435000D0705D4D28460A30042104F089FC8B2082
:104360000001E10704D10BAAD821117001214AE014
:104370000BAAF82111700127394604F079FC0720B7
:10438000FA2101F0C9F80EAA019810702920C50081
:104390002846394604F06CFC0EAA00261670E81D6B
:1043A000394604F065FC0EAA167014205070284699
:1043B0009630029F394604F05BFC0EAA167064200A
:1043C000507028469230394604F052FC0EAA1670FE
:1043D0008E205070F92090709020D07028461430B4
:1043E000042104F045FC0EAA1670082050702846DF
:1043F0001230394604F03CFC0EAA16705770103586
:104400002846314D394604F033FCA007059800D505
:104410002620C0430BAA10703048012104F028FC6C
:10442000600704D42E480E9004210EAA09E00EAABB
:10443000C0201070C2205070C4209070C620D07070
:104440000421284604F014FC01F03EFBE00605D4EC
:1044500024480E90A81D04210EAA0AE00EAA2020CE
:10446000107028205070302090703820D070A81D17
:10447000042104F0FDFB01F027FB082020431A492A
:10448000088001F021FB0799002900D006210A9835
:10449000002800D0891D1420044201D010200143BF
:1044A0000698002800D0091D10480170002011B0A6
:1044B000F0BD0E4600D143E73D4600D142E7039BE5
:1044C00000D040E740E7C046980A0000B4980D3598
:1044D000B8AAB38DB088C3C5B8AAAAAA3D07000080
:1044E0008B8B8B8BA3A3A3A3E61620200A17202077
:1044F000F0B5E3B08A480078012800D00DE123A888
:1045000005F0D8FC2398209024981F9085480068D7
:104510001E90854800681D90844800681C9084485F
:104520000568844806682846314602F013FF0746AE
:104530000021229104F0D5FD04467F49384603F05E
:10454000B3FE3F2109062191BF210F06002C3946F9
:1045500000D0219902F003FF05F086F91B90304648
:10456000229904F0BEFD04463046734E314603F0F6
:104570009BFE002C394600D0219902F0F0FE05F098
:1045800073F91A902846229904F0ABFD0446284698
:10459000314603F089FE002C394600D0219902F003
:1045A000DEFE05F061F919906448046820462299FE
:1045B00004F097FD05462046314603F075FE002DB8
:1045C000394600D0219902F0CAFE05F04DF9189045
:1045D0005B4804682046229904F083FD0546204686
:1045E000314603F061FE002D394600D0219902F0DA
:1045F000B6FE05F039F91790524804682046229912
:1046000004F06FFD0546504E2046314603F04CFE47
:10461000002D394600D0219902F0A1FE05F024F9C1
:104620001690484844682046229904F05AFD0546F1
:104630002046314603F038FE002D394600D021993E
:1046400002F08DFE05F010F915903E488468204672
:10465000229904F046FD05462046314603F024FE2B
:10466000002D394600D0219902F079FE05F0FCF8C2
:104670001490364804682046229904F032FD05461D
:1046800020462D4903F010FE002D00D0219F394611
:1046900002F065FE05F0E8F8229005F0D5FC2190C7
:1046A0002B48006805F0E4F9054605F065FC064670
:1046B00005F05AFC044605F0D3FC074605F0D6FC8D
:1046C00010941197129017980890169809901598C1
:1046D0000A9014980B9022980C9021980DA961C112
:1046E0001F9800901E9801901D9802901C980390AE
:1046F0001B9804901A98059019980690189807909E
:10470000144A0120010223A8209B04F04BFF401E05
:10471000FE2802D823A804F047FE63B0F0BDC046CF
:10472000EF0C2020540C2020680C2020640C20204A
:104730006C0C2020580C20200000C8425C0C20206B
:10474000700C2020BC0B202000007A44A40C2020F8
:10475000740C2020F1AE0000F0B58FB00491054636
:10476000724E01902F78F3195B786D1CDB06F9D43B
:104770006F480021CC43631C0E93034608464B410F
:104780002D2F029403D02B2F0E94694B02D1297840
:10479000059102E06D1E05970E94242A00DC104658
:1047A000102812D0002831D10A21059A302A1FD1B1
:1047B0006C7820222243782A1CD1A87805903018E2
:1047C0004078800720D40C911BE010200C900598B5
:1047D00030281CD16978302020220A43782A11D150
:1047E000A97805917218527892070BD5AD1C0EE08E
:1047F0000C910CE0302C02D3382C00D292E008202F
:104800000C903020059002E0AD1C10200C90039716
:1048100000270E981C4619460C9E32463B4605F072
:1048200077FB0990089132460B973B4605F058FA02
:104830000E9A101A06908C4107940A2E0A9601D3FC
:104840000A200A900B990D910E91059F3E46303E2D
:104850000A9A96420B9C1CD3344AD21950784306CC
:104860003B460BD51E46373EF417002305930C9BA1
:10487000F31A2346059A93413B460AD382063CD558
:10488000573BDC1700221E460C9BF31A234693412C
:1048900033D2099B0E981A1A089F3A468A4118D3B8
:1048A00002465A400B467B40134304D1069A921BA2
:1048B000079AA2410DD300230C9A05F011FA301883
:1048C0000E904C410D9A511CAA1857780D91214613
:1048D000BCE705F0F9FB222101600498002801D013
:1048E000019901600022029B581C11494A41039C16
:1048F0002D2C00D0184611D111E0049A002A039CF7
:1049000005D00D9E002E019B00D0AB1913602D2CFD
:104910000E9803D1002240428A4100E00A46114627
:104920000FB0F0BD05946D1C08206FE7F0AD0000DE
:10493000FFFFFF7FF0B58DB007920890002201269F
:104940000B9149004F0D5900490D0C91694C651EA2
:1049500009977919A142314600D31146F7070A9702
:104960001F460B9847400C984519A542344600D382
:1049700014465F4D0A980740214301290AD10C983B
:10498000002800D184E0A8427BD0099800287FD07D
:10499000A84276D00096069700260125079A500D6A
:1049A000D90208180590D00203903146089C22468F
:1049B000334605F095F9049007910195EF070598A6
:1049C0000743384631462246334605F089F90890B8
:1049D00005910B98C0434949CA4302438A1A02927F
:1049E0003446744103983146234605F079F905466B
:1049F0000B913846049F3146029A234605F070F920
:104A00003F4A17401540079AAA18334673410B9C3A
:104A100020187141059C00197141089C12195841D8
:104A20007141099B0C9CE318CC0221D4354C1B1915
:104A3000C40F490009194000D40F0019FC0F52009F
:104A400012197D002A4C641EA342069F19DC019CAA
:104A50002405002B21DD641E21401B050B43194654
:104A600039436B420A9C2346934126D2401C2AE0DC
:104A7000244C1B195B1C1E4C3D46641EA342069F22
:104A8000E5DD1D4807430026394630460DB0F0BD30
:104A90000026314630460DB0F0BD1B4D6940C04385
:104AA000002A15DB0843002B009916D0002817D0E8
:104AB000009800283146E8D117E06240154303D141
:104AC000019A024080187141064630460DB0F0BD93
:104AD00001960843002B0099E8D101990028E7D1FD
:104AE0000091009800283146CFD12743CBE7C0463C
:104AF000FF07000002F8FFFF0000F07FFFFF0F003C
:104B000000F8FFFF01FCFFFFFFFF1F00FEB5074697
:104B100006460121C8073D468543EC0D992C07D375
:104B20006948854217D33046314602F018FC8DE0C3
:104B30005748854213D85C49304602F010FC7F216B
:104B4000C90504F0D7FA0021C9430028029148D0D2
:104B5000732C46D27BE0002F18DC5D4E77E04D4889
:104B6000854215D84F48854227D82846294602F065
:104B7000F6FB4A4902F0F3FB04460120810705F0E9
:104B800027FB05F001FB0646002029E04F4E5EE0C2
:104B9000414885421ED8424905F01AFB0446FF20D1
:104BA0008105284603F080FB7F21C90502F0D7FB71
:104BB00005F0EAFA0646022012E00291374905F0B4
:104BC00007FB04467F20C10505F002FB05F0DCFA77
:104BD000064606E03148294603F036FC0646032027
:104BE000029001973046314603F05EFB04460146D1
:104BF00003F05AFB07462D4903F056FB2C4902F0FF
:104C0000AEFB0146384603F04FFB2A4902F0A7FBF2
:104C10000146204603F048FB04462749384603F086
:104C200043FB264902F09BFB0146384603F03CFB60
:104C300017498D420DD8214602F091FB01463046BE
:104C400003F032FB0146304602F084FB0646304654
:104C5000FEBD02998F001A49CD59214602F07FFB13
:104C600001461848C459304603F01EFB214602F0A5
:104C700071FB314602F06EFB0146284602F06AFBEA
:104C8000064601980028E2D50120C0074640DEE72D
:104C9000FFFFDF3EFFFF973FFFFF1B40000080BF8D
:104CA0000000C0BFFFFF2F3FCAF2497125AC7C3D19
:104CB0000DF5113EA9AAAA3E4712DABD98CA4CBE0C
:104CC000C4B20000D4B200000100807FDB0FC93FF6
:104CD000DB0FC9BFF0B597B015460E46044610A8C5
:104CE000019011A8009014A812A90CAA16AB00F00C
:104CF000B9F9002802D0012017B0F0BD11A8008832
:104D0000C00502D4022017B0F0BD0C9804F070FD6D
:104D100061210895CD05294603F0C6FA0A900D9841
:104D200004F066FD294603F0BFFA074605900E9889
:104D300004F05EFD294603F0B7FA09900F9804F0DD
:104D400057FD294603F0B0FA05460B900320810772
:104D5000384603F0A9FA0494044606900A980146DE
:104D600002F0FDFA0390099F394603F09DFA079679
:104D700006462046294603F097FA314602F0EFFA3C
:104D800004F0DAFCFEF702FC424A434B05F0B3F9AB
:104D900003F07EFD04990860384639463D4602F02E
:104DA000DEFA06460398059F394603F07DFA04466D
:104DB00030460B9903F078FA214602F0D0FA04F05D
:104DC000BBFC044604913046294603F06DFA0646C2
:104DD0000698394603F068FA314602F0BBFA7F21A3
:104DE000C90502F0BCFA04F0A7FC02460B462046B7
:104DF000049900F0CDFA274A274B05F07CF903F01F
:104E000047FD079908600A9D28460B9903F04CFA64
:104E100004463E463846099F394603F045FA214686
:104E200002F09DFA014602F09AFA04F085FC04466D
:104E300007913046314603F037FA064628462946A0
:104E400003F032FA314602F08AFA0646384639460D
:104E500003F02AFA0146304602F07CFA06460B9827
:104E6000014603F021FA0146304602F073FA04F0DD
:104E700063FC02460B462046079900F089FA054A72
:104E8000054B05F038F903F003FD08990860002090
:104E900017B0F0BD6666666666A64C40F0B5D9B040
:104EA0006448006814906448046800252046294638
:104EB00004F017F907466149204603F0F5F93F2150
:104EC00009061891BF210C06002F214600D0189921
:104ED00002F045FA04F0C8FC1690594807683846B5
:104EE000294604F0FEF806463846544903F0DCF93A
:104EF000002E214600D0189902F031FA04F0B4FCDB
:104F00001590504806683046294604F0EAF80746EE
:104F100030464A4903F0C8F9002F214600D01899BD
:104F200002F01DFA04F0A0FC1390474806683046D2
:104F3000294604F0D6F807463046404903F0B4F954
:104F4000002F214600D0189902F009FA04F08CFCD9
:104F500012903E48007811903D480078109005F07E
:104F600097F80F9005F09AF80E903A480668304688
:104F70001795294604F0B5F807463749304603F03F
:104F800093F9002F214600D01899149A150102F0C8
:104F9000E6F904F069FC14902E48466830461799EB
:104FA00004F09FF8074630462B4903F07DF9002FA7
:104FB000214600D01899EA0F0D9202F0D0F904F0C2
:104FC00053FC0646234887683846179904F089F849
:104FD00005463846204903F067F9002D00D0189C9B
:104FE000214602F0BCF904F03FFC16990091159996
:104FF00001911399029112990391119904911099B9
:1050000005910D9906910F9907910E9908911499A0
:1050100009910A960B90114A114B0120010219A81F
:1050200004F0C0FA401EFE2802D819A804F0BCF90A
:1050300059B0F0BD80130A40A40C20200000C842E3
:10504000C00C2020880C2020900C2020EB0C20206D
:10505000EF0C2020BC0B202000007A4408B0000098
:1050600050B30000F0B58FB0049315460C46059080
:10507000149F159A0026F04306903E805B48007806
:1050800007A902F023FE002802D006980FB0F0BD59
:1050900001940397012420020290554803881420AC
:1050A0000342059F40D0294600930798000607AEAB
:1050B00073781B041D18708840BA40190F460860A9
:1050C00008980006717909040818F18849BA091886
:1050D000796009990906727A12045118728952BAD4
:1050E0005218BA600A9A1206737B1B049A18F38945
:1050F0005BBA9B18FB602B140014091412145B4359
:10510000404349435243181840188018F1210906BA
:1051100040186106884263D803990888029A1043B0
:1051200008801026009B059F580602D43246039C37
:1051300018E007A88119805D00024A788018019C58
:10514000208088780002CA78801860800879000280
:1051500049794018A08006223243039C2088082108
:1051600001432180029D80352B42049E17D007A861
:105170008118805C00021D464B78C0183880887802
:105180000002CB78C0182B46788008790002497954
:105190004018B880921D2088702101432180980713
:1051A00018D007A88518EC786878C1070AD011498B
:1051B0000A68002A06D007202040411CA006400FA4
:1051C00090476878000705D50B480168002901D091
:1051D000A0098847304603F07EFE00200FB0F0BDE6
:1051E00000F072FC0020039908804EE70A17202087
:1051F000E61620200017202004172020FCB40124EC
:10520000E407634002E0FCB40124E40708B41D0392
:10521000ED08D60D354356025F007F0D06D12C00F8
:10522000344300D0AEE001B0FCBC7047A408254375
:1052300007242402FF34A74205D10020190D0905D7
:1052400001B0FCBC7047002B03D50024A61BAC4169
:1052500025000B03DB08C20D134342024800400D3A
:1052600007D11C00144300D08CE00EBC1000F0BC31
:10527000704701246407234307242402FF34A0421B
:1052800005D10020090D090501B0FCBC70470029BB
:1052900003D50024A21A9C412300C11B08D51C0081
:1052A0002B0025001400320026000024611A38006B
:1052B000362925D502B4393949420C00203C03D2A5
:1052C0002F008F40374301E03700A740002F01D067
:1052D00040210E4302BC20290BD500290ED04C42A0
:1052E000203420B4A5402C0020BC0D41CE403619FE
:1052F00004E000292E000D4120390E4192196B4126
:105300001C0014433ED00024002B04D501240021AE
:105310008A1A99410B00401E52005B41FBD50121C6
:10532000890215000D400CD0521800277B4101D393
:10533000401C0BE00721C90115000D4001D1890077
:105340008A43072109028A4352005B41801C19DD10
:1053500007210902FF31884209D30EBC0020C90F82
:105360000902FF31C900C91D0905F0BC7047190BBE
:1053700000050143E40721431805120B104301B057
:10538000FCBC70470021002001B0FCBC7047FEE768
:10539000F0B585B01E46054602920390504B514F22
:1053A00004963E40501E1446844134439C4207D824
:1053B0000F40681E2C4684413C434948844208D92A
:1053C0000398029A049BFFF71EFF0C46214605B086
:1053D000F0BD4548049B181810431AD00C46C90F5D
:1053E000D80F4000019141183D4316D032431CD0E4
:1053F0003B48864217D187421DD1424C3C48C046AB
:105400007944097949008F4401023B60DEE7414C51
:10541000DCE70398FEF714FCD7E702290398D5D3FD
:10542000032918D015E0874218D10120C007044095
:105430002E48241810E000242046C04679440979FB
:1054400049008F4401020608C0E700200121CC0773
:10545000BCE72A4C00E02A4C2548B7E7B81B0015EA
:105460003C2803DD214C2248019918E0002B09D586
:1054700000253B22D243904204DA28462C460EE017
:10548000234C23E003980D462146029A04F068FE5F
:105490000122D2079143FEF7D3FB0C46294600298F
:1054A00094D0022905D0012912D10121C9074C400D
:1054B0008CE7104A104B2146FFF7A5FE02460B462B
:1054C0000B480E49FFF79AFE7FE70F4C0F487DE728
:1054D000084A094B2146FFF796FE054A084B72E73A
:1054E0000000F07FFFFFFF7F000010C0FB21F93FAD
:1054F000182D4454075C143326A6A1BCFB21094097
:10550000FB2109C0FB21E93F7CD902C0D221337FB6
:105510007CD90240FB21E9BFF0B585B005460022E9
:10552000D44319208001814200D992E0072028400D
:1055300000D18EE00292084604F0ACFB464902F02E
:1055400083FF064603AF384604F02CFA3878411E34
:1055500002464A408A4200D87BE0002807D04142F8
:1055600001403E484843C00E3DA1085C00E02020B9
:10557000401E03286DD80194414F8D21C905C046B6
:1055800078440079400087440C0105093F4F2320EF
:10559000410606E03C4F8B20C10502E0394F452013
:1055A0000106304602F080FE04463046394602F0DD
:1055B0007BFE04F059F90746204604F055F9010A2C
:1055C00004AA11705070380A961C9070D770E807C2
:1055D000019C05D1A80715D468071FD4029C38E0A8
:1055E000492087003846B030022104AA03F040FB6E
:1055F00000282ED102213846324603F039FB00281C
:1056000027D1E7E7492084002046B430022104AACC
:1056100003F02EFB002814D0019C1AE049208500DD
:105620002846B830022104AA03F022FB002810D13A
:10563000083502212846324603F01AFB002808D11B
:10564000CCE7201D0221324603F012FB0028019C0A
:10565000C2D0204605B0F0BD0000484331B57C07FC
:1056600000011C021D0E18031E16140F1911040848
:105670001F1B0D17151310071A0C12060B050A092C
:10568000000040460000C044000040450000C04506
:10569000F0B585B00D460446C8434000400D0CD11E
:1056A0002046294622462B4604F025FD22462B465D
:1056B000FFF7A9FD04460D4695E04D49002D04DD98
:1056C0004C4829150FD02E4623E028460840204399
:1056D00000D188E0002DF3D504F0F6FC2121016013
:1056E000474D00247FE00021002D03D11539E50A44
:1056F0006405F9E70023421C154202D16D005B1CD2
:10570000F9E7C91A491C2022D21A2646D6402E4350
:105710009C40394A891806408019401C0091C907ED
:1057200003D0E10F400040186400E10F400046182C
:10573000002201200290400503926400002811D04D
:105740008718F31B314600DB19463D18039B1B18D5
:10575000B74200DC2A4600DC03934900E30FCE1871
:105760004008EAE72248471C00250495002F23D073
:105770000498C319964215DD01950025002B029966
:1057800000D42946D81904900028029800DA284647
:105790000140B61A9C4200D2761E019D5218E41AAE
:1057A000ED1903E002D19C42E6D23246E00F7100CF
:1057B0000E1864007F08D9E7344309D0681C03D071
:1057C00001202840451903E00398401C0390002560
:1057D000039A50106908D20754180099490809051E
:1057E0000818064945182046294605B0F0BDC046B0
:1057F000FFFFFF7FFFFF0F0001FCFFFF0000E03F06
:105800000000F87FF0B58BB014460391564F064662
:105810003378F9184978761CC906F9D4242C00DDB0
:10582000002401252B2B02D02D2B02D1002533780B
:1058300000E0761E102C10D0002C2BD10A24302B27
:1058400028D1737820211943782916D1B378F91813
:105850004978890717D430231CE01024302B19D144
:105860007378302120221A43782A04D1B378FA18A9
:10587000527892070AD40B460CE0302B01D3382B18
:1058800006D3302305E0B61C102403E0B61C01E06B
:10589000761C0824019502900A2C069401D30A2054
:1058A000069000200A9007460590099004961D4630
:1058B000303D06988542059811D32B48C118497888
:1058C0004A0605D51D46373DA54201D2E81706E038
:1058D000890632D5573BA3422FD2D8171D460790D1
:1058E000E6170A98089739462246334604F0F8F935
:1058F00022460F462D180798474128463946334619
:1059000004F006FB089A51400A9A5040084307D118
:105910000998411C049E301843780A950991C6E7FE
:105920000020C44304F0D0FB22210160039800282A
:1059300001D002990160214613E003980028019AE2
:105940000A9C394605D0099D002D029B00D0731991
:105950000360002063428841002A00D11C4600D128
:10596000014620460BB0F0BDF0AD000090B004F051
:10597000DDF803F0F3FD04F03DF904F04FF903F016
:1059800047FC03F0D3F803F053FE46484649416014
:1059900046490A68FF231B069A4303239B07D21834
:1059A0000A600025856007210160454F454E02E0F1
:1059B00003F0D4FC30BF6846402100F0A1FE00286F
:1059C00024D0684602F09EFF002802D16846FBF70B
:1059D00029FE6846402100F093FE002816D0684654
:1059E00002F090FF002802D16846FBF71BFE6846D4
:1059F000402100F085FE002808D0684602F082FFB2
:105A00000028D8D16846FBF70DFED4E76846402150
:105A100002F0B8F800281AD06C462046FBF702FEC8
:105A20004021204602F0AEF8002810D06C462046F7
:105A3000FBF7F8FD4021204602F0A4F8002806D02C
:105A40006C462046FBF7EEFD40212046E0E703F0E0
:105A500085FC17480078012805D1154805701548C0
:105A60000068FCF781FC14480078012803D1124833
:105A7000057001F0D5F811480078012803D10F48CE
:105A80000570FEF735FD3878012804D13D700948CE
:105A9000006803F0ABFD3078012889D1357004F03F
:105AA0005BFA85E710E000E0FF7C000020ED00E0FD
:105AB000E60C2020B00C2020E40C2020F00C20204C
:105AC000E70C2020EE0C202070B582B00026F443B5
:105AD000504DA87A00281ED001AB1E702968686856
